:020000040000FA
:060000000201070221834A
:03002B000225FBB0
:030033000225DDC6
:03003B0002261C7E
:0300430002259102
:030053000221F691
:03006B000225B7B4
:10008300021FEFE5C754F84401F5C77901220000C8
:100093000080FB120086B900030200F1E4792178A5
:1000A30008B800028004F709D8FCE479297802B87B
:1000B30000028004F709D8FCE490028178D6790A1B
:1000C3008002F0A3D8FCD9FA7A567B0C90013778DA
:1000D300EE79038015E493A3AD82AE838A828B838A
:1000E300F0A3AA82AB838D828E83D8E9D9E7758288
:1000F300127583A7740312011975829175830074B5
:100103000012011975D00075813F751881751902A8
:10011300759F00020096C09FF59FE473D09F22D085
:1001230083D082C09FE493C0E0740193C0E0740263
:1001330093F59F22FF0000B4000028002800283018
:1001430075A000A000A000A00000080008E001F0D6
:10015300001000100010001000100010005000509C
:1001630000500010001000D0070000000000000F36
:100173000001000500307507001000010081FF0039
:10018300000000FF220640062806FF0202020802C2
:100193005000A0000000E803026D820100005E82AF
:1001A300029982010000AD0C026F82010000B302CC
:1001B300029982010000AE0C026182010000C902B3
:1001C300029982010000AF0C026382010000CB029E
:1001D300029982010000B00C026582080000CC0283
:1001E300029982010000B10C026782010000B20C87
:1001F300FF0100FF20026D820100005882029982F4
:10020300010000160D0269820000000000027D82D9
:100213000300001903FE0BFE0BFE0BFE0BFE0BFE91
:100223000BFE0BFE0BFE0BFE0BFE0BFE0BFE0B8001
:100233000E980E7A0EFFFF0202020202020202026F
:10024300010D0000001001026D82010000558202C1
:100253009982010000590D0277820100005D0702B7
:1002630099820100005A0D027582010000EF81029C
:1002730099820100005B0D027382010000D38102A9
:1002830099820100005C0D0279820100002D810238
:1002930099820100005D0D027F8201000009810245
:1002A30099820100005E0D0285820100003F8102F8
:1002B30099820100005F0D028782010000518102D3
:1002C3009982010000600D028982010000E1810230
:1002D3009982010000610D028B82010000620D0111
:1002E300E803053F100AFF00013075030201060011
:1002F30000000000000000000000000000000000FB
:100303000000000000000000000000FFFF06008066
:100313000CE803140953696D706C65424C455065D4
:10032300726970686572616C051250002003020ADD
:10033300000201060302F0FF53696D706C652042F1
:100343004C45205065726970686572616CFA1200E1
:100353000000130230784646303100024368617270
:10036300616374657269737469632032000830785D
:10037300444230330010436861726163746572698B
:100383007374696320340002436861726163746546
:10039300726973746963203500026D820100005B2A
:1003A30082029982010000750E028F8201000021F2
:1003B3000C028182010000760E0299820100007D09
:1003C3000E029182010000350C0281820100007E41
:1003D3000E0299820100008F0E0293820200003602
:1003E3000C028182010000900E02998201000097A5
:1003F3000E0295820000004A0C027D820300004B2E
:100403000C028182010000980E029982010000A96A
:100413000E029782040000510C028182010000AA9F
:100423000E120122919803120122A89803120122AD
:10043300D998031201221499031201223E9903123F
:1004430001226899031201227F99031201229699CE
:1004530003120122AD9903120122D699031201223C
:10046300E99903120122FF9903120122129A03123E
:100473000122399A03120122BCA702120122C0A849
:1004830002120122F8A8021201221BA90212012260
:1004930026A90212012249A90212012258AA021214
:1004A30001222DAB02120122A8AB0212012230ACB1
:1004B300021201226BAC02120122A2AC021201222F
:1004C30030AD0212012209AE0212012269AE0212FC
:1004D300012274AE02120122F3AE02120122F6AE21
:1004E30002120122F9AE0212012288AF0212012286
:1004F3008BAF02120122BBAF02120122E5AF02123F
:100503000122D3B00212012285B10212012295E029
:1005130002120122BDE002120122EBE002120122CB
:1005230022E10212012280E102120122CBE1021236
:10053300012216E20212012256E2021201229CE279
:1005430002120122CAE20212012287E302120122ED
:1005530091E3021201229EE302120122D1E302126D
:1005630001229DE402120122A9E402120122C1E444
:1005730002120122CBE40212012267A2031201221A
:1005830075A2031201228DA203120122A5A2031256
:1005930001225FBA011201220BBB0112012286BBA9
:1005A30001120122A7BC01120122E3BC01120122A4
:1005B3008CBD0112012273BE01120122D7BF0112A9
:1005C30001222EC001120122AFC0011201229FC1DC
:1005D30001120122ECC10112012272C20112012295
:1005E300A4C201120122B8C401120122FAC40112E9
:1005F300012218C5011201229BC5011201226FC6F7
:100603000112012237C70112012209CA0212012273
:10061300DCCA0212012285CB02120122D8CB0212BC
:10062300012288CC0212012214CD0212012200CE33
:10063300021201222FCE0212012242CF0212012204
:100643008ACF021201225FD0021201229BD0021232
:100653000122B7D002120122C0A503120122008099
:10066300031201221680031201223C80031201228D
:10067300588103120122628103120122978203121D
:1006830001228F83031201229AD602120122CAD7B2
:1006930002120122FDD70212012247D802120122BF
:1006A3000EDA02120122DB6D00120122456E0012E6
:1006B3000122A46F00120122B46F00120122E16F24
:1006C30000120122387000120122E170001201228F
:1006D300E87100120122B272001201221274001298
:1006E3000122557400120122FA7400120122477587
:1006F300001201226D75001201227B770012012284
:10070300807700120122857900120122D27900122A
:100713000122457A00120122787A001201221A7B03
:1007230000120122C37B00120122FB7B0012012273
:10073300FE7B00120122467C00120122867C0012FD
:100743000122DD7C001201225393031201226B93D9
:1007530003120122B39303120122C993031201224C
:10076300109403120122249503120122B19503125E
:100773000122FC95031201229026001201229C26DD
:1007830000120122D726001201221C270012012287
:10079300DC2700120122622800120122C72800125E
:1007A3000122F328001201222C29001201226A2BB4
:1007B300001201224E2D00120122342F00120122B9
:1007C300773000120122C53200120122D733001202
:1007D30001222235001201223236001201224F3645
:1007E300001201228A3600120122AC3600120122C5
:1007F3000F3700120122D03B00120122653C001288
:100803000122B63C00120122DD3C001201222F3DE1
:10081300001201224D3D00120122A73D00120122C8
:10082300903E001201220640001201228A4000126B
:100833000122C1DB02120122CBDB021201220EDCF8
:100843000212012229DC02120122B9DC0212012266
:10085300E1DC021201221EDD0212012255DD021229
:1008630001227EDD02120122F3DD0212012208DEE3
:10087300021201221DDE021201224EDE02120122A9
:1008830062DE0212012287DE02120122C1DE02129F
:100893000122EDDE0212012225DF02120122A4DF72
:1008A30002120122CFDF0212012218E002120122FA
:1008B30042E0021201226DE0021201224AA0031259
:1008C3000122E99A02120122179B02120122659C5E
:1008D30002120122459D02120122649D021201228D
:1008E300E19D02120122249E021201227A9F02122A
:1008F30001223BA002120122C2A20212012263A31F
:100903000212012259A40212012256A50212012247
:10091300B0A6021201223BA702120122EF9E03128C
:100923000122589F03120122AC9F03120122D39F7D
:100933000312012204A00312012284EE02120122F7
:10094300F1EE0212012238EF0212012250F00212DC
:1009530001224CF1021201222FF202120122F6B1FE
:100963000212012238B2021201220AB30212012238
:10097300E3B302120122DDB402120122BFB5021257
:10098300012228B602120122DEB60212012252B758
:1009930002120122BEB702120122E7B7021201229C
:1009A30061B802120122FAB8021201225FB90212DF
:1009B300012274B902120122BAB902120122D3B977
:1009C3000212012238BA021201223BBA0212012298
:1009D3005A9003120122829003120122C090031243
:1009E30001227E9103120122E59103120122019259
:1009F30003120122299203120122599203120122A6
:100A0300689203120122E592031201220B9303124F
:100A13000122D2AA01120122B0AC01120122E2AEDC
:100A2300011201221EAF011201224BAF011201225A
:100A330035B00112012280B001120122CBB00112A4
:100A43000122DDB0011201221DB10112012252B1B6
:100A530001120122A0B101120122CFB10112012220
:100A6300F2B1011201223FB201120122C4B20112FA
:100A73000122DEB4011201221DB7011201225EB769
:100A83000112012200B90112012241B9011201220E
:100A9300B4B9011201220ABA0112012234BA0112B5
:100AA3000122D48D02120122D28E021201226B95F1
:100AB300021201228C97021201225799021201227B
:100AC300BF9A02120122F14000120122A04100123A
:100AD3000122E64100120122264300120122BC44F6
:100AE3000012012236450012012251450012012253
:100AF300CC4500120122264700120122864800122B
:100B030001228C4900120122ED4A00120122064BF8
:100B130000120122644B00120122524C00120122E6
:100B2300854C00120122F54C001201226F4D001278
:100B33000122B94D00120122834E00120122584FA7
:100B430000120122375000120122C250001201226A
:100B5300305100120122A45100120122CF51001280
:100B630001228E5200120122F3530012012210546B
:100B7300001201222F5400120122205500120122DB
:100B83004555001201226F5500120122EA55001249
:100B93000122445600120122AD57001201225B5874
:100BA300001201229C58001201220080021201222D
:100BB3004E80021201225A8002120122388102124F
:100BC30001226981021201229A81021201221A82F0
:100BD30002120122528202120122A4820212012273
:100BE300E18202120122FE840212012224870212F0
:100BF30001220F8902120122F98A0212012285269B
:100C030000120122BF9601120122EF960112012266
:100C1300C89D011201224D9F011201224AA5011212
:100C2300012232A6011201226FA60112012292A60D
:100C330001120122C3A601120122CCA60112012234
:100C4300D6A601120122C4A701120122BAA80112D9
:100C53000122CC5800120122CB5C00120122D15C8C
:100C6300001201220C6400120122256900120122E4
:100C730008870312012202880312012276880312D5
:100C83000122B48803120122288903120122A189B7
:100C930003120122AA8903120122B6890312012237
:100CA300CB8903120122098A031201221F8A03122C
:100CB3000122F1F202120122FEF20212012218F3C2
:100CC3000212012257F30212012295F302120122AA
:100CD300FAF3021201220FF4021201221AF4021291
:100CE300012227F4021201223EF4021201224CF4E3
:100CF3000212012257F40212012263F402120122AA
:100D030072F4021201227DF402120122A0F40212F3
:100D1300012247F50212012257F50212012271F551
:100D2300021201228EF502120122AAF502120122F9
:100D3300CFF502120122DAF502120122EFF50212B7
:100D4300012203F60212012264F6021201226AF65C
:100D53000212012270F60212012276F60212012219
:100D63008EF602120122C1F602120122C1D701122C
:100D7300012245D801120122F4D80112012253DACB
:100D83000112012274DC0112012260DD0112012231
:100D930095DD01120122B7DD0112012266DE011287
:100DA30001225EE00112012287E00112012219E112
:100DB300011201224BE10112012258E10112012229
:100DC300AFE101120122D5E10112012242E4011235
:100DD300012245E5011201229DE50112012250C9BC
:100DE300011201225ACA0112012241CB011201222E
:100DF3004BCB011201226DCB0112012279CB0112DF
:100E0300012212CD0112012241CD011201225DCE38
:100E130001120122B6CE011201221CD001120122BD
:100E2300FBD00112012257D101120122C4D10112B8
:100E33000122FFD1011201223ED201120122F7D475
:100E43000112012211D5011201229DD501120122A5
:100E5300ABD50112012204D60112012212D60112CE
:100E6300012285D601120122E9D60112012233D7CC
:100E730001120122D0F301120122F2F30112012225
:100E830018F6011201222DF90112012245FA01126D
:100E93000122F8FA01120122DAFB011201224B9A14
:100EA30003120122709A03120122E29A0312012211
:100EB3008FC20212012298C202120122A1C202129F
:100EC300012278C30212012229C5021201225FC541
:100ED3000212012299C502120122CFC50212012278
:100EE30009C6021201223DC60212012269C602127C
:100EF3000122B2C602120122ECC60212012235C738
:100F0300021201228DC702120122C2C7021201225C
:100F13001DC80212012257C802120122A8C80212D8
:100F23000122DEC80212012218C90212012246C997
:100F33000212012269C902120122F4A3031201223F
:100F430020A4031201227BA40312012285A403120D
:100F5300012295A4031201222CD10212012236D1BF
:100F63000212012274D102120122BDD10212012206
:100F7300F7D10212012251D20212012272D20212BD
:100F830001227BD202120122CCD202120122F5D21B
:100F930002120122FFD2021201226BD3021201229A
:100FA300F9D30212012247D4021201227DD4021284
:100FB300012204D50212012244D5021201227CD55A
:100FC300021201228ED502120122ADD50212012294
:100FD300B6D50212012270D602120122FEFE0112C0
:100FE3000122CA7D00120122007E00120122367EF8
:100FF300001201228F7F0012012244A60312012254
:101003005AA60312012264A603120122AEA60312FA
:1010130001223EF70212012257F702120122FBF7C7
:10102300021201223BF80212012254F80212012299
:1010330088F802120122D5F80212012209F90212DC
:1010430001224BF9021201224FFB021201220FFF70
:101053000212012238FF0212012261FF0212012251
:10106300A3FF021201224F8A03120122748A031280
:101073000122A08A03120122AEA7031201229C823D
:1010830001120122008501120122B28601120122FE
:10109300A48701120122298801120122A7880112C3
:1010A3000122D48801120122F88B01120122728CD1
:1010B30001120122618D011201229B8D0112012275
:1010C300DB8D01120122958F01120122E88F01129B
:1010D30001223190011201229F9001120122D1902D
:1010E30001120122E99001120122FE910112012253
:1010F3000E92011201223E9301120122609301120A
:1011030001229693011201223B95011201227A9545
:10111300011201229A96011201223EA30312012217
:101123004FA30312012265A703120122A4A70312EE
:101133000122E8FF021201229FA403120122AFA49D
:1011430003120122C7A4031201222FA503120122B5
:1011530063A103120122E8A1031201224EA203128A
:101163000122779D03120122A09D031201220B9EEF
:10117300031201225C9E03120122B59E0312012277
:10118300F8E9021201220FEA0212012288EA02128E
:10119300012261EB021201221FEE02120122998346
:1011A30003120122298403120122A78403120122BC
:1011B300308503120122C585031201224F860312D3
:1011C30001225986031201226886031201227E86B8
:1011D30003120122918603120122F18603120122D6
:1011E30005870312012239A503120122A3A50312C5
:1011F3000122B5A503120122F09B03120122459C93
:1012030003120122B39C03120122239D0312012224
:1012130026960312012250960312012225970312E8
:1012230001221998031201225FBA021201221CBB88
:101233000212012257BB021201227FBB02120122BA
:10124300E1BB021201222DBC0212012286BC021252
:10125300012217BD0212012219BE02120122D6BFBA
:101263000212012258C002120122BDC00212012241
:10127300D4C002120122E4C10212012222C20212CC
:101283000122EBE50112012275E901120122FDEAB7
:101293000112012254EB0112012273EB011201220C
:1012A300F1EB011201228FED0112012273EE011203
:1012B30001225DF2011201222DF301120122608D40
:1012C300031201228F8D03120122A58D0312012225
:1012D300ED8D031201222F8E031201229A8E031227
:1012E3000122698F03120122D58F0312012252E5D5
:1012F300021201228AE70212012229E802120122C4
:1013030024E90212012243E902120122B0E9021286
:1013130001225CFB02120122A1FB02120122BEFB8D
:10132300021201227BFC02120122E4FC02120122BE
:10133300C7FD02120122D6FE02120122C97F00124A
:101343000122F5A703E066701008A3E066700A089F
:10135300A3E066700408A3E06622C3E7960809E7E2
:10136300960809E7960809E79622C3E09608A3E0E2
:101373009608A3E09608A3E09622C008C3E096F57A
:101383000808A3E096420808A3E096420808A3E0F1
:101393009645087001D3D00822080808EAC0E0EB9C
:1013A300C0E086F0E7A4FA180986F0E7A42AFA1841
:1013B3000986F0E7A42AFA180986F0E7A42AFA199D
:1013C30086F0E7A4FBE5F02AFA190886F0E7A42BD8
:1013D300FBE5F03AFA190886F0E7A42BFBE5F03AAF
:1013E300FA18180986F0E7A4C5F02BFBE43AFA19BA
:1013F30008E7C5F0C6A426F6E5F03BFBE43AFA1885
:1014030086F0E7A4F6E5F00826F6E43B08F6E43AAE
:1014130008F6D0E0FBD0E0FA22E4CFC0E0E4CEC08F
:10142300E0E4CDC0E0E4CCC0E075F020E626F608A9
:10143300E633F608E633F608E633F6181818EC3305
:10144300FCED33FDEE33FEEF33FFC3EC9709ED976D
:1014530009EE9709EF97191919400FFFEC97FC094B
:10146300ED97FD09EE97FE191906D5F0BFECF709C4
:10147300EDF709EEF709EFF7191919D0E0FCD0E001
:10148300FDD0E0FED0E0FF226016080808C6C313B3
:10149300C618C613C618C613C618C613C6D5E0EABF
:1014A300227009080808226016181818C6C333C624
:1014B30008C633C608C633C608C633C6D5E0EA2213
:1014C300E627F60809E637F60809E637F60809E6D7
:1014D30037F622E026F608A3E036F608A3E036F650
:1014E30008A3E036F622E026F008A3E036F008A3CE
:1014F300E036F008A3E036F022C3E697F60809E6E3
:1015030097F60809E697F60809E697F622C3E096E8
:10151300F008A3E096F008A3E096F008A3E096F0A5
:1015230022E657F60809E657F60809E657F60809CA
:10153300E657F622E056F608A3E056F608A3E0566F
:10154300F608A3E056F622E056F008A3E056F008AA
:10155300A3E056F008A3E056F022E0F608A3E0F675
:1015630008A3E0F608A3E0F622E6F008A3E6F008F5
:10157300A3E6F008A3E6F022E0FAA3E0FBA3E0FC75
:10158300A3E0FD22EAF0A3EBF0A3ECF0A3EDF0223D
:10159300E0F8A3E0F9A3E0FAA3E0FB22E8F0A3E973
:1015A300F0A3EAF0A3EBF022CAC0E0E6F0A308DA66
:1015B300FAD0E0FA22CAC0E0E0A3C582CCC582C556
:1015C30083CDC583F0A3C582CCC582C583CDC58336
:1015D300DAE6D0E0CA22C3E498F8E499F912161ABD
:1015E3008026C3E49AFAE49BFBE920E7E912161A82
:1015F300E498F8E499F922C3E498F8E499F9121607
:101603001AE498F8E499F9C3E49AFAE49BFB22EB11
:1016130020E7CFE920E7E0B90010BB0008E88AF033
:1016230084F8AAF022E4FBC8FA22EB70227B10C8EC
:1016330033C8C933C9335007C39AC3DBF280069A50
:1016430050012ADBEAC833F4C8C933F4C9FA227556
:10165300F008E4C833C8C933C933C99AC99B5004D5
:10166300C92AC93BD5F0ECFBC833F4C8E4C9FA2254
:10167300600D08C6A2E713C618C613C6D5E0F32249
:10168300600C08C6C313C618C613C6D5E0F422708F
:101693000422600D18C6C333C608C633C6D5E0F4AA
:1016A3001822251810AF08F518400C15198008F5F5
:1016B3001840021519D2AF2200C0D0251810AF0868
:1016C300F518500C05198008F51850020519D2AF0A
:1016D300D0D0222518F58210AF08F518400C151943
:1016E3008008F51840021519D2AF851983222518F1
:1016F300F582E43519F583222518F8E43519F92222
:101703002518FAE43519FB222518FCE43519FD22C6
:10171300E4732518C582C0E0E51934FFC583C0E032
:10172300E518C3958224F810AF08858319858218BC
:101733008008858319858218D2AFCEF0A3E520F007
:10174300A37808E608F0A3DEFAEFF0A3E58124FA14
:10175300F8E608F0A3E608F0A3E608F0A30808E615
:1017630008F0A3E608F0A315811581D0E0FED0E0D0
:10177300F8158115811581E8C0E0EEC0E022251837
:10178300C582C0E0E51934FFC583C0E0E518C39501
:101793008224F910AF088583198582188008858310
:1017A30019858218D2AFCEF0A3E520F0A37808E61E
:1017B30008F0A3DEFAEFF0A3E58124FBF8E608F0D6
:1017C300A3E608F0A30808E608F0A3E608F0A315CB
:1017D300811581D0E0FED0E0F815811581E8C0E0E5
:1017E300EEC0E022851983851882E0A3FEE0A3F50D
:1017F300207808E0A3F608DFFAE0A3FFE0A3C0E047
:10180300E0A3C0E0E0A3C0E0E0A3C0E0E0A3C0E049
:1018130010AF08858218858319800885821885830F
:1018230019D2AFD083D08202011F85198385188214
:10183300E0A3FEE0A3F5207808E0A3F608DFFAE0D2
:10184300A3FFE0A3C0E0E0A3C0E0E0A3C0E0E0A307
:10185300C0E010AF08858218858319800885821837
:10186300858319D2AFD083D08222C0D02518C582F8
:10187300C0E0E51934FFC583C0E0E518C3958224B1
:10188300F310AF088583198582188008858319852D
:101893008218D2AFC8F0A3E9F0A3EAF0A3EBF0A358
:1018A3007908E709F0A3D8FAECF0A3EDF0A3EEF082
:1018B300A3EFF0A3D0E0F0A3D0E0F0A3D0E0F0A337
:1018C300E520F0A3E5F0F0A322851983851882E0D3
:1018D300C0E0A3E0F9A3E0FAA3E0FBA37808E0F6F5
:1018E30008A3DFFAE0FCA3E0FDA3E0FEA3E0FFA36F
:1018F300E0C0E0A3E0C0E0A3E0F5D0A3E0F520A3BF
:10190300E0A3F5F010AF0885831985821880088558
:101913008319858218D2AFD082D083D0E0F8D0E08B
:101923003274048006740280027401C0E0F404126D
:1019330016D6D0E01215AB22740480047402800022
:10194300CCC0E0EDC0E0E518C39CCCAD1950011D3F
:1019530010AF068C188D1980068C188D19D2AF1212
:1019630015B8D0E0FDD0E0FC22D083D082E9C0E0FE
:10197300E493A3C386F0C5F095F0F908E493A38636
:10198300F0C5F095F0700BE493A3C3994005E90407
:101993008002A3E475F002A42582F582E5F0358385
:1019A300F583D0E0F9E493A3C0E0E493C0E022D050
:1019B30083D082ECC0E0EDC0E0E493A3FCE493A306
:1019C300FDED4C600D1219FEEC24FFFCED34FFFD20
:1019D30080EFE493A3FCE493A3FDED4C600D121A96
:1019E3003DEC24FFFCED34FFFD80EFD0E0FDD0E0C3
:1019F300FCE493A3C0E0E493C0E022C0E0C3E4931B
:101A030096087401939618400FE49366700808745F
:101A13000193661870007019A3A3C3E49396087426
:101A230001939618A3A3400DD0E0D0E0D0E00219B3
:101A3300EEA3A3A3A3A3A3D0E022C0E0C0F088F049
:101A4300E4936670080874019366187000A8F0A305
:101A5300A3700BD0F0D0E0D0E0D0E00219EEA3A346
:101A6300D0F0D0E02274F5121781EAFEEBFFEE24EA
:101A730034F8EF3400F988088909EE2435F582EF4C
:101A83003400F583E0F8EE2437F582EF3400F58374
:101A9300E0F50AEC850AF0A4FCAAF0850AF0EDA4AF
:101AA3002AFDE82CF8E43DF97A257B0012161AEAA0
:101AB300850882850983F0F8740758F97401B90021
:101AC300028004C333D9FCFAE8131313541FF8EE4E
:101AD30028F8EF3400F9E8245DF582E93400F58352
:101AE300E05A6008EE2434F582EF802CEE2434F5BE
:101AF30082EF3400F583E0C0E0EE2436F582EF3464
:101B030000F583E0F5F0D0E084A8F0EE28F8EF3498
:101B130000F9E82438F582E93400F583E0F97F041D
:101B230002182D74F5121781EAFEEBFFEE2434F54B
:101B330082EF3400F583E0C0E0EE2435F582EF3424
:101B430000F583D0E0F08E828F83A3A3A3A3A3A386
:101B5300A3C082C0838E828F83A3A3A3A3A3E0F831
:101B6300A3E0F9D083D082E0C398F508A3E099F508
:101B730009EE247FF582EF3400F583E06401706998
:101B8300EE2480F582EF3400F583E0F8A3E0F98ECC
:101B9300828F83A3A3A3A3A3A3A3E0FCA3E0FD8E4F
:101BA300828F83A3A3A3A3A3E0FAA3E0FBC3EA9CCE
:101BB300EB9D5010C3EC98ED99402EC3EA98EB9936
:101BC3005027800EC3EA98EB994007C3EC98ED9930
:101BD30040177CDC7D04EEFAEFFB120B5CEE247FF6
:101BE300F582EF3400F583E4F0EE2434F8EF3400AB
:101BF300F9E8FCE9FDEE2435F582EF3400F583E0E6
:101C0300F8EE2437F582EF3400F583E0F50AE508B2
:101C1300850AF0A4F508AAF0850AF0E509A42AF5D7
:101C230009E82508F8E43509F97A257B0012161A24
:101C3300EA8C828D83F0F8740758F97401B90002B5
:101C43008004C333D9FCFAE8131313541FF8EE28A6
:101C5300F8EF3400F9E8245DF582E93400F583E018
:101C63005A6008EE2434F582EF802CEE2434F5829A
:101C7300EF3400F583E0C0E0EE2436F582EF340064
:101C8300F583E0F5F0D0E084A8F0EE28F8EF340017
:101C9300F9E82438F582E93400F583E0F912257D6B
:101CA300021B21C082C083851882851983E0F8A3B3
:101CB300E0F9C3EA9CEB9D5010C3EC98ED99401BEF
:101CC300C3EA98EB995014800EC3EA98EB99400746
:101CD300C3EC98ED994004790180027900D083D058
:101CE3008222EAC39CFAEB9DFB2274EF12178190C8
:101CF30003A2E064086005E06407702A9061C8E00D
:101D030060249003D0E0F4601DE0F875F003A4C8EC
:101D1300AAF02AF974D228FE740339FF8E828F83C6
:101D2300A3A3A3E07003021E1D906060E0C0E0EE79
:101D33002468F582EF3400F583D0E0F0750C457527
:101D43000D05750800750900E5D914F50AE5D954A0
:101D530003F50E60177403650E605CE50A6010EE10
:101D63002467F582EF3400F583E07003021E0290CE
:101D73000540E06401602AEE2482F582EF3400F529
:101D830083E06004780480027800850A08E508C3CC
:101D930098FA95E0FB120A248A088B09EA45097030
:101DA30005120D4E8074EE2482F582EF3400F58324
:101DB300E070048A0C8B0DE50A6012850C82850D98
:101DC30083F50BE5D9F0A3150BE50B70F6EE248232
:101DD300F582EF3400F583E0604474FC250AF50ACC
:101DE300780C121928AC0AA90EEEFAEFFB120BF8C5
:101DF30074021216BBE97026AA08AB091211FE7908
:101E03003D8E828F83A3A3A3A3E0FA7B001208F87D
:101E1300EEFAEFFB120B74120C0A79008074740350
:101E2300650E6056850A107511007810121928ACDA
:101E33000CAD0DAA08AB09120BD474021216BBEE3B
:101E43002468F582EF3400F583E064807004747FC6
:101E53008001E0F50C780C12192CE50EF50C780CCA
:101E630012192CA90AAC08AD099003D0E0FA7B0043
:101E73001208BC74021216BB80139003A2E064081C
:101E8300600BAC0CAD0DEEFAEFFB120C64120D5AA5
:101E930079017F0A02182D74F512178174FC12164A
:101EA300A5EAFEEBFF8908A2AFE433F509C2AF80D0
:101EB3006AEE2463F8EF3400F97A007B00A2AFE402
:101EC30033F50AC2AF88828983E0FCA3E0FDEC4DC1
:101ED300603A88828983E0FAA3E0FB8A828B83E0FD
:101EE300FCA3E0FD88828983ECF0A3EDF08A828B6A
:101EF30083E4F0A3F088828983E0FCA3E0FDEC4D4A
:101F0300700A88828983A3A3E4F0A3F0E50AA2E020
:101F130092AF1211FE9004E3E004F0EE2463F58225
:101F2300EF3400F583E0F8A3E0F9E849603DEE24DF
:101F330063F582EF3400F583E02402FAA3E0340072
:101F4300FBEA2402F50AEB3400F50B780A12192890
:101F53008A828B83E0FCA3E0F9EEFAEFFB120B9885
:101F630074021216BBE97003021EB49004E3E0602E
:101F7300639004E4E0F89004E3E0C398500C740227
:101F8300650870509004E5E0604A8E828F83A3A3B6
:101F9300A3A3E0851882851983F0A3E4F09004E3FA
:101FA300E0F874021216F1E8F0A3E4F09004E3E021
:101FB300F89004E2E028F074021216F1AC82AD83CB
:101FC300851882851983AA82AB8379011208C89088
:101FD30004E3E4F0E509A2E092AF74041216BB0235
:101FE3001B210000008521878522C622C0E0C0D0C6
:101FF300E8C0E0E9C0E0EAC0E0EBC0E0ECC0E0ED3F
:10200300C0E0EEC0E0C008C009C00AC00BC082C077
:1020130083C0F0A2AFE433FEC2AF759B0090618230
:10202300E0A2E05012E591A2E0500C7591FE74011C
:1020330065217003121CEDE0A2E55051E591A2E584
:10204300504B7591DF9003A2E064076005E06408DC
:10205300702374016521703579019003D0E0FA751E
:10206300F003A4CAA8F028FB74D22AFA74033BFB3A
:10207300121E9A8018E0640D70139003C4E004F0FC
:1020830064287002E4F07A00E0F9120D6090618236
:10209300E0A2E64003022136E591A2E640030221D5
:1020A300367591BF9003A2E064057008120C8E127E
:1020B3000C9A8003120C94752100120CEEE9900324
:1020C300A3F07900120CE2120AD27A017B0090038A
:1020D300A1E0F9120FB2907803E0644270559005C5
:1020E30044E014F0704DC2AF1220EE00782AD0E025
:1020F300F618D0E0F6E59F540770057509FF8003D5
:1021030075097FC4C0E07829E6F50808E65509F5A6
:1021130009740B7808121683D0E02508F8906270D2
:10212300E0A2E740F8E8C333906272F0906270E097
:10213300D2E0F0906181E0A2E35009E5E9A2E35027
:102143000375E9F7A3E0A2E75009E591A2E750037D
:1021530075917FEEA2E092AFD0F0D083D082D00B06
:10216300D00AD009D008D0E0FED0E0FDD0E0FCD00A
:10217300E0FBD0E0FAD0E0F9D0E0F8D0D0D0E03204
:10218300C0E0C0D0C082C083906183E0A2E0500968
:10219300E5BFA2E0500375BFFEE0A2E15009E5BF31
:1021A300A2E1500375BFFDE0A2E25009E5BFA2E240
:1021B300500375BFFBE0A2E35009E5BFA2E3500360
:1021C30075BFF7E0A2E45009E5BFA2E4500375BF71
:1021D300EFE0A2E55009E5BFA2E5500375BFDFE0DC
:1021E300A2E65009E5BFA2E6500375BFBFD083D076
:1021F300828088C0E0C0D0E8C0E0E9C0E0EAC0E087
:10220300EBC0E0ECC0E0EDC0E0C0F0E5A7A2E65013
:102213000FE5A1A2E6500953A7BF75A1BF12225B28
:10222300E5A7A2E5500CE5A1A2E5500653A7DF758B
:10223300A1DFE5A7A2E15009E5A1A2E1500375A141
:10224300FDE5A7A2E2500CE5A1A2E2500653A7FBCD
:1022530075A1FBD0F002216C74F81217817521016E
:102263009003A2E064067015120C288A828B83A364
:10227300A3A3A3A3A3E0FAA3E0FB120C7CA2AFE405
:1022830033FED2AF9003A8E0640170187A207B007C
:102293009003A1E0F91210367A207B009003A1E0AD
:1022A300F9120FB8906182E0D2E6F0900541E06048
:1022B3002185C62280169003A7E064017008E5C655
:1022C30054F84405F5C653BEFC121FE8740165219A
:1022D30060E4EEA2E092AF7F0102182D008E238FFF
:1022E30024858228858327851882851983E0CEA3D8
:1022F300E0CF852882852783EBC9EAC8EDCBECCAFA
:1023030075F010C3E833C8E933C9EA33CAEB33CBFA
:10231300C3EA9EF526EB9FF525B35004AB25AA2609
:10232300EC33CCED33CDD5F0DAAE23AF242274ED0C
:102333001217818A088B098C0A8D0B74131216F1FC
:10234300780C12155D7808790C12135D7510017500
:1023530011C875120075130050127808790C121405
:10236300FC7810790812135D50168010780C7908E8
:102373001214FC7810790C12135D40047901800269
:1023830079007F0C02182D74ED1217818A088B09CE
:102393008C0A8D0B74131216F1780C12155D780CE0
:1023A300790812135D40117808790C1214FCAA08FD
:1023B300AB09AC0AAD0B80227510007511007512C4
:1023C300007513017810790C1214FC781079081237
:1023D30014C3AA10AB11AC12AD1380A68A828B83EF
:1023E3007508FF7509FF750AFF750B00780812154C
:1023F3004A7F0402182D74F51217818C828D83781D
:102403000812155D8A828B837808121510EA24045A
:10241300F8EB3400F98C828D83A3A3A3A3E0FCA380
:10242300E0FD88828983C3E09CF0A3E09DF088826D
:102433008983C3E09420A3E0944E40268A828B8351
:102443007508FF7509FF750AFF750BFF78081214ED
:10245300E98A828B83A3A3A3A3E02420F0A3E0341F
:102463004EF00223DF74F5121781E9FE9004F7E0C2
:10247300FAA3E0FBEEC333F8E433F9748528F5825D
:10248300748139F583E02AF508A3E03BF509780860
:102493001219287A407B427C0F7D001222E07402DD
:1024A3001216BB8A088B098C0A8D0B7410780812DC
:1024B300148BAA08AB097F0402182D74F11217813B
:1024C3008A0C8B0D8C0E8D0F740F1216F1E0FAA38C
:1024D300E0FB74111216F1E0F508A3E0F5097808A2
:1024E300121928EA2401F508EB3400F509E4F50A8A
:1024F300F50B780C790812139C750871750902782D
:102503000C790812139CAA0CAB0DAC0EAD0F122262
:10251300E074021216BB8B09EA450960047A018054
:10252300027A00EC2AFCED3400FD74131216F1E07C
:10253300F8A3E0F9E8FEE9FFECF8EDF97A717B0224
:1025430012161A880889098E828F83780812156CEF
:10255300ECF8EDF97A717B0212161A8A088B09746A
:102563000578081216928E828F83A3A3A3A3E5088E
:10257300F0A3E509F07F0802182DC082C083E9901B
:102583006000F0D083D08222C2AF02000022C0E0FC
:1025930074F212186DA2AFE433FED2AFC2C0E5D11C
:1025A300A2E4500653D1EF1211E0EEA2E092AF7F06
:1025B300010218CCC0E074F212186DA2AFE433FE2E
:1025C300D2AFE589A2E1500312117A758900C2C521
:1025D300EEA2E092AF7F010218CCC0E074F21218B1
:1025E3006DA2AFE433FED2AFE58BA2E0500312112C
:1025F3007A758B00C2E880D8C0E0C0D0E8C0E0E9BB
:10260300C0E0E5A8D2AFC2C7A2E7A2E792AFD0E08D
:10261300F9D0E0F8D0D0D0E032C0E0C0D0E8C0E0DC
:10262300E9C0E0C008C009C082C083A2AFE433F9A7
:10263300D2AF9009F7E0F8A3E0687008539AFBA3C0
:1026430074018025C2E99009F7E0F50874012508B3
:10265300F074772508F582E43409F583E0F5C19039
:1026630009F7E0C394804002E4F0E9A2E092AFD01E
:1026730083D082D009D008D0E0F9D0E0F8D0D0D010
:10268300E03202011FFFFFFFFFFFFFFFFFC082C019
:1026930083E9900D15F002291F74F7121715E990BD
:1026A30002E1F07C197D037AFF7BFF120808900298
:1026B300E274FFF0A3F0A3E4F0A3F079051207900E
:1026C3009002E1E0F91206B27A267B081209D67F5E
:1026D300010217E774F41217158A088B09EB54806B
:1026E30060309002E1E0F9120F9A8A0A8B0BAE0A6E
:1026F300AF0BEE4F60138E828F83E064B0700312D2
:1027030007A8EEFAEFFB120F88AA08E5096480FB1D
:1027130080047A007B000228EE74F212171574FC11
:102723001216A5EAFEEBFFEE4F603874021216F1A3
:10273300EEF0A3EF122B53ECF0A3ED122B53AA826E
:10274300AB831206ACE9F508707374121216F1121A
:102753003707E50A450B60658E828F831227CAEE21
:102763004F700575080280557A067B00120FEE8ABA
:102773000C8B0DA80CA90DE8497005750813803D55
:1027830088828983E41227D4A3A3EEF0A3EF123B3C
:10279300A0E50AF0A3E50BF09002E712285C900293
:1027A300E76017E0FCA3E08003EAFCEBFD8C828D7D
:1027B3008312285C70F38C828D8312362CA90874E3
:1027C300041216BB023DA2A3A3A3A3E0FEA3E0FF52
:1027D30022F0A3F0888289832274F2121715890AE2
:1027E300E975F017A4FEAFF09002E6E4F09002E47E
:1027F30012285C600A120FF49002E4E4F0A3F0EEF6
:10280300FAEFFB120FEE8A088B09EA4509602FEEF7
:10281300FCEFFD7900120F769002E4E508F0A3E5E2
:1028230009F07B008008122846E4F0A3F00BEBC309
:10283300950A40F2E50A9002E6F0790080027913E6
:10284300023DA2EB75F017A4F8A9F09002E4E0288A
:10285300FAA3E0398A82F583221233C2EA4B227447
:10286300F4121715750800750900740C1216F1128D
:102873003B74FEE9FF800CE5082401F508E5093403
:1028830000F509C3E5089CE5099D503285080A85D2
:10289300090B7403780A121692EA250AF8EB350B32
:1028A300F988828983A3A3A3A3A3A3123707EE65A1
:1028B3000A7003EF650B70BFE8FAE9FB80047A0046
:1028C3007B00802774F41217157900EAA2E0501BED
:1028D30075081675098278081219287C047D007A18
:1028E300177B0D12078A74021216BB7F040217E7C7
:1028F300C082C0839002E7122926601C88828983E4
:10290300A3A3E06A7003A3E06B8882898370E8A3C2
:10291300A3A3A31233BE80047A007B00D083D082AA
:1029230002011F123E75E8492274EE12171574FC5A
:102933001216A5EAFEEBFF851882851983E4F0A33E
:10294300F0EE2402123610EE2405122B41EE24047D
:10295300F50EEF122F26E024FE603924FC60462496
:10296300FE605224FE605E24FE7003022A4624FEAB
:102973007003022ABE24FE7003022ACD24FE7003D4
:10298300022ADC24FC7003022AEB24FE7003022AD1
:10299300FA022B379003007417F0A3E4122B5B1297
:1029A300042A022B37851882851983AC82AD8312E2
:1029B30007AE022B07851882851983AC82AD83127B
:1029C30007B4022B07850C08850D0974021216F152
:1029D300AC82AD838508828509831233BE1206D08B
:1029E3008A0C8B0DAC0CAD0DEC4D6042E4F50CF58F
:1029F3000D780C121928750C00750D03780C12193B
:102A030028750C01750D03780C1219287408121619
:102A1300F112193F79161233B81207F0740812161F
:102A2300BBE9F50C700B1233B4120442800F750C22
:102A330001850882850983122B4912362C850C08DF
:102A4300022B0A74021216F1AC82AD83850C8285C7
:102A53000D831233BE1206D08A108B11AC10AD1148
:102A6300EC4D6043850C82850D83A3A312193F753A
:102A730010007511037810121928751001751103D0
:102A8300781012192874081216F112193F791612C8
:102A930033B81207F074081216BBE9F509700B126C
:102AA30033B4120448800F750901850C82850D83A8
:102AB300122B4912362C850908804C8518828519FA
:102AC30083AC82AD831207BA803A85188285198355
:102AD300AC82AD831207C0802B851882851983AC25
:102AE30082AD831207C6801C851882851983AC8248
:102AF300AD831207CC800D851882851983AC82AD16
:102B0300831207D2E9F508E50860298E828F83A333
:102B1300E06414601F850E82850F83E0900300122A
:102B23002B53123E7190030112362CE508A3122B8E
:102B33005B120424EEFAEFFB12074E023518F50C74
:102B4300EF3400F50D22123E758518828519832214
:102B5300F085188285198322F07C007D03850A8223
:102B6300850B831233C22274EE12171574FC1216EE
:102B7300A58A0A8B0B8C0E8D0FEA2405F508EB341E
:102B830000F5097C157D0079007A007B03120F762E
:102B9300E5082402F50CE509122B448518828519F2
:102BA3008385821085831178101219288508828500
:102BB3000983A3A3A3A312306E121928E5082405E1
:102BC300F510E5093400F5117810121928850C82E7
:102BD300850D831233C81206CA74061216BB8A10F7
:102BE3008B11AE10AF11E50A2402F50AE50B12367C
:102BF30013EE4F7003022D30801774021216F11278
:102C030033BE88828983EAF0A3EBF0900300E004EB
:102C1300F0900300E0C394054003022D30E4F51067
:102C2300F51178101219287510E975110278101230
:102C330019287510EA7511027810121928740612F2
:102C430016F112193F7910EEFCEFFD1233B812079B
:102C5300F074081216BBE9705E850882850983A3A8
:102C6300A3A3A3A3A3A3E0F89002E9E0687048122A
:102C7300306E1219287CEA7D02E5082408FAE5097A
:102C83003400FB120F7074021216BBE960298E82A6
:102C93008F83A3A3A3A31233BE900300E0F51074A4
:102CA30002781012169274012510F58274033511FF
:102CB300F583EAF0A3EBF074021216F18582108516
:102CC3008311781012192874021216F112193F8514
:102CD3000C82850D83123E861206D674041216BB2F
:102CE3008A108B11AE10AF11900300E0F51075112F
:102CF300007402781012169274002510F8740335CC
:102D030011F988828983A312285C7003022BF4E8EB
:102D13002403F8E93400F9EE4F6003022BFD8882A7
:102D2300898374FFF0A3F0900300E004F0900300A4
:102D3300E0600A1233B41204367900800B850882EE
:102D4300850983123623790A02351874EA12171596
:102D530074FE1216A58C128D13EA2405F50CEB12E2
:102D63003FF01227CE750800750900EA2402F5101A
:102D7300EB3400F51185188285198385820A8583D2
:102D83000B780A121928850C82850D83A3A3A3A3AC
:102D9300122F30121928E50C2405F50AE50D123619
:102DA30013780A121928850C82850D83123E84122A
:102DB30006CA74061216BB8A0A8B0BEA450B70030C
:102DC300022EE1EA2404F50EEB122F261227CE8AF7
:102DD300828B83A3A3A3E0F9851082851183123329
:102DE300BE1206B8E9F5096003022EE1E4F514F515
:102DF3001578141219287514E97515027814121927
:102E0300287514EA75150278141219287406121617
:102E1300F112193F7913AC0AAD0B8510828511832A
:102E23001233BE1207F074081216BBE9F5096003EA
:102E3300022EE19002E9E0F8E5087009E02402902F
:102E43000301F08017900301E0FCE82402FAE43464
:102E530000FBEA6C7001EB6003022EE5850882AA91
:102E630082123065941412305D5073850E82850F83
:102E730083E0C0E074022A122F1DD0E0F00508851C
:102E83000E82850F83A3E0C0E085080A7402250A39
:102E9300122F1DD0E0F005089002E9122F3012190D
:102EA300287CEA7D0285080A7402250AFA74033431
:102EB30000FB120F5E74021216BB9002E9E02508B4
:102EC300F50874FF6E700374FF6F6012EE24010E39
:102ED300EF3400FFE508C394145003022D78E5088E
:102EE30060131232A98510828511831233BE120436
:102EF3003C79008014E509700375090A85128285FF
:102F03001383EEF0A3EFF0A90974021216BB7F0E30
:102F13000217E785080C7402250CF582740334004C
:102F2300F583223400F50F850E82F58322123BB31D
:102F33002274EE12171574FE1216A58C0E8D0FEA6D
:102F43002405F50CEB122B44750B00900300E4F001
:102F5300F50AEA2402F508EB3400F50980499003E9
:102F630000E0FA9002E9E0F8123065941712305D40
:102F7300400D900300E0F87416C3989002E9F01234
:102F8300306E1219287CEA7D0274012AFA74033424
:102F930000FB120F5E74021216BB9002E9E0F89078
:102FA3000300E028F0050AE50C2416F582E50D126E
:102FB3002F21E0F8E50AC39840030230469003004E
:102FC300E0C39416507DE50AC333F8E433F9E50C06
:102FD30028FEE50D39FF851882851983AC82AD8300
:102FE3008E828F831233BE1206D08A108B11AC10DF
:102FF300AD11EC4D7005750B018043E4F510F5112F
:1030030078101219287510E9751102781012192811
:103013007510EA751102781012192874061216F148
:1030230012193F79168508828509831233BE120768
:10303300F074081216BBE9F50B7003022F61123608
:103043001F80107C007D038508828509831233BEAF
:1030530012044EA90B740202351AE99400C365D019
:103063003322EA28F8E43400F9E822E0F510751178
:103073000078102274EA12171574FC1216A58A0C34
:103083008B0D8C128D13EA2405F50AEB123613759A
:103093000800750900E50A2402F510E50B3400F574
:1030A3001174021216F185820E85830F780E1219A0
:1030B30028850A82850B83A3A3A3A3123B5F12195E
:1030C30028E50A2405F50EE50B3400F50F780E12FA
:1030D30019288510828511831236191233B8120606
:1030E300CA74061216BB8A0E8B0FAE0EAF0FE50C19
:1030F3002402F50EE50D3400F50F804088828983A4
:1031030074FFF00508122F1674FFF005089002E90A
:10311300E0F50C750D00780C1219287CEA7D028508
:10312300080C7402250CFA74033400FB120F5E744E
:10313300021216BB9002E9E02508F508EE4F607114
:103143008E828F83A3A3A3E0F9850E82850F83125A
:1031530033BE1206B8E9F509EE2404122B41E970D7
:1031630044E4F514F51578141219287514E9751546
:103173000278141219287514EA75150278141219B5
:103183002874081216F112193F7911EEFCEFFD8530
:103193000E82850F831233BE1207F074081216BB1A
:1031A300E9F5096027850C82850D8312329F12365B
:1031B3002CE50870030232851232A9850E82850F31
:1031C300831233BE120454790002329A850882AA0C
:1031D30082EA9002E97009E02404900301F080225E
:1031E300E0F8900301E0F514E82404FCE43400FD66
:1031F300EC65147001ED70C0123065941212305DED
:1032030050B6850C82850D83E0C0E074022A122F2C
:103213001DD0E0F00508850C82850D83A3E0C0E096
:10322300122F16D0E01232BB85820C85830D780CE9
:1032330012192874041216F112193F851082851190
:1032430083123E861206D674041216BB8A0C8B0DAB
:10325300AE0CAF0D85080C7402250CF87403340012
:10326300F9EE4F70030230FF851882851983E088D9
:103273008289831232BBA3E0C0E0122F16D0E00292
:10328300310DE509700375090A850A82850B8312DE
:10329300329F12362CA9097404022F0E123E758533
:1032A300128285138322900301E0F5F0E5088490F0
:1032B3000300F07C007D0322F00508851882851940
:1032C300832274EC12171574FE1216A58A088B0953
:1032D3008C0E8D0FEA2405FEEB3400FF85188285E2
:1032E3001983AC82AD838E828F831233BE1206D0D4
:1032F3008A0A8B0BEE2418122B41EA450B7003024A
:10330300338F12350150328518828519831233BEEB
:103313001207E48A108B11EA4511606B7912AC0A2B
:10332300AD0B8508828509831233BE851082851112
:1033330083121713E9F50A7058E4F50AF50B780AB6
:103343001219288E828F83A3A3E0F50A780A121933
:1033530028EE2403123610780A1219288E828F83DE
:103363001233C81207F674061216BBE9F50A702168
:10337300850C82850D83E0701F8508828509831281
:1033830033BE12045A8011750A0E8009750A018032
:1033930004E50A600312361F850C82850D83E06005
:1033A3000479008002A90A74021216BB7F0C02176B
:1033B300E77C007D03850A82850B831233C222E0FA
:1033C300FAA3E0FB22E0FCA3E0FD850882850983E4
:1033D3001233C22274EE12171574FE1216A58A0850
:1033E3008B098C0C8D0DEA2405FEEB3400FF750E62
:1033F30000851882851983AC82AD838E828F8312F8
:1034030033BE1206D08A0A8B0BEA450B70030234D3
:10341300ED12350150358518828519831233BE129A
:1034230007E48A0E8B0FEA450F605E7912AC0AAD92
:103433000B8508828509831233BE850E82850F832F
:10344300121713E9F50E60030234F085088285092B
:1034530083123707AA0AFB1207D88A108B11A81008
:10346300A911E849701E7AFF7BFF1207D88A108BD7
:1034730011A810A911E849606C88828983E50AF0D4
:10348300A3E50BF0750A008007750E0E805F050A31
:103493009002E6E0FAE50AC39A504AE50A75F01786
:1034A300A4FAABF088828983A3A3E02AFAA3E03BC2
:1034B300FB8A828B83123619EC4D70D2750A17750D
:1034C3000B00780A121928EEFCEFFD120F5E74024E
:1034D3001216BBEEFCEFFD8508828509831233BE0D
:1034E3001204608014750E098003750E01123E6D7F
:1034F300850C82850D8312362CA90E023058E508FF
:103503002402F508E5093400F5098A828B83A3A315
:10351300A3E0A2E52274041216BB7F0A0217E77424
:10352300EC1217158C108D11EA2405F50CEB122BF8
:1035330044750F00EA2402F50AEB123613850A825A
:10354300F5831233BE1207D88A088B09EA4509703E
:1035530003023605750E008071850C82850D83E0AC
:103563006401704F8E828F83A3A312193F8E828FC3
:1035730083A3A3A3A3E0F5127513007812121928ED
:10358300EE2405F512EF3400F51378121219281200
:1035930033B81207F674061216BBE9F50F601485EB
:1035A3000C82850D83E4F0123E6D851082851183B4
:1035B30012362C7C177D007900EEFAEFFB120F76A2
:1035C3008E828F83E4F0A3F0050E9002E6E0F8E527
:1035D3000EC398501EE50E75F017A4F8A9F08508E0
:1035E30082850983A3A3123FFA123619EC4D6003B7
:1035F30002355C85088285098374FFF0A3F0E50F2B
:1036030070061233B8120466A90F0233AFF50AEF3E
:103613003400F50B22A3E0FCA3E0FD228E828F830E
:10362300123E75850E82850F83E8F0A3E9F022C070
:1036330082C0839002E2E06A7003A3E06B70067AB3
:10364300E27B0280047A007B0002291FC082C083D0
:1036530078008C828D83E06A7003A3E06B7010E8BE
:1036630075F003A4F8A9F0EC28FAED39FB801508EE
:103673008C828D83A3A3A3E06A7003A3E06B60DF56
:103683007A007B0002291F74F61217151207A28A0B
:10369300828B83E582458370067A007B008007A3D3
:1036A300A3A3A31233BE023D1E74F2121715E9FE43
:1036B300740E1216F112370774101216F1123B7FB3
:1036C3008C828D83E064027036A3123E7BF50CA3DB
:1036D300E0F9A80C74026870037429697021750CF1
:1036E30002750D00780C1219287808121928780A27
:1036F300121928EEF912081A74061216BB80027901
:1037030001023DA2E0F50AA3E0F50B2274E81217CB
:103713001574FB1216A5E9851882851983F08A169C
:103723008B17ECFEEDFF751000741D1216F1123E9F
:1037330071741D1216F112362C8E828F83A3A3A3EC
:10374300E0A2E4502D741D1216F11233BE1207E4E9
:103753008A828B83E58245837003023B50790AEEAC
:10376300FCEFFDAA16AB17121713E9F5106003025D
:103773003B53741F1216F1123B7F74211216F11280
:10378300370774231216F1E0F50EA3E0F50F8E82CE
:103793008F83E064026003023AFEA3123E71850840
:1037A30082850983A3858212858313EE2406122B57
:1037B3004188828983E0FAA3E0F9EA2400F514E45E
:1037C30039F51578141219B2010000280128F337CE
:1037D30007000228B838032825380029EF390129C2
:1037E3001A3A0229BB390329EF390429993AFE3AD7
:1037F300E50E450F6003023AF9850C82850D8312AD
:103803003B74FAE9FB8A828B83E0850A82850B830A
:10381300123BAA1219288A828B83A3E0FCA3E0023D
:103823003A83E50E450F6003023AF9850A82850B58
:10383300837401F0123B87850882850983F07C003D
:103843007D008E828F83A3A3A3A3E02401FAA3E0C8
:103853003400FB1206D0EA4B60418A828B83E0245A
:1038630002F8850A82850B83E028F0EA2404F8EB4A
:103873003400F988828983E0851282851383123BA1
:10388300BC123BAA1219288A828B83123618E508C8
:103893002403FAE5093400FB023A88850A82850B82
:1038A30083E02404F07C047D007900AA12AB131298
:1038B3000F76023B53E50E450F6003023AF9123BC4
:1038C30087FEA3E0FF850A82850B837404F0EE85EF
:1038D3000882850983F0EF851282851383F07403D0
:1038E3001216F1AC82AD83EEFAEFFB1206D08A0C0E
:1038F3008B0DEA450D700302399C8A828B83A3A347
:103903001227CA74011216F185820E85830F780E71
:1039130012192874051216F112193F7CFF7DFF124C
:1039230006D674041216BB8B0FEA450F7033850C51
:1039330082850D83123B5F121928850C82850D83C6
:10394300A312193F7C027D007A6B7B8212050274FD
:10395300041216BBE9700A74011216F174FFF0A386
:10396300F08E828F83E064027039750C02750D004E
:10397300780C1219288E828F83123618E5082404D6
:10398300FAE5093400FB120F5E74021216BB850AB6
:1039930082850B83E02402800974011216F1EEF094
:1039A300A3EFF074011216F1123B70F074011216BA
:1039B300F1A3123B68023AF3E50E450F6003023AA6
:1039C300F9850C82850D83123619AA16AB171208D6
:1039D3000E850A82850B837402F0EA8508828509C5
:1039E30083F0851282851383EB023AF6E50E450FC9
:1039F3006003023AF9123B87F8A3E0F9850A82854E
:103A03000B837402F0E8850882850983F0E9851247
:103A130082851383023AF6850C82850D831233BEA9
:103A2300120F58EAFC8C82A882C3950EE4950F40CE
:103A33005FE8650E7002E50F70047C008022851834
:103A430082851983E0FAE50E2AFAE50F3400FBC3F9
:103A5300EA98EB94005003E08005E50ECCC39CFC90
:103A6300EC850A82850B83F08C0A750B00780A12A9
:103A73001928850C82850D83E0250EFCA3E0350F04
:103A8300FDAA08AB09120F5E74021216BB023B5368
:103A9300751007023B53E50E450F705A850C82855E
:103AA3000D83123E71850A82850B8374071227D614
:103AB300123B681227D6A3E0851282851383F0E8B0
:103AC3002402FAE93400FB8A828B83123B68123B9F
:103AD30097123B70A3123BA0123B79F0E82405F840
:103AE300E93400F988828983123B79A3123BBCA392
:103AF300A3A3A3F0805A75100B8055741D1216F101
:103B03001233BE1207A28A828B83E5824583603D0E
:103B1300123E71880C890DE8450D6031780E12193B
:103B230028780A121928780812192874061216F12F
:103B3300E0F9EEFCEFFDAA16AB17850C82850D8329
:103B430012171374061216BBE9F510800375100ED5
:103B5300A91074051216BB7F100217E7E0F50E7566
:103B63000F00780E22E085088285098322123BC666
:103B730022123E75E822123BC6A3A322E0F508A356
:103B8300E0F50922850C82850D83E0F8A3E0F58337
:103B93008882E022A3A3F08A828B83A322F0888207
:103BA3008983A3A3A3A322F08A828B83123BB3222C
:103BB300E0F50A750B00780A22F088828983A31244
:103BC3003BC622E0850882850983A3A32274EE12F3
:103BD300171574FE1216A58A0A8B0BECFAEDFB740B
:103BE300141216F1E0F510A3E0F51174161216F194
:103BF300E0FE74181216F1E0F50EA3E0F50F851838
:103C030082851983AC82AD831206D08A0C8B0DEAB0
:103C1300450D60498518828519831233BE1207A2A8
:103C23008A828B83E5824583602FA3A3123B7FE5C2
:103C33000845096024780E1219287810121928EE05
:103C4300F9AC0CAD0DAA0AAB0B850882850983126A
:103C5300171374041216BB8006790E8002790102D1
:103C6300305874F612171574FE1216A5740C12163A
:103C7300F1123B74851882851983F074011216F1D1
:103C8300E9F0E4F508F509780812192875080278AF
:103C93000812192874041216F1858208858309789D
:103CA300081219281207F674061216BB74021216AC
:103CB300BB806874F7121715EAFEEBFF89087C19BD
:103CC3007D0312080EEA5402600BA908EEFAEFFB1B
:103CD3001206C4800279010226D274F612171574F3
:103CE300FF6A700374FF6B70168C828D83123D2301
:103CF300E4F08C828D83A3A3A3123D23A380181227
:103D030007DE8A088B09A808A909E849600D88829B
:103D1300898374FF1227D4A3A3E4F07F020217E779
:103D230074FFF0A3F08C828D83A3A32274F6121781
:103D3300151207DE8A828B83E58245836006A3A37F
:103D4300E0FA80027A007B0080D174F21217158AA0
:103D5300088B09ECFEEDFF740E1216F1E0F50A1262
:103D630007DE8A0C8B0DA80CA90DE8497026EEFC22
:103D7300EFFD7AFF7BFF1207DE8A0C8B0DA80CA9DF
:103D83000DE84970047911801688828983E508F06B
:103D9300A3E509F088828983A3A3E50AF079007F6C
:103DA300060217E774EE121715EAFEEBFF8C088D77
:103DB30009890C74141216F1123E7174161216F15D
:103DC3001233BE750D00E8496003023E6574026557
:103DD3000C6003023E6074121216F1123E7BFCA3C8
:103DE300E0F9EC2400F50EE439F50FEAF4F8EBF40E
:103DF300F9EC58F8E50F59F9E849705CE508240631
:103E0300F8ED3400F9880A890B8882F583123E861F
:103E130012080E8A108B11E50E65107004E50F650C
:103E2300116042780E121928850A82850B83123E8F
:103E33008612081474021216BBE9F50D7027780E6A
:103E4300121928850882850983A3A3123E841208C8
:103E53002C74021216BB800D750D808008750D0D34
:103E63008003750D0BA90D02351D8E828F83123EC3
:103E73007522E0F8A3E0F922123E7588828983E077
:103E830022A3A3E0FCA3E0FDEEFAEFFB2274E81209
:103E9300171574E71216A5851882851983EAF0A30E
:103EA300EBF08C168D17890E7508007509007431B7
:103EB3001216F1E0F512A3E0F51374331216F1E0D4
:103EC300F514A3E0F51574351216F1E0F50FE509C5
:103ED30075F003A4F8A9F0851882851983123FFAB7
:103EE300E0F47003A3E0F47003023FDDEE2402F577
:103EF3000CEF123FF0E07003023FDD85160A8517D1
:103F03000B780A121928AC14AD15AA12AB131207B9
:103F13009674021216BB8A0A8B0BEA450B700302D6
:103F23003FDDE4F510F51178101219287406121606
:103F3300F1858210858311781012192874091216DD
:103F4300F1858210858311781012192885128285D4
:103F53001383A3A3A3A312193F7914AC0AAD0B8E49
:103F6300828F831233BE1207F074081216BBE970F6
:103F730069850A82850B83A3A3A3A3123E717402EE
:103F83001216F112362C850C82850D83E0A2E050C7
:103F930018A90E74021216F1AC82AD838E828F8340
:103FA3001233BE1206E8E94208850C82850D83E0D0
:103FB300A2E15026E50FF50A780A12192CA90E740E
:103FC300031216F1AC82AD838E828F831233BE123D
:103FD30006E274011216BBE942080509E509C39418
:103FE300025003023ED1A9087419023B573400F56D
:103FF3000D850C82F58322E028FEA3E039FF8E8233
:104003008F832274F2121715EAFEEBFF890B7401FA
:10401300650B600E7402650B706A79011209F4E98D
:104023007062EEFAEFFB1207D88A088B09EA45099A
:104033006047750A00800B7C177D007900120F76AC
:10404300050A9002E6E0F8E50AC3985021E50A75EF
:10405300F017A4F8A9F0850882850983A3A3E028B3
:10406300FAA3E039FB8A828B8312292670C985085B
:104073008285098374FFF0A3F07C197D03EEFAEFC8
:10408300FB120808023DA274F21217158A088B0965
:10409300ECFEEDFF740E1216F1123707900D15E0CA
:1040A300F4603D7A097B00120F82EA4B60328A8208
:1040B3008B8374B1F0A3E4123B99A3123B97A3E55E
:1040C30008F0A3E5091240E6EEF0A3EF1240E6A3E1
:1040D300A3E50AF0A3E50BF0900D15E0F9120F8E9E
:1040E300023DA2F08A828B83A3A3A3A3A322C0824F
:1040F300C0839061907404F0A37448F0A37402F039
:104103009061807440F09061BC7403F09061877497
:1041130019F0906265741BF0906249E0C3941390A8
:10412300619C400A7409F090606674018007740D05
:10413300F0906066E4F090619A7433F0A37455F0E4
:104143009061A0743AF090053FE064017009C29158
:104153009003A6746780059003A67461F090268E81
:10416300E493906186F0902688E493F46027E493C7
:10417300540FF8906185E0686012E5C654804449A5
:10418300F5C6E59E547F644970F8E8F053C680E5B0
:104193009E547F70FA7905120D4202431FC082C0FC
:1041A30083E5A8F853A87E906181E4F0A3F0A3F01F
:1041B300C2BA539AFEC289759B00C2C275E90075E3
:1041C300910075BF0075A91175B905906181F0A3C0
:1041D30074C0F0A3E4F0D2BA439A0174805842A8A1
:1041E30002431FC082C08374F81216A59003A4E093
:1041F300F8A3E0F9E84970030243149003A4E054E0
:104203004060237908851882851983AA82AB8312BB
:104213000BB6851882851983AA82AB831208A490F2
:1042230003A4E054BFF0E054806010790C7A657BFE
:1042330005120BB69003A4E0547FF0E0A2E05031E6
:1042430090619A7433F0A37455F09061A0743AF0BE
:1042530090053FE064017009C2919003A6746780E2
:10426300059003A67461F01208AA9003A4E054FE1B
:10427300F0E05402603190619A743FF0A3745AF0F5
:104283009061A0747FF090053FE064017009D291C2
:104293009003A6747180059003A6746AF01208AAAD
:1042A3009003A4E054FDF0E05404601390268CE4E2
:1042B30093906186F01208B09003A4E054FBF0E001
:1042C3005408601390268DE493906186F01208B031
:1042D3009003A4E054F7F0E05410601390268EE4AA
:1042E30093906186F01208B09003A4E054EFF0E0DD
:1042F3005420600A1208B09003A4E054DFF0A3E056
:104303005401600D120ADE1208B69003A5E054FEB4
:10431300F074081216BB02431FF0A3F0D083D082BF
:1043230002011F74EC12171574F41216A585188276
:10433300851983AC82AD83758382758239740412C7
:1043430015B890268C93F460030244B2907808E089
:10435300C39402500302449274041216F1AC82AD6A
:104363008375838275820274081215B88518828555
:10437300198385821285831374041216F1AC82ADFE
:1043830083750EFF750FFF7FFF7E00750C48750D5B
:1043930078801574086E700302442674096E7003E6
:1043A300024426740A6E607B850C82850D8378082F
:1043B30012155D8C828D83A909E50AC9F8881074EA
:1043C30018780812148BE5104508F8C3E098A3E0A9
:1043D30099850C82850D83780812155D40188C82AF
:1043E3008D837418780812148BE5104508F8E0C320
:1043F30098F8A3E0801C7418780812148BE5104514
:1044030008FAE9FB8C828D83E0F8A3E0F9EAC3980C
:10441300F8EB99F9C3E8950EE9950F5006880E89D4
:104423000FEEFF0EE50C2404F50CE50D3400F50D3D
:10443300EEC39413500302439674FF650E70047425
:10444300FF650F60238F0874027808121692744870
:104453002508F58274783509F583780812155D858A
:104463001282851383E508F0EC2402FCED3400FD91
:10447300851282851383A3858212858313740C129C
:1044830016F1E5826C7003E5836D60030243847566
:104493000801750900780812192874021216F1AC84
:1044A30082AD837AA37B0912115674021216BB7470
:1044B3000C1216BB7F0C0217E7C082C0839061AE5B
:1044C3007468F0A3746AF090624574FBF0A304F07F
:1044D30053F4FD43FE0290053F7401F09061A0E0A8
:1044E300643A90619A70237433F0A37455F0906129
:1044F300A0743AF0740164017009C2919003A67428
:104503006780289003A674618021743FF0A3745AD6
:10451300F09061A0747FF0740164017009D29190EE
:1045230003A6747180059003A6746A02431E7F0874
:104533000217E7C082C0839004F1E06401700A901F
:1045430004F6E06004790C8002790002431FC08204
:10455300C08375E1F19004F4E0605B1460091460BA
:104563005F14605714705E120AF09004EAE0F97A5F
:10457300EB7B04120CC47AD67BBE7C897D8E120C35
:10458300FA7A557B557C557D00120CD09004F5E0EA
:10459300F9120CDC7901120D369004E8E0F8A3E07F
:1045A300C82416F582E83400F5837408F0A3740B6D
:1045B300F0790002431F120AF680AF120AFC80AAA8
:1045C300120B0280A5791280EA74F012171575D9BF
:1045D3000D9004D5E0A2E0E4331313F89004EAE06D
:1045E300C4333354C0484401F5D978E87904888248
:1045F3008983A3A3A3E0F5D988828983A3A882A989
:1046030083E864EE7003E9640470E378D579048881
:10461300828983A3E0F5D988828983A3A882A983A9
:10462300E864DB7003E9640470E575E1959004D5F3
:10463300E0F97AD67B04120CCA900D3774A2F0A36A
:10464300740AF0A374FEF0A3740BF0A374FEF0A33A
:10465300740BF0A374FEF0A3740BF0A374A8F0A37F
:10466300740AF0A374FEF0A3740BF0A374C0F0A358
:10467300740AF0900D4574FEF0A3740BF0A374FE5E
:10468300F0A3740BF0A374FEF0A3740BF0A374FEF9
:10469300F0A3740BF0A374FEF0A3740BF0A374FEE9
:1046A300F0A3740BF09004F4E064019004E870123A
:1046B300E0F8A3E0F5838882A3A3750800750908D1
:1046C3008010E0F8A3E0F5838882A3A3750804753E
:1046D3000900750A00750B0078081214D6750CFFD3
:1046E300750DFF750EFF750F007808790C121524F0
:1046F3009004E8E0F8A3E0C8240EF582E83400F55E
:1047030083780812156C9004E8E0F8A3E0C8241439
:10471300F582E83400F5837413F09003A27402F079
:1047230002453174F71217159004FAE02407F5D9FE
:104733009004EAE0C4333354C0F5D978E8790488A7
:10474300828983A3A3A3E0F5D988828983A3A8825E
:10475300A983E864EE7003E9640470E39004FAE06B
:10476300601F78E87904FAE82413F582E93400F548
:1047730083E0F5D988828983A3A882A9831AEA7082
:10478300E690051AE02407F5D99004EAE0C4333330
:1047930054C04404F5D978E8790488828983A3A3B3
:1047A300A3E0F5D988828983A3A882A983E864EE6C
:1047B3007003E9640470E390051AE0601F78E879F8
:1047C30004FAE82433F582E93400F583E0F5D98867
:1047D300828983A3A882A9831AEA70E675E195907A
:1047E3000D3774AEF0A3740AF0A374FEF0A3740B38
:1047F300F0A374FEF0A3740BF0A374FEF0A3740B88
:10480300F0A374A8F0A3740AF0A374FEF0A3740BCE
:10481300F0A374C0F0A3740AF0900D4574FEF0A3E6
:10482300740BF0A374FEF0A3740BF0A374FEF0A357
:10483300740BF0A374FEF0A3740BF0A374FEF0A347
:10484300740BF0A374FEF0A3740BF09004E8E0F88B
:10485300A3E0C8240EF582E83400F58374FFF0A3C7
:10486300F0A3F0A3F09004E8E0F8A3E0C82414F563
:1048730082E83400F5837412F09003A27401F0FF10
:104883000217E774F71217159004FAE02407F5D915
:104893009004EAE0C4333354C04402F5D978E8798C
:1048A3000488828983A3A3A3E0F5D988828983A39B
:1048B300A882A983E864EE7003E9640470E39004BA
:1048C300FAE0601F78E87904FAE82413F582E93402
:1048D30000F583E0F5D988828983A3A882A9831A86
:1048E300EA70E675E195900D3774BAF0A3740AF097
:1048F300A374BAF0A3740AF0A374BAF0A3740AF011
:10490300A374BAF0A3740AF0A374BAF0A3740AF000
:10491300A374BAF0A3740AF0A374C0F0A3740AF0EA
:10492300900D4574FEF0A3740BF0A374FEF0A37412
:104933000BF0A374FEF0A3740BF0A374FEF0A37446
:104943000BF0A374FEF0A3740BF0A374FEF0A37436
:104953000BF09004E8E0F8A3E0C8240EF582E834F5
:1049630000F58374FFF0A3F0A3F0A3F09004E8E054
:10497300F8A3E0C82414F582E83400F5837414F036
:104983009003A27404F0024C4D74F71217159004AF
:10499300FAE02407F5D99004EAE0C4333354C04461
:1049A30006F5D978E8790488828983A3A3A3E0F57F
:1049B300D988828983A3A882A983E864EE7003E976
:1049C300640470E39004FAE0601F78E87904FAE87D
:1049D3002413F582E93400F583E0F5D988828983CD
:1049E300A3A882A9831AEA70E690051AE02407F5C2
:1049F300D99004EAE0C4333354C04404F5D978E8C9
:104A0300790488828983A3A3A3E0F5D98882898363
:104A1300A3A882A983E864EE7003E9640470E390B9
:104A2300051AE0601F78E87904FAE82433F582E98F
:104A33003400F583E0F5D988828983A3A882A9830A
:104A43001AEA70E675E195900D3774B4F0A3740A11
:104A5300F0A374FEF0A3740BF0A374FEF0A3740B25
:104A6300F0A374FEF0A3740BF0A374FEF0A3740B15
:104A7300F0A374FEF0A3740BF0A374C0F0A3740A44
:104A8300F0900D4574FEF0A3740BF0A374FEF0A335
:104A9300740BF0A374FEF0A3740BF0A374FEF0A3E5
:104AA300740BF0A374FEF0A3740BF0A374FEF0A3D5
:104AB300740BF09004E8E0F8A3E0C8240EF582E854
:104AC3003400F58374FFF0A3F0A3F0A3F09004E89F
:104AD300E0F8A3E0C82414F582E83400F5837415E4
:104AE300F09003A27403F0024C4DC082C083900483
:104AF300E8E0F8A3E0C82406F582E83400F583E48F
:104B030002431C74F71217159003D0E0F875F003F5
:104B1300A4C8AAF02AF974D228F8740339F9E8244E
:104B230005FAE93400FB8A828B83E0FCA3E0FD886D
:104B3300828983A3A3A3A3A3A3A3A3A3ECF0A3EDBD
:104B4300F088828983A3A3A3A3A3A3A3E024FFF8EC
:104B5300A3E034FFF98A828B83E8F0A3E9F0024CE7
:104B63004D74F7121715EAFEEBFF9061D0E0600376
:104B7300024C4175D90E75D90375D904EE248BF512
:104B830082EF3400F583E5822408F8E5833400F9E5
:104B9300E0F5D9A3E865827003E9658370F2EE243A
:104BA30083F582EF3400F583E5822404F8E583344A
:104BB30000F9E0F5D9A3E865827003E9658370F233
:104BC30075E1957908EE248BFAEF3400FB120BAAFA
:104BD3007904EE2483FAEF3400FB120BAA7C00EE77
:104BE300F8EFF9ECFAC3E49AFA95E0FBEE2AFAEF50
:104BF3003BFBEA248AF582EB3400F583E0C0E0E86E
:104C030024AAF582E93400F583D0E0F00C88828988
:104C130083A3A882A983ECC3940840C7EE246FF54D
:104C230082EF3400F583E0F8A3E0F9EE2471F58216
:104C3300EF3400F583E8F0A3E9F07901800279000D
:104C43008008F0EEA2E092AF79007F010217E7C07F
:104C530082C08375D90275D90375D90575E195EAC3
:104C6300246FF582EB3400F583E0F8A3E0F9EA243E
:104C730071F582EB3400F583E8F0A3E9F0790102E2
:104C8300431F74F6121715EAFEEBFF9005457406F1
:104C9300F075084575090578081219287C01790310
:104CA300120BF274021216BB75D90675D9037582FD
:104CB30045758305E0F5D9A3E582644A7004E5836D
:104CC300640570F075E1959003A2E06408701EEE30
:104CD300246FF582EF3400F583E0F8A3E0F9EE24C6
:104CE30071F582EF3400F583E8F0A3E9F07901026E
:104CF3004F5374F6121715EAFEEBFF9061D0E07084
:104D0300667801900545740BF09003A2E064077088
:104D13001975084575090578081219287C01790366
:104D2300120BF274021216BB7805740128F5D975BB
:104D3300D903758245758305E8FAE0F5D9A31AEA24
:104D430070F875E195EE246FF582EF3400F583E09A
:104D5300F8A3E0F9EE2471F582EF3400F583E8F06F
:104D6300A3E9F0790180027900024F5374F7121717
:104D730015EAFEEBFF75D90375D90375D90DEE243A
:104D8300DDF582EF3400F583E0F5D975E19579041B
:104D9300120D00EE246FF582EF3400F583E0F8A3E3
:104DA300E0F9EE2471F582EF3400F583E8F0A3E92E
:104DB300F07901024C4D74F6121715EAFEEBFF90E1
:104DC30061D0E0F87480C398FAEE2482F582EF3460
:104DD30000F583E06004780480027800E8240BF88F
:104DE300EAC3985003024E7E7D09900545EDF0EE2F
:104DF30024E2F8EF3400F97A467B057C088882893F
:104E030083E08A828B83F088828983A3A882A98323
:104E13008A828B83A3AA82AB831CEC70E0EE24828C
:104E2300F582EF3400F583E0601D750845750905CB
:104E330078081219287C097903EEFAEFFB120BF2BA
:104E430074021216BB7D0D74012DF5D975D9037546
:104E530082457583058D08E0F5D9A31508E508702B
:104E6300F675E1957904120D00EE241DF582EF34F9
:104E730000F583E4F0A3F0790180027900024F5337
:104E830074F6121715EAFEEBFF9061D0E0F8748018
:104E9300C398FAEE2482F582EF3400F583E06004D0
:104EA300780480027800E82408F8EAC398500302E3
:104EB3004F517806900545740CF09003BFE09005C0
:104EC30046F09003C0E0900547F09003C1E09005E1
:104ED30048F09003C2E0900549F09003C3E09005C9
:104EE3004AF0EE2482F582EF3400F583E0601B750F
:104EF300084575090578081219287C067903EEFA26
:104F0300120BF274021216BB780A740128F5D975D4
:104F1300D9037582457583058808E0F5D9A315087B
:104F2300E50870F675E1957904120D00EE246FF52E
:104F330082EF3400F583E0F8A3E0F9EE2471F58203
:104F4300EF3400F583E8F0A3E9F0790180027900FA
:104F53007F020217E774F6121715EAFEEBFF906162
:104F6300D0E0F87480C398FAEE2482F582EF34001F
:104F7300F583E06004780480027800E82404F8EA0A
:104F8300C39850030250327802900545E8F0EE24AE
:104F9300F4F582EF3400F583E0900546F0EE2482C9
:104FA300F582EF3400F583E0601B7508457509054C
:104FB30078081219287C027903EEFA120BF27402B4
:104FC3001216BB7806740128F5D975D90375824585
:104FD3007583058808E0F5D9A31508E50870F6750B
:104FE300E195EE2473F582EF3400F583E4F0EE24CB
:104FF3007FF582EF3400F583E4F0EE241DF582EFB4
:105003003400F583E4F0A3F07904120D00EE240DCF
:10501300F582EF3400F583E0F8A3E0F9EE2471F5AF
:1050230082EF3400F583E8F0A3E9F0790180027997
:1050330000024F5374F61217159061D0E0F8748094
:10504300C398FCEA2482F582EB3400F583E0600424
:10505300780480027800E82404F8ECC398405B7974
:10506300029005457407F0EA24F5F582EB3400F568
:1050730083E0900546F0EA2482F582EB3400F58361
:10508300E0601875084575090578081219287C022F
:1050930009120BF274021216BB7906740129F5D9B1
:1050A30075D903758245758305E9F8E0F5D9A31829
:1050B300E870F875E195790180027900024F537425
:1050C300F5121715E9FCA2AFE433F50AC2AF7D0070
:1050D30080010DEA246EF582EB3400F583E0F8EDF0
:1050E300C398501A8D08EA2508F8EB3400F9E82430
:1050F3006AF582E93400F583E06C70D68024EA24F3
:105103006EF8EB3400F9E0FEEA2EFAEB3400FBEA2A
:10511300246AF582EB3400F583ECF088828983E01E
:1051230004F0E50AA2E092AF7F030217E774F612D8
:105133001715A2AFE433FDC2AFEA246EF582EB3458
:1051430000F583E014F07C0060368C08EA2508F84B
:10515300EB3400F9E8246BF582E93400F583E0C011
:10516300E0E8246AF582E93400F583D0E0F00CEA44
:10517300246EF582EB3400F583E0F8ECC39840CA63
:10518300EA246DF582EB3400F58374FFF0EA2469B9
:10519300F582EB3400F583E4F0EDA2E092AF024F29
:1051A30053C082C083E5A8F8C2AFEA246AF582EB54
:1051B3003400F583E9F0EA2469F582EB3400F583E2
:1051C300E4F0E8A2E7A2E792AF02431F74F31217D9
:1051D30015EAFEEBFFECFAEDFB8A828B83A3A3A314
:1051E300A3E0541FF0EE2436F582EF3400F583E498
:1051F300F0F50AEEFCEFFD8A828B83E0C0E0EC243D
:105203005DF582ED3400F583D0E0F0750B00E50A1F
:1052130033333354F8F50C8A828B83E0F508750930
:1052230000E50B7808121673E508A2E0502FEE2470
:1052330036F8EF3400F988828983E0F508EE250813
:10524300F508EF3400F509E5082438F582E509345B
:1052530000F583E50CF088828983E004F0050B05F3
:105263000CE50BC3940840AF050A8A828B83A3AA7B
:1052730082AB838C828D83A3AC82AD83E50AC39416
:105283000550030251FA7F050217E774F712171549
:105293009003CEE0640170030253EC7A009003D4D0
:1052A300E060030253EC7401F0A3E4F0A3F0900474
:1052B3003404F0900439F09003D7E4F0A3F0A3F0A2
:1052C300A3F09003E104F0900407E4F09003EAF004
:1052D300A3F0A3F0A3F0A3F0A3F0A3F0900451F084
:1052E300900445F090043A7480F0A3E4F0900440F5
:1052F300F09004BCF0A3F0A3F0A3F0A3F0A3F0A3F9
:10530300F0A3F09004C5F0900454F09004A4F0A32B
:10531300F0A3F0A3F0A3F0A3F0A3F0A3F0A3F0A3F2
:10532300F09004B0F09004B2F09004AEF09004C892
:10533300F0A3F0A3F0A3F0A3F0A3F0A3F0A3F078FD
:10534300CE7903E8246EF582E93400F58374FFF027
:105353000A88828983A3A882A983EAC3940440E3C9
:105363007ACE7B0378DC790488828983E0C0E0EA23
:105373002461F582EB3400F583D0E0F088828983E1
:10538300A3A882A9838A828B83A3AA82AB83E864BE
:10539300E17003E9640470D07ACE7B0378B57903B6
:1053A30088828983A3E0C0E0EA24E6F582EB340037
:1053B300F583D0E0F088828983A3A882A9838A82B7
:1053C3008B83A3AA82AB83E864BD7003E964037093
:1053D300CF9003CEE004F0640170089003D6E09010
:1053E30003D0F07AD27B0380047A007B00024C4D19
:1053F300C082C0839003D5E4F09003D4F09003CE31
:10540300F0A3F0A374FFF075E1F102431FC082C063
:1054130083780079009003D5E0600478D27903881B
:10542300828983A3A3A3A3E0F902431F74F612178F
:1054330015EAFEEBFFEE2463F582EF3400F583E01B
:10544300F8A3E0F9E84970030254D4EE2463F8EFBB
:105453003400F97A007B00A2AFE433F508C2AF88C9
:10546300828983E0FCA3E0FDEC4D603A8882898366
:10547300E0FAA3E0FB8A828B83E0FCA3E0FD888251
:105483008983ECF0A3EDF08A828B83E4F0A3F088A8
:10549300828983E0FCA3E0FDEC4D700A8882898356
:1054A300A3A3E4F0A3F0E508A2E092AF1211FE90EB
:1054B30004E2E004F09004E3E004F0EE2463F582F8
:1054C300EF3400F583E0F8A3E0F9E8496003025400
:1054D3004E8E828F83A3A3A3E0600F8E828F83A35C
:1054E300A3A3E4F09003CFE014F09003CEE014F014
:1054F30070069003D074FFF08E828F83A3A3E4F031
:105503009004E1E0700D9003CFE064017005790031
:10551300120CE2EEFAEFFB120C22024F5374F71255
:105523001715EAFEEBFF8E828F83A3A3A3A3E0FAF2
:105533007B001208F8EEFAEFFB120B74120C0A024E
:105543004C4DC082C08378B5790388828983A3E4F4
:10555300F088828983A3A882A983E864BD7003E9E4
:10556300640370E69003B6740102431E74F61217C7
:1055730015EAFEEBFFEC2403F8ED3400F988088903
:1055830009EC2407F8ED3400F9E8FCE9FD8C828D81
:1055930083E0F8A3E0F9850882850983E0FAA3E0B4
:1055A300FB12161AEE240DF582EF3400F583E8F0B2
:1055B300A3E9F08C828D83E0F8A3E0F98508828566
:1055C3000983E0FAA3E0FB12161A8B09EA45096086
:1055D30013EE240DF582EF3400F583E02401F0A3EC
:1055E300E03400F0024F5374F6121715EAFEEBFF96
:1055F300EE242EF582EF3400F583E0FCA3E0FD7882
:105603000079FAECFAEDFB12161AEE246FF582EF2D
:105613003400F583E8F0A3E9F0780079FAECFAEDC9
:10562300FB12161A8B09EA45096013EE246FF58203
:10563300EF3400F583E02401F0A3E03400F0024FDF
:105643005374EC121715EAFEEBFF74141216F1787B
:105653000812155D120CA68A0C8B0D8C0E8D0F751E
:105663001002751100751200751300780C79101271
:1056730014C37510FF7511FF7512FF780C791012A2
:105683001524780C1219248E828F83E0F8A3E0F599
:10569300838882A3A312157B12233174041216BBD1
:1056A300E960030257A88E828F83E02402F8A3E007
:1056B3003400F9E8FAE9FB8A828B8378081214E94B
:1056C3008A828B837508FF7509FF750AFF750B00C6
:1056D300780812154AEE240BF582EF3400F583C0E7
:1056E30082C0838E828F83A3A3A3A3A3E02401F8A4
:1056F300A3E03400F9D083D082E0687003A3E069AB
:10570300700579010257AA8E828F83A3A3A3A3A353
:10571300A3A3E02401F0A3E03400F0EE2473F582A8
:10572300EF3400F583E064017036EE2474F582EF04
:105733003400F583E0F8A3E0F98E828F83A3A3A35B
:10574300A3A3A3A3E0687003A3E0697013EE24741A
:10575300F582EF3400F583E02401F0A3E03400F098
:10576300EE247FF582EF3400F583E064017036EEBA
:105773002480F582EF3400F583E0F8A3E0F98E820C
:105783008F83A3A3A3A3A3A3A3E0687003A3E069E8
:105793007013EE2480F582EF3400F583E02401F0EA
:1057A300A3E03400F079000244B774F6121715E948
:1057B300FEECFFEA2462F582EB3400F583E064013A
:1057C30060030258569061D0E0F508EA2482F5821E
:1057D300EB3400F583E06004780480027800748081
:1057E300C39508FC95E0FDEF28F8E43400F9E824BC
:1057F30002F8E93400F9EC98ED99A2D265D0334070
:105803004E740A1216F1E0F508A3E0F509EA2482C2
:10581300F582EB3400F583E060157808121928EF60
:10582300FCEEF9120BF274021216BB74042FFF7410
:10583300012FF5D98ED9EF600F850882850983F88A
:10584300E0F5D9A318E870F875E195790080067939
:1058530007800279FF024F5374F7121715A2AFE4C2
:1058630033FEC2AF8A828B83E0F8A3E0F9E8498A6A
:10587300828B83600AA3A3E0F8A3E0F5838882EC1C
:10588300F0A3EDF08A828B83A3A3ECF0A3EDF08C5D
:10589300828D83E4F0A3024C4574F7121715E96077
:1058A30021F88C828D83E08A828B83F08C828D83B6
:1058B300A3AC82AD838A828B83A3AA82AB8318E8CD
:1058C30070E0ECFAEDFB024C4D74F412171590786E
:1058D30003E064427055900544E014F0704DC2AF8C
:1058E3001258E600782AD0E0F618D0E0F6E59F5487
:1058F3000770057509FF800375097FC4C0E0782927
:10590300E6F50808E65509F509740B7808121683BD
:10591300D0E02508F8906270E0A2E740F8E8C333CE
:10592300906272F0906270E0D2E0F09003D0E0F405
:105933007003025CC6E0F875F003A4C8AAF02AF964
:1059430074D228FE740339FFEE2401F582EF34018B
:10595300F583E0F8A3E0F9E849601EEE2401F5823F
:10596300EF3401F583E0FAA3E0FBEE2400F582EFC8
:105973003401F583E0F9120FB28E828F83A3A3A3C0
:10598300A3A3A3A3E0F8A3E0F98E828F83A3A3A329
:10599300A3A3E8F0A3E9F0906054E09003A9F0908A
:1059A3006055E09003AAF0906056E09003ABF0904E
:1059B3006057E09003ACF0906058E09003ADF09036
:1059C3006059E09003AEF090605AE09003AFF0901E
:1059D300605BE09003B0F090605CE0FC9003B1F09A
:1059E30090605DE0FB9003B2F090605EE0FD900399
:1059F300B3F090605FE0FA9003B4F09003AFE08CF3
:105A0300082508F8E43400F98D08E82508F8E93496
:105A130000F98B08E82508F8E93400F98A08E82535
:105A230008FAE93400FBEE24F6F582EF3400F5833F
:105A3300E02AF0A3E03BF08C08EE24F8F582EF3483
:105A430000F583E02508F0A3E03400F0EE24FAF536
:105A530082EF3400F583E02401F0A3E03400F0EE9C
:105A630024FEF582EF3400F583E0F8A3E0F9E8497A
:105A73006042906000E0C333FCE433FDE82CF58220
:105A8300E93DF583E02AF0A3E03BF0906000E0FA03
:105A93009003B1E0FCEAC333FAE433FBE82AF8E904
:105AA3003BF9E8244AF582E93400F583E02CF0A3BE
:105AB300E03400F09003AFE070119003B2E0700B9C
:105AC300A3E07007A3E07003025BC38E828F83A3FE
:105AD300A3A3A3A3E0F8A3E0F9EE240DF582EF342A
:105AE30000F583E028F8A3E039F9EE240BF582EF03
:105AF3003400F583E8F0A3E9F0EE240FF582EF34E8
:105B030000F583E4F0EE241CF582EF3400F583E026
:105B13006401701EEE2420F582EF3400F583E0F873
:105B2300A3E0F9EE241DF582EF3400F583E8F0A33A
