:020000040000FA
:0600000002010702220FBD
:03002B0002268723
:0300330002266939
:03003B000226A8F2
:0300430002261D75
:0300530002228204
:03006B0002264327
:1000830002207BE5C754F84401F5C779012200003B
:100093000080FB120086B900030200F1E4792178A5
:1000A30008B800028004F709D8FCE479297802B87B
:1000B30000028004F709D8FCE49002817847790CA8
:1000C3008002F0A3D8FCD9FA7AC77B0D9001377868
:1000D300E479038015E493A3AD82AE838A828B8394
:1000E300F0A3AA82AB838D828E83D8E9D9E7758288
:1000F300C47583B7740312011975829175830074F3
:100103000012011975D00075813F751881751902A8
:10011300759F00020096C09FF59FE473D09F22D085
:1001230083D082C09FE493C0E0740193C0E0740263
:1001330093F59F22FF0000B4000028002800283018
:1001430075A000A000A000A00000080008E001F0D6
:10015300001000100010001000100010005000509C
:1001630000500010001000D0070000000000000F36
:100173000001000500307507001000010081FF0039
:10018300000000FF180636061E06FF0202020802E0
:100193005000A0000000E803020186010000598519
:1001A30002FB850100001E0E02F185010000B3026F
:1001B30002FB850100001F0E020786010000C90231
:1001C30002FB85010000200E02ED85010000CB0239
:1001D30002FB85010000210E02EB85080000CC0222
:1001E30002FB85010000220E02E985010000230EB7
:1001F300FF0100FF20020186010000D98502FB8573
:10020300010000870E021786000000000002F3853C
:100213000300001903060C060C060C060C060C065C
:100223000C060C060C060C060C060C060C060C88B9
:100233000EA00E820EFFFF0202020202020202025F
:10024300010D0000001001020186010000DC85029F
:10025300FB85010000CA0E02FD850100005D070257
:10026300FB85010000CB0E02F785010000E284024A
:10027300FB85010000CC0E02F585010000D4840249
:10028300FB85010000CD0E02EF85010000E3830230
:10029300FB85010000CE0E02DF8501000089830289
:1002A300FB85010000CF0E02E185010000BF830240
:1002B300FB85010000D00E02E385010000D183021B
:1002C300FB85010000D10E02E585010000C6840212
:1002D300FB85010000D20E02E785010000D30E0169
:1002E300E803053F100AFF00013075030201060011
:1002F30000000000000000000000000000000000FB
:100303000000000000000000000000FFFF06008066
:100313000CE80325020305070B0D1113171D1F53CB
:10032300292B2F353B3D4347494F01020304050663
:100333000708090A0B0C0D0E0F10080964422E441E
:10034300657673051250002003020A0064422E44AE
:10035300657673000000000000000000000000004C
:10036300003E130000441302307844423031000A47
:100373003078444230320008307844423033001041
:10038300307844423034000830784442303500023B
:100393000186010000D68502FB85010000FA0F02E9
:1003A3000D86010000800D02F985010000FB0F029C
:1003B300FB850100000210020F86030000940D026A
:1003C300F985010000031002FB850100000A1002F9
:1003D3001186020000A80D02F9850100000B10022E
:1003E300FB850100001210021386000000BC0D0201
:1003F300F385030000BD0D02F9850100001310020F
:10040300FB850100001A10021586020000C30D02CD
:10041300F9850100001B10120122A5A70312012276
:10042300BCA703120122EDA70312012228A803127D
:10043300012252A8031201227CA80312012293A8CD
:1004430003120122AAA803120122C1A80312012246
:10045300EAA803120122FDA80312012213A9031221
:10046300012226A9031201224DA90312012238C039
:10047300021201223CC10212012274C102120122A2
:1004830097C102120122A2C102120122C5C10212A6
:100493000122D4C202120122A9C30212012224C4DE
:1004A30002120122ACC402120122E7C40212012289
:1004B3001EC502120122ACC50212012285C6021218
:1004C3000122E5C602120122F0C6021201226FC701
:1004D3000212012272C70212012275C702120122FF
:1004E30004C80212012207C80212012237C80212ED
:1004F300012261C8021201224FC90212012201CA5C
:1005030002120122F6F1021201221EF2021201224C
:100513004CF20212012283F202120122E1F20212D0
:1005230001222CF30212012277F302120122B7F304
:1005330002120122FDF3021201222BF40212012204
:10054300E8F402120122F2F402120122FFF4021271
:10055300012232F502120122FEF5021201220AF6ED
:100563000212012222F6021201222CF602120122A9
:1005730006B40312012214B4031201222CB4031291
:10058300012244B40312012240BE01120122ECBE37
:100593000112012267BF0112012288C00112012248
:1005A300C4C0011201226DC10112012254C2011201
:1005B3000122B8C3011201220FC40112012290C407
:1005C3000112012280C501120122CDC501120122AF
:1005D30053C60112012285C60112012299C80112D4
:1005E3000122DBC801120122F9C8011201227CC9D0
:1005F3000112012250CA0112012218CB0112012259
:100603000BDB02120122DEDB0212012287DC021263
:100613000122DADC021201228ADD0212012216DE35
:100623000212012202DF0212012231DF0212012231
:1006330044E0021201228CE00212012261E1021263
:1006430001229DE102120122B9E102120122D6B672
:1006530003120122E18B03120122F78B0312012201
:100663001D8C03120122398D03120122438D0312C3
:100673000122788E03120122708F03120122CFEC24
:1006830002120122FFED0212012232EE02120122B6
:100693007CEE0212012243F00212012251AE01123A
:1006A3000122BBAE011201221AB0011201222AB0AB
:1006B3000112012257B001120122AEB00112012230
:1006C30057B1011201225EB20112012228B30112B5
:1006D300012288B401120122CBB40112012270B5A8
:1006E30001120122BDB501120122E3B5011201225B
:1006F300F1B701120122F6B701120122FBB901126F
:10070300012248BA01120122BBBA01120122EEBA38
:100713000112012290BB0112012239BC01120122F4
:1007230071BC0112012274BC01120122BCBC011272
:100733000122FCBC0112012253BD01120122D3A2EA
:1007430003120122EBA20312012233A3031201229B
:1007530049A30312012290A303120122A4A40312AA
:10076300012231A5031201227CA5031201221C27B9
:1007730000120122282700120122632700120122FE
:10078300A82700120122682800120122EE28001275
:1007930001221A2900120122532900120122912B4E
:1007A30000120122752D001201225B2F001201227B
:1007B3009E3000120122EC3200120122FE3300129D
:1007C30001224935001201225936001201227636E0
:1007D30000120122B13600120122D3360012012287
:1007E300363700120122F73B001201228C3C001223
:1007F3000122DD3C00120122043D00120122563D7C
:1008030000120122743D00120122CE3D001201228A
:10081300CD3E00120122513F001201229CE7021239
:100823000122A6E702120122E9E70212012204E8EB
:100833000212012294E802120122BCE802120122F0
:10084300F9E80212012230E90212012259E90212E7
:100853000122CEE902120122E3E902120122F8E9A0
:100863000212012229EA021201223DEA02120122A6
:1008730062EA021201229CEA02120122C8EA02126F
:10088300012200EB021201225FEB02120122DEEBD6
:100893000212012209EC0212012252EC021201227D
:1008A3007CEC02120122A7EC0212012210B1031206
:1008B300012237A80212012265A802120122B3A95C
:1008C3000212012293AA02120122B2AA02120122E7
:1008D3002FAB0212012272AB02120122C8AC021228
:1008E300012289AD0212012210B002120122B1B01D
:1008F30002120122A7B102120122A4B202120122A2
:10090300FEB30212012289B402120122B5AF03120F
:1009130001221EB00312012272B00312012299B008
:1009230003120122CAB003120122B3F602120122FA
:1009330020F70212012267F7021201227FF8021246
:1009430001227BF9021201225EFA0212012272CA0B
:1009530002120122B4CA0212012286CB0212012220
:100963005FCC0212012259CD021201223BCE0212A8
:100973000122A4CE021201225ACF02120122CECFAB
:10098300021201223AD00212012263D00212012282
:10099300DDD00212012276D102120122DBD1021232
:1009A3000122F0D10212012236D2021201224FD2C9
:1009B30002120122B4D202120122B7D20212012280
:1009C300DA9F0312012202A00312012240A00312A4
:1009D3000122FEA00312012265A10312012281A1BB
:1009E30003120122A9A103120122D9A10312012298
:1009F300E8A10312012265A2031201228BA20312B2
:100A03000122C66C00120122A46E00120122D670CC
:100A1300001201221271001201223F710012012201
:100A2300297200120122747200120122BF72001295
:100A33000122D172001201221173001201224673A6
:100A430000120122947300120122C37300120122C7
:100A5300E67300120122337400120122B8740012EB
:100A63000122D27600120122117900120122527959
:100A730000120122F47A00120122357B00120122B6
:100A8300A87B00120122F97B00120122D47C001200
:100A93000122FE7C00120122337D00120122229BDF
:100AA30002120122209C02120122B9A20212012287
:100AB300DAA402120122A5A6021201220DA8021233
:100AC3000122B83F00120122674000120122AD400B
:100AD30000120122E34100120122114200120122FD
:100AE300A743001201222144001201223C440012B8
:100AF3000122B7440012012211460012012271475C
:100B030000120122774800120122D8490012012263
:100B1300F149001201224F4A001201223D4B0012FB
:100B23000122704B00120122E04B001201225A4CA9
:100B330000120122A44C001201226E4D0012012268
:100B4300434E00120122224F00120122AD4F001228
:100B530001221B50001201228F5000120122BA50B1
:100B630000120122795100120122DE5200120122E9
:100B7300FB52001201221A53001201220B540012DD
:100B830001223054001201225A5400120122D5547A
:100B9300001201222F550012012298560012012241
:100BA3004657001201228757001201229DDB0112D2
:100BB3000122EBDB01120122F7DB01120122D5DC5A
:100BC3000112012206DD0112012237DD0112012289
:100BD300B7DD0112012235DE011201226DDE0112A1
:100BE3000122BFDE01120122FCDE0112012219E102
:100BF300011201223FE3011201222AE5011201221F
:100C030014E7011201221127001201223E9A011258
:100C130001226E9A0112012247A101120122CCA2E4
:100C230001120122C9A801120122B1A90112012254
:100C3300EEA90112012211AA0112012242AA0112F4
:100C430001224BAA0112012255AA0112012243AB30
:100C53000112012239AC01120122B75700120122FD
:100C6300B65B00120122BC5B00120122F762001284
:100C73000122106800120122799603120122739750
:100C830003120122E797031201222598031201227E
:100C93009998031201221299031201221B9903123C
:100CA30001222799031201223C99031201227A9906
:100CB3000312012290990312012220FB0212012246
:100CC3002DFB0212012247FB0212012286FB0212B4
:100CD3000122C4FB0212012229FC021201223EFC62
:100CE3000212012249FC0212012256FC02120122C5
:100CF3006DFC021201227BFC0212012286FC02120D
:100D0300012292FC02120122A1FC02120122ACFC7C
:100D130002120122CFFC0212012276FD02120122ED
:100D230086FD02120122A0FD02120122BDFD021264
:100D33000122D9FD02120122FEFD0212012209FE47
:100D4300021201221EFE0212012232FE02120122AF
:100D530093FE0212012299FE021201229FFE021249
:100D63000122A5FE02120122BDFE02120122F0FEA3
:100D730002120122F4E90112012278EA011201228E
:100D830027EB0112012286EC01120122A7EE0112C8
:100D9300012293EF01120122C8EF01120122EAEFAF
:100DA3000112012299F00112012291F20112012292
:100DB300BAF2011201224CF3011201227EF3011255
:100DC30001228BF301120122E2F30112012208F442
:100DD3000112012275F60112012278F70112012294
:100DE300D0F70112012231CD011201223BCE0112B3
:100DF300012222CF011201222CCF011201224ECF58
:100E0300011201225ACF01120122F3D00112012251
:100E130022D1011201223ED20112012297D20112E4
:100E23000122FDD301120122DCD40112012238D5A3
:100E330001120122A5D501120122E0D501120122DE
:100E43001FD601120122D8D801120122F2D80112B1
:100E530001227ED9011201228CD901120122E5D986
:100E630001120122F3D90112012266DA01120122D1
:100E7300CADA0112012214DB011201220AB502129D
:100E830001222CB50212012252B70212012267BAC3
:100E9300021201227FBB0212012232BC0212012282
:100EA30014BD0212012211AB0312012236AB03124D
:100EB3000122A8AB031201221EF80112012227F816
:100EC3000112012230F80112012207F90112012255
:100ED300B8FA01120122EEFA0112012228FB0112D3
:100EE30001225EFB0112012298FB01120122CCFBBD
:100EF30001120122F8FB0112012241FC011201221D
:100F03007BFC01120122C4FC011201221CFD01120F
:100F1300012251FD01120122ACFD01120122E6FD65
:100F23000112012237FE011201226DFE011201227C
:100F3300A7FE01120122D5FE01120122F8FE0112C1
:100F4300012293B503120122BFB5031201221AB67F
:100F53000312012224B60312012234B60312012222
:100F63002EE20212012238E20212012276E202127A
:100F73000122BFE202120122F9E20212012253E32B
:100F83000212012274E3021201227DE30212012202
:100F9300CEE302120122F7E30212012201E402125C
:100FA30001226DE402120122FBE40212012249E54F
:100FB300021201227FE50212012206E60212012239
:100FC30046E6021201227EE60212012290E6021296
:100FD3000122AFE602120122B8E60212012272E7F1
:100FE300021201227A8F031201226F90031201224F
:100FF3008990031201229A9003120122CF920312C5
:101003000122A6A503120122DCA50312012212A6C6
:10101300031201226BA7031201225AB70312012202
:1010230070B7031201227AB70312012298FF01124B
:101033000122008003120122198003120122BD80C4
:1010430003120122FD8003120122168103120122E1
:101053004A8103120122978103120122CB810312D9
:1010630001220D82031201222DB30312012256B372
:10107300031201227FB303120122C1B3031201221F
:10108300C09903120122E59903120122119A031256
:10109300012260B8031201221B86011201227F88FC
:1010A30001120122318A01120122238B0112012232
:1010B300A88B01120122268C01120122538C0112EA
:1010C3000122778F01120122F18F01120122E09098
:1010D300011201221A91011201225A9101120122D5
:1010E300149301120122679301120122B09301129A
:1010F30001221E94011201225094011201226894CC
:10110300011201227D95011201228D950112012206
:10111300BD9601120122DF960112012215970112D9
:101123000122BA9801120122F99801120122199A97
:1011330001120122DDB403120122EEB403120122D3
:1011430017B80312012256B803120122C5B80312BD
:1011530001223EB6031201224EB60312012266B6E5
:1011630003120122CCB60312012229B20312012277
:10117300AEB20312012214B3031201223DAE0312D5
:10118300012266AE03120122D1AE0312012222AF65
:10119300031201227BAF03120122FD8703120122F6
:1011A300348803120122A48803120122B98803128E
:1011B3000122028A03120122C88A03120122E78A4A
:1011C300031201220E8B03120122438B031201220D
:1011D3005B8B03120122AC8B03120122D8B80312DA
:1011E30001220A93031201229A93031201221894F3
:1011F30003120122A1940312012236950312012244
:10120300C09503120122CA9503120122D995031234
:101213000122EF9503120122029603120122629624
:10122300031201227696031201226DFF021201229C
:10123300D7FF02120122E9FF02120122B6AC031208
:1012430001220BAD0312012279AD03120122E9AD94
:10125300031201225E7D00120122887D0012012209
:101263005D7E00120122517F00120122DBD20212A5
:10127300012298D302120122D3D302120122FBD3FB
:10128300021201225DD402120122A9D40212012208
:1012930002D50212012293D50212012295D602121F
:1012A300012252D802120122D4D80212012239D9C2
:1012B3000212012250D90212012260DA0212012223
:1012C3009EDA021201220080021201228A83021294
:1012D30001221285021201226985021201228885E8
:1012E30002120122068602120122A487021201229F
:1012F300888802120122728C02120122428D02128C
:101303000122D19C03120122009D03120122169D8A
:10131300031201225E9D03120122A09D03120122EA
:101323000B9E03120122DD9E03120122559F03121D
:101333000122E58D021201226991021201225892C3
:1013430002120122A994021201223C9502120122E7
:10135300AB9502120122F395021201220A960212A0
:101363000122A99602120122129702120122B597B5
:1013730002120122919802120122C3980212012241
:10138300809902120122118403120122568403124E
:10139300012273840312012202850312012276853E
:1013A30003120122508603120122C4870312012271
:1013B3005FA90312012283A90312012251AA031276
:1013C3000122C9AA03120122C97F00120122A7B870
:1013D30003E066701008A3E066700A08A3E0667075
:1013E3000408A3E06622C3E7960809E7960809E71D
:1013F300960809E79622C3E09608A3E09608A3E0BF
:101403009608A3E09622C008C3E096F50808A3E077
:1014130096420808A3E096420808A3E096450870A0
:1014230001D3D00822080808EAC0E0EBC0E086F048
:10143300E7A4FA180986F0E7A42AFA180986F0E760
:10144300A42AFA180986F0E7A42AFA1986F0E7A471
:10145300FBE5F02AFA190886F0E7A42BFBE5F03A3E
:10146300FA190886F0E7A42BFBE5F03AFA181809F5
:1014730086F0E7A4C5F02BFBE43AFA1908E7C5F0B8
:10148300C6A426F6E5F03BFBE43AFA1886F0E7A497
:10149300F6E5F00826F6E43B08F6E43A08F6D0E071
:1014A300FBD0E0FA22E4CFC0E0E4CEC0E0E4CDC05C
:1014B300E0E4CCC0E075F020E626F608E633F60853
:1014C300E633F608E633F6181818EC33FCED33FD73
:1014D300EE33FEEF33FFC3EC9709ED9709EE97095F
:1014E300EF97191919400FFFEC97FC09ED97FD09C8
:1014F300EE97FE191906D5F0BFECF709EDF709EEE3
:10150300F709EFF7191919D0E0FCD0E0FDD0E0FEA0
:10151300D0E0FF226016080808C6C313C618C61316
:10152300C618C613C618C613C6D5E0EA2270090842
:101533000808226016181818C6C333C608C633C66F
:1015430008C633C608C633C6D5E0EA22E627F6083E
:1015530009E637F60809E637F60809E637F622E022
:1015630026F608A3E036F608A3E036F608A3E0362D
:10157300F622E026F008A3E036F008A3E036F008F0
:10158300A3E036F022C3E697F60809E697F60809C2
:10159300E697F60809E697F622C3E096F008A3E07B
:1015A30096F008A3E096F008A3E096F022E657F63B
:1015B3000809E657F60809E657F60809E657F6223A
:1015C300E056F608A3E056F608A3E056F608A3E0B3
:1015D30056F622E056F008A3E056F008A3E056F0D2
:1015E30008A3E056F022E0F608A3E0F608A3E0F62D
:1015F30008A3E0F622E6F008A3E6F008A3E6F00865
:10160300A3E6F022E0FAA3E0FBA3E0FCA3E0FD22C3
:10161300EAF0A3EBF0A3ECF0A3EDF022E0F8A3E0F3
:10162300F9A3E0FAA3E0FB22E8F0A3E9F0A3EAF0D0
:10163300A3EBF022CAC0E0E6F0A308DAFAD0E0FA9E
:1016430022CAC0E0E0A3C582CCC582C583CDC583D1
:10165300F0A3C582CCC582C583CDC583DAE6D0E0CD
:10166300CA22C3E498F8E499F91216A68026C3E4C3
:101673009AFAE49BFBE920E7E91216A6E498F8E45A
:1016830099F922C3E498F8E499F91216A6E498F8B4
:10169300E499F9C3E49AFAE49BFB22EB20E7CFE950
:1016A30020E7E0B90010BB0008E88AF084F8AAF04C
:1016B30022E4FBC8FA22EB70227B10C833C8C9337B
:1016C300C9335007C39AC3DBF280069A50012ADB61
:1016D300EAC833F4C8C933F4C9FA2275F008E4C878
:1016E30033C8C933C933C99AC99B5004C92AC93BF2
:1016F300D5F0ECFBC833F4C8E4C9FA22600D08C680
:10170300A2E713C618C613C6D5E0F322600C08C6B9
:10171300C313C618C613C6D5E0F422700422600DA5
:1017230018C6C333C608C633C6D5E0F41822251835
:1017330010AF08F518400C15198008F5184002156C
:1017430019D2AF2200C0D0251810AF08F518500CDD
:1017530005198008F51850020519D2AFD0D02225FB
:1017630018F58210AF08F518400C15198008F51804
:1017730040021519D2AF851983222518F582E43565
:1017830019F583222518F8E43519F9222518FAE406
:101793003519FB222518FCE43519FD22E4732518BD
:1017A300C582C0E0E51934FFC583C0E0E518C395E1
:1017B3008224F810AF0885831985821880088583F1
:1017C30019858218D2AFCEF0A3E520F0A37808E6FE
:1017D30008F0A3DEFAEFF0A3E58124FAF8E608F0B7
:1017E300A3E608F0A3E608F0A30808E608F0A3E6DA
:1017F30008F0A315811581D0E0FED0E0F81581151E
:10180300811581E8C0E0EEC0E0222518C582C0E062
:10181300E51934FFC583C0E0E518C3958224F910A8
:10182300AF088583198582188008858319858218F6
:10183300D2AFCEF0A3E520F0A37808E608F0A3DE4C
:10184300FAEFF0A3E58124FBF8E608F0A3E608F03D
:10185300A30808E608F0A3E608F0A315811581D0D4
:10186300E0FED0E0F815811581E8C0E0EEC0E0228B
:10187300851983851882E0A3FEE0A3F5207808E0AC
:10188300A3F608DFFAE0A3FFE0A3C0E0E0A3C0E013
:10189300E0A3C0E0E0A3C0E0E0A3C0E010AF088590
:1018A30082188583198008858218858319D2AFD061
:1018B30083D08202011F851983851882E0A3FEE08D
:1018C300A3F5207808E0A3F608DFFAE0A3FFE0A37E
:1018D300C0E0E0A3C0E0E0A3C0E0E0A3C0E010AF3D
:1018E300088582188583198008858218858319D213
:1018F300AFD083D08222C0D02518C582C0E0E519BD
:1019030034FFC583C0E0E518C3958224F310AF0804
:101913008583198582188008858319858218D2AF3B
:10192300C8F0A3E9F0A3EAF0A3EBF0A37908E70971
:10193300F0A3D8FAECF0A3EDF0A3EEF0A3EFF0A33D
:10194300D0E0F0A3D0E0F0A3D0E0F0A3E520F0A333
:10195300E5F0F0A322851983851882E0C0E0A3E0B7
:10196300F9A3E0FAA3E0FBA37808E0F608A3DFFA03
:10197300E0FCA3E0FDA3E0FEA3E0FFA3E0C0E0A33F
:10198300E0C0E0A3E0F5D0A3E0F520A3E0A3F5F0E9
:1019930010AF08858319858218800885831985828D
:1019A30018D2AFD082D083D0E0F8D0E03274048074
:1019B30006740280027401C0E0F404121762D0E0DE
:1019C300121637227404800474028000CCC0E0ED48
:1019D300C0E0E518C39CCCAD1950011D10AF068CB7
:1019E300188D1980068C188D19D2AF121644D0E0C9
:1019F300FDD0E0FC22D083D082E9C0E0E493A3C30E
:101A030086F0C5F095F0F908E493A386F0C5F09548
:101A1300F0700BE493A3C3994005E9048002A3E4A7
:101A230075F002A42582F582E5F03583F583D0E0D5
:101A3300F9E493A3C0E0E493C0E022D083D082EC26
:101A4300C0E0EDC0E0E493A3FCE493A3FDED4C60A0
:101A53000D121A8AEC24FFFCED34FFFD80EFE493B2
:101A6300A3FCE493A3FDED4C600D121AC9EC24FF13
:101A7300FCED34FFFD80EFD0E0FDD0E0FCE493A368
:101A8300C0E0E493C0E022C0E0C3E493960874018D
:101A9300939618400FE493667008087401936618D0
:101AA30070007019A3A3C3E4939608740193961866
:101AB300A3A3400DD0E0D0E0D0E0021A7AA3A3A301
:101AC300A3A3A3D0E022C0E0C0F088F0E493667043
:101AD300080874019366187000A8F0A3A3700BD0D4
:101AE300F0D0E0D0E0D0E0021A7AA3A3D0F0D0E0A7
:101AF3002274F512180DEAFEEBFFEE2434F8EF34EE
:101B030000F988088909EE2435F582EF3400F5835E
:101B1300E0F8EE2437F582EF3400F583E0F50AECC4
:101B2300850AF0A4FCAAF0850AF0EDA42AFDE82CAE
:101B3300F8E43DF97A257B001216A6EA850882852A
:101B43000983F0F8740758F97401B900028004C3DB
:101B530033D9FCFAE8131313541FF8EE28F8EF34C3
:101B630000F9E8245DF582E93400F583E05A600862
:101B7300EE2434F582EF802CEE2434F582EF34002A
:101B8300F583E0C0E0EE2436F582EF3400F583E020
:101B9300F5F0D0E084A8F0EE28F8EF3400F9E8245B
:101BA30038F582E93400F583E0F97F040218B9744B
:101BB300F512180DEAFEEBFFEE2434F582EF340044
:101BC300F583E0C0E0EE2435F582EF3400F583D0F1
:101BD300E0F08E828F83A3A3A3A3A3A3A3C082C099
:101BE300838E828F83A3A3A3A3A3E0F8A3E0F9D0FA
:101BF30083D082E0C398F508A3E099F509EE247F2A
:101C0300F582EF3400F583E064017069EE2480F51A
:101C130082EF3400F583E0F8A3E0F98E828F83A38B
:101C2300A3A3A3A3A3A3E0FCA3E0FD8E828F83A3BE
:101C3300A3A3A3A3E0FAA3E0FBC3EA9CEB9D50108C
:101C4300C3EC98ED99402EC3EA98EB995027800E88
:101C5300C3EA98EB994007C3EC98ED9940177CDCF5
:101C63007D04EEFAEFFB120B5EEE247FF582EF3478
:101C730000F583E4F0EE2434F8EF3400F9E8FCE9EE
:101C8300FDEE2435F582EF3400F583E0F8EE2437DA
:101C9300F582EF3400F583E0F50AE508850AF0A440
:101CA300F508AAF0850AF0E509A42AF509E825084C
:101CB300F8E43509F97A257B001216A6EA8C828DA1
:101CC30083F0F8740758F97401B900028004C33330
:101CD300D9FCFAE8131313541FF8EE28F8EF340075
:101CE300F9E8245DF582E93400F583E05A6008EEF3
:101CF3002434F582EF802CEE2434F582EF3400F5A2
:101D030083E0C0E0EE2436F582EF3400F583E0F59E
:101D1300F0D0E084A8F0EE28F8EF3400F9E8243896
:101D2300F582E93400F583E0F9122609021BADC000
:101D330082C083851882851983E0F8A3E0F9C3EA9A
:101D43009CEB9D5010C3EC98ED99401BC3EA98EBB4
:101D5300995014800EC3EA98EB994007C3EC98EDB1
:101D6300994004790180027900D083D08222EAC3AA
:101D73009CFAEB9DFB2274EF12180D9003A2E06412
:101D8300086005E06407702A9061C8E0602490034E
:101D9300D0E0F4601DE0F875F003A4C8AAF02AF9B6
:101DA30074D228FE740339FF8E828F83A3A3A3E02A
:101DB3007003021EA9906060E0C0E0EE2468F58223
:101DC300EF3400F583D0E0F0750C45750D0575080B
:101DD30000750900E5D914F50AE5D95403F50E6039
:101DE300177403650E605CE50A6010EE2467F582E4
:101DF300EF3400F583E07003021E8E900540E0642B
:101E030001602AEE2482F582EF3400F583E060045A
:101E1300780480027800850A08E508C398FA95E0FB
:101E2300FB120A148A088B09EA45097005120D563C
:101E33008074EE2482F582EF3400F583E070048A27
:101E43000C8B0DE50A6012850C82850D83F50BE57D
:101E5300D9F0A3150BE50B70F6EE2482F582EF346F
:101E630000F583E0604474FC250AF50A780C121926
:101E7300B4AC0AA90EEEFAEFFB120C0074021217AF
:101E830047E97026AA08AB09121242793D8E828F68
:101E930083A3A3A3A3E0FA7B001208E8EEFAEFFB07
:101EA300120B76120C12790080747403650E60565F
:101EB300850A1075110078101219B4AC0CAD0DAA77
:101EC30008AB09120BDC7402121747EE2468F58283
:101ED300EF3400F583E064807004747F8001E0F5E3
:101EE3000C780C1219B8E50EF50C780C1219B8A978
:101EF3000AAC08AD099003D0E0FA7B001208AC7479
:101F03000212174780139003A2E06408600BAC0C25
:101F1300AD0DEEFAEFFB120C6C120D6279017F0A24
:101F23000218B974F512180D74FC121731EAFEEB9E
:101F3300FF8908A2AFE433F509C2AF806AEE2463D8
:101F4300F8EF3400F97A007B00A2AFE433F50AC25C
:101F5300AF88828983E0FCA3E0FDEC4D603A888280
:101F63008983E0FAA3E0FB8A828B83E0FCA3E0FD94
:101F730088828983ECF0A3EDF08A828B83E4F0A35B
:101F8300F088828983E0FCA3E0FDEC4D700A88822F
:101F93008983A3A3E4F0A3F0E50AA2E092AF1212AF
:101FA300429004E3E004F0EE2463F582EF3400F59D
:101FB30083E0F8A3E0F9E849603DEE2463F582EF9E
:101FC3003400F583E02402FAA3E03400FBEA2402A0
:101FD300F50AEB3400F50B780A1219B48A828B8365
:101FE300E0FCA3E0F9EEFAEFFB120B9A740212176E
:101FF30047E97003021F409004E3E060639004E448
:10200300E0F89004E3E0C398500C74026508705044
:102013009004E5E0604A8E828F83A3A3A3A3E085A7
:102023001882851983F0A3E4F09004E3E0F87402C6
:1020330012177DE8F0A3E4F09004E3E0F89004E2E3
:10204300E028F0740212177DAC82AD838518828577
:102053001983AA82AB8379011208B89004E3E4F0F0
:10206300E509A2E092AF7404121747021BAD00000A
:10207300008521878522C622C0E0C0D0E8C0E0E900
:10208300C0E0EAC0E0EBC0E0ECC0E0EDC0E0EEC0D1
:10209300E0C008C009C00AC00BC082C083C0F0A260
:1020A300AFE433FEC2AF759B00906182E0A2E050C3
:1020B30012E591A2E0500C7591FE74016521700345
:1020C300121D79E0A2E55051E591A2E5504B7591BF
:1020D300DF9003A2E064076005E0640870237401E5
:1020E3006521703579019003D0E0FA75F003A4CA35
:1020F300A8F028FB74D22AFA74033BFB121F268034
:1021030018E0640D70139003C4E004F064287002B7
:10211300E4F07A00E0F9120D68906182E0A2E640F3
:10212300030221C2E591A2E640030221C27591BFD9
:102133009003A2E064057008120C96120CA28003AF
:10214300120C9C752100120CF6E99003A3F07900A0
:10215300120CEA120ACE7A017B009003A1E0F91275
:102163000FBA907803E064427055900544E014F090
:10217300704DC2AF12217A00782AD0E0F618D0E071
:10218300F6E59F540770057509FF800375097FC441
:10219300C0E07829E6F50808E65509F509740B78D7
:1021A3000812170FD0E02508F8906270E0A2E7400C
:1021B300F8E8C333906272F0906270E0D2E0F0907E
:1021C3006181E0A2E35009E5E9A2E3500375E9F771
:1021D300A3E0A2E75009E591A2E7500375917FEED2
:1021E300A2E092AFD0F0D083D082D00BD00AD00936
:1021F300D008D0E0FED0E0FDD0E0FCD0E0FBD0E0A2
:10220300FAD0E0F9D0E0F8D0D0D0E032C0E0C0D0CE
:10221300C082C083906183E0A2E05009E5BFA2E0E1
:10222300500375BFFEE0A2E15009E5BFA2E15003F0
:1022330075BFFDE0A2E25009E5BFA2E2500375BFFE
:10224300FBE0A2E35009E5BFA2E3500375BFF7E04B
:10225300A2E45009E5BFA2E4500375BFEFE0A2E595
:102263005009E5BFA2E5500375BFDFE0A2E65009C0
:10227300E5BFA2E6500375BFBFD083D0828088C07C
:10228300E0C0D0E8C0E0E9C0E0EAC0E0EBC0E0ECC9
:10229300C0E0EDC0E0C0F0E5A7A2E6500FE5A1A2C3
:1022A300E6500953A7BF75A1BF1222E7E5A7A2E530
:1022B300500CE5A1A2E5500653A7DF75A1DFE5A702
:1022C300A2E15009E5A1A2E1500375A1FDE5A7A292
:1022D300E2500CE5A1A2E2500653A7FB75A1FBD087
:1022E300F00221F874F812180D7521019003A2E091
:1022F30064067015120C308A828B83A3A3A3A3A355
:10230300A3E0FAA3E0FB120C84A2AFE433FED2AF46
:102313009003A8E0640170187A207B009003A1E089
:10232300F91210567A207B009003A1E0F9120FC036
:10233300906182E0D2E6F0900541E0602185C622FB
:1023430080169003A7E064017008E5C654F84405BD
:10235300F5C653BEFC1220747401652160E4EEA23D
:10236300E092AF7F010218B9008E238F2485822863
:10237300858327851882851983E0CEA3E0CF85283E
:1023830082852783EBC9EAC8EDCBECCA75F010C38D
:10239300E833C8E933C9EA33CAEB33CBC3EA9EF562
:1023A30026EB9FF525B35004AB25AA26EC33CCEDE1
:1023B30033CDD5F0DAAE23AF242274ED12180D8A93
:1023C300088B098C0A8D0B741312177D780C121568
:1023D300E97808790C1213E97510017511C87512A3
:1023E3000075130050127808790C1215887810794B
:1023F300081213E950168010780C790812158878A2
:1024030010790C1213E940047901800279007F0CE2
:102413000218B974ED12180D8A088B098C0A8D0BFA
:10242300741312177D780C1215E9780C79081213BE
:10243300E940117808790C121588AA08AB09AC0A8F
:10244300AD0B802275100075110075120075130114
:102453007810790C1215887810790812154FAA1084
:10246300AB11AC12AD1380A68A828B837508FF75FE
:1024730009FF750AFF750B0078081215D67F040251
:1024830018B974F512180D8C828D8378081215E92A
:102493008A828B83780812159CEA2404F8EB3400B3
:1024A300F98C828D83A3A3A3A3E0FCA3E0FD888220
:1024B3008983C3E09CF0A3E09DF088828983C3E015
:1024C3009420A3E0944E40268A828B837508FF757F
:1024D30009FF750AFF750BFF78081215758A828B41
:1024E30083A3A3A3A3E02420F0A3E0344EF00224AB
:1024F3006B74F512180DE9FE9004F7E0FAA3E0FB04
:10250300EEC333F8E433F9746928F582748439F53A
:1025130083E02AF508A3E03BF50978081219B47A99
:10252300407B427C0F7D0012236C74021217478A92
:10253300088B098C0A8D0B74107808121517AA08DA
:10254300AB097F040218B974F112180D8A0C8B0DB4
:102553008C0E8D0F740F12177DE0FAA3E0FB74113C
:1025630012177DE0F508A3E0F50978081219B4EA1B
:102573002401F508EB3400F509E4F50AF50B780CB2
:102583007908121428750871750902780C790812F4
:102593001428AA0CAB0DAC0EAD0F12236C740212EF
:1025A30017478B09EA450960047A0180027A00EC37
:1025B3002AFCED3400FD741312177DE0F8A3E0F953
:1025C300E8FEE9FFECF8EDF97A717B021216A688B2
:1025D3000889098E828F8378081215F8ECF8EDF9D3
:1025E3007A717B021216A68A088B09740578081281
:1025F300171E8E828F83A3A3A3A3E508F0A3E50987
:10260300F07F080218B9C082C083E9906000F0D05F
:1026130083D08222C2AF02000022C0E074F21218FB
:10262300F9A2AFE433FED2AFC2C0E5D1A2E45006B3
:1026330053D1EF121224EEA2E092AF7F0102195898
:10264300C0E074F21218F9A2AFE433FED2AFE58909
:10265300A2E15003121194758900C2C5EEA2E09263
:10266300AF7F01021958C0E074F21218F9A2AFE467
:1026730033FED2AFE58BA2E05003121194758B00A9
:10268300C2E880D8C0E0C0D0E8C0E0E9C0E0E5A877
:10269300D2AFC2C7A2E7A2E792AFD0E0F9D0E0F889
:1026A300D0D0D0E032C0E0C0D0E8C0E0E9C0E0C0A4
:1026B30008C009C082C083A2AFE433F9D2AF900946
:1026C300D3E0F8A3E0687008539AFBA37401802554
:1026D300C2E99009D3E0F50874012508F074532585
:1026E30008F582E43409F583E0F5C19009D3E0C32A
:1026F30094804002E4F0E9A2E092AFD083D082D08C
:1027030009D008D0E0F9D0E0F8D0D0D0E03202010F
:102713001FFFFFFFFFFFFFFFFFC082C083E9900E93
:1027230086F002294674F71217A1E99002E1F07CC2
:10273300197D037AFF7BFF1207F89002E274FFF022
:10274300A3F0A3E4F0A3F079051207869002E1E079
:10275300F91206A87A107B081209C67F01021873C2
:1027630074F41217A18A088B09EB5480603090022D
:10277300E1E0F9120FA28A0A8B0BAE0AAF0BEE4F00
:1027830060138E828F83E064B07003120798EEFAB1
:10279300EFFB120F90AA08E5096480FB80047A001E
:1027A3007B0002291574F21217A174FC121731EA87
:1027B300FEEBFFEE4F6038740212177DEEF0A3EFCD
:1027C300122B7AECF0A3ED122B7AAA82AB831206BA
:1027D300A2E9F5087073741212177D12372EE50AF9
:1027E300450B60658E828F83122856EE4F700575F8
:1027F300080280557A067B0012100E8A0C8B0DA8F6
:102803000CA90DE8497005750813803D88828983FA
:10281300E4122860A3A3EEF0A3EF123BC7E50AF08E
:10282300A3E50BF09002E71228E89002E76017E0B7
:10283300FCA3E08003EAFCEBFD8C828D831228E885
:1028430070F38C828D83123653A9087404121747D0
:10285300023DC9A3A3A3A3E0FEA3E0FF22F0A3F0DC
:10286300888289832274F21217A1890AE975F01705
:10287300A4FEAFF09002E6E4F09002E41228E860D0
:102883000A1210149002E4E4F0A3F0EEFAEFFB1244
:10289300100E8A088B09EA4509602FEEFCEFFD79DB
:1028A30000120F7E9002E4E508F0A3E509F07B0037
:1028B30080081228D2E4F0A3F00BEBC3950A40F290
:1028C300E50A9002E6F0790080027913023DC9EB34
:1028D30075F017A4F8A9F09002E4E028FAA3E03910
:1028E3008A82F583221233E9EA4B2274F41217A188
:1028F3007900EAA2E0501B750880750985780812F3
:1029030019B47C047D007A887B0E1207807402124E
:1029130017477F04021873C082C0839002E712290D
:102923004D601C88828983A3A3E06A7003A3E06BD4
:102933008882898370E8A3A3A3A31233E580047A72
:10294300007B00D083D08202011F123E9CE8492203
:1029530074EE1217A174FC121731EAFEEBFF85180F
:1029630082851983E4F0A3F0EE2402123637EE24B5
:1029730005122B68EE2404F50EEF122F4DE024FE12
:10298300603924FC604624FE605224FE605E24FE0F
:102993007003022A6D24FE7003022AE524FE7003ED
:1029A300022AF424FE7003022B0324FC7003022B7F
:1029B3001224FE7003022B21022B5E900300741776
:1029C300F0A3E4122B82120420022B5E8518828569
:1029D3001983AC82AD8312079E022B2E8518828544
:1029E3001983AC82AD831207A4022B2E850C0885B4
:1029F3000D09740212177DAC82AD838508828509A7
:102A0300831233E51206C68A0C8B0DAC0CAD0DECAC
:102A13004D6042E4F50CF50D780C1219B4750C00F9
:102A2300750D03780C1219B4750C01750D03780C30
:102A33001219B4740812177D1219CB79161233DFE9
:102A43001207E07408121747E9F50C700B1233DB19
:102A5300120438800F750C01850882850983122BB7
:102A630070123653850C08022B31740212177DAC99
:102A730082AD83850C82850D831233E51206C68AE7
:102A8300108B11AC10AD11EC4D6043850C82850D9C
:102A930083A3A31219CB75100075110378101219B3
:102AA300B475100175110378101219B47408121754
:102AB3007D1219CB79161233DF1207E0740812174F
:102AC30047E9F509700B1233DB12043E800F7509D9
:102AD30001850C82850D83122B70123653850908EC
:102AE300804C851882851983AC82AD831207AA8036
:102AF3003A851882851983AC82AD831207B0802B87
:102B0300851882851983AC82AD831207B6801C8534
:102B13001882851983AC82AD831207BC800D85189A
:102B230082851983AC82AD831207C2E9F508E508F3
:102B330060298E828F83A3E06414601F850E8285D3
:102B43000F83E0900300122B7A123E989003011238
:102B53003653E508A3122B8212041AEEFAEFFB1286
:102B6300074402353FF50CEF3400F50D22123E9C6D
:102B730085188285198322F085188285198322F0AE
:102B83007C007D03850A82850B831233E92274EE70
:102B93001217A174FC1217318A0A8B0B8C0E8D0F3E
:102BA300EA2405F508EB3400F5097C157D0079006E
:102BB3007A007B03120F7EE5082402F50CE5091267
:102BC3002B6B851882851983858210858311781074
:102BD3001219B4850882850983A3A3A3A312309590
:102BE3001219B4E5082405F510E5093400F5117848
:102BF300101219B4850C82850D831233EF1206C0AF
:102C030074061217478A108B11AE10AF11E50A2410
:102C130002F50AE50B12363AEE4F7003022D578088
:102C230017740212177D1233E588828983EAF0A3B1
:102C3300EBF0900300E004F0900300E0C394054040
:102C430003022D57E4F510F51178101219B475101D
:102C5300E975110278101219B47510EA751102782A
:102C6300101219B4740612177D1219CB7910EEFCE9
:102C7300EFFD1233DF1207E07408121747E9705EA5
:102C8300850882850983A3A3A3A3A3A3A3E0F89044
:102C930002E9E06870481230951219B47CEA7D02AB
:102CA300E5082408FAE5093400FB120F78740212D0
:102CB3001747E960298E828F83A3A3A3A31233E569
:102CC300900300E0F5107402781012171E740125AA
:102CD30010F58274033511F583EAF0A3EBF0740267
:102CE30012177D85821085831178101219B474022E
:102CF30012177D1219CB850C82850D83123EAD12FE
:102D030006CC74041217478A108B11AE10AF1190C2
:102D13000300E0F5107511007402781012171E7489
:102D2300002510F874033511F988828983A31228CA
:102D3300E87003022C1BE82403F8E93400F9EE4F92
:102D43006003022C248882898374FFF0A3F090032C
:102D530000E004F0900300E0600A1233DB12042C5D
:102D63007900800B85088285098312364A790A0225
:102D7300353F74EA1217A174FE1217318C128D13AA
:102D8300EA2405F50CEB123EB712285A75080075B4
:102D93000900EA2402F510EB3400F5118518828549
:102DA300198385820A85830B780A1219B4850C82EC
:102DB300850D83A3A3A3A3122F571219B4E50C24E3
:102DC30005F50AE50D12363A780A1219B4850C8214
:102DD300850D83123EAB1206C074061217478A0A8A
:102DE3008B0BEA450B7003022F08EA2404F50EEB64
:102DF300122F4D12285A8A828B83A3A3A3E0F9854D
:102E030010828511831233E51206AEE9F5096003DA
:102E1300022F08E4F514F51578141219B47514E9A2
:102E230075150278141219B47514EA75150278141D
:102E33001219B4740612177D1219CB7913AC0AADAB
:102E43000B8510828511831233E51207E074081293
:102E53001747E9F5096003022F089002E9E0F8E556
:102E6300087009E02402900301F08017900301E049
:102E7300FCE82402FAE43400FBEA6C7001EB600323
:102E8300022F0C850882AA8212308C94141230848B
:102E93005073850E82850F83E0C0E074022A122FDF
:102EA30044D0E0F00508850E82850F83A3E0C0E0DF
:102EB30085080A7402250A122F44D0E0F005089011
:102EC30002E9122F571219B47CEA7D0285080A74AD
:102ED30002250AFA74033400FB120F6674021217F8
:102EE300479002E9E02508F50874FF6E700374FF4C
:102EF3006F6012EE24010EEF3400FFE508C3941453
:102F03005003022D9FE50860131232D0851082858D
:102F130011831233E512043279008014E50970033A
:102F230075090A851282851383EEF0A3EFF0A909D0
:102F330074021217477F0E02187385080C7402255A
:102F43000CF58274033400F583223400F50F850EEB
:102F530082F58322123BDA2274EE1217A174FE1259
:102F630017318C0E8D0FEA2405F50CEB122B6B75C4
:102F73000B00900300E4F0F50AEA2402F508EB34B1
:102F830000F5098049900300E0FA9002E9E0F812A5
:102F9300308C9417123084400D900300E0F87416BF
:102FA300C3989002E9F01230951219B47CEA7D02BD
:102FB30074012AFA74033400FB120F6674021217A9
:102FC300479002E9E0F8900300E028F0050AE50CD9
:102FD3002416F582E50D122F48E0F8E50AC3984060
:102FE3000302306D900300E0C39416507DE50AC3DD
:102FF30033F8E433F9E50C28FEE50D39FF85188233
:10300300851983AC82AD838E828F831233E51206DA
:10301300C68A108B11AC10AD11EC4D7005750B0108
:103023008043E4F510F51178101219B47510E975A1
:10303300110278101219B47510EA75110278101282
:1030430019B4740612177D1219CB79168508828577
:1030530009831233E51207E07408121747E9F50BE9
:103063007003022F8812364680107C007D0385088A
:10307300828509831233E5120444A90B74020235D5
:1030830041E99400C365D03322EA28F8E43400F917
:10309300E822E0F51075110078102274EA1217A1E6
:1030A30074FC1217318A0C8B0D8C128D13EA2405D4
:1030B300F50AEB12363A750800750900E50A240291
:1030C300F510E50B3400F511740212177D85820E9D
:1030D30085830F780E1219B4850A82850B83A3A307
:1030E300A3A3123B861219B4E50A2405F50EE50BDA
:1030F3003400F50F780E1219B485108285118312EE
:1031030036401233DF1206C074061217478A0E8B3D
:103113000FAE0EAF0FE50C2402F50EE50D3400F5EE
:103123000F80408882898374FFF00508122F3D7455
:10313300FFF005089002E9E0F50C750D00780C121C
:1031430019B47CEA7D0285080C7402250CFA740319
:103153003400FB120F6674021217479002E9E02550
:1031630008F508EE4F60718E828F83A3A3A3E0F965
:10317300850E82850F831233E51206AEE9F509EE5B
:103183002404122B68E97044E4F514F5157814123D
:1031930019B47514E975150278141219B47514EA83
:1031A30075150278141219B4740812177D1219CB0D
:1031B3007911EEFCEFFD850E82850F831233E51244
:1031C30007E07408121747E9F5096027850C828523
:1031D3000D831232C6123653E50870030232AC1265
:1031E30032D0850E82850F831233E512044A7900AB
:1031F3000232C1850882AA82EA9002E97009E024BA
:1032030004900301F08022E0F8900301E0F514E854
:103213002404FCE43400FDEC65147001ED70C0126D
:10322300308C941212308450B6850C82850D83E065
:10323300C0E074022A122F44D0E0F00508850C8206
:10324300850D83A3E0C0E0122F3DD0E01232E2856A
:10325300820C85830D780C1219B4740412177D1235
:1032630019CB851082851183123EAD1206CC7404EE
:103273001217478A0C8B0DAE0CAF0D85080C740228
:10328300250CF874033400F9EE4F700302312685E0
:103293001882851983E0888289831232E2A3E0C011
:1032A300E0122F3DD0E0023134E509700375090ABD
:1032B300850A82850B831232C6123653A909740418
:1032C300022F35123E9C85128285138322900301BF
:1032D300E0F5F0E50884900300F07C007D0322F024
:1032E30005088518828519832274EC1217A174FED0
:1032F3001217318A088B098C0E8D0FEA2405FEEB19
:103303003400FF851882851983AC82AD838E828F4A
:10331300831233E51206C68A0A8B0BEE2418122B8E
:1033230068EA450B70030233B6123528503285180C
:10333300828519831233E51207D48A108B11EA456B
:1033430011606B7912AC0AAD0B8508828509831273
:1033530033E585108285118312179FE9F50A7058AA
:10336300E4F50AF50B780A1219B48E828F83A3A3AE
:10337300E0F50A780A1219B4EE2403123637780AF4
:103383001219B48E828F831233EF1207E67406127A
:103393001747E9F50A7021850C82850D83E0701FBC
:1033A3008508828509831233E51204508011750A5A
:1033B3000E8009750A018004E50A6003123646850A
:1033C3000C82850D83E0600479008002A90A7402EF
:1033D3001217477F0C0218737C007D03850A8285D0
:1033E3000B831233E922E0FAA3E0FB22E0FCA3E023
:1033F300FD8508828509831233E92274EE1217A131
:1034030074FE1217318A088B098C0C8D0DEA240582
:10341300FEEB3400FF750E00851882851983AC829C
:10342300AD838E828F831233E51206C68A0A8B0B15
:10343300EA450B700302351412352850358518827E
:103443008519831233E51207D48A0E8B0FEA450FD1
:10345300605E7912AC0AAD0B85088285098312334D
:10346300E5850E82850F8312179FE9F50E6003022F
:10347300351785088285098312372EAA0AFB12079E
:10348300C88A108B11A810A911E849701E7AFF7B16
:10349300FF1207C88A108B11A810A911E849606CA4
:1034A30088828983E50AF0A3E50BF0750A0080079B
:1034B300750E0E805F050A9002E6E0FAE50AC39AEC
:1034C300504AE50A75F017A4FAABF088828983A302
:1034D300A3E02AFAA3E03BFB8A828B83123640ECFB
:1034E3004D70D2750A17750B00780A1219B4EEFCE9
:1034F300EFFD120F667402121747EEFCEFFD85080D
:10350300828509831233E51204568014750E0980EF
:1035130003750E01123E94850C82850D831236537A
:10352300A90E02307FE5082402F508E5093400F509
:10353300098A828B83A3A3A3E0A2E5227404121752
:10354300477F0A02187374EC1217A18C108D11EACD
:103553002405F50CEB122B6B750F00EA2402F50A18
:10356300EB12363A850A82F5831233E51207C88ACD
:10357300088B09EA4509700302362C750E00807129
:10358300850C82850D83E06401704F8E828F83A347
:10359300A31219CB8E828F83A3A3A3A3E0F5127585
:1035A300130078121219B4EE2405F512EF3400F566
:1035B3001378121219B41233DF1207E674061217C6
:1035C30047E9F50F6014850C82850D83E4F0123E04
:1035D300948510828511831236537C177D00790000
:1035E300EEFAEFFB120F7E8E828F83E4F0A3F005D9
:1035F3000E9002E6E0F8E50EC398501EE50E75F056
:1036030017A4F8A9F0850882850983A3A3123EC1F4
:10361300123640EC4D6003023583850882850983A9
:1036230074FFF0A3F0E50F70061233DF12045CA9F8
:103633000F0233D6F50AEF3400F50B22A3E0FCA307
:10364300E0FD228E828F83123E9C850E82850F833E
:10365300E8F0A3E9F022C082C0839002E2E06A703E
:1036630003A3E06B70067AE27B0280047A007B009E
:10367300022946C082C08378008C828D83E06A7001
:1036830003A3E06B7010E875F003A4F8A9F0EC282D
:10369300FAED39FB8015088C828D83A3A3A3E06A1E
:1036A3007003A3E06B60DF7A007B0002294674F6A7
:1036B3001217A11207928A828B83E58245837006D3
:1036C3007A007B008007A3A3A3A31233E5023D4541
:1036D30074F21217A1E9FE740E12177D12372E74BD
:1036E3001012177D123BA68C828D83E06402703624
:1036F300A3123EA2F50CA3E0F9A80C7402687003B0
:103703007429697021750C02750D00780C1219B4B7
:1037130078081219B4780A1219B4EEF912080A7467
:103723000612174780027901023DC9E0F50AA3E0BA
:10373300F50B2274E81217A174FB121731E98518EF
:1037430082851983F08A168B17ECFEEDFF75100046
:10375300741D12177D123E98741D12177D12365375
:103763008E828F83A3A3A3E0A2E4502D741D1217AE
:103773007D1233E51207D48A828B83E582458370F9
:1037830003023B77790AEEFCEFFDAA16AB1712177B
:103793009FE9F5106003023B7A741F12177D123BF9
:1037A300A6742112177D12372E742312177DE0F5AC
:1037B3000EA3E0F50F8E828F83E064026003023B69
:1037C30025A3123E98850882850983A385821285E5
:1037D3008313EE2406122B6888828983E0FAA3E020
:1037E300F9EA2400F514E439F5157814121A3E01A8
:1037F30000002801281A3807000228DF3803284C64
:10380300380029163A0129413A0229E239032916D7
:103813003A0429C03A253BE50E450F6003023B20DD
:10382300850C82850D83123B9BFAE9FB8A828B838D
:10383300E0850A82850B83123BD11219B48A828BED
:1038430083A3E0FCA3E0023AAAE50E450F6003025E
:103853003B20850A82850B837401F0123BAE8508F9
:1038630082850983F07C007D008E828F83A3A3A3CE
:10387300A3E02401FAA3E03400FB1206C6EA4B607E
:10388300418A828B83E02402F8850A82850B83E0D8
:1038930028F0EA2404F8EB3400F988828983E08570
:1038A3001282851383123BE3123BD11219B48A822D
:1038B3008B8312363FE5082403FAE5093400FB0243
:1038C3003AAF850A82850B83E02404F07C047D00F3
:1038D3007900AA12AB13120F7E023B7AE50E450F55
:1038E3006003023B20123BAEFEA3E0FF850A828504
:1038F3000B837404F0EE850882850983F0EF85124B
:1039030082851383F0740312177DAC82AD83EEFAC4
:10391300EFFB1206C68A0C8B0DEA450D70030239C4
:10392300C38A828B83A3A3122856740112177D8541
:10393300820E85830F780E1219B4740512177D1247
:1039430019CB7CFF7DFF1206CC74041217478B0F33
:10395300EA450F7033850C82850D83123B8612195D
:10396300B4850C82850D83A31219CB7C027D007A6A
:10397300FF7B851204F87404121747E9700A740177
:1039830012177D74FFF0A3F08E828F83E0640270C0
:1039930039750C02750D00780C1219B48E828F8361
:1039A30012363FE5082404FAE5093400FB120F66DA
:1039B3007402121747850A82850B83E0240280096B
:1039C300740112177DEEF0A3EFF0740112177D124C
:1039D3003B97F0740112177DA3123B8F023B1AE54C
:1039E3000E450F6003023B20850C82850D83123642
:1039F30040AA16AB171207FE850A82850B83740251
:103A0300F0EA850882850983F0851282851383EBAA
:103A1300023B1DE50E450F6003023B20123BAEF84F
:103A2300A3E0F9850A82850B837402F0E885088296
:103A3300850983F0E9851282851383023B1D850C7A
:103A430082850D831233E5120F60EAFC8C82A88213
:103A5300C3950EE4950F405FE8650E7002E50F70A5
:103A6300047C008022851882851983E0FAE50E2AFA
:103A7300FAE50F3400FBC3EA98EB94005003E080AF
:103A830005E50ECCC39CFCEC850A82850B83F08C88
:103A93000A750B00780A1219B4850C82850D83E030
:103AA300250EFCA3E0350FFDAA08AB09120F6674BF
:103AB30002121747023B7A751007023B7AE50E455F
:103AC3000F705A850C82850D83123E98850A828574
:103AD3000B837407122862123B8F122862A3E085BE
:103AE3001282851383F0E82402FAE93400FB8A8208
:103AF3008B83123B8F123BBE123B97A3123BC71221
:103B03003BA0F0E82405F8E93400F98882898312A0
:103B13003BA0A3123BE3A3A3A3A3F0805A75100B0E
:103B23008055741D12177D1233E51207928A828B1A
:103B330083E5824583603D123E98880C890DE845F4
:103B43000D6031780E1219B4780A1219B47808127C
:103B530019B4740612177DE0F9EEFCEFFDAA16AB5B
:103B630017850C82850D8312179F7406121747E978
:103B7300F510800375100EA91074051217477F10F6
:103B8300021873E0F50E750F00780E22E0850882A7
:103B930085098322123BED22123E9CE822123BED63
:103BA300A3A322E0F508A3E0F50922850C82850D85
:103BB30083E0F8A3E0F5838882E022A3A3F08A825E
:103BC3008B83A322F088828983A3A3A3A322F08AF1
:103BD300828B83123BDA22E0F50A750B00780A2206
:103BE300F088828983A3123BED22E0850882850950
:103BF30083A3A32274EE1217A174FE1217318A0A4B
:103C03008B0BECFAEDFB741412177DE0F510A3E0B7
:103C1300F511741612177DE0FE741812177DE0F586
:103C23000EA3E0F50F851882851983AC82AD83124C
:103C330006C68A0C8B0DEA450D60498518828519E5
:103C4300831233E51207928A828B83E58245836070
:103C53002FA3A3123BA6E50845096024780E121989
:103C6300B478101219B4EEF9AC0CAD0DAA0AAB0B73
:103C730085088285098312179F74041217478006EB
:103C8300790E8002790102307F74F61217A174FE57
:103C9300121731740C12177D123B9B8518828519FC
:103CA30083F0740112177DE9F0E4F508F50978084B
:103CB3001219B475080278081219B4740412177D26
:103CC30085820885830978081219B41207E67406F9
:103CD3001217477402121747806874F71217A1EA84
:103CE300FEEBFF89087C197D031207FEEA5402608C
:103CF3000BA908EEFAEFFB1206BA8002790102273C
:103D03005E74F61217A174FF6A700374FF6B70166A
:103D13008C828D83123D4AE4F08C828D83A3A3A30E
:103D2300123D4AA380181207CE8A088B09A808A956
:103D330009E849600D8882898374FF122860A3A370
:103D4300E4F07F0202187374FFF0A3F08C828D837A
:103D5300A3A32274F61217A11207CE8A828B83E5DE
:103D63008245836006A3A3E0FA80027A007B008089
:103D7300D174F21217A18A088B09ECFEEDFF740EC1
:103D830012177DE0F50A1207CE8A0C8B0DA80CA939
:103D93000DE8497026EEFCEFFD7AFF7BFF1207CE9C
:103DA3008A0C8B0DA80CA90DE849700479118016B3
:103DB30088828983E508F0A3E509F088828983A3D3
:103DC300A3E50AF079007F0602187374EE1217A1B7
:103DD300EAFEEBFF8C088D09890C741412177D120F
:103DE3003E98741612177D1233E5750D00E849608D
:103DF30003023E8C7402650C6003023E8774121248
:103E0300177D123EA2FCA3E0F9EC2400F50EE43981
:103E1300F50FEAF4F8EBF4F9EC58F8E50F59F9E883
:103E230049705CE5082406F8ED3400F9880A890B2B
:103E33008882F583123EAD1207FE8A108B11E50EC0
:103E430065107004E50F65116042780E1219B48590
:103E53000A82850B83123EAD1208047402121747BF
:103E6300E9F50D7027780E1219B485088285098348
:103E7300A3A3123EAB1208167402121747800D75E6
:103E83000D808008750D0D8003750D0BA90D02358E
:103E9300448E828F83123E9C22E0F8A3E0F9221223
:103EA3003E9C88828983E022A3A3E0FCA3E0FDEE8D
:103EB300FAEFFB223400F50D850C82F58322E0280E
:103EC300FEA3E039FF8E828F832274F21217A1EAD8
:103ED300FEEBFF890B7401650B600E7402650B70BA
:103EE3006A79011209E4E97062EEFAEFFB1207C87E
:103EF3008A088B09EA45096047750A00800B7C171D
:103F03007D007900120F7E050A9002E6E0F8E50ACB
:103F1300C3985021E50A75F017A4F8A9F085088223
:103F2300850983A3A3E028FAA3E039FB8A828B8364
:103F330012294D70C985088285098374FFF0A3F0A7
:103F43007C197D03EEFAEFFB1207F8023DC974F208
:103F53001217A18A088B09ECFEEDFF740E12177D70
:103F630012372E900E86E0F4603D7A097B00120F23
:103F73008AEA4B60328A828B8374B1F0A3E4123BEA
:103F8300C0A3123BBEA3E508F0A3E509123FADEEC3
:103F9300F0A3EF123FADA3A3E50AF0A3E50BF09066
:103FA3000E86E0F9120F96023DC9F08A828B83A335
:103FB300A3A3A3A322C082C0839061907404F0A33F
:103FC3007448F0A37402F09061807440F09061BC77
:103FD3007403F09061877419F0906265741BF0901C
:103FE3006249E0C3941390619C400A7409F09060A5
:103FF3006674018007740DF0906066E4F090619A36
:104003007433F0A37455F09061A0743AF090053FB7
:10401300E064017009C2919003A674678005900360
:10402300A67461F090271AE493906186F0902714A8
:10403300E493F46027E493540FF8906185E068609B
:1040430012E5C654804449F5C6E59E547F64497021
:10405300F8E8F053C680E59E547F70FA7905120D97
:104063004A02420AC082C083E5A8F853A87E906141
:1040730081E4F0A3F0A3F0C2BA539AFEC289759B00
:1040830000C2C275E90075910075BF0075A911756D
:10409300B905906181F0A374C0F0A3E4F0D2BA43F0
:1040A3009A0174805842A802420AC082C08374F8FD
:1040B3001217319003A4E0F8A3E0F9E84970030272
:1040C30041DB9003A4E0544060237908851882857E
:1040D3001983AA82AB83120BB8851882851983AA28
:1040E30082AB831208949003A4E054BFF0E05480A1
:1040F3006010790C7A657B05120BB89003A4E05429
:104103007FF0E0A2E0503190619A7433F0A37455CC
:10411300F09061A0743AF090053FE064017009C229
:10412300919003A6746780059003A67461F012084A
:104133009A9003A4E054FEF0E05402603190619A37
:10414300743FF0A3745AF09061A0747FF090053F20
:10415300E064017009D2919003A674718005900305
:10416300A6746AF012089A9003A4E054FDF0E05498
:10417300046013902718E493906186F01208A090CE
:1041830003A4E054FBF0E054086013902719E49370
:10419300906186F01208A09003A4E054F7F0E05475
:1041A30010601390271AE493906186F01208A09090
:1041B30003A4E054EFF0E05420600A1208A0900337
:1041C300A4E054DFF0A3E05401600D120AE01208EA
:1041D300A69003A5E054FEF0740812174702420AA2
:1041E300C082C083E9600814600A14600C801390D5
:1041F30027188008902719800390271AE493906169
:1042030086F08003F0A3F0D083D08202011F74EC08
:104213001217A174F4121731851882851983AC82A1
:10422300AD837583857582CE740412164490271866
:1042330093F4600302439D907808E0C39402500313
:1042430002437D740412177DAC82AD83758385753B
:104253008262740812164485188285198385821236
:10426300858313740412177DAC82AD83750EFF75BD
:104273000FFF7FFF7E00750C48750D78801574085D
:104283006E700302431174096E7003024311740AC2
:104293006E607B850C82850D8378081215E98C820C
:1042A3008D83A909E50AC9F88810741878081215CE
:1042B30017E5104508F8C3E098A3E099850C8285BB
:1042C3000D8378081215E940188C828D8374187851
:1042D30008121517E5104508F8E0C398F8A3E08025
:1042E3001C74187808121517E5104508FAE9FB8CB9
:1042F300828D83E0F8A3E0F9EAC398F8EB99F9C358
:10430300E8950EE9950F5006880E890FEEFF0EE52E
:104313000C2404F50CE50D3400F50DEEC394135095
:104323000302428174FF650E700474FF650F6023FE
:104333008F087402780812171E74482508F58274D2
:10434300783509F58378081215E985128285138378
:10435300E508F0EC2402FCED3400FD8512828513A0
:1043630083A3858212858313740C12177DE5826CF7
:104373007003E5836D600302426F750801750900E0
:1043830078081219B4740212177DAC82AD837AC611
:104393007B091211707402121747740C1217477FAE
:1043A3000C021873C082C0839061AE7468F0A3746A
:1043B3006AF090624574FBF0A304F053F4FD43FEEE
:1043C3000290053F7401F09061A0E0643A90619A15
:1043D30070237433F0A37455F09061A0743AF074B1
:1043E3000164017009C2919003A674678028900349
:1043F300A674618021743FF0A3745AF09061A07495
:104403007FF0740164017009D2919003A6747180E6
:10441300059003A6746A0242097F08021873C082DA
:10442300C0839004F1E06401700A9004F6E0600434
:10443300790C8002790002420AC082C08375E1F1DF
:104443009004F4E0605B14600914605F1460571417
:10445300705E120AF29004EAE0F97AEB7B04120C24
:10446300CC7AD67BBE7C897D8E120D027A557B5524
:104473007C557D00120CD89004F5E0F9120CE47918
:1044830001120D3E9004E8E0F8A3E0C82416F5827B
:10449300E83400F583740AF0A3740BF07900024248
:1044A3000A120AF880AF120AFE80AA120B0480A532
:1044B300791280EA74F01217A175D90D9004D5E032
:1044C300A2E0E4331313F89004EAE0C4333354C096
:1044D300484401F5D978E8790488828983A3A3A3A2
:1044E300E0F5D988828983A3A882A983E864EE7062
:1044F30003E9640470E378D5790488828983A3E0AF
:10450300F5D988828983A3A882A983E864DB700331
:10451300E9640470E575E1959004D5E0F97AD67BFA
:1045230004120CD2900EA8749EF0A3740AF0A37424
:1045330006F0A3740CF0A37406F0A3740CF0A37438
:1045430006F0A3740CF0A374A4F0A3740AF0A3748C
:1045530006F0A3740CF0A374BCF0A3740AF0900EDD
:10456300B67406F0A3740CF0A37406F0A3740CF0F5
:10457300A37406F0A3740CF0A37406F0A3740CF0F8
:10458300A37406F0A3740CF0A37406F0A3740CF0E8
:104593009004F4E064019004E87012E0F8A3E0F5FD
:1045A300838882A3A37508007509088010E0F8A327
:1045B300E0F5838882A3A3750804750900750A00D2
:1045C300750B007808121562750CFF750DFF750EDB
:1045D300FF750F007808790C1215B09004E8E0F825
:1045E300A3E0C8240EF582E83400F5837808121599
:1045F300F89004E8E0F8A3E0C82414F582E8340056
:10460300F5837413F09003A27402F002441C74F750
:104613001217A19004FAE02407F5D99004EAE0C444
:10462300333354C0F5D978E8790488828983A3A306
:10463300A3E0F5D988828983A3A882A983E864EEDD
:104643007003E9640470E39004FAE0601F78E8798A
:1046530004FAE82413F582E93400F583E0F5D988F8
:10466300828983A3A882A9831AEA70E690051AE0D7
:104673002407F5D99004EAE0C4333354C04404F565
:10468300D978E8790488828983A3A3A3E0F5D9883C
:10469300828983A3A882A983E864EE7003E9640492
:1046A30070E390051AE0601F78E87904FAE8243390
:1046B300F582E93400F583E0F5D988828983A3A8DC
:1046C30082A9831AEA70E675E195900EA874AAF0A0
:1046D300A3740AF0A37406F0A3740CF0A37406F099
:1046E300A3740CF0A37406F0A3740CF0A374A4F0E9
:1046F300A3740AF0A37406F0A3740CF0A374BCF0C3
:10470300A3740AF0900EB67406F0A3740CF0A374AD
:1047130006F0A3740CF0A37406F0A3740CF0A37456
:1047230006F0A3740CF0A37406F0A3740CF0A37446
:1047330006F0A3740CF09004E8E0F8A3E0C8240E9C
:10474300F582E83400F58374FFF0A3F0A3F0A3F03F
:104753009004E8E0F8A3E0C82414F582E83400F5F7
:10476300837412F09003A27401F0FF02187374F7BC
:104773001217A19004FAE02407F5D99004EAE0C4E3
:10478300333354C04402F5D978E8790488828983A5
:10479300A3A3A3E0F5D988828983A3A882A983E888
:1047A30064EE7003E9640470E39004FAE0601F7838
:1047B300E87904FAE82413F582E93400F583E0F597
:1047C300D988828983A3A882A9831AEA70E675E14E
:1047D30095900EA874B6F0A3740AF0A374B6F0A370
:1047E300740AF0A374B6F0A3740AF0A374B6F0A32A
:1047F300740AF0A374B6F0A3740AF0A374B6F0A31A
:10480300740AF0A374BCF0A3740AF0900EB6740695
:10481300F0A3740CF0A37406F0A3740CF0A3740655
:10482300F0A3740CF0A37406F0A3740CF0A3740645
:10483300F0A3740CF0A37406F0A3740CF09004E8D6
:10484300E0F8A3E0C8240EF582E83400F58374FF92
:10485300F0A3F0A3F0A3F09004E8E0F8A3E0C824E9
:1048630014F582E83400F5837414F09003A2740401
:10487300F0024B3874F71217A19004FAE02407F5FD
:10488300D99004EAE0C4333354C04406F5D978E838
:10489300790488828983A3A3A3E0F5D988828983D5
:1048A300A3A882A983E864EE7003E9640470E3902B
:1048B30004FAE0601F78E87904FAE82413F582E942
:1048C3003400F583E0F5D988828983A3A882A9837C
:1048D3001AEA70E690051AE02407F5D99004EAE095
:1048E300C4333354C04404F5D978E8790488828901
:1048F30083A3A3A3E0F5D988828983A3A882A9838C
:10490300E864EE7003E9640470E390051AE0601F45
:1049130078E87904FAE82433F582E93400F583E092
:10492300F5D988828983A3A882A9831AEA70E675D8
:10493300E195900EA874B0F0A3740AF0A37406F086
:10494300A3740CF0A37406F0A3740CF0A37406F024
:10495300A3740CF0A37406F0A3740CF0A37406F014
:10496300A3740CF0A374BCF0A3740AF0900EB67495
:1049730006F0A3740CF0A37406F0A3740CF0A374F4
:1049830006F0A3740CF0A37406F0A3740CF0A374E4
:1049930006F0A3740CF0A37406F0A3740CF0900457
:1049A300E8E0F8A3E0C8240EF582E83400F5837448
:1049B300FFF0A3F0A3F0A3F09004E8E0F8A3E0C8AD
:1049C3002414F582E83400F5837415F09003A2747F
:1049D30003F0024B38C082C0839004E8E0F8A3E000
:1049E300C82406F582E83400F583E402420774F72D
:1049F3001217A19003D0E0F875F003A4C8AAF02A17
:104A0300F974D228F8740339F9E82405FAE9340073
:104A1300FB8A828B83E0FCA3E0FD88828983A3A3C6
:104A2300A3A3A3A3A3A3A3ECF0A3EDF0888289839C
:104A3300A3A3A3A3A3A3A3E024FFF8A3E034FFF954
:104A43008A828B83E8F0A3E9F0024B3874F71217DC
:104A5300A1EAFEEBFF9061D0E06003024B2C75D915
:104A63000E75D90375D904EE248BF582EF3400F566
:104A730083E5822408F8E5833400F9E0F5D9A3E857
:104A830065827003E9658370F2EE2483F582EF3467
:104A930000F583E5822404F8E5833400F9E0F5D9D1
:104AA300A3E865827003E9658370F275E19579087F
:104AB300EE248BFAEF3400FB120BAC7904EE248363
:104AC300FAEF3400FB120BAC7C00EEF8EFF9ECFAD2
:104AD300C3E49AFA95E0FBEE2AFAEF3BFBEA248A59
:104AE300F582EB3400F583E0C0E0E824AAF582E91F
:104AF3003400F583D0E0F00C88828983A3A882A9CF
:104B030083ECC3940840C7EE246FF582EF3400F5BD
:104B130083E0F8A3E0F9EE2471F582EF3400F58326
:104B2300E8F0A3E9F07901800279008008F0EEA2B1
:104B3300E092AF79007F01021873C082C08375D9F8
:104B43000275D90375D90575E195EA246FF582EBF2
:104B53003400F583E0F8A3E0F9EA2471F582EB343D
:104B630000F583E8F0A3E9F0790102420A74F61232
:104B730017A1EAFEEBFF9005457406F0750845752D
:104B8300090578081219B47C017903120BFA74022F
:104B930012174775D90675D903758245758305E0E4
:104BA300F5D9A3E582644A7004E583640570F07562
:104BB300E1959003A2E06408701EEE246FF582EF86
:104BC3003400F583E0F8A3E0F9EE2471F582EF34C5
:104BD30000F583E8F0A3E9F07901024E3E74F61282
:104BE30017A1EAFEEBFF9061D0E0706678019005B3
:104BF30045740BF09003A2E06407701975084575BE
:104C0300090578081219B47C017903120BFA7402AE
:104C13001217477805740128F5D975D903758245AC
:104C2300758305E8FAE0F5D9A31AEA70F875E195FA
:104C3300EE246FF582EF3400F583E0F8A3E0F9EE9C
:104C43002471F582EF3400F583E8F0A3E9F07901EC
:104C530080027900024E3E74F71217A1EAFEEBFFC1
:104C630075D90375D90375D90DEE24DDF582EF34BB
:104C730000F583E0F5D975E1957904120D08EE246A
:104C83006FF582EF3400F583E0F8A3E0F9EE2471C9
:104C9300F582EF3400F583E8F0A3E9F07901024BE4
:104CA3003874F61217A1EAFEEBFF9061D0E0F874B6
:104CB30080C398FAEE2482F582EF3400F583E06036
:104CC30004780480027800E8240BF8EAC3985003C0
:104CD300024D697D09900545EDF0EE24E2F8EF34CD
:104CE30000F97A467B057C0888828983E08A828B77
:104CF30083F088828983A3A882A9838A828B83A372
:104D0300AA82AB831CEC70E0EE2482F582EF3400C0
:104D1300F583E0601D75084575090578081219B417
:104D23007C097903EEFAEFFB120BFA7402121747B0
:104D33007D0D74012DF5D975D903758245758305EC
:104D43008D08E0F5D9A31508E50870F675E19579A6
:104D530004120D08EE241DF582EF3400F583E4F010
:104D6300A3F0790180027900024E3E74F61217A176
:104D7300EAFEEBFF9061D0E0F87480C398FAEE246A
:104D830082F582EF3400F583E060047804800278D2
:104D930000E82408F8EAC3985003024E3C780690D2
:104DA3000545740CF09003BFE0900546F09003C0F6
:104DB300E0900547F09003C1E0900548F09003C2EE
:104DC300E0900549F09003C3E090054AF0EE248299
:104DD300F582EF3400F583E0601B7508457509051E
:104DE30078081219B47C067903EEFA120BFA7402EE
:104DF300121747780A740128F5D975D903758245C6
:104E03007583058808E0F5D9A31508E50870F675DC
:104E1300E1957904120D08EE246FF582EF3400F565
:104E230083E0F8A3E0F9EE2471F582EF3400F58313
:104E3300E8F0A3E9F07901800279007F0202187398
:104E430074F61217A1EAFEEBFF9061D0E0F87480CC
:104E5300C398FAEE2482F582EF3400F583E0600410
:104E6300780480027800E82404F8EAC39850030227
:104E73004F1D7802900545E8F0EE24F4F582EF34F7
:104E830000F583E0900546F0EE2482F582EF3400CE
:104E9300F583E0601B75084575090578081219B498
:104EA3007C027903EEFA120BFA74021217477806A2
:104EB300740128F5D975D90375824575830588086A
:104EC300E0F5D9A31508E50870F675E195EE2473AE
:104ED300F582EF3400F583E4F0EE247FF582EF34BE
:104EE30000F583E4F0EE241DF582EF3400F583E44E
:104EF300F0A3F07904120D08EE240DF582EF3400CF
:104F0300F583E0F8A3E0F9EE2471F582EF3400F5C0
:104F130083E8F0A3E9F0790180027900024E3E7440
:104F2300F61217A19061D0E0F87480C398FCEA24CC
:104F330082F582EB3400F583E06004780480027824
:104F430000E82404F8ECC398405B790290054574AB
:104F530007F0EA24F5F582EB3400F583E09005468B
:104F6300F0EA2482F582EB3400F583E060187508DB
:104F73004575090578081219B47C0209120BFA74F5
:104F8300021217477906740129F5D975D903758279
:104F930045758305E9F8E0F5D9A318E870F875E1DC
:104FA30095790180027900024E3E74F51217A1E94A
:104FB300FCA2AFE433F50AC2AF7D0080010DEA2401
:104FC3006EF582EB3400F583E0F8EDC398501A8D4B
:104FD30008EA2508F8EB3400F9E8246AF582E93495
:104FE30000F583E06C70D68024EA246EF8EB34007D
:104FF300F9E0FEEA2EFAEB3400FBEA246AF582EBD1
:105003003400F583ECF088828983E004F0E50AA29A
:10501300E092AF7F0302187374F61217A1A2AFE4F4
:1050230033FDC2AFEA246EF582EB3400F583E0145E
:10503300F07C0060368C08EA2508F8EB3400F9E8C8
:10504300246BF582E93400F583E0C0E0E8246AF5D7
:1050530082E93400F583D0E0F00CEA246EF582EBAC
:105063003400F583E0F8ECC39840CAEA246DF58276
:10507300EB3400F58374FFF0EA2469F582EB340026
:10508300F583E4F0EDA2E092AF024E3EC082C0830E
:10509300E5A8F8C2AFEA246AF582EB3400F583E9A8
:1050A300F0EA2469F582EB3400F583E4F0E8A2E743
:1050B300A2E792AF02420A74F31217A1EAFEEBFFD2
:1050C300ECFAEDFB8A828B83A3A3A3A3E0541FF026
:1050D300EE2436F582EF3400F583E4F0F50AEEFCB6
:1050E300EFFD8A828B83E0C0E0EC245DF582ED3432
:1050F30000F583D0E0F0750B00E50A33333354F841
:10510300F50C8A828B83E0F508750900E50B7808B6
:105113001216FFE508A2E0502FEE2436F8EF340014
:10512300F988828983E0F508EE2508F508EF340055
:10513300F509E5082438F582E5093400F583E50C23
:10514300F088828983E004F0050B050CE50BC3941A
:105153000840AF050A8A828B83A3AA82AB838C8221
:105163008D83A3AC82AD83E50AC39405500302503B
:10517300E57F0502187374F71217A19003CEE0645C
:105183000170030252D77A009003D4E06003025205
:10519300D77401F0A3E4F0A3F090043404F0900476
:1051A30039F09003D7E4F0A3F0A3F0A3F09003E168
:1051B30004F0900407E4F09003EAF0A3F0A3F0A353
:1051C300F0A3F0A3F0A3F0900451F0900445F09005
:1051D300043A7480F0A3E4F0900440F09004BCF02F
:1051E300A3F0A3F0A3F0A3F0A3F0A3F0A3F0900423
:1051F300C5F0900454F09004A4F0A3F0A3F0A3F03E
:10520300A3F0A3F0A3F0A3F0A3F0A3F09004B0F0F5
:105213009004B2F09004AEF09004C8F0A3F0A3F0B1
:10522300A3F0A3F0A3F0A3F0A3F078CE7903E824CE
:105233006EF582E93400F58374FFF00A888289836E
:10524300A3A882A983EAC3940440E37ACE7B0378BC
:10525300DC790488828983E0C0E0EA2461F582EB8B
:105263003400F583D0E0F088828983A3A882A983E0
:105273008A828B83A3AA82AB83E864E17003E96427
:105283000470D07ACE7B0378B5790388828983A3AF
:10529300E0C0E0EA24E6F582EB3400F583D0E0F0E9
:1052A30088828983A3A882A9838A828B83A3AA8203
:1052B300AB83E864BD7003E9640370CF9003CEE071
:1052C30004F0640170089003D6E09003D0F07AD222
:1052D3007B0380047A007B00024B38C082C083903A
:1052E30003D5E4F09003D4F09003CEF0A3F0A374BD
:1052F300FFF075E1F102420AC082C08378007900B1
:105303009003D5E0600478D2790388828983A3A3CC
:10531300A3A3E0F902420A74F61217A1EAFEEBFF17
:10532300EE2463F582EF3400F583E0F8A3E0F9E8B7
:105333004970030253BFEE2463F8EF3400F97A0097
:105343007B00A2AFE433F508C2AF88828983E0FC17
:10535300A3E0FDEC4D603A88828983E0FAA3E0FB89
:105363008A828B83E0FCA3E0FD88828983ECF0A32F
:10537300EDF08A828B83E4F0A3F088828983E0FCDA
:10538300A3E0FDEC4D700A88828983A3A3E4F0A314
:10539300F0E508A2E092AF1212429004E2E004F0BA
:1053A3009004E3E004F0EE2463F582EF3400F58328
:1053B300E0F8A3E0F9E84960030253398E828F8352
:1053C300A3A3A3E0600F8E828F83A3A3A3E4F09033
:1053D30003CFE014F09003CEE014F070069003D0F6
:1053E30074FFF08E828F83A3A3E4F09004E1E07056
:1053F3000D9003CFE0640170057900120CEAEEFA18
:10540300EFFB120C2A024E3E74F71217A1EAFEEBD1
:10541300FF8E828F83A3A3A3A3E0FA7B001208E885
:10542300EEFAEFFB120B76120C12024B38C082C05D
:105433008378B5790388828983A3E4F0888289839A
:10544300A3A882A983E864BD7003E9640370E690AE
:1054530003B6740102420974F61217A1EAFEEBFFC8
:10546300EC2403F8ED3400F988088909EC2407F8E3
:10547300ED3400F9E8FCE9FD8C828D83E0F8A3E0CC
:10548300F9850882850983E0FAA3E0FB1216A6EEEC
:10549300240DF582EF3400F583E8F0A3E9F08C8264
:1054A3008D83E0F8A3E0F9850882850983E0FAA3F8
:1054B300E0FB1216A68B09EA45096013EE240DF5ED
:1054C30082EF3400F583E02401F0A3E03400F0021E
:1054D3004E3E74F61217A1EAFEEBFFEE242EF58280
:1054E300EF3400F583E0FCA3E0FD780079FAECFAF1
:1054F300EDFB1216A6EE246FF582EF3400F583E878
:10550300F0A3E9F0780079FAECFAEDFB1216A68B1A
:1055130009EA45096013EE246FF582EF3400F58341
:10552300E02401F0A3E03400F0024E3E74EC1217C5
:10553300A1EAFEEBFF741412177D78081215E91225
:105543000CAE8A0C8B0D8C0E8D0F7510027511002D
:10555300751200751300780C791012154F7510FF32
:105563007511FF7512FF780C79101215B0780C12B3
:1055730019B08E828F83E0F8A3E0F5838882A3A31A
:105583001216071223BD7404121747E9600302566B
:10559300938E828F83E02402F8A3E03400F9E8FAC3
:1055A300E9FB8A828B8378081215758A828B83754F
:1055B30008FF7509FF750AFF750B0078081215D6E9
:1055C300EE240BF582EF3400F583C082C0838E8214
:1055D3008F83A3A3A3A3A3E02401F8A3E03400F9DA
:1055E300D083D082E0687003A3E06970057901027B
:1055F30056958E828F83A3A3A3A3A3A3A3E0240121
:10560300F0A3E03400F0EE2473F582EF3400F58369
:10561300E064017036EE2474F582EF3400F583E024
:10562300F8A3E0F98E828F83A3A3A3A3A3A3A3E08C
:10563300687003A3E0697013EE2474F582EF3400FD
:10564300F583E02401F0A3E03400F0EE247FF5823B
:10565300EF3400F583E064017036EE2480F582EFC9
:105663003400F583E0F8A3E0F98E828F83A3A3A32C
:10567300A3A3A3A3E0687003A3E0697013EE2480DF
:10568300F582EF3400F583E02401F0A3E03400F069
:1056930079000243A274F61217A1E9FEECFFEA2493
:1056A30062F582EB3400F583E06401600302574145
:1056B3009061D0E0F508EA2482F582EB3400F583AB
:1056C300E060047804800278007480C39508FC9538
:1056D300E0FDEF28F8E43400F9E82402F8E93400A7
:1056E300F9EC98ED99A2D265D033404E740A1217A3
:1056F3007DE0F508A3E0F509EA2482F582EB3400A6
:10570300F583E0601578081219B4EFFCEEF9120B7B
:10571300FA740212174774042FFF74012FF5D98E00
:10572300D9EF600F850882850983F8E0F5D9A318BE
:10573300E870F875E195790080067907800279FFB2
:10574300024E3E74F71217A1A2AFE433FEC2AF8A32
:10575300828B83E0F8A3E0F9E8498A828B83600AAD
:10576300A3A3E0F8A3E0F5838882ECF0A3EDF08A2D
:10577300828B83A3A3ECF0A3EDF08C828D83E4F002
:10578300A3024B3074F71217A1E96021F88C828DC4
:1057930083E08A828B83F08C828D83A3AC82AD837A
:1057A3008A828B83A3AA82AB8318E870E0ECFAEDBC
:1057B300FB024B3874F41217A1907803E064427033
:1057C30055900544E014F0704DC2AF1257D10078E4
:1057D3002AD0E0F618D0E0F6E59F54077005750966
:1057E300FF800375097FC4C0E07829E6F50808E661
:1057F3005509F509740B780812170FD0E02508F83E
:10580300906270E0A2E740F8E8C333906272F090D0
:105813006270E0D2E0F09003D0E0F47003025BB179
:10582300E0F875F003A4C8AAF02AF974D228FE742C
:105833000339FFEE2401F582EF3401F583E0F8A389
:10584300E0F9E849601EEE2401F582EF3401F583A7
:10585300E0FAA3E0FBEE2400F582EF3401F583E0E8
:10586300F9120FBA8E828F83A3A3A3A3A3A3A3E0EA
:10587300F8A3E0F98E828F83A3A3A3A3A3E8F0A3E5
:10588300E9F0906054E09003A9F0906055E0900334
:10589300AAF0906056E09003ABF0906057E090035D
:1058A300ACF0906058E09003ADF0906059E0900345
:1058B300AEF090605AE09003AFF090605BE090032D
:1058C300B0F090605CE0FC9003B1F090605DE0FBB1
:1058D3009003B2F090605EE0FD9003B3F090605FE0
:1058E300E0FA9003B4F09003AFE08C082508F8E4E5
:1058F3003400F98D08E82508F8E93400F98B08E845
:105903002508F8E93400F98A08E82508FAE934009B
:10591300FBEE24F6F582EF3400F583E02AF0A3E0F2
:105923003BF08C08EE24F8F582EF3400F583E02594
:1059330008F0A3E03400F0EE24FAF582EF3400F52A
:1059430083E02401F0A3E03400F0EE24FEF582EFBF
:105953003400F583E0F8A3E0F9E849604290600081
:10596300E0C333FCE433FDE82CF582E93DF583E045
:105973002AF0A3E03BF0906000E0FA9003B1E0FC72
:10598300EAC333FAE433FBE82AF8E93BF9E8244AAB
:10599300F582E93400F583E02CF0A3E03400F090C5
:1059A30003AFE070119003B2E0700BA3E07007A3A4
:1059B300E07003025AAE8E828F83A3A3A3A3A3E056
:1059C300F8A3E0F9EE240DF582EF3400F583E02827
:1059D300F8A3E039F9EE240BF582EF3400F583E800
:1059E300F0A3E9F0EE240FF582EF3400F583E4F041
:1059F300EE241CF582EF3400F583E06401701EEEA3
:105A03002420F582EF3400F583E0F8A3E0F9EE24D7
:105A13001DF582EF3400F583E8F0A3E9F09003AAC3
:105A2300E06052EE241CF582EF3400F5837401F03C
:105A3300EE2469F582EF3400F583E07038EE2473C9
:105A4300F582EF3400F583E0702BEE247FF582EFCF
:105A53003400F583E0701EEE2420F582EF3400F568
:105A630083E0F8A3E0F9EE241DF582EF3400F5831B
:105A7300E8F0A3E9F0906062E07003025B618E825C
:105A83008F83E0F8A3E0F9E82406FCE93400FDE89D
:105A93002402FAE93400FB120CA88E828F83E0F80B
:105AA300A3E0C82412F582E8025B679003B1E060CB
:105AB3003AEE240FF582EF3400F583E4F0EE241C74
:105AC300F582EF3400F583E064017040EE2420F5A5
:105AD30082EF3400F583E0F8A3E0F9EE241DF582AC
:105AE300EF3400F583E8F0A3E98020EE24FCF5828F
:105AF300EF3400F583E02401F0A3E03400F0EE245A
:105B03001DF582EF3400F583E4F0A3F0EE240BF5EA
:105B130082EF3400F583E0F8A3E0F98E828F83A34C
:105B2300A3A3A3A3E0687003A3E0696003025A2060
