:020000040000FA
:060000000201070221B716
:03002B0002262F7B
:0300330002261191
:03003B000226504A
:030043000225C5CE
:0300530002222A5C
:03006B000225EB80
:10008300022023E5C754F84401F5C7790122000093
:100093000080FB120086B900030200F1E4792178A5
:1000A30008B800028004F709D8FCE479297802B87B
:1000B30000028004F709D8FCE490028178D7790A1A
:1000C3008002F0A3D8FCD9FA7A577B0C90013778D9
:1000D300D279038015E493A3AD82AE838A828B83A6
:1000E300F0A3AA82AB838D828E83D8E9D9E7758288
:1000F300A67583FF740212011975829175830074CA
:100103000012011975D00075813F751881751902A8
:10011300759F00020096C09FF59FE473D09F22D085
:1001230083D082C09FE493C0E0740193C0E0740263
:1001330093F59F22FF0000B4000028002800283018
:1001430075A000A000A000A00000080008E001F0D6
:10015300001000100010001000100010005000509C
:1001630000500010001000D0070000000000000F36
:100173000001000500307507001000010081FF0039
:10018300000000FF060624060C06FF020202080216
:100193005000A0000000E803025982010000CD8155
:1001A300025F82010000AE0C024782010000B3022D
:1001B300025F82010000AF0C024982010000C90204
:1001C300025F82010000B00C024B82010000CB02EF
:1001D300025F82010000B10C024D82080000CC02D4
:1001E300025F82010000B20C024F82010000B30CD7
:1001F300FF0100FF200259820100004482025F8256
:10020300010000170D025182000000000002578216
:100213000300001903E80BE80BE80BE80BE80BE815
:100223000BE80BE80BE80BE80BE80BE80BE80B6AB1
:100233000E820E640EFFFF0202020202020202029B
:10024300010D0000001001025982010000418202E9
:100253005F820100005A0D026D820100005D0702FA
:100263005F820100005B0D026B82010000A6810228
:100273005F820100005C0D0269820100007C810243
:100283005F820100005D0D026782010000E28002CF
:100293005F820100005E0D0265820100000681029B
:1002A3005F820100005F0D026382010000F480029F
:1002B3005F82010000600D0261820100001881026B
:1002C3005F82010000610D025D820100008A8102EC
:1002D3005F82010000620D025B82010000630D0179
:1002E300E803053F100AFF00013075030201060011
:1002F30000000000000000000000000000000000FB
:100303000000000000000000000000FFFF06008066
:100313000CE803080964422E446576730512500005
:100323002003020A0002010611060000000000007B
:10033300FFFF01000100DBFF10F564422E446576E8
:100343007300000000000000000000000000000235
:100353001300000813023078444230310002307831
:100363004442303200083078444230330010307851
:100373004442303400083078444230350002598218
:100383000100003E82025F82010000780E02738248
:10039300010000230C027F82010000790E025F82BC
:1003A300010000800E027582010000370C027F827B
:1003B300010000810E025F82010000880E02778235
:1003C300020000380C027F82010000890E025F8266
:1003D300010000900E0279820000004C0C0257824B
:1003E3000300004D0C027F82010000910E025F8228
:1003F300010000980E027B82020000530C027F82F0
:10040300010000990E120122BB9C03120122D29C0F
:1004130003120122039D031201223E9D03120122B6
:10042300689D03120122929D03120122A99D0312CA
:100433000122C09D03120122D79D03120122009EB7
:1004430003120122139E03120122299E0312012289
:100453003C9E03120122639E03120122BCA70212D7
:100463000122C0A802120122F8A8021201221BA92C
:100473000212012226A90212012249A90212012213
:1004830058AA021201222DAB02120122A8AB0212BA
:10049300012230AC021201226BAC02120122A2AC87
:1004A3000212012230AD0212012209AE0212012210
:1004B30069AE0212012274AE02120122F3AE0212DD
:1004C3000122F6AE02120122F9AE0212012288AF16
:1004D300021201228BAF02120122BBAF02120122D0
:1004E300E5AF02120122D3B00212012285B102123A
:1004F300012286E702120122AEE702120122DCE7A3
:100503000212012213E80212012271E802120122EF
:10051300BCE80212012207E90212012247E9021292
:1005230001228DE902120122BBE90212012278EABB
:100533000212012282EA021201228FEA021201222E
:10054300C2EA021201228EEB021201229AEB02127C
:100553000122B2EB02120122BCEB0212012212A908
:100563000312012220A90312012238A90312012236
:1005730050A903120122A7BA0112012253BB01128F
:100583000122CEBB01120122EFBC011201222BBDBD
:1005930001120122D4BD01120122BBBE01120122AC
:1005A3001FC00112012276C001120122F7C00112FD
:1005B3000122E7C10112012234C201120122BAC28F
:1005C30001120122ECC20112012200C50112012213
:1005D30042C50112012260C501120122E3C50112C5
:1005E3000122B7C6011201227FC70112012209CAE3
:1005F30002120122DCCA0212012285CB021201225D
:10060300D8CB0212012288CC0212012214CD02128D
:10061300012200CE021201222FCE0212012242CF6A
:10062300021201228ACF021201225FD0021201229A
:100633009BD002120122B7D002120122B5AB0312E2
:100643000122AB8303120122C18303120122E78338
:10065300031201220385031201220D8503120122D5
:100663004286031201223A87031201225FE2021239
:1006730001228FE302120122C2E3021201220CE4DF
:1006830002120122D3E502120122B8AA01120122A9
:1006930022AB0112012281AC0112012291AC0112A1
:1006A3000122BEAC0112012215AD01120122BEAD21
:1006B30001120122C5AE011201228FAF01120122E4
:1006C300EFB00112012232B101120122D7B101129E
:1006D300012224B2011201224AB20112012258B4AA
:1006E300011201225DB40112012262B6011201223C
:1006F300AFB60112012222B70112012255B701122E
:100703000122F7B701120122A0B801120122D8B8C1
:1007130001120122DBB80112012223B901120122C5
:1007230063B901120122BAB9011201227D970312A2
:100733000122959703120122DD9703120122F397F9
:10074300031201223A98031201224E990312012245
:10075300DB9903120122269A03120122C4260012F6
:100763000122D026001201220B270012012250275A
:1007730000120122102800120122962800120122E1
:10078300C22800120122FB2800120122392B001279
:1007930001221D2D00120122032F001201224630D7
:1007A30000120122943200120122A6330012012208
:1007B300F134001201220136001201221E3600120A
:1007C30001225936001201227B3600120122DE3645
:1007D300001201229F3B00120122343C001201222D
:1007E300853C00120122AC3C00120122FE3C0012A7
:1007F30001221C3D00120122763D00120122753EAA
:1008030000120122F93E001201222CDD0212012204
:1008130036DD0212012279DD0212012294DD021279
:10082300012224DE021201224CDE0212012289DEA1
:1008330002120122C0DE02120122E9DE02120122AB
:100843005EDF0212012273DF0212012288DF02122D
:100853000122B9DF02120122CDDF02120122F2DFEF
:10086300021201222CE00212012258E0021201229C
:1008730090E002120122EFE0021201226EE1021265
:10088300012299E102120122E2E1021201220CE2A9
:100893000212012237E2021201221CA603120122D4
:1008A300E99A02120122179B02120122659C02128D
:1008B3000122459D02120122649D02120122E19D43
:1008C30002120122249E021201227A9F02120122A5
:1008D3003BA002120122C2A20212012263A302124E
:1008E300012259A40212012256A502120122B0A626
:1008F300021201223BA702120122C1A40312012208
:100903002AA5031201227EA503120122A5A5031223
:100913000122D6A503120122CFF0021201223CF1DB
:100923000212012283F1021201229BF2021201221E
:1009330097F3021201227AF402120122F6B1021293
:10094300012238B2021201220AB302120122E3B3D6
:1009530002120122DDB402120122BFB502120122EA
:1009630028B602120122DEB60212012252B7021287
:100973000122BEB702120122E7B70212012261B8B7
:1009830002120122FAB8021201225FB902120122F5
:1009930074B902120122BAB902120122D3B90212A6
:1009A300012238BA021201223BBA021201228494B4
:1009B30003120122AC9403120122EA9403120122CE
:1009C300A895031201220F96031201222B960312FC
:1009D3000122539603120122839603120122929657
:1009E300031201220F9703120122359703120122EA
:1009F3006E6C001201224C6E001201227E700012F6
:100A03000122BA7000120122E77000120122D17193
:100A1300001201221C7200120122677200120122CD
:100A2300797200120122B97200120122EE720012D1
:100A330001223C73001201226B73001201228E7398
:100A430000120122DB7300120122607400120122E2
:100A53007A7600120122B97800120122FA78001284
:100A630001229C7A00120122DD7A00120122507BBE
:100A730000120122A17B001201227C7C00120122C0
:100A8300A67C00120122D48D02120122D28E021200
:100A930001226B95021201228C97021201225799AF
:100AA30002120122BF9A02120122603F00120122A8
:100AB3000F40001201225540001201228B41001207
:100AC3000122B941001201224F4300120122C943FE
:100AD30000120122E443001201225F4400120122AA
:100AE300B945001201221947001201221F480012C2
:100AF3000122804900120122994900120122F7497B
:100B030000120122E54A00120122184B00120122B1
:100B1300884B00120122024C001201224C4C00129D
:100B23000122164D00120122EB4D00120122CA4E82
:100B330000120122554F00120122C34F001201225D
:100B4300375000120122625000120122215100127B
:100B53000122865200120122A35200120122C25224
:100B630000120122B35300120122D85300120122B2
:100B73000254001201227D5400120122D7540012A4
:100B83000122405600120122EE56001201222F5775
:100B9300001201220080021201224E800212012261
:100BA3005A80021201223881021201226981021243
:100BB30001229A81021201221A8202120122528216
:100BC30002120122A48202120122E18202120122F4
:100BD300FE84021201222487021201220F890212CB
:100BE3000122F98A02120122FCFF01120122A596B9
:100BF30001120122D59601120122AE9D011201229A
:100C0300339F0112012230A50112012218A60112FD
:100C1300012255A60112012278A601120122A9A6DA
:100C230001120122B2A601120122BCA60112012265
:100C3300AAA701120122A0A8011201225F570012E4
:100C430001225E5B00120122645B001201229F629B
:100C530000120122B86700120122438E03120122FF
:100C63003D8F03120122B18F03120122EF8F031272
:100C73000122639003120122DC9003120122E5900A
:100C830003120122F19003120122069103120122A1
:100C93004491031201225A91031201223CF50212DC
:100CA300012249F50212012263F502120122A2F583
:100CB30002120122E0F50212012245F6021201227C
:100CC3005AF60212012265F60212012272F602128C
:100CD300012289F60212012297F602120122A2F6DC
:100CE30002120122AEF602120122BDF60212012205
:100CF300C8F602120122EBF60212012292F7021247
:100D03000122A2F702120122BCF702120122D9F733
:100D130002120122F5F7021201221AF8021201222D
:100D230025F8021201223AF8021201224EF80212A9
:100D33000122AFF802120122B5F802120122BBF818
:100D430002120122C1F802120122D9F80212012271
:100D53000CF90212012209D8011201228DD80112C5
:100D630001223CD9011201229BDA01120122BCDCCF
:100D730001120122A8DD01120122DDDD011201228F
:100D8300FFDD01120122AEDE01120122A6E00112F3
:100D93000122CFE00112012261E10112012293E15C
:100DA30001120122A0E101120122F7E10112012245
:100DB3001DE2011201228AE4011201228DE50112D2
:100DC3000122E5E50112012298C901120122A2CAFA
:100DD3000112012289CB0112012293CB01120122BC
:100DE300B5CB01120122C1CB011201225ACD01124E
:100DF300012289CD01120122A5CE01120122FECECC
:100E03000112012264D00112012243D101120122F5
:100E13009FD1011201220CD20112012247D20112E9
:100E2300012286D2011201223FD50112012259D596
:100E330001120122E5D501120122F3D5011201228B
:100E43004CD6011201225AD601120122CDD601122B
:100E5300012231D7011201227BD70112012218F49A
:100E6300011201223AF40112012260F60112012259
:100E730075F9011201228DFA0112012240FB0112C0
:100E8300012222FC011201221DA00312012242A011
:100E930003120122B4A0031201228FC20212012203
:100EA30098C202120122A1C20212012278C30212C5
:100EB300012229C5021201225FC50212012299C52E
:100EC30002120122CFC50212012209C60212012217
:100ED3003DC60212012269C602120122B2C60212E3
:100EE3000122ECC60212012235C7021201228DC76C
:100EF30002120122C2C7021201221DC802120122DC
:100F030057C802120122A8C802120122DEC8021227
:100F1300012218C90212012246C90212012269C91B
:100F230002120122E9A90312012215AA03120122C6
:100F330070AA031201227AAA031201228AAA0312B7
:100F43000122BED702120122C8D70212012206D8FB
:100F5300021201224FD80212012289D80212012261
:100F6300E3D80212012204D9021201220DD902127E
:100F730001225ED90212012287D90212012291D9DC
:100F830002120122FDD9021201228BDA021201227E
:100F9300D9DA021201220FDB0212012296DB0212BE
:100FA3000122D6DB021201220EDC0212012220DC16
:100FB300021201223FDC0212012248DC021201224A
:100FC30002DD02120122448703120122398803122F
:100FD3000122538803120122648803120122998A91
:100FE30003120122A7FD02120122DDFD02120122DA
:100FF30013FE021201226CFF0212012239AC03120A
:1010030001224FAC0312012259AC03120122A3ACFB
:101013000312012289F902120122A2F9021201220A
:1010230046FA0212012286FA021201229FFA0212E2
:101033000122D3FA0212012220FB0212012254FBE5
:101043000212012296FB021201229AFD02120122D0
:1010530039A80312012262A8031201228BA80312EA
:101063000122CDA803120122D17C00120122F67CB9
:1010730000120122227D0012012250AD031201222F
:10108300828201120122E684011201229886011252
:1010930001228A87011201220F88011201228D8801
:1010A30001120122BA8801120122DE8B01120122F0
:1010B300588C01120122478D01120122818D0112E8
:1010C3000122C18D011201227B8F01120122CE8FD9
:1010D30001120122179001120122859001120122AF
:1010E300B79001120122CF9001120122E491011263
:1010F3000122F49101120122249301120122469349
:10110300011201227C930112012221950112012275
:1011130060950112012280960112012246FF0112FD
:10112300012257FF0112012207AD0312012246AD2E
:1011330003120122C3AD0312012294AA0312012256
:10114300A4AA03120122BCAA0312012224AB031294
:10115300012235A703120122BAA70312012220A8F4
:101163000312012249A30312012272A303120122D3
:10117300DDA3031201222EA40312012287A403126A
:101183000122B9260012012243EC021201225AEC79
:1011930002120122D3EC02120122ACED021201224F
:1011A3006AF002120122D48A03120122648B031211
:1011B3000122E28B031201226B8C03120122008DA8
:1011C300031201228A8D03120122948D031201223C
:1011D300A38D03120122B98D03120122CC8D0312B8
:1011E30001222C8E03120122408E031201222EAB08
:1011F3000312012298AB03120122AAAB03120122AC
:10120300C2A10312012217A20312012285A2031213
:101213000122F5A203120122509A031201227A9AA3
:10122300031201224F9B03120122439C031201224A
:101233005FBA021201221CBB0212012257BB021227
:1012430001227FBB02120122E1BB021201222DBC4B
:101253000212012286BC0212012217BD02120122D0
:1012630019BE02120122D6BF0212012258C0021275
:101273000122BDC002120122D4C002120122E4C124
:101283000212012222C20212012233E601120122BA
:10129300BDE90112012245EB011201229CEB01126F
:1012A3000122BBEB0112012239EC01120122D7ED1D
:1012B30001120122BBEE01120122A5F20112012249
:1012C30075F3011201228A9103120122B9910312CB
:1012D3000122CF9103120122179203120122599284
:1012E30003120122C49203120122939303120122D7
:1012F300FF93031201222CD1021201227CD302128A
:1013030001223ED402120122ECD40212012258D54A
:1013130002120122CAD50212012212D6021201229E
:101323008DD602120122F6D6021201220080031288
:101333000122458003120122628003120122EB8005
:101343000312012251810312012227820312012277
:10135300728303120122759E03120122999E0312C6
:1013630001225D9F03120122D59F0312012297AD33
:1013730003120122E27F00E066701008A3E06670AA
:101383000A08A3E066700408A3E06622C3E7960890
:1013930009E7960809E7960809E79622C3E0960845
:1013A300A3E09608A3E09608A3E09622C008C3E052
:1013B30096F50808A3E096420808A3E096420808B9
:1013C300A3E09645087001D3D00822080808EAC0B4
:1013D300E0EBC0E086F0E7A4FA180986F0E7A42A58
:1013E300FA180986F0E7A42AFA180986F0E7A42A6E
:1013F300FA1986F0E7A4FBE5F02AFA190886F0E764
:10140300A42BFBE5F03AFA190886F0E7A42BFBE5D9
:10141300F03AFA18180986F0E7A4C5F02BFBE43A72
:10142300FA1908E7C5F0C6A426F6E5F03BFBE43A53
:10143300FA1886F0E7A4F6E5F00826F6E43B08F68A
:10144300E43A08F6D0E0FBD0E0FA22E4CFC0E0E4CF
:10145300CEC0E0E4CDC0E0E4CCC0E075F020E626E9
:10146300F608E633F608E633F608E633F6181818F6
:10147300EC33FCED33FDEE33FEEF33FFC3EC9709A2
:10148300ED9709EE9709EF97191919400FFFEC979C
:10149300FC09ED97FD09EE97FE191906D5F0BFEC8F
:1014A300F709EDF709EEF709EFF7191919D0E0FC81
:1014B300D0E0FDD0E0FED0E0FF226016080808C6A9
:1014C300C313C618C613C618C613C618C613C6D583
:1014D300E0EA227009080808226016181818C6C323
:1014E30033C608C633C608C633C608C633C6D5E0F6
:1014F300EA22E627F60809E637F60809E637F6088A
:1015030009E637F622E026F608A3E036F608A3E05C
:1015130036F608A3E036F622E026F008A3E036F01C
:1015230008A3E036F008A3E036F022C3E697F608F6
:1015330009E697F60809E697F60809E697F622C33F
:10154300E096F008A3E096F008A3E096F008A3E085
:1015530096F022E657F60809E657F60809E657F625
:101563000809E657F622E056F608A3E056F608A364
:10157300E056F608A3E056F622E056F008A3E0563C
:10158300F008A3E056F008A3E056F022E0F608A323
:10159300E0F608A3E0F608A3E0F622E6F008A3E6E7
:1015A300F008A3E6F008A3E6F022E0FAA3E0FBA329
:1015B300E0FCA3E0FD22EAF0A3EBF0A3ECF0A3ED43
:1015C300F022E0F8A3E0F9A3E0FAA3E0FB22E8F0BD
:1015D300A3E9F0A3EAF0A3EBF022CAC0E0E6F0A38C
:1015E30008DAFAD0E0FA22CAC0E0E0A3C582CCC58B
:1015F30082C583CDC583F0A3C582CCC582C583CD07
:10160300C583DAE6D0E0CA22C3E498F8E499F91274
:10161300164C8026C3E49AFAE49BFBE920E7E9121F
:10162300164CE498F8E499F922C3E498F8E499F99C
:1016330012164CE498F8E499F9C3E49AFAE49BFB94
:1016430022EB20E7CFE920E7E0B90010BB0008E870
:101653008AF084F8AAF022E4FBC8FA22EB70227B1A
:1016630010C833C8C933C9335007C39AC3DBF280E8
:10167300069A50012ADBEAC833F4C8C933F4C9FA1D
:101683002275F008E4C833C8C933C933C99AC99B62
:101693005004C92AC93BD5F0ECFBC833F4C8E4C9EC
:1016A300FA22600D08C6A2E713C618C613C6D5E012
:1016B300F322600C08C6C313C618C613C6D5E0F4DC
:1016C30022700422600D18C6C333C608C633C6D5BC
:1016D300E0F41822251810AF08F518400C151980EE
:1016E30008F51840021519D2AF2200C0D0251810F2
:1016F300AF08F518500C05198008F51850020519A4
:10170300D2AFD0D0222518F58210AF08F518400CBF
:1017130015198008F51840021519D2AF85198322CF
:101723002518F582E43519F583222518F8E43519CF
:10173300F9222518FAE43519FB222518FCE435199A
:10174300FD22E4732518C582C0E0E51934FFC58383
:10175300C0E0E518C3958224F810AF088583198586
:1017630082188008858319858218D2AFCEF0A3E54D
:1017730020F0A37808E608F0A3DEFAEFF0A3E581F2
:1017830024FAF8E608F0A3E608F0A3E608F0A308B5
:1017930008E608F0A3E608F0A315811581D0E0FE62
:1017A300D0E0F8158115811581E8C0E0EEC0E02294
:1017B3002518C582C0E0E51934FFC583C0E0E518EC
:1017C300C3958224F910AF08858319858218800890
:1017D300858319858218D2AFCEF0A3E520F0A378D4
:1017E30008E608F0A3DEFAEFF0A3E58124FBF8E6B0
:1017F30008F0A3E608F0A30808E608F0A3E608F05B
:10180300A315811581D0E0FED0E0F815811581E89C
:10181300C0E0EEC0E022851983851882E0A3FEE0D4
:10182300A3F5207808E0A3F608DFFAE0A3FFE0A31E
:10183300C0E0E0A3C0E0E0A3C0E0E0A3C0E0E0A319
:10184300C0E010AF08858218858319800885821847
:10185300858319D2AFD083D08202011F8519838576
:101863001882E0A3FEE0A3F5207808E0A3F608DFE2
:10187300FAE0A3FFE0A3C0E0E0A3C0E0E0A3C0E080
:10188300E0A3C0E010AF088582188583198008851E
:101893008218858319D2AFD083D08222C0D0251875
:1018A300C582C0E0E51934FFC583C0E0E518C395E0
:1018B3008224F310AF0885831985821880088583F5
:1018C30019858218D2AFC8F0A3E9F0A3EAF0A3EB1D
:1018D300F0A37908E709F0A3D8FAECF0A3EDF0A39D
:1018E300EEF0A3EFF0A3D0E0F0A3D0E0F0A3D0E0BC
:1018F300F0A3E520F0A3E5F0F0A322851983851872
:1019030082E0C0E0A3E0F9A3E0FAA3E0FBA3780838
:10191300E0F608A3DFFAE0FCA3E0FDA3E0FEA3E00A
:10192300FFA3E0C0E0A3E0C0E0A3E0F5D0A3E0F5AF
:1019330020A3E0A3F5F010AF0885831985821880F2
:1019430008858319858218D2AFD082D083D0E0F87E
:10195300D0E03274048006740280027401C0E0F4A3
:1019630004121708D0E01215DD22740480047402F7
:101973008000CCC0E0EDC0E0E518C39CCCAD1950AD
:10198300011D10AF068C188D1980068C188D19D285
:10199300AF1215EAD0E0FDD0E0FC22D083D082E97B
:1019A300C0E0E493A3C386F0C5F095F0F908E4938F
:1019B300A386F0C5F095F0700BE493A3C39940059B
:1019C300E9048002A3E475F002A42582F582E5F020
:1019D3003583F583D0E0F9E493A3C0E0E493C0E05A
:1019E30022D083D082ECC0E0EDC0E0E493A3FCE41A
:1019F30093A3FDED4C600D121A30EC24FFFCED3483
:101A0300FFFD80EFE493A3FCE493A3FDED4C600D95
:101A1300121A6FEC24FFFCED34FFFD80EFD0E0FDE4
:101A2300D0E0FCE493A3C0E0E493C0E022C0E0C3B1
:101A3300E49396087401939618400FE49366700834
:101A430008740193661870007019A3A3C3E49396F6
:101A5300087401939618A3A3400DD0E0D0E0D0E022
:101A6300021A20A3A3A3A3A3A3D0E022C0E0C0F043
:101A730088F0E4936670080874019366187000A8F0
:101A8300F0A3A3700BD0F0D0E0D0E0D0E0021A2096
:071A9300A3A3D0F0D0E02274
:101A9C0074F51217B3EAFEEBFFEE2434F8EF3400C2
:101AAC00F988088909EE2435F582EF3400F583E0D6
:101ABC00F8EE2437F582EF3400F583E0F50AEC8577
:101ACC000AF0A4FCAAF0850AF0EDA42AFDE82CF893
:101ADC00E43DF97A257B0012164CEA8508828509CB
:101AEC0083F0F8740758F97401B900028004C33309
:101AFC00D9FCFAE8131313541FF8EE28F8EF34004E
:101B0C00F9E8245DF582E93400F583E05A6008EECB
:101B1C002434F582EF802CEE2434F582EF3400F57A
:101B2C0083E0C0E0EE2436F582EF3400F583E0F577
:101B3C00F0D0E084A8F0EE28F8EF3400F9E824386F
:101B4C00F582E93400F583E0F97F0402185F74F53F
:101B5C001217B3EAFEEBFFEE2434F582EF3400F5F6
:101B6C0083E0C0E0EE2435F582EF3400F583D0E05D
:101B7C00F08E828F83A3A3A3A3A3A3A3C082C0834D
:101B8C008E828F83A3A3A3A3A3E0F8A3E0F9D08351
:101B9C00D082E0C398F508A3E099F509EE247FF50F
:101BAC0082EF3400F583E064017069EE2480F582E5
:101BBC00EF3400F583E0F8A3E0F98E828F83A3A3C2
:101BCC00A3A3A3A3A3E0FCA3E0FD8E828F83A3A316
:101BDC00A3A3A3E0FAA3E0FBC3EA9CEB9D5010C3C4
:101BEC00EC98ED99402EC3EA98EB995027800EC3E0
:101BFC00EA98EB994007C3EC98ED9940177CDC7D93
:101C0C0004EEFAEFFB120B46EE247FF582EF340064
:101C1C00F583E4F0EE2434F8EF3400F9E8FCE9FD48
:101C2C00EE2435F582EF3400F583E0F8EE2437F539
:101C3C0082EF3400F583E0F50AE508850AF0A4F597
:101C4C0008AAF0850AF0E509A42AF509E82508F8A0
:101C5C00E43509F97A257B0012164CEA8C828D83C7
:101C6C00F0F8740758F97401B900028004C333D931
:101C7C00FCFAE8131313541FF8EE28F8EF3400F9AC
:101C8C00E8245DF582E93400F583E05A6008EE241F
:101C9C0034F582EF802CEE2434F582EF3400F5839A
:101CAC00E0C0E0EE2436F582EF3400F583E0F5F089
:101CBC00D0E084A8F0EE28F8EF3400F9E82438F5E9
:101CCC0082E93400F583E0F91225B1021B55C0827C
:101CDC00C083851882851983E0F8A3E0F9C3EA9CD8
:101CEC00EB9D5010C3EC98ED99401BC3EA98EB990F
:101CFC005014800EC3EA98EB994007C3EC98ED9909
:101D0C004004790180027900D083D08222EAC39CFE
:101D1C00FAEB9DFB2274EF1217B39003A2E0640858
:101D2C006005E06407702A9061C8E060249003D0DD
:101D3C00E0F4601DE0F875F003A4C8AAF02AF97469
:101D4C00D228FE740339FF8E828F83A3A3A3E07085
:101D5C0003021E51906060E0C0E0EE2468F582EF53
:101D6C003400F583D0E0F0750C45750D0575080051
:101D7C00750900E5D914F50AE5D95403F50E601779
:101D8C007403650E605CE50A6010EE2467F582EF63
:101D9C003400F583E07003021E36900540E06401C8
:101DAC00602AEE2482F582EF3400F583E06004783B
:101DBC000480027800850A08E508C398FA95E0FBD0
:101DCC00120A028A088B09EA45097005120D38803F
:101DDC0074EE2482F582EF3400F583E070048A0CF3
:101DEC008B0DE50A6012850C82850D83F50BE5D908
:101DFC00F0A3150BE50B70F6EE2482F582EF3400A0
:101E0C00F583E0604474FC250AF50A780C12195A23
:101E1C00AC0AA90EEEFAEFFB120BE274021216EDED
:101E2C00E97026AA08AB09121206793D8E828F83BF
:101E3C00A3A3A3A3E0FA7B001208D6EEFAEFFB12E1
:101E4C000B5E120BF4790080747403650E6056857A
:101E5C000A10751100781012195AAC0CAD0DAA08A5
:101E6C00AB09120BBE74021216EDEE2468F582EF6C
:101E7C003400F583E064807004747F8001E0F50C1D
:101E8C00780C12195EE50EF50C780C12195EA90A85
:101E9C00AC08AD099003D0E0FA7B0012089A7402EA
:101EAC001216ED80139003A2E06408600BAC0CAD2D
:101EBC000DEEFAEFFB120C4E120D4479017F0A0263
:101ECC00185F74F51217B374FC1216D7EAFEEBFF09
:101EDC008908A2AFE433F509C2AF806AEE2463F837
:101EEC00EF3400F97A007B00A2AFE433F50AC2AFFD
:101EFC0088828983E0FCA3E0FDEC4D603A888289FE
:101F0C0083E0FAA3E0FB8A828B83E0FCA3E0FD88EC
:101F1C00828983ECF0A3EDF08A828B83E4F0A3F04A
:101F2C0088828983E0FCA3E0FDEC4D700A888289ED
:101F3C0083A3A3E4F0A3F0E50AA2E092AF12120689
:101F4C009004E3E004F0EE2463F582EF3400F583B3
:101F5C00E0F8A3E0F9E849603DEE2463F582EF3444
:101F6C0000F583E02402FAA3E03400FBEA2402F536
:101F7C000AEB3400F50B780A12195A8A828B83E02B
:101F8C00FCA3E0F9EEFAEFFB120B8274021216EDD1
:101F9C00E97003021EE89004E3E060639004E4E05F
:101FAC00F89004E3E0C398500C74026508705090EC
:101FBC0004E5E0604A8E828F83A3A3A3A3E0851877
:101FCC0082851983F0A3E4F09004E3E0F874021224
:101FDC001723E8F0A3E4F09004E3E0F89004E2E0C7
:101FEC0028F07402121723AC82AD838518828519F0
:101FFC0083AA82AB8379011208A69004E3E4F0E58E
:10200C0009A2E092AF74041216ED021B55000000F9
:10201C008521878522C622C0E0C0D0E8C0E0E9C097
:10202C00E0EAC0E0EBC0E0ECC0E0EDC0E0EEC0E008
:10203C00C008C009C00AC00BC082C083C0F0A2AFE8
:10204C00E433FEC2AF759B00906182E0A2E05012B7
:10205C00E591A2E0500C7591FE740165217003129C
:10206C001D21E0A2E55051E591A2E5504B7591DFA1
:10207C009003A2E064076005E064087023740165B6
:10208C0021703579019003D0E0FA75F003A4CAA849
:10209C00F028FB74D22AFA74033BFB121ECE801874
:1020AC00E0640D70139003C4E004F064287002E443
:1020BC00F07A00E0F9120D4A906182E0A2E640034A
:1020CC0002216AE591A2E6400302216A7591BF9054
:1020DC0003A2E064057008120C78120C84800312C1
:1020EC000C7E752100120CD8E99003A3F079001234
:1020FC000CCC120AB67A017B009003A1E0F9120F06
:10210C009C907803E064427055900544E014F070A4
:10211C004DC2AF12212200782AD0E0F618D0E0F69A
:10212C00E59F540770057509FF800375097FC4C0CE
:10213C00E07829E6F50808E65509F509740B7808E6
:10214C001216B5D0E02508F8906270E0A2E740F8CE
:10215C00E8C333906272F0906270E0D2E0F090616C
:10216C0081E0A2E35009E5E9A2E3500375E9F7A386
:10217C00E0A2E75009E591A2E7500375917FEEA22A
:10218C00E092AFD0F0D083D082D00BD00AD009D05F
:10219C0008D0E0FED0E0FDD0E0FCD0E0FBD0E0FACF
:1021AC00D0E0F9D0E0F8D0D0D0E032C0E0C0D0C060
:1021BC0082C083906183E0A2E05009E5BFA2E050A9
:1021CC000375BFFEE0A2E15009E5BFA2E150037523
:1021DC00BFFDE0A2E25009E5BFA2E2500375BFFBD0
:1021EC00E0A2E35009E5BFA2E3500375BFF7E0A2FC
:1021FC00E45009E5BFA2E4500375BFEFE0A2E5503F
:10220C0009E5BFA2E5500375BFDFE0A2E65009E582
:10221C00BFA2E6500375BFBFD083D0828088C0E0D8
:10222C00C0D0E8C0E0E9C0E0EAC0E0EBC0E0ECC040
:10223C00E0EDC0E0C0F0E5A7A2E6500FE5A1A2E6F4
:10224C00500953A7BF75A1BF12228FE5A7A2E55075
:10225C000CE5A1A2E5500653A7DF75A1DFE5A7A207
:10226C00E15009E5A1A2E1500375A1FDE5A7A2E2A9
:10227C00500CE5A1A2E2500653A7FB75A1FBD0F0D0
:10228C000221A074F81217B37521019003A2E06427
:10229C00067015120C128A828B83A3A3A3A3A3A38B
:1022AC00E0FAA3E0FB120C66A2AFE433FED2AF90CF
:1022BC0003A8E0640170187A207B009003A1E0F978
:1022CC001210387A207B009003A1E0F9120FA29033
:1022DC006182E0D2E6F0900541E0602185C6228063
:1022EC00169003A7E064017008E5C654F84405F5A0
:1022FC00C653BEFC12201C7401652160E4EEA2E002
:10230C0092AF7F0102185F008E238F24858228856F
:10231C008327851882851983E0CEA3E0CF85288298
:10232C00852783EBC9EAC8EDCBECCA75F010C3E87E
:10233C0033C8E933C9EA33CAEB33CBC3EA9EF5267B
:10234C00EB9FF525B35004AB25AA26EC33CCED332B
:10235C00CDD5F0DAAE23AF242274ED1217B38A0870
:10236C008B098C0A8D0B7413121723780C12158F92
:10237C007808790C12138F7510017511C87512003D
:10238C0075130050127808790C12152E78107908F4
:10239C0012138F50168010780C790812152E7810A5
:1023AC00790C12138F40047901800279007F0C02A2
:1023BC00185F74ED1217B38A088B098C0A8D0B7495
:1023CC0013121723780C12158F780C790812138FAF
:1023DC0040117808790C12152EAA08AB09AC0AAD7D
:1023EC000B802275100075110075120075130178A1
:1023FC0010790C12152E781079081214F5AA10AB5E
:10240C0011AC12AD1380A68A828B837508FF7509F7
:10241C00FF750AFF750B00780812157C7F040218F3
:10242C005F74F51217B38C828D83780812158F8A1E
:10243C00828B837808121542EA2404F8EB3400F9F5
:10244C008C828D83A3A3A3A3E0FCA3E0FD888289E7
:10245C0083C3E09CF0A3E09DF088828983C3E09461
:10246C0020A3E0944E40268A828B837508FF750961
:10247C00FF750AFF750BFF780812151B8A828B8378
:10248C00A3A3A3A3E02420F0A3E0344EF002241372
:10249C0074F51217B3E9FE9004F7E0FAA3E0FBEE33
:1024AC00C333F8E433F9745C28F582748139F5830D
:1024BC00E02AF508A3E03BF509780812195A7A408E
:1024CC007B427C0F7D0012231474021216ED8A08D5
:1024DC008B098C0A8D0B741078081214BDAA08ABEA
:1024EC00097F0402185F74F11217B38A0C8B0D8CE0
:1024FC000E8D0F740F121723E0FAA3E0FB74111268
:10250C001723E0F508A3E0F509780812195AEA2414
:10251C0001F508EB3400F509E4F50AF50B780C79B4
:10252C00081213CE750871750902780C790812130C
:10253C00CEAA0CAB0DAC0EAD0F12231474021216F6
:10254C00ED8B09EA450960047A0180027A00EC2AD5
:10255C00FCED3400FD7413121723E0F8A3E0F9E846
:10256C00FEE9FFECF8EDF97A717B0212164C880843
:10257C0089098E828F83780812159EECF8EDF97A12
:10258C00717B0212164C8A088B0974057808121696
:10259C00C48E828F83A3A3A3A3E508F0A3E509F05F
:1025AC007F0802185FC082C083E9906000F0D0837E
:1025BC00D08222C2AF02000022C0E074F212189F37
:1025CC00A2AFE433FED2AFC2C0E5D1A2E4500653B1
:1025DC00D1EF1211E8EEA2E092AF7F010218FEC01B
:1025EC00E074F212189FA2AFE433FED2AFE589A2D9
:1025FC00E1500312117C758900C2C5EEA2E092AFC6
:10260C007F010218FEC0E074F212189FA2AFE433EF
:10261C00FED2AFE58BA2E0500312117C758B00C289
:10262C00E880D8C0E0C0D0E8C0E0E9C0E0E5A8D2BE
:10263C00AFC2C7A2E7A2E792AFD0E0F9D0E0F8D0E2
:10264C00D0D0E032C0E0C0D0E8C0E0E9C0E0C008C3
:10265C00C009C082C083A2AFE433F9D2AF9009F7AE
:10266C00E0F8A3E0687008539AFBA374018025C2BC
:10267C00E99009F7E0F50874012508F0747725084E
:10268C00F582E43409F583E0F5C19009F7E0C394D1
:10269C00804002E4F0E9A2E092AFD083D082D0096E
:1026AC00D008D0E0F9D0E0F8D0D0D0E03202011F51
:1026BC00FFFFFFFFFFFFFFFFC082C083E9900D16F5
:1026CC00F00228EE74F7121747E99002E1F07C193A
:1026DC007D037AFF7BFF1207E69002E274FFF0A302
:1026EC00F0A3E4F0A3F079051207749002E1E0F98D
:1026FC001206967AFE7B071209B47F010218197430
:10270C00F41217478A088B09EB548060309002E171
:10271C00E0F9120F848A0A8B0BAE0AAF0BEE4F60F6
:10272C00138E828F83E064B07003120786EEFAEF8B
:10273C00FB120F72AA08E5096480FB80047A007B07
:10274C00000228BD74F212174774FC1216D7EAFE69
:10275C00EBFFEE4F60387402121723EEF0A3EF126A
:10276C002B22ECF0A3ED122B22AA82AB8312069043
:10277C00E9F508707374121217231236D6E50A4560
:10278C000B60658E828F831227FEEE4F70057508E5
:10279C000280557A067B00120FF08A0C8B0DA80C68
:1027AC00A90DE8497005750813803D88828983E47A
:1027BC00122808A3A3EEF0A3EF123B6FE50AF0A3D7
:1027CC00E50BF09002E71228909002E76017E0FC0E
:1027DC00A3E08003EAFCEBFD8C828D8312289070C1
:1027EC00F38C828D831235FBA90874041216ED024A
:1027FC003D71A3A3A3A3E0FEA3E0FF22F0A3F08806
:10280C008289832274F2121747890AE975F017A49A
:10281C00FEAFF09002E6E4F09002E4122890600A19
:10282C00120FF69002E4E4F0A3F0EEFAEFFB120FB5
:10283C00F08A088B09EA4509602FEEFCEFFD790060
:10284C00120F609002E4E508F0A3E509F07B00802C
:10285C000812287AE4F0A3F00BEBC3950A40F2E5DA
:10286C000A9002E6F0790080027913023D71EB7553
:10287C00F017A4F8A9F09002E4E028FAA3E0398A52
:10288C0082F58322123391EA4B2274F412174779A2
:10289C0000EAA2E0501B7508FC7509817808121932
:1028AC005A7C047D007A187B0D12076E7402121686
:1028BC00ED7F04021819C082C0839002E71228F53C
:1028CC00601C88828983A3A3E06A7003A3E06B88F1
:1028DC0082898370E8A3A3A3A312338D80047A00AA
:1028EC007B00D083D08202011F123E44E84922743F
:1028FC00EE12174774FC1216D7EAFEEBFF8518820E
:10290C00851983E4F0A3F0EE24021235DFEE2405E2
:10291C00122B10EE2404F50EEF122EF5E024FE60BF
:10292C003924FC604624FE605224FE605E24FE7056
:10293C0003022A1524FE7003022A8D24FE70030262
:10294C002A9C24FE7003022AAB24FC7003022ABAD0
:10295C0024FE7003022AC9022B069003007417F0A0
:10296C00A3E4122B2A12040E022B06851882851959
:10297C0083AC82AD8312078C022AD6851882851906
:10298C0083AC82AD83120792022AD6850C08850D82
:10299C00097402121723AC82AD83850882850983E2
:1029AC0012338D1206B48A0C8B0DAC0CAD0DEC4DA4
:1029BC006042E4F50CF50D780C12195A750C007583
:1029CC000D03780C12195A750C01750D03780C1245
:1029DC00195A7408121723121971791612338712A7
:1029EC0007CE74081216EDE9F50C700B1233831236
:1029FC000426800F750C01850882850983122B181B
:102A0C001235FB850C08022AD97402121723AC82EA
:102A1C00AD83850C82850D8312338D1206B48A101A
:102A2C008B11AC10AD11EC4D6043850C82850D8380
:102A3C00A3A3121971751000751103781012195A8D
:102A4C00751001751103781012195A740812172396
:102A5C0012197179161233871207CE74081216EDFB
:102A6C00E9F509700B12338312042C800F750901E0
:102A7C00850C82850D83122B181235FB8509088075
:102A8C004C851882851983AC82AD83120798803AE5
:102A9C00851882851983AC82AD8312079E802B85A5
:102AAC001882851983AC82AD831207A4801C85180B
:102ABC0082851983AC82AD831207AA800D8518829A
:102ACC00851983AC82AD831207B0E9F508E508607F
:102ADC00298E828F83A3E06414601F850E82850F7C
:102AEC0083E0900300122B22123E4090030112351A
:102AFC00FBE508A3122B2A120408EEFAEFFB1207CF
:102B0C00320234E7F50CEF3400F50D22123E448509
:102B1C00188285198322F085188285198322F07C0E
:102B2C00007D03850A82850B831233912274EE1289
:102B3C00174774FC1216D78A0A8B0B8C0E8D0FEA72
:102B4C002405F508EB3400F5097C157D0079007A35
:102B5C00007B03120F60E5082402F50CE509122B2B
:102B6C00138518828519838582108583117810123C
:102B7C00195A850882850983A3A3A3A312303D1299
:102B8C00195AE5082405F510E5093400F5117810FB
:102B9C0012195A850C82850D831233971206AE7466
:102BAC00061216ED8A108B11AE10AF11E50A240235
:102BBC00F50AE50B1235E2EE4F7003022CFF80177D
:102BCC00740212172312338D88828983EAF0A3EBE7
:102BDC00F0900300E004F0900300E0C39405400380
:102BEC00022CFFE4F510F511781012195A7510E942
:102BFC00751102781012195A7510EA7511027810B5
:102C0C0012195A74061217231219717910EEFCEF6F
:102C1C00FD1233871207CE74081216EDE9705E852B
:102C2C000882850983A3A3A3A3A3A3A3E0F890021E
:102C3C00E9E068704812303D12195A7CEA7D02E5D1
:102C4C00082408FAE5093400FB120F5A7402121614
:102C5C00EDE960298E828F83A3A3A3A312338D90F9
:102C6C000300E0F510740278101216C474012510DC
:102C7C00F58274033511F583EAF0A3EBF0740212BC
:102C8C001723858210858311781012195A74021239
:102C9C001723121971850C82850D83123E5512066D
:102CAC00BA74041216ED8A108B11AE10AF1190038A
:102CBC0000E0F510751100740278101216C474003F
:102CCC002510F874033511F988828983A312289092
:102CDC007003022BC3E82403F8E93400F9EE4F60CB
:102CEC0003022BCC8882898374FFF0A3F09003003D
:102CFC00E004F0900300E0600A12338312041A79A6
:102D0C0000800B8508828509831235F2790A02341A
:102D1C00E774EA12174774FE1216D78C128D13EA59
:102D2C002405F50CEB123E5F12280275080075099C
:102D3C0000EA2402F510EB3400F511851882851990
:102D4C008385820A85830B780A12195A850C828531
:102D5C000D83A3A3A3A3122EFF12195AE50C24056D
:102D6C00F50AE50D1235E2780A12195A850C82859E
:102D7C000D83123E531206AE74061216ED8A0A8BA0
:102D8C000BEA450B7003022EB0EA2404F50EEB128D
:102D9C002EF51228028A828B83A3A3A3E0F9851057
:102DAC008285118312338D12069CE9F509600302AA
:102DBC002EB0E4F514F515781412195A7514E9753A
:102DCC001502781412195A7514EA75150278141232
:102DDC00195A74061217231219717913AC0AAD0B18
:102DEC0085108285118312338D1207CE740812164A
:102DFC00EDE9F5096003022EB09002E9E0F8E50870
:102E0C007009E02402900301F08017900301E0FCAC
:102E1C00E82402FAE43400FBEA6C7001EB60030274
:102E2C002EB4850882AA82123034941412302C509D
:102E3C0073850E82850F83E0C0E074022A122EEC9B
:102E4C00D0E0F00508850E82850F83A3E0C0E085F5
:102E5C00080A7402250A122EECD0E0F00508900244
:102E6C00E9122EFF12195A7CEA7D0285080A7402B7
:102E7C00250AFA74033400FB120F4874021216ED83
:102E8C009002E9E02508F50874FF6E700374FF6F7B
:102E9C006012EE24010EEF3400FFE508C3941450C9
:102EAC0003022D47E50860131232788510828511D4
:102EBC008312338D12042079008014E50970037598
:102ECC00090A851282851383EEF0A3EFF0A9097429
:102EDC00021216ED7F0E02181985080C7402250CCF
:102EEC00F58274033400F583223400F50F850E82CD
:102EFC00F58322123B822274EE12174774FE1216CF
:102F0C00D78C0E8D0FEA2405F50CEB122B13750BD9
:102F1C0000900300E4F0F50AEA2402F508EB340013
:102F2C00F5098049900300E0FA9002E9E0F81230CC
:102F3C0034941712302C400D900300E0F87416C333
:102F4C00989002E9F012303D12195A7CEA7D027415
:102F5C00012AFA74033400FB120F4874021216EDA6
:102F6C009002E9E0F8900300E028F0050AE50C2453
:102F7C0016F582E50D122EF0E0F8E50AC398400331
:102F8C00023015900300E0C39416507DE50AC3335C
:102F9C00F8E433F9E50C28FEE50D39FF8518828538
:102FAC001983AC82AD838E828F8312338D1206B45B
:102FBC008A108B11AC10AD11EC4D7005750B0180A6
:102FCC0043E4F510F511781012195A7510E97511C2
:102FDC0002781012195A7510EA751102781012192C
:102FEC005A740612172312197179168508828509ED
:102FFC008312338D1207CE74081216EDE9F50B709F
:10300C0003022F301235EE80107C007D0385088280
:10301C0085098312338D120432A90B74020234E930
:10302C00E99400C365D03322EA28F8E43400F9E8C7
:10303C0022E0F51075110078102274EA121747740B
:10304C00FC1216D78A0C8B0D8C128D13EA2405F505
:10305C000AEB1235E2750800750900E50A2402F541
:10306C0010E50B3400F511740212172385820E85BE
:10307C00830F780E12195A850A82850B83A3A3A39A
:10308C00A3123B2E12195AE50A2405F50EE50B3452
:10309C0000F50F780E12195A85108285118312359E
:1030AC00E81233871206AE74061216ED8A0E8B0FD9
:1030BC00AE0EAF0FE50C2402F50EE50D3400F50F46
:1030CC0080408882898374FFF00508122EE574FF16
:1030DC00F005089002E9E0F50C750D00780C12195A
:1030EC005A7CEA7D0285080C7402250CFA740334B0
:1030FC0000FB120F4874021216ED9002E9E025084D
:10310C00F508EE4F60718E828F83A3A3A3E0F9853F
:10311C000E82850F8312338D12069CE9F509EE247D
:10312C0004122B10E97044E4F514F51578141219F7
:10313C005A7514E9751502781412195A7514EA7532
:10314C001502781412195A7408121723121971796E
:10315C0011EEFCEFFD850E82850F8312338D120765
:10316C00CE74081216EDE9F5096027850C82850DE1
:10317C008312326E1235FBE50870030232541232A0
:10318C0078850E82850F8312338D120438790002F4
:10319C003269850882AA82EA9002E97009E0240467
:1031AC00900301F08022E0F8900301E0F514E8248C
:1031BC0004FCE43400FDEC65147001ED70C01230B9
:1031CC0034941212302C50B6850C82850D83E0C0DD
:1031DC00E074022A122EECD0E0F00508850C8285F2
:1031EC000D83A3E0C0E0122EE5D0E012328A858276
:1031FC000C85830D780C12195A74041217231219AA
:10320C0071851082851183123E551206BA74041210
:10321C0016ED8A0C8B0DAE0CAF0D85080C740225C7
:10322C000CF874033400F9EE4F70030230CE85189D
:10323C0082851983E08882898312328AA3E0C0E0F8
:10324C00122EE5D0E00230DCE509700375090A8521
:10325C000A82850B8312326E1235FBA909740402A3
:10326C002EDD123E4485128285138322900301E0E9
:10327C00F5F0E50884900300F07C007D0322F00556
:10328C00088518828519832274EC12174774FE1274
:10329C0016D78A088B098C0E8D0FEA2405FEEB34A9
:1032AC0000FF851882851983AC82AD838E828F8353
:1032BC0012338D1206B48A0A8B0BEE2418122B10C3
:1032CC00EA450B700302335E1234D05032851882FB
:1032DC0085198312338D1207C28A108B11EA45119E
:1032EC00606B7912AC0AAD0B8508828509831233A9
:1032FC008D851082851183121745E9F50A7058E403
:10330C00F50AF50B780A12195A8E828F83A3A3E063
:10331C00F50A780A12195AEE24031235DF780A12CC
:10332C00195A8E828F831233971207D47406121691
:10333C00EDE9F50A7021850C82850D83E0701F85FF
:10334C00088285098312338D12043E8011750A0E92
:10335C008009750A018004E50A60031235EE850CBC
:10336C0082850D83E0600479008002A90A74021240
:10337C0016ED7F0C0218197C007D03850A82850BE3
:10338C008312339122E0FAA3E0FB22E0FCA3E0FDE0
:10339C008508828509831233912274EE12174774C3
:1033AC00FE1216D78A088B098C0C8D0DEA2405FEAB
:1033BC00EB3400FF750E00851882851983AC82AD45
:1033CC00838E828F8312338D1206B48A0A8B0BEA9A
:1033DC00450B70030234BC1234D0503585188285ED
:1033EC00198312338D1207C28A0E8B0FEA450F60B8
:1033FC005E7912AC0AAD0B85088285098312338D78
:10340C00850E82850F83121745E9F50E6003023491
:10341C00BF8508828509831236D6AA0AFB1207B625
:10342C008A108B11A810A911E849701E7AFF7BFF36
:10343C001207B68A108B11A810A911E849606C8884
:10344C00828983E50AF0A3E50BF0750A0080077505
:10345C000E0E805F050A9002E6E0FAE50AC39A5068
:10346C004AE50A75F017A4FAABF088828983A3A306
:10347C00E02AFAA3E03BFB8A828B831235E8EC4D01
:10348C0070D2750A17750B00780A12195AEEFCEFF8
:10349C00FD120F4874021216EDEEFCEFFD8508824A
:1034AC0085098312338D1204448014750E09800330
:1034BC00750E01123E3C850C82850D831235FBA9DD
:1034CC000E023027E5082402F508E5093400F50959
:1034DC008A828B83A3A3A3E0A2E52274041216EDC7
:1034EC007F0A02181974EC1217478C108D11EA24FC
:1034FC0005F50CEB122B13750F00EA2402F50AEB01
:10350C001235E2850A82F58312338D1207B68A08CA
:10351C008B09EA450970030235D4750E008071855C
:10352C000C82850D83E06401704F8E828F83A3A380
:10353C001219718E828F83A3A3A3A3E0F5127513C6
:10354C0000781212195AEE2405F512EF3400F51317
:10355C00781212195A1233871207D474061216ED08
:10356C00E9F50F6014850C82850D83E4F0123E3C66
:10357C008510828511831235FB7C177D007900EE56
:10358C00FAEFFB120F608E828F83E4F0A3F0050E2E
:10359C009002E6E0F8E50EC398501EE50E75F017A4
:1035AC00A4F8A9F0850882850983A3A3123E6912A9
:1035BC0035E8EC4D600302352B8508828509837450
:1035CC00FFF0A3F0E50F700612338712044AA90F1F
:1035DC0002337EF50AEF3400F50B22A3E0FCA3E0E6
:1035EC00FD228E828F83123E44850E82850F83E8E6
:1035FC00F0A3E9F022C082C0839002E2E06A70037B
:10360C00A3E06B70067AE27B0280047A007B0002F6
:10361C0028EEC082C08378008C828D83E06A7003B0
:10362C00A3E06B7010E875F003A4F8A9F0EC28FA8D
:10363C00ED39FB8015088C828D83A3A3A3E06A70FF
:10364C0003A3E06B60DF7A007B000228EE74F612B5
:10365C0017471207808A828B83E582458370067A2E
:10366C00007B008007A3A3A3A312338D023CED744F
:10367C00F2121747E9FE740E1217231236D6741085
:10368C00121723123B4E8C828D83E064027036A39A
:10369C00123E4AF50CA3E0F9A80C7402687003748E
:1036AC0029697021750C02750D00780C12195A7865
:1036BC000812195A780A12195AEEF91207F87406F8
:1036CC001216ED80027901023D71E0F50AA3E0F5D6
:1036DC000B2274E812174774FB1216D7E98518826F
:1036EC00851983F08A168B17ECFEEDFF75100074AC
:1036FC001D121723123E40741D1217231235FB8E18
:10370C00828F83A3A3A3E0A2E4502D741D12172370
:10371C0012338D1207C28A828B83E5824583700334
:10372C00023B1F790AEEFCEFFDAA16AB17121745E8
:10373C00E9F5106003023B22741F121723123B4E53
:10374C0074211217231236D67423121723E0F50EA8
:10375C00A3E0F50F8E828F83E064026003023ACD02
:10376C00A3123E40850882850983A3858212858336
:10377C0013EE2406122B1088828983E0FAA3E0F959
:10378C00EA2400F514E439F51578141219E4010053
:10379C0000280128C2370700022887380328F4378D
:1037AC000029BE390129E93902298A390329BE3990
:1037BC000429683ACD3AE50E450F6003023AC885F4
:1037CC000C82850D83123B43FAE9FB8A828B83E0E2
:1037DC00850A82850B83123B7912195A8A828B8354
:1037EC00A3E0FCA3E0023A52E50E450F6003023A57
:1037FC00C8850A82850B837401F0123B56850882BA
:10380C00850983F07C007D008E828F83A3A3A3A304
:10381C00E02401FAA3E03400FB1206B4EA4B604149
:10382C008A828B83E02402F8850A82850B83E02848
:10383C00F0EA2404F8EB3400F988828983E08512DD
:10384C0082851383123B8B123B7912195A8A828B15
:10385C00831235E7E5082403FAE5093400FB023A44
:10386C0057850A82850B83E02404F07C047D007963
:10387C0000AA12AB13120F60023B22E50E450F603B
:10388C0003023AC8123B56FEA3E0FF850A82850B61
:10389C00837404F0EE850882850983F0EF8512822B
:1038AC00851383F07403121723AC82AD83EEFAEF09
:1038BC00FB1206B48A0C8B0DEA450D700302396BB2
:1038CC008A828B83A3A31227FE740112172385828D
:1038DC000E85830F780E12195A74051217231219BC
:1038EC00717CFF7DFF1206BA74041216ED8B0FEA81
:1038FC00450F7033850C82850D83123B2E12195A9D
:10390C00850C82850D83A31219717C027D007A7D52
:10391C007B821204E674041216EDE9700A7401122B
:10392C00172374FFF0A3F08E828F83E0640270394A
:10393C00750C02750D00780C12195A8E828F831239
:10394C0035E7E5082404FAE5093400FB120F487446
:10395C00021216ED850A82850B83E024028009741D
:10396C0001121723EEF0A3EFF07401121723123B90
:10397C003FF07401121723A3123B37023AC2E50E33
:10398C00450F6003023AC8850C82850D831235E819
:10399C00AA16AB171207EC850A82850B837402F00A
:1039AC00EA850882850983F0851282851383EB02F0
:1039BC003AC5E50E450F6003023AC8123B56F8A310
:1039CC00E0F9850A82850B837402F0E8850882850C
:1039DC000983F0E9851282851383023AC5850C822E
:1039EC00850D8312338D120F42EAFC8C82A882C3A0
:1039FC00950EE4950F405FE8650E7002E50F7004BC
:103A0C007C008022851882851983E0FAE50E2AFA5B
:103A1C00E50F3400FBC3EA98EB94005003E08005FB
:103A2C00E50ECCC39CFCEC850A82850B83F08C0ADA
:103A3C00750B00780A12195A850C82850D83E025C6
:103A4C000EFCA3E0350FFDAA08AB09120F48740257
:103A5C001216ED023B22751007023B22E50E450FB4
:103A6C00705A850C82850D83123E40850A82850B27
:103A7C0083740712280A123B3712280AA3E0851216
:103A8C0082851383F0E82402FAE93400FB8A828BE6
:103A9C0083123B37123B66123B3FA3123B6F123B28
:103AAC0048F0E82405F8E93400F988828983123B50
:103ABC0048A3123B8BA3A3A3A3F0805A75100B80D1
:103ACC0055741D12172312338D1207808A828B8333
:103ADC00E5824583603D123E40880C890DE8450D1A
:103AEC006031780E12195A780A12195A780812197C
:103AFC005A7406121723E0F9EEFCEFFDAA16AB1769
:103B0C00850C82850D8312174574061216EDE9F5A6
:103B1C0010800375100EA91074051216ED7F10029B
:103B2C001819E0F50E750F00780E22E085088285D5
:103B3C00098322123B9522123E44E822123B95A3A4
:103B4C00A322E0F508A3E0F50922850C82850D83FC
:103B5C00E0F8A3E0F5838882E022A3A3F08A828BAD
:103B6C0083A322F088828983A3A3A3A322F08A8251
:103B7C008B83123B8222E0F50A750B00780A22F047
:103B8C0088828983A3123B9522E08508828509836C
:103B9C00A3A32274EE12174774FE1216D78A0A8B4F
:103BAC000BECFAEDFB7414121723E0F510A3E0F5FF
:103BBC00117416121723E0FE7418121723E0F50E79
:103BCC00A3E0F50F851882851983AC82AD831206AC
:103BDC00B48A0C8B0DEA450D6049851882851983D2
:103BEC0012338D1207808A828B83E5824583602F86
:103BFC00A3A3123B4EE50845096024780E12195A0E
:103C0C00781012195AEEF9AC0CAD0DAA0AAB0B8553
:103C1C00088285098312174574041216ED80067903
:103C2C000E8002790102302774F612174774FE12C7
:103C3C0016D7740C121723123B43851882851983EF
:103C4C00F07401121723E9F0E4F508F5097808126D
:103C5C00195A750802780812195A74041217238518
:103C6C008208858309780812195A1207D47406122F
:103C7C0016ED74021216ED806874F7121747EAFEFF
:103C8C00EBFF89087C197D031207ECEA5402600BE8
:103C9C00A908EEFAEFFB1206A880027901022706AA
:103CAC0074F612174774FF6A700374FF6B70168CEE
:103CBC00828D83123CF2E4F08C828D83A3A3A31239
:103CCC003CF2A380181207BC8A088B09A808A90922
:103CDC00E849600D8882898374FF122808A3A3E445
:103CEC00F07F0202181974FFF0A3F08C828D83A36D
:103CFC00A32274F61217471207BC8A828B83E582C3
:103D0C0045836006A3A3E0FA80027A007B0080D191
:103D1C0074F21217478A088B09ECFEEDFF740E1231
:103D2C001723E0F50A1207BC8A0C8B0DA80CA90D01
:103D3C00E8497026EEFCEFFD7AFF7BFF1207BC8A88
:103D4C000C8B0DA80CA90DE849700479118016880C
:103D5C00828983E508F0A3E509F088828983A3A30F
:103D6C00E50AF079007F0602181974EE121747EA7B
:103D7C00FEEBFF8C088D09890C7414121723123E6C
:103D8C0040741612172312338D750D00E849600329
:103D9C00023E347402650C6003023E2F741212173B
:103DAC0023123E4AFCA3E0F9EC2400F50EE439F5AD
:103DBC000FEAF4F8EBF4F9EC58F8E50F59F9E84987
:103DCC00705CE5082406F8ED3400F9880A890B8844
:103DDC0082F583123E551207EC8A108B11E50E65A5
:103DEC00107004E50F65116042780E12195A850A9D
:103DFC0082850B83123E551207F274021216EDE9FE
:103E0C00F50D7027780E12195A850882850983A33F
:103E1C00A3123E5312080474021216ED800D750D98
:103E2C00808008750D0D8003750D0BA90D0234EC07
:103E3C008E828F83123E4422E0F8A3E0F922123ED8
:103E4C004488828983E022A3A3E0FCA3E0FDEEFA80
:103E5C00EFFB223400F50D850C82F58322E028FE61
:103E6C00A3E039FF8E828F832274F2121747EAFE89
:103E7C00EBFF890B7401650B600E7402650B706AA5
:103E8C0079011209D2E97062EEFAEFFB1207B68AD9
:103E9C00088B09EA45096047750A00800B7C177D81
:103EAC00007900120F60050A9002E6E0F8E50AC3FB
:103EBC00985021E50A75F017A4F8A9F085088285B9
:103ECC000983A3A3E028FAA3E039FB8A828B83122F
:103EDC0028F570C985088285098374FFF0A3F07CEE
:103EEC00197D03EEFAEFFB1207E6023D7174F21234
:103EFC0017478A088B09ECFEEDFF740E121723127C
:103F0C0036D6900D16E0F4603D7A097B00120F6CEA
:103F1C00EA4B60328A828B8374B1F0A3E4123B6863
:103F2C00A3123B66A3E508F0A3E509123F55EEF09A
:103F3C00A3EF123F55A3A3E50AF0A3E50BF0900DF8
:103F4C0016E0F9120F78023D71F08A828B83A3A3DD
:103F5C00A3A3A322C082C0839061907404F0A374C5
:103F6C0048F0A37402F09061807440F09061BC74CE
:103F7C0003F09061877419F0906265741BF0906285
:103F8C0049E0C3941390619C400A7409F0906066F8
:103F9C0074018007740DF0906066E4F090619A747F
:103FAC0033F0A37455F09061A0743AF090053FE0A3
:103FBC0064017009C2919003A6746780059003A6F2
:103FCC007461F09026C2E493906186F09026BCE474
:103FDC0093F46027E493540FF8906185E0686012C5
:103FEC00E5C654804449F5C6E59E547F644970F893
:103FFC00E8F053C680E59E547F70FA7905120D2CBB
:10400C000241B2C082C083E5A8F853A87E906181BA
:10401C00E4F0A3F0A3F0C2BA539AFEC289759B00D8
:10402C00C2C275E90075910075BF0075A91175B90B
:10403C0005906181F0A374C0F0A3E4F0D2BA439A66
:10404C000174805842A80241B2C082C08374F81235
:10405C0016D79003A4E0F8A3E0F9E84970030241F5
:10406C00839003A4E0544060237908851882851955
:10407C0083AA82AB83120BA0851882851983AA822E
:10408C00AB831208829003A4E054BFF0E05480602C
:10409C0010790C7A657B05120BA09003A4E0547F79
:1040AC00F0E0A2E0503190619A7433F0A37455F0B3
:1040BC009061A0743AF090053FE064017009C291E0
:1040CC009003A6746780059003A67461F0120888AB
:1040DC009003A4E054FEF0E05402603190619A74B5
:1040EC003FF0A3745AF09061A0747FF090053FE00C
:1040FC0064017009D2919003A6747180059003A697
:10410C00746AF01208889003A4E054FDF0E05404A3
:10411C0060139026C0E493906186F012088E900391
:10412C00A4E054FBF0E0540860139026C1E4939093
:10413C006186F012088E9003A4E054F7F0E054105E
:10414C0060139026C2E493906186F012088E90035F
:10415C00A4E054EFF0E05420600A12088E9003A4FF
:10416C00E054DFF0A3E05401600D120AC812089469
:10417C009003A5E054FEF074081216ED0241B2C093
:10418C0082C083E9600814600A14600C80139026C6
:10419C00C080089026C180039026C2E4939061866B
:1041AC00F08003F0A3F0D083D08202011F74EC12D4
:1041BC00174774F41216D7851882851983AC82AD13
:1041CC008375838275821A74041215EA9026C09343
:1041DC00F46003024345907808E0C3940250030254
:1041EC0043257404121723AC82AD837583817582C9
:1041FC00D674081215EA8518828519838582128572
:10420C0083137404121723AC82AD83750EFF750FE4
:10421C00FF7FFF7E00750C48750D78801574086E55
:10422C0070030242B974096E70030242B9740A6ECB
:10423C00607B850C82850D83780812158F8C828D9E
:10424C0083A909E50AC9F88810741878081214BDF6
:10425C00E5104508F8C3E098A3E099850C82850D1C
:10426C0083780812158F40188C828D837418780807
:10427C001214BDE5104508F8E0C398F8A3E0801CC3
:10428C00741878081214BDE5104508FAE9FB8C8205
:10429C008D83E0F8A3E0F9EAC398F8EB99F9C3E849
:1042AC00950EE9950F5006880E890FEEFF0EE50C62
:1042BC002404F50CE50D3400F50DEEC394135003F6
:1042CC0002422974FF650E700474FF650F60238F22
:1042DC0008740278081216C474482508F58274789C
:1042EC003509F583780812158F851282851383E5BD
:1042FC0008F0EC2402FCED3400FD8512828513835A
:10430C00A3858212858313740C121723E5826C70BB
:10431C0003E5836D60030242177508017509007887
:10432C000812195A7402121723AC82AD837AB07B2F
:10433C000912115874021216ED740C1216ED7F0C42
:10434C00021819C082C0839061AE7468F0A3746ABD
:10435C00F090624574FBF0A304F053F4FD43FE02AD
:10436C0090053F7401F09061A0E0643A90619A70FE
:10437C00237433F0A37455F09061A0743AF0740177
:10438C0064017009C2919003A6746780289003A6FB
:10439C0074618021743FF0A3745AF09061A0747F13
:1043AC00F0740164017009D2919003A674718005B8
:1043BC009003A6746A0241B17F08021819C082C02A
:1043CC00839004F1E06401700A9004F6E0600479D3
:1043DC000C800279000241B2C082C08375E1F19079
:1043EC0004F4E0605B14600914605F14605714708F
:1043FC005E120ADA9004EAE0F97AEB7B04120CAE56
:10440C007AD67BBE7C897D8E120CE47A557B557CEA
:10441C00557D00120CBA9004F5E0F9120CC6790126
:10442C00120D209004E8E0F8A3E0C82416F582E809
:10443C003400F58374F2F0A3740AF079000241B2EF
:10444C00120AE080AF120AE680AA120AEC80A57963
:10445C001280EA74F012174775D90D9004D5E0A2BA
:10446C00E0E4331313F89004EAE0C4333354C04847
:10447C004401F5D978E8790488828983A3A3A3E061
:10448C00F5D988828983A3A882A983E864EE700396
:10449C00E9640470E378D5790488828983A3E0F514
:1044AC00D988828983A3A882A983E864DB7003E995
:1044BC00640470E575E1959004D5E0F97AD67B0437
:1044CC00120CB4900D387486F0A3740AF0A374E83F
:1044DC00F0A3740BF0A374E8F0A3740BF0A374E8CE
:1044EC00F0A3740BF0A3748CF0A3740AF0A374E81B
:1044FC00F0A3740BF0A374A4F0A3740AF0900D460F
:10450C0074E8F0A3740BF0A374E8F0A3740BF0A39D
:10451C0074E8F0A3740BF0A374E8F0A3740BF0A38D
:10452C0074E8F0A3740BF0A374E8F0A3740BF09090
:10453C0004F4E064019004E87012E0F8A3E0F58361
:10454C008882A3A37508007509088010E0F8A3E021
:10455C00F5838882A3A3750804750900750A007594
:10456C000B007808121508750CFF750DFF750EFF02
:10457C00750F007808790C1215569004E8E0F8A332
:10458C00E0C8240EF582E83400F583780812159EF5
:10459C009004E8E0F8A3E0C82414F582E83400F5B0
:1045AC00837413F09003A27402F00243C474F712E4
:1045BC0017479004FAE02407F5D99004EAE0C433D5
:1045CC003354C0F5D978E8790488828983A3A3A3EE
:1045DC00E0F5D988828983A3A882A983E864EE7068
:1045EC0003E9640470E39004FAE0601F78E879044E
:1045FC00FAE82413F582E93400F583E0F5D98882D2
:10460C008983A3A882A9831AEA70E690051AE0248C
:10461C0007F5D99004EAE0C4333354C04404F5D907
:10462C0078E8790488828983A3A3A3E0F5D98882EA
:10463C008983A3A882A983E864EE7003E9640470FB
:10464C00E390051AE0601F78E87904FAE82433F562
:10465C0082E93400F583E0F5D988828983A3A882A6
:10466C00A9831AEA70E675E195900D387492F0A35F
:10467C00740AF0A374E8F0A3740BF0A374E8F0A32D
:10468C00740BF0A374E8F0A3740BF0A3748CF0A378
:10469C00740AF0A374E8F0A3740BF0A374A4F0A351
:1046AC00740AF0900D4674E8F0A3740BF0A374E850
:1046BC00F0A3740BF0A374E8F0A3740BF0A374E8EC
:1046CC00F0A3740BF0A374E8F0A3740BF0A374E8DC
:1046DC00F0A3740BF09004E8E0F8A3E0C8240EF506
:1046EC0082E83400F58374FFF0A3F0A3F0A3F090FC
:1046FC0004E8E0F8A3E0C82414F582E83400F5835C
:10470C007412F09003A27401F0FF02181974F712DE
:10471C0017479004FAE02407F5D99004EAE0C43373
:10472C003354C04402F5D978E8790488828983A38C
:10473C00A3A3E0F5D988828983A3A882A983E8641E
:10474C00EE7003E9640470E39004FAE0601F78E80B
:10475C007904FAE82413F582E93400F583E0F5D9FD
:10476C0088828983A3A882A9831AEA70E675E195E9
:10477C00900D38749EF0A3740AF0A3749EF0A37489
:10478C000AF0A3749EF0A3740AF0A3749EF0A374B1
:10479C000AF0A3749EF0A3740AF0A3749EF0A374A1
:1047AC000AF0A374A4F0A3740AF0900D4674E8F018
:1047BC00A3740BF0A374E8F0A3740BF0A374E8F0EB
:1047CC00A3740BF0A374E8F0A3740BF0A374E8F0DB
:1047DC00A3740BF0A374E8F0A3740BF09004E8E05E
:1047EC00F8A3E0C8240EF582E83400F58374FFF0DA
:1047FC00A3F0A3F0A3F09004E8E0F8A3E0C824141D
:10480C00F582E83400F5837414F09003A27404F07C
:10481C00024AE074F71217479004FAE02407F5D91E
:10482C009004EAE0C4333354C04406F5D978E879EF
:10483C000488828983A3A3A3E0F5D988828983A302
:10484C00A882A983E864EE7003E9640470E3900421
:10485C00FAE0601F78E87904FAE82413F582E93469
:10486C0000F583E0F5D988828983A3A882A9831AED
:10487C00EA70E690051AE02407F5D99004EAE0C442
:10488C00333354C04404F5D978E879048882898399
:10489C00A3A3A3E0F5D988828983A3A882A983E87E
:1048AC0064EE7003E9640470E390051AE0601F780D
:1048BC00E87904FAE82433F582E93400F583E0F56D
:1048CC00D988828983A3A882A9831AEA70E675E144
:1048DC0095900D387498F0A3740AF0A374E8F0A3C3
:1048EC00740BF0A374E8F0A3740BF0A374E8F0A3BA
:1048FC00740BF0A374E8F0A3740BF0A374E8F0A3AA
:10490C00740BF0A374A4F0A3740AF0900D4674E831
:10491C00F0A3740BF0A374E8F0A3740BF0A374E889
:10492C00F0A3740BF0A374E8F0A3740BF0A374E879
:10493C00F0A3740BF0A374E8F0A3740BF09004E8EC
:10494C00E0F8A3E0C8240EF582E83400F58374FF88
:10495C00F0A3F0A3F0A3F09004E8E0F8A3E0C824DF
:10496C0014F582E83400F5837415F09003A27403F7
:10497C00F0024AE0C082C0839004E8E0F8A3E0C8EB
:10498C002406F582E83400F583E40241AF74F71293
:10499C0017479003D0E0F875F003A4C8AAF02AF9E1
:1049AC0074D228F8740339F9E82405FAE93400FBC9
:1049BC008A828B83E0FCA3E0FD88828983A3A3A376
:1049CC00A3A3A3A3A3A3ECF0A3EDF088828983A3F4
:1049DC00A3A3A3A3A3A3E024FFF8A3E034FFF98AC5
:1049EC00828B83E8F0A3E9F0024AE074F7121747D0
:1049FC00EAFEEBFF9061D0E06003024AD475D90E59
:104A0C0075D90375D904EE248BF582EF3400F58348
:104A1C00E5822408F8E5833400F9E0F5D9A3E865CC
:104A2C00827003E9658370F2EE2483F582EF340023
:104A3C00F583E5822404F8E5833400F9E0F5D9A385
:104A4C00E865827003E9658370F275E1957908EE8B
:104A5C00248BFAEF3400FB120B947904EE2483FAC6
:104A6C00EF3400FB120B947C00EEF8EFF9ECFAC378
:104A7C00E49AFA95E0FBEE2AFAEF3BFBEA248AF57E
:104A8C0082EB3400F583E0C0E0E824AAF582E93437
:104A9C0000F583D0E0F00C88828983A3A882A983D7
:104AAC00ECC3940840C7EE246FF582EF3400F58315
:104ABC00E0F8A3E0F9EE2471F582EF3400F583E819
:104ACC00F0A3E9F07901800279008008F0EEA2E011
:104ADC0092AF79007F01021819C082C08375D90288
:104AEC0075D90375D90575E195EA246FF582EB3418
:104AFC0000F583E0F8A3E0F9EA2471F582EB3400C9
:104B0C00F583E8F0A3E9F079010241B274F61217CB
:104B1C0047EAFEEBFF9005457406F07508457509EC
:104B2C0005780812195A7C017903120BDC740212F5
:104B3C0016ED75D90675D903758245758305E0F5B3
:104B4C00D9A3E582644A7004E583640570F075E1CD
:104B5C00959003A2E06408701EEE246FF582EF348A
:104B6C0000F583E0F8A3E0F9EE2471F582EF340050
:104B7C00F583E8F0A3E9F07901024DE674F612171B
:104B8C0047EAFEEBFF9061D0E07066780190054536
:104B9C00740BF09003A2E064077019750845750951
:104BAC0005780812195A7C017903120BDC74021275
:104BBC0016ED7805740128F5D975D90375824575FC
:104BCC008305E8FAE0F5D9A31AEA70F875E195EED9
:104BDC00246FF582EF3400F583E0F8A3E0F9EE24BE
:104BEC0071F582EF3400F583E8F0A3E9F0790180E8
:104BFC00027900024DE674F7121747EAFEEBFF75D7
:104C0C00D90375D90375D90DEE24DDF582EF340087
:104C1C00F583E0F5D975E1957904120CEAEE246F71
:104C2C00F582EF3400F583E0F8A3E0F9EE2471F59A
:104C3C0082EF3400F583E8F0A3E9F07901024AE051
:104C4C0074F6121747EAFEEBFF9061D0E0F874801F
:104C5C00C398FAEE2482F582EF3400F583E0600409
:104C6C00780480027800E8240BF8EAC39850030219
:104C7C004D117D09900545EDF0EE24E2F8EF34007E
:104C8C00F97A467B057C0888828983E08A828B834B
:104C9C00F088828983A3A882A9838A828B83A3AAA2
:104CAC0082AB831CEC70E0EE2482F582EF3400F5CD
:104CBC0083E0601D750845750905780812195A7C42
:104CCC00097903EEFAEFFB120BDC74021216ED7D80
:104CDC000D74012DF5D975D9037582457583058D34
:104CEC0008E0F5D9A31508E50870F675E195790487
:104CFC00120CEAEE241DF582EF3400F583E4F0A3E8
:104D0C00F0790180027900024DE674F6121747EA39
:104D1C00FEEBFF9061D0E0F87480C398FAEE248229
:104D2C00F582EF3400F583E06004780480027800AB
:104D3C00E82408F8EAC3985003024DE4780690057D
:104D4C0045740CF09003BFE0900546F09003C0E072
:104D5C00900547F09003C1E0900548F09003C2E045
:104D6C00900549F09003C3E090054AF0EE2482F5DB
:104D7C0082EF3400F583E0601B75084575090578F2
:104D8C000812195A7C067903EEFA120BDC74021223
:104D9C0016ED780A740128F5D975D9037582457515
:104DAC0083058808E0F5D9A31508E50870F675E1C8
:104DBC00957904120CEAEE246FF582EF3400F5833A
:104DCC00E0F8A3E0F9EE2471F582EF3400F583E806
:104DDC00F0A3E9F07901800279007F0202181974BE
:104DEC00F6121747EAFEEBFF9061D0E0F87480C32F
:104DFC0098FAEE2482F582EF3400F583E0600478B3
:104E0C000480027800E82404F8EAC3985003024EA8
:104E1C00C57802900545E8F0EE24F4F582EF3400F5
:104E2C00F583E0900546F0EE2482F582EF3400F530
:104E3C0083E0601B750845750905780812195A7CC2
:104E4C00027903EEFA120BDC74021216ED7806747A
:104E5C000128F5D975D9037582457583058808E055
:104E6C00F5D9A31508E50870F675E195EE2473F5F0
:104E7C0082EF3400F583E4F0EE247FF582EF34000A
:104E8C00F583E4F0EE241DF582EF3400F583E4F0B5
:104E9C00A3F07904120CEAEE240DF582EF3400F540
:104EAC0083E0F8A3E0F9EE2471F582EF3400F5838A
:104EBC00E8F0A3E9F0790180027900024DE674F67E
:104ECC001217479061D0E0F87480C398FCEA2482F2
:104EDC00F582EB3400F583E06004780480027800FE
:104EEC00E82404F8ECC398405B79029005457407FC
:104EFC00F0EA24F5F582EB3400F583E0900546F0FA
:104F0C00EA2482F582EB3400F583E06018750845DD
:104F1C00750905780812195A7C0209120BDC740207
:104F2C001216ED7906740129F5D975D903758245E8
:104F3C00758305E9F8E0F5D9A318E870F875E195E3
:104F4C00790180027900024DE674F5121747E9FCED
:104F5C00A2AFE433F50AC2AF7D0080010DEA246EE6
:104F6C00F582EB3400F583E0F8EDC398501A8D0808
:104F7C00EA2508F8EB3400F9E8246AF582E93400F4
:104F8C00F583E06C70D68024EA246EF8EB3400F9DB
:104F9C00E0FEEA2EFAEB3400FBEA246AF582EB34ED
:104FAC0000F583ECF088828983E004F0E50AA2E046
:104FBC0092AF7F0302181974F6121747A2AFE433AD
:104FCC00FDC2AFEA246EF582EB3400F583E014F0F9
:104FDC007C0060368C08EA2508F8EB3400F9E824EC
:104FEC006BF582E93400F583E0C0E0E8246AF582D1
:104FFC00E93400F583D0E0F00CEA246EF582EB3452
:10500C0000F583E0F8ECC39840CAEA246DF582EB16
:10501C003400F58374FFF0EA2469F582EB3400F573
:10502C0083E4F0EDA2E092AF024DE6C082C083E5CE
:10503C00A8F8C2AFEA246AF582EB3400F583E9F0F4
:10504C00EA2469F582EB3400F583E4F0E8A2E7A2E8
:10505C00E792AF0241B274F3121747EAFEEBFFEC92
:10506C00FAEDFB8A828B83A3A3A3A3E0541FF0EE7B
:10507C002436F582EF3400F583E4F0F50AEEFCEF0C
:10508C00FD8A828B83E0C0E0EC245DF582ED340078
:10509C00F583D0E0F0750B00E50A33333354F8F5A3
:1050AC000C8A828B83E0F508750900E50B780812F1
:1050BC0016A5E508A2E0502FEE2436F8EF3400F9DF
:1050CC0088828983E0F508EE2508F508EF3400F5B1
:1050DC0009E5082438F582E5093400F583E50CF080
:1050EC0088828983E004F0050B050CE50BC394085A
:1050FC0040AF050A8A828B83A3AA82AB838C828DF4
:10510C0083A3AC82AD83E50AC39405500302508D92
:10511C007F0502181974F71217479003CEE064014B
:10512C00700302527F7A009003D4E0600302527F36
:10513C007401F0A3E4F0A3F090043404F09004396B
:10514C00F09003D7E4F0A3F0A3F0A3F09003E104F4
:10515C00F0900407E4F09003EAF0A3F0A3F0A3F0BE
:10516C00A3F0A3F0A3F0900451F0900445F0900448
:10517C003A7480F0A3E4F0900440F09004BCF0A3E7
:10518C00F0A3F0A3F0A3F0A3F0A3F0A3F09004C558
:10519C00F0900454F09004A4F0A3F0A3F0A3F0A3B7
:1051AC00F0A3F0A3F0A3F0A3F0A3F09004B0F09060
:1051BC0004B2F09004AEF09004C8F0A3F0A3F0A3F6
:1051CC00F0A3F0A3F0A3F0A3F078CE7903E8246E5B
:1051DC00F582E93400F58374FFF00A88828983A391
:1051EC00A882A983EAC3940440E37ACE7B0378DCDB
:1051FC00790488828983E0C0E0EA2461F582EB348B
:10520C0000F583D0E0F088828983A3A882A9838AE1
:10521C00828B83A3AA82AB83E864E17003E9640404
:10522C0070D07ACE7B0378B5790388828983A3E02A
:10523C00C0E0EA24E6F582EB3400F583D0E0F08898
:10524C00828983A3A882A9838A828B83A3AA82AB37
:10525C0083E864BD7003E9640370CF9003CEE0046F
:10526C00F0640170089003D6E09003D0F07AD27B02
:10527C000380047A007B00024AE0C082C083900362
:10528C00D5E4F09003D4F09003CEF0A3F0A374FF18
:10529C00F075E1F10241B2C082C0837800790090D0
:1052AC0003D5E0600478D2790388828983A3A3A311
:1052BC00A3E0F90241B274F6121747EAFEEBFFEED7
:1052CC002463F582EF3400F583E0F8A3E0F9E849B4
:1052DC007003025367EE2463F8EF3400F97A007B15
:1052EC0000A2AFE433F508C2AF88828983E0FCA347
:1052FC00E0FDEC4D603A88828983E0FAA3E0FB8AFA
:10530C00828B83E0FCA3E0FD88828983ECF0A3ED23
:10531C00F08A828B83E4F0A3F088828983E0FCA37B
:10532C00E0FDEC4D700A88828983A3A3E4F0A3F01E
:10533C00E508A2E092AF1212069004E2E004F090AD
:10534C0004E3E004F0EE2463F582EF3400F583E02F
:10535C00F8A3E0F9E84960030252E18E828F83A33F
:10536C00A3A3E0600F8E828F83A3A3A3E4F090032A
:10537C00CFE014F09003CEE014F070069003D074DC
:10538C00FFF08E828F83A3A3E4F09004E1E0700D14
:10539C009003CFE0640170057900120CCCEEFAEFAB
:1053AC00FB120C0C024DE674F7121747EAFEEBFFEA
:1053BC008E828F83A3A3A3A3E0FA7B001208D6EE00
:1053CC00FAEFFB120B5E120BF4024AE0C082C083B0
:1053DC0078B5790388828983A3E4F088828983A3D2
:1053EC00A882A983E864BD7003E9640370E69003A6
:1053FC00B674010241B174F6121747EAFEEBFFECEA
:10540C002403F8ED3400F988088909EC2407F8ED39
:10541C003400F9E8FCE9FD8C828D83E0F8A3E0F917
:10542C00850882850983E0FAA3E0FB12164CEE2472
:10543C000DF582EF3400F583E8F0A3E9F08C828D52
:10544C0083E0F8A3E0F9850882850983E0FAA3E0FC
:10545C00FB12164C8B09EA45096013EE240DF582FC
:10546C00EF3400F583E02401F0A3E03400F0024DAA
:10547C00E674F6121747EAFEEBFFEE242EF582EFE8
:10548C003400F583E0FCA3E0FD780079FAECFAED4A
:10549C00FB12164CEE246FF582EF3400F583E8F026
:1054AC00A3E9F0780079FAECFAEDFB12164C8B09B3
:1054BC00EA45096013EE246FF582EF3400F583E0C2
:1054CC002401F0A3E03400F0024DE674EC1217470F
:1054DC00EAFEEBFF7414121723780812158F120CC6
:1054EC00908A0C8B0D8C0E8D0F751002751100753A
:1054FC001200751300780C79101214F57510FF75E5
:10550C0011FF7512FF780C7910121556780C1219C0
:10551C00568E828F83E0F8A3E0F5838882A3A312D2
:10552C0015AD12236574041216EDE9600302563BA7
:10553C008E828F83E02402F8A3E03400F9E8FAE9C4
:10554C00FB8A828B83780812151B8A828B837508E1
:10555C00FF7509FF750AFF750B00780812157CEEB4
:10556C00240BF582EF3400F583C082C0838E828FCA
:10557C0083A3A3A3A3A3E02401F8A3E03400F9D0F0
:10558C0083D082E0687003A3E0697005790102564C
:10559C003D8E828F83A3A3A3A3A3A3A3E02401F036
:1055AC00A3E03400F0EE2473F582EF3400F583E0D1
:1055BC0064017036EE2474F582EF3400F583E0F864
:1055CC00A3E0F98E828F83A3A3A3A3A3A3A3E06874
:1055DC007003A3E0697013EE2474F582EF3400F5C8
:1055EC0083E02401F0A3E03400F0EE247FF582EF99
:1055FC003400F583E064017036EE2480F582EF34DC
:10560C0000F583E0F8A3E0F98E828F83A3A3A3A314
:10561C00A3A3A3E0687003A3E0697013EE2480F5E4
:10562C0082EF3400F583E02401F0A3E03400F0793C
:10563C000002434A74F6121747E9FEECFFEA2462B3
:10564C00F582EB3400F583E0640160030256E990C7
:10565C0061D0E0F508EA2482F582EB3400F583E0B2
:10566C0060047804800278007480C39508FC95E08F
:10567C00FDEF28F8E43400F9E82402F8E93400F9E5
:10568C00EC98ED99A2D265D033404E740A121723D0
:10569C00E0F508A3E0F509EA2482F582EB3400F585
:1056AC0083E06015780812195AEFFCEEF9120BDC46
:1056BC0074021216ED74042FFF74012FF5D98ED9D4
:1056CC00EF600F850882850983F8E0F5D9A318E807
:1056DC0070F875E195790080067907800279FF02F0
:1056EC004DE674F7121747A2AFE433FEC2AF8A82BD
:1056FC008B83E0F8A3E0F9E8498A828B83600AA3E4
:10570C00A3E0F8A3E0F5838882ECF0A3EDF08A82A5
:10571C008B83A3A3ECF0A3EDF08C828D83E4F0A338
:10572C00024AD874F7121747E96021F88C828D83EE
:10573C00E08A828B83F08C828D83A3AC82AD838ACA
:10574C00828B83A3AA82AB8318E870E0ECFAEDFBA2
:10575C00024AE074F4121747907803E064427055E3
:10576C00900544E014F0704DC2AF12577900782ABE
:10577C00D0E0F618D0E0F6E59F540770057509FFE8
:10578C00800375097FC4C0E07829E6F50808E65562
:10579C0009F509740B78081216B5D0E02508F890B5
:1057AC006270E0A2E740F8E8C333906272F0906256
:1057BC0070E0D2E0F09003D0E0F47003025B59E0AB
:1057CC00F875F003A4C8AAF02AF974D228FE740361
:1057DC0039FFEE2401F582EF3401F583E0F8A3E004
:1057EC00F9E849601EEE2401F582EF3401F583E0FF
:1057FC00FAA3E0FBEE2400F582EF3401F583E0F927
:10580C00120F9C8E828F83A3A3A3A3A3A3A3E0F860
:10581C00A3E0F98E828F83A3A3A3A3A3E8F0A3E94B
:10582C00F0906054E09003A9F0906055E09003AACA
:10583C00F0906056E09003ABF0906057E09003ACB2
:10584C00F0906058E09003ADF0906059E09003AE9A
:10585C00F090605AE09003AFF090605BE09003B082
:10586C00F090605CE0FC9003B1F090605DE0FB9028
:10587C0003B2F090605EE0FD9003B3F090605FE0E7
:10588C00FA9003B4F09003AFE08C082508F8E434E8
:10589C0000F98D08E82508F8E93400F98B08E825AB
:1058AC0008F8E93400F98A08E82508FAE93400FB1D
:1058BC00EE24F6F582EF3400F583E02AF0A3E03B0A
:1058CC00F08C08EE24F8F582EF3400F583E025081F
:1058DC00F0A3E03400F0EE24FAF582EF3400F58307
:1058EC00E02401F0A3E03400F0EE24FEF582EF3466
:1058FC0000F583E0F8A3E0F9E8496042906000E02D
:10590C00C333FCE433FDE82CF582E93DF583E02A52
:10591C00F0A3E03BF0906000E0FA9003B1E0FCEA09
:10592C00C333FAE433FBE82AF8E93BF9E8244AF5F7
:10593C0082E93400F583E02CF0A3E03400F090030E
:10594C00AFE070119003B2E0700BA3E07007A3E01E
:10595C007003025A568E828F83A3A3A3A3A3E0F8ED
:10596C00A3E0F9EE240DF582EF3400F583E028F87E
:10597C00A3E039F9EE240BF582EF3400F583E8F05F
:10598C00A3E9F0EE240FF582EF3400F583E4F0EE9A
:10599C00241CF582EF3400F583E06401701EEE24C4
:1059AC0020F582EF3400F583E0F8A3E0F9EE241D36
:1059BC00F582EF3400F583E8F0A3E9F09003AAE058
:1059CC006052EE241CF582EF3400F5837401F0EE86
:1059DC002469F582EF3400F583E07038EE2473F51A
:1059EC0082EF3400F583E0702BEE247FF582EF34E8
:1059FC0000F583E0701EEE2420F582EF3400F58371
:105A0C00E0F8A3E0F9EE241DF582EF3400F583E80D
:105A1C00F0A3E9F0906062E07003025B098E828F64
:105A2C0083E0F8A3E0F9E82406FCE93400FDE8245F
:105A3C0002FAE93400FB120C8A8E828F83E0F8A301
:105A4C00E0C82412F582E8025B0F9003B1E0603AE3
:105A5C00EE240FF582EF3400F583E4F0EE241CF510
:105A6C0082EF3400F583E064017040EE2420F5826F
:105A7C00EF3400F583E0F8A3E0F9EE241DF582EF96
:105A8C003400F583E8F0A3E98020EE24FCF582EFE6
:105A9C003400F583E02401F0A3E03400F0EE241D83
:105AAC00F582EF3400F583E4F0A3F0EE240BF582DD
:105ABC00EF3400F583E0F8A3E0F98E828F83A3A383
:105ACC00A3A3A3E0687003A3E06960030259C8EEC6
:105ADC00240FF582EF3400F583E060128E828F8301
:105AEC00A3A3A3A3A3E064057002A3E06004790858
:105AFC008002793EEEFAEFFB120B648050EE241D0F
:105B0C00F582EF3400F583E4F0A3F09061C8E06017
:105B1C0006121D21E970F48E828F83A3A3A3E0608B
