:020000040000FA
:0600000002010702221BB1
:03002B0002269317
:030033000226752D
:03003B000226B4E6
:0300430002262969
:0300530002228EF8
:03006B0002264F1B
:10008300022087E5C754F84401F5C779012200002F
:100093000080FB120086B900030200F1E4792178A5
:1000A30008B800028004F709D8FCE479297802B87B
:1000B30000028004F709D8FCE49002817842790CAD
:1000C3008002F0A3D8FCD9FA7AC27B0D900137786D
:1000D3000879048015E493A3AD82AE838A828B836F
:1000E300F0A3AA82AB838D828E83D8E9D9E7758288
:1000F300A075837F74001201197582917583007452
:100103000012011975D00075813F751881751902A8
:10011300759F00020096C09FF59FE473D09F22D085
:1001230083D082C09FE493C0E0740193C0E0740263
:1001330093F59F22FF0000B4000028002800283018
:1001430075A000A000A000A00000080008E001F0D6
:10015300001000100010001000100010005000509C
:1001630000500010001000D0070000000000000F36
:100173000001000500307507001000010081FF0039
:10018300000000FF3C065A064206FF020202080274
:100193005000A0000000E803029A850100008E854C
:1001A30002B485010000190E02A485010000B30208
:1001B30002B4850100001A0E02C485010000C902C1
:1001C30002B4850100001B0E02BA85010000CB02B8
:1001D30002B4850100001C0E02B285080000CC02A7
:1001E30002B4850100001D0E02D2850100001E0E1F
:1001F300FF0100FF20029A85010000948502B48567
:10020300010000820E02AC85000000000002B685EA
:1002130003000019031E0C1E0C1E0C1E0C1E0C1ECC
:100223000C1E0C1E0C1E0C1E0C1E0C1E0C1E0CA0F9
:100233000EB80E9A0EFFFF0202020202020202022F
:10024300010D0000001001029A850100009785024C
:10025300B485010000C50E029C850100005D070204
:10026300B485010000C60E029E85010000AA840227
:10027300B485010000C70E02A68501000073840245
:10028300B485010000C80E02C085010000CE8302C0
:10029300B485010000C90E02AA85010000988302FB
:1002A300B485010000CA0E02B085010000BC8302C0
:1002B300B485010000CB0E02B885010000748302EF
:1002C300B485010000CC0E02BC85010000818402CC
:1002D300B485010000CD0E02BE85010000CE0E01E3
:1002E300E803053F100AFF00013075030201060011
:1002F30000000000000000000000000000000000FB
:100303000000000000000000000000FFFF06008066
:100313000CE80325020305070B0D1113171D1FFB23
:10032300292B2F353B3D4347494F53596165676B34
:100333006D717F83898B95979DA3A7ADB3B5BFC11E
:10034300C5C7D3DFE3E5E9EFF1080964422E44654D
:100353007673051250002003020A000201061106FB
:10036300000000000000FFFF01000100DBFF10F5AB
:1003730064422E4465767300000000000000000014
:100383000000000000561300005C13023078444262
:100393003031000A30784442303200083078444229
:1003A300303300103078444230340008307844420F
:1003B300303500029A85010000918502B485010061
:1003C30000191002C8850100007B0D02C2850100DF
:1003D300001A1002B485010000211002CA8503002F
:1003E300008F0D02C285010000221002B4850100B6
:1003F30000291002CC85020000A30D02C285010072
:10040300002A1002B485010000311002CE850000DD
:1004130000B70D02B685030000B80D02C2850100C6
:1004230000321002B485010000391002D0850200A9
:1004330000BE0D02C2850100003A1012012294A3EE
:1004430003120122ABA303120122DCA30312012234
:1004530017A40312012241A4031201226BA4031265
:10046300012282A40312012299A403120122B0A43F
:1004730003120122D9A403120122ECA403120122C4
:1004830002A50312012215A5031201223CA50312A2
:100493000122EAB202120122EEB30212012226B4B1
:1004A3000212012249B40212012254B4021201229F
:1004B30077B40212012286B5021201225BB6021240
:1004C3000122D6B6021201225EB70212012299B7A7
:1004D30002120122D0B7021201225EB802120122D7
:1004E30037B90212012297B902120122A2B90212EC
:1004F300012221BA0212012224BA0212012227BACE
:1005030002120122B6BA02120122B9BA0212012260
:10051300E9BA0212012213BB0212012201BC021228
:100523000122B3BC0212012263ED021201228BED00
:1005330002120122B9ED02120122F0ED0212012290
:100543004EEE0212012299EE02120122E4EE021291
:10055300012224EF021201226AEF0212012298EF14
:100563000212012255F0021201225FF0021201224F
:100573006CF0021201229FF0021201226BF10212AF
:10058300012277F1021201228FF10212012299F165
:1005930002120122F1AE03120122FFAE0312012265
:1005A30017AF031201222FAF03120122FBBD011269
:1005B3000122A7BE0112012222BF0112012243C060
:1005C300011201227FC00112012228C1011201225E
:1005D3000FC20112012273C301120122CAC3011205
:1005E30001224BC4011201223BC50112012288C51D
:1005F300011201220EC60112012240C6011201227C
:1006030054C80112012296C801120122B4C8011272
:10061300012237C9011201220BCA01120122D3CAD6
:100623000112012278D6021201224BD702120122B3
:10063300F4D70212012247D802120122F7D802127C
:10064300012283D9021201226FDA021201229EDAF9
:1006530002120122B1DB02120122F9DB0212012292
:10066300CEDC021201220ADD0212012226DD021271
:10067300012248B203120122D08703120122E68726
:10068300031201220C88031201222889031201227A
:10069300328903120122678A031201225F8B03123C
:1006A30001223CE8021201226CE9021201229FE9B5
:1006B30002120122E9E902120122B0EB0212012225
:1006C3000CAE0112012276AE01120122D5AF011246
:1006D3000122E5AF0112012212B00112012269B019
:1006E3000112012212B10112012219B201120122D7
:1006F300E3B20112012243B40112012286B40112B2
:1007030001222BB50112012278B5011201229EB5F7
:1007130001120122ACB701120122B1B70112012269
:10072300B6B90112012203BA0112012276BA0112EB
:100733000122A9BA011201224BBB01120122F4BB0F
:10074300011201222CBC011201222FBC0112012231
:1007530077BC01120122B7BC011201220EBD0112A6
:100763000122C29E03120122DA9E03120122229F5A
:1007730003120122389F031201227F9F03120122D9
:1007830093A00312012220A1031201226BA10312E1
:1007930001222827001201223427001201226F2789
:1007A30000120122B4270012012274280012012230
:1007B300FA28001201222629001201225F290012C1
:1007C30001229D2B00120122812D00120122672F8D
:1007D30000120122AA3000120122F8320012012273
:1007E3000A34001201225535001201226536001227
:1007F3000122823600120122BD3600120122DF36A9
:1008030000120122423700120122033C001201228E
:10081300983C00120122E93C00120122103D001213
:100823000122623D00120122803D00120122DA3DC5
:1008330000120122D93E001201225D3F0012012263
:1008430009E30212012213E30212012256E3021208
:10085300012271E30212012201E40212012229E4BE
:100863000212012266E4021201229DE40212012215
:10087300C6E4021201223BE50212012250E50212F4
:10088300012265E50212012296E502120122AAE580
:1008930002120122CFE50212012209E6021201220D
:1008A30035E6021201226DE602120122CCE60212A3
:1008B30001224BE70212012276E702120122BFE76F
:1008C30002120122E9E70212012214E802120122B4
:1008D300FFAC03120122E99A02120122179B0212B2
:1008E3000122659C02120122459D02120122649D90
:1008F30002120122E19D02120122249E0212012210
:100903007A9F021201223BA002120122C2A202120A
:10091300012263A30212012259A40212012256A545
:1009230002120122B0A6021201223BA702120122E7
:10093300A4AB031201220DAC0312012261AC03121A
:10094300012288AC03120122B9AC0312012220F266
:10095300021201228DF202120122D4F202120122AA
:10096300ECF302120122E8F402120122CBF5021287
:1009730001226CF701120122AEF70112012280F865
:100983000112012259F90112012253FA0112012223
:1009930035FB011201229EFB0112012254FC0112BC
:1009A3000122C8FC0112012234FD011201225DFD66
:1009B30001120122D7FD0112012270FE0112012250
:1009C300D5FE01120122EAFE0112012230FF0112BB
:1009D300012249FF01120122AEFF01120122B1FFE0
:1009E30001120122C99B03120122F19B031201226E
:1009F3002F9C03120122ED9C03120122549D03122A
:100A03000122709D03120122989D03120122C89DA9
:100A130003120122D79D03120122549E03120122C5
:100A23007A9E03120122D26C00120122B06E0012D0
:100A33000122E270001201221E71001201224B7189
:100A4300001201223572001201228072001201226B
:100A5300CB7200120122DD72001201221D730012FB
:100A63000122527300120122A07300120122CF73DC
:100A730000120122F273001201223F7400120122BC
:100A8300C47400120122DE76001201221D790012C5
:100A930001225E7900120122007B00120122417BB8
:100AA30000120122B47B00120122057C00120122F4
:100AB300E07C001201220A7D00120122D48D021271
:100AC3000122D28E021201226B95021201228C970F
:100AD30002120122579902120122BF9A0212012225
:100AE300C43F00120122734000120122B9400012D8
:100AF3000122EF41001201221D4200120122B343E1
:100B0300001201222D440012012248440012012246
:100B1300C344001201221D46001201227D47001228
:100B23000122834800120122E44900120122FD49F7
:100B3300001201225B4A00120122494B00120122DA
:100B43007C4B00120122EC4B00120122664C001276
:100B53000122B04C001201227A4D001201224F4EA5
:100B6300001201222E4F00120122B94F001201225E
:100B73002750001201229B5000120122C65000127E
:100B83000122855100120122EA5200120122075369
:100B930000120122265300120122175400120122CF
:100BA3003C5400120122665400120122E154001247
:100BB30001223B5500120122A45600120122525772
:100BC3000012012293570012012200800212012217
:100BD3004E80021201225A8002120122388102122F
:100BE30001226981021201229A81021201221A82D0
:100BF30002120122528202120122A4820212012253
:100C0300E18202120122FE840212012224870212CF
:100C130001220F8902120122F98A021201221D27E1
:100C230000120122F99901120122299A01120122CB
:100C330002A10112012287A20112012284A801123A
:100C430001226CA901120122A9A901120122CCA936
:100C530001120122FDA90112012206AA0112012299
:100C630010AA01120122FEAA01120122F4AB011201
:100C73000122C35700120122C25B00120122C85B8A
:100C8300001201220363001201221C6800120122D8
:100C9300689203120122629303120122D693031274
:100CA3000122149403120122889403120122019554
:100CB300031201220A95031201221695031201223F
:100CC3002B95031201226995031201227F950312CA
:100CD30001228DF6021201229AF602120122B4F6C3
:100CE30002120122F3F60212012231F7021201224B
:100CF30096F702120122ABF702120122B6F7021293
:100D03000122C3F702120122DAF702120122E8F7E5
:100D130002120122F3F702120122FFF7021201224B
:100D23000EF80212012219F8021201223CF80212F3
:100D33000122E3F802120122F3F8021201220DF953
:100D4300021201222AF90212012246F90212012299
:100D53006BF90212012276F9021201228BF90212B7
:100D630001229FF90212012200FA0212012206FA5D
:100D7300021201220CFA0212012212FA02120122B9
:100D83002AFA021201225DFA021201225DDB01122C
:100D93000122E1DB0112012290DC01120122EFDDCD
:100DA3000112012210E001120122FCE001120122D2
:100DB30031E10112012253E10112012202E2011287
:100DC3000122FAE30112012223E401120122B5E414
:100DD30001120122E7E401120122F4E401120122CB
:100DE3004BE50112012271E501120122DEE7011236
:100DF3000122E1E80112012239E901120122ECCCBE
:100E030001120122F6CD01120122DDCE01120122CF
:100E1300E7CE0112012209CF0112012215CF0112DF
:100E23000122AED001120122DDD001120122F9D13B
:100E33000112012252D201120122B8D3011201225E
:100E430097D401120122F3D40112012260D50112B9
:100E530001229BD501120122DAD50112012293D876
:100E630001120122ADD80112012239D90112012246
:100E730047D901120122A0D901120122AED90112D0
:100E8300012221DA0112012285DA01120122CFDACD
:100E930001120122BCA702120122DEA702120122C3
:100EA30004AA0212012219AD0212012231AE02126A
:100EB3000122E4AE02120122C6AF0212012200A7F0
:100EC3000312012225A70312012297A7031201226D
:100ED300FECE0212012207CF0212012210CF02120C
:100EE3000122E7CF0212012298D102120122CED1B0
:100EF3000212012208D2021201223ED20212012260
:100F030078D202120122ACD202120122D8D20212EA
:100F1300012221D3021201225BD302120122A4D3A4
:100F230002120122FCD30212012231D40212012245
:100F33008CD402120122C6D40212012217D5021246
:100F430001224DD50212012287D502120122B5D505
:100F530002120122D8D5021201227EB0031201220D
:100F6300AAB00312012205B1031201220FB1031229
:100F730001221FB1031201229BDD02120122A5DD12
:100F830002120122E3DD021201222CDE02120122EF
:100F930066DE02120122C0DE02120122E1DE02122B
:100FA3000122EADE021201223BDF0212012264DF88
:100FB300021201226EDF02120122DADF0212012283
:100FC30068E002120122B6E002120122ECE00212F2
:100FD300012273E102120122B3E102120122EBE1C9
:100FE30002120122FDE1021201221CE2021201227D
:100FF30025E202120122DFE202120122698B0312AF
:1010030001225E8C03120122788C03120122898C47
:1010130003120122BE8E0312012295A103120122A3
:10102300CBA10312012201A2031201225AA303122C
:101033000122CCB203120122E2B203120122ECB26A
:101043000312012236B303120122DAFA0212012239
:10105300F3FA0212012297FB02120122D7FB0212BA
:101063000122F0FB0212012224FC0212012271FC74
:1010730002120122A5FC02120122E7FC0212012244
:1010830018AE0312012241AE031201226AAE03120B
:101093000122ACAE03120122AF9503120122D495B3
:1010A30003120122009603120122E3B30312012269
:1010B300D685011201223A8801120122EC8901121C
:1010C3000122DE8A01120122638B01120122E18BCC
:1010D300011201220E8C01120122328F0112012210
:1010E300AC8F011201229B9001120122D5900112B3
:1010F3000122159101120122CF92011201222293A2
:10110300011201226B9301120122D99301120122D0
:101113000B9401120122239401120122389501122A
:1011230001224895011201227896011201229A9612
:1011330001120122D0960112012275980112012297
:10114300B49801120122D49901120122C8AF0312EB
:101153000122D9AF031201229AB303120122D9B398
:101163000312012256B40312012229B103120122F0
:1011730039B10312012251B103120122B7B1031293
:101183000122EBFE0212012270FF02120122D6FF9E
:10119300021201222CAA0312012255AA03120122D0
:1011A300C0AA0312012211AB031201226AAB03127C
:1011B3000122EC830312012223840312012293846C
:1011C30003120122A88403120122F18503120122D2
:1011D300B78603120122D68603120122FD8603126B
:1011E30001223287031201224A87031201229B87BD
:1011F30003120122EFFF02120122F98E03120122D0
:10120300898F031201220790031201229090031287
:101213000122259103120122AF9103120122B991F8
:1012230003120122C89103120122DE91031201224B
:10123300F1910312012251920312012265920312CA
:101243000122C1B1031201222BB2031201223DB2CA
:1012530003120122A5A803120122FAA803120122F4
:1012630068A903120122D8A903120122357D0012B5
:1012730001225F7D00120122347E00120122287FA9
:1012830000120122CEC6021201228BC702120122D2
:10129300C6C702120122EEC70212012250C802126F
:1012A30001229CC802120122F5C80212012286C93A
:1012B3000212012288CA0212012245CC0212012223
:1012C300C7CC021201222CCD0212012243CD0212FD
:1012D300012253CE0212012291CE0212012287E98A
:1012E3000112012211ED0112012299EE01120122D4
:1012F300F0EE011201220FEF011201228DEF011214
:1013030001222BF1011201220FF201120122F9F540
:1013130001120122C9F601120122C098031201220F
:10132300EF98031201220599031201224D9903122A
:1013330001228F9903120122FA9903120122CC9AF6
:1013430003120122449B0312012224BD0212012233
:1013530073BF021201229BC002120122ECC20212CD
:1013630001225DC302120122D1C30212012219C458
:101373000212012230C402120122CFC4021201223E
:1013830038C50212012200C60212012232C602121D
:101393000122008003120122458003120122628090
:1013A30003120122F180031201226581031201223B
:1013B3003F8203120122B383031201224EA50312BB
:1013C300012272A50312012240A603120122B8A62C
:1013D300031201222AB403120122D5FF01E0667031
:1013E3001008A3E066700A08A3E066700408A3E08F
:1013F3006622C3E7960809E7960809E7960809E70E
:101403009622C3E09608A3E09608A3E09608A3E01B
:101413009622C008C3E096F50808A3E096420808A0
:10142300A3E096420808A3E09645087001D3D008CC
:1014330022080808EAC0E0EBC0E086F0E7A4FA1847
:101443000986F0E7A42AFA180986F0E7A42AFA180D
:101453000986F0E7A42AFA1986F0E7A4FBE5F02A47
:10146300FA190886F0E7A42BFBE5F03AFA19088687
:10147300F0E7A42BFBE5F03AFA18180986F0E7A485
:10148300C5F02BFBE43AFA1908E7C5F0C6A426F623
:10149300E5F03BFBE43AFA1886F0E7A4F6E5F0083A
:1014A30026F6E43B08F6E43A08F6D0E0FBD0E0FA8F
:1014B30022E4CFC0E0E4CEC0E0E4CDC0E0E4CCC0A1
:1014C300E075F020E626F608E633F608E633F6087C
:1014D300E633F6181818EC33FCED33FDEE33FEEF6C
:1014E30033FFC3EC9709ED9709EE9709EF971919A5
:1014F30019400FFFEC97FC09ED97FD09EE97FE19D4
:101503001906D5F0BFECF709EDF709EEF709EFF788
:10151300191919D0E0FCD0E0FDD0E0FED0E0FF22A5
:101523006016080808C6C313C618C613C618C61320
:10153300C618C613C6D5E0EA227009080808226057
:1015430016181818C6C333C608C633C608C633C62A
:1015530008C633C6D5E0EA22E627F60809E637F6D9
:101563000809E637F60809E637F622E026F608A367
:10157300E036F608A3E036F608A3E036F622E026C6
:10158300F008A3E036F008A3E036F008A3E036F055
:1015930022C3E697F60809E697F60809E697F608E0
:1015A30009E697F622C3E096F008A3E096F008A3B5
:1015B300E096F008A3E096F022E657F60809E6570E
:1015C300F60809E657F60809E657F622E056F60844
:1015D300A3E056F608A3E056F608A3E056F622E089
:1015E30056F008A3E056F008A3E056F008A3E0562F
:1015F300F022E0F608A3E0F608A3E0F608A3E0F67D
:1016030022E6F008A3E6F008A3E6F008A3E6F0223A
:10161300E0FAA3E0FBA3E0FCA3E0FD22EAF0A3EBE6
:10162300F0A3ECF0A3EDF022E0F8A3E0F9A3E0FAD5
:10163300A3E0FB22E8F0A3E9F0A3EAF0A3EBF02296
:10164300CAC0E0E6F0A308DAFAD0E0FA22CAC0E0A2
:10165300E0A3C582CCC582C583CDC583F0A3C58273
:10166300CCC582C583CDC583DAE6D0E0CA22C3E404
:1016730098F8E499F91216B28026C3E49AFAE49B27
:10168300FBE920E7E91216B2E498F8E499F922C3DA
:10169300E498F8E499F91216B2E498F8E499F9C3D6
:1016A300E49AFAE49BFB22EB20E7CFE920E7E0B9D9
:1016B3000010BB0008E88AF084F8AAF022E4FBC813
:1016C300FA22EB70227B10C833C8C933C9335007E1
:1016D300C39AC3DBF280069A50012ADBEAC833F4CB
:1016E300C8C933F4C9FA2275F008E4C833C8C9334A
:1016F300C933C99AC99B5004C92AC93BD5F0ECFB2D
:10170300C833F4C8E4C9FA22600D08C6A2E713C6B9
:1017130018C613C6D5E0F322600C08C6C313C61857
:10172300C613C6D5E0F422700422600D18C6C33375
:10173300C608C633C6D5E0F41822251810AF08F53D
:1017430018400C15198008F51840021519D2AF225C
:1017530000C0D0251810AF08F518500C05198008E3
:10176300F51850020519D2AFD0D0222518F58210F2
:10177300AF08F518400C15198008F5184002151923
:10178300D2AF851983222518F582E43519F5832212
:101793002518F8E43519F9222518FAE43519FB223E
:1017A3002518FCE43519FD22E4732518C582C0E031
:1017B300E51934FFC583C0E0E518C3958224F8100A
:1017C300AF08858319858218800885831985821857
:1017D300D2AFCEF0A3E520F0A37808E608F0A3DEAD
:1017E300FAEFF0A3E58124FAF8E608F0A3E608F09F
:1017F300A3E608F0A30808E608F0A3E608F0A3159B
:10180300811581D0E0FED0E0F8158115811581E8BE
:10181300C0E0EEC0E0222518C582C0E0E51934FF20
:10182300C583C0E0E518C3958224F910AF0885830A
:10183300198582188008858319858218D2AFCEF066
:10184300A3E520F0A37808E608F0A3DEFAEFF0A3FF
:10185300E58124FBF8E608F0A3E608F0A30808E610
:1018630008F0A3E608F0A315811581D0E0FED0E0CF
:10187300F815811581E8C0E0EEC0E0228519838563
:101883001882E0A3FEE0A3F5207808E0A3F608DFC2
:10189300FAE0A3FFE0A3C0E0E0A3C0E0E0A3C0E060
:1018A300E0A3C0E0E0A3C0E010AF08858218858301
:1018B300198008858218858319D2AFD083D082021C
:1018C300011F851983851882E0A3FEE0A3F5207824
:1018D30008E0A3F608DFFAE0A3FFE0A3C0E0E0A37B
:1018E300C0E0E0A3C0E0E0A3C0E010AF0885821829
:1018F3008583198008858218858319D2AFD083D058
:101903008222C0D02518C582C0E0E51934FFC58303
:10191300C0E0E518C3958224F310AF0885831985C9
:1019230082188008858319858218D2AFC8F0A3E98D
:10193300F0A3EAF0A3EBF0A37908E709F0A3D8FA40
:10194300ECF0A3EDF0A3EEF0A3EFF0A3D0E0F0A34F
:10195300D0E0F0A3D0E0F0A3E520F0A3E5F0F0A3FE
:1019630022851983851882E0C0E0A3E0F9A3E0FA99
:10197300A3E0FBA37808E0F608A3DFFAE0FCA3E00A
:10198300FDA3E0FEA3E0FFA3E0C0E0A3E0C0E0A36B
:10199300E0F5D0A3E0F520A3E0A3F5F010AF0885B0
:1019A30083198582188008858319858218D2AFD060
:1019B30082D083D0E0F8D0E03274048006740280D1
:1019C300027401C0E0F40412176ED0E01216432231
:1019D3007404800474028000CCC0E0EDC0E0E5181C
:1019E300C39CCCAD1950011D10AF068C188D198006
:1019F300068C188D19D2AF121650D0E0FDD0E0FC42
:101A030022D083D082E9C0E0E493A3C386F0C5F07B
:101A130095F0F908E493A386F0C5F095F0700BE414
:101A230093A3C3994005E9048002A3E475F002A4DB
:101A33002582F582E5F03583F583D0E0F9E493A3BD
:101A4300C0E0E493C0E022D083D082ECC0E0EDC0DC
:101A5300E0E493A3FCE493A3FDED4C600D121A960E
:101A6300EC24FFFCED34FFFD80EFE493A3FCE4934F
:101A7300A3FDED4C600D121AD5EC24FFFCED34FFF1
:101A8300FD80EFD0E0FDD0E0FCE493A3C0E0E4935D
:101A9300C0E022C0E0C3E493960874019396184013
:101AA3000FE4936670080874019366187000701948
:101AB300A3A3C3E49396087401939618A3A3400DBC
:101AC300D0E0D0E0D0E0021A86A3A3A3A3A3A3D0BF
:101AD300E022C0E0C0F088F0E49366700808740167
:101AE3009366187000A8F0A3A3700BD0F0D0E0D0D9
:101AF300E0D0E0021A86A3A3D0F0D0E02274F5125E
:101B03001819EAFEEBFFEE2434F8EF3400F98808E5
:101B13008909EE2435F582EF3400F583E0F8EE24ED
:101B230037F582EF3400F583E0F50AEC850AF0A47B
:101B3300FCAAF0850AF0EDA42AFDE82CF8E43DF9AF
:101B43007A257B001216B2EA850882850983F0F8AC
:101B5300740758F97401B900028004C333D9FCFA3D
:101B6300E8131313541FF8EE28F8EF3400F9E824B0
:101B73005DF582E93400F583E05A6008EE2434F51C
:101B830082EF802CEE2434F582EF3400F583E0C03D
:101B9300E0EE2436F582EF3400F583E0F5F0D0E093
:101BA30084A8F0EE28F8EF3400F9E82438F582E948
:101BB3003400F583E0F97F040218C574F51218198F
:101BC300EAFEEBFFEE2434F582EF3400F583E0C048
:101BD300E0EE2435F582EF3400F583D0E0F08E8219
:101BE3008F83A3A3A3A3A3A3A3C082C0838E828F47
:101BF30083A3A3A3A3A3E0F8A3E0F9D083D082E057
:101C0300C398F508A3E099F509EE247FF582EF3434
:101C130000F583E064017069EE2480F582EF3400FF
:101C2300F583E0F8A3E0F98E828F83A3A3A3A3A394
:101C3300A3A3E0FCA3E0FD8E828F83A3A3A3A3A3AE
:101C4300E0FAA3E0FBC3EA9CEB9D5010C3EC98EDD4
:101C530099402EC3EA98EB995027800EC3EA98EB7C
:101C6300994007C3EC98ED9940177CDC7D04EEFAAC
:101C7300EFFB120B7CEE247FF582EF3400F583E457
:101C8300F0EE2434F8EF3400F9E8FCE9FDEE2435F6
:101C9300F582EF3400F583E0F8EE2437F582EF3474
:101CA30000F583E0F50AE508850AF0A4F508AAF033
:101CB300850AF0E509A42AF509E82508F8E43509B9
:101CC300F97A257B001216B2EA8C828D83F0F874C0
:101CD3000758F97401B900028004C333D9FCFAE848
:101CE300131313541FF8EE28F8EF3400F9E8245DBA
:101CF300F582E93400F583E05A6008EE2434F58276
:101D0300EF802CEE2434F582EF3400F583E0C0E05D
:101D1300EE2436F582EF3400F583E0F5F0D0E0846D
:101D2300A8F0EE28F8EF3400F9E82438F582E93416
:101D330000F583E0F9122615021BB9C082C0838522
:101D43001882851983E0F8A3E0F9C3EA9CEB9D5060
:101D530010C3EC98ED99401BC3EA98EB995014809B
:101D63000EC3EA98EB994007C3EC98ED99400479C8
:101D73000180027900D083D08222EAC39CFAEB9DD2
:101D8300FB2274EF1218199003A2E064086005E0C7
:101D93006407702A9061C8E060249003D0E0F46087
:101DA3001DE0F875F003A4C8AAF02AF974D228FE3E
:101DB300740339FF8E828F83A3A3A3E07003021EF3
:101DC300B5906060E0C0E0EE2468F582EF3400F582
:101DD30083D0E0F0750C45750D0575080075090095
:101DE300E5D914F50AE5D95403F50E6017740365B4
:101DF3000E605CE50A6010EE2467F582EF3400F5AF
:101E030083E07003021E9A900540E06401602AEEAD
:101E13002482F582EF3400F583E0600478048002C5
:101E23007800850A08E508C398FA95E0FB120A389A
:101E33008A088B09EA45097005120D6E8074EE2439
:101E430082F582EF3400F583E070048A0C8B0DE594
:101E53000A6012850C82850D83F50BE5D9F0A31575
:101E63000BE50B70F6EE2482F582EF3400F583E088
:101E7300604474FC250AF50A780C1219C0AC0AA94F
:101E83000EEEFAEFFB120C187402121753E97026C8
:101E9300AA08AB0912125A793D8E828F83A3A3A39A
:101EA300A3E0FA7B0012090CEEFAEFFB120B94127B
:101EB3000C2A790080747403650E6056850A1075C8
:101EC300110078101219C0AC0CAD0DAA08AB0912A1
:101ED3000BF47402121753EE2468F582EF3400F505
:101EE30083E064807004747F8001E0F50C780C1249
:101EF30019C4E50EF50C780C1219C4A90AAC08AD87
:101F0300099003D0E0FA7B001208D0740212175331
:101F130080139003A2E06408600BAC0CAD0DEEFAE5
:101F2300EFFB120C84120D7A79017F0A0218C57433
:101F3300F512181974FC12173DEAFEEBFF8908A28B
:101F4300AFE433F509C2AF806AEE2463F8EF3400DF
:101F5300F97A007B00A2AFE433F50AC2AF88828925
:101F630083E0FCA3E0FDEC4D603A88828983E0FACC
:101F7300A3E0FB8A828B83E0FCA3E0FD8882898354
:101F8300ECF0A3EDF08A828B83E4F0A3F0888289DE
:101F930083E0FCA3E0FDEC4D700A88828983A3A350
:101FA300E4F0A3F0E50AA2E092AF12125A9004E320
:101FB300E004F0EE2463F582EF3400F583E0F8A348
:101FC300E0F9E849603DEE2463F582EF3400F583E0
:101FD300E02402FAA3E03400FBEA2402F50AEB341E
:101FE30000F50B780A1219C08A828B83E0FCA3E008
:101FF300F9EEFAEFFB120BB87402121753E97003F0
:10200300021F4C9004E3E060639004E4E0F8900462
:10201300E3E0C398500C7402650870509004E5E047
:10202300604A8E828F83A3A3A3A3E08518828519B8
:1020330083F0A3E4F09004E3E0F87402121789E854
:10204300F0A3E4F09004E3E0F89004E2E028F074F5
:1020530002121789AC82AD83851882851983AA82FF
:10206300AB8379011208DC9004E3E4F0E509A2E014
:1020730092AF7404121753021BB900000085218725
:102083008522C622C0E0C0D0E8C0E0E9C0E0EAC0D3
:10209300E0EBC0E0ECC0E0EDC0E0EEC0E0C008C0A3
:1020A30009C00AC00BC082C083C0F0A2AFE433FEF4
:1020B300C2AF759B00906182E0A2E05012E591A24D
:1020C300E0500C7591FE740165217003121D85E0CB
:1020D300A2E55051E591A2E5504B7591DF9003A223
:1020E300E064076005E064087023740165217035BE
:1020F30079019003D0E0FA75F003A4CAA8F028FB95
:1021030074D22AFA74033BFB121F328018E0640D69
:1021130070139003C4E004F064287002E4F07A00C2
:10212300E0F9120D80906182E0A2E640030221CE25
:10213300E591A2E640030221CE7591BF9003A2E090
:1021430064057008120CAE120CBA8003120CB4753D
:102153002100120D0EE99003A3F07900120D021273
:102163000AEC7A017B009003A1E0F9120FD2907878
:1021730003E064427055900544E014F0704DC2AF23
:1021830012218600782AD0E0F618D0E0F6E59F54B5
:102193000770057509FF800375097FC4C0E07829BE
:1021A300E6F50808E65509F509740B780812171BBC
:1021B300D0E02508F8906270E0A2E740F8E8C33366
:1021C300906272F0906270E0D2E0F0906181E0A2E0
:1021D300E35009E5E9A2E3500375E9F7A3E0A2E7B9
:1021E3005009E591A2E7500375917FEEA2E092AF0B
:1021F300D0F0D083D082D00BD00AD009D008D0E061
:10220300FED0E0FDD0E0FCD0E0FBD0E0FAD0E0F976
:10221300D0E0F8D0D0D0E032C0E0C0D0C082C083DC
:10222300906183E0A2E05009E5BFA2E0500375BFCF
:10223300FEE0A2E15009E5BFA2E1500375BFFDE056
:10224300A2E25009E5BFA2E2500375BFFBE0A2E39F
:102253005009E5BFA2E3500375BFF7E0A2E45009BC
:10226300E5BFA2E4500375BFEFE0A2E55009E5BF67
:10227300A2E5500375BFDFE0A2E65009E5BFA2E681
:10228300500375BFBFD083D0828088C0E0C0D0E840
:10229300C0E0E9C0E0EAC0E0EBC0E0ECC0E0EDC0C4
:1022A300E0C0F0E5A7A2E6500FE5A1A2E65009536E
:1022B300A7BF75A1BF1222F3E5A7A2E5500CE5A1C4
:1022C300A2E5500653A7DF75A1DFE5A7A2E15009F8
:1022D300E5A1A2E1500375A1FDE5A7A2E2500CE53B
:1022E300A1A2E2500653A7FB75A1FBD0F002220482
:1022F30074F81218197521019003A2E06406701591
:10230300120C488A828B83A3A3A3A3A3A3E0FAA3FB
:10231300E0FB120C9CA2AFE433FED2AF9003A8E023
:10232300640170187A207B009003A1E0F912106E0B
:102333007A207B009003A1E0F9120FD8906182E02C
:10234300D2E6F0900541E0602185C6228016900315
:10235300A7E064017008E5C654F84405F5C653BE0A
:10236300FC1220807401652160E4EEA2E092AF7F4D
:10237300010218C5008E238F248582288583278533
:102383001882851983E0CEA3E0CF85288285278331
:10239300EBC9EAC8EDCBECCA75F010C3E833C8E962
:1023A30033C9EA33CAEB33CBC3EA9EF526EB9FF579
:1023B30025B35004AB25AA26EC33CCED33CDD5F0B1
:1023C300DAAE23AF242274ED1218198A088B098C14
:1023D3000A8D0B7413121789780C1215F578087986
:1023E3000C1213F57510017511C8751200751300E1
:1023F30050127808790C121594781079081213F595
:1024030050168010780C79081215947810790C12F4
:1024130013F540047901800279007F0C0218C5741A
:10242300ED1218198A088B098C0A8D0B7413121775
:1024330089780C1215F5780C79081213F540117888
:1024430008790C121594AA08AB09AC0AAD0B8022CB
:102453007510007511007512007513017810790C51
:102463001215947810790812155BAA10AB11AC12EF
:10247300AD1380A68A828B837508FF7509FF750AE1
:10248300FF750B0078081215E27F040218C574F576
:102493001218198C828D8378081215F58A828B8322
:1024A30078081215A8EA2404F8EB3400F98C828D1D
:1024B30083A3A3A3A3E0FCA3E0FD88828983C3E0F5
:1024C3009CF0A3E09DF088828983C3E09420A3E07D
:1024D300944E40268A828B837508FF7509FF750A1F
:1024E300FF750BFF78081215818A828B83A3A3A340
:1024F300A3E02420F0A3E0344EF002247774F51215
:102503001819E9FE9004F7E0FAA3E0FBEEC333F8F1
:10251300E433F9744428F582748439F583E02AF5A9
:1025230008A3E03BF50978081219C07A407B427C86
:102533000F7D0012237874021217538A088B098CBB
:102543000A8D0B74107808121523AA08AB097F04AF
:102553000218C574F11218198A0C8B0D8C0E8D0F8D
:10256300740F121789E0FAA3E0FB7411121789E0C4
:10257300F508A3E0F50978081219C0EA2401F50863
:10258300EB3400F509E4F50AF50B780C790812141D
:1025930034750871750902780C7908121434AA0C81
:1025A300AB0DAC0EAD0F12237874021217538B09C7
:1025B300EA450960047A0180027A00EC2AFCED34D2
:1025C30000FD7413121789E0F8A3E0F9E8FEE9FFB0
:1025D300ECF8EDF97A717B021216B2880889098E3C
:1025E300828F837808121604ECF8EDF97A717B0276
:1025F3001216B28A088B097405780812172A8E827C
:102603008F83A3A3A3A3E508F0A3E509F07F080242
:1026130018C5C082C083E9906000F0D083D08222C5
:10262300C2AF02000022C0E074F2121905A2AFE4A7
:1026330033FED2AFC2C0E5D1A2E4500653D1EF12AC
:10264300123CEEA2E092AF7F01021964C0E074F283
:10265300121905A2AFE433FED2AFE589A2E150031C
:102663001211AC758900C2C5EEA2E092AF7F0102E0
:102673001964C0E074F2121905A2AFE433FED2AFBD
:10268300E58BA2E050031211AC758B00C2E880D831
:10269300C0E0C0D0E8C0E0E9C0E0E5A8D2AFC2C75F
:1026A300A2E7A2E792AFD0E0F9D0E0F8D0D0D0E033
:1026B30032C0E0C0D0E8C0E0E9C0E0C008C009C053
:1026C30082C083A2AFE433F9D2AF9009D3E0F8A379
:1026D300E0687008539AFBA374018025C2E990094E
:1026E300D3E0F50874012508F074532508F582E456
:1026F3003409F583E0F5C19009D3E0C39480400227
:10270300E4F0E9A2E092AFD083D082D009D008D020
:10271300E0F9D0E0F8D0D0D0E03202011FFFFFFF94
:10272300FFFFFFFFFFC082C083E9900E81F0022903
:102733005274F71217ADE99002E1F07C197D037A28
:10274300FF7BFF12081C9002E274FFF0A3F0A3E4E6
:10275300F0A3F079051207AA9002E1E0F91206CC82
:102763007A347B081209EA7F0102187F74F4121786
:10277300AD8A088B09EB548060309002E1E0F912D6
:102783000FBA8A0A8B0BAE0AAF0BEE4F60138E8221
:102793008F83E064B070031207BCEEFAEFFB120FF5
:1027A300A8AA08E5096480FB80047A007B0002295B
:1027B3002174F21217AD74FC12173DEAFEEBFFEE23
:1027C3004F60387402121789EEF0A3EF122B86ECD8
:1027D300F0A3ED122B86AA82AB831206C6E9F50895
:1027E3007073741212178912373AE50A450B606544
:1027F3008E828F83122862EE4F7005750802805512
:102803007A067B001210268A0C8B0DA80CA90DE802
:10281300497005750813803D88828983E412286C0A
:10282300A3A3EEF0A3EF123BD3E50AF0A3E50BF06D
:102833009002E71228F49002E76017E0FCA3E0801F
:1028430003EAFCEBFD8C828D831228F470F38C82F7
:102853008D8312365FA9087404121753023DD5A362
:10286300A3A3A3E0FEA3E0FF22F0A3F08882898361
:102873002274F21217AD890AE975F017A4FEAFF0BE
:102883009002E6E4F09002E41228F4600A12102C9D
:102893009002E4E4F0A3F0EEFAEFFB1210268A08AC
:1028A3008B09EA4509602FEEFCEFFD7900120F96C4
:1028B3009002E4E508F0A3E509F07B008008122804
:1028C300DEE4F0A3F00BEBC3950A40F2E50A9002B5
:1028D300E6F0790080027913023DD5EB75F017A479
:1028E300F8A9F09002E4E028FAA3E0398A82F5839C
:1028F300221233F5EA4B2274F41217AD7900EAA2DF
:10290300E0501B75083875098578081219C07C04D6
:102913007D007A837B0E1207A474021217537F047F
:1029230002187FC082C0839002E7122959601C8875
:10293300828983A3A3E06A7003A3E06B88828983FF
:1029430070E8A3A3A3A31233F180047A007B00D021
:1029530083D08202011F123EA8E8492274EE1217A7
:10296300AD74FC12173DEAFEEBFF851882851983CF
:10297300E4F0A3F0EE2402123643EE2405122B7486
:10298300EE2404F50EEF122F59E024FE603924FCE7
:10299300604624FE605224FE605E24FE7003022A19
:1029A3007924FE7003022AF124FE7003022B002413
:1029B300FE7003022B0F24FC7003022B1E24FE70F7
:1029C30003022B2D022B6A9003007417F0A3E41269
:1029D3002B8E120444022B6A851882851983AC82DC
:1029E300AD831207C2022B3A851882851983AC8204
:1029F300AD831207C8022B3A850C08850D097402B2
:102A0300121789AC82AD838508828509831233F15D
:102A13001206EA8A0C8B0DAC0CAD0DEC4D6042E452
:102A2300F50CF50D780C1219C0750C00750D0378B3
:102A33000C1219C0750C01750D03780C1219C074B2
:102A4300081217891219D779161233EB1208047476
:102A530008121753E9F50C700B1233E712045C806C
:102A63000F750C01850882850983122B7C12365F52
:102A7300850C08022B3D7402121789AC82AD838545
:102A83000C82850D831233F11206EA8A108B11AC86
:102A930010AD11EC4D6043850C82850D83A3A31209
:102AA30019D775100075110378101219C07510012C
:102AB30075110378101219C074081217891219D7E7
:102AC30079161233EB1208047408121753E9F50947
:102AD300700B1233E7120462800F750901850C82B3
:102AE300850D83122B7C12365F850908804C85186F
:102AF30082851983AC82AD831207CE803A85188212
:102B0300851983AC82AD831207D4802B8518828507
:102B13001983AC82AD831207DA801C85188285196C
:102B230083AC82AD831207E0800D851882851983FB
:102B3300AC82AD831207E6E9F508E50860298E82C9
:102B43008F83A3E06414601F850E82850F83E0905A
:102B53000300122B86123EA490030112365FE50890
:102B6300A3122B8E12043EEEFAEFFB120768023516
:102B73004BF50CEF3400F50D22123EA88518828523
:102B8300198322F085188285198322F07C007D0346
:102B9300850A82850B831233F52274EE1217AD7406
:102BA300FC12173D8A0A8B0B8C0E8D0FEA2405F558
:102BB30008EB3400F5097C157D0079007A007B036E
:102BC300120F96E5082402F50CE509122B778518F8
:102BD3008285198385821085831178101219C08527
:102BE3000882850983A3A3A3A31230A11219C0E508
:102BF300082405F510E5093400F51178101219C001
:102C0300850C82850D831233FB1206E474061217BA
:102C1300538A108B11AE10AF11E50A2402F50AE5B1
:102C23000B123646EE4F7003022D638017740212A7
:102C330017891233F188828983EAF0A3EBF09003BA
:102C430000E004F0900300E0C394054003022D6309
:102C5300E4F510F51178101219C07510E975110219
:102C630078101219C07510EA75110278101219C084
:102C730074061217891219D77910EEFCEFFD12337F
:102C8300EB1208047408121753E9705E85088285F5
:102C93000983A3A3A3A3A3A3A3E0F89002E9E06895
:102CA30070481230A11219C07CEA7D02E50824089D
:102CB300FAE5093400FB120F907402121753E9600E
:102CC300298E828F83A3A3A3A31233F1900300E081
:102CD300F5107402781012172A74012510F5827406
:102CE300033511F583EAF0A3EBF07402121789851B
:102CF300821085831178101219C074021217891279
:102D030019D7850C82850D83123EB91206F074041F
:102D13001217538A108B11AE10AF11900300E0F518
:102D2300107511007402781012172A74002510F818
:102D330074033511F988828983A31228F47003027E
:102D43002C27E82403F8E93400F9EE4F6003022C42
:102D5300308882898374FFF0A3F0900300E004F0CD
:102D6300900300E0600A1233E71204507900800BED
:102D7300850882850983123656790A02354B74EA2F
:102D83001217AD74FE12173D8C128D13EA2405F54C
:102D93000CEB123EC3122866750800750900EA247D
:102DA30002F510EB3400F5118518828519838582AD
:102DB3000A85830B780A1219C0850C82850D83A3BB
:102DC300A3A3A3122F631219C0E50C2405F50AE58A
:102DD3000D123646780A1219C0850C82850D8312AE
:102DE3003EB71206E474061217538A0A8B0BEA45A0
:102DF3000B7003022F14EA2404F50EEB122F591261
:102E030028668A828B83A3A3A3E0F98510828511A8
:102E1300831233F11206D2E9F5096003022F14E499
:102E2300F514F51578141219C07514E9751502789F
:102E3300141219C07514EA75150278141219C074A6
:102E4300061217891219D77913AC0AAD0B851082B4
:102E53008511831233F11208047408121753E9F52C
:102E6300096003022F149002E9E0F8E5087009E015
:102E73002402900301F08017900301E0FCE8240290
:102E8300FAE43400FBEA6C7001EB6003022F18854F
:102E93000882AA8212309894141230905073850ECF
:102EA30082850F83E0C0E074022A122F50D0E0F035
:102EB3000508850E82850F83A3E0C0E085080A74A8
:102EC30002250A122F50D0E0F005089002E9122FD4
:102ED300631219C07CEA7D0285080A7402250AFA86
:102EE30074033400FB120F7E74021217539002E92D
:102EF300E02508F50874FF6E700374FF6F6012EE2F
:102F030024010EEF3400FFE508C394145003022D8F
:102F1300ABE50860131232DC85108285118312330E
:102F2300F112045679008014E509700375090A85C6
:102F33001282851383EEF0A3EFF0A909740212172E
:102F4300537F0E02187F85080C7402250CF58274DA
:102F5300033400F583223400F50F850E82F58322B6
:102F6300123BE62274EE1217AD74FE12173D8C0E5F
:102F73008D0FEA2405F50CEB122B77750B009003EC
:102F830000E4F0F50AEA2402F508EB3400F50980C1
:102F930049900300E0FA9002E9E0F81230989417A0
:102FA300123090400D900300E0F87416C39890021D
:102FB300E9F01230A11219C07CEA7D0274012AFAE9
:102FC30074033400FB120F7E74021217539002E94C
:102FD300E0F8900300E028F0050AE50C2416F582DA
:102FE300E50D122F54E0F8E50AC398400302307947
:102FF300900300E0C39416507DE50AC333F8E4332D
:10300300F9E50C28FEE50D39FF851882851983AC97
:1030130082AD838E828F831233F11206EA8A108B7C
:1030230011AC10AD11EC4D7005750B018043E4F547
:1030330010F51178101219C07510E9751102781086
:103043001219C07510EA75110278101219C07406AE
:103053001217891219D779168508828509831233C5
:10306300F11208047408121753E9F50B7003022FC9
:103073009412365280107C007D0385088285098373
:103083001233F1120468A90B740202354DE994005E
:10309300C365D03322EA28F8E43400F9E822E0F5E6
:1030A3001075110078102274EA1217AD74FC121710
:1030B3003D8A0C8B0D8C128D13EA2405F50AEB1255
:1030C3003646750800750900E50A2402F510E50B7C
:1030D3003400F511740212178985820E85830F78E7
:1030E3000E1219C0850A82850B83A3A3A3A3123BE7
:1030F300921219C0E50A2405F50EE50B3400F50F0D
:10310300780E1219C085108285118312364C123342
:10311300EB1206E474061217538A0E8B0FAE0EAF32
:103123000FE50C2402F50EE50D3400F50F80408801
:1031330082898374FFF00508122F4974FFF0050894
:103143009002E9E0F50C750D00780C1219C07CEAC9
:103153007D0285080C7402250CFA74033400FB12FB
:103163000F7E74021217539002E9E02508F508EE6A
:103173004F60718E828F83A3A3A3E0F9850E8285AE
:103183000F831233F11206D2E9F509EE2404122B50
:1031930074E97044E4F514F51578141219C0751424
:1031A300E975150278141219C07514EA75150278B9
:1031B300141219C074081217891219D77911EEFC69
:1031C300EFFD850E82850F831233F1120804740814
:1031D300121753E9F5096027850C82850D83123296
:1031E300D212365FE50870030232B81232DC850E64
:1031F30082850F831233F112046E79000232CD857A
:103203000882AA82EA9002E97009E024049003018B
:10321300F08022E0F8900301E0F514E82404FCE4D4
:103223003400FDEC65147001ED70C01230989412F7
:1032330012309050B6850C82850D83E0C0E0740295
:103243002A122F50D0E0F00508850C82850D83A348
:10325300E0C0E0122F49D0E01232EE85820C858364
:103263000D780C1219C074041217891219D785101E
:1032730082851183123EB91206F074041217538A21
:103283000C8B0DAE0CAF0D85080C7402250CF87475
:10329300033400F9EE4F7003023132851882851929
:1032A30083E0888289831232EEA3E0C0E0122F49C3
:1032B300D0E0023140E509700375090A850A828569
:1032C3000B831232D212365FA9097404022F411202
:1032D3003EA885128285138322900301E0F5F0E571
:1032E3000884900300F07C007D0322F00508851814
:1032F300828519832274EC1217AD74FE12173D8A6E
:10330300088B098C0E8D0FEA2405FEEB3400FF8534
:103313001882851983AC82AD838E828F831233F139
:103323001206EA8A0A8B0BEE2418122B74EA450B59
:1033330070030233C21235345032851882851983E3
:103343001233F11207F88A108B11EA4511606B7979
:1033530012AC0AAD0B8508828509831233F18510FF
:10336300828511831217ABE9F50A7058E4F50AF563
:103373000B780A1219C08E828F83A3A3E0F50A7813
:103383000A1219C0EE2403123643780A1219C08EAA
:10339300828F831233FB12080A7406121753E9F55E
:1033A3000A7021850C82850D83E0701F8508828554
:1033B30009831233F11204748011750A0E800975A2
:1033C3000A018004E50A6003123652850C82850DDA
:1033D30083E0600479008002A90A74021217537F04
:1033E3000C02187F7C007D03850A82850B831233D0
:1033F300F522E0FAA3E0FB22E0FCA3E0FD850882CE
:103403008509831233F52274EE1217AD74FE121779
:103413003D8A088B098C0C8D0DEA2405FEEB3400E4
:10342300FF750E00851882851983AC82AD838E8269
:103433008F831233F11206EA8A0A8B0BEA450B706B
:1034430003023520123534503585188285198312CD
:1034530033F11207F88A0E8B0FEA450F605E79127B
:10346300AC0AAD0B8508828509831233F1850E8280
:10347300850F831217ABE9F50E6003023523850828
:103483008285098312373AAA0AFB1207EC8A108B4A
:1034930011A810A911E849701E7AFF7BFF1207ECEF
:1034A3008A108B11A810A911E849606C888289835E
:1034B300E50AF0A3E50BF0750A008007750E0E8090
:1034C3005F050A9002E6E0FAE50AC39A504AE50A64
:1034D30075F017A4FAABF088828983A3A3E02AFAD4
:1034E300A3E03BFB8A828B8312364CEC4D70D27582
:1034F3000A17750B00780A1219C0EEFCEFFD120FC4
:103503007E7402121753EEFCEFFD85088285098352
:103513001233F112047A8014750E098003750E01BB
:10352300123EA0850C82850D8312365FA90E0230F0
:103533008BE5082402F508E5093400F5098A828B36
:1035430083A3A3A3E0A2E52274041217537F0A0204
:10355300187F74EC1217AD8C108D11EA2405F50C4D
:10356300EB122B77750F00EA2402F50AEB123646AD
:10357300850A82F5831233F11207EC8A088B09EA74
:1035830045097003023638750E008071850C8285FB
:103593000D83E06401704F8E828F83A3A31219D72A
:1035A3008E828F83A3A3A3A3E0F512751300781271
:1035B3001219C0EE2405F512EF3400F51378121238
:1035C30019C01233EB12080A7406121753E9F50FE8
:1035D3006014850C82850D83E4F0123EA085108271
:1035E30085118312365F7C177D007900EEFAEFFBBD
:1035F300120F968E828F83E4F0A3F0050E9002E6FD
:10360300E0F8E50EC398501EE50E75F017A4F8A96F
:10361300F0850882850983A3A3123ECD12364CECB4
:103623004D600302358F85088285098374FFF0A3FB
:10363300F0E50F70061233EB120480A90F0233E298
:10364300F50AEF3400F50B22A3E0FCA3E0FD228E84
:10365300828F83123EA8850E82850F83E8F0A3E94B
:10366300F022C082C0839002E2E06A7003A3E06BA1
:1036730070067AE27B0280047A007B00022952C042
:1036830082C08378008C828D83E06A7003A3E06B31
:103693007010E875F003A4F8A9F0EC28FAED39FBF3
:1036A3008015088C828D83A3A3A3E06A7003A3E033
:1036B3006B60DF7A007B0002295274F61217AD1299
:1036C30007B68A828B83E582458370067A007B0086
:1036D3008007A3A3A3A31233F1023D5174F212177F
:1036E300ADE9FE740E12178912373A741012178956
:1036F300123BB28C828D83E064027036A3123EAE1D
:10370300F50CA3E0F9A80C740268700374296970BE
:1037130021750C02750D00780C1219C07808121966
:10372300C0780A1219C0EEF912082E740612175344
:1037330080027901023DD5E0F50AA3E0F50B22747E
:10374300E81217AD74FB12173DE9851882851983BA
:10375300F08A168B17ECFEEDFF751000741D12171F
:1037630089123EA4741D12178912365F8E828F83CD
:10377300A3A3A3E0A2E4502D741D1217891233F101
:103783001207F88A828B83E58245837003023B83A9
:10379300790AEEFCEFFDAA16AB171217ABE9F51089
:1037A3006003023B86741F121789123BB274211205
:1037B300178912373A7423121789E0F50EA3E0F53F
:1037C3000F8E828F83E064026003023B31A3123EBB
:1037D300A4850882850983A3858212858313EE2439
:1037E30006122B7488828983E0FAA3E0F9EA2400A5
:1037F300F514E439F5157814121A4A01000028016A
:1038030028263807000228EB3803285838002922D5
:103813003A01294D3A0229EE390329223A0429CCE7
:103823003A313BE50E450F6003023B2C850C828544
:103833000D83123BA7FAE9FB8A828B83E0850A8218
:10384300850B83123BDD1219C08A828B83A3E0FCB4
:10385300A3E0023AB6E50E450F6003023B2C850A4E
:1038630082850B837401F0123BBA85088285098334
:10387300F07C007D008E828F83A3A3A3A3E02401A9
:10388300FAA3E03400FB1206EAEA4B60418A828B1A
:1038930083E02402F8850A82850B83E028F0EA247A
:1038A30004F8EB3400F988828983E085128285135A
:1038B30083123BEF123BDD1219C08A828B831236CF
:1038C3004BE5082403FAE5093400FB023ABB850AF9
:1038D30082850B83E02404F07C047D007900AA1226
:1038E300AB13120F96023B86E50E450F6003023BB6
:1038F3002C123BBAFEA3E0FF850A82850B83740476
:10390300F0EE850882850983F0EF851282851383A3
:10391300F07403121789AC82AD83EEFAEFFB120643
:10392300EA8A0C8B0DEA450D70030239CF8A828B2C
:1039330083A3A3122862740112178985820E8583DB
:103943000F780E1219C074051217891219D77CFF4C
:103953007DFF1206F074041217538B0FEA450F70A4
:1039630033850C82850D83123B921219C0850C821C
:10397300850D83A31219D77C027D007AA87B85125B
:10398300051C7404121753E9700A74011217897421
:10399300FFF0A3F08E828F83E064027039750C020E
:1039A300750D00780C1219C08E828F8312364BE589
:1039B300082404FAE5093400FB120F7E740212177F
:1039C30053850A82850B83E0240280097401121750
:1039D30089EEF0A3EFF07401121789123BA3F07480
:1039E30001121789A3123B9B023B26E50E450F608C
:1039F30003023B2C850C82850D8312364CAA16AB31
:103A030017120822850A82850B837402F0EA85085F
:103A130082850983F0851282851383EB023B29E5B6
:103A23000E450F6003023B2C123BBAF8A3E0F98565
:103A33000A82850B837402F0E8850882850983F086
:103A4300E9851282851383023B29850C82850D83C8
:103A53001233F1120F78EAFC8C82A882C3950EE42C
:103A6300950F405FE8650E7002E50F70047C0080DF
:103A730022851882851983E0FAE50E2AFAE50F34C8
:103A830000FBC3EA98EB94005003E08005E50ECCFD
:103A9300C39CFCEC850A82850B83F08C0A750B00B2
:103AA300780A1219C0850C82850D83E0250EFCA3CC
:103AB300E0350FFDAA08AB09120F7E7402121753EB
:103AC300023B86751007023B86E50E450F705A854B
:103AD3000C82850D83123EA4850A82850B837407AD
:103AE30012286E123B9B12286EA3E0851282851367
:103AF30083F0E82402FAE93400FB8A828B83123BC9
:103B03009B123BCA123BA3A3123BD3123BACF0E87C
:103B13002405F8E93400F988828983123BACA312A7
:103B23003BEFA3A3A3A3F0805A75100B8055741D1C
:103B33001217891233F11207B68A828B83E5824505
:103B430083603D123EA4880C890DE8450D603178F1
:103B53000E1219C0780A1219C078081219C0740617
:103B6300121789E0F9EEFCEFFDAA16AB17850C825C
:103B7300850D831217AB7406121753E9F5108003F2
:103B830075100EA91074051217537F1002187FE0E9
:103B9300F50E750F00780E22E085088285098322D1
:103BA300123BF922123EA8E822123BF9A3A322E01A
:103BB300F508A3E0F50922850C82850D83E0F8A3BF
:103BC300E0F5838882E022A3A3F08A828B83A32279
:103BD300F088828983A3A3A3A322F08A828B831212
:103BE3003BE622E0F50A750B00780A22F088828909
:103BF30083A3123BF922E0850882850983A3A322CC
:103C030074EE1217AD74FE12173D8A0A8B0BECFA91
:103C1300EDFB7414121789E0F510A3E0F511741687
:103C2300121789E0FE7418121789E0F50EA3E0F568
:103C33000F851882851983AC82AD831206EA8A0C3C
:103C43008B0DEA450D60498518828519831233F17E
:103C53001207B68A828B83E5824583602FA3A31262
:103C63003BB2E50845096024780E1219C07810129A
:103C730019C0EEF9AC0CAD0DAA0AAB0B8508828511
:103C830009831217AB74041217538006790E80024E
:103C9300790102308B74F61217AD74FE12173D745E
:103CA3000C121789123BA7851882851983F07401BA
:103CB300121789E9F0E4F508F50978081219C075B7
:103CC300080278081219C0740412178985820885BE
:103CD300830978081219C012080A7406121753745C
:103CE30002121753806874F71217ADEAFEEBFF89CF
:103CF300087C197D03120822EA5402600BA908EE1E
:103D0300FAEFFB1206DE8002790102276A74F612CB
:103D130017AD74FF6A700374FF6B70168C828D830A
:103D2300123D56E4F08C828D83A3A3A3123D56A3C8
:103D330080181207F28A088B09A808A909E84960C4
:103D43000D8882898374FF12286CA3A3E4F07F0299
:103D530002187F74FFF0A3F08C828D83A3A32274D7
:103D6300F61217AD1207F28A828B83E582458360D0
:103D730006A3A3E0FA80027A007B0080D174F212DA
:103D830017AD8A088B09ECFEEDFF740E121789E05C
:103D9300F50A1207F28A0C8B0DA80CA90DE84970DD
:103DA30026EEFCEFFD7AFF7BFF1207F28A0C8B0DE8
:103DB300A80CA90DE84970047911801688828983BB
:103DC300E508F0A3E509F088828983A3A3E50AF057
:103DD30079007F0602187F74EE1217ADEAFEEBFF3F
:103DE3008C088D09890C7414121789123EA4741659
:103DF3001217891233F1750D00E8496003023E98EA
:103E03007402650C6003023E937412121789123E0A
:103E1300AEFCA3E0F9EC2400F50EE439F50FEAF467
:103E2300F8EBF4F9EC58F8E50F59F9E849705CE55B
:103E3300082406F8ED3400F9880A890B8882F58393
:103E4300123EB91208228A108B11E50E6510700418
:103E5300E50F65116042780E1219C0850A82850B41
:103E630083123EB91208287402121753E9F50D7034
:103E730027780E1219C0850882850983A3A3123EF1
:103E8300B712083A7402121753800D750D8080081B
:103E9300750D0D8003750D0BA90D0235508E828FA4
:103EA30083123EA822E0F8A3E0F922123EA88882FA
:103EB3008983E022A3A3E0FCA3E0FDEEFAEFFB225B
:103EC3003400F50D850C82F58322E028FEA3E0394A
:103ED300FF8E828F832274F21217ADEAFEEBFF8905
:103EE3000B7401650B600E7402650B706A79011225
:103EF3000A08E97062EEFAEFFB1207EC8A088B09F5
:103F0300EA45096047750A00800B7C177D0079003C
:103F1300120F96050A9002E6E0F8E50AC3985021CD
:103F2300E50A75F017A4F8A9F0850882850983A32B
:103F3300A3E028FAA3E039FB8A828B831229597004
:103F4300C985088285098374FFF0A3F07C197D037A
:103F5300EEFAEFFB12081C023DD574F21217AD8A7C
:103F6300088B09ECFEEDFF740E12178912373A9095
:103F73000E81E0F4603D7A097B00120FA2EA4B60E8
:103F8300328A828B8374B1F0A3E4123BCCA3123B3D
:103F9300CAA3E508F0A3E509123FB9EEF0A3EF12B7
:103FA3003FB9A3A3E50AF0A3E50BF0900E81E0F976
:103FB300120FAE023DD5F08A828B83A3A3A3A3A3E2
:103FC30022C082C0839061907404F0A37448F0A36C
:103FD3007402F09061807440F09061BC7403F090BF
:103FE30061877419F0906265741BF0906249E0C3B5
:103FF300941390619C400A7409F090606674018088
:1040030007740DF0906066E4F090619A7433F0A346
:104013007455F09061A0743AF090053FE06401702C
:1040230009C2919003A6746780059003A67461F09A
:10403300902726E493906186F0902720E493F46020
:1040430027E493540FF8906185E0686012E5C65445
:10405300804449F5C6E59E547F644970F8E8F053FF
:10406300C680E59E547F70FA7905120D62024216EE
:10407300C082C083E5A8F853A87E906181E4F0A3D1
:10408300F0A3F0C2BA539AFEC289759B00C2C275EF
:10409300E90075910075BF0075A91175B9059061A7
:1040A30081F0A374C0F0A3E4F0D2BA439A01748000
:1040B3005842A8024216C082C08374F812173D907A
:1040C30003A4E0F8A3E0F9E84970030241E7900391
:1040D300A4E0544060237908851882851983AA8255
:1040E300AB83120BD6851882851983AA82AB831200
:1040F30008B89003A4E054BFF0E054806010790C3A
:104103007A657B05120BD69003A4E0547FF0E0A2FE
:10411300E0503190619A7433F0A37455F09061A02C
:10412300743AF090053FE064017009C2919003A6D0
:10413300746780059003A67461F01208BE9003A40F
:10414300E054FEF0E05402603190619A743FF0A3B2
:10415300745AF09061A0747FF090053FE0640170A1
:1041630009D2919003A6747180059003A6746AF036
:104173001208BE9003A4E054FDF0E05404601390D1
:104183002724E493906186F01208C49003A4E054BA
:10419300FBF0E054086013902725E493906186F0C8
:1041A3001208C49003A4E054F7F0E0541060139095
:1041B3002726E493906186F01208C49003A4E05488
:1041C300EFF0E05420600A1208C49003A4E054DF27
:1041D300F0A3E05401600D120AFE1208CA9003A571
:1041E300E054FEF07408121753024216C082C083D3
:1041F300E9600814600A14600C8013902724800877
:104203009027258003902726E493906186F080030E
:10421300F0A3F0D083D08202011F74EC1217AD74A7
:10422300F412173D851882851983AC82AD8375839B
:104233008575826A740412165090272493F46003E0
:104243000243A9907808E0C394025003024389749F
:1042530004121789AC82AD83758385758224740833
:1042630012165085188285198385821285831374EB
:1042730004121789AC82AD83750EFF750FFF7FFFA4
:104283007E00750C48750D78801574086E700302F6
:10429300431D74096E700302431D740A6E607B85AF
:1042A3000C82850D8378081215F58C828D83A909FC
:1042B300E50AC9F8881074187808121523E5104523
:1042C30008F8C3E098A3E099850C82850D837808EC
:1042D3001215F540188C828D8374187808121523F3
:1042E300E5104508F8E0C398F8A3E0801C7418783B
:1042F30008121523E5104508FAE9FB8C828D83E04B
:10430300F8A3E0F9EAC398F8EB99F9C3E8950EE945
:10431300950F5006880E890FEEFF0EE50C2404F569
:104323000CE50D3400F50DEEC39413500302428DDA
:1043330074FF650E700474FF650F60238F087402A9
:10434300780812172A74482508F58274783509F518
:104353008378081215F5851282851383E508F0EC3E
:104363002402FCED3400FD851282851383A385822C
:1043730012858313740C121789E5826C7003E5832D
:104383006D600302427B75080175090078081219F4
:10439300C07402121789AC82AD837AC97B091211EA
:1043A300887402121753740C1217537F0C02187F70
:1043B300C082C0839061AE7468F0A3746AF09062A7
:1043C3004574FBF0A304F053F4FD43FE0290053F54
:1043D3007401F09061A0E0643A90619A70237433A1
:1043E300F0A37455F09061A0743AF0740164017005
:1043F30009C2919003A6746780289003A674618014
:1044030021743FF0A3745AF09061A0747FF074019B
:1044130064017009D2919003A6747180059003A67C
:10442300746A0242157F0802187FC082C083900419
:10443300F1E06401700A9004F6E06004790C8002F4
:104443007900024216C082C08375E1F19004F4E062
:10445300605B14600914605F14605714705E120B84
:10446300109004EAE0F97AEB7B04120CE47AD67B31
:10447300BE7C897D8E120D1A7A557B557C557D0045
:10448300120CF09004F5E0F9120CFC7901120D56B0
:104493009004E8E0F8A3E0C82416F582E83400F5B8
:1044A300837428F0A3740BF07900024216120B16E2
:1044B30080AF120B1C80AA120B2280A5791280EA0E
:1044C30074F01217AD75D90D9004D5E0A2E0E43372
:1044D3001313F89004EAE0C4333354C0484401F59D
:1044E300D978E8790488828983A3A3A3E0F5D988DE
:1044F300828983A3A882A983E864EE7003E9640434
:1045030070E378D5790488828983A3E0F5D988821A
:104513008983A3A882A983E864DB7003E964047038
:10452300E575E1959004D5E0F97AD67B04120CEA9F
:10453300900EA374BCF0A3740AF0A3741EF0A374CA
:104543000CF0A3741EF0A3740CF0A3741EF0A374F8
:104553000CF0A374C2F0A3740AF0A3741EF0A37446
:104563000CF0A374DAF0A3740AF0900EB1741EF089
:10457300A3740CF0A3741EF0A3740CF0A3741EF0C8
:10458300A3740CF0A3741EF0A3740CF0A3741EF0B8
:10459300A3740CF0A3741EF0A3740CF09004F4E065
:1045A30064019004E87012E0F8A3E0F5838882A325
:1045B300A37508007509088010E0F8A3E0F5838867
:1045C30082A3A3750804750900750A00750B0078AA
:1045D3000812156E750CFF750DFF750EFF750F0034
:1045E3007808790C1215BC9004E8E0F8A3E0C8241D
:1045F3000EF582E83400F58378081216049004E877
:10460300E0F8A3E0C82414F582E83400F5837413BA
:10461300F09003A27402F002442874F71217AD90CD
:1046230004FAE02407F5D99004EAE0C4333354C014
:10463300F5D978E8790488828983A3A3A3E0F5D91F
:1046430088828983A3A882A983E864EE7003E9645E
:104653000470E39004FAE0601F78E87904FAE82430
:1046630013F582E93400F583E0F5D988828983A3C1
:10467300A882A9831AEA70E690051AE02407F5D9FF
:104683009004EAE0C4333354C04404F5D978E8799C
:104693000488828983A3A3A3E0F5D988828983A3AD
:1046A300A882A983E864EE7003E9640470E39005CB
:1046B3001AE0601F78E87904FAE82433F582E934D4
:1046C30000F583E0F5D988828983A3A882A9831A98
:1046D300EA70E675E195900EA374C8F0A3740AF02E
:1046E300A3741EF0A3740CF0A3741EF0A3740CF057
:1046F300A3741EF0A3740CF0A374C2F0A3740AF0A5
:10470300A3741EF0A3740CF0A374DAF0A3740AF07C
:10471300900EB1741EF0A3740CF0A3741EF0A37476
:104723000CF0A3741EF0A3740CF0A3741EF0A37416
:104733000CF0A3741EF0A3740CF0A3741EF0A37406
:104743000CF09004E8E0F8A3E0C8240EF582E83406
:1047530000F58374FFF0A3F0A3F0A3F09004E8E066
:10476300F8A3E0C82414F582E83400F5837412F04A
:104773009003A27401F0FF02187F74F71217AD9033
:1047830004FAE02407F5D99004EAE0C4333354C0B3
:104793004402F5D978E8790488828983A3A3A3E046
:1047A300F5D988828983A3A882A983E864EE70037C
:1047B300E9640470E39004FAE0601F78E87904FA8E
:1047C300E82413F582E93400F583E0F5D98882897A
:1047D30083A3A882A9831AEA70E675E195900EA3D4
:1047E30074D4F0A3740AF0A374D4F0A3740AF0A3EE
:1047F30074D4F0A3740AF0A374D4F0A3740AF0A3DE
:1048030074D4F0A3740AF0A374D4F0A3740AF0A3CD
:1048130074DAF0A3740AF0900EB1741EF0A3740C52
:10482300F0A3741EF0A3740CF0A3741EF0A3740C15
:10483300F0A3741EF0A3740CF0A3741EF0A3740C05
:10484300F0A3741EF0A3740CF09004E8E0F8A3E066
:10485300C8240EF582E83400F58374FFF0A3F0A3B7
:10486300F0A3F09004E8E0F8A3E0C82414F582E88C
:104873003400F5837414F09003A27404F0024B44E3
:1048830074F71217AD9004FAE02407F5D99004EAFF
:10489300E0C4333354C04406F5D978E879048882F8
:1048A3008983A3A3A3E0F5D988828983A3A882A9D6
:1048B30083E864EE7003E9640470E39004FAE06053
:1048C3001F78E87904FAE82413F582E93400F583C4
:1048D300E0F5D988828983A3A882A9831AEA70E6BE
:1048E30090051AE02407F5D99004EAE0C433335461
:1048F300C04404F5D978E8790488828983A3A3A303
:10490300E0F5D988828983A3A882A983E864EE703D
:1049130003E9640470E390051AE0601F78E8790402
:10492300FAE82433F582E93400F583E0F5D9888287
:104933008983A3A882A9831AEA70E675E195900E8C
:10494300A374CEF0A3740AF0A3741EF0A3740CF046
:10495300A3741EF0A3740CF0A3741EF0A3740CF0E4
:10496300A3741EF0A3740CF0A3741EF0A3740CF0D4
:10497300A374DAF0A3740AF0900EB1741EF0A3745A
:104983000CF0A3741EF0A3740CF0A3741EF0A374B4
:104993000CF0A3741EF0A3740CF0A3741EF0A374A4
:1049A3000CF0A3741EF0A3740CF09004E8E0F8A3D9
:1049B300E0C8240EF582E83400F58374FFF0A3F019
:1049C300A3F0A3F09004E8E0F8A3E0C82414F58270
:1049D300E83400F5837415F09003A27403F0024BDE
:1049E30044C082C0839004E8E0F8A3E0C82406F53D
:1049F30082E83400F583E402421374F71217AD9092
:104A030003D0E0F875F003A4C8AAF02AF974D228F9
:104A1300F8740339F9E82405FAE93400FB8A828B38
:104A230083E0FCA3E0FD88828983A3A3A3A3A3A3BC
:104A3300A3A3A3ECF0A3EDF088828983A3A3A3A38C
:104A4300A3A3A3E024FFF8A3E034FFF98A828B83B6
:104A5300E8F0A3E9F0024B4474F71217ADEAFEEB5A
:104A6300FF9061D0E06003024B3875D90E75D9030E
:104A730075D904EE248BF582EF3400F583E58224A7
:104A830008F8E5833400F9E0F5D9A3E865827003FB
:104A9300E9658370F2EE2483F582EF3400F583E554
:104AA300822404F8E5833400F9E0F5D9A3E86582AC
:104AB3007003E9658370F275E1957908EE248BFA4A
:104AC300EF3400FB120BCA7904EE2483FAEF3400AF
:104AD300FB120BCA7C00EEF8EFF9ECFAC3E49AFA86
:104AE30095E0FBEE2AFAEF3BFBEA248AF582EB34EE
:104AF30000F583E0C0E0E824AAF582E93400F583F9
:104B0300D0E0F00C88828983A3A882A983ECC394A4
:104B13000840C7EE246FF582EF3400F583E0F8A375
:104B2300E0F9EE2471F582EF3400F583E8F0A3E9B0
:104B3300F07901800279008008F0EEA2E092AF796B
:104B4300007F0102187FC082C08375D90275D90323
:104B530075D90575E195EA246FF582EB3400F58389
:104B6300E0F8A3E0F9EA2471F582EB3400F583E879
:104B7300F0A3E9F0790102421674F61217ADEAFECA
:104B8300EBFF9005457406F075084575090578082F
:104B93001219C07C017903120C1274021217537597
:104BA300D90675D903758245758305E0F5D9A3E563
:104BB30082644A7004E583640570F075E19590039F
:104BC300A2E06408701EEE246FF582EF3400F583D3
:104BD300E0F8A3E0F9EE2471F582EF3400F583E801
:104BE300F0A3E9F07901024E4A74F61217ADEAFE1A
:104BF300EBFF9061D0E070667801900545740BF08F
:104C03009003A2E0640770197508457509057808D3
:104C13001219C07C017903120C1274021217537813
:104C230005740128F5D975D903758245758305E89F
:104C3300FAE0F5D9A31AEA70F875E195EE246FF559
:104C430082EF3400F583E0F8A3E0F9EE2471F582F6
:104C5300EF3400F583E8F0A3E9F0790180027900ED
:104C6300024E4A74F71217ADEAFEEBFF75D90375CE
:104C7300D90375D90DEE24DDF582EF3400F583E019
:104C8300F5D975E1957904120D20EE246FF582EFC5
:104C93003400F583E0F8A3E0F9EE2471F582EF34F4
:104CA30000F583E8F0A3E9F07901024B4474F612AE
:104CB30017ADEAFEEBFF9061D0E0F87480C398FA79
:104CC300EE2482F582EF3400F583E06004780480FB
:104CD300027800E8240BF8EAC3985003024D757D6F
:104CE30009900545EDF0EE24E2F8EF3400F97A4639
:104CF3007B057C0888828983E08A828B83F08882A3
:104D03008983A3A882A9838A828B83A3AA82AB8384
:104D13001CEC70E0EE2482F582EF3400F583E06052
:104D23001D75084575090578081219C07C097903B2
:104D3300EEFAEFFB120C1274021217537D0D74017D
:104D43002DF5D975D9037582457583058D08E0F571
:104D5300D9A31508E50870F675E1957904120D20BD
:104D6300EE241DF582EF3400F583E4F0A3F079011E
:104D730080027900024E4A74F61217ADEAFEEBFF89
:104D83009061D0E0F87480C398FAEE2482F582EF44
:104D93003400F583E06004780480027800E8240896
:104DA300F8EAC3985003024E487806900545740C00
:104DB300F09003BFE0900546F09003C0E0900547F4
:104DC300F09003C1E0900548F09003C2E0900549DC
:104DD300F09003C3E090054AF0EE2482F582EF34AD
:104DE30000F583E0601B75084575090578081219FD
:104DF300C07C067903EEFA120C1274021217537870
:104E03000A740128F5D975D9037582457583058818
:104E130008E0F5D9A31508E50870F675E19579045E
:104E2300120D20EE246FF582EF3400F583E0F8A332
:104E3300E0F9EE2471F582EF3400F583E8F0A3E99D
:104E4300F07901800279007F0202187F74F612174D
:104E5300ADEAFEEBFF9061D0E0F87480C398FAEE00
:104E63002482F582EF3400F583E060047804800245
:104E73007800E82404F8EAC3985003024F29780223
:104E8300900545E8F0EE24F4F582EF3400F583E075
:104E9300900546F0EE2482F582EF3400F583E0605E
:104EA3001B75084575090578081219C07C0279033A
:104EB300EEFA120C1274021217537806740128F5D5
:104EC300D975D9037582457583058808E0F5D9A39B
:104ED3001508E50870F675E195EE2473F582EF3455
:104EE30000F583E4F0EE247FF582EF3400F583E4EC
:104EF300F0EE241DF582EF3400F583E4F0A3F0799E
:104F030004120D20EE240DF582EF3400F583E0F852
:104F1300A3E0F9EE2471F582EF3400F583E8F0A302
:104F2300E9F0790180027900024E4A74F61217AD56
:104F33009061D0E0F87480C398FCEA2482F582EB98
:104F43003400F583E06004780480027800E82404E8
:104F5300F8ECC398405B79029005457407F0EA24A6
:104F6300F5F582EB3400F583E0900546F0EA248200
:104F7300F582EB3400F583E0601875084575090583
:104F830078081219C07C0209120C1274021217530A
:104F93007906740129F5D975D90375824575830599
:104FA300E9F8E0F5D9A318E870F875E1957901807F
:104FB300027900024E4A74F51217ADE9FCA2AFE480
:104FC30033F50AC2AF7D0080010DEA246EF582EB52
:104FD3003400F583E0F8EDC398501A8D08EA2508EC
:104FE300F8EB3400F9E8246AF582E93400F583E04C
:104FF3006C70D68024EA246EF8EB3400F9E0FEEA04
:105003002EFAEB3400FBEA246AF582EB3400F583D5
:10501300ECF088828983E004F0E50AA2E092AF7F96
:105023000302187F74F61217ADA2AFE433FDC2AFCB
:10503300EA246EF582EB3400F583E014F07C006023
:10504300368C08EA2508F8EB3400F9E8246BF5827E
:10505300E93400F583E0C0E0E8246AF582E934002E
:10506300F583D0E0F00CEA246EF582EB3400F5838F
:10507300E0F8ECC39840CAEA246DF582EB3400F5FE
:105083008374FFF0EA2469F582EB3400F583E4F0DE
:10509300EDA2E092AF024E4AC082C083E5A8F8C2F7
:1050A300AFEA246AF582EB3400F583E9F0EA246978
:1050B300F582EB3400F583E4F0E8A2E7A2E792AFD0
:1050C30002421674F31217ADEAFEEBFFECFAEDFBA6
:1050D3008A828B83A3A3A3A3E0541FF0EE2436F5A7
:1050E30082EF3400F583E4F0F50AEEFCEFFD8A82EB
:1050F3008B83E0C0E0EC245DF582ED3400F583D0D2
:10510300E0F0750B00E50A33333354F8F50C8A826B
:105113008B83E0F508750900E50B780812170BE59A
:1051230008A2E0502FEE2436F8EF3400F988828984
:1051330083E0F508EE2508F508EF3400F509E508E6
:105143002438F582E5093400F583E50CF08882897B
:1051530083E004F0050B050CE50BC3940840AF0591
:105163000A8A828B83A3AA82AB838C828D83A3ACAE
:1051730082AD83E50AC3940550030250F17F050213
:10518300187F74F71217AD9003CEE0640170030229
:1051930052E37A009003D4E060030252E37401F017
:1051A300A3E4F0A3F090043404F0900439F09003E6
:1051B300D7E4F0A3F0A3F0A3F09003E104F090048C
:1051C30007E4F09003EAF0A3F0A3F0A3F0A3F0A3A5
:1051D300F0A3F0900451F0900445F090043A7480E9
:1051E300F0A3E4F0900440F09004BCF0A3F0A3F02B
:1051F300A3F0A3F0A3F0A3F0A3F09004C5F09004F0
:1052030054F09004A4F0A3F0A3F0A3F0A3F0A3F050
:10521300A3F0A3F0A3F0A3F09004B0F09004B2F0D5
:105223009004AEF09004C8F0A3F0A3F0A3F0A3F0B1
:10523300A3F0A3F0A3F078CE7903E8246EF582E916
:105243003400F58374FFF00A88828983A3A882A9B6
:1052530083EAC3940440E37ACE7B0378DC79048841
:10526300828983E0C0E0EA2461F582EB3400F583B0
:10527300D0E0F088828983A3A882A9838A828B8362
:10528300A3AA82AB83E864E17003E9640470D07A73
:10529300CE7B0378B5790388828983A3E0C0E0EAF3
:1052A30024E6F582EB3400F583D0E0F0888289832D
:1052B300A3A882A9838A828B83A3AA82AB83E8648F
:1052C300BD7003E9640370CF9003CEE004F0640182
:1052D30070089003D6E09003D0F07AD27B03800469
:1052E3007A007B00024B44C082C0839003D5E4F074
:1052F3009003D4F09003CEF0A3F0A374FFF075E114
:10530300F1024216C082C083780079009003D5E091
:10531300600478D2790388828983A3A3A3A3E0F9E5
:1053230002421674F61217ADEAFEEBFFEE2463F5A4
:1053330082EF3400F583E0F8A3E0F9E84970030253
:1053430053CBEE2463F8EF3400F97A007B00A2AF6D
:10535300E433F508C2AF88828983E0FCA3E0FDEC67
:105363004D603A88828983E0FAA3E0FB8A828B83CB
:10537300E0FCA3E0FD88828983ECF0A3EDF08A8250
:105383008B83E4F0A3F088828983E0FCA3E0FDEC47
:105393004D700A88828983A3A3E4F0A3F0E508A2F1
:1053A300E092AF12125A9004E2E004F09004E3E0BA
:1053B30004F0EE2463F582EF3400F583E0F8A3E014
:1053C300F9E84960030253458E828F83A3A3A3E0C8
:1053D300600F8E828F83A3A3A3E4F09003CFE01426
:1053E300F09003CEE014F070069003D074FFF08EBB
:1053F300828F83A3A3E4F09004E1E0700D9003CFC8
:10540300E0640170057900120D02EEFAEFFB120C55
:1054130042024E4A74F71217ADEAFEEBFF8E828FFB
:1054230083A3A3A3A3E0FA7B0012090CEEFAEFFB1C
:10543300120B94120C2A024B44C082C08378B579B4
:105443000388828983A3E4F088828983A3A882A93D
:1054530083E864BD7003E9640370E69003B67401E6
:1054630002421574F61217ADEAFEEBFFEC2403F8C3
:10547300ED3400F988088909EC2407F8ED3400F9C4
:10548300E8FCE9FD8C828D83E0F8A3E0F9850882CE
:10549300850983E0FAA3E0FB1216B2EE240DF58230
:1054A300EF3400F583E8F0A3E9F08C828D83E0F814
:1054B300A3E0F9850882850983E0FAA3E0FB1216CD
:1054C300B28B09EA45096013EE240DF582EF34002F
:1054D300F583E02401F0A3E03400F0024E4A74F6B1
:1054E3001217ADEAFEEBFFEE242EF582EF3400F542
:1054F30083E0FCA3E0FD780079FAECFAEDFB1216E9
:10550300B2EE246FF582EF3400F583E8F0A3E9F0FF
:10551300780079FAECFAEDFB1216B28B09EA450929
:105523006013EE246FF582EF3400F583E02401F07D
:10553300A3E03400F0024E4A74EC1217ADEAFEEB1E
:10554300FF741412178978081215F5120CC68A0C09
:105553008B0D8C0E8D0F7510027511007512007571
:105563001300780C791012155B7510FF7511FF7518
:1055730012FF780C79101215BC780C1219BC8E82AC
:105583008F83E0F8A3E0F5838882A3A31216131296
:1055930023C97404121753E9600302569F8E828F46
:1055A30083E02402F8A3E03400F9E8FAE9FB8A82F5
:1055B3008B8378081215818A828B837508FF75099E
:1055C300FF750AFF750B0078081215E2EE240BF540
:1055D30082EF3400F583C082C0838E828F83A3A3BE
:1055E300A3A3A3E02401F8A3E03400F9D083D0827D
:1055F300E0687003A3E069700579010256A18E8209
:105603008F83A3A3A3A3A3A3A3E02401F0A3E03464
:1056130000F0EE2473F582EF3400F583E06401704B
:1056230036EE2474F582EF3400F583E0F8A3E0F955
:105633008E828F83A3A3A3A3A3A3A3E0687003A372
:10564300E0697013EE2474F582EF3400F583E024EF
:1056530001F0A3E03400F0EE247FF582EF3400F58F
:1056630083E064017036EE2480F582EF3400F58325
:10567300E0F8A3E0F98E828F83A3A3A3A3A3A3A33C
:10568300E0687003A3E0697013EE2480F582EF34C1
:1056930000F583E02401F0A3E03400F07900024335
:1056A300AE74F61217ADE9FEECFFEA2462F582EB65
:1056B3003400F583E06401600302574D9061D0E04C
:1056C300F508EA2482F582EB3400F583E060047880
:1056D30004800278007480C39508FC95E0FDEF28F0
:1056E300F8E43400F9E82402F8E93400F9EC98ED21
:1056F30099A2D265D033404E740A121789E0F50897
:10570300A3E0F509EA2482F582EB3400F583E06037
:105713001578081219C0EFFCEEF9120C127402127C
:10572300175374042FFF74012FF5D98ED9EF600F2F
:10573300850882850983F8E0F5D9A318E870F87520
:10574300E195790080067907800279FF024E4A7459
:10575300F71217ADA2AFE433FEC2AF8A828B83E0A8
:10576300F8A3E0F9E8498A828B83600AA3A3E0F8EF
:10577300A3E0F5838882ECF0A3EDF08A828B83A308
:10578300A3ECF0A3EDF08C828D83E4F0A3024B3CF9
:1057930074F71217ADE96021F88C828D83E08A8259
:1057A3008B83F08C828D83A3AC82AD838A828B83BF
:1057B300A3AA82AB8318E870E0ECFAEDFB024B443A
:1057C30074F41217AD907803E06442705590054469
:1057D300E014F0704DC2AF1257DD00782AD0E0F626
:1057E30018D0E0F6E59F540770057509FF8003752F
:1057F300097FC4C0E07829E6F50808E65509F509EC
:10580300740B780812171BD0E02508F8906270E03B
:10581300A2E740F8E8C333906272F0906270E0D27E
:10582300E0F09003D0E0F47003025BBDE0F875F0A4
:1058330003A4C8AAF02AF974D228FE740339FFEE30
:105843002401F582EF3401F583E0F8A3E0F9E84998
:10585300601EEE2401F582EF3401F583E0FAA3E044
:10586300FBEE2400F582EF3401F583E0F9120FD249
:105873008E828F83A3A3A3A3A3A3A3E0F8A3E0F93A
:105883008E828F83A3A3A3A3A3E8F0A3E9F0906080
:1058930054E09003A9F0906055E09003AAF0906063
:1058A30056E09003ABF0906057E09003ACF090604B
:1058B30058E09003ADF0906059E09003AEF0906033
:1058C3005AE09003AFF090605BE09003B0F090601B
:1058D3005CE0FC9003B1F090605DE0FB9003B2F0FC
:1058E30090605EE0FD9003B3F090605FE0FA900398
:1058F300B4F09003AFE08C082508F8E43400F98D88
:1059030008E82508F8E93400F98B08E82508F8E9E0
:105913003400F98A08E82508FAE93400FBEE24F696
:10592300F582EF3400F583E02AF0A3E03BF08C0826
:10593300EE24F8F582EF3400F583E02508F0A3E0C8
:105943003400F0EE24FAF582EF3400F583E024010D
:10595300F0A3E03400F0EE24FEF582EF3400F5838B
:10596300E0F8A3E0F9E8496042906000E0C333FC4B
:10597300E433FDE82CF582E93DF583E02AF0A3E06A
:105983003BF0906000E0FA9003B1E0FCEAC333FA25
:10599300E433FBE82AF8E93BF9E8244AF582E934E1
:1059A30000F583E02CF0A3E03400F09003AFE07047
:1059B300119003B2E0700BA3E07007A3E070030241
:1059C3005ABA8E828F83A3A3A3A3A3E0F8A3E0F91B
:1059D300EE240DF582EF3400F583E028F8A3E039D7
:1059E300F9EE240BF582EF3400F583E8F0A3E9F038
:1059F300EE240FF582EF3400F583E4F0EE241CF57A
:105A030082EF3400F583E06401701EEE2420F582FA
:105A1300EF3400F583E0F8A3E0F9EE241DF582EFFF
:105A23003400F583E8F0A3E9F09003AAE06052EEB6
:105A3300241CF582EF3400F5837401F0EE2469F53C
:105A430082EF3400F583E07038EE2473F582EF348F
:105A530000F583E0702BEE247FF582EF3400F583AD
:105A6300E0701EEE2420F582EF3400F583E0F8A306
:105A7300E0F9EE241DF582EF3400F583E8F0A3E9A5
:105A8300F0906062E07003025B6D8E828F83E0F8BA
:105A9300A3E0F9E82406FCE93400FDE82402FAE96E
:105AA3003400FB120CC08E828F83E0F8A3E0C8247D
:105AB30012F582E8025B739003B1E0603AEE240FC3
:105AC300F582EF3400F583E4F0EE241CF582EF3425
:105AD30000F583E064017040EE2420F582EF34008A
:105AE300F583E0F8A3E0F9EE241DF582EF3400F529
:105AF30083E8F0A3E98020EE24FCF582EF3400F57F
:105B030083E02401F0A3E03400F0EE241DF582EFDE
:105B13003400F583E4F0A3F0EE240BF582EF3400B8
:105B2300F583E0F8A3E0F98E828F83A3A3A3A3A355
