:020000040000FA
:06000000020107022227A5
:03002B0002269F0B
:0300330002268121
:03003B000226C0DA
:030043000226355D
:0300530002229AEC
:03006B0002265B0F
:10008300022093E5C754F84401F5C7790122000023
:100093000080FB120086B900030200F1E4792178A5
:1000A30008B800028004F709D8FCE479297802B87B
:1000B30000028004F709D8FCE4900281784E790CA1
:1000C3008002F0A3D8FCD9FA7ACE7B0D9001377861
:1000D300F479038015E493A3AD82AE838A828B8384
:1000E300F0A3AA82AB838D828E83D8E9D9E7758288
:1000F3003E7583BA74031201197582917583007476
:100103000012011975D00075813F751881751902A8
:10011300759F00020096C09FF59FE473D09F22D085
:1001230083D082C09FE493C0E0740193C0E0740263
:1001330093F59F22FF0000B4000028002800283018
:1001430075A000A000A000A00000080008E001F0D6
:10015300001000100010001000100010005000509C
:1001630000500010001000D0070000000000000F36
:100173000001000500307507001000010081FF0039
:10018300000000FF280646062E06FF0202020802B0
:100193005000A0000000E80302A186010000898648
:1001A300029D86010000250E029586010000B30220
:1001B300029D86010000260E021E86010000C90270
:1001C300029D86010000270E029986010000CB02E2
:1001D300029D86010000280E02A586080000CC02BD
:1001E300029D86010000290E02A7860100002A0E47
:1001F300FF0100FF2002A1860100009286029D8676
:100203000100008E0E02CB860000000000029786DC
:100213000300001903160C160C160C160C160C16FC
:100223000C160C160C160C160C160C160C160C9839
:100233000EB00E920EFFFF0202020202020202023F
:10024300010D000000100102A1860100008C86024E
:100253009D86010000D10E02B9860100005D0702F0
:100263009D86010000D20E02B786010000B185020F
:100273009D86010000D30E02B58601000088850229
:100283009D86010000D40E02B3860100008484021F
:100293009D86010000D50E02B1860100003C840258
:1002A3009D86010000D60E02AF8601000060840225
:1002B3009D86010000D70E02AD8601000072840204
:1002C3009D86010000D80E02AB860100007A8502EC
:1002D3009D86010000D90E02A986010000DA0E01F5
:1002E300E803053F100AFF00013075030201060011
:1002F30000000000000000000000000000000000FB
:100303000000000000000000000000FFFF06008066
:100313000CE80325020305070B0D1113171D1F53CB
:10032300292B2F353B3D4347494F01020304050663
:100333000708090A0B0C0D0E0F1001020304050632
:100343000708090A0B0C0D0E0F10080964422E440E
:10035300657673051250002003020A0064422E449E
:10036300657673000000000000000000000000003C
:10037300004E130000541302307844423031000A17
:100383003078444230320008307844423033001031
:10039300307844423034000830784442303500022B
:1003A300A1860100008F86029D86010000111002C4
:1003B300C186010000870D029B8601000012100216
:1003C3009D86010000191002C3860300009B0D02E5
:1003D3009B860100001A10029D8601000021100275
:1003E300C586020000AF0D029B86010000221002A9
:1003F3009D86010000291002C786000000C30D027C
:100403009786030000C40D029B860100002A100298
:100413009D86010000311002C986020000CA0D0248
:100423009B8601000032101201221EFE02120122DD
:1004330035FE0212012266FE02120122A1FE021201
:100443000122CBFE02120122F5FE021201220CFF51
:100453000212012223FF021201223AFF0212012299
:1004630063FF0212012276FF021201228CFF0212A5
:1004730001229FFF02120122C6FF021201222AC19A
:10048300021201222EC20212012266C202120122AC
:1004930089C20212012294C202120122B7C20212BD
:1004A3000122C6C3021201229BC40212012216C5F5
:1004B300021201229EC502120122D9C50212012293
:1004C30010C6021201229EC60212012277C702122F
:1004D3000122D7C702120122E2C70212012261C818
:1004E3000212012264C80212012267C80212012209
:1004F300F6C802120122F9C80212012229C9021206
:10050300012253C90212012241CA02120122F3CA73
:1005130002120122F4F4021201221CF5021201223A
:100523004AF50212012281F502120122DFF50212BD
:1005330001222AF60212012275F602120122B5F6F1
:1005430002120122FBF60212012229F702120122F2
:10055300E6F702120122F0F702120122FDF702125E
:10056300012230F802120122FCF80212012208F9DA
:100573000212012220F9021201222AF90212012297
:1005830095B503120122A3B503120122BBB50312D1
:100593000122D3B503120122F4BE01120122A0BF2E
:1005A300011201221BC0011201223CC101120122CE
:1005B30078C10112012221C20112012208C30112D2
:1005C30001226CC401120122C3C40112012244C5D9
:1005D3000112012234C60112012281C60112012235
:1005E30007C70112012239C7011201224DC90112A5
:1005F30001228FC901120122ADC90112012230CAA1
:100603000112012204CB01120122CCCB01120122DF
:1006130077E3021201224AE402120122F3E40212F6
:10062300012246E502120122F6E50212012282E6C8
:10063300021201226EE7021201229DE70212012239
:10064300B0E802120122F8E802120122CDE90212F7
:10065300012209EA0212012225EA02120122ECB860
:10066300031201222E90031201224490031201224D
:100673006A900312012286910312012290910312C0
:100683000122C59203120122BD9303120122CDEF71
:1006930002120122FDF00212012230F102120122A4
:1006A3007AF10212012241F30212012205AF011273
:1006B30001226FAF01120122CEB001120122DEB07E
:1006C300011201220BB10112012262B101120122B6
:1006D3000BB20112012212B301120122DCB3011287
:1006E30001223CB5011201227FB50112012224B679
:1006F3000112012271B60112012297B601120122E1
:10070300A5B801120122AAB801120122AFBA01123F
:100713000122FCBA011201226FBB01120122A2BB0A
:100723000112012244BC01120122EDBC011201227B
:1007330025BD0112012228BD0112012270BD011243
:100743000122B0BD0112012207BE0112012220A71E
:100753000312012238A70312012280A703120122E8
:1007630096A703120122DDA703120122F1A80312A7
:1007730001227EA903120122C9A9031201223427EF
:10078300001201224027001201227B2700120122BE
:10079300C02700120122802800120122062900121C
:1007A30001223229001201226B2900120122A92BF6
:1007B300001201228D2D00120122732F001201223B
:1007C300B630001201220433001201221634001243
:1007D30001226135001201227136001201228E3688
:1007E30000120122C93600120122EB360012012247
:1007F3004E37001201220F3C00120122A43C0012CA
:100803000122F53C001201221C3D001201226E3D23
:10081300001201228C3D00120122E63D001201224A
:10082300E53E00120122693F001201229AEA0212F8
:100833000122A4EA02120122E7EA0212012202EBD8
:100843000212012292EB02120122BAEB02120122DE
:10085300F7EB021201222EEC0212012257EC0212D4
:100863000122CCEC02120122E1EC02120122F6EC8D
:100873000212012227ED021201223BED0212012294
:1008830060ED021201229AED02120122C6ED02125C
:100893000122FEED021201225DEE02120122DCEEC4
:1008A3000212012207EF0212012250EF021201226B
:1008B3007AEF02120122A5EF02120122A3B303125F
:1008C300012229A90212012257A902120122A5AA73
:1008D3000212012285AB02120122A4AB02120122F1
:1008E30021AC0212012264AC02120122BAAD02123F
:1008F30001227BAE0212012202B102120122A3B134
:100903000212012299B20212012296B302120122AB
:10091300F0B4021201227BB50212012248B2031283
:100923000122B1B20312012205B3031201222CB337
:10093300031201225DB303120122B1F90212012253
:100943001EFA0212012265FA021201227DFB021233
:10095300012279FC021201225CFD0212012264CB06
:1009630002120122A6CB0212012278CC021201222A
:1009730051CD021201224BCE021201222DCF0212BF
:10098300012296CF021201224CD002120122C0D0C2
:10099300021201222CD10212012255D1021201228C
:1009A300CFD10212012268D202120122CDD2021249
:1009B3000122E2D20212012228D30212012241D3E0
:1009C30002120122A6D302120122A9D3021201228A
:1009D30027A4031201224FA4031201228DA40312A0
:1009E30001224BA503120122B2A503120122CEA5B7
:1009F30003120122F6A50312012226A603120122E5
:100A030035A603120122B2A603120122D8A60312AD
:100A13000122DE6C00120122BC6E00120122EE7074
:100A2300001201222A7100120122577100120122C1
:100A33004172001201228C7200120122D77200123D
:100A43000122E972001201222973001201225E734E
:100A530000120122AC7300120122DB730012012287
:100A6300FE73001201224B7400120122D074001293
:100A73000122EA76001201222979001201226A7901
:100A8300001201220C7B001201224D7B0012012275
:100A9300C07B00120122117C00120122EC7C0012A7
:100AA3000122167D001201224B7D00120122149CAB
:100AB30002120122129D02120122ABA30212012291
:100AC300CCA50212012297A702120122FFA802124B
:100AD3000122D03F001201227F4000120122C540B3
:100AE30000120122FB4100120122294200120122BD
:100AF300BF43001201223944001201225444001260
:100B03000122CF4400120122294600120122894703
:100B1300001201228F4800120122F0490012012223
:100B2300094A00120122674A00120122554B0012A2
:100B33000122884B00120122F84B00120122724C51
:100B430000120122BC4C00120122864D0012012228
:100B53005B4E001201223A4F00120122C54F0012D0
:100B63000122335000120122A75000120122D25059
:100B730000120122915100120122F65200120122A9
:100B83001353001201223253001201222354001284
:100B93000122485400120122725400120122ED5422
:100BA30000120122475500120122B0560012012201
:100BB3005E57001201229F570012012232EB0112ED
:100BC300012280EB011201228CEB011201226AEC5B
:100BD300011201229BEC01120122CCEC0112012231
:100BE3004CED01120122CAED0112012202EE0112A3
:100BF300012254EE0112012291EE01120122AEF004
:100C030001120122D4F201120122BFF401120122C6
:100C1300A9F601120122292700120122F29A0112D8
:100C23000122229B01120122FBA10112012280A3B6
:100C3300011201227DA90112012265AA01120122DA
:100C4300A2AA01120122C5AA01120122F6AA0112C7
:100C53000122FFAA0112012209AB01120122F7AB03
:100C630001120122EDAC01120122CF570012012221
:100C7300CE5B00120122D45B001201220F6300122B
:100C83000122286800120122C69A03120122C09B86
:100C930003120122349C03120122729C03120122CB
:100CA300E69C031201225F9D03120122689D031239
:100CB3000122749D03120122899D03120122C79D03
:100CC30003120122DD9D031201220080031201227F
:100CD3000D80031201222780031201226680031272
:100CE3000122A480031201220981031201221E8121
:100CF30003120122298103120122368103120122E8
:100D03004D81031201225B810312012266810312CA
:100D130001227281031201228181031201228C813B
:100D230003120122AF810312012256820312012210
:100D33006682031201228082031201229D82031222
:100D43000122B98203120122DE8203120122E98207
:100D530003120122FE8203120122128303120122D3
:100D63007383031201227983031201227F83031207
:100D730001228583031201229D8303120122D08362
:100D8300031201220580021201228980021201222C
:100D9300388102120122978202120122B8840212C0
:100DA3000122A48502120122D98502120122FB85A8
:100DB30002120122AA8602120122A2880212012231
:100DC300CB88021201225D89021201228F8902124D
:100DD30001229C8902120122F38902120122198A3B
:100DE30002120122868C02120122898D0212012233
:100DF300E18D02120122C6DC01120122D0DD0112B3
:100E03000122B7DE01120122C1DE01120122E3DE5B
:100E130001120122EFDE0112012288E001120122F8
:100E2300B7E001120122D3E1011201222CE20112E7
:100E3300012292E30112012271E401120122CDE4A5
:100E4300011201223AE50112012275E50112012284
:100E5300B4E5011201226DE80112012287E80112B3
:100E6300012213E90112012221E9011201227AE987
:100E73000112012288E901120122FBE90112012278
:100E83005FEA01120122A9EA01120122FCB5021252
:100E930001221EB60212012244B80212012259BBDA
:100EA3000212012271BC0212012224BD021201228C
:100EB30006BE02120122A4AD03120122C9AD031220
:100EC30001223BAE03120122FDDB0212012206DCEA
:100ED300021201220FDC02120122E6DC02120122BD
:100EE30097DE02120122CDDE0212012207DF021277
:100EF30001223DDF0212012277DF02120122ABDF62
:100F030002120122D7DF0212012220E00212012283
:100F13005AE002120122A3E002120122FBE00212B4
:100F2300012230E1021201228BE102120122C5E10A
:100F33000212012216E2021201224CE202120122E3
:100F430086E202120122B4E202120122D7E2021265
:100F5300012222B7031201224EB703120122A9B7BD
:100F630003120122B3B703120122C3B703120122F2
:100F730084F9011201228EF901120122CCF9011226
:100F8300012215FA011201224FFA01120122A9FAD4
:100F930001120122CAFA01120122D3FA011201221B
:100FA30024FB011201224DFB0112012257FB011206
:100FB3000122C3FB0112012251FC011201229FFCF9
:100FC30001120122D5FC011201225CFD0112012252
:100FD3009CFD01120122D4FD01120122E6FD011242
:100FE300012205FE011201220EFE01120122C8FE9A
:100FF30001120122C79303120122BC94031201229E
:10100300D69403120122E794031201221C970312C0
:101013000122F3A90312012229AA031201225FAAC2
:1010230003120122B8AB0312012270B90312012289
:1010330086B90312012290B903120122DAB903120D
:1010430001224D84031201226684031201220A85C0
:10105300031201224A85031201226385031201222E
:10106300978503120122E4850312012218860312D5
:1010730001225A8603120122BCB403120122E5B4F1
:10108300031201220EB50312012250B503120122ED
:101093000D9E03120122329E031201225E9E031251
:1010A3000122DABA03120122CF8601120122338907
:1010B30001120122E58A01120122D78B01120122BA
:1010C3005C8C01120122DA8C01120122078D0112BC
:1010D30001222B9001120122A59001120122949169
:1010E30001120122CE91011201220E92011201225C
:1010F300C893011201221B9401120122649401126C
:101103000122D294011201220495011201221C959D
:10111300011201223196011201224196011201228C
:10112300719701120122939701120122C9970112AB
:1011330001226E9901120122AD9901120122CD9A69
:10114300011201226CB6031201227DB603120122A1
:1011530091BA03120122D0BA03120122D8FF02125C
:101163000122CDB703120122DDB703120122F5B725
:10117300031201225BB803120122F2FE01120122C3
:1011830077FF01120122DDFF01120122D0B0031209
:101193000122F9B00312012264B103120122B5B195
:1011A300031201220EB2031201224A8C03120122FE
:1011B300818C03120122F18C03120122068D03128A
:1011C30001224F8E03120122158F03120122348F45
:1011D300031201225B8F03120122908F031201225B
:1011E300A88F03120122F98F03120122EBFF0212CF
:1011F3000122579703120122E797031201226598F0
:1012030003120122EE980312012283990312012291
:101213000D9A03120122179A03120122269A03122E
:1012230001223C9A031201224F9A03120122AF9A20
:1012330003120122C39A0312012265B80312012289
:10124300CFB803120122E1B80312012249AF0312FE
:1012530001229EAF031201220CB0031201227CB0C3
:1012630003120122767D00120122A07D00120122C9
:10127300757E00120122697F00120122CDD3021272
:1012830001228AD402120122C5D402120122EDD412
:10129300021201224FD5021201229BD50212012212
:1012A300F4D50212012285D60212012287D7021237
:1012B300012244D902120122C6D9021201222BDAD9
:1012C3000212012242DA0212012252DB021201222D
:1012D30090DB021201222F8E02120122B991021217
:1012E3000122419302120122989302120122B79321
:1012F30002120122359402120122D3950212012215
:10130300B79602120122A19A02120122719B0212C4
:1013130001221EA1031201224DA10312012263A186
:1013230003120122ABA103120122EDA10312012238
:1013330058A2031201222AA303120122A2A3031219
:101343000122E5CD0112012269D1011201226FD2DE
:1013530001120122A3D4011201227DD5011201221F
:10136300F1D50112012239D60112012250D6011200
:1013730001225CD801120122C5D80112012268D9C9
:101383000112012244DA0112012276DA011201224A
:1013930099DA011201226EDB011201225E88031227
:1013A3000122A38803120122C088031201224F895C
:1013B30003120122C389031201229D8A031201220F
:1013C300118C03120122F2AB0312012216AC031299
:1013D3000122E4AC031201225CAD0312012221BB02
:1013E30003120122E17F00E066701008A3E066703B
:1013F3000A08A3E066700408A3E06622C3E7960820
:1014030009E7960809E7960809E79622C3E09608D4
:10141300A3E09608A3E09608A3E09622C008C3E0E1
:1014230096F50808A3E096420808A3E09642080848
:10143300A3E09645087001D3D00822080808EAC043
:10144300E0EBC0E086F0E7A4FA180986F0E7A42AE7
:10145300FA180986F0E7A42AFA180986F0E7A42AFD
:10146300FA1986F0E7A4FBE5F02AFA190886F0E7F3
:10147300A42BFBE5F03AFA190886F0E7A42BFBE569
:10148300F03AFA18180986F0E7A4C5F02BFBE43A02
:10149300FA1908E7C5F0C6A426F6E5F03BFBE43AE3
:1014A300FA1886F0E7A4F6E5F00826F6E43B08F61A
:1014B300E43A08F6D0E0FBD0E0FA22E4CFC0E0E45F
:1014C300CEC0E0E4CDC0E0E4CCC0E075F020E62679
:1014D300F608E633F608E633F608E633F618181886
:1014E300EC33FCED33FDEE33FEEF33FFC3EC970932
:1014F300ED9709EE9709EF97191919400FFFEC972C
:10150300FC09ED97FD09EE97FE191906D5F0BFEC1E
:10151300F709EDF709EEF709EFF7191919D0E0FC10
:10152300D0E0FDD0E0FED0E0FF226016080808C638
:10153300C313C618C613C618C613C618C613C6D512
:10154300E0EA227009080808226016181818C6C3B2
:1015530033C608C633C608C633C608C633C6D5E085
:10156300EA22E627F60809E637F60809E637F60819
:1015730009E637F622E026F608A3E036F608A3E0EC
:1015830036F608A3E036F622E026F008A3E036F0AC
:1015930008A3E036F008A3E036F022C3E697F60886
:1015A30009E697F60809E697F60809E697F622C3CF
:1015B300E096F008A3E096F008A3E096F008A3E015
:1015C30096F022E657F60809E657F60809E657F6B5
:1015D3000809E657F622E056F608A3E056F608A3F4
:1015E300E056F608A3E056F622E056F008A3E056CC
:1015F300F008A3E056F008A3E056F022E0F608A3B3
:10160300E0F608A3E0F608A3E0F622E6F008A3E676
:10161300F008A3E6F008A3E6F022E0FAA3E0FBA3B8
:10162300E0FCA3E0FD22EAF0A3EBF0A3ECF0A3EDD2
:10163300F022E0F8A3E0F9A3E0FAA3E0FB22E8F04C
:10164300A3E9F0A3EAF0A3EBF022CAC0E0E6F0A31B
:1016530008DAFAD0E0FA22CAC0E0E0A3C582CCC51A
:1016630082C583CDC583F0A3C582CCC582C583CD96
:10167300C583DAE6D0E0CA22C3E498F8E499F91204
:1016830016BC8026C3E49AFAE49BFBE920E7E9123F
:1016930016BCE498F8E499F922C3E498F8E499F9BC
:1016A3001216BCE498F8E499F9C3E49AFAE49BFBB4
:1016B30022EB20E7CFE920E7E0B90010BB0008E800
:1016C3008AF084F8AAF022E4FBC8FA22EB70227BAA
:1016D30010C833C8C933C9335007C39AC3DBF28078
:1016E300069A50012ADBEAC833F4C8C933F4C9FAAD
:1016F3002275F008E4C833C8C933C933C99AC99BF2
:101703005004C92AC93BD5F0ECFBC833F4C8E4C97B
:10171300FA22600D08C6A2E713C618C613C6D5E0A1
:10172300F322600C08C6C313C618C613C6D5E0F46B
:1017330022700422600D18C6C333C608C633C6D54B
:10174300E0F41822251810AF08F518400C1519807D
:1017530008F51840021519D2AF2200C0D025181081
:10176300AF08F518500C05198008F5185002051933
:10177300D2AFD0D0222518F58210AF08F518400C4F
:1017830015198008F51840021519D2AF851983225F
:101793002518F582E43519F583222518F8E435195F
:1017A300F9222518FAE43519FB222518FCE435192A
:1017B300FD22E4732518C582C0E0E51934FFC58313
:1017C300C0E0E518C3958224F810AF088583198516
:1017D30082188008858319858218D2AFCEF0A3E5DD
:1017E30020F0A37808E608F0A3DEFAEFF0A3E58182
:1017F30024FAF8E608F0A3E608F0A3E608F0A30845
:1018030008E608F0A3E608F0A315811581D0E0FEF1
:10181300D0E0F8158115811581E8C0E0EEC0E02223
:101823002518C582C0E0E51934FFC583C0E0E5187B
:10183300C3958224F910AF0885831985821880081F
:10184300858319858218D2AFCEF0A3E520F0A37863
:1018530008E608F0A3DEFAEFF0A3E58124FBF8E63F
:1018630008F0A3E608F0A30808E608F0A3E608F0EA
:10187300A315811581D0E0FED0E0F815811581E82C
:10188300C0E0EEC0E022851983851882E0A3FEE064
:10189300A3F5207808E0A3F608DFFAE0A3FFE0A3AE
:1018A300C0E0E0A3C0E0E0A3C0E0E0A3C0E0E0A3A9
:1018B300C0E010AF088582188583198008858218D7
:1018C300858319D2AFD083D08202011F8519838506
:1018D3001882E0A3FEE0A3F5207808E0A3F608DF72
:1018E300FAE0A3FFE0A3C0E0E0A3C0E0E0A3C0E010
:1018F300E0A3C0E010AF08858218858319800885AE
:101903008218858319D2AFD083D08222C0D0251804
:10191300C582C0E0E51934FFC583C0E0E518C3956F
:101923008224F310AF088583198582188008858384
:1019330019858218D2AFC8F0A3E9F0A3EAF0A3EBAC
:10194300F0A37908E709F0A3D8FAECF0A3EDF0A32C
:10195300EEF0A3EFF0A3D0E0F0A3D0E0F0A3D0E04B
:10196300F0A3E520F0A3E5F0F0A322851983851801
:1019730082E0C0E0A3E0F9A3E0FAA3E0FBA37808C8
:10198300E0F608A3DFFAE0FCA3E0FDA3E0FEA3E09A
:10199300FFA3E0C0E0A3E0C0E0A3E0F5D0A3E0F53F
:1019A30020A3E0A3F5F010AF088583198582188082
:1019B30008858319858218D2AFD082D083D0E0F80E
:1019C300D0E03274048006740280027401C0E0F433
:1019D30004121778D0E012164D22740480047402A6
:1019E3008000CCC0E0EDC0E0E518C39CCCAD19503D
:1019F300011D10AF068C188D1980068C188D19D215
:101A0300AF12165AD0E0FDD0E0FC22D083D082E999
:101A1300C0E0E493A3C386F0C5F095F0F908E4931E
:101A2300A386F0C5F095F0700BE493A3C39940052A
:101A3300E9048002A3E475F002A42582F582E5F0AF
:101A43003583F583D0E0F9E493A3C0E0E493C0E0E9
:101A530022D083D082ECC0E0EDC0E0E493A3FCE4A9
:101A630093A3FDED4C600D121AA0EC24FFFCED34A2
:101A7300FFFD80EFE493A3FCE493A3FDED4C600D25
:101A8300121ADFEC24FFFCED34FFFD80EFD0E0FD04
:101A9300D0E0FCE493A3C0E0E493C0E022C0E0C341
:101AA300E49396087401939618400FE493667008C4
:101AB30008740193661870007019A3A3C3E4939686
:101AC300087401939618A3A3400DD0E0D0E0D0E0B2
:101AD300021A90A3A3A3A3A3A3D0E022C0E0C0F063
:101AE30088F0E4936670080874019366187000A880
:101AF300F0A3A3700BD0F0D0E0D0E0D0E0021A90B6
:071B0300A3A3D0F0D0E02203
:101B0C0074F5121823EAFEEBFFEE2434F8EF3400E0
:101B1C00F988088909EE2435F582EF3400F583E065
:101B2C00F8EE2437F582EF3400F583E0F50AEC8506
:101B3C000AF0A4FCAAF0850AF0EDA42AFDE82CF822
:101B4C00E43DF97A257B001216BCEA8508828509EA
:101B5C0083F0F8740758F97401B900028004C33398
:101B6C00D9FCFAE8131313541FF8EE28F8EF3400DD
:101B7C00F9E8245DF582E93400F583E05A6008EE5B
:101B8C002434F582EF802CEE2434F582EF3400F50A
:101B9C0083E0C0E0EE2436F582EF3400F583E0F507
:101BAC00F0D0E084A8F0EE28F8EF3400F9E82438FF
:101BBC00F582E93400F583E0F97F040218CF74F55F
:101BCC00121823EAFEEBFFEE2434F582EF3400F515
:101BDC0083E0C0E0EE2435F582EF3400F583D0E0ED
:101BEC00F08E828F83A3A3A3A3A3A3A3C082C083DD
:101BFC008E828F83A3A3A3A3A3E0F8A3E0F9D083E1
:101C0C00D082E0C398F508A3E099F509EE247FF59E
:101C1C0082EF3400F583E064017069EE2480F58274
:101C2C00EF3400F583E0F8A3E0F98E828F83A3A351
:101C3C00A3A3A3A3A3E0FCA3E0FD8E828F83A3A3A5
:101C4C00A3A3A3E0FAA3E0FBC3EA9CEB9D5010C353
:101C5C00EC98ED99402EC3EA98EB995027800EC36F
:101C6C00EA98EB994007C3EC98ED9940177CDC7D22
:101C7C0004EEFAEFFB120B6EEE247FF582EF3400CC
:101C8C00F583E4F0EE2434F8EF3400F9E8FCE9FDD8
:101C9C00EE2435F582EF3400F583E0F8EE2437F5C9
:101CAC0082EF3400F583E0F50AE508850AF0A4F527
:101CBC0008AAF0850AF0E509A42AF509E82508F830
:101CCC00E43509F97A257B001216BCEA8C828D83E7
:101CDC00F0F8740758F97401B900028004C333D9C1
:101CEC00FCFAE8131313541FF8EE28F8EF3400F93C
:101CFC00E8245DF582E93400F583E05A6008EE24AF
:101D0C0034F582EF802CEE2434F582EF3400F58329
:101D1C00E0C0E0EE2436F582EF3400F583E0F5F018
:101D2C00D0E084A8F0EE28F8EF3400F9E82438F578
:101D3C0082E93400F583E0F9122621021BC5C0822A
:101D4C00C083851882851983E0F8A3E0F9C3EA9C67
:101D5C00EB9D5010C3EC98ED99401BC3EA98EB999E
:101D6C005014800EC3EA98EB994007C3EC98ED9998
:101D7C004004790180027900D083D08222EAC39C8E
:101D8C00FAEB9DFB2274EF1218239003A2E0640877
:101D9C006005E06407702A9061C8E060249003D06D
:101DAC00E0F4601DE0F875F003A4C8AAF02AF974F9
:101DBC00D228FE740339FF8E828F83A3A3A3E07015
:101DCC0003021EC1906060E0C0E0EE2468F582EF73
:101DDC003400F583D0E0F0750C45750D05750800E1
:101DEC00750900E5D914F50AE5D95403F50E601709
:101DFC007403650E605CE50A6010EE2467F582EFF3
:101E0C003400F583E07003021EA6900540E06401E7
:101E1C00602AEE2482F582EF3400F583E0600478CA
:101E2C000480027800850A08E508C398FA95E0FB5F
:101E3C00120A248A088B09EA45097005120D66807E
:101E4C0074EE2482F582EF3400F583E070048A0C82
:101E5C008B0DE50A6012850C82850D83F50BE5D997
:101E6C00F0A3150BE50B70F6EE2482F582EF34002F
:101E7C00F583E0604474FC250AF50A780C1219CA43
:101E8C00AC0AA90EEEFAEFFB120C10740212175DDD
:101E9C00E97026AA08AB09121252793D8E828F8303
:101EAC00A3A3A3A3E0FA7B001208F8EEFAEFFB124F
:101EBC000B86120C22790080747403650E605685B3
:101ECC000A1075110078101219CAAC0CAD0DAA08C5
:101EDC00AB09120BEC740212175DEE2468F582EF5D
:101EEC003400F583E064807004747F8001E0F50CAD
:101EFC00780C1219CEE50EF50C780C1219CEA90A35
:101F0C00AC08AD099003D0E0FA7B001208BC740257
:101F1C0012175D80139003A2E06408600BAC0CAD4B
:101F2C000DEEFAEFFB120C7C120D7279017F0A0296
:101F3C0018CF74F512182374FC121747EAFEEBFF46
:101F4C008908A2AFE433F509C2AF806AEE2463F8C6
:101F5C00EF3400F97A007B00A2AFE433F50AC2AF8C
:101F6C0088828983E0FCA3E0FDEC4D603A8882898D
:101F7C0083E0FAA3E0FB8A828B83E0FCA3E0FD887C
:101F8C00828983ECF0A3EDF08A828B83E4F0A3F0DA
:101F9C0088828983E0FCA3E0FDEC4D700A8882897D
:101FAC0083A3A3E4F0A3F0E50AA2E092AF121252CD
:101FBC009004E3E004F0EE2463F582EF3400F58343
:101FCC00E0F8A3E0F9E849603DEE2463F582EF34D4
:101FDC0000F583E02402FAA3E03400FBEA2402F5C6
:101FEC000AEB3400F50B780A1219CA8A828B83E04B
:101FFC00FCA3E0F9EEFAEFFB120BAA740212175DC8
:10200C00E97003021F589004E3E060639004E4E07D
:10201C00F89004E3E0C398500C740265087050907B
:10202C0004E5E0604A8E828F83A3A3A3A3E0851806
:10203C0082851983F0A3E4F09004E3E0F8740212B3
:10204C001793E8F0A3E4F09004E3E0F89004E2E0E6
:10205C0028F07402121793AC82AD8385188285190F
:10206C0083AA82AB8379011208C89004E3E4F0E5FB
:10207C0009A2E092AF740412175D021BC5000000A8
:10208C008521878522C622C0E0C0D0E8C0E0E9C027
:10209C00E0EAC0E0EBC0E0ECC0E0EDC0E0EEC0E098
:1020AC00C008C009C00AC00BC082C083C0F0A2AF78
:1020BC00E433FEC2AF759B00906182E0A2E0501247
:1020CC00E591A2E0500C7591FE740165217003122C
:1020DC001D91E0A2E55051E591A2E5504B7591DFC1
:1020EC009003A2E064076005E06408702374016546
:1020FC0021703579019003D0E0FA75F003A4CAA8D9
:10210C00F028FB74D22AFA74033BFB121F3E801892
:10211C00E0640D70139003C4E004F064287002E4D2
:10212C00F07A00E0F9120D78906182E0A2E64003AB
:10213C000221DAE591A2E640030221DA7591BF9003
:10214C0003A2E064057008120CA6120CB2800312F4
:10215C000CAC752100120D06E99003A3F079001266
:10216C000CFA120ADE7A017B009003A1E0F9120F3F
:10217C00CA907803E064427055900544E014F07006
:10218C004DC2AF12219200782AD0E0F618D0E0F6BA
:10219C00E59F540770057509FF800375097FC4C05E
:1021AC00E07829E6F50808E65509F509740B780876
:1021BC00121725D0E02508F8906270E0A2E740F8ED
:1021CC00E8C333906272F0906270E0D2E0F09061FC
:1021DC0081E0A2E35009E5E9A2E3500375E9F7A316
:1021EC00E0A2E75009E591A2E7500375917FEEA2BA
:1021FC00E092AFD0F0D083D082D00BD00AD009D0EF
:10220C0008D0E0FED0E0FDD0E0FCD0E0FBD0E0FA5E
:10221C00D0E0F9D0E0F8D0D0D0E032C0E0C0D0C0EF
:10222C0082C083906183E0A2E05009E5BFA2E05038
:10223C000375BFFEE0A2E15009E5BFA2E1500375B2
:10224C00BFFDE0A2E25009E5BFA2E2500375BFFB5F
:10225C00E0A2E35009E5BFA2E3500375BFF7E0A28B
:10226C00E45009E5BFA2E4500375BFEFE0A2E550CE
:10227C0009E5BFA2E5500375BFDFE0A2E65009E512
:10228C00BFA2E6500375BFBFD083D0828088C0E068
:10229C00C0D0E8C0E0E9C0E0EAC0E0EBC0E0ECC0D0
:1022AC00E0EDC0E0C0F0E5A7A2E6500FE5A1A2E684
:1022BC00500953A7BF75A1BF1222FFE5A7A2E55095
:1022CC000CE5A1A2E5500653A7DF75A1DFE5A7A297
:1022DC00E15009E5A1A2E1500375A1FDE5A7A2E239
:1022EC00500CE5A1A2E2500653A7FB75A1FBD0F060
:1022FC0002221074F81218237521019003A2E064D5
:10230C00067015120C408A828B83A3A3A3A3A3A3EC
:10231C00E0FAA3E0FB120C94A2AFE433FED2AF9030
:10232C0003A8E0640170187A207B009003A1E0F907
:10233C001210667A207B009003A1E0F9120FD09066
:10234C006182E0D2E6F0900541E0602185C62280F2
:10235C00169003A7E064017008E5C654F84405F52F
:10236C00C653BEFC12208C7401652160E4EEA2E021
:10237C0092AF7F010218CF008E238F24858228858F
:10238C008327851882851983E0CEA3E0CF85288228
:10239C00852783EBC9EAC8EDCBECCA75F010C3E80E
:1023AC0033C8E933C9EA33CAEB33CBC3EA9EF5260B
:1023BC00EB9FF525B35004AB25AA26EC33CCED33BB
:1023CC00CDD5F0DAAE23AF242274ED1218238A088F
:1023DC008B098C0A8D0B7413121793780C1215FF42
:1023EC007808790C1213FF7510017511C87512005D
:1023FC0075130050127808790C12159E7810790814
:10240C001213FF50168010780C790812159E781054
:10241C00790C1213FF40047901800279007F0C02C1
:10242C0018CF74ED1218238A088B098C0A8D0B7443
:10243C0013121793780C1215FF780C79081213FFEE
:10244C0040117808790C12159EAA08AB09AC0AAD9C
:10245C000B80227510007511007512007513017830
:10246C0010790C12159E78107908121565AA10AB0C
:10247C0011AC12AD1380A68A828B837508FF750987
:10248C00FF750AFF750B0078081215EC7F04021813
:10249C00CF74F51218238C828D8378081215FF8A5D
:1024AC00828B8378081215B2EA2404F8EB3400F915
:1024BC008C828D83A3A3A3A3E0FCA3E0FD88828977
:1024CC0083C3E09CF0A3E09DF088828983C3E094F1
:1024DC0020A3E0944E40268A828B837508FF7509F1
:1024EC00FF750AFF750BFF780812158B8A828B8398
:1024FC00A3A3A3A3E02420F0A3E0344EF002248392
:10250C0074F5121823E9FE9004F7E0FAA3E0FBEE51
:10251C00C333F8E433F9745B28F582748539F58399
:10252C00E02AF508A3E03BF50978081219CA7A40AD
:10253C007B427C0F7D00122384740212175D8A0883
:10254C008B098C0A8D0B7410780812152DAA08AB08
:10255C00097F040218CF74F11218238A0C8B0D8C8E
:10256C000E8D0F740F121793E0FAA3E0FB74111287
:10257C001793E0F508A3E0F50978081219CAEA24C4
:10258C0001F508EB3400F509E4F50AF50B780C7944
:10259C000812143E750871750902780C790812142A
:1025AC003EAA0CAB0DAC0EAD0F12238474021217A5
:1025BC005D8B09EA450960047A0180027A00EC2AF5
:1025CC00FCED3400FD7413121793E0F8A3E0F9E866
:1025DC00FEE9FFECF8EDF97A717B021216BC880863
:1025EC0089098E828F83780812160EECF8EDF97A31
:1025FC00717B021216BC8A088B09740578081217B5
:10260C00348E828F83A3A3A3A3E508F0A3E509F07E
:10261C007F080218CFC082C083E9906000F0D0839D
:10262C00D08222C2AF02000022C0E074F212190F55
:10263C00A2AFE433FED2AFC2C0E5D1A2E450065340
:10264C00D1EF121234EEA2E092AF7F0102196EC0EC
:10265C00E074F212190FA2AFE433FED2AFE589A2F7
:10266C00E150031211A4758900C2C5EEA2E092AF2D
:10267C007F0102196EC0E074F212190FA2AFE4339D
:10268C00FED2AFE58BA2E050031211A4758B00C2F1
:10269C00E880D8C0E0C0D0E8C0E0E9C0E0E5A8D24E
:1026AC00AFC2C7A2E7A2E792AFD0E0F9D0E0F8D072
:1026BC00D0D0E032C0E0C0D0E8C0E0E9C0E0C00853
:1026CC00C009C082C083A2AFE433F9D2AF9009D362
:1026DC00E0F8A3E0687008539AFBA374018025C24C
:1026EC00E99009D3E0F50874012508F07453250826
:1026FC00F582E43409F583E0F5C19009D3E0C39485
:10270C00804002E4F0E9A2E092AFD083D082D009FD
:10271C00D008D0E0F9D0E0F8D0D0D0E03202011FE0
:10272C00FFFFFFFFFFFFFFFFC082C083E9900E8D0C
:10273C00F002295E74F71217B7E99002E1F07C19E8
:10274C007D037AFF7BFF1208089002E274FFF0A36E
:10275C00F0A3E4F0A3F079051207969002E1E0F9FA
:10276C001206B87A207B081209D67F0102188974E8
:10277C00F41217B78A088B09EB548060309002E191
:10278C00E0F9120FB28A0A8B0BAE0AAF0BEE4F6058
:10279C00138E828F83E064B070031207A8EEFAEFF9
:1027AC00FB120FA0AA08E5096480FB80047A007B69
:1027BC000002292D74F21217B774FC121747EAFEA7
:1027CC00EBFFEE4F60387402121793EEF0A3EF128A
:1027DC002B92ECF0A3ED122B92AA82AB831206B2D1
:1027EC00E9F50870737412121793123746E50A450F
:1027FC000B60658E828F8312286EEE4F7005750804
:10280C000280557A067B0012101E8A0C8B0DA80CC8
:10281C00A90DE8497005750813803D88828983E409
:10282C00122878A3A3EEF0A3EF123BDFE50AF0A386
:10283C00E50BF09002E71229009002E76017E0FC2C
:10284C00A3E08003EAFCEBFD8C828D8312290070DF
:10285C00F38C828D8312366BA908740412175D02F7
:10286C003DE1A3A3A3A3E0FEA3E0FF22F0A3F08825
:10287C008289832274F21217B7890AE975F017A4BA
:10288C00FEAFF09002E6E4F09002E4122900600A38
:10289C001210249002E4E4F0A3F0EEFAEFFB121015
:1028AC001E8A088B09EA4509602FEEFCEFFD7900C2
:1028BC00120F8E9002E4E508F0A3E509F07B00808E
:1028CC00081228EAE4F0A3F00BEBC3950A40F2E5FA
:1028DC000A9002E6F0790080027913023DE1EB7573
:1028EC00F017A4F8A9F09002E4E028FAA3E0398AE2
:1028FC0082F58322123401EA4B2274F41217B77951
:10290C0000EAA2E0501B75084B750986780812196D
:10291C00CA7C047D007A8F7B0E120790740212170A
:10292C005D7F04021889C082C0839002E71229657A
:10293C00601C88828983A3A3E06A7003A3E06B8880
:10294C0082898370E8A3A3A3A31233FD80047A00C9
:10295C007B00D083D08202011F123EB4E84922745E
:10296C00EE1217B774FC121747EAFEEBFF851882BC
:10297C00851983E4F0A3F0EE240212364FEE240501
:10298C00122B80EE2404F50EEF122F65E024FE606E
:10299C003924FC604624FE605224FE605E24FE70E6
:1029AC0003022A8524FE7003022AFD24FE70030212
:1029BC002B0C24FE7003022B1B24FC7003022B2A0D
:1029CC0024FE7003022B39022B769003007417F04F
:1029DC00A3E4122B9A120430022B768518828519E7
:1029EC0083AC82AD831207AE022B46851882851903
:1029FC0083AC82AD831207B4022B46850C08850D7F
:102A0C00097402121793AC82AD8385088285098301
:102A1C001233FD1206D68A0C8B0DAC0CAD0DEC4DA1
:102A2C006042E4F50CF50D780C1219CA750C0075A2
:102A3C000D03780C1219CA750C01750D03780C1264
:102A4C0019CA74081217931219E179161233F71276
:102A5C0007F0740812175DE9F50C700B1233F312C2
:102A6C000448800F750C01850882850983122B8818
:102A7C0012366B850C08022B497402121793AC8228
:102A8C00AD83850C82850D831233FD1206D68A1018
:102A9C008B11AC10AD11EC4D6043850C82850D8310
:102AAC00A3A31219E175100075110378101219CA3D
:102ABC0075100175110378101219CA740812179346
:102ACC001219E179161233F71207F0740812175D18
:102ADC00E9F509700B1233F312044E800F750901DE
:102AEC00850C82850D83122B8812366B8509088024
:102AFC004C851882851983AC82AD831207BA803A53
:102B0C00851882851983AC82AD831207C0802B8512
:102B1C001882851983AC82AD831207C6801C851878
:102B2C0082851983AC82AD831207CC800D85188207
:102B3C00851983AC82AD831207D2E9F508E50860EC
:102B4C00298E828F83A3E06414601F850E82850F0B
:102B5C0083E0900300122B92123EB09003011236C8
:102B6C006BE508A3122B9A12042AEEFAEFFB12075C
:102B7C0054023557F50CEF3400F50D22123EB48596
:102B8C00188285198322F085188285198322F07C9E
:102B9C00007D03850A82850B831234012274EE12A8
:102BAC0017B774FC1217478A0A8B0B8C0E8D0FEA21
:102BBC002405F508EB3400F5097C157D0079007AC5
:102BCC00007B03120F8EE5082402F50CE509122B8D
:102BDC00838518828519838582108583117810125C
:102BEC0019CA850882850983A3A3A3A31230AD1249
:102BFC0019CAE5082405F510E5093400F51178101B
:102C0C001219CA850C82850D831234071206D074F2
:102C1C000612175D8A108B11AE10AF11E50A240253
:102C2C00F50AE50B123652EE4F7003022D6F80172A
:102C3C0074021217931233FD88828983EAF0A3EB96
:102C4C00F0900300E004F0900300E0C3940540030F
:102C5C00022D6FE4F510F51178101219CA7510E9F0
:102C6C0075110278101219CA7510EA7511027810D4
:102C7C001219CA74061217931219E17910EEFCEFAF
:102C8C00FD1233F71207F0740812175DE9705E85B8
:102C9C000882850983A3A3A3A3A3A3A3E0F89002AE
:102CAC00E9E06870481230AD1219CA7CEA7D02E581
:102CBC00082408FAE5093400FB120F887402121775
:102CCC005DE960298E828F83A3A3A3A31233FD90A9
:102CDC000300E0F5107402781012173474012510FB
:102CEC00F58274033511F583EAF0A3EBF07402124C
:102CFC00179385821085831178101219CA740212E9
:102D0C0017931219E1850C82850D83123EC51206AC
:102D1C00DC740412175D8A108B11AE10AF11900386
:102D2C0000E0F5107511007402781012173474005D
:102D3C002510F874033511F988828983A3122900B0
:102D4C007003022C33E82403F8E93400F9EE4F60E9
:102D5C0003022C3C8882898374FFF0A3F09003005B
:102D6C00E004F0900300E0600A1233F312043C79A3
:102D7C0000800B850882850983123662790A023538
:102D8C005774EA1217B774FE1217478C128D13EA98
:102D9C002405F50CEB123ECF12287275080075094C
:102DAC0000EA2402F510EB3400F511851882851920
:102DBC008385820A85830B780A1219CA850C828551
:102DCC000D83A3A3A3A3122F6F1219CAE50C24051C
:102DDC00F50AE50D123652780A1219CA850C82854D
:102DEC000D83123EC31206D0740612175D8A0A8B2D
:102DFC000BEA450B7003022F20EA2404F50EEB12AC
:102E0C002F651228728A828B83A3A3A3E0F9851005
:102E1C00828511831233FD1206BEE9F509600302A7
:102E2C002F20E4F514F51578141219CA7514E975E8
:102E3C00150278141219CA7514EA75150278141251
:102E4C0019CA74061217931219E17913AC0AAD0B57
:102E5C008510828511831233FD1207F07408121746
:102E6C005DE9F5096003022F209002E9E0F8E5081E
:102E7C007009E02402900301F08017900301E0FC3C
:102E8C00E82402FAE43400FBEA6C7001EB60030204
:102E9C002F24850882AA821230A4941412309C50DC
:102EAC0073850E82850F83E0C0E074022A122F5CBA
:102EBC00D0E0F00508850E82850F83A3E0C0E08585
:102ECC00080A7402250A122F5CD0E0F00508900263
:102EDC00E9122F6F1219CA7CEA7D0285080A740266
:102EEC00250AFA74033400FB120F76740212175D74
:102EFC009002E9E02508F50874FF6E700374FF6F0B
:102F0C006012EE24010EEF3400FFE508C394145058
:102F1C0003022DB7E50860131232E8851082851183
:102F2C00831233FD12044279008014E50970037595
:102F3C00090A851282851383EEF0A3EFF0A90974B8
:102F4C000212175D7F0E02188985080C7402250C7D
:102F5C00F58274033400F583223400F50F850E825C
:102F6C00F58322123BF22274EE1217B774FE12177D
:102F7C00478C0E8D0FEA2405F50CEB122B83750B89
:102F8C0000900300E4F0F50AEA2402F508EB3400A3
:102F9C00F5098049900300E0FA9002E9E0F812305C
:102FAC00A4941712309C400D900300E0F87416C3E3
:102FBC00989002E9F01230AD1219CA7CEA7D0274C5
:102FCC00012AFA74033400FB120F76740212175D97
:102FDC009002E9E0F8900300E028F0050AE50C24E3
:102FEC0016F582E50D122F60E0F8E50AC398400350
:102FFC00023085900300E0C39416507DE50AC3337C
:10300C00F8E433F9E50C28FEE50D39FF85188285C7
:10301C001983AC82AD838E828F831233FD1206D658
:10302C008A108B11AC10AD11EC4D7005750B018035
:10303C0043E4F510F51178101219CA7510E97511E1
:10304C000278101219CA7510EA751102781012194B
:10305C00CA74061217931219E1791685088285092C
:10306C00831233FD1207F0740812175DE9F50B702B
:10307C0003022FA012365E80107C007D038508822F
:10308C008509831233FD120454A90B7402023559BD
:10309C00E99400C365D03322EA28F8E43400F9E857
:1030AC0022E0F51075110078102274EA1217B7742B
:1030BC00FC1217478A0C8B0D8C128D13EA2405F524
:1030CC000AEB123652750800750900E50A2402F560
:1030DC0010E50B3400F511740212179385820E85DE
:1030EC00830F780E1219CA850A82850B83A3A3A3BA
:1030FC00A3123B9E1219CAE50A2405F50EE50B3402
:10310C0000F50F780E1219CA8510828511831236BC
:10311C00581233F71206D0740612175D8A0E8B0FF5
:10312C00AE0EAF0FE50C2402F50EE50D3400F50FD5
:10313C0080408882898374FFF00508122F5574FF34
:10314C00F005089002E9E0F50C750D00780C1219E9
:10315C00CA7CEA7D0285080C7402250CFA740334CF
:10316C0000FB120F76740212175D9002E9E025083D
:10317C00F508EE4F60718E828F83A3A3A3E0F985CF
:10318C000E82850F831233FD1206BEE9F509EE247B
:10319C0004122B80E97044E4F514F5157814121917
:1031AC00CA7514E975150278141219CA7514EA75E2
:1031BC00150278141219CA74081217931219E179AE
:1031CC0011EEFCEFFD850E82850F831233FD120785
:1031DC00F0740812175DE9F5096027850C82850DDE
:1031EC00831232DE12366BE50870030232C41232DF
:1031FC00E8850E82850F831233FD12045A79000282
:10320C0032D9850882AA82EA9002E97009E0240486
:10321C00900301F08022E0F8900301E0F514E8241B
:10322C0004FCE43400FDEC65147001ED70C0123048
:10323C00A4941212309C50B6850C82850D83E0C08C
:10324C00E074022A122F5CD0E0F00508850C828510
:10325C000D83A3E0C0E0122F55D0E01232FA858224
:10326C000C85830D780C1219CA7404121793121959
:10327C00E1851082851183123EC51206DC7404129E
:10328C00175D8A0C8B0DAE0CAF0D85080C740225E6
:10329C000CF874033400F9EE4F700302313E8518BC
:1032AC0082851983E0888289831232FAA3E0C0E018
:1032BC00122F55D0E002314CE509700375090A85CF
:1032CC000A82850B831232DE12366BA90974040252
:1032DC002F4D123EB485128285138322900301E098
:1032EC00F5F0E50884900300F07C007D0322F005E6
:1032FC00088518828519832274EC1217B774FE1294
:10330C0017478A088B098C0E8D0FEA2405FEEB34C7
:10331C0000FF851882851983AC82AD838E828F83E2
:10332C001233FD1206D68A0A8B0BEE2418122B8050
:10333C00EA450B70030233CE1235405032851882A9
:10334C008519831233FD1207E48A108B11EA45119B
:10335C00606B7912AC0AAD0B850882850983123338
:10336C00FD8510828511831217B5E9F50A7058E4B2
:10337C00F50AF50B780A1219CA8E828F83A3A3E083
:10338C00F50A780A1219CAEE240312364F780A127B
:10339C0019CA8E828F831234071207F6740612171D
:1033AC005DE9F50A7021850C82850D83E0701F851F
:1033BC0008828509831233FD1204608011750A0E90
:1033CC008009750A018004E50A600312365E850CDB
:1033DC0082850D83E0600479008002A90A740212D0
:1033EC00175D7F0C0218897C007D03850A82850B92
:1033FC008312340122E0FAA3E0FB22E0FCA3E0FDFF
:10340C008508828509831234012274EE1217B77471
:10341C00FE1217478A088B098C0C8D0DEA2405FEC9
:10342C00EB3400FF750E00851882851983AC82ADD4
:10343C00838E828F831233FD1206D68A0A8B0BEA97
:10344C00450B700302352C1235405035851882859A
:10345C0019831233FD1207E48A0E8B0FEA450F60B5
:10346C005E7912AC0AAD0B8508828509831233FD97
:10347C00850E82850F831217B5E9F50E60030235B0
:10348C002F850882850983123746AA0AFB1207D8B2
:10349C008A108B11A810A911E849701E7AFF7BFFC6
:1034AC001207D88A108B11A810A911E849606C88F2
:1034BC00828983E50AF0A3E50BF0750A0080077595
:1034CC000E0E805F050A9002E6E0FAE50AC39A50F8
:1034DC004AE50A75F017A4FAABF088828983A3A396
:1034EC00E02AFAA3E03BFB8A828B83123658EC4D20
:1034FC0070D2750A17750B00780A1219CAEEFCEF18
:10350C00FD120F76740212175DEEFCEFFD8508823A
:10351C008509831233FD1204668014750E0980032D
:10352C00750E01123EAC850C82850D8312366BA98B
:10353C000E023097E5082402F508E5093400F50978
:10354C008A828B83A3A3A3E0A2E522740412175DE5
:10355C007F0A02188974EC1217B78C108D11EA24AB
:10356C0005F50CEB122B83750F00EA2402F50AEB20
:10357C00123652850A82F5831233FD1207D88A0857
:10358C008B09EA45097003023644750E008071857B
:10359C000C82850D83E06401704F8E828F83A3A310
:1035AC001219E18E828F83A3A3A3A3E0F5127513E6
:1035BC000078121219CAEE2405F512EF3400F51337
:1035CC0078121219CA1233F71207F6740612175D25
:1035DC00E9F50F6014850C82850D83E4F0123EAC86
:1035EC0085108285118312366B7C177D007900EE75
:1035FC00FAEFFB120F8E8E828F83E4F0A3F0050E90
:10360C009002E6E0F8E50EC398501EE50E75F01733
:10361C00A4F8A9F0850882850983A3A3123ED912C8
:10362C003658EC4D600302359B85088285098374FE
:10363C00FFF0A3F0E50F70061233F712046CA90F1C
:10364C000233EEF50AEF3400F50B22A3E0FCA3E005
:10365C00FD228E828F83123EB4850E82850F83E805
:10366C00F0A3E9F022C082C0839002E2E06A70030A
:10367C00A3E06B70067AE27B0280047A007B000286
:10368C00295EC082C08378008C828D83E06A7003CF
:10369C00A3E06B7010E875F003A4F8A9F0EC28FA1D
:1036AC00ED39FB8015088C828D83A3A3A3E06A708F
:1036BC0003A3E06B60DF7A007B0002295E74F612D4
:1036CC0017B71207A28A828B83E582458370067A2C
:1036DC00007B008007A3A3A3A31233FD023D5D74FE
:1036EC00F21217B7E9FE740E1217931237467410C4
:1036FC00121793123BBE8C828D83E064027036A34A
:10370C00123EBAF50CA3E0F9A80C740268700374AD
:10371C0029697021750C02750D00780C1219CA7884
:10372C00081219CA780A1219CAEEF912081A740684
:10373C0012175D80027901023DE1E0F50AA3E0F584
:10374C000B2274E81217B774FB121747E98518821D
:10375C00851983F08A168B17ECFEEDFF751000743B
:10376C001D121793123EB0741D12179312366B8EE6
:10377C00828F83A3A3A3E0A2E4502D741D12179390
:10378C001233FD1207E48A828B83E5824583700332
:10379C00023B8F790AEEFCEFFDAA16AB171217B598
:1037AC00E9F5106003023B92741F121793123BBE93
:1037BC0074211217931237467423121793E0F50EE7
:1037CC00A3E0F50F8E828F83E064026003023B3D21
:1037DC00A3123EB0850882850983A3858212858356
:1037EC0013EE2406122B8088828983E0FAA3E0F979
:1037FC00EA2400F514E439F5157814121A54010072
:10380C0000280128323807000228F73803286438CA
:10381C0000292E3A0129593A0229FA3903292E3A5C
:10382C000429D83A3D3BE50E450F6003023B388531
:10383C000C82850D83123BB3FAE9FB8A828B83E001
:10384C00850A82850B83123BE91219CA8A828B8303
:10385C00A3E0FCA3E0023AC2E50E450F6003023B75
:10386C0038850A82850B837401F0123BC685088269
:10387C00850983F07C007D008E828F83A3A3A3A394
:10388C00E02401FAA3E03400FB1206D6EA4B6041B7
:10389C008A828B83E02402F8850A82850B83E028D8
:1038AC00F0EA2404F8EB3400F988828983E085126D
:1038BC0082851383123BFB123BE91219CA8A828B55
:1038CC0083123657E5082403FAE5093400FB023A63
:1038DC00C7850A82850B83E02404F07C047D007983
:1038EC0000AA12AB13120F8E023B92E50E450F602D
:1038FC0003023B38123BC6FEA3E0FF850A82850B10
:10390C00837404F0EE850882850983F0EF851282BA
:10391C00851383F07403121793AC82AD83EEFAEF28
:10392C00FB1206D68A0C8B0DEA450D70030239DBAF
:10393C008A828B83A3A312286E740112179385823B
:10394C000E85830F780E1219CA740512179312196B
:10395C00E17CFF7DFF1206DC740412175D8B0FEA0D
:10396C00450F7033850C82850D83123B9E1219CA4C
:10397C00850C82850D83A31219E17C027D007A9F50
:10398C007B86120508740412175DE9700A74011223
:10399C00179374FFF0A3F08E828F83E0640270396A
:1039AC00750C02750D00780C1219CA8E828F831259
:1039BC003657E5082404FAE5093400FB120F767437
:1039CC000212175D850A82850B83E024028009743C
:1039DC0001121793EEF0A3EFF07401121793123B40
:1039EC00AFF07401121793A3123BA7023B32E50E02
:1039FC00450F6003023B38850C82850D83123658C7
:103A0C00AA16AB1712080E850A82850B837402F076
:103A1C00EA850882850983F0851282851383EB027F
:103A2C003B35E50E450F6003023B38123BC6F8A34D
:103A3C00E0F9850A82850B837402F0E8850882859B
:103A4C000983F0E9851282851383023B35850C824C
:103A5C00850D831233FD120F70EAFC8C82A882C391
:103A6C00950EE4950F405FE8650E7002E50F70044B
:103A7C007C008022851882851983E0FAE50E2AFAEB
:103A8C00E50F3400FBC3EA98EB94005003E080058B
:103A9C00E50ECCC39CFCEC850A82850B83F08C0A6A
:103AAC00750B00780A1219CA850C82850D83E025E6
:103ABC000EFCA3E0350FFDAA08AB09120F767402B9
:103ACC0012175D023B92751007023B92E50E450FF3
:103ADC00705A850C82850D83123EB0850A82850B47
:103AEC0083740712287A123BA712287AA3E0851256
:103AFC0082851383F0E82402FAE93400FB8A828B76
:103B0C0083123BA7123BD6123BAFA3123BDF123BF7
:103B1C00B8F0E82405F8E93400F988828983123B6F
:103B2C00B8A3123BFBA3A3A3A3F0805A75100B8080
:103B3C0055741D1217931233FD1207A28A828B83C0
:103B4C00E5824583603D123EB0880C890DE8450D39
:103B5C006031780E1219CA780A1219CA780812192B
:103B6C00CA7406121793E0F9EEFCEFFDAA16AB1718
:103B7C00850C82850D831217B5740612175DE9F555
:103B8C0010800375100EA910740512175D7F1002BA
:103B9C001889E0F50E750F00780E22E085088285F5
:103BAC00098322123C0522123EB4E822123C05A3E2
:103BBC00A322E0F508A3E0F50922850C82850D838C
:103BCC00E0F8A3E0F5838882E022A3A3F08A828B3D
:103BDC0083A322F088828983A3A3A3A322F08A82E1
:103BEC008B83123BF222E0F50A750B00780A22F067
:103BFC0088828983A3123C0522E08508828509838B
:103C0C00A3A32274EE1217B774FE1217478A0A8BFD
:103C1C000BECFAEDFB7414121793E0F510A3E0F51E
:103C2C00117416121793E0FE7418121793E0F50E28
:103C3C00A3E0F50F851882851983AC82AD8312063B
:103C4C00D68A0C8B0DEA450D60498518828519833F
:103C5C001233FD1207A28A828B83E5824583602F83
:103C6C00A3A3123BBEE50845096024780E1219CABD
:103C7C0078101219CAEEF9AC0CAD0DAA0AAB0B8573
:103C8C0008828509831217B5740412175D800679B2
:103C9C000E8002790102309774F61217B774FE1277
:103CAC001747740C121793123BB38518828519832E
:103CBC00F07401121793E9F0E4F508F5097808128D
:103CCC0019CA75080278081219CA74041217938558
:103CDC00820885830978081219CA1207F67406122D
:103CEC00175D740212175D806874F71217B7EAFE3D
:103CFC00EBFF89087C197D0312080EEA5402600B55
:103D0C00A908EEFAEFFB1206CA80027901022776A7
:103D1C0074F61217B774FF6A700374FF6B70168C0D
:103D2C00828D83123D62E4F08C828D83A3A3A31257
:103D3C003D62A380181207DE8A088B09A808A9091E
:103D4C00E849600D8882898374FF122878A3A3E464
:103D5C00F07F0202188974FFF0A3F08C828D83A38C
:103D6C00A32274F61217B71207DE8A828B83E582C0
:103D7C0045836006A3A3E0FA80027A007B0080D121
:103D8C0074F21217B78A088B09ECFEEDFF740E1251
:103D9C001793E0F50A1207DE8A0C8B0DA80CA90DFF
:103DAC00E8497026EEFCEFFD7AFF7BFF1207DE8AF6
:103DBC000C8B0DA80CA90DE849700479118016889C
:103DCC00828983E508F0A3E509F088828983A3A39F
:103DDC00E50AF079007F0602188974EE1217B7EA2B
:103DEC00FEEBFF8C088D09890C7414121793123E8C
:103DFC00B074161217931233FD750D00E849600369
:103E0C00023EA47402650C6003023E9F74121217EA
:103E1C0093123EBAFCA3E0F9EC2400F50EE439F55C
:103E2C000FEAF4F8EBF4F9EC58F8E50F59F9E84916
:103E3C00705CE5082406F8ED3400F9880A890B88D3
:103E4C0082F583123EC512080E8A108B11E50E65A1
:103E5C00107004E50F65116042780E1219CA850ABC
:103E6C0082850B83123EC5120814740212175DE989
:103E7C00F50D7027780E1219CA850882850983A35F
:103E8C00A3123EC3120826740212175D800D750D25
:103E9C00808008750D0D8003750D0BA90D02355C26
:103EAC008E828F83123EB422E0F8A3E0F922123EF8
:103EBC00B488828983E022A3A3E0FCA3E0FDEEFAA0
:103ECC00EFFB223400F50D850C82F58322E028FEF1
:103EDC00A3E039FF8E828F832274F21217B7EAFEA9
:103EEC00EBFF890B7401650B600E7402650B706A35
:103EFC0079011209F4E97062EEFAEFFB1207D88A25
:103F0C00088B09EA45096047750A00800B7C177D10
:103F1C00007900120F8E050A9002E6E0F8E50AC35C
:103F2C00985021E50A75F017A4F8A9F08508828548
:103F3C000983A3A3E028FAA3E039FB8A828B8312BE
:103F4C00296570C985088285098374FFF0A3F07C0C
:103F5C00197D03EEFAEFFB120808023DE174F21230
:103F6C0017B78A088B09ECFEEDFF740E121793122B
:103F7C003746900E8DE0F4603D7A097B00120F9A63
:103F8C00EA4B60328A828B8374B1F0A3E4123BD883
:103F9C00A3123BD6A3E508F0A3E509123FC5EEF04A
:103FAC00A3EF123FC5A3A3E50AF0A3E50BF0900E17
:103FBC008DE0F9120FA6023DE1F08A828B83A3A358
:103FCC00A3A3A322C082C0839061907404F0A37455
:103FDC0048F0A37402F09061807440F09061BC745E
:103FEC0003F09061877419F0906265741BF0906215
:103FFC0049E0C3941390619C400A7409F090606688
:10400C0074018007740DF0906066E4F090619A740E
:10401C0033F0A37455F09061A0743AF090053FE032
:10402C0064017009C2919003A6746780059003A681
:10403C007461F0902732E493906186F090272CE421
:10404C0093F46027E493540FF8906185E068601254
:10405C00E5C654804449F5C6E59E547F644970F822
:10406C00E8F053C680E59E547F70FA7905120D5A1C
:10407C00024222C082C083E5A8F853A87E906181D9
:10408C00E4F0A3F0A3F0C2BA539AFEC289759B0068
:10409C00C2C275E90075910075BF0075A91175B99B
:1040AC0005906181F0A374C0F0A3E4F0D2BA439AF6
:1040BC000174805842A8024222C082C08374F81254
:1040CC0017479003A4E0F8A3E0F9E8497003024114
:1040DC00F39003A4E0544060237908851882851975
:1040EC0083AA82AB83120BC8851882851983AA8296
:1040FC00AB831208A49003A4E054BFF0E05480609A
:10410C0010790C7A657B05120BC89003A4E0547FE0
:10411C00F0E0A2E0503190619A7433F0A37455F042
:10412C009061A0743AF090053FE064017009C2916F
:10413C009003A6746780059003A67461F01208AA18
:10414C009003A4E054FEF0E05402603190619A7444
:10415C003FF0A3745AF09061A0747FF090053FE09B
:10416C0064017009D2919003A6747180059003A626
:10417C00746AF01208AA9003A4E054FDF0E0540411
:10418C006013902730E493906186F01208B090038E
:10419C00A4E054FBF0E054086013902731E49390B2
:1041AC006186F01208B09003A4E054F7F0E05410CC
:1041BC006013902732E493906186F01208B090035C
:1041CC00A4E054EFF0E05420600A1208B09003A46D
:1041DC00E054DFF0A3E05401600D120AF01208B6AF
:1041EC009003A5E054FEF0740812175D024222C041
:1041FC0082C083E9600814600A14600C8013902755
:10420C003080089027318003902732E493906186A8
:10421C00F08003F0A3F0D083D08202011F74EC1263
:10422C0017B774F4121747851882851983AC82ADC1
:10423C0083758386758265740412165A90273093A1
:10424C00F460030243B5907808E0C3940250030273
:10425C0043957404121793AC82AD83758386758273
:10426C0016740812165A8518828519838582128550
:10427C0083137404121793AC82AD83750EFF750F04
:10428C00FF7FFF7E00750C48750D78801574086EE5
:10429C00700302432974096E7003024329740A6E79
:1042AC00607B850C82850D8378081215FF8C828DBE
:1042BC0083A909E50AC9F888107418780812152D15
:1042CC00E5104508F8C3E098A3E099850C82850DAC
:1042DC008378081215FF40188C828D837418780827
:1042EC0012152DE5104508F8E0C398F8A3E0801CE2
:1042FC007418780812152DE5104508FAE9FB8C8224
:10430C008D83E0F8A3E0F9EAC398F8EB99F9C3E8D8
:10431C00950EE9950F5006880E890FEEFF0EE50CF1
:10432C002404F50CE50D3400F50DEEC39413500385
:10433C0002429974FF650E700474FF650F60238F41
:10434C00087402780812173474482508F5827478BA
:10435C003509F58378081215FF851282851383E5DC
:10436C0008F0EC2402FCED3400FD851282851383E9
:10437C00A3858212858313740C121793E5826C70DB
:10438C0003E5836D600302428775080175090078A7
:10439C00081219CA7402121793AC82AD837ACC7BC3
:1043AC0009121180740212175D740C12175D7F0CC8
:1043BC00021889C082C0839061AE7468F0A3746ADD
:1043CC00F090624574FBF0A304F053F4FD43FE023D
:1043DC0090053F7401F09061A0E0643A90619A708E
:1043EC00237433F0A37455F09061A0743AF0740107
:1043FC0064017009C2919003A6746780289003A68B
:10440C0074618021743FF0A3745AF09061A0747FA2
:10441C00F0740164017009D2919003A67471800547
:10442C009003A6746A0242217F08021889C082C0D8
:10443C00839004F1E06401700A9004F6E060047962
:10444C000C80027900024222C082C08375E1F19097
:10445C0004F4E0605B14600914605F14605714701E
:10446C005E120B029004EAE0F97AEB7B04120CDC8E
:10447C007AD67BBE7C897D8E120D127A557B557C4B
:10448C00557D00120CE89004F5E0F9120CF479015A
:10449C00120D4E9004E8E0F8A3E0C82416F582E86B
:1044AC003400F583741AF0A3740BF07900024222E5
:1044BC00120B0880AF120B0E80AA120B1480A57978
:1044CC001280EA74F01217B775D90D9004D5E0A2DA
:1044DC00E0E4331313F89004EAE0C4333354C048D7
:1044EC004401F5D978E8790488828983A3A3A3E0F1
:1044FC00F5D988828983A3A882A983E864EE700326
:10450C00E9640470E378D5790488828983A3E0F5A3
:10451C00D988828983A3A882A983E864DB7003E924
:10452C00640470E575E1959004D5E0F97AD67B04C6
:10453C00120CE2900EAF74AEF0A3740AF0A37416D2
:10454C00F0A3740CF0A37416F0A3740CF0A37416FF
:10455C00F0A3740CF0A374B4F0A3740AF0A3741653
:10456C00F0A3740CF0A374CCF0A3740AF0900EBDFD
:10457C007416F0A3740CF0A37416F0A3740CF0A3CF
:10458C007416F0A3740CF0A37416F0A3740CF0A3BF
:10459C007416F0A3740CF0A37416F0A3740CF090C2
:1045AC0004F4E064019004E87012E0F8A3E0F583F1
:1045BC008882A3A37508007509088010E0F8A3E0B1
:1045CC00F5838882A3A3750804750900750A007524
:1045DC000B007808121578750CFF750DFF750EFF22
:1045EC00750F007808790C1215C69004E8E0F8A352
:1045FC00E0C8240EF582E83400F583780812160E14
:10460C009004E8E0F8A3E0C82414F582E83400F53F
:10461C00837413F09003A27402F002443474F71202
:10462C0017B79004FAE02407F5D99004EAE0C433F4
:10463C003354C0F5D978E8790488828983A3A3A37D
:10464C00E0F5D988828983A3A882A983E864EE70F7
:10465C0003E9640470E39004FAE0601F78E87904DD
:10466C00FAE82413F582E93400F583E0F5D9888261
:10467C008983A3A882A9831AEA70E690051AE0241C
:10468C0007F5D99004EAE0C4333354C04404F5D997
:10469C0078E8790488828983A3A3A3E0F5D988827A
:1046AC008983A3A882A983E864EE7003E96404708B
:1046BC00E390051AE0601F78E87904FAE82433F5F2
:1046CC0082E93400F583E0F5D988828983A3A88236
:1046DC00A9831AEA70E675E195900EAF74BAF0A34F
:1046EC00740AF0A37416F0A3740CF0A37416F0A360
:1046FC00740CF0A37416F0A3740CF0A374B4F0A3B0
:10470C00740AF0A37416F0A3740CF0A374CCF0A389
:10471C00740AF0900EBD7416F0A3740CF0A374160A
:10472C00F0A3740CF0A37416F0A3740CF0A374161D
:10473C00F0A3740CF0A37416F0A3740CF0A374160D
:10474C00F0A3740CF09004E8E0F8A3E0C8240EF594
:10475C0082E83400F58374FFF0A3F0A3F0A3F0908B
:10476C0004E8E0F8A3E0C82414F582E83400F583EB
:10477C007412F09003A27401F0FF02188974F712FE
:10478C0017B79004FAE02407F5D99004EAE0C43393
:10479C003354C04402F5D978E8790488828983A31C
:1047AC00A3A3E0F5D988828983A3A882A983E864AE
:1047BC00EE7003E9640470E39004FAE0601F78E89B
:1047CC007904FAE82413F582E93400F583E0F5D98D
:1047DC0088828983A3A882A9831AEA70E675E19579
:1047EC00900EAF74C6F0A3740AF0A374C6F0A37451
:1047FC000AF0A374C6F0A3740AF0A374C6F0A374F1
:10480C000AF0A374C6F0A3740AF0A374C6F0A374E0
:10481C000AF0A374CCF0A3740AF0900EBD7416F0D9
:10482C00A3740CF0A37416F0A3740CF0A37416F01C
:10483C00A3740CF0A37416F0A3740CF0A37416F00C
:10484C00A3740CF0A37416F0A3740CF09004E8E0BD
:10485C00F8A3E0C8240EF582E83400F58374FFF069
:10486C00A3F0A3F0A3F09004E8E0F8A3E0C82414AC
:10487C00F582E83400F5837414F09003A27404F00C
:10488C00024B5074F71217B79004FAE02407F5D9CD
:10489C009004EAE0C4333354C04406F5D978E8797F
:1048AC000488828983A3A3A3E0F5D988828983A392
:1048BC00A882A983E864EE7003E9640470E39004B1
:1048CC00FAE0601F78E87904FAE82413F582E934F9
:1048DC0000F583E0F5D988828983A3A882A9831A7D
:1048EC00EA70E690051AE02407F5D99004EAE0C4D2
:1048FC00333354C04404F5D978E879048882898329
:10490C00A3A3A3E0F5D988828983A3A882A983E80D
:10491C0064EE7003E9640470E390051AE0601F789C
:10492C00E87904FAE82433F582E93400F583E0F5FC
:10493C00D988828983A3A882A9831AEA70E675E1D3
:10494C0095900EAF74C0F0A3740AF0A37416F0A384
:10495C00740CF0A37416F0A3740CF0A37416F0A3EB
:10496C00740CF0A37416F0A3740CF0A37416F0A3DB
:10497C00740CF0A374CCF0A3740AF0900EBD7416F2
:10498C00F0A3740CF0A37416F0A3740CF0A37416BB
:10499C00F0A3740CF0A37416F0A3740CF0A37416AB
:1049AC00F0A3740CF0A37416F0A3740CF09004E84C
:1049BC00E0F8A3E0C8240EF582E83400F58374FF18
:1049CC00F0A3F0A3F0A3F09004E8E0F8A3E0C8246F
:1049DC0014F582E83400F5837415F09003A2740387
:1049EC00F0024B50C082C0839004E8E0F8A3E0C80A
:1049FC002406F582E83400F583E402421F74F712B2
:104A0C0017B79003D0E0F875F003A4C8AAF02AF900
:104A1C0074D228F8740339F9E82405FAE93400FB58
:104A2C008A828B83E0FCA3E0FD88828983A3A3A305
:104A3C00A3A3A3A3A3A3ECF0A3EDF088828983A383
:104A4C00A3A3A3A3A3A3E024FFF8A3E034FFF98A54
:104A5C00828B83E8F0A3E9F0024B5074F71217B77E
:104A6C00EAFEEBFF9061D0E06003024B4475D90E77
:104A7C0075D90375D904EE248BF582EF3400F583D8
:104A8C00E5822408F8E5833400F9E0F5D9A3E8655C
:104A9C00827003E9658370F2EE2483F582EF3400B3
:104AAC00F583E5822404F8E5833400F9E0F5D9A315
:104ABC00E865827003E9658370F275E1957908EE1B
:104ACC00248BFAEF3400FB120BBC7904EE2483FA2E
:104ADC00EF3400FB120BBC7C00EEF8EFF9ECFAC3E0
:104AEC00E49AFA95E0FBEE2AFAEF3BFBEA248AF50E
:104AFC0082EB3400F583E0C0E0E824AAF582E934C7
:104B0C0000F583D0E0F00C88828983A3A882A98366
:104B1C00ECC3940840C7EE246FF582EF3400F583A4
:104B2C00E0F8A3E0F9EE2471F582EF3400F583E8A8
:104B3C00F0A3E9F07901800279008008F0EEA2E0A0
:104B4C0092AF79007F01021889C082C08375D902A7
:104B5C0075D90375D90575E195EA246FF582EB34A7
:104B6C0000F583E0F8A3E0F9EA2471F582EB340058
:104B7C00F583E8F0A3E9F0790102422274F61217EA
:104B8C00B7EAFEEBFF9005457406F075084575090C
:104B9C000578081219CA7C017903120C0A740212E6
:104BAC00175D75D90675D903758245758305E0F5D2
:104BBC00D9A3E582644A7004E583640570F075E15D
:104BCC00959003A2E06408701EEE246FF582EF341A
:104BDC0000F583E0F8A3E0F9EE2471F582EF3400E0
:104BEC00F583E8F0A3E9F07901024E5674F612173A
:104BFC00B7EAFEEBFF9061D0E07066780190054556
:104C0C00740BF09003A2E0640770197508457509E0
:104C1C000578081219CA7C017903120C0A74021265
:104C2C00175D7805740128F5D975D903758245751A
:104C3C008305E8FAE0F5D9A31AEA70F875E195EE68
:104C4C00246FF582EF3400F583E0F8A3E0F9EE244D
:104C5C0071F582EF3400F583E8F0A3E9F079018077
:104C6C00027900024E5674F71217B7EAFEEBFF7585
:104C7C00D90375D90375D90DEE24DDF582EF340017
:104C8C00F583E0F5D975E1957904120D18EE246FD2
:104C9C00F582EF3400F583E0F8A3E0F9EE2471F52A
:104CAC0082EF3400F583E8F0A3E9F07901024B5070
:104CBC0074F61217B7EAFEEBFF9061D0E0F874803F
:104CCC00C398FAEE2482F582EF3400F583E0600499
:104CDC00780480027800E8240BF8EAC398500302A9
:104CEC004D817D09900545EDF0EE24E2F8EF34009E
:104CFC00F97A467B057C0888828983E08A828B83DB
:104D0C00F088828983A3A882A9838A828B83A3AA31
:104D1C0082AB831CEC70E0EE2482F582EF3400F55C
:104D2C0083E0601D75084575090578081219CA7C61
:104D3C00097903EEFAEFFB120C0A740212175D7D6F
:104D4C000D74012DF5D975D9037582457583058DC3
:104D5C0008E0F5D9A31508E50870F675E195790416
:104D6C00120D18EE241DF582EF3400F583E4F0A348
:104D7C00F0790180027900024E5674F61217B7EAE8
:104D8C00FEEBFF9061D0E0F87480C398FAEE2482B9
:104D9C00F582EF3400F583E060047804800278003B
:104DAC00E82408F8EAC3985003024E54780690059C
:104DBC0045740CF09003BFE0900546F09003C0E002
:104DCC00900547F09003C1E0900548F09003C2E0D5
:104DDC00900549F09003C3E090054AF0EE2482F56B
:104DEC0082EF3400F583E0601B7508457509057882
:104DFC00081219CA7C067903EEFA120C0A74021214
:104E0C00175D780A740128F5D975D9037582457533
:104E1C0083058808E0F5D9A31508E50870F675E157
:104E2C00957904120D18EE246FF582EF3400F5839A
:104E3C00E0F8A3E0F9EE2471F582EF3400F583E895
:104E4C00F0A3E9F07901800279007F0202188974DD
:104E5C00F61217B7EAFEEBFF9061D0E0F87480C34E
:104E6C0098FAEE2482F582EF3400F583E060047842
:104E7C000480027800E82404F8EAC3985003024F37
:104E8C00357802900545E8F0EE24F4F582EF340015
:104E9C00F583E0900546F0EE2482F582EF3400F5C0
:104EAC0083E0601B75084575090578081219CA7CE2
:104EBC00027903EEFA120C0A740212175D7806746A
:104ECC000128F5D975D9037582457583058808E0E5
:104EDC00F5D9A31508E50870F675E195EE2473F580
:104EEC0082EF3400F583E4F0EE247FF582EF34009A
:104EFC00F583E4F0EE241DF582EF3400F583E4F045
:104F0C00A3F07904120D18EE240DF582EF3400F5A0
:104F1C0083E0F8A3E0F9EE2471F582EF3400F58319
:104F2C00E8F0A3E9F0790180027900024E5674F69C
:104F3C001217B79061D0E0F87480C398FCEA248211
:104F4C00F582EB3400F583E060047804800278008D
:104F5C00E82404F8ECC398405B790290054574078B
:104F6C00F0EA24F5F582EB3400F583E0900546F089
:104F7C00EA2482F582EB3400F583E060187508456D
:104F8C0075090578081219CA7C0209120C0A7402F8
:104F9C0012175D7906740129F5D975D90375824507
:104FAC00758305E9F8E0F5D9A318E870F875E19573
:104FBC00790180027900024E5674F51217B7E9FC9C
:104FCC00A2AFE433F50AC2AF7D0080010DEA246E76
:104FDC00F582EB3400F583E0F8EDC398501A8D0898
:104FEC00EA2508F8EB3400F9E8246AF582E9340084
:104FFC00F583E06C70D68024EA246EF8EB3400F96B
:10500C00E0FEEA2EFAEB3400FBEA246AF582EB347C
:10501C0000F583ECF088828983E004F0E50AA2E0D5
:10502C0092AF7F0302188974F61217B7A2AFE4335C
:10503C00FDC2AFEA246EF582EB3400F583E014F088
:10504C007C0060368C08EA2508F8EB3400F9E8247B
:10505C006BF582E93400F583E0C0E0E8246AF58260
:10506C00E93400F583D0E0F00CEA246EF582EB34E1
:10507C0000F583E0F8ECC39840CAEA246DF582EBA6
:10508C003400F58374FFF0EA2469F582EB3400F503
:10509C0083E4F0EDA2E092AF024E56C082C083E5ED
:1050AC00A8F8C2AFEA246AF582EB3400F583E9F084
:1050BC00EA2469F582EB3400F583E4F0E8A2E7A278
:1050CC00E792AF02422274F31217B7EAFEEBFFEC41
:1050DC00FAEDFB8A828B83A3A3A3A3E0541FF0EE0B
:1050EC002436F582EF3400F583E4F0F50AEEFCEF9C
:1050FC00FD8A828B83E0C0E0EC245DF582ED340008
:10510C00F583D0E0F0750B00E50A33333354F8F532
:10511C000C8A828B83E0F508750900E50B78081280
:10512C001715E508A2E0502FEE2436F8EF3400F9FD
:10513C0088828983E0F508EE2508F508EF3400F540
:10514C0009E5082438F582E5093400F583E50CF00F
:10515C0088828983E004F0050B050CE50BC39408E9
:10516C0040AF050A8A828B83A3AA82AB838C828D83
:10517C0083A3AC82AD83E50AC3940550030250FDB2
:10518C007F0502188974F71217B79003CEE06401FB
:10519C0070030252EF7A009003D4E060030252EFE6
:1051AC007401F0A3E4F0A3F090043404F0900439FB
:1051BC00F09003D7E4F0A3F0A3F0A3F09003E10484
:1051CC00F0900407E4F09003EAF0A3F0A3F0A3F04E
:1051DC00A3F0A3F0A3F0900451F0900445F09004D8
:1051EC003A7480F0A3E4F0900440F09004BCF0A377
:1051FC00F0A3F0A3F0A3F0A3F0A3F0A3F09004C5E8
:10520C00F0900454F09004A4F0A3F0A3F0A3F0A346
:10521C00F0A3F0A3F0A3F0A3F0A3F09004B0F090EF
:10522C0004B2F09004AEF09004C8F0A3F0A3F0A385
:10523C00F0A3F0A3F0A3F0A3F078CE7903E8246EEA
:10524C00F582E93400F58374FFF00A88828983A320
:10525C00A882A983EAC3940440E37ACE7B0378DC6A
:10526C00790488828983E0C0E0EA2461F582EB341A
:10527C0000F583D0E0F088828983A3A882A9838A71
:10528C00828B83A3AA82AB83E864E17003E9640494
:10529C0070D07ACE7B0378B5790388828983A3E0BA
:1052AC00C0E0EA24E6F582EB3400F583D0E0F08828
:1052BC00828983A3A882A9838A828B83A3AA82ABC7
:1052CC0083E864BD7003E9640370CF9003CEE004FF
:1052DC00F0640170089003D6E09003D0F07AD27B92
:1052EC000380047A007B00024B50C082C083900381
:1052FC00D5E4F09003D4F09003CEF0A3F0A374FFA8
:10530C00F075E1F1024222C082C0837800790090EE
:10531C0003D5E0600478D2790388828983A3A3A3A0
:10532C00A3E0F902422274F61217B7EAFEEBFFEE85
:10533C002463F582EF3400F583E0F8A3E0F9E84943
:10534C0070030253D7EE2463F8EF3400F97A007B34
:10535C0000A2AFE433F508C2AF88828983E0FCA3D6
:10536C00E0FDEC4D603A88828983E0FAA3E0FB8A89
:10537C00828B83E0FCA3E0FD88828983ECF0A3EDB3
:10538C00F08A828B83E4F0A3F088828983E0FCA30B
:10539C00E0FDEC4D700A88828983A3A3E4F0A3F0AE
:1053AC00E508A2E092AF1212529004E2E004F090F1
:1053BC0004E3E004F0EE2463F582EF3400F583E0BF
:1053CC00F8A3E0F9E84960030253518E828F83A35E
:1053DC00A3A3E0600F8E828F83A3A3A3E4F09003BA
:1053EC00CFE014F09003CEE014F070069003D0746C
:1053FC00FFF08E828F83A3A3E4F09004E1E0700DA4
:10540C009003CFE0640170057900120CFAEEFAEF0C
:10541C00FB120C3A024E5674F71217B7EAFEEBFF6A
:10542C008E828F83A3A3A3A3E0FA7B001208F8EE6D
:10543C00FAEFFB120B86120C22024B50C082C08377
:10544C0078B5790388828983A3E4F088828983A361
:10545C00A882A983E864BD7003E9640370E6900335
:10546C00B6740102422174F61217B7EAFEEBFFEC98
:10547C002403F8ED3400F988088909EC2407F8EDC9
:10548C003400F9E8FCE9FD8C828D83E0F8A3E0F9A7
:10549C00850882850983E0FAA3E0FB1216BCEE2492
:1054AC000DF582EF3400F583E8F0A3E9F08C828DE2
:1054BC0083E0F8A3E0F9850882850983E0FAA3E08C
:1054CC00FB1216BC8B09EA45096013EE240DF5821C
:1054DC00EF3400F583E02401F0A3E03400F0024E39
:1054EC005674F61217B7EAFEEBFFEE242EF582EF98
:1054FC003400F583E0FCA3E0FD780079FAECFAEDDA
:10550C00FB1216BCEE246FF582EF3400F583E8F045
:10551C00A3E9F0780079FAECFAEDFB1216BC8B09D2
:10552C00EA45096013EE246FF582EF3400F583E051
:10553C002401F0A3E03400F0024E5674EC1217B7BD
:10554C00EAFEEBFF741412179378081215FF120C75
:10555C00BE8A0C8B0D8C0E8D0F751002751100759B
:10556C001200751300780C79101215657510FF7503
:10557C0011FF7512FF780C79101215C6780C1219E0
:10558C00C68E828F83E0F8A3E0F5838882A3A312F2
:10559C00161D1223D5740412175DE960030256AB75
:1055AC008E828F83E02402F8A3E03400F9E8FAE954
:1055BC00FB8A828B83780812158B8A828B83750801
:1055CC00FF7509FF750AFF750B0078081215ECEED4
:1055DC00240BF582EF3400F583C082C0838E828F5A
:1055EC0083A3A3A3A3A3E02401F8A3E03400F9D080
:1055FC0083D082E0687003A3E069700579010256DC
:10560C00AD8E828F83A3A3A3A3A3A3A3E02401F055
:10561C00A3E03400F0EE2473F582EF3400F583E060
:10562C0064017036EE2474F582EF3400F583E0F8F3
:10563C00A3E0F98E828F83A3A3A3A3A3A3A3E06803
:10564C007003A3E0697013EE2474F582EF3400F557
:10565C0083E02401F0A3E03400F0EE247FF582EF28
:10566C003400F583E064017036EE2480F582EF346B
:10567C0000F583E0F8A3E0F98E828F83A3A3A3A3A4
:10568C00A3A3A3E0687003A3E0697013EE2480F574
:10569C0082EF3400F583E02401F0A3E03400F079CC
:1056AC00000243BA74F61217B7E9FEECFFEA246263
:1056BC00F582EB3400F583E06401600302575990E6
:1056CC0061D0E0F508EA2482F582EB3400F583E042
:1056DC0060047804800278007480C39508FC95E01F
:1056EC00FDEF28F8E43400F9E82402F8E93400F975
:1056FC00EC98ED99A2D265D033404E740A121793F0
:10570C00E0F508A3E0F509EA2482F582EB3400F514
:10571C0083E0601578081219CAEFFCEEF9120C0A36
:10572C00740212175D74042FFF74012FF5D98ED9F2
:10573C00EF600F850882850983F8E0F5D9A318E896
:10574C0070F875E195790080067907800279FF027F
:10575C004E5674F71217B7A2AFE433FEC2AF8A826B
:10576C008B83E0F8A3E0F9E8498A828B83600AA373
:10577C00A3E0F8A3E0F5838882ECF0A3EDF08A8235
:10578C008B83A3A3ECF0A3EDF08C828D83E4F0A3C8
:10579C00024B4874F71217B7E96021F88C828D839D
:1057AC00E08A828B83F08C828D83A3AC82AD838A5A
:1057BC00828B83A3AA82AB8318E870E0ECFAEDFB32
:1057CC00024B5074F41217B7907803E06442705592
:1057DC00900544E014F0704DC2AF1257E900782ADE
:1057EC00D0E0F618D0E0F6E59F540770057509FF78
:1057FC00800375097FC4C0E07829E6F50808E655F2
:10580C0009F509740B7808121725D0E02508F890D3
:10581C006270E0A2E740F8E8C333906272F09062E5
:10582C0070E0D2E0F09003D0E0F47003025BC9E0CA
:10583C00F875F003A4C8AAF02AF974D228FE7403F0
:10584C0039FFEE2401F582EF3401F583E0F8A3E093
:10585C00F9E849601EEE2401F582EF3401F583E08E
:10586C00FAA3E0FBEE2400F582EF3401F583E0F9B6
:10587C00120FCA8E828F83A3A3A3A3A3A3A3E0F8C2
:10588C00A3E0F98E828F83A3A3A3A3A3E8F0A3E9DB
:10589C00F0906054E09003A9F0906055E09003AA5A
:1058AC00F0906056E09003ABF0906057E09003AC42
:1058BC00F0906058E09003ADF0906059E09003AE2A
:1058CC00F090605AE09003AFF090605BE09003B012
:1058DC00F090605CE0FC9003B1F090605DE0FB90B8
:1058EC0003B2F090605EE0FD9003B3F090605FE077
:1058FC00FA9003B4F09003AFE08C082508F8E43478
:10590C0000F98D08E82508F8E93400F98B08E8253A
:10591C0008F8E93400F98A08E82508FAE93400FBAC
:10592C00EE24F6F582EF3400F583E02AF0A3E03B99
:10593C00F08C08EE24F8F582EF3400F583E02508AE
:10594C00F0A3E03400F0EE24FAF582EF3400F58396
:10595C00E02401F0A3E03400F0EE24FEF582EF34F5
:10596C0000F583E0F8A3E0F9E8496042906000E0BC
:10597C00C333FCE433FDE82CF582E93DF583E02AE2
:10598C00F0A3E03BF0906000E0FA9003B1E0FCEA99
:10599C00C333FAE433FBE82AF8E93BF9E8244AF587
:1059AC0082E93400F583E02CF0A3E03400F090039E
:1059BC00AFE070119003B2E0700BA3E07007A3E0AE
:1059CC007003025AC68E828F83A3A3A3A3A3E0F80D
:1059DC00A3E0F9EE240DF582EF3400F583E028F80E
:1059EC00A3E039F9EE240BF582EF3400F583E8F0EF
:1059FC00A3E9F0EE240FF582EF3400F583E4F0EE2A
:105A0C00241CF582EF3400F583E06401701EEE2453
:105A1C0020F582EF3400F583E0F8A3E0F9EE241DC5
:105A2C00F582EF3400F583E8F0A3E9F09003AAE0E7
:105A3C006052EE241CF582EF3400F5837401F0EE15
:105A4C002469F582EF3400F583E07038EE2473F5A9
:105A5C0082EF3400F583E0702BEE247FF582EF3477
:105A6C0000F583E0701EEE2420F582EF3400F58300
:105A7C00E0F8A3E0F9EE241DF582EF3400F583E89D
:105A8C00F0A3E9F0906062E07003025B798E828F84
:105A9C0083E0F8A3E0F9E82406FCE93400FDE824EF
:105AAC0002FAE93400FB120CB88E828F83E0F8A363
:105ABC00E0C82412F582E8025B7F9003B1E0603A03
:105ACC00EE240FF582EF3400F583E4F0EE241CF5A0
:105ADC0082EF3400F583E064017040EE2420F582FF
:105AEC00EF3400F583E0F8A3E0F9EE241DF582EF26
:105AFC003400F583E8F0A3E98020EE24FCF582EF76
:105B0C003400F583E02401F0A3E03400F0EE241D12
:105B1C00F582EF3400F583E4F0A3F0EE240BF5826C
