:020000040000FA
:060000000201070221C30A
:03002B0002263B6F
:0300330002261D85
:03003B0002265C3E
:030043000225D1C2
:0300530002223650
:03006B000225F774
:1000830002202FE5C754F84401F5C7790122000087
:100093000080FB120086B900030200F1E4792178A5
:1000A30008B800028004F709D8FCE479297802B87B
:1000B30000028004F709D8FCE490028178B2790A3F
:1000C3008002F0A3D8FCD9FA7A327B0C90013778FE
:1000D3000279048015E493A3AD82AE838A828B8375
:1000E300F0A3AA82AB838D828E83D8E9D9E7758288
:1000F300E77583A8740312011975829175830074DF
:100103000012011975D00075813F751881751902A8
:10011300759F00020096C09FF59FE473D09F22D085
:1001230083D082C09FE493C0E0740193C0E0740263
:1001330093F59F22FF0000B4000028002800283018
:1001430075A000A000A000A00000080008E001F0D6
:10015300001000100010001000100010005000509C
:1001630000500010001000D0070000000000000F36
:100173000001000500307507001000010081FF0039
:10018300000000FF360654063C06FF020202080286
:100193005000A0000000E8030259820100004A82D7
:1001A300026D82010000890C024D82010000B3023E
:1001B300026D820100008A0C024F82010000C90215
:1001C300026D820100008B0C025182010000CB0200
:1001D300026D820100008C0C025382080000CC02E5
:1001E300026D820100008D0C0255820100008E0C0D
:1001F300FF0100FF200259820100004482026D8248
:10020300010000F20C0257820000000000025B8232
:100213000300001903120C120C120C120C120C1214
:100223000C120C120C120C120C120C120C120C9459
:100233000EAC0E8E0EFFFF02020202020202020247
:10024300010D0000001001025982010000418202E9
:100253006D82010000350D0263820100005D07021B
:100263006D82010000360D026182010000DB810214
:100273006D82010000370D025F82010000BF810221
:100283006D82010000380D026582010000F58002D5
:100293006D82010000390D026B82010000E38002D0
:1002A3006D820100003A0D02718201000007810294
:1002B3006D820100003B0D0273820100003D81024B
:1002C3006D820100003C0D027582010000CD8102A8
:1002D3006D820100003D0D0277820100003E0D0199
:1002E300E803053F100AFF00013075030201060011
:1002F30000000000000000000000000000000000FB
:100303000000000000000000000000FFFF06008066
:100313000CE803140953696D706C65424C455065D4
:10032300726970686572616C051250002003020ADD
:10033300000201060302F0FF53696D706C652042F1
:100343004C45205065726970686572616C381300A2
:10035300003E130A43686172616374657269737462
:100363006963203100024368617261637465726975
:100373007374696320320008436861726163746552
:100383007269737469632033001043686172616337
:10039300746572697374696320340002436861721F
:1003A30061637465726973746963203500025982ED
:1003B3000100004782026D82010000510E027B8220
:1003C300030000230C026982010000520E026D82B9
:1003D300010000630E027D82010000240C02698289
:1003E300010000640E026D82010000750E027F821F
:1003F300020000250C026982010000760E026D8264
:10040300010000870E028182000000260C025B823D
:10041300030000270C026982010000880E026D822E
:10042300010000990E0283820400002D0C026982F0
:100433000100009A0E1201228D9A03120122A49A3E
:1004430003120122D59A03120122109B03120122E7
:100453003A9B03120122649B031201227B9B03122A
:100463000122929B03120122A99B03120122D29B18
:1004730003120122E59B03120122FB9B03120122BB
:100483000E9C03120122359C03120122BCA7021207
:100493000122C0A802120122F8A8021201221BA9FC
:1004A3000212012226A90212012249A902120122E3
:1004B30058AA021201222DAB02120122A8AB02128A
:1004C300012230AC021201226BAC02120122A2AC57
:1004D3000212012230AD0212012209AE02120122E0
:1004E30069AE0212012274AE02120122F3AE0212AD
:1004F3000122F6AE02120122F9AE0212012288AFE6
:10050300021201228BAF02120122BBAF021201229F
:10051300E5AF02120122D3B00212012285B1021209
:10052300012295E002120122BDE002120122EBE05A
:100533000212012222E10212012280E102120122AF
:10054300CBE10212012216E20212012256E202124A
:1005530001229CE202120122CAE20212012287E373
:100563000212012291E3021201229EE302120122EE
:10057300D1E3021201229DE402120122A9E4021234
:100583000122C1E402120122CBE40212012238A4A7
:100593000312012246A4031201225EA403120122C4
:1005A30076A4031201224BBA01120122F7BA0112F7
:1005B300012272BB0112012293BC01120122CFBCA2
:1005C3000112012278BD011201225FBE0112012234
:1005D300C3BF011201221AC0011201229BC00112E2
:1005E30001228BC101120122D8C1011201225EC274
:1005F3000112012290C201120122A4C4011201229C
:10060300E6C40112012204C50112012287C50112A9
:1006130001225BC60112012223C70112012209CA6A
:1006230002120122DCCA0212012285CB021201222C
:10063300D8CB0212012288CC0212012214CD02125D
:10064300012200CE021201222FCE0212012242CF3A
:10065300021201228ACF021201225FD0021201226A
:100663009BD002120122B7D00212012295A70312D6
:10067300012264FB021201227AFB02120122A0FB77
:1006830002120122BCFC02120122C6FC0212012248
:10069300FBFD02120122F3FE021201229AD602127C
:1006A3000122CAD702120122FDD70212012247D822
:1006B300021201220EDA021201221B6E0012012223
:1006C300856E00120122E46F00120122F46F001202
:1006D300012221700012012278700012012221717F
:1006E30000120122287200120122F272001201226A
:1006F3005274001201229574001201223A750012FD
:100703000122877500120122AD7500120122BB7709
:1007130000120122C07700120122C57900120122C2
:10072300127A00120122857A00120122B87A00128D
:1007330001225A7B00120122037C001201223B7C1E
:10074300001201223E7C00120122867C001201224B
:10075300C67C001201221D7D001201225093031258
:100763000122689303120122B09303120122C6935C
:10077300031201220D940312012221950312012277
:10078300AE9503120122F99503120122D02600121D
:100793000122DC26001201221727001201225C2706
:1007A300001201221C2800120122A2280012012299
:1007B3000729001201223329001201226C29001299
:1007C3000122AA2B001201228E2D00120122742F66
:1007D30000120122B7300012012205330012012258
:1007E3001734001201226235001201227236001200
:1007F30001228F3600120122CA3600120122EC3682
:10080300001201224F3700120122103C0012012274
:10081300A53C00120122F63C001201221D3D0012EC
:1008230001226F3D001201228D3D00120122E73D9E
:1008330000120122D03E0012012246400012012282
:10084300CA4000120122C1DB02120122CBDB0212D9
:1008530001220EDC0212012229DC02120122B9DC80
:1008630002120122E1DC021201221EDD0212012228
:1008730055DD021201227EDD02120122F3DD021296
:10088300012208DE021201221DDE021201224EDEC7
:100893000212012262DE0212012287DE021201220B
:1008A300C1DE02120122EDDE0212012225DF021255
:1008B3000122A4DF02120122CFDF0212012218E07B
:1008C3000212012242E0021201226DE00212012211
:1008D30046A203120122E99A02120122179B021275
:1008E3000122659C02120122459D02120122649D90
:1008F30002120122E19D02120122249E0212012210
:100903007A9F021201223BA002120122C2A202120A
:10091300012263A30212012259A40212012256A545
:1009230002120122B0A6021201223BA702120122E7
:10093300EBA00312012254A103120122A8A1031266
:100943000122CFA10312012200A2031201228CEE85
:1009530002120122F9EE0212012240EF02120122D9
:1009630058F00212012254F10212012237F202124C
:100973000122F6B10212012238B2021201220AB395
:1009830002120122E3B302120122DDB40212012298
:10099300BFB50212012228B602120122DEB60212EC
:1009A300012252B702120122BEB702120122E7B797
:1009B3000212012261B802120122FAB802120122C4
:1009C3005FB90212012274B902120122BAB90212EA
:1009D3000122D3B90212012238BA021201223BBA10
:1009E300021201225790031201227F900312012267
:1009F300BD90031201227B9103120122E2910312A3
:100A03000122FE9103120122269203120122569221
:100A130003120122659203120122E29203120122C0
:100A2300089303120122BEAA011201229CAC0112F7
:100A33000122CEAE011201220AAF0112012237AF09
:100A43000112012221B0011201226CB00112012214
:100A5300B7B001120122C9B00112012209B101127A
:100A630001223EB1011201228CB101120122BBB15C
:100A730001120122DEB1011201222BB20112012265
:100A8300B0B201120122CAB40112012209B7011244
:100A930001224AB701120122ECB8011201222DB939
:100AA30001120122A0B901120122F6B90112012299
:100AB30020BA01120122D48D02120122D28E021217
:100AC30001226B95021201228C970212012257997F
:100AD30002120122BF9A02120122314100120122A5
:100AE300E041001201222642001201226643001255
:100AF3000122FC4400120122764500120122914595
:100B0300001201220C460012012266470012012244
:100B1300C64800120122CC49001201222D4B0012BB
:100B23000122464B00120122A44B00120122924CD7
:100B330000120122C54C00120122354D0012012280
:100B4300AF4D00120122F94D00120122C34E0012D3
:100B53000122984F00120122775000120122025104
:100B630000120122705100120122E45100120122ED
:100B73000F5200120122CE520012012233540012EE
:100B830001225054001201226F54001201226055B9
:100B930000120122855500120122AF5500120122D5
:100BA3002A5600120122845600120122ED57001228
:100BB30001229B5800120122DC58001201220080FE
:100BC300021201224E80021201225A8002120122D5
:100BD3003881021201226981021201229A810212D2
:100BE30001221A8202120122528202120122A482DB
:100BF30002120122E18202120122FE840212012268
:100C03002487021201220F8902120122F98A021299
:100C13000122C52600120122AB9601120122DB96A6
:100C230001120122B49D01120122399F01120122F6
:100C330036A5011201221EA6011201225BA6011292
:100C430001227EA601120122AFA601120122B8A63B
:100C530001120122C2A601120122B0A70112012230
:100C6300A6A8011201220C59001201220B5D0012E9
:100C73000122115D001201224C64001201226569F8
:100C830000120122058703120122FF8703120122AA
:100C9300738803120122B1880312012225890312EA
:100CA30001229E8903120122A78903120122B3891B
:100CB30003120122C88903120122068A03120122A8
:100CC3001C8A03120122F9F20212012206F3021214
:100CD300012220F3021201225FF3021201229DF38B
:100CE3000212012202F40212012217F4021201225B
:100CF30022F4021201222FF40212012246F40212FC
:100D0300012254F4021201225FF4021201226BF455
:100D1300021201227AF40212012285F40212012244
:100D2300A8F4021201224FF5021201225FF502120A
:100D3300012279F50212012296F502120122B2F57F
:100D430002120122D7F502120122E2F50212012258
:100D5300F7F5021201220BF6021201226CF60212BF
:100D6300012272F60212012278F6021201227EF6A5
:100D73000212012296F602120122C9F60212012280
:100D8300ADD70112012231D801120122E0D801129C
:100D930001223FDA0112012260DC011201224CDD43
:100DA3000112012281DD01120122A3DD01120122C0
:100DB30052DE011201224AE00112012273E0011204
:100DC300012205E10112012237E10112012244E16E
:100DD300011201229BE101120122C1E10112012250
:100DE3002EE40112012231E50112012289E50112EB
:100DF30001223CC90112012246CA011201222DCB54
:100E03000112012237CB0112012259CB0112012217
:100E130065CB01120122FECC011201222DCD01125C
:100E2300012249CE01120122A2CE0112012208D0D1
:100E330001120122E7D00112012243D10112012242
:100E4300B0D101120122EBD1011201222AD20112E7
:100E53000122E3D401120122FDD40112012289D51A
:100E63000112012297D501120122F0D501120122AC
:100E7300FED50112012271D601120122D5D601122B
:100E830001221FD701120122BCF301120122DEF35A
:100E93000112012204F60112012219F901120122A1
:100EA30031FA01120122E4FA01120122C6FB0112F6
:100EB3000122479C031201226C9C03120122DE9C37
:100EC300031201228FC20212012298C202120122CE
:100ED300A1C20212012278C30212012229C5021201
:100EE30001225FC50212012299C502120122CFC558
:100EF3000212012209C6021201223DC60212012278
:100F030069C602120122B2C602120122ECC6021203
:100F1300012235C7021201228DC702120122C2C764
:100F2300021201221DC80212012257C80212012215
:100F3300A8C802120122DEC80212012218C9021235
:100F4300012246C90212012269C902120122C5A562
:100F530003120122F1A5031201224CA6031201225E
:100F630056A60312012266A6031201222CD10212F5
:100F7300012236D10212012274D102120122BDD103
:100F830002120122F7D10212012251D202120122CE
:100F930072D2021201227BD202120122CCD202129D
:100FA3000122F5D202120122FFD2021201226BD3D7
:100FB30002120122F9D30212012247D402120122A2
:100FC3007DD40212012204D50212012244D5021259
:100FD30001227CD5021201228ED502120122ADD547
:100FE30002120122B6D50212012270D60212012288
:100FF300FDFE021201228E9803120122C4980312ED
:101003000122FA9803120122539A0312012219A80A
:10101300031201222FA80312012239A8031201226D
:1010230083A80312012246F7021201225FF702127C
:10103300012203F80212012243F8021201225CF892
:101043000212012290F802120122DDF8021201229B
:1010530011F90212012253F90212012257FB021263
:1010630001225FA30312012288A303120122B1A369
:1010730003120122F3A3031201224C8A0312012259
:10108300718A031201229D8A0312012283A903128A
:101093000122888201120122EC84011201229E8620
:1010A30001120122908701120122158801120122E7
:1010B300938801120122C08801120122E48B0112DC
:1010C30001225E8C011201224D8D01120122878DB6
:1010D30001120122C78D01120122818F0112012207
:1010E300D48F011201221D90011201228B90011253
:1010F3000122BD9001120122D59001120122EA9131
:1011030001120122FA91011201222A9301120122F2
:101113004C9301120122829301120122279501129D
:1011230001226695011201228696011201220FA562
:101133000312012220A5031201223AA9031201225C
:1011430079A903120122E8A90312012270A603124E
:10115300012280A6031201229BA60312012203A7E8
:1011630003120122EAFE011201226FFF0112012282
:10117300D5FF01120122739F031201229C9F0312C8
:10118300012207A00312012258A003120122B1A0D9
:10119300031201220A7E00120122417E0012012263
:1011A300567E001201221C7F001201223B7F001297
:1011B3000122627F00120122977F0012012200EABE
:1011C3000212012217EA0212012290EA02120122FC
:1011D30069EB0212012227EE021201229683031207
:1011E3000122268403120122A484031201222D85E5
:1011F30003120122C285031201224C86031201222B
:101203005686031201226586031201227B8603128E
:1012130001228E8603120122EE8603120122028727
:10122300031201220DA70312012278A70312012240
:101233008AA703120122EC9D03120122419E03128D
:101243000122AF9E031201221F9F03120122239644
:10125300031201224D960312012222970312012247
:101263001698031201225FBA021201221CBB02125A
:10127300012257BB021201227FBB02120122E1BBF2
:10128300021201222DBC0212012286BC021201228B
:1012930017BD0212012219BE02120122D6BF021289
:1012A300012258C002120122BDC002120122D4C081
:1012B30002120122E4C10212012222C202120122FD
:1012C300D7E50112012261E901120122E9EA0112C3
:1012D300012240EB011201225FEB01120122DDEB3F
:1012E300011201227BED011201225FEE01120122A4
:1012F30049F20112012219F3011201225D8D031239
:1013030001228C8D03120122A28D03120122EA8D88
:10131300031201222C8E03120122978E0312012243
:10132300668F03120122D28F0312012252E50212A9
:10133300012288E70212012227E80212012222E990
:10134300021201224BE902120122B8E90212012220
:1013530000800312012245800312012262800312DE
:1013630001221381031201226681031201224182A9
:10137300031201225D8303120122CC7F001201229A
:10138300CAA903E066701008A3E066700A08A3E028
:1013930066700408A3E06622C3E7960809E7960887
:1013A30009E7960809E79622C3E09608A3E09608A2
:1013B300A3E09608A3E09622C008C3E096F50808C8
:1013C300A3E096420808A3E096420808A3E09645E6
:1013D300087001D3D00822080808EAC0E0EBC0E097
:1013E30086F0E7A4FA180986F0E7A42AFA18098612
:1013F300F0E7A42AFA180986F0E7A42AFA1986F076
:10140300E7A4FBE5F02AFA190886F0E7A42BFBE52D
:10141300F03AFA190886F0E7A42BFBE5F03AFA183C
:10142300180986F0E7A4C5F02BFBE43AFA1908E79C
:10143300C5F0C6A426F6E5F03BFBE43AFA1886F0BD
:10144300E7A4F6E5F00826F6E43B08F6E43A08F6E6
:10145300D0E0FBD0E0FA22E4CFC0E0E4CEC0E0E489
:10146300CDC0E0E4CCC0E075F020E626F608E63314
:10147300F608E633F608E633F6181818EC33FCEDF5
:1014830033FDEE33FEEF33FFC3EC9709ED9709EE1F
:101493009709EF97191919400FFFEC97FC09ED977E
:1014A300FD09EE97FE191906D5F0BFECF709EDF724
:1014B30009EEF709EFF7191919D0E0FCD0E0FDD0D8
:1014C300E0FED0E0FF226016080808C6C313C61862
:1014D300C613C618C613C618C613C6D5E0EA2270CB
:1014E30009080808226016181818C6C333C608C6A8
:1014F30033C608C633C608C633C6D5E0EA22E62794
:10150300F60809E637F60809E637F60809E637F676
:1015130022E026F608A3E036F608A3E036F608A391
:10152300E036F622E026F008A3E036F008A3E03622
:10153300F008A3E036F022C3E697F60809E697F62B
:101543000809E697F60809E697F622C3E096F0083D
:10155300A3E096F008A3E096F008A3E096F022E655
:1015630057F60809E657F60809E657F60809E65755
:10157300F622E056F608A3E056F608A3E056F6086E
:10158300A3E056F622E056F008A3E056F008A3E0E5
:1015930056F008A3E056F022E0F608A3E0F608A30D
:1015A300E0F608A3E0F622E6F008A3E6F008A3E6D7
:1015B300F008A3E6F022E0FAA3E0FBA3E0FCA3E03B
:1015C300FD22EAF0A3EBF0A3ECF0A3EDF022E0F8A8
:1015D300A3E0F9A3E0FAA3E0FB22E8F0A3E9F0A378
:1015E300EAF0A3EBF022CAC0E0E6F0A308DAFAD0EF
:1015F300E0FA22CAC0E0E0A3C582CCC582C583CD90
:10160300C583F0A3C582CCC582C583CDC583DAE685
:10161300D0E0CA22C3E498F8E499F9121658802658
:10162300C3E49AFAE49BFBE920E7E9121658E4982D
:10163300F8E499F922C3E498F8E499F9121658E406
:1016430098F8E499F9C3E49AFAE49BFB22EB20E7C8
:10165300CFE920E7E0B90010BB0008E88AF084F87E
:10166300AAF022E4FBC8FA22EB70227B10C833C82D
:10167300C933C9335007C39AC3DBF280069A5001BA
:101683002ADBEAC833F4C8C933F4C9FA2275F0086F
:10169300E4C833C8C933C933C99AC99B5004C92A9A
:1016A300C93BD5F0ECFBC833F4C8E4C9FA22600D9A
:1016B30008C6A2E713C618C613C6D5E0F322600C0A
:1016C30008C6C313C618C613C6D5E0F42270042295
:1016D300600D18C6C333C608C633C6D5E0F4182256
:1016E300251810AF08F518400C15198008F5184097
:1016F300021519D2AF2200C0D0251810AF08F51873
:10170300500C05198008F51850020519D2AFD0D036
:10171300222518F58210AF08F518400C151980081A
:10172300F51840021519D2AF851983222518F582C1
:10173300E43519F583222518F8E43519F92225181B
:10174300FAE43519FB222518FCE43519FD22E4736C
:101753002518C582C0E0E51934FFC583C0E0E5184C
:10176300C3958224F810AF088583198582188008F1
:10177300858319858218D2AFCEF0A3E520F0A37834
:1017830008E608F0A3DEFAEFF0A3E58124FAF8E611
:1017930008F0A3E608F0A3E608F0A30808E608F0BB
:1017A300A3E608F0A315811581D0E0FED0E0F8157B
:1017B3008115811581E8C0E0EEC0E0222518C582BD
:1017C300C0E0E51934FFC583C0E0E518C395822462
:1017D300F910AF08858319858218800885831985D8
:1017E3008218D2AFCEF0A3E520F0A37808E608F084
:1017F300A3DEFAEFF0A3E58124FBF8E608F0A3E605
:1018030008F0A30808E608F0A3E608F0A31581157D
:1018130081D0E0FED0E0F815811581E8C0E0EEC08C
:10182300E022851983851882E0A3FEE0A3F52078E2
:1018330008E0A3F608DFFAE0A3FFE0A3C0E0E0A31B
:10184300C0E0E0A3C0E0E0A3C0E0E0A3C0E010AFCD
:10185300088582188583198008858218858319D2A3
:10186300AFD083D08202011F851983851882E0A33C
:10187300FEE0A3F5207808E0A3F608DFFAE0A3FF73
:10188300E0A3C0E0E0A3C0E0E0A3C0E0E0A3C0E0C9
:1018930010AF08858218858319800885821885838F
:1018A30019D2AFD083D08222C0D02518C582C0E020
:1018B300E51934FFC583C0E0E518C3958224F3100E
:1018C300AF08858319858218800885831985821856
:1018D300D2AFC8F0A3E9F0A3EAF0A3EBF0A3790831
:1018E300E709F0A3D8FAECF0A3EDF0A3EEF0A3EF31
:1018F300F0A3D0E0F0A3D0E0F0A3D0E0F0A3E52084
:10190300F0A3E5F0F0A322851983851882E0C0E0F7
:10191300A3E0F9A3E0FAA3E0FBA37808E0F608A3A9
:10192300DFFAE0FCA3E0FDA3E0FEA3E0FFA3E0C039
:10193300E0A3E0C0E0A3E0F5D0A3E0F520A3E0A39B
:10194300F5F010AF088583198582188008858319FF
:10195300858218D2AFD082D083D0E0F8D0E0327441
:10196300048006740280027401C0E0F404121714A8
:10197300D0E01215E9227404800474028000CCC004
:10198300E0EDC0E0E518C39CCCAD1950011D10AFCC
:10199300068C188D1980068C188D19D2AF1215F686
:1019A300D0E0FDD0E0FC22D083D082E9C0E0E49314
:1019B300A3C386F0C5F095F0F908E493A386F0C5B8
:1019C300F095F0700BE493A3C3994005E9048002FA
:1019D300A3E475F002A42582F582E5F03583F5834F
:1019E300D0E0F9E493A3C0E0E493C0E022D083D035
:1019F30082ECC0E0EDC0E0E493A3FCE493A3FDED2F
:101A03004C600D121A3CEC24FFFCED34FFFD80EF1B
:101A1300E493A3FCE493A3FDED4C600D121A7BEC5D
:101A230024FFFCED34FFFD80EFD0E0FDD0E0FCE4CB
:101A330093A3C0E0E493C0E022C0E0C3E49396081C
:101A43007401939618400FE4936670080874019329
:101A5300661870007019A3A3C3E4939608740193E6
:101A63009618A3A3400DD0E0D0E0D0E0021A2CA337
:101A7300A3A3A3A3A3D0E022C0E0C0F088F0E49323
:101A83006670080874019366187000A8F0A3A37029
:101A93000BD0F0D0E0D0E0D0E0021A2CA3A3D0F01A
:031AA300D0E0226E
:101AA80074F51217BFEAFEEBFFEE2434F8EF3400AA
:101AB800F988088909EE2435F582EF3400F583E0CA
:101AC800F8EE2437F582EF3400F583E0F50AEC856B
:101AD8000AF0A4FCAAF0850AF0EDA42AFDE82CF887
:101AE800E43DF97A257B00121658EA8508828509B3
:101AF80083F0F8740758F97401B900028004C333FD
:101B0800D9FCFAE8131313541FF8EE28F8EF340041
:101B1800F9E8245DF582E93400F583E05A6008EEBF
:101B28002434F582EF802CEE2434F582EF3400F56E
:101B380083E0C0E0EE2436F582EF3400F583E0F56B
:101B4800F0D0E084A8F0EE28F8EF3400F9E8243863
:101B5800F582E93400F583E0F97F0402186B74F527
:101B68001217BFEAFEEBFFEE2434F582EF3400F5DE
:101B780083E0C0E0EE2435F582EF3400F583D0E051
:101B8800F08E828F83A3A3A3A3A3A3A3C082C08341
:101B98008E828F83A3A3A3A3A3E0F8A3E0F9D08345
:101BA800D082E0C398F508A3E099F509EE247FF503
:101BB80082EF3400F583E064017069EE2480F582D9
:101BC800EF3400F583E0F8A3E0F98E828F83A3A3B6
:101BD800A3A3A3A3A3E0FCA3E0FD8E828F83A3A30A
:101BE800A3A3A3E0FAA3E0FBC3EA9CEB9D5010C3B8
:101BF800EC98ED99402EC3EA98EB995027800EC3D4
:101C0800EA98EB994007C3EC98ED9940177CDC7D86
:101C180004EEFAEFFB120B70EE247FF582EF34002E
:101C2800F583E4F0EE2434F8EF3400F9E8FCE9FD3C
:101C3800EE2435F582EF3400F583E0F8EE2437F52D
:101C480082EF3400F583E0F50AE508850AF0A4F58B
:101C580008AAF0850AF0E509A42AF509E82508F894
:101C6800E43509F97A257B00121658EA8C828D83AF
:101C7800F0F8740758F97401B900028004C333D925
:101C8800FCFAE8131313541FF8EE28F8EF3400F9A0
:101C9800E8245DF582E93400F583E05A6008EE2413
:101CA80034F582EF802CEE2434F582EF3400F5838E
:101CB800E0C0E0EE2436F582EF3400F583E0F5F07D
:101CC800D0E084A8F0EE28F8EF3400F9E82438F5DD
:101CD80082E93400F583E0F91225BD021B61C08258
:101CE800C083851882851983E0F8A3E0F9C3EA9CCC
:101CF800EB9D5010C3EC98ED99401BC3EA98EB9903
:101D08005014800EC3EA98EB994007C3EC98ED99FC
:101D18004004790180027900D083D08222EAC39CF2
:101D2800FAEB9DFB2274EF1217BF9003A2E0640840
:101D38006005E06407702A9061C8E060249003D0D1
:101D4800E0F4601DE0F875F003A4C8AAF02AF9745D
:101D5800D228FE740339FF8E828F83A3A3A3E07079
:101D680003021E5D906060E0C0E0EE2468F582EF3B
:101D78003400F583D0E0F0750C45750D0575080045
:101D8800750900E5D914F50AE5D95403F50E60176D
:101D98007403650E605CE50A6010EE2467F582EF57
:101DA8003400F583E07003021E42900540E06401B0
:101DB800602AEE2482F582EF3400F583E06004782F
:101DC8000480027800850A08E508C398FA95E0FBC4
:101DD800120A388A088B09EA45097005120D6280D3
:101DE80074EE2482F582EF3400F583E070048A0CE7
:101DF8008B0DE50A6012850C82850D83F50BE5D9FC
:101E0800F0A3150BE50B70F6EE2482F582EF340093
:101E1800F583E0604474FC250AF50A780C1219660B
:101E2800AC0AA90EEEFAEFFB120C0C74021216F9AA
:101E3800E97026AA08AB0912123C793D8E828F837D
:101E4800A3A3A3A3E0FA7B0012090CEEFAEFFB129E
:101E58000B88120C1E790080747403650E60568519
:101E68000A107511007810121966AC0CAD0DAA088D
:101E7800AB09120BE874021216F9EE2468F582EF2A
:101E88003400F583E064807004747F8001E0F50C11
:101E9800780C12196AE50EF50C780C12196AA90A61
:101EA800AC08AD099003D0E0FA7B001208D07402A8
:101EB8001216F980139003A2E06408600BAC0CAD15
:101EC8000DEEFAEFFB120C78120D6E79017F0A0203
:101ED800186B74F51217BF74FC1216E3EAFEEBFFD9
:101EE8008908A2AFE433F509C2AF806AEE2463F82B
:101EF800EF3400F97A007B00A2AFE433F50AC2AFF1
:101F080088828983E0FCA3E0FDEC4D603A888289F1
:101F180083E0FAA3E0FB8A828B83E0FCA3E0FD88E0
:101F2800828983ECF0A3EDF08A828B83E4F0A3F03E
:101F380088828983E0FCA3E0FDEC4D700A888289E1
:101F480083A3A3E4F0A3F0E50AA2E092AF12123C47
:101F58009004E3E004F0EE2463F582EF3400F583A7
:101F6800E0F8A3E0F9E849603DEE2463F582EF3438
:101F780000F583E02402FAA3E03400FBEA2402F52A
:101F88000AEB3400F50B780A1219668A828B83E013
:101F9800FCA3E0F9EEFAEFFB120BAC74021216F98F
:101FA800E97003021EF49004E3E060639004E4E047
:101FB800F89004E3E0C398500C74026508705090E0
:101FC80004E5E0604A8E828F83A3A3A3A3E085186B
:101FD80082851983F0A3E4F09004E3E0F874021218
:101FE800172FE8F0A3E4F09004E3E0F89004E2E0AF
:101FF80028F0740212172FAC82AD838518828519D8
:1020080083AA82AB8379011208DC9004E3E4F0E54B
:1020180009A2E092AF74041216F9021B61000000D5
:102028008521878522C622C0E0C0D0E8C0E0E9C08B
:10203800E0EAC0E0EBC0E0ECC0E0EDC0E0EEC0E0FC
:10204800C008C009C00AC00BC082C083C0F0A2AFDC
:10205800E433FEC2AF759B00906182E0A2E05012AB
:10206800E591A2E0500C7591FE7401652170031290
:102078001D2DE0A2E55051E591A2E5504B7591DF89
:102088009003A2E064076005E064087023740165AA
:1020980021703579019003D0E0FA75F003A4CAA83D
:1020A800F028FB74D22AFA74033BFB121EDA80185C
:1020B800E0640D70139003C4E004F064287002E437
:1020C800F07A00E0F9120D74906182E0A2E6400314
:1020D800022176E591A2E640030221767591BF9030
:1020E80003A2E064057008120CA2120CAE80031261
:1020F8000CA8752100120D02E99003A3F0790012D3
:102108000CF6120AE67A017B009003A1E0F9120F9F
:10211800C6907803E064427055900544E014F0706E
:102128004DC2AF12212E00782AD0E0F618D0E0F682
:10213800E59F540770057509FF800375097FC4C0C2
:10214800E07829E6F50808E65509F509740B7808DA
:102158001216C1D0E02508F8906270E0A2E740F8B6
:10216800E8C333906272F0906270E0D2E0F0906160
:1021780081E0A2E35009E5E9A2E3500375E9F7A37A
:10218800E0A2E75009E591A2E7500375917FEEA21E
:10219800E092AFD0F0D083D082D00BD00AD009D053
:1021A80008D0E0FED0E0FDD0E0FCD0E0FBD0E0FAC3
:1021B800D0E0F9D0E0F8D0D0D0E032C0E0C0D0C054
:1021C80082C083906183E0A2E05009E5BFA2E0509D
:1021D8000375BFFEE0A2E15009E5BFA2E150037517
:1021E800BFFDE0A2E25009E5BFA2E2500375BFFBC4
:1021F800E0A2E35009E5BFA2E3500375BFF7E0A2F0
:10220800E45009E5BFA2E4500375BFEFE0A2E55032
:1022180009E5BFA2E5500375BFDFE0A2E65009E576
:10222800BFA2E6500375BFBFD083D0828088C0E0CC
:10223800C0D0E8C0E0E9C0E0EAC0E0EBC0E0ECC034
:10224800E0EDC0E0C0F0E5A7A2E6500FE5A1A2E6E8
:10225800500953A7BF75A1BF12229BE5A7A2E5505D
:102268000CE5A1A2E5500653A7DF75A1DFE5A7A2FB
:10227800E15009E5A1A2E1500375A1FDE5A7A2E29D
:10228800500CE5A1A2E2500653A7FB75A1FBD0F0C4
:102298000221AC74F81217BF7521019003A2E06403
:1022A800067015120C3C8A828B83A3A3A3A3A3A355
:1022B800E0FAA3E0FB120C90A2AFE433FED2AF9099
:1022C80003A8E0640170187A207B009003A1E0F96C
:1022D80012104A7A207B009003A1E0F9120FCC90EB
:1022E8006182E0D2E6F0900541E0602185C6228057
:1022F800169003A7E064017008E5C654F84405F594
:10230800C653BEFC1220287401652160E4EEA2E0E9
:1023180092AF7F0102186B008E238F248582288557
:102328008327851882851983E0CEA3E0CF8528828C
:10233800852783EBC9EAC8EDCBECCA75F010C3E872
:1023480033C8E933C9EA33CAEB33CBC3EA9EF5266F
:10235800EB9FF525B35004AB25AA26EC33CCED331F
:10236800CDD5F0DAAE23AF242274ED1217BF8A0858
:102378008B098C0A8D0B741312172F780C12159B6E
:102388007808790C12139B7510017511C875120025
:1023980075130050127808790C12153A78107908DC
:1023A80012139B50168010780C790812153A781081
:1023B800790C12139B40047901800279007F0C028A
:1023C800186B74ED1217BF8A088B098C0A8D0B7471
:1023D8001312172F780C12159B780C790812139B7F
:1023E80040117808790C12153AAA08AB09AC0AAD65
:1023F8000B80227510007511007512007513017895
:1024080010790C12153A78107908121501AA10AB38
:1024180011AC12AD1380A68A828B837508FF7509EB
:10242800FF750AFF750B0078081215887F040218DB
:102438006B74F51217BF8C828D83780812159B8AEE
:10244800828B83780812154EEA2404F8EB3400F9DD
:102458008C828D83A3A3A3A3E0FCA3E0FD888289DB
:1024680083C3E09CF0A3E09DF088828983C3E09455
:1024780020A3E0944E40268A828B837508FF750955
:10248800FF750AFF750BFF78081215278A828B8360
:10249800A3A3A3A3E02420F0A3E0344EF002241F5A
:1024A80074F51217BFE9FE9004F7E0FAA3E0FBEE1B
:1024B800C333F8E433F9748128F582748139F583DC
:1024C800E02AF508A3E03BF50978081219667A4076
:1024D8007B427C0F7D0012232074021216F98A08B1
:1024E8008B098C0A8D0B741078081214C9AA08ABD2
:1024F800097F0402186B74F11217BF8A0C8B0D8CBC
:102508000E8D0F740F12172FE0FAA3E0FB7411124F
:10251800172FE0F508A3E0F5097808121966EA24F0
:1025280001F508EB3400F509E4F50AF50B780C79A8
:10253800081213DA750871750902780C79081213F4
:10254800DAAA0CAB0DAC0EAD0F12232074021216D2
:10255800F98B09EA450960047A0180027A00EC2ABD
:10256800FCED3400FD741312172FE0F8A3E0F9E82E
:10257800FEE9FFECF8EDF97A717B0212165888082B
:1025880089098E828F8378081215AAECF8EDF97AFA
:10259800717B021216588A088B097405780812167E
:1025A800D08E828F83A3A3A3A3E508F0A3E509F047
:1025B8007F0802186BC082C083E9906000F0D08366
:1025C800D08222C2AF02000022C0E074F21218AB1F
:1025D800A2AFE433FED2AFC2C0E5D1A2E4500653A5
:1025E800D1EF12121EEEA2E092AF7F0102190AC0CB
:1025F800E074F21218ABA2AFE433FED2AFE589A2C1
:10260800E1500312118E758900C2C5EEA2E092AFA7
:102618007F0102190AC0E074F21218ABA2AFE433CA
:10262800FED2AFE58BA2E0500312118E758B00C26B
:10263800E880D8C0E0C0D0E8C0E0E9C0E0E5A8D2B2
:10264800AFC2C7A2E7A2E792AFD0E0F9D0E0F8D0D6
:10265800D0D0E032C0E0C0D0E8C0E0E9C0E0C008B7
:10266800C009C082C083A2AFE433F9D2AF9009F9A0
:10267800E0F8A3E0687008539AFBA374018025C2B0
:10268800E99009F9E0F50874012508F0747925083E
:10269800F582E43409F583E0F5C19009F9E0C394C3
:1026A800804002E4F0E9A2E092AFD083D082D00962
:1026B800D008D0E0F9D0E0F8D0D0D0E03202011F45
:1026C800FFFFFFFFFFFFFFFFC082C083E9900CF10F
:1026D800F002295F74F7121753E99002E1F07C19B0
:1026E8007D037AFF7BFF12081C9002E274FFF0A3BF
:1026F800F0A3E4F0A3F079051207A49002E1E0F951
:102708001206C67A3A7B081209EA7F010218257474
:10271800F41217538A088B09EB548060309002E159
:10272800E0F9120FAE8A0A8B0BAE0AAF0BEE4F60C0
:10273800138E828F83E064B070031207BCEEFAEF49
:10274800FB120F9CAA08E5096480FB80047A007BD1
:102758000002292E74F212175374FC1216E3EAFED3
:10276800EBFFEE4F6038740212172FEEF0A3EF1252
:102778002B93ECF0A3ED122B93AA82AB831206C025
:10278800E9F5087073741212172F123747E50A45D6
:102798000B60658E828F8312280AEE4F70057508CC
:1027A8000280557A067B001210028A0C8B0DA80C49
:1027B800A90DE8497005750813803D88828983E46E
:1027C800122814A3A3EEF0A3EF123BE0E50AF0A34E
:1027D800E50BF09002E712289C9002E76017E0FCF6
:1027E800A3E08003EAFCEBFD8C828D8312289C70A9
:1027F800F38C828D8312366CA90874041216F902C0
:102808003DE2A3A3A3A3E0FEA3E0FF22F0A3F08888
:102818008289832274F2121753890AE975F017A482
:10282800FEAFF09002E6E4F09002E412289C600A01
:102838001210089002E4E4F0A3F0EEFAEFFB121095
:10284800028A088B09EA4509602FEEFCEFFD790042
:10285800120F8A9002E4E508F0A3E509F07B0080F6
:1028680008122886E4F0A3F00BEBC3950A40F2E5C2
:102878000A9002E6F0790080027913023DE2EB75D6
:10288800F017A4F8A9F09002E4E028FAA3E0398A46
:1028980082F58322123402EA4B2274F4121753751C
:1028A8000800750900740C12172F123BB4FEE9FFDB
:1028B800800CE5082401F508E5093400F509C3E5AD
:1028C800089CE5099D503285080A85090B74037830
:1028D8000A1216D0EA250AF8EB350BF988828983A3
:1028E800A3A3A3A3A3A3123747EE650A7003EF655A
:1028F8000B70BFE8FAE9FB80047A007B008027743C
:10290800F41217537900EAA2E0501B7508F675090E
:102918008178081219667C047D007AF37B0C120713
:102928009E74021216F97F04021825C082C0839093
:1029380002E7122966601C88828983A3A3E06A7073
:1029480003A3E06B8882898370E8A3A3A3A312334F
:10295800FE80047A007B00D083D08202011F123EE1
:10296800B5E8492274EE12175374FC1216E3EAFE16
:10297800EBFF851882851983E4F0A3F0EE24021298
:102988003650EE2405122B81EE2404F50EEF122F9B
:1029980066E024FE603924FC604624FE605224FE72
:1029A800605E24FE7003022A8624FE7003022AFE5B
:1029B80024FE7003022B0D24FE7003022B1C24FC42
:1029C8007003022B2B24FE7003022B3A022B779004
:1029D80003007417F0A3E4122B9B12043E022B771A
:1029E800851882851983AC82AD831207C2022B47F2
:1029F800851882851983AC82AD831207C8022B47DC
:102A0800850C08850D09740212172FAC82AD8385D9
:102A180008828509831233FE1206E48A0C8B0DACFA
:102A28000CAD0DEC4D6042E4F50CF50D780C121967
:102A380066750C00750D03780C121966750C017516
:102A48000D03780C121966740812172F12197D7964
:102A5800161233F812080474081216F9E9F50C7006
:102A68000B1233F4120456800F750C018508828509
:102A78000983122B8912366C850C08022B4A7402C2
:102A880012172FAC82AD83850C82850D831233FE1D
:102A98001206E48A108B11AC10AD11EC4D60438521
:102AA8000C82850D83A3A312197D7510007511037F
:102AB80078101219667510017511037810121966CD
:102AC800740812172F12197D79161233F812080498
:102AD80074081216F9E9F509700B1233F412045C44
:102AE800800F750901850C82850D83122B8912369A
:102AF8006C850908804C851882851983AC82AD8362
:102B08001207CE803A851882851983AC82AD83126C
:102B180007D4802B851882851983AC82AD83120770
:102B2800DA801C851882851983AC82AD831207E090
:102B3800800D851882851983AC82AD831207E6E97A
:102B4800F508E50860298E828F83A3E06414601F6E
:102B5800850E82850F83E0900300122B93123EB1FD
:102B680090030112366CE508A3122B9B120438EE71
:102B7800FAEFFB120762023558F50CEF3400F50D39
:102B880022123EB585188285198322F08518828520
:102B9800198322F07C007D03850A82850B83123419
:102BA800022274EE12175374FC1216E38A0A8B0B76
:102BB8008C0E8D0FEA2405F508EB3400F5097C1519
:102BC8007D0079007A007B03120F8AE5082402F55C
:102BD8000CE509122B848518828519838582108556
:102BE80083117810121966850882850983A3A3A327
:102BF800A31230AE121966E5082405F510E509346C
:102C080000F5117810121966850C82850D8312342F
:102C1800081206DE74061216F98A108B11AE10AF70
:102C280011E50A2402F50AE50B123653EE4F70033C
:102C3800022D708017740212172F1233FE888289B2
:102C480083EAF0A3EBF0900300E004F0900300E0C7
:102C5800C394054003022D70E4F510F511781012A5
:102C680019667510E975110278101219667510EA5F
:102C78007511027810121966740612172F12197D31
:102C88007910EEFCEFFD1233F812080474081216DE
:102C9800F9E9705E850882850983A3A3A3A3A3A38A
:102CA800A3E0F89002E9E06870481230AE121966A5
:102CB8007CEA7D02E5082408FAE5093400FB120FD6
:102CC8008474021216F9E960298E828F83A3A3A364
:102CD800A31233FE900300E0F51074027810121668
:102CE800D074012510F58274033511F583EAF0A339
:102CF800EBF0740212172F85821085831178101259
:102D08001966740212172F12197D850C82850D839E
:102D1800123EC61206EA74041216F98A108B11AE16
:102D280010AF11900300E0F51075110074027810CF
:102D38001216D074002510F874033511F9888289A9
:102D480083A312289C7003022C34E82403F8E93486
:102D580000F9EE4F6003022C3D8882898374FFF0EE
:102D6800A3F0900300E004F0900300E0600A12333F
:102D7800F412044A7900800B85088285098312368B
:102D880063790A02355874EA12175374FE1216E36F
:102D98008C128D13EA2405F50CEB12403012280E24
:102DA800750800750900EA2402F510EB3400F511E6
:102DB80085188285198385820A85830B780A1219FA
:102DC80066850C82850D83A3A3A3A3122F70121905
:102DD80066E50C2405F50AE50D123653780A121932
:102DE80066850C82850D83123EC41206DE740612B7
:102DF80016F98A0A8B0BEA450B7003022F21EA2485
:102E080004F50EEB122F6612280E8A828B83A3A379
:102E1800A3E0F98510828511831233FE1206CCE9EE
:102E2800F5096003022F21E4F514F5157814121939
:102E3800667514E975150278141219667514EA7521
:102E480015027814121966740612172F12197D7953
:102E580013AC0AAD0B8510828511831233FE12085C
:102E68000474081216F9E9F5096003022F2190028B
:102E7800E9E0F8E5087009E02402900301F0801702
:102E8800900301E0FCE82402FAE43400FBEA6C70E9
:102E980001EB6003022F25850882AA821230A594CF
:102EA8001412309D5073850E82850F83E0C0E07444
:102EB800022A122F5DD0E0F00508850E82850F8367
:102EC800A3E0C0E085080A7402250A122F5DD0E04D
:102ED800F005089002E9122F701219667CEA7D024B
:102EE80085080A7402250AFA74033400FB120F726B
:102EF80074021216F99002E9E02508F50874FF6ECD
:102F0800700374FF6F6012EE24010EEF3400FFE5CA
:102F180008C394145003022DB8E50860131232E96F
:102F28008510828511831233FE12045079008014B3
:102F3800E509700375090A851282851383EEF0A3EB
:102F4800EFF0A90974021216F97F0E0218258508F8
:102F58000C7402250CF58274033400F583223400C6
:102F6800F50F850E82F58322123BF32274EE1217B9
:102F78005374FE1216E38C0E8D0FEA2405F50CEB44
:102F8800122B84750B00900300E4F0F50AEA240282
:102F9800F508EB3400F5098049900300E0FA900247
:102FA800E9E0F81230A5941712309D400D90030007
:102FB800E0F87416C3989002E9F01230AE12196660
:102FC8007CEA7D0274012AFA74033400FB120F7242
:102FD80074021216F99002E9E0F8900300E028F074
:102FE800050AE50C2416F582E50D122F61E0F8E5D7
:102FF8000AC3984003023086900300E0C394165039
:103008007DE50AC333F8E433F9E50C28FEE50D390C
:10301800FF851882851983AC82AD838E828F8312D7
:1030280033FE1206E48A108B11AC10AD11EC4D7012
:1030380005750B018043E4F510F511781012196637
:103048007510E975110278101219667510EA751174
:10305800027810121966740612172F12197D791644
:103068008508828509831233FE1208047408121633
:10307800F9E9F50B7003022FA112365F80107C006E
:103088007D038508828509831233FE120462A90B29
:10309800740202355AE99400C365D03322EA28F84D
:1030A800E43400F9E822E0F5107511007810227474
:1030B800EA12175374FC1216E38A0C8B0D8C128DCE
:1030C80013EA2405F50AEB12365375080075090052
:1030D800E50A2402F510E50B3400F5117402121705
:1030E8002F85820E85830F780E121966850A8285D0
:1030F8000B83A3A3A3A3123B9F121966E50A240519
:10310800F50EE50B3400F50F780E1219668510825E
:103118008511831236591233F81206DE7406121618
:10312800F98A0E8B0FAE0EAF0FE50C2402F50EE5F3
:103138000D3400F50F80408882898374FFF00508FC
:10314800122F5674FFF005089002E9E0F50C750D92
:1031580000780C1219667CEA7D0285080C74022539
:103168000CFA74033400FB120F7274021216F990F1
:1031780002E9E02508F508EE4F60718E828F83A37F
:10318800A3A3E0F9850E82850F831233FE1206CCC5
:10319800E9F509EE2404122B81E97044E4F514F5ED
:1031A8001578141219667514E97515027814121930
:1031B800667514EA751502781412196674081217E0
:1031C8002F12197D7911EEFCEFFD850E82850F8394
:1031D8001233FE12080474081216F9E9F50960277B
:1031E800850C82850D831232DF12366CE508700378
:1031F8000232C51232E9850E82850F831233FE1220
:10320800046879000232DA850882AA82EA9002E923
:103218007009E02404900301F08022E0F890030193
:10322800E0F514E82404FCE43400FDEC65147001B6
:10323800ED70C01230A5941212309D50B6850C82E4
:10324800850D83E0C0E074022A122F5DD0E0F005FE
:1032580008850C82850D83A3E0C0E0122F56D0E0CC
:103268001232FB85820C85830D780C121966740462
:1032780012172F12197D851082851183123EC612EE
:1032880006EA74041216F98A0C8B0DAE0CAF0D8584
:10329800080C7402250CF874033400F9EE4F70031F
:1032A80002313F851882851983E08882898312322A
:1032B800FBA3E0C0E0122F56D0E002314DE50970C3
:1032C8000375090A850A82850B831232DF12366C70
:1032D800A9097404022F4E123EB585128285138304
:1032E80022900301E0F5F0E50884900300F07C00EB
:1032F8007D0322F005088518828519832274EC1253
:10330800175374FE1216E38A088B098C0E8D0FEA88
:103318002405FEEB3400FF851882851983AC82AD45
:10332800838E828F831233FE1206E48A0A8B0BEE99
:103338002418122B81EA450B70030233CF12354152
:1033480050328518828519831233FE1207F88A10C5
:103358008B11EA4511606B7912AC0AAD0B850882B6
:103368008509831233FE851082851183121751E96E
:10337800F50A7058E4F50AF50B780A1219668E8278
:103388008F83A3A3E0F50A780A121966EE240312C4
:103398003650780A1219668E828F83123408120802
:1033A8000A74061216F9E9F50A7021850C82850D52
:1033B80083E0701F8508828509831233FE12046E2C
:1033C8008011750A0E8009750A018004E50A6003F8
:1033D80012365F850C82850D83E0600479008002D7
:1033E800A90A74021216F97F0C0218257C007D03C5
:1033F800850A82850B8312340222E0FAA3E0FB22BD
:10340800E0FCA3E0FD85088285098312340222745A
:10341800EE12175374FE1216E38A088B098C0C8D72
:103428000DEA2405FEEB3400FF750E008518828531
:103438001983AC82AD838E828F831233FE1206E429
:103448008A0A8B0BEA450B700302352D1235415061
:10345800358518828519831233FE1207F88A0E8B78
:103468000FEA450F605E7912AC0AAD0B85088285BC
:1034780009831233FE850E82850F83121751E9F5F1
:103488000E6003023530850882850983123747AA02
:103498000AFB1207EC8A108B11A810A911E84970D1
:1034A8001E7AFF7BFF1207EC8A108B11A810A91156
:1034B800E849606C88828983E50AF0A3E50BF0751A
:1034C8000A008007750E0E805F050A9002E6E0FA92
:1034D800E50AC39A504AE50A75F017A4FAABF088D2
:1034E800828983A3A3E02AFAA3E03BFB8A828B8329
:1034F800123659EC4D70D2750A17750B00780A12FE
:103508001966EEFCEFFD120F7274021216F9EEFC4A
:10351800EFFD8508828509831233FE120474801436
:10352800750E098003750E01123EAD850C82850D5E
:103538008312366CA90E023098E5082402F508E5D6
:10354800093400F5098A828B83A3A3A3E0A2E522AC
:1035580074041216F97F0A02182574EC1217538C9A
:10356800108D11EA2405F50CEB122B84750F00EA77
:103578002402F50AEB123653850A82F5831233FECC
:103588001207EC8A088B09EA45097003023645756B
:103598000E008071850C82850D83E06401704F8E6A
:1035A800828F83A3A312197D8E828F83A3A3A3A3E3
:1035B800E0F5127513007812121966EE2405F5125B
:1035C800EF3400F51378121219661233F812080A4C
:1035D80074061216F9E9F50F6014850C82850D83BF
:1035E800E4F0123EAD85108285118312366C7C178B
:1035F8007D007900EEFAEFFB120F8A8E828F83E44A
:10360800F0A3F0050E9002E6E0F8E50EC398501E10
:10361800E50E75F017A4F8A9F0850882850983A33B
:10362800A312403A123659EC4D600302359C8508C6
:103638008285098374FFF0A3F0E50F70061233F852
:1036480012047AA90F0233EFF50AEF3400F50B22C2
:10365800A3E0FCA3E0FD228E828F83123EB5850E87
:1036680082850F83E8F0A3E9F022C082C08390022C
:10367800E2E06A7003A3E06B70067AE27B028004E2
:103688007A007B0002295FC082C08378008C828D1B
:1036980083E06A7003A3E06B7010E875F003A4F888
:1036A800A9F0EC28FAED39FB8015088C828D83A3EC
:1036B800A3A3E06A7003A3E06B60DF7A007B0002DB
:1036C800295F74F61217531207B68A828B83E58234
:1036D800458370067A007B008007A3A3A3A3123357
:1036E800FE023D5E74F2121753E9FE740E12172F94
:1036F800123747741012172F123BBF8C828D83E04C
:1037080064027036A3123EBBF50CA3E0F9A80C7452
:10371800026870037429697021750C02750D0078B0
:103728000C1219667808121966780A121966EEF9E9
:1037380012082E74061216F980027901023DE2E0A1
:10374800F50AA3E0F50B2274E812175374FB12165E
:10375800E3E9851882851983F08A168B17ECFEED4C
:10376800FF751000741D12172F123EB1741D121729
:103778002F12366C8E828F83A3A3A3E0A2E4502D70
:10378800741D12172F1233FE1207F88A828B83E5F5
:103798008245837003023B90790AEEFCEFFDAA167E
:1037A800AB17121751E9F5106003023B93741F120F
:1037B800172F123BBF742112172F12374774231289
:1037C800172FE0F50EA3E0F50F8E828F83E06402D9
:1037D8006003023B3EA3123EB1850882850983A39C
:1037E800858212858313EE2406122B8188828983B1
:1037F800E0FAA3E0F9EA2400F514E439F5157814A1
:103808001219F0010000280128333807000228F8AF
:10381800380328653800292F3A01295A3A0229FB2A
:103828003903292F3A0429D93A3E3BE50E450F6062
:1038380003023B39850C82850D83123BB4FAE9FB00
:103848008A828B83E0850A82850B83123BEA1219F0
:10385800668A828B83A3E0FCA3E0023AC3E50E45A7
:103868000F6003023B39850A82850B837401F012CD
:103878003BC7850882850983F07C007D008E828F96
:1038880083A3A3A3A3E02401FAA3E03400FB120658
:10389800E4EA4B60418A828B83E02402F8850A823D
:1038A800850B83E028F0EA2404F8EB3400F98882D9
:1038B8008983E0851282851383123BFC123BEA124E
:1038C80019668A828B83123658E5082403FAE509BB
:1038D8003400FB023AC8850A82850B83E02404F091
:1038E8007C047D007900AA12AB13120F8A023B9365
:1038F800E50E450F6003023B39123BC7FEA3E0FF0C
:10390800850A82850B837404F0EE85088285098315
:10391800F0EF851282851383F0740312172FAC829F
:10392800AD83EEFAEFFB1206E48A0C8B0DEA450D27
:1039380070030239DC8A828B83A3A312280A7401DC
:1039480012172F85820E85830F780E12196674055B
:1039580012172F12197D7CFF7DFF1206EA740412DC
:1039680016F98B0FEA450F7033850C82850D83128B
:103978003B9F121966850C82850D83A312197D7CE5
:10398800027D007A857B8212051674041216F9E905
:10399800700A740112172F74FFF0A3F08E828F83C0
:1039A800E064027039750C02750D00780C12196606
:1039B8008E828F83123658E5082404FAE50934000C
:1039C800FB120F7274021216F9850A82850B83E0C6
:1039D80024028009740112172FEEF0A3EFF074018E
:1039E80012172F123BB0F0740112172FA3123BA825
:1039F800023B33E50E450F6003023B39850C828597
:103A08000D83123659AA16AB17120822850A828529
:103A18000B837402F0EA850882850983F085128297
:103A2800851383EB023B36E50E450F6003023B39F5
:103A3800123BC7F8A3E0F9850A82850B837402F06C
:103A4800E8850882850983F0E98512828513830257
:103A58003B36850C82850D831233FE120F6CEAFC0F
:103A68008C82A882C3950EE4950F405FE8650E70BE
:103A780002E50F70047C008022851882851983E096
:103A8800FAE50E2AFAE50F3400FBC3EA98EB940036
:103A98005003E08005E50ECCC39CFCEC850A8285CA
:103AA8000B83F08C0A750B00780A121966850C8254
:103AB800850D83E0250EFCA3E0350FFDAA08AB09B0
:103AC800120F7274021216F9023B93751007023B2B
:103AD80093E50E450F705A850C82850D83123EB111
:103AE800850A82850B837407122816123BA81228B0
:103AF80016A3E0851282851383F0E82402FAE934DC
:103B080000FB8A828B83123BA8123BD7123BB0A3DF
:103B1800123BE0123BB9F0E82405F8E93400F988D3
:103B2800828983123BB9A3123BFCA3A3A3A3F08011
:103B38005A75100B8055741D12172F1233FE120779
:103B4800B68A828B83E5824583603D123EB1880C3C
:103B5800890DE8450D6031780E121966780A121938
:103B6800667808121966740612172FE0F9EEFCEF52
:103B7800FDAA16AB17850C82850D831217517406A2
:103B88001216F9E9F510800375100EA910740512C4
:103B980016F97F10021825E0F50E750F00780E2231
:103BA800E085088285098322123C0622123EB5E888
:103BB80022123C06A3A322E0F508A3E0F50922851A
:103BC8000C82850D83E0F8A3E0F5838882E022A3C8
:103BD800A3F08A828B83A322F088828983A3A3A37C
:103BE800A322F08A828B83123BF322E0F50A750B3D
:103BF80000780A22F088828983A3123C0622E08595
:103C08000882850983A3A32274EE12175374FE1247
:103C180016E38A0A8B0BECFAEDFB741412172FE0EB
:103C2800F510A3E0F511741612172FE0FE741812A0
:103C3800172FE0F50EA3E0F50F851882851983ACE0
:103C480082AD831206E48A0C8B0DEA450D60498526
:103C580018828519831233FE1207B68A828B83E590
:103C6800824583602FA3A3123BBFE5084509602462
:103C7800780E1219667810121966EEF9AC0CAD0DB3
:103C8800AA0AAB0B8508828509831217517404129E
:103C980016F98006790E8002790102309874F612BE
:103CA800175374FE1216E3740C12172F123BB485C7
:103CB8001882851983F0740112172FE9F0E4F508CA
:103CC800F5097808121966750802780812196674D9
:103CD8000412172F8582088583097808121966123D
:103CE800080A74061216F974021216F9806874F735
:103CF800121753EAFEEBFF89087C197D031208228C
:103D0800EA5402600BA908EEFAEFFB1206D880020B
:103D1800790102271274F612175374FF6A7003743C
:103D2800FF6B70168C828D83123D63E4F08C828D5C
:103D380083A3A3A3123D63A380181207F28A088BFA
:103D480009A808A909E849600D8882898374FF12C7
:103D58002814A3A3E4F07F0202182574FFF0A3F04F
:103D68008C828D83A3A32274F61217531207F28A4A
:103D7800828B83E58245836006A3A3E0FA80027AFA
:103D8800007B0080D174F21217538A088B09ECFE6D
:103D9800EDFF740E12172FE0F50A1207F28A0C8B4A
:103DA8000DA80CA90DE8497026EEFCEFFD7AFF7B03
:103DB800FF1207F28A0C8B0DA80CA90DE8497004B4
:103DC8007911801688828983E508F0A3E509F088CF
:103DD800828983A3A3E50AF079007F060218257477
:103DE800EE121753EAFEEBFF8C088D09890C741448
:103DF80012172F123EB1741612172F1233FE750DBB
:103E080000E8496003023EA57402650C6003023EA7
:103E1800A0741212172F123EBBFCA3E0F9EC240089
:103E2800F50EE439F50FEAF4F8EBF4F9EC58F8E597
:103E38000F59F9E849705CE5082406F8ED3400F9F3
:103E4800880A890B8882F583123EC61208228A10D6
:103E58008B11E50E65107004E50F65116042780E50
:103E6800121966850A82850B83123EC612082874C9
:103E7800021216F9E9F50D7027780E1219668508F1
:103E880082850983A3A3123EC41208407402121645
:103E9800F9800D750D808008750D0D8003750D0B6B
:103EA800A90D02355D8E828F83123EB522E0F8A3FC
:103EB800E0F922123EB588828983E022A3A3E0FCC0
:103EC800A3E0FDEEFAEFFB2274E812175374E71231
:103ED80016E3851882851983EAF0A3EBF08C168D1A
:103EE80017890E750800750900743112172FE0F54F
:103EF80012A3E0F513743312172FE0F514A3E0F5BD
:103F080015743512172FE0F50FE50975F003A4F8BD
:103F1800A9F085188285198312403AE0F47003A34A
:103F2800E0F4700302401DEE2402F50CEF1240305D
:103F3800E0700302401D85160A85170B780A1219CE
:103F480066AC14AD15AA12AB131207AA74021216A6
:103F5800F98A0A8B0BEA450B700302401DE4F51041
:103F6800F5117810121966740612172F85821085BC
:103F780083117810121966740912172F858210851B
:103F880083117810121966851282851383A3A3A35F
:103F9800A312197D7914AC0AAD0B8E828F8312336C
:103FA800FE12080474081216F9E97069850A8285F8
:103FB8000B83A3A3A3A3123EB1740212172F1236C8
:103FC8006C850C82850D83E0A2E05018A90E74025E
:103FD80012172FAC82AD838E828F831233FE1206A6
:103FE800FCE94208850C82850D83E0A2E15026E5B4
:103FF8000FF50A780A12196AA90E740312172FAC62
:1040080082AD838E828F831233FE1206F6740112FC
:1040180016F9E942080509E509C394025003023F6D
:1040280011A9087419023B973400F50D850C82F527
:104038008322E028FEA3E039FF8E828F832274F268
:10404800121753EAFEEBFF890B7401650B600E74BF
:1040580002650B706A7901120A08E97062EEFAEFDC
:10406800FB1207EC8A088B09EA45096047750A00C4
:10407800800B7C177D007900120F8A050A9002E6F2
:10408800E0F8E50AC3985021E50A75F017A4F8A9E5
:10409800F0850882850983A3A3E028FAA3E039FB09
:1040A8008A828B8312296670C98508828509837480
:1040B800FFF0A3F07C197D03EEFAEFFB12081C0257
:1040C8003DE274F21217538A088B09ECFEEDFF7477
:1040D8000E12172F123747900CF1E0F4603D7A0961
:1040E8007B00120F96EA4B60328A828B8374B1F0A0
:1040F800A3E4123BD9A3123BD7A3E508F0A3E50933
:10410800124126EEF0A3EF124126A3A3E50AF0A37D
:10411800E50BF0900CF1E0F9120FA2023DE2F08AF3
:10412800828B83A3A3A3A3A322C082C083906190A0
:104138007404F0A37448F0A37402F0906180744092
:10414800F09061BC7403F09061877419F090626517
:10415800741BF0906249E0C3941390619C400A7408
:1041680009F090606674018007740DF0906066E451
:10417800F090619A7433F0A37455F09061A0743A8A
:10418800F090053FE064017009C2919003A674673E
:1041980080059003A67461F09026CEE49390618622
:1041A800F09026C8E493F46027E493540FF89061E4
:1041B80085E0686012E5C654804449F5C6E59E541A
:1041C8007F644970F8E8F053C680E59E547F70FA22
:1041D8007905120D5602435FC082C083E5A8F853E3
:1041E800A87E906181E4F0A3F0A3F0C2BA539AFECE
:1041F800C289759B00C2C275E90075910075BF0040
:1042080075A91175B905906181F0A374C0F0A3E494
:10421800F0D2BA439A0174805842A802435FC08220
:10422800C08374F81216E39003A4E0F8A3E0F9E859
:104238004970030243549003A4E054406023790872
:10424800851882851983AA82AB83120BCA851882C6
:10425800851983AA82AB831208B89003A4E054BFDF
:10426800F0E054806010790C7A657B05120BCA90D7
:1042780003A4E0547FF0E0A2E0503190619A7433D7
:10428800F0A37455F09061A0743AF090053FE06493
:10429800017009C2919003A6746780059003A67403
:1042A80061F01208BE9003A4E054FEF0E0540260EE
:1042B8003190619A743FF0A3745AF09061A0747FB2
:1042C800F090053FE064017009D2919003A67471E3
:1042D80080059003A6746AF01208BE9003A4E05407
:1042E800FDF0E0540460139026CCE493906186F0CE
:1042F8001208C49003A4E054FBF0E0540860139043
:1043080026CDE493906186F01208C49003A4E0548B
:10431800F7F0E0541060139026CEE493906186F095
:104328001208C49003A4E054EFF0E05420600A128D
:1043380008C49003A4E054DFF0A3E05401600D1218
:104348000AF21208CA9003A5E054FEF07408121687
:10435800F902435FF0A3F0D083D08202011F74EC0E
:1043680012175374F41216E3851882851983AC82E8
:10437800AD8375838275822574041215F69026CC58
:1043880093F460030244F2907808E0C39402500367
:104398000244D2740412172FAC82AD8375838175E1
:1043A80082E874081215F6851882851983858212A9
:1043B800858313740412172FAC82AD83750EFF75B5
:1043C8000FFF7FFF7E00750C48750D788015740807
:1043D8006E700302446674096E7003024466740AC0
:1043E8006E607B850C82850D83780812159B8C8204
:1043F8008D83A909E50AC9F8881074187808121479
:10440800C9E5104508F8C3E098A3E099850C8285B2
:104418000D83780812159B40188C828D8374187848
:10442800081214C9E5104508F8E0C398F8A3E0801D
:104438001C741878081214C9E5104508FAE9FB8CB1
:10444800828D83E0F8A3E0F9EAC398F8EB99F9C301
:10445800E8950EE9950F5006880E890FEEFF0EE5D8
:104468000C2404F50CE50D3400F50DEEC39413503F
:10447800030243D674FF650E700474FF650F602352
:104488008F08740278081216D074482508F58274CB
:10449800783509F583780812159B85128285138370
:1044A800E508F0EC2402FCED3400FD85128285134A
:1044B80083A3858212858313740C12172FE5826CEF
:1044C8007003E5836D60030243C475080175090034
:1044D8007808121966740212172FAC82AD837AB36A
:1044E8007B0912116A74021216F9740C1216F97FFC
:1044F8000C021825C082C0839061AE7468F0A37462
:104508006AF090624574FBF0A304F053F4FD43FE97
:104518000290053F7401F09061A0E0643A90619ABE
:1045280070237433F0A37455F09061A0743AF0745A
:104538000164017009C2919003A6746780289003F2
:10454800A674618021743FF0A3745AF09061A0743E
:104558007FF0740164017009D2919003A674718090
:10456800059003A6746A02435E7F08021825C0827C
:10457800C0839004F1E06401700A9004F6E06004DE
:10458800790C8002790002435FC082C08375E1F133
:104598009004F4E0605B14600914605F14605714C1
:1045A800705E120B049004EAE0F97AEB7B04120CBB
:1045B800D87AD67BBE7C897D8E120D0E7A557B55B6
:1045C8007C557D00120CE49004F5E0F9120CF079AA
:1045D80001120D4A9004E8E0F8A3E0C82416F58219
:1045E800E83400F583741CF0A3740BF079000243DF
:1045F8005F120B0A80AF120B1080AA120B1680A54F
:10460800791280EA74F012175375D90D9004D5E029
:10461800A2E0E4331313F89004EAE0C4333354C03F
:10462800484401F5D978E8790488828983A3A3A34B
:10463800E0F5D988828983A3A882A983E864EE700B
:1046480003E9640470E378D5790488828983A3E058
:10465800F5D988828983A3A882A983E864DB7003DB
:10466800E9640470E575E1959004D5E0F97AD67BA4
:1046780004120CDE900D1374B6F0A3740AF0A37440
:1046880012F0A3740CF0A37412F0A3740CF0A374CA
:1046980012F0A3740CF0A374BCF0A3740AF0A37412
:1046A80012F0A3740CF0A374D4F0A3740AF0900D64
:1046B800217412F0A3740CF0A37412F0A3740CF01C
:1046C800A37412F0A3740CF0A37412F0A3740CF08A
:1046D800A37412F0A3740CF0A37412F0A3740CF07A
:1046E8009004F4E064019004E87012E0F8A3E0F5A7
:1046F800838882A3A37508007509088010E0F8A3D1
:10470800E0F5838882A3A3750804750900750A007B
:10471800750B007808121514750CFF750DFF750ED2
:10472800FF750F007808790C1215629004E8E0F81C
:10473800A3E0C8240EF582E83400F5837808121542
:10474800AA9004E8E0F8A3E0C82414F582E834004D
:10475800F5837413F09003A27402F002457174F7A4
:104768001217539004FAE02407F5D99004EAE0C43C
:10477800333354C0F5D978E8790488828983A3A3B0
:10478800A3E0F5D988828983A3A882A983E864EE87
:104798007003E9640470E39004FAE0601F78E87934
:1047A80004FAE82413F582E93400F583E0F5D988A2
:1047B800828983A3A882A9831AEA70E690051AE081
:1047C8002407F5D99004EAE0C4333354C04404F50F
:1047D800D978E8790488828983A3A3A3E0F5D988E6
:1047E800828983A3A882A983E864EE7003E964043C
:1047F80070E390051AE0601F78E87904FAE824333A
:10480800F582E93400F583E0F5D988828983A3A885
:1048180082A9831AEA70E675E195900D1374C2F0C7
:10482800A3740AF0A37412F0A3740CF0A37412F02A
:10483800A3740CF0A37412F0A3740CF0A374BCF06E
:10484800A3740AF0A37412F0A3740CF0A374D4F048
:10485800A3740AF0900D217412F0A3740CF0A374E1
:1048680012F0A3740CF0A37412F0A3740CF0A374E8
:1048780012F0A3740CF0A37412F0A3740CF0A374D8
:1048880012F0A3740CF09004E8E0F8A3E0C8240E3A
:10489800F582E83400F58374FFF0A3F0A3F0A3F0E9
:1048A8009004E8E0F8A3E0C82414F582E83400F5A1
:1048B800837412F09003A27401F0FF02182574F7B4
:1048C8001217539004FAE02407F5D99004EAE0C4DB
:1048D800333354C04402F5D978E87904888289834F
:1048E800A3A3A3E0F5D988828983A3A882A983E832
:1048F80064EE7003E9640470E39004FAE0601F78E2
:10490800E87904FAE82413F582E93400F583E0F540
:10491800D988828983A3A882A9831AEA70E675E1F7
:1049280095900D1374CEF0A3740AF0A374CEF0A37F
:10493800740AF0A374CEF0A3740AF0A374CEF0A3A3
:10494800740AF0A374CEF0A3740AF0A374CEF0A393
:10495800740AF0A374D4F0A3740AF0900D217412B1
:10496800F0A3740CF0A37412F0A3740CF0A37412E7
:10497800F0A3740CF0A37412F0A3740CF0A37412D7
:10498800F0A3740CF0A37412F0A3740CF09004E874
:10499800E0F8A3E0C8240EF582E83400F58374FF3C
:1049A800F0A3F0A3F0A3F09004E8E0F8A3E0C82493
:1049B80014F582E83400F5837414F09003A27404AB
:1049C800F0024C8D74F71217539004FAE02407F59F
:1049D800D99004EAE0C4333354C04406F5D978E8E2
:1049E800790488828983A3A3A3E0F5D9888289837F
:1049F800A3A882A983E864EE7003E9640470E390D5
:104A080004FAE0601F78E87904FAE82413F582E9EB
:104A18003400F583E0F5D988828983A3A882A98325
:104A28001AEA70E690051AE02407F5D99004EAE03E
:104A3800C4333354C04404F5D978E87904888289AA
:104A480083A3A3A3E0F5D988828983A3A882A98335
:104A5800E864EE7003E9640470E390051AE0601FEF
:104A680078E87904FAE82433F582E93400F583E03C
:104A7800F5D988828983A3A882A9831AEA70E67582
:104A8800E195900D1374C8F0A3740AF0A37412F0A2
:104A9800A3740CF0A37412F0A3740CF0A37412F0B6
:104AA800A3740CF0A37412F0A3740CF0A37412F0A6
:104AB800A3740CF0A374D4F0A3740AF0900D2174BD
:104AC80012F0A3740CF0A37412F0A3740CF0A37486
:104AD80012F0A3740CF0A37412F0A3740CF0A37476
:104AE80012F0A3740CF0A37412F0A3740CF09004E9
:104AF800E8E0F8A3E0C8240EF582E83400F58374F2
:104B0800FFF0A3F0A3F0A3F09004E8E0F8A3E0C856
:104B18002414F582E83400F5837415F09003A27428
:104B280003F0024C8DC082C0839004E8E0F8A3E053
:104B3800C82406F582E83400F583E402435C74F780
:104B48001217539003D0E0F875F003A4C8AAF02A0E
:104B5800F974D228F8740339F9E82405FAE934001D
:104B6800FB8A828B83E0FCA3E0FD88828983A3A370
:104B7800A3A3A3A3A3A3A3ECF0A3EDF08882898346
:104B8800A3A3A3A3A3A3A3E024FFF8A3E034FFF9FE
:104B98008A828B83E8F0A3E9F0024C8D74F7121730
:104BA80053EAFEEBFF9061D0E06003024C8175D9B7
:104BB8000E75D90375D904EE248BF582EF3400F510
:104BC80083E5822408F8E5833400F9E0F5D9A3E801
:104BD80065827003E9658370F2EE2483F582EF3411
:104BE80000F583E5822404F8E5833400F9E0F5D97B
:104BF800A3E865827003E9658370F275E195790829
:104C0800EE248BFAEF3400FB120BBE7904EE2483FA
:104C1800FAEF3400FB120BBE7C00EEF8EFF9ECFA69
:104C2800C3E49AFA95E0FBEE2AFAEF3BFBEA248A02
:104C3800F582EB3400F583E0C0E0E824AAF582E9C8
:104C48003400F583D0E0F00C88828983A3A882A978
:104C580083ECC3940840C7EE246FF582EF3400F567
:104C680083E0F8A3E0F9EE2471F582EF3400F583D0
:104C7800E8F0A3E9F07901800279008008F0EEA25B
:104C8800E092AF79007F01021825C082C08375D9F0
:104C98000275D90375D90575E195EA246FF582EB9C
:104CA8003400F583E0F8A3E0F9EA2471F582EB34E7
:104CB80000F583E8F0A3E9F0790102435F74F61286
:104CC8001753EAFEEBFF9005457406F07508457525
:104CD800090578081219667C017903120C0674021A
:104CE8001216F975D90675D903758245758305E0DD
:104CF800F5D9A3E582644A7004E583640570F0750C
:104D0800E1959003A2E06408701EEE246FF582EF2F
:104D18003400F583E0F8A3E0F9EE2471F582EF346E
:104D280000F583E8F0A3E9F07901024F9374F612D5
:104D38001753EAFEEBFF9061D0E0706678019005AA
:104D480045740BF09003A2E0640770197508457567
:104D5800090578081219667C017903120C06740299
:104D68001216F97805740128F5D975D903758245A5
:104D7800758305E8FAE0F5D9A31AEA70F875E195A4
:104D8800EE246FF582EF3400F583E0F8A3E0F9EE46
:104D98002471F582EF3400F583E8F0A3E9F0790196
:104DA80080027900024F9374F7121753EAFEEBFF63
:104DB80075D90375D90375D90DEE24DDF582EF3465
:104DC80000F583E0F5D975E1957904120D14EE2408
:104DD8006FF582EF3400F583E0F8A3E0F9EE247173
:104DE800F582EF3400F583E8F0A3E9F07901024C8D
:104DF8008D74F6121753EAFEEBFF9061D0E0F87459
:104E080080C398FAEE2482F582EF3400F583E060DF
:104E180004780480027800E8240BF8EAC398500369
:104E2800024EBE7D09900545EDF0EE24E2F8EF3420
:104E380000F97A467B057C0888828983E08A828B20
:104E480083F088828983A3A882A9838A828B83A31B
:104E5800AA82AB831CEC70E0EE2482F582EF34006A
:104E6800F583E0601D75084575090578081219660F
:104E78007C097903EEFAEFFB120C0674021216F99C
:104E88007D0D74012DF5D975D90375824575830596
:104E98008D08E0F5D9A31508E50870F675E1957950
:104EA80004120D14EE241DF582EF3400F583E4F0AE
:104EB800A3F0790180027900024F9374F612175318
:104EC800EAFEEBFF9061D0E0F87480C398FAEE2414
:104ED80082F582EF3400F583E0600478048002787C
:104EE80000E82408F8EAC3985003024F9178069026
:104EF8000545740CF09003BFE0900546F09003C0A0
:104F0800E0900547F09003C1E0900548F09003C297
:104F1800E0900549F09003C3E090054AF0EE248242
:104F2800F582EF3400F583E0601B750845750905C7
:104F380078081219667C067903EEFA120C067402D8
:104F48001216F9780A740128F5D975D903758245BE
:104F58007583058808E0F5D9A31508E50870F67586
:104F6800E1957904120D14EE246FF582EF3400F503
:104F780083E0F8A3E0F9EE2471F582EF3400F583BD
:104F8800E8F0A3E9F07901800279007F0202182590
:104F980074F6121753EAFEEBFF9061D0E0F87480C4
:104FA800C398FAEE2482F582EF3400F583E06004BA
:104FB800780480027800E82404F8EAC398500302D1
:104FC80050727802900545E8F0EE24F4F582EF344B
:104FD80000F583E0900546F0EE2482F582EF340078
:104FE800F583E0601B750845750905780812196690
:104FF8007C027903EEFA120C0674021216F978068E
:10500800740128F5D975D903758245758305880813
:10501800E0F5D9A31508E50870F675E195EE247357
:10502800F582EF3400F583E4F0EE247FF582EF3467
:1050380000F583E4F0EE241DF582EF3400F583E4F7
:10504800F0A3F07904120D14EE240DF582EF34006C
:10505800F583E0F8A3E0F9EE2471F582EF3400F56A
:1050680083E8F0A3E9F0790180027900024F937494
:10507800F61217539061D0E0F87480C398FCEA24C4
:1050880082F582EB3400F583E060047804800278CE
:1050980000E82404F8ECC398405B79029005457455
:1050A80007F0EA24F5F582EB3400F583E090054635
:1050B800F0EA2482F582EB3400F583E06018750885
:1050C8004575090578081219667C0209120C0674E0
:1050D800021216F97906740129F5D975D903758272
:1050E80045758305E9F8E0F5D9A318E870F875E186
:1050F80095790180027900024F9374F5121753E9EC
:10510800FCA2AFE433F50AC2AF7D0080010DEA24AA
:105118006EF582EB3400F583E0F8EDC398501A8DF4
:1051280008EA2508F8EB3400F9E8246AF582E9343E
:1051380000F583E06C70D68024EA246EF8EB340026
:10514800F9E0FEEA2EFAEB3400FBEA246AF582EB7A
:105158003400F583ECF088828983E004F0E50AA244
:10516800E092AF7F0302182574F6121753A2AFE43A
:1051780033FDC2AFEA246EF582EB3400F583E01408
:10518800F07C0060368C08EA2508F8EB3400F9E872
:10519800246BF582E93400F583E0C0E0E8246AF581
:1051A80082E93400F583D0E0F00CEA246EF582EB56
:1051B8003400F583E0F8ECC39840CAEA246DF58220
:1051C800EB3400F58374FFF0EA2469F582EB3400D0
:1051D800F583E4F0EDA2E092AF024F93C082C08362
:1051E800E5A8F8C2AFEA246AF582EB3400F583E952
:1051F800F0EA2469F582EB3400F583E4F0E8A2E7ED
:10520800A2E792AF02435F74F3121753EAFEEBFF73
:10521800ECFAEDFB8A828B83A3A3A3A3E0541FF0CF
:10522800EE2436F582EF3400F583E4F0F50AEEFC5F
:10523800EFFD8A828B83E0C0E0EC245DF582ED34DB
:1052480000F583D0E0F0750B00E50A33333354F8EA
:10525800F50C8A828B83E0F508750900E50B780860
:105268001216B1E508A2E0502FEE2436F8EF34000C
:10527800F988828983E0F508EE2508F508EF3400FF
:10528800F509E5082438F582E5093400F583E50CCD
:10529800F088828983E004F0050B050CE50BC394C4
:1052A8000840AF050A8A828B83A3AA82AB838C82CB
:1052B8008D83A3AC82AD83E50AC3940550030252E3
:1052C8003A7F0502182574F71217539003CEE0644D
:1052D80001700302542C7A009003D4E06003025456
:1052E8002C7401F0A3E4F0A3F090043404F09004CB
:1052F80039F09003D7E4F0A3F0A3F0A3F09003E112
:1053080004F0900407E4F09003EAF0A3F0A3F0A3FC
:10531800F0A3F0A3F0A3F0900451F0900445F090AE
:10532800043A7480F0A3E4F0900440F09004BCF0D8
:10533800A3F0A3F0A3F0A3F0A3F0A3F0A3F09004CC
:10534800C5F0900454F09004A4F0A3F0A3F0A3F0E7
:10535800A3F0A3F0A3F0A3F0A3F0A3F09004B0F09F
:105368009004B2F09004AEF09004C8F0A3F0A3F05B
:10537800A3F0A3F0A3F0A3F0A3F078CE7903E82478
:105388006EF582E93400F58374FFF00A8882898318
:10539800A3A882A983EAC3940440E37ACE7B037866
:1053A800DC790488828983E0C0E0EA2461F582EB35
:1053B8003400F583D0E0F088828983A3A882A9838A
:1053C8008A828B83A3AA82AB83E864E17003E964D1
:1053D8000470D07ACE7B0378B5790388828983A359
:1053E800E0C0E0EA24E6F582EB3400F583D0E0F093
:1053F80088828983A3A882A9838A828B83A3AA82AD
:10540800AB83E864BD7003E9640370CF9003CEE01A
:1054180004F0640170089003D6E09003D0F07AD2CB
:105428007B0380047A007B00024C8DC082C083908D
:1054380003D5E4F09003D4F09003CEF0A3F0A37466
:10544800FFF075E1F102435FC082C0837800790004
:105458009003D5E0600478D2790388828983A3A376
:10546800A3A3E0F902435F74F6121753EAFEEBFFB9
:10547800EE2463F582EF3400F583E0F8A3E0F9E861
:10548800497003025514EE2463F8EF3400F97A00EA
:105498007B00A2AFE433F508C2AF88828983E0FCC1
:1054A800A3E0FDEC4D603A88828983E0FAA3E0FB33
:1054B8008A828B83E0FCA3E0FD88828983ECF0A3D9
:1054C800EDF08A828B83E4F0A3F088828983E0FC84
:1054D800A3E0FDEC4D700A88828983A3A3E4F0A3BE
:1054E800F0E508A2E092AF12123C9004E2E004F06A
:1054F8009004E3E004F0EE2463F582EF3400F583D2
:10550800E0F8A3E0F9E849600302548E8E828F83A5
:10551800A3A3A3E0600F8E828F83A3A3A3E4F090DC
:1055280003CFE014F09003CEE014F070069003D09F
:1055380074FFF08E828F83A3A3E4F09004E1E070FF
:105548000D9003CFE0640170057900120CF6EEFAB5
:10555800EFFB120C36024F9374F7121753EAFEEB67
:10556800FF8E828F83A3A3A3A3E0FA7B0012090C0A
:10557800EEFAEFFB120B88120C1E024C8DC082C093
:105588008378B5790388828983A3E4F08882898344
:10559800A3A882A983E864BD7003E9640370E69058
:1055A80003B6740102435E74F6121753EAFEEBFF6A
:1055B800EC2403F8ED3400F988088909EC2407F88D
:1055C800ED3400F9E8FCE9FD8C828D83E0F8A3E076
:1055D800F9850882850983E0FAA3E0FB121658EEE4
:1055E800240DF582EF3400F583E8F0A3E9F08C820E
:1055F8008D83E0F8A3E0F9850882850983E0FAA3A2
:10560800E0FB1216588B09EA45096013EE240DF5E4
:1056180082EF3400F583E02401F0A3E03400F002C7
:105628004F9374F6121753EAFEEBFFEE242EF58221
:10563800EF3400F583E0FCA3E0FD780079FAECFA9A
:10564800EDFB121658EE246FF582EF3400F583E86F
:10565800F0A3E9F0780079FAECFAEDFB1216588B12
:1056680009EA45096013EE246FF582EF3400F583EB
:10567800E02401F0A3E03400F0024F9374EC121719
:1056880053EAFEEBFF741412172F780812159B12B9
:105698000CBA8A0C8B0D8C0E8D0F751002751100CB
:1056A800751200751300780C79101215017510FF2A
:1056B8007511FF7512FF780C7910121562780C12AB
:1056C80019628E828F83E0F8A3E0F5838882A3A312
:1056D8001215B912237174041216F9E960030257FE
:1056E800E88E828F83E02402F8A3E03400F9E8FA18
:1056F800E9FB8A828B8378081215278A828B837547
:1057080008FF7509FF750AFF750B007808121588E0
:10571800EE240BF582EF3400F583C082C0838E82BD
:105728008F83A3A3A3A3A3E02401F8A3E03400F983
:10573800D083D082E0687003A3E069700579010224
:1057480057EA8E828F83A3A3A3A3A3A3A3E0240174
:10575800F0A3E03400F0EE2473F582EF3400F58313
:10576800E064017036EE2474F582EF3400F583E0CE
:10577800F8A3E0F98E828F83A3A3A3A3A3A3A3E036
:10578800687003A3E0697013EE2474F582EF3400A7
:10579800F583E02401F0A3E03400F0EE247FF582E5
:1057A800EF3400F583E064017036EE2480F582EF73
:1057B8003400F583E0F8A3E0F98E828F83A3A3A3D6
:1057C800A3A3A3A3E0687003A3E0697013EE248089
:1057D800F582EF3400F583E02401F0A3E03400F013
:1057E80079000244F774F6121753E9FEECFFEA2435
:1057F80062F582EB3400F583E06401600302589699
:105808009061D0E0F508EA2482F582EB3400F58354
:10581800E060047804800278007480C39508FC95E1
:10582800E0FDEF28F8E43400F9E82402F8E9340050
:10583800F9EC98ED99A2D265D033404E740A12174C
:105848002FE0F508A3E0F509EA2482F582EB34009D
:10585800F583E060157808121966EFFCEEF9120C72
:105868000674021216F974042FFF74012FF5D98EED
:10587800D9EF600F850882850983F8E0F5D9A31868
:10588800E870F875E195790080067907800279FF5C
:10589800024F9374F7121753A2AFE433FEC2AF8AD4
:1058A800828B83E0F8A3E0F9E8498A828B83600A57
:1058B800A3A3E0F8A3E0F5838882ECF0A3EDF08AD7
:1058C800828B83A3A3ECF0A3EDF08C828D83E4F0AC
:1058D800A3024C8574F7121753E96021F88C828D66
:1058E80083E08A828B83F08C828D83A3AC82AD8324
:1058F8008A828B83A3AA82AB8318E870E0ECFAED66
:10590800FB024C8D74F4121753907803E0644270D4
:1059180055900544E014F0704DC2AF125926007836
:105928002AD0E0F618D0E0F6E59F5407700575090F
:10593800FF800375097FC4C0E07829E6F50808E60A
:105948005509F509740B78081216C1D0E02508F836
:10595800906270E0A2E740F8E8C333906272F0907A
:105968006270E0D2E0F09003D0E0F47003025D06CC
:10597800E0F875F003A4C8AAF02AF974D228FE74D6
:105988000339FFEE2401F582EF3401F583E0F8A333
:10599800E0F9E849601EEE2401F582EF3401F58351
:1059A800E0FAA3E0FBEE2400F582EF3401F583E092
:1059B800F9120FC68E828F83A3A3A3A3A3A3A3E088
:1059C800F8A3E0F98E828F83A3A3A3A3A3E8F0A38F
:1059D800E9F0906054E09003A9F0906055E09003DE
:1059E800AAF0906056E09003ABF0906057E0900307
:1059F800ACF0906058E09003ADF0906059E09003EF
:105A0800AEF090605AE09003AFF090605BE09003D6
:105A1800B0F090605CE0FC9003B1F090605DE0FB5A
:105A28009003B2F090605EE0FD9003B3F090605F89
:105A3800E0FA9003B4F09003AFE08C082508F8E48E
:105A48003400F98D08E82508F8E93400F98B08E8EE
:105A58002508F8E93400F98A08E82508FAE9340045
:105A6800FBEE24F6F582EF3400F583E02AF0A3E09C
:105A78003BF08C08EE24F8F582EF3400F583E0253E
:105A880008F0A3E03400F0EE24FAF582EF3400F5D4
:105A980083E02401F0A3E03400F0EE24FEF582EF69
:105AA8003400F583E0F8A3E0F9E84960429060002B
:105AB800E0C333FCE433FDE82CF582E93DF583E0EF
:105AC8002AF0A3E03BF0906000E0FA9003B1E0FC1C
:105AD800EAC333FAE433FBE82AF8E93BF9E8244A55
:105AE800F582E93400F583E02CF0A3E03400F0906F
:105AF80003AFE070119003B2E0700BA3E07007A34E
:105B0800E07003025C038E828F83A3A3A3A3A3E0A8
:105B1800F8A3E0F9EE240DF582EF3400F583E028D0
