:020000040000FA
:060000000201070221DBF2
:03002B0002265357
:030033000226356D
:03003B0002267426
:030043000225E9AA
:0300530002224E38
:03006B0002260F5B
:10008300022047E5C754F84401F5C779012200006F
:100093000080FB120086B900030200F1E4792178A5
:1000A30008B800028004F709D8FCE479297802B87B
:1000B30000028004F709D8FCE4900281781B790CD4
:1000C3008002F0A3D8FCD9FA7A9B7B0D9001377894
:1000D300D279038015E493A3AD82AE838A828B83A6
:1000E300F0A3AA82AB838D828E83D8E9D9E7758288
:1000F300C27583AF740312011975829175830074FD
:100103000012011975D00075813F751881751902A8
:10011300759F00020096C09FF59FE473D09F22D085
:1001230083D082C09FE493C0E0740193C0E0740263
:1001330093F59F22FF0000B4000028002800283018
:1001430075A000A000A000A00000080008E001F0D6
:10015300001000100010001000100010005000509C
:1001630000500010001000D0070000000000000F36
:100173000001000500307507001000010081FF0039
:10018300000000FF060624060C06FF020202080216
:100193005000A0000000E80302BA84010000A58417
:1001A30002E684010000F20D02B084010000B302F4
:1001B30002E684010000F30D02AE84010000C902CF
:1001C30002E684010000F40D02B684010000CB02B4
:1001D30002E684010000F50D02D884080000CC0279
:1001E30002E684010000F60D02B884010000F70D59
:1001F300FF0100FF2002BA84010000AB8402E68401
:100203000100005B0E02C284000000000002B28401
:100213000300001903E80BE80BE80BE80BE80BE815
:100223000BE80BE80BE80BE80BE80BE80BE80B6AB1
:100233000E820E640EFFFF0202020202020202029B
:10024300010D000000100102BA84010000A2840223
:10025300E6840100009E0E02D6840100005D0702C1
:10026300E6840100009F0E02D484010000E28302B1
:10027300E684010000A00E02D2840100009E8302E6
:10028300E684010000A10E02D0840100000983026C
:10029300E684010000A20E02CE84010000F7820270
:1002A300E684010000A30E02CC84010000D3820285
:1002B300E684010000A40E02C884010000E5820266
:1002C300E684010000A50E02C684010000BA830281
:1002D300E684010000A60E02C484010000A70E01FB
:1002E300E803053F100AFF00013075030201060011
:1002F30000000000000000000000000000000000FB
:100303000000000000000000000000FFFF06008066
:100313000CE803080964422E446576730512500005
:100323002003020A0002010611060000000000007B
:10033300010001000100DBFF10F564422E446576E5
:100343007300000000000000000000000000002017
:100353001300002613023078444230310002307813
:100363004442303200083078444230330010307851
:100373004442303400083078444230350002BA84B5
:10038300010000A88402E684010000BC0F02DC84A3
:10039300010000670D02B484010000BD0F02E68472
:1003A300010000C40F02DE840100007B0D02B4844F
:1003B300010000C50F02E684010000CC0F02E084B7
:1003C3000200007C0D02B484010000CD0F02E6841C
:1003D300010000D40F02E284000000900D02B284F9
:1003E300030000910D02B484010000D50F02E684DE
:1003F300010000DC0F02E484020000970D02B484C4
:10040300010000DD0F120122BC9F03120122D39FC2
:100413000312012204A0031201223FA003120122AE
:1004230069A00312012293A003120122AAA00312BE
:100433000122C1A003120122D8A00312012201A1AB
:100443000312012214A1031201222AA10312012281
:100453003DA10312012264A103120122EAB2021296
:100463000122EEB30212012226B40212012249B480
:100473000212012254B40212012277B402120122A1
:1004830086B5021201225BB602120122D6B602120F
:1004930001225EB70212012299B702120122D0B7DC
:1004A300021201225EB80212012237B9021201229E
:1004B30097B902120122A2B90212012221BA021231
:1004C300012224BA0212012227BA02120122B6BA69
:1004D30002120122B9BA02120122E9BA021201225E
:1004E30013BB0212012201BC02120122B3BC02128D
:1004F300012268EB0212012290EB02120122BEEBF1
:1005030002120122F5EB0212012253EC0212012224
:100513009EEC02120122E9EC0212012229ED0212E1
:1005230001226FED021201229DED021201225AEE09
:100533000212012264EE0212012271EE0212012262
:10054300A4EE0212012270EF021201227CEF0212CA
:10055300012294EF021201229EEF0212012219AB33
:100563000312012227AB031201223FAB0312012224
:1005730057AB031201220FBD01120122BBBD0112B1
:10058300012236BE0112012257BF0112012293BF7D
:10059300011201223CC00112012223C101120122D6
:1005A30087C201120122DEC2011201225FC30112BE
:1005B30001224FC4011201229CC40112012222C54F
:1005C3000112012254C50112012268C7011201223E
:1005D300AAC701120122C8C7011201224BC8011286
:1005E30001221FC901120122E7C9011201227DD490
:1005F3000212012250D502120122F9D50212012260
:100603004CD602120122FCD60212012288D7021212
:10061300012274D802120122A3D802120122B6D9F0
:1006230002120122FED902120122D3DA021201229E
:100633000FDB021201222BDB0212012270AE031226
:1006430001228F8703120122A58703120122CB8780
:1006530003120122E78803120122F1880312012207
:10066300268A031201221E8B0312012241E6021283
:10067300012271E702120122A4E702120122EEE72E
:1006830002120122B5E90212012220AD0112012258
:100693008AAD01120122E9AE01120122F9AE011263
:1006A300012226AF011201227DAF0112012226B0E1
:1006B300011201222DB101120122F7B1011201220F
:1006C30057B3011201229AB3011201223FB401125E
:1006D30001228CB401120122B2B401120122C0B66C
:1006E30001120122C5B601120122CAB80112012268
:1006F30017B9011201228AB901120122BDB90112EF
:1007030001225FBA0112012208BB0112012240BB80
:100713000112012243BB011201228BBB01120122F0
:10072300CBBB0112012222BC011201227F980312CA
:100733000122979803120122DF9803120122F598F0
:10074300031201223C9903120122509A031201223F
:10075300DD9A03120122289B03120122E8260012CC
:100763000122F426001201222F27001201227427EE
:1007730000120122342800120122BA280012012299
:10078300E628001201221F29001201225D2B00120C
:100793000122412D00120122272F001201226A306B
:1007A30000120122B83200120122CA3300120122C0
:1007B300153500120122253600120122423600129D
:1007C30001227D36001201229F36001201220237D8
:1007D30000120122C33B00120122583C00120122E5
:1007E300A93C00120122D03C00120122223D00123A
:1007F3000122403D001201229A3D00120122993E3E
:10080300001201221D3F001201220EE102120122F9
:1008130018E1021201225BE10212012276E10212C7
:10082300012206E2021201222EE2021201226BE2EF
:1008330002120122A2E202120122CBE202120122DF
:1008430040E30212012255E3021201226AE302127B
:1008530001229BE302120122AFE302120122D4E33D
:10086300021201220EE4021201223AE402120122D0
:1008730072E402120122D1E40212012250E50212B3
:1008830001227BE502120122C4E502120122EEE5F8
:100893000212012219E60212012227A903120122E0
:1008A300E99A02120122179B02120122659C02128D
:1008B3000122459D02120122649D02120122E19D43
:1008C30002120122249E021201227A9F02120122A5
:1008D3003BA002120122C2A20212012263A302124E
:1008E300012259A40212012256A502120122B0A626
:1008F300021201223BA702120122CCA703120122FA
:1009030035A80312012289A803120122B0A80312F9
:100913000122E1A80312012225F00212012292F022
:1009230002120122D9F002120122F1F10212012274
:10093300EDF202120122D0F30212012280F601121B
:100943000122C2F60112012294F7011201226DF86D
:100953000112012267F90112012249FA011201224F
:10096300B2FA0112012268FB01120122DCFB01121F
:10097300012248FC0112012271FC01120122EBFC4D
:100983000112012284FD01120122E9FD011201225B
:10099300FEFD0112012244FE011201225DFE01123D
:1009A3000122C2FE01120122C5FE01120122F0FC46
:1009B3000212012218FD0212012256FD0212012227
:1009C30014FE021201227BFE0212012297FE021282
:1009D3000122BFFE02120122EFFE02120122FEFEDD
:1009E300021201227BFF02120122A1FF0212012245
:1009F300926C00120122706E00120122A27000128A
:100A03000122DE70001201220B7100120122F57126
:100A1300001201224072001201228B720012012285
:100A23009D7200120122DD72001201221273001264
:100A330001226073001201228F7300120122B2732C
:100A430000120122FF73001201228474001201229A
:100A53009E7600120122DD78001201221E79001217
:100A63000122C07A00120122017B00120122747B51
:100A730000120122C57B00120122A07C0012012278
:100A8300CA7C00120122D48D02120122D28E0212DC
:100A930001226B95021201228C97021201225799AF
:100AA30002120122BF9A02120122843F0012012284
:100AB300334000120122794000120122AF4100129B
:100AC3000122DD4100120122734300120122ED4392
:100AD3000012012208440012012283440012012261
:100AE300DD45001201223D47001201224348001256
:100AF3000122A44900120122BD49001201221B4A0E
:100B030000120122094B001201223C4B0012012268
:100B1300AC4B00120122264C00120122704C001231
:100B230001223A4D001201220F4E00120122EE4E15
:100B330000120122794F00120122E74F0012012215
:100B43005B5000120122865000120122455100120F
:100B53000122AA5200120122C75200120122E652B8
:100B630000120122D75300120122FC53001201226A
:100B7300265400120122A15400120122FB54001238
:100B83000122645600120122125700120122535708
:100B9300001201220080021201224E800212012261
:100BA3005A80021201223881021201226981021243
:100BB30001229A81021201221A8202120122528216
:100BC30002120122A48202120122E18202120122F4
:100BD300FE84021201222487021201220F890212CB
:100BE3000122F98A02120122DD26001201220D9947
:100BF300011201223D990112012216A001120122C4
:100C03009BA10112012298A70112012280A80112BF
:100C13000122BDA801120122E0A80112012211A99B
:100C2300011201221AA90112012224A9011201228F
:100C330012AA0112012208AB0112012283570012EA
:100C43000122825B00120122885B00120122C3622F
:100C530000120122DC6700120122279203120122F3
:100C6300219303120122959303120122D3930312BA
:100C73000122479403120122C09403120122C99452
:100C830003120122D59403120122EA9403120122D2
:100C93002895031201223E950312012292F40212B7
:100CA30001229FF402120122B9F402120122F8F484
:100CB3000212012236F5021201229BF502120122D1
:100CC300B0F502120122BBF502120122C8F502128D
:100CD3000122DFF502120122EDF502120122F8F5DD
:100CE3000212012204F60212012213F60212012259
:100CF3001EF60212012241F602120122E8F6021246
:100D03000122F8F60212012212F7021201222FF732
:100D1300021201224BF70212012270F70212012282
:100D23007BF70212012290F702120122A4F70212AA
:100D3300012205F8021201220BF80212012211F816
:100D43000212012217F8021201222FF802120122C5
:100D530062F80212012271DA01120122F5DA01129C
:100D63000122A4DB0112012203DD0112012224DF8F
:100D73000112012210E00112012245E001120122B9
:100D830067E00112012216E1011201220EE30112B2
:100D9300012237E301120122C9E301120122FBE31D
:100DA3000112012208E4011201225FE4011201226F
:100DB30085E401120122F2E601120122F5E7011294
:100DC30001224DE80112012200CC011201220ACDB9
:100DD30001120122F1CD01120122FBCD01120122E8
:100DE3001DCE0112012229CE01120122C2CF01120E
:100DF3000122F1CF011201220DD10112012266D18C
:100E030001120122CCD201120122ABD30112012221
:100E130007D40112012274D401120122AFD40112AA
:100E23000122EED401120122A7D701120122C1D758
:100E3300011201224DD8011201225BD801120122B5
:100E4300B4D801120122C2D80112012235D90112EC
:100E5300012299D901120122E3D901120122BCA76F
:100E630002120122DEA70212012204AA02120122A7
:100E730019AD0212012231AE02120122E4AE0212B6
:100E83000122C6AF0212012228A3031201224DA39D
:100E930003120122BFA30312012203CD0212012276
:100EA3000CCD0212012215CD02120122ECCD021249
:100EB30001229DCF02120122D3CF021201220DD0B3
:100EC3000212012243D0021201227DD0021201221A
:100ED300B1D002120122DDD00212012226D1021268
:100EE300012260D102120122A9D10212012201D2F0
:100EF3000212012236D20212012291D202120122DF
:100F0300CBD2021201221CD30212012252D30212AB
:100F130001228CD302120122BAD302120122DDD3A1
:100F230002120122A6AC03120122D2AC0312012247
:100F33002DAD0312012237AD0312012247AD031277
:100F43000122A0DB02120122AADB02120122E8DB4A
:100F53000212012231DC021201226BDC0212012295
:100F6300C5DC02120122E6DC02120122EFDC0212CE
:100F7300012240DD0212012269DD0212012273DD2A
:100F830002120122DFDD021201226DDE02120122B2
:100F9300BBDE02120122F1DE0212012278DF02120D
:100FA3000122B8DF02120122F0DF0212012202E065
:100FB3000212012221E0021201222AE0021201227E
:100FC300E4E002120122288B031201221D8C03127A
:100FD3000122378C03120122488C031201227D8ED9
:100FE30003120122BD9D03120122F39D031201226C
:100FF300299E03120122829F03120122F4AE0312DF
:1010030001220AAF0312012214AF031201225EAFC1
:1010130003120122DFF802120122F8F80212012260
:101023009CF902120122DCF902120122F5F90212E3
:10103300012229FA0212012276FA02120122AAFAE5
:1010430002120122ECFA0212012240AA0312012227
:1010530069AA0312012292AA03120122D4AA03123B
:1010630001226E9503120122939503120122BF956B
:10107300031201225EB003120122EA84011201224B
:101083004E8701120122008901120122F289011205
:101093000122778A01120122F58A01120122228B91
:1010A30001120122468E01120122C08E0112012279
:1010B300AF8F01120122E98F01120122299001123F
:1010C3000122E391011201223692011201227F9241
:1010D30001120122ED92011201221F93011201223A
:1010E3003793011201224C94011201225C940112E4
:1010F30001228C9501120122AE9501120122E49581
:1011030001120122899701120122C89701120122BB
:10111300E89801120122F0AB0312012201AC031281
:10112300012215B00312012254B003120122EDFF74
:101133000112012251AD0312012261AD03120122FA
:1011430079AD03120122DFAD03120122E9FE011280
:1011530001226EFF01120122D4FF0112012254A6C3
:10116300031201227DA603120122E8A60312012223
:1011730039A70312012292A703120122008003124E
:101183000122378003120122A78003120122BC80AF
:1011930003120122058203120122CB8203120122D0
:1011A300EA820312012211830312012246830312EE
:1011B30001225E8303120122AF8303120122E9FF9E
:1011C30002120122B88E03120122488F0312012258
:1011D300C68F031201224F9003120122E4900312DF
:1011E30001226E9103120122789103120122879149
:1011F300031201229D9103120122B09103120122D5
:10120300109203120122249203120122E9AD031268
:10121300012253AE0312012265AE03120122CDA4B3
:101223000312012222A50312012290A50312012217
:1012330000A603120122529B031201227C9B03127C
:101243000122519C03120122459D0312012224BD58
:1012530002120122E1BD021201221CBE021201226E
:1012630044BE02120122A6BE02120122F2BE0212E3
:1012730001224BBF02120122DCBF02120122DEC097
:10128300021201229BC2021201221DC30212012279
:1012930082C30212012299C302120122A9C40212BB
:1012A3000122E7C4021201229BE80112012225EC6C
:1012B30001120122ADED0112012204EE01120122FD
:1012C30023EE01120122A1EE011201223FF00112CD
:1012D300012223F1011201220DF501120122DDF594
:1012E30001120122F57C00120122247D0012012249
:1012F3003A7D00120122827D00120122C47D001278
:1013030001222F7E00120122017F00120122797F28
:101313000012012254C502120122ADC7021201229A
:1013230073C80212012220CA021201227DCA0212CC
:101333000122EFCA0212012237CB021201224ECB45
:1013430002120122D2CB021201223BCC0212012251
:10135300E483031201222984031201224684031227
:101363000122CF84031201223585031201220B8649
:101373000312012256870312012276A103120122CE
:101383009AA10312012268A203120122E0A203120E
:101393000122A5B003120122D1B003E06670100848
:1013A300A3E066700A08A3E066700408A3E066225F
:1013B300C3E7960809E7960809E7960809E796221E
:1013C300C3E09608A3E09608A3E09608A3E096225C
:1013D300C008C3E096F50808A3E096420808A3E016
:1013E30096420808A3E09645087001D3D008220866
:1013F3000808EAC0E0EBC0E086F0E7A4FA18098623
:10140300F0E7A42AFA180986F0E7A42AFA1809864D
:10141300F0E7A42AFA1986F0E7A4FBE5F02AFA1903
:101423000886F0E7A42BFBE5F03AFA190886F0E703
:10143300A42BFBE5F03AFA18180986F0E7A4C5F0E7
:101443002BFBE43AFA1908E7C5F0C6A426F6E5F043
:101453003BFBE43AFA1886F0E7A4F6E5F00826F633
:10146300E43B08F6E43A08F6D0E0FBD0E0FA22E4E5
:10147300CFC0E0E4CEC0E0E4CDC0E0E4CCC0E07592
:10148300F020E626F608E633F608E633F608E633F8
:10149300F6181818EC33FCED33FDEE33FEEF33FF93
:1014A300C3EC9709ED9709EE9709EF9719191940BE
:1014B3000FFFEC97FC09ED97FD09EE97FE1919064E
:1014C300D5F0BFECF709EDF709EEF709EFF71919B6
:1014D30019D0E0FCD0E0FDD0E0FED0E0FF226016A2
:1014E300080808C6C313C618C613C618C613C618F9
:1014F300C613C6D5E0EA2270090808082260161848
:101503001818C6C333C608C633C608C633C608C6CA
:1015130033C6D5E0EA22E627F60809E637F60809D6
:10152300E637F60809E637F622E026F608A3E036A2
:10153300F608A3E036F608A3E036F622E026F00824
:10154300A3E036F008A3E036F008A3E036F022C3A8
:10155300E697F60809E697F60809E697F60809E616
:1015630097F622C3E096F008A3E096F008A3E0966E
:10157300F008A3E096F022E657F60809E657F608C6
:1015830009E657F60809E657F622E056F608A3E0FF
:1015930056F608A3E056F608A3E056F622E056F006
:1015A30008A3E056F008A3E056F008A3E056F022A3
:1015B300E0F608A3E0F608A3E0F608A3E0F622E6C7
:1015C300F008A3E6F008A3E6F008A3E6F022E0FAA9
:1015D300A3E0FBA3E0FCA3E0FD22EAF0A3EBF0A36E
:1015E300ECF0A3EDF022E0F8A3E0F9A3E0FAA3E026
:1015F300FB22E8F0A3E9F0A3EAF0A3EBF022CAC0D0
:10160300E0E6F0A308DAFAD0E0FA22CAC0E0E0A3E9
:10161300C582CCC582C583CDC583F0A3C582CCC5A5
:1016230082C583CDC583DAE6D0E0CA22C3E498F845
:10163300E499F91216708026C3E49AFAE49BFBE955
:1016430020E7E9121670E498F8E499F922C3E498C4
:10165300F8E499F9121670E498F8E499F9C3E49A56
:10166300FAE49BFB22EB20E7CFE920E7E0B9001087
:10167300BB0008E88AF084F8AAF022E4FBC8FA2247
:10168300EB70227B10C833C8C933C9335007C39AE0
:10169300C3DBF280069A50012ADBEAC833F4C8C9D7
:1016A30033F4C9FA2275F008E4C833C8C933C9331F
:1016B300C99AC99B5004C92AC93BD5F0ECFBC8336E
:1016C300F4C8E4C9FA22600D08C6A2E713C618C617
:1016D30013C6D5E0F322600C08C6C313C618C6139D
:1016E300C6D5E0F422700422600D18C6C333C608C1
:1016F300C633C6D5E0F41822251810AF08F51840F4
:101703000C15198008F51840021519D2AF2200C034
:10171300D0251810AF08F518500C05198008F518D6
:1017230050020519D2AFD0D0222518F58210AF0888
:10173300F518400C15198008F51840021519D2AF99
:10174300851983222518F582E43519F58322251896
:10175300F8E43519F9222518FAE43519FB2225187E
:10176300FCE43519FD22E4732518C582C0E0E519B0
:1017730034FFC583C0E0E518C3958224F810AF0891
:101783008583198582188008858319858218D2AFCD
:10179300CEF0A3E520F0A37808E608F0A3DEFAEF85
:1017A300F0A3E58124FAF8E608F0A3E608F0A3E63F
:1017B30008F0A30808E608F0A3E608F0A3158115CE
:1017C30081D0E0FED0E0F8158115811581E8C0E0F5
:1017D300EEC0E0222518C582C0E0E51934FFC583B9
:1017E300C0E0E518C3958224F910AF0885831985F5
:1017F30082188008858319858218D2AFCEF0A3E5BD
:1018030020F0A37808E608F0A3DEFAEFF0A3E58161
:1018130024FBF8E608F0A3E608F0A30808E608F0BE
:10182300A3E608F0A315811581D0E0FED0E0F815FA
:10183300811581E8C0E0EEC0E02285198385188216
:10184300E0A3FEE0A3F5207808E0A3F608DFFAE0C2
:10185300A3FFE0A3C0E0E0A3C0E0E0A3C0E0E0A3F7
:10186300C0E0E0A3C0E010AF08858218858319802B
:1018730008858218858319D2AFD083D08202011FD5
:10188300851983851882E0A3FEE0A3F5207808E09C
:10189300A3F608DFFAE0A3FFE0A3C0E0E0A3C0E003
:1018A300E0A3C0E0E0A3C0E010AF08858218858301
:1018B300198008858218858319D2AFD083D08222FC
:1018C300C0D02518C582C0E0E51934FFC583C0E048
:1018D300E518C3958224F310AF0885831985821810
:1018E3008008858319858218D2AFC8F0A3E9F0A3D5
:1018F300EAF0A3EBF0A37908E709F0A3D8FAECF038
:10190300A3EDF0A3EEF0A3EFF0A3D0E0F0A3D0E0BB
:10191300F0A3D0E0F0A3E520F0A3E5F0F0A3228547
:101923001983851882E0C0E0A3E0F9A3E0FAA3E0FD
:10193300FBA37808E0F608A3DFFAE0FCA3E0FDA32D
:10194300E0FEA3E0FFA3E0C0E0A3E0C0E0A3E0F576
:10195300D0A3E0F520A3E0A3F5F010AF0885831929
:101963008582188008858319858218D2AFD082D0EA
:1019730083D0E0F8D0E032740480067402800274ED
:1019830001C0E0F40412172CD0E0121601227404F3
:10199300800474028000CCC0E0EDC0E0E518C39C75
:1019A300CCAD1950011D10AF068C188D1980068C13
:1019B300188D19D2AF12160ED0E0FDD0E0FC22D064
:1019C30083D082E9C0E0E493A3C386F0C5F095F029
:1019D300F908E493A386F0C5F095F0700BE493A3A4
:1019E300C3994005E9048002A3E475F002A42582AB
:1019F300F582E5F03583F583D0E0F9E493A3C0E005
:101A0300E493C0E022D083D082ECC0E0EDC0E0E4F8
:101A130093A3FCE493A3FDED4C600D121A54EC2444
:101A2300FFFCED34FFFD80EFE493A3FCE493A3FDFF
:101A3300ED4C600D121A93EC24FFFCED34FFFD8096
:101A4300EFD0E0FDD0E0FCE493A3C0E0E493C0E07A
:101A530022C0E0C3E49396087401939618400FE400
:101A63009366700808740193661870007019A3A335
:101A7300C3E49396087401939618A3A3400DD0E092
:101A8300D0E0D0E0021A44A3A3A3A3A3A3D0E022EF
:101A9300C0E0C0F088F0E4936670080874019366B0
:101AA300187000A8F0A3A3700BD0F0D0E0D0E0D062
:0B1AB300E0021A44A3A3D0F0D0E02210
:101AC00074F51217D7EAFEEBFFEE2434F8EF34007A
:101AD000F988088909EE2435F582EF3400F583E0B2
:101AE000F8EE2437F582EF3400F583E0F50AEC8553
:101AF0000AF0A4FCAAF0850AF0EDA42AFDE82CF86F
:101B0000E43DF97A257B00121670EA850882850982
:101B100083F0F8740758F97401B900028004C333E4
:101B2000D9FCFAE8131313541FF8EE28F8EF340029
:101B3000F9E8245DF582E93400F583E05A6008EEA7
:101B40002434F582EF802CEE2434F582EF3400F556
:101B500083E0C0E0EE2436F582EF3400F583E0F553
:101B6000F0D0E084A8F0EE28F8EF3400F9E824384B
:101B7000F582E93400F583E0F97F0402188374F5F7
:101B80001217D7EAFEEBFFEE2434F582EF3400F5AE
:101B900083E0C0E0EE2435F582EF3400F583D0E039
:101BA000F08E828F83A3A3A3A3A3A3A3C082C08329
:101BB0008E828F83A3A3A3A3A3E0F8A3E0F9D0832D
:101BC000D082E0C398F508A3E099F509EE247FF5EB
:101BD00082EF3400F583E064017069EE2480F582C1
:101BE000EF3400F583E0F8A3E0F98E828F83A3A39E
:101BF000A3A3A3A3A3E0FCA3E0FD8E828F83A3A3F2
:101C0000A3A3A3E0FAA3E0FBC3EA9CEB9D5010C39F
:101C1000EC98ED99402EC3EA98EB995027800EC3BB
:101C2000EA98EB994007C3EC98ED9940177CDC7D6E
:101C300004EEFAEFFB120B46EE247FF582EF340040
:101C4000F583E4F0EE2434F8EF3400F9E8FCE9FD24
:101C5000EE2435F582EF3400F583E0F8EE2437F515
:101C600082EF3400F583E0F50AE508850AF0A4F573
:101C700008AAF0850AF0E509A42AF509E82508F87C
:101C8000E43509F97A257B00121670EA8C828D837F
:101C9000F0F8740758F97401B900028004C333D90D
:101CA000FCFAE8131313541FF8EE28F8EF3400F988
:101CB000E8245DF582E93400F583E05A6008EE24FB
:101CC00034F582EF802CEE2434F582EF3400F58376
:101CD000E0C0E0EE2436F582EF3400F583E0F5F065
:101CE000D0E084A8F0EE28F8EF3400F9E82438F5C5
:101CF00082E93400F583E0F91225D5021B79C08210
:101D0000C083851882851983E0F8A3E0F9C3EA9CB3
:101D1000EB9D5010C3EC98ED99401BC3EA98EB99EA
:101D20005014800EC3EA98EB994007C3EC98ED99E4
:101D30004004790180027900D083D08222EAC39CDA
:101D4000FAEB9DFB2274EF1217D79003A2E0640810
:101D50006005E06407702A9061C8E060249003D0B9
:101D6000E0F4601DE0F875F003A4C8AAF02AF97445
:101D7000D228FE740339FF8E828F83A3A3A3E07061
:101D800003021E75906060E0C0E0EE2468F582EF0B
:101D90003400F583D0E0F0750C45750D057508002D
:101DA000750900E5D914F50AE5D95403F50E601755
:101DB0007403650E605CE50A6010EE2467F582EF3F
:101DC0003400F583E07003021E5A900540E0640180
:101DD000602AEE2482F582EF3400F583E060047817
:101DE0000480027800850A08E508C398FA95E0FBAC
:101DF000120A028A088B09EA45097005120D38801B
:101E000074EE2482F582EF3400F583E070048A0CCE
:101E10008B0DE50A6012850C82850D83F50BE5D9E3
:101E2000F0A3150BE50B70F6EE2482F582EF34007B
:101E3000F583E0604474FC250AF50A780C12197EDB
:101E4000AC0AA90EEEFAEFFB120BE27402121711A4
:101E5000E97026AA08AB09121224793D8E828F837D
:101E6000A3A3A3A3E0FA7B001208D6EEFAEFFB12BD
:101E70000B5E120BF4790080747403650E60568556
:101E80000A10751100781012197EAC0CAD0DAA085D
:101E9000AB09120BBE7402121711EE2468F582EF23
:101EA0003400F583E064807004747F8001E0F50CF9
:101EB000780C121982E50EF50C780C121982A90A19
:101EC000AC08AD099003D0E0FA7B0012089A7402C6
:101ED00012171180139003A2E06408600BAC0CADE4
:101EE0000DEEFAEFFB120C4E120D4479017F0A023F
:101EF000188374F51217D774FC1216FBEAFEEBFF79
:101F00008908A2AFE433F509C2AF806AEE2463F812
:101F1000EF3400F97A007B00A2AFE433F50AC2AFD8
:101F200088828983E0FCA3E0FDEC4D603A888289D9
:101F300083E0FAA3E0FB8A828B83E0FCA3E0FD88C8
:101F4000828983ECF0A3EDF08A828B83E4F0A3F026
:101F500088828983E0FCA3E0FDEC4D700A888289C9
:101F600083A3A3E4F0A3F0E50AA2E092AF12122447
:101F70009004E3E004F0EE2463F582EF3400F5838F
:101F8000E0F8A3E0F9E849603DEE2463F582EF3420
:101F900000F583E02402FAA3E03400FBEA2402F512
:101FA0000AEB3400F50B780A12197E8A828B83E0E3
:101FB000FCA3E0F9EEFAEFFB120B82740212171188
:101FC000E97003021F0C9004E3E060639004E4E016
:101FD000F89004E3E0C398500C74026508705090C8
:101FE00004E5E0604A8E828F83A3A3A3A3E0851853
:101FF00082851983F0A3E4F09004E3E0F874021200
:102000001747E8F0A3E4F09004E3E0F89004E2E07E
:1020100028F07402121747AC82AD838518828519A7
:1020200083AA82AB8379011208A69004E3E4F0E569
:1020300009A2E092AF7404121711021B790000008C
:102040008521878522C622C0E0C0D0E8C0E0E9C073
:10205000E0EAC0E0EBC0E0ECC0E0EDC0E0EEC0E0E4
:10206000C008C009C00AC00BC082C083C0F0A2AFC4
:10207000E433FEC2AF759B00906182E0A2E0501293
:10208000E591A2E0500C7591FE7401652170031278
:102090001D45E0A2E55051E591A2E5504B7591DF59
:1020A0009003A2E064076005E06408702374016592
:1020B00021703579019003D0E0FA75F003A4CAA825
:1020C000F028FB74D22AFA74033BFB121EF280182C
:1020D000E0640D70139003C4E004F064287002E41F
:1020E000F07A00E0F9120D4A906182E0A2E6400326
:1020F00002218EE591A2E6400302218E7591BF90E8
:1021000003A2E064057008120C78120C848003129C
:102110000C7E752100120CD8E99003A3F07900120F
:102120000CCC120AB67A017B009003A1E0F9120FE1
:102130009C907803E064427055900544E014F07080
:102140004DC2AF12214600782AD0E0F618D0E0F652
:10215000E59F540770057509FF800375097FC4C0AA
:10216000E07829E6F50808E65509F509740B7808C2
:102170001216D9D0E02508F8906270E0A2E740F886
:10218000E8C333906272F0906270E0D2E0F0906148
:1021900081E0A2E35009E5E9A2E3500375E9F7A362
:1021A000E0A2E75009E591A2E7500375917FEEA206
:1021B000E092AFD0F0D083D082D00BD00AD009D03B
:1021C00008D0E0FED0E0FDD0E0FCD0E0FBD0E0FAAB
:1021D000D0E0F9D0E0F8D0D0D0E032C0E0C0D0C03C
:1021E00082C083906183E0A2E05009E5BFA2E05085
:1021F0000375BFFEE0A2E15009E5BFA2E1500375FF
:10220000BFFDE0A2E25009E5BFA2E2500375BFFBAB
:10221000E0A2E35009E5BFA2E3500375BFF7E0A2D7
:10222000E45009E5BFA2E4500375BFEFE0A2E5501A
:1022300009E5BFA2E5500375BFDFE0A2E65009E55E
:10224000BFA2E6500375BFBFD083D0828088C0E0B4
:10225000C0D0E8C0E0E9C0E0EAC0E0EBC0E0ECC01C
:10226000E0EDC0E0C0F0E5A7A2E6500FE5A1A2E6D0
:10227000500953A7BF75A1BF1222B3E5A7A2E5502D
:102280000CE5A1A2E5500653A7DF75A1DFE5A7A2E3
:10229000E15009E5A1A2E1500375A1FDE5A7A2E285
:1022A000500CE5A1A2E2500653A7FB75A1FBD0F0AC
:1022B0000221C474F81217D77521019003A2E064BB
:1022C000067015120C128A828B83A3A3A3A3A3A367
:1022D000E0FAA3E0FB120C66A2AFE433FED2AF90AB
:1022E00003A8E0640170187A207B009003A1E0F954
:1022F0001210387A207B009003A1E0F9120FA2900F
:102300006182E0D2E6F0900541E0602185C622803E
:10231000169003A7E064017008E5C654F84405F57B
:10232000C653BEFC1220407401652160E4EEA2E0B9
:1023300092AF7F01021883008E238F248582288527
:102340008327851882851983E0CEA3E0CF85288274
:10235000852783EBC9EAC8EDCBECCA75F010C3E85A
:1023600033C8E933C9EA33CAEB33CBC3EA9EF52657
:10237000EB9FF525B35004AB25AA26EC33CCED3307
:10238000CDD5F0DAAE23AF242274ED1217D78A0828
:102390008B098C0A8D0B7413121747780C1215B326
:1023A0007808790C1213B37510017511C8751200F5
:1023B00075130050127808790C12155278107908AC
:1023C0001213B350168010780C7908121552781039
:1023D000790C1213B340047901800279007F0C025A
:1023E000188374ED1217D78A088B098C0A8D0B7429
:1023F00013121747780C1215B3780C79081213B31F
:1024000040117808790C121552AA08AB09AC0AAD34
:102410000B8022751000751100751200751301787C
:1024200010790C12155278107908121519AA10ABF0
:1024300011AC12AD1380A68A828B837508FF7509D3
:10244000FF750AFF750B0078081215A07F040218AB
:102450008374F51217D78C828D8378081215B38A8E
:10246000828B837808121566EA2404F8EB3400F9AD
:102470008C828D83A3A3A3A3E0FCA3E0FD888289C3
:1024800083C3E09CF0A3E09DF088828983C3E0943D
:1024900020A3E0944E40268A828B837508FF75093D
:1024A000FF750AFF750BFF780812153F8A828B8330
:1024B000A3A3A3A3E02420F0A3E0344EF00224372A
:1024C00074F51217D7E9FE9004F7E0FAA3E0FBEEEB
:1024D000C333F8E433F9745F28F582748339F583E4
:1024E000E02AF508A3E03BF509780812197E7A4046
:1024F0007B427C0F7D0012233874021217118A0868
:102500008B098C0A8D0B741078081214E1AA08ABA1
:10251000097F0402188374F11217D78A0C8B0D8C73
:102520000E8D0F740F121747E0FAA3E0FB7411121F
:102530001747E0F508A3E0F509780812197EEA24A8
:1025400001F508EB3400F509E4F50AF50B780C7990
:10255000081213F2750871750902780C79081213C4
:10256000F2AA0CAB0DAC0EAD0F1223387402121789
:10257000118B09EA450960047A0180027A00EC2A8D
:10258000FCED3400FD7413121747E0F8A3E0F9E8FE
:10259000FEE9FFECF8EDF97A717B021216708808FB
:1025A00089098E828F8378081215C2ECF8EDF97ACA
:1025B000717B021216708A088B097405780812164E
:1025C000E88E828F83A3A3A3A3E508F0A3E509F017
:1025D0007F08021883C082C083E9906000F0D08336
:1025E000D08222C2AF02000022C0E074F21218C3EF
:1025F000A2AFE433FED2AFC2C0E5D1A2E45006538D
:10260000D1EF121206EEA2E092AF7F01021922C0B2
:10261000E074F21218C3A2AFE433FED2AFE589A290
:10262000E15003121176758900C2C5EEA2E092AFA7
:102630007F01021922C0E074F21218C3A2AFE43382
:10264000FED2AFE58BA2E05003121176758B00C26B
:10265000E880D8C0E0C0D0E8C0E0E9C0E0E5A8D29A
:10266000AFC2C7A2E7A2E792AFD0E0F9D0E0F8D0BE
:10267000D0D0E032C0E0C0D0E8C0E0E9C0E0C0089F
:10268000C009C082C083A2AFE433F9D2AF9009D3AE
:10269000E0F8A3E0687008539AFBA374018025C298
:1026A000E99009D3E0F50874012508F07453250872
:1026B000F582E43409F583E0F5C19009D3E0C394D1
:1026C000804002E4F0E9A2E092AFD083D082D0094A
:1026D000D008D0E0F9D0E0F8D0D0D0E03202011F2D
:1026E000FFFFFFFFFFFFFFFFC082C083E9900E5A8C
:1026F000F002291274F712176BE99002E1F07C19CD
:102700007D037AFF7BFF1207E69002E274FFF0A3DD
:10271000F0A3E4F0A3F079051207749002E1E0F968
:102720001206967AFE7B071209B47F0102183D74E7
:10273000F412176B8A088B09EB548060309002E129
:10274000E0F9120F848A0A8B0BAE0AAF0BEE4F60D2
:10275000138E828F83E064B07003120786EEFAEF67
:10276000FB120F72AA08E5096480FB80047A007BE3
:10277000000228E174F212176B74FC1216FBEAFED9
:10278000EBFFEE4F60387402121747EEF0A3EF1222
:102790002B46ECF0A3ED122B46AA82AB83120690D7
:1027A000E9F508707374121217471236FAE50A45F4
:1027B0000B60658E828F83122822EE4F700575089C
:1027C0000280557A067B00120FF08A0C8B0DA80C44
:1027D000A90DE8497005750813803D88828983E456
:1027E00012282CA3A3EEF0A3EF123B93E50AF0A36B
:1027F000E50BF09002E71228B49002E76017E0FCC6
:10280000A3E08003EAFCEBFD8C828D831228B47078
:10281000F38C828D8312361FA908740412171102DB
:102820003D95A3A3A3A3E0FEA3E0FF22F0A3F088BD
:102830008289832274F212176B890AE975F017A452
:10284000FEAFF09002E6E4F09002E41228B4600AD1
:10285000120FF69002E4E4F0A3F0EEFAEFFB120F91
:10286000F08A088B09EA4509602FEEFCEFFD79003C
:10287000120F609002E4E508F0A3E509F07B008008
:102880000812289EE4F0A3F00BEBC3950A40F2E592
:102890000A9002E6F0790080027913023D95EB750B
:1028A000F017A4F8A9F09002E4E028FAA3E0398A2E
:1028B00082F583221233B5EA4B2274F412176B7936
:1028C00000EAA2E0501B75084E75098478081219B9
:1028D0007E7C047D007A5C7B0E12076E74021217F8
:1028E000117F0402183DC082C0839002E7122919AB
:1028F000601C88828983A3A3E06A7003A3E06B88CD
:1029000082898370E8A3A3A3A31233B180047A0061
:102910007B00D083D08202011F123E68E8492274F6
:10292000EE12176B74FC1216FBEAFEEBFF851882A1
:10293000851983E4F0A3F0EE2402123603EE240599
:10294000122B34EE2404F50EEF122F19E024FE6052
:102950003924FC604624FE605224FE605E24FE7032
:1029600003022A3924FE7003022AB124FE700302F6
:102970002AC024FE7003022ACF24FC7003022ADE40
:1029800024FE7003022AED022B2A9003007417F034
:10299000A3E4122B4E12040E022B2A8518828519ED
:1029A00083AC82AD8312078C022AFA8518828519BE
:1029B00083AC82AD83120792022AFA850C08850D3A
:1029C000097402121747AC82AD838508828509839A
:1029D0001233B11206B48A0C8B0DAC0CAD0DEC4D5C
:1029E0006042E4F50CF50D780C12197E750C00753B
:1029F0000D03780C12197E750C01750D03780C12FD
:102A0000197E740812174712199579161233AB12F2
:102A100007CE7408121711E9F50C700B1233A712C8
:102A20000426800F750C01850882850983122B3CD2
:102A300012361F850C08022AFD7402121747AC8259
:102A4000AD83850C82850D831233B11206B48A10D2
:102A50008B11AC10AD11EC4D6043850C82850D835C
:102A6000A3A3121995751000751103781012197E21
:102A7000751001751103781012197E74081217472A
:102A800012199579161233AB1207CE74081217116A
:102A9000E9F509700B1233A712042C800F75090198
:102AA000850C82850D83122B3C12361F8509088008
:102AB0004C851882851983AC82AD83120798803AC1
:102AC000851882851983AC82AD8312079E802B8581
:102AD0001882851983AC82AD831207A4801C8518E7
:102AE00082851983AC82AD831207AA800D85188276
:102AF000851983AC82AD831207B0E9F508E508605B
:102B0000298E828F83A3E06414601F850E82850F57
:102B100083E0900300122B46123E649003011236AC
:102B20001FE508A3122B4E120408EEFAEFFB120762
:102B30003202350BF50CEF3400F50D22123E68859C
:102B4000188285198322F085188285198322F07CEA
:102B5000007D03850A82850B831233B52274EE1241
:102B6000176B74FC1216FB8A0A8B0B8C0E8D0FEA06
:102B70002405F508EB3400F5097C157D0079007A11
:102B8000007B03120F60E5082402F50CE509122B07
:102B900037851882851983858210858311781012F4
:102BA000197E850882850983A3A3A3A3123061122D
:102BB000197EE5082405F510E5093400F5117810B3
:102BC00012197E850C82850D831233BB1206AE74FA
:102BD000061217118A108B11AE10AF11E50A2402EC
:102BE000F50AE50B123606EE4F7003022D2380170F
:102BF00074021217471233B188828983EAF0A3EB7B
:102C0000F0900300E004F0900300E0C3940540035B
:102C1000022D23E4F510F511781012197E7510E9D4
:102C2000751102781012197E7510EA75110278106C
:102C300012197E74061217471219957910EEFCEFDF
:102C4000FD1233AB1207CE7408121711E9705E85BE
:102C50000882850983A3A3A3A3A3A3A3E0F89002FA
:102C6000E9E068704812306112197E7CEA7D02E565
:102C7000082408FAE5093400FB120F5A74021217EF
:102C800011E960298E828F83A3A3A3A31233B1908D
:102C90000300E0F510740278101216E87401251094
:102CA000F58274033511F583EAF0A3EBF074021298
:102CB0001747858210858311781012197E740212CD
:102CC0001747121995850C82850D83123E791206DD
:102CD000BA74041217118A108B11AE10AF11900341
:102CE00000E0F510751100740278101216E87400F7
:102CF0002510F874033511F988828983A31228B44A
:102D00007003022BE7E82403F8E93400F9EE4F6082
:102D100003022BF08882898374FFF0A3F0900300F4
:102D2000E004F0900300E0600A1233A712041A795D
:102D300000800B850882850983123616790A0235D0
:102D40000B74EA12176B74FE1216FB8C128D13EAC9
:102D50002405F50CEB123E83122826750800750930
:102D600000EA2402F510EB3400F51185188285196C
:102D70008385820A85830B780A12197E850C8285E9
:102D80000D83A3A3A3A3122F2312197EE50C240500
:102D9000F50AE50D123606780A12197E850C828531
:102DA0000D83123E771206AE74061217118A0A8B33
:102DB0000BEA450B7003022ED4EA2404F50EEB1245
:102DC0002F191228268A828B83A3A3A3E0F98510EA
:102DD000828511831233B112069CE9F50960030262
:102DE0002ED4E4F514F515781412197E7514E975CE
:102DF0001502781412197E7514EA751502781412EA
:102E0000197E74061217471219957913AC0AAD0B87
:102E10008510828511831233B11207CE7408121700
:102E200011E9F5096003022ED49002E9E0F8E50803
:102E30007009E02402900301F08017900301E0FC88
:102E4000E82402FAE43400FBEA6C7001EB60030250
:102E50002ED8850882AA821230589414123050500D
:102E600073850E82850F83E0C0E074022A122F1052
:102E7000D0E0F00508850E82850F83A3E0C0E085D1
:102E8000080A7402250A122F10D0E0F005089002FB
:102E9000E9122F2312197E7CEA7D0285080A74024A
:102EA000250AFA74033400FB120F4874021217113A
:102EB0009002E9E02508F50874FF6E700374FF6F57
:102EC0006012EE24010EEF3400FFE508C3941450A5
:102ED00003022D6BE508601312329C851082851168
:102EE000831233B112042079008014E50970037550
:102EF000090A851282851383EEF0A3EFF0A9097405
:102F0000021217117F0E02183D85080C7402250C61
:102F1000F58274033400F583223400F50F850E82A8
:102F2000F58322123BA62274EE12176B74FE121662
:102F3000FB8C0E8D0FEA2405F50CEB122B37750B6D
:102F400000900300E4F0F50AEA2402F508EB3400EF
:102F5000F5098049900300E0FA9002E9E0F81230A8
:102F6000589417123050400D900300E0F87416C3C7
:102F7000989002E9F012306112197E7CEA7D0274A9
:102F8000012AFA74033400FB120F4874021217115D
:102F90009002E9E0F8900300E028F0050AE50C242F
:102FA00016F582E50D122F14E0F8E50AC3984003E8
:102FB000023039900300E0C39416507DE50AC33314
:102FC000F8E433F9E50C28FEE50D39FF8518828514
:102FD0001983AC82AD838E828F831233B11206B413
:102FE0008A108B11AC10AD11EC4D7005750B018082
:102FF00043E4F510F511781012197E7510E975117A
:1030000002781012197E7510EA75110278101219E3
:103010007E7406121747121995791685088285095C
:10302000831233B11207CE7408121711E9F50B7031
:1030300003022F5412361280107C007D0385088213
:103040008509831233B1120432A90B740202350DC3
:10305000E99400C365D03322EA28F8E43400F9E8A3
:1030600022E0F51075110078102274EA12176B74C3
:10307000FC1216FB8A0C8B0D8C128D13EA2405F5BD
:103080000AEB123606750800750900E50A2402F5F8
:1030900010E50B3400F511740212174785820E8576
:1030A000830F780E12197E850A82850B83A3A3A352
:1030B000A3123B5212197EE50A2405F50EE50B34E6
:1030C00000F50F780E12197E851082851183123655
:1030D0000C1233AB1206AE74061217118A0E8B0F48
:1030E000AE0EAF0FE50C2402F50EE50D3400F50F22
:1030F00080408882898374FFF00508122F0974FFCD
:10310000F005089002E9E0F50C750D00780C121935
:103110007E7CEA7D0285080C7402250CFA74033467
:1031200000FB120F4874021217119002E9E0250803
:10313000F508EE4F60718E828F83A3A3A3E0F9851B
:103140000E82850F831233B112069CE9F509EE2435
:1031500004122B34E97044E4F514F51578141219AF
:103160007E7514E9751502781412197E7514EA75C6
:103170001502781412197E740812174712199579DE
:1031800011EEFCEFFD850E82850F831233B112071D
:10319000CE7408121711E9F5096027850C82850D98
:1031A0008312329212361FE508700302327812320F
:1031B0009C850E82850F831233B112043879000288
:1031C000328D850882AA82EA9002E97009E024041F
:1031D000900301F08022E0F8900301E0F514E82468
:1031E00004FCE43400FDEC65147001ED70C0123095
:1031F00058941212305050B6850C82850D83E0C071
:10320000E074022A122F10D0E0F00508850C8285A8
:103210000D83A3E0C0E0122F09D0E01232AE858208
:103220000C85830D780C12197E740412174712193D
:1032300095851082851183123E791206BA740412A4
:1032400017118A0C8B0DAE0CAF0D85080C7402257E
:103250000CF874033400F9EE4F70030230F2851855
:1032600082851983E0888289831232AEA3E0C0E0B0
:10327000122F09D0E0023100E509700375090A85B3
:103280000A82850B8312329212361FA90974040236
:103290002F01123E6885128285138322900301E07C
:1032A000F5F0E50884900300F07C007D0322F00532
:1032B000088518828519832274EC12176B74FE122C
:1032C00016FB8A088B098C0E8D0FEA2405FEEB3461
:1032D00000FF851882851983AC82AD838E828F832F
:1032E0001233B11206B48A0A8B0BEE2418122B3457
:1032F000EA450B70030233821234F450328518828F
:103300008519831233B11207C28A108B11EA451155
:10331000606B7912AC0AAD0B850882850983123384
:10332000B1851082851183121769E9F50A7058E496
:10333000F50AF50B780A12197E8E828F83A3A3E01B
:10334000F50A780A12197EEE2403123603780A125F
:10335000197E8E828F831233BB1207D47406121724
:1033600011E9F50A7021850C82850D83E0701F85B7
:1033700008828509831233B112043E8011750A0E4A
:103380008009750A018004E50A6003123612850C73
:1033900082850D83E0600479008002A90A7402121C
:1033A00017117F0C02183D7C007D03850A82850B76
:1033B000831233B522E0FAA3E0FB22E0FCA3E0FD98
:1033C0008508828509831233B52274EE12176B7457
:1033D000FE1216FB8A088B098C0C8D0DEA2405FE63
:1033E000EB3400FF750E00851882851983AC82AD21
:1033F000838E828F831233B11206B48A0A8B0BEA52
:10340000450B70030234E01234F450358518828580
:1034100019831233B11207C28A0E8B0FEA450F606F
:103420005E7912AC0AAD0B8508828509831233B12F
:10343000850E82850F83121769E9F50E6003023449
:10344000E38508828509831236FAAA0AFB1207B6B9
:103450008A108B11A810A911E849701E7AFF7BFF12
:103460001207B68A108B11A810A911E849606C8860
:10347000828983E50AF0A3E50BF0750A00800775E1
:103480000E0E805F050A9002E6E0FAE50AC39A5044
:103490004AE50A75F017A4FAABF088828983A3A3E2
:1034A000E02AFAA3E03BFB8A828B8312360CEC4DB8
:1034B00070D2750A17750B00780A12197EEEFCEFB0
:1034C000FD120F487402121711EEFCEFFD85088201
:1034D0008509831233B11204448014750E098003E8
:1034E000750E01123E60850C82850D8312361FA970
:1034F0000E02304BE5082402F508E5093400F50911
:103500008A828B83A3A3A3E0A2E52274041217117D
:103510007F0A02183D74EC12176B8C108D11EA248F
:1035200005F50CEB122B37750F00EA2402F50AEBB8
:10353000123606850A82F5831233B11207B68A085D
:103540008B09EA450970030235F8750E0080718514
:103550000C82850D83E06401704F8E828F83A3A35C
:103560001219958E828F83A3A3A3A3E0F51275137E
:1035700000781212197EEE2405F512EF3400F513CF
:10358000781212197E1233AB1207D4740612171177
:10359000E9F50F6014850C82850D83E4F0123E601E
:1035A00085108285118312361F7C177D007900EE0D
:1035B000FAEFFB120F608E828F83E4F0A3F0050E0A
:1035C0009002E6E0F8E50EC398501EE50E75F01780
:1035D000A4F8A9F0850882850983A3A3123E8D1261
:1035E000360CEC4D600302354F85088285098374E3
:1035F000FFF0A3F0E50F70061233AB12044AA90FD7
:103600000233A2F50AEF3400F50B22A3E0FCA3E09D
:10361000FD228E828F83123E68850E82850F83E89D
:10362000F0A3E9F022C082C0839002E2E06A700356
:10363000A3E06B70067AE27B0280047A007B0002D2
:103640002912C082C08378008C828D83E06A700367
:10365000A3E06B7010E875F003A4F8A9F0EC28FA69
:10366000ED39FB8015088C828D83A3A3A3E06A70DB
:1036700003A3E06B60DF7A007B0002291274F6126C
:10368000176B1207808A828B83E582458370067AE6
:10369000007B008007A3A3A3A31233B1023D1174E2
:1036A000F212176BE9FE740E1217471236FA7410F5
:1036B000121747123B728C828D83E064027036A32E
:1036C000123E6EF50CA3E0F9A80C74026870037446
:1036D00029697021750C02750D00780C12197E781D
:1036E0000812197E780A12197EEEF91207F874068C
:1036F00012171180027901023D95E0F50AA3E0F569
:103700000B2274E812176B74FB1216FBE985188202
:10371000851983F08A168B17ECFEEDFF7510007487
:103720001D121747123E64741D12174712361F8E62
:10373000828F83A3A3A3E0A2E4502D741D12174728
:103740001233B11207C28A828B83E58245837003EC
:10375000023B43790AEEFCEFFDAA16AB171217697C
:10376000E9F5106003023B46741F121747123B72C3
:1037700074211217471236FA7423121747E0F50E18
:10378000A3E0F50F8E828F83E064026003023AF1BA
:10379000A3123E64850882850983A38582128583EE
:1037A00013EE2406122B3488828983E0FAA3E0F911
:1037B000EA2400F514E439F5157814121A0801000A
:1037C00000280128E63707000228AB3803281838FC
:1037D0000029E23901290D3A0229AE390329E239DB
:1037E00004298C3AF13AE50E450F6003023AEC8564
:1037F0000C82850D83123B67FAE9FB8A828B83E09A
:10380000850A82850B83123B9D12197E8A828B83E7
:10381000A3E0FCA3E0023A76E50E450F6003023A0E
:10382000EC850A82850B837401F0123B7A8508824D
:10383000850983F07C007D008E828F83A3A3A3A3E0
:10384000E02401FAA3E03400FB1206B4EA4B604125
:103850008A828B83E02402F8850A82850B83E02824
:10386000F0EA2404F8EB3400F988828983E08512B9
:1038700082851383123BAF123B9D12197E8A828B85
:103880008312360BE5082403FAE5093400FB023AFB
:103890007B850A82850B83E02404F07C047D00791B
:1038A00000AA12AB13120F60023B46E50E450F60F3
:1038B00003023AEC123B7AFEA3E0FF850A82850BF5
:1038C000837404F0EE850882850983F0EF85128207
:1038D000851383F07403121747AC82AD83EEFAEFC1
:1038E000FB1206B48A0C8B0DEA450D700302398F6A
:1038F0008A828B83A3A31228227401121747858220
:103900000E85830F780E12197E740512174712194F
:10391000957CFF7DFF1206BA74041217118B0FEA13
:10392000450F7033850C82850D83123B5212197E30
:10393000850C82850D83A31219957C027D007ACABD
:103940007B841204E67404121711E9700A740112E0
:10395000174774FFF0A3F08E828F83E06402703902
:10396000750C02750D00780C12197E8E828F8312F1
:10397000360BE5082404FAE5093400FB120F4874FD
:1039800002121711850A82850B83E02402800974D4
:1039900001121747EEF0A3EFF07401121747123B24
:1039A00063F07401121747A3123B5B023AE6E50E7F
:1039B000450F6003023AEC850C82850D8312360CAC
:1039C000AA16AB171207EC850A82850B837402F0E6
:1039D000EA850882850983F0851282851383EB02CC
:1039E0003AE9E50E450F6003023AEC123B7AF8A380
:1039F000E0F9850A82850B837402F0E885088285E8
:103A00000983F0E9851282851383023AE9850C82E5
:103A1000850D831233B1120F42EAFC8C82A882C357
:103A2000950EE4950F405FE8650E7002E50F700497
:103A30007C008022851882851983E0FAE50E2AFA37
:103A4000E50F3400FBC3EA98EB94005003E08005D7
:103A5000E50ECCC39CFCEC850A82850B83F08C0AB6
:103A6000750B00780A12197E850C82850D83E0257E
:103A70000EFCA3E0350FFDAA08AB09120F48740233
:103A8000121711023B46751007023B46E50E450F23
:103A9000705A850C82850D83123E64850A82850BDF
:103AA00083740712282E123B5B12282EA3E0851286
:103AB00082851383F0E82402FAE93400FB8A828BC2
:103AC00083123B5B123B8A123B63A3123B93123B74
:103AD0006CF0E82405F8E93400F988828983123B08
:103AE0006CA3123BAFA3A3A3A3F0805A75100B8065
:103AF00055741D1217471233B11207808A828B83C7
:103B0000E5824583603D123E64880C890DE8450DD1
:103B10006031780E12197E780A12197E780812190F
:103B20007E7406121747E0F9EEFCEFFDAA16AB17FC
:103B3000850C82850D831217697406121711E9F539
:103B400010800375100EA91074051217117F100252
:103B5000183DE0F50E750F00780E22E0850882858D
:103B6000098322123BB922123E68E822123BB9A314
:103B7000A322E0F508A3E0F50922850C82850D83D8
:103B8000E0F8A3E0F5838882E022A3A3F08A828B89
:103B900083A322F088828983A3A3A3A322F08A822D
:103BA0008B83123BA622E0F50A750B00780A22F0FF
:103BB00088828983A3123BB922E085088285098324
:103BC000A3A32274EE12176B74FE1216FB8A0A8BE3
:103BD0000BECFAEDFB7414121747E0F510A3E0F5B7
:103BE000117416121747E0FE7418121747E0F50E0D
:103BF000A3E0F50F851882851983AC82AD83120688
:103C0000B48A0C8B0DEA450D6049851882851983AD
:103C10001233B11207808A828B83E5824583602F3D
:103C2000A3A3123B72E50845096024780E12197EA1
:103C3000781012197EEEF9AC0CAD0DAA0AAB0B850B
:103C40000882850983121769740412171180067996
:103C50000E8002790102304B74F612176B74FE125B
:103C600016FB740C121747123B678518828519835F
:103C7000F07401121747E9F0E4F508F50978081225
:103C8000197E750802780812197E74041217478588
:103C90008208858309780812197E1207D4740612E7
:103CA00017117402121711806874F712176BEAFE6D
:103CB000EBFF89087C197D031207ECEA5402600BC4
:103CC000A908EEFAEFFB1206A88002790102272A62
:103CD00074F612176B74FF6A700374FF6B70168CA6
:103CE000828D83123D16E4F08C828D83A3A3A312F0
:103CF0003D16A380181207BC8A088B09A808A909D9
:103D0000E849600D8882898374FF12282CA3A3E4FC
:103D1000F07F0202183D74FFF0A3F08C828D83A324
:103D2000A32274F612176B1207BC8A828B83E5827A
:103D300045836006A3A3E0FA80027A007B0080D16D
:103D400074F212176B8A088B09ECFEEDFF740E12E9
:103D50001747E0F50A1207BC8A0C8B0DA80CA90DB9
:103D6000E8497026EEFCEFFD7AFF7BFF1207BC8A64
:103D70000C8B0DA80CA90DE84970047911801688E8
:103D8000828983E508F0A3E509F088828983A3A3EB
:103D9000E50AF079007F0602183D74EE12176BEA0F
:103DA000FEEBFF8C088D09890C7414121747123E24
:103DB0006474161217471233B1750D00E849600399
:103DC000023E587402650C6003023E5374121217CF
:103DD00047123E6EFCA3E0F9EC2400F50EE439F541
:103DE0000FEAF4F8EBF4F9EC58F8E50F59F9E84963
:103DF000705CE5082406F8ED3400F9880A890B8820
:103E000082F583123E791207EC8A108B11E50E655C
:103E1000107004E50F65116042780E12197E850A54
:103E200082850B83123E791207F27402121711E990
:103E3000F50D7027780E12197E850882850983A3F7
:103E4000A3123E771208047402121711800D750D2B
:103E5000808008750D0D8003750D0BA90D023510BE
:103E60008E828F83123E6822E0F8A3E0F922123E90
:103E70006888828983E022A3A3E0FCA3E0FDEEFA38
:103E8000EFFB223400F50D850C82F58322E028FE3D
:103E9000A3E039FF8E828F832274F212176BEAFE41
:103EA000EBFF890B7401650B600E7402650B706A81
:103EB00079011209D2E97062EEFAEFFB1207B68AB5
:103EC000088B09EA45096047750A00800B7C177D5D
:103ED000007900120F60050A9002E6E0F8E50AC3D7
:103EE000985021E50A75F017A4F8A9F08508828595
:103EF0000983A3A3E028FAA3E039FB8A828B83120B
:103F0000291970C985088285098374FFF0A3F07CA4
:103F1000197D03EEFAEFFB1207E6023D9574F212EB
:103F2000176B8A088B09ECFEEDFF740E121747120F
:103F300036FA900E5AE0F4603D7A097B00120F6C5D
:103F4000EA4B60328A828B8374B1F0A3E4123B8C1B
:103F5000A3123B8AA3E508F0A3E509123F79EEF02E
:103F6000A3EF123F79A3A3E50AF0A3E50BF0900EAF
:103F70005AE0F9120F78023D95F08A828B83A3A351
:103F8000A3A3A322C082C0839061907404F0A374A1
:103F900048F0A37402F09061807440F09061BC74AA
:103FA00003F09061877419F0906265741BF0906261
:103FB00049E0C3941390619C400A7409F0906066D4
:103FC00074018007740DF0906066E4F090619A745B
:103FD00033F0A37455F09061A0743AF090053FE07F
:103FE00064017009C2919003A6746780059003A6CE
:103FF0007461F09026E6E493906186F09026E0E408
:1040000093F46027E493540FF8906185E0686012A0
:10401000E5C654804449F5C6E59E547F644970F86E
:10402000E8F053C680E59E547F70FA7905120D2C96
:104030000241D6C082C083E5A8F853A87E90618172
:10404000E4F0A3F0A3F0C2BA539AFEC289759B00B4
:10405000C2C275E90075910075BF0075A91175B9E7
:1040600005906181F0A374C0F0A3E4F0D2BA439A42
:104070000174805842A80241D6C082C08374F812ED
:1040800016FB9003A4E0F8A3E0F9E84970030241AD
:10409000A79003A4E054406023790885188285190D
:1040A00083AA82AB83120BA0851882851983AA820A
:1040B000AB831208829003A4E054BFF0E054806008
:1040C00010790C7A657B05120BA09003A4E0547F55
:1040D000F0E0A2E0503190619A7433F0A37455F08F
:1040E0009061A0743AF090053FE064017009C291BC
:1040F0009003A6746780059003A67461F012088887
:104100009003A4E054FEF0E05402603190619A7490
:104110003FF0A3745AF09061A0747FF090053FE0E7
:1041200064017009D2919003A6747180059003A672
:10413000746AF01208889003A4E054FDF0E054047F
:1041400060139026E4E493906186F012088E900349
:10415000A4E054FBF0E0540860139026E5E493904B
:104160006186F012088E9003A4E054F7F0E054103A
:1041700060139026E6E493906186F012088E900317
:10418000A4E054EFF0E05420600A12088E9003A4DB
:10419000E054DFF0A3E05401600D120AC812089445
:1041A0009003A5E054FEF074081217110241D6C026
:1041B00082C083E9600814600A14600C80139026A2
:1041C000E480089026E580039026E6E493906186DB
:1041D000F08003F0A3F0D083D08202011F74EC12B0
:1041E000176B74F41216FB851882851983AC82ADA7
:1041F00083758384758286740412160E9026E49368
:10420000F46003024369907808E0C394025003020B
:1042100043497404121747AC82AD83758384758259
:104220003A740812160E85188285198385821285C4
:1042300083137404121747AC82AD83750EFF750F9C
:10424000FF7FFF7E00750C48750D78801574086E31
:1042500070030242DD74096E70030242DD740A6E5F
:10426000607B850C82850D8378081215B38C828D56
:1042700083A909E50AC9F88810741878081214E1AE
:10428000E5104508F8C3E098A3E099850C82850DF8
:104290008378081215B340188C828D8374187808BF
:1042A0001214E1E5104508F8E0C398F8A3E0801C7B
:1042B000741878081214E1E5104508FAE9FB8C82BD
:1042C0008D83E0F8A3E0F9EAC398F8EB99F9C3E825
:1042D000950EE9950F5006880E890FEEFF0EE50C3E
:1042E0002404F50CE50D3400F50DEEC394135003D2
:1042F00002424D74FF650E700474FF650F60238FDA
:1043000008740278081216E874482508F582747853
:104310003509F58378081215B3851282851383E574
:1043200008F0EC2402FCED3400FD85128285138335
:10433000A3858212858313740C121747E5826C7073
:1043400003E5836D600302423B750801750900783F
:104350000812197E7402121747AC82AD837AB97BBA
:10436000091211527402121711740C1217117F0CDA
:1043700002183DC082C0839061AE7468F0A3746A75
:10438000F090624574FBF0A304F053F4FD43FE0289
:1043900090053F7401F09061A0E0643A90619A70DA
:1043A000237433F0A37455F09061A0743AF0740153
:1043B00064017009C2919003A6746780289003A6D7
:1043C00074618021743FF0A3745AF09061A0747FEF
:1043D000F0740164017009D2919003A67471800594
:1043E0009003A6746A0241D57F0802183DC082C0BE
:1043F000839004F1E06401700A9004F6E0600479AF
:104400000C800279000241D6C082C08375E1F19030
:1044100004F4E0605B14600914605F14605714706A
:104420005E120ADA9004EAE0F97AEB7B04120CAE31
:104430007AD67BBE7C897D8E120CE47A557B557CC6
:10444000557D00120CBA9004F5E0F9120CC6790102
:10445000120D209004E8E0F8A3E0C82416F582E8E5
:104460003400F58374F2F0A3740AF079000241D6A7
:10447000120AE080AF120AE680AA120AEC80A5793F
:104480001280EA74F012176B75D90D9004D5E0A272
:10449000E0E4331313F89004EAE0C4333354C04823
:1044A0004401F5D978E8790488828983A3A3A3E03D
:1044B000F5D988828983A3A882A983E864EE700372
:1044C000E9640470E378D5790488828983A3E0F5F0
:1044D000D988828983A3A882A983E864DB7003E971
:1044E000640470E575E1959004D5E0F97AD67B0413
:1044F000120CB4900E7C7486F0A3740AF0A374E8D6
:10450000F0A3740BF0A374E8F0A3740BF0A374E8A9
:10451000F0A3740BF0A3748CF0A3740AF0A374E8F6
:10452000F0A3740BF0A374A4F0A3740AF0900E8AA5
:1045300074E8F0A3740BF0A374E8F0A3740BF0A379
:1045400074E8F0A3740BF0A374E8F0A3740BF0A369
:1045500074E8F0A3740BF0A374E8F0A3740BF0906C
:1045600004F4E064019004E87012E0F8A3E0F5833D
:104570008882A3A37508007509088010E0F8A3E0FD
:10458000F5838882A3A3750804750900750A007570
:104590000B00780812152C750CFF750DFF750EFFBA
:1045A000750F007808790C12157A9004E8E0F8A3EA
:1045B000E0C8240EF582E83400F58378081215C2AD
:1045C0009004E8E0F8A3E0C82414F582E83400F58C
:1045D000837413F09003A27402F00243E874F7129C
:1045E000176B9004FAE02407F5D99004EAE0C4338D
:1045F0003354C0F5D978E8790488828983A3A3A3CA
:10460000E0F5D988828983A3A882A983E864EE7043
:1046100003E9640470E39004FAE0601F78E8790429
:10462000FAE82413F582E93400F583E0F5D98882AD
:104630008983A3A882A9831AEA70E690051AE02468
:1046400007F5D99004EAE0C4333354C04404F5D9E3
:1046500078E8790488828983A3A3A3E0F5D98882C6
:104660008983A3A882A983E864EE7003E9640470D7
:10467000E390051AE0601F78E87904FAE82433F53E
:1046800082E93400F583E0F5D988828983A3A88282
:10469000A9831AEA70E675E195900E7C7492F0A3F6
:1046A000740AF0A374E8F0A3740BF0A374E8F0A309
:1046B000740BF0A374E8F0A3740BF0A3748CF0A354
:1046C000740AF0A374E8F0A3740BF0A374A4F0A32D
:1046D000740AF0900E8A74E8F0A3740BF0A374E8E7
:1046E000F0A3740BF0A374E8F0A3740BF0A374E8C8
:1046F000F0A3740BF0A374E8F0A3740BF0A374E8B8
:10470000F0A3740BF09004E8E0F8A3E0C8240EF5E1
:1047100082E83400F58374FFF0A3F0A3F0A3F090D7
:1047200004E8E0F8A3E0C82414F582E83400F58337
:104730007412F09003A27401F0FF02183D74F71296
:10474000176B9004FAE02407F5D99004EAE0C4332B
:104750003354C04402F5D978E8790488828983A368
:10476000A3A3E0F5D988828983A3A882A983E864FA
:10477000EE7003E9640470E39004FAE0601F78E8E7
:104780007904FAE82413F582E93400F583E0F5D9D9
:1047900088828983A3A882A9831AEA70E675E195C5
:1047A000900E7C749EF0A3740AF0A3749EF0A37420
:1047B0000AF0A3749EF0A3740AF0A3749EF0A3748D
:1047C0000AF0A3749EF0A3740AF0A3749EF0A3747D
:1047D0000AF0A374A4F0A3740AF0900E8A74E8F0AF
:1047E000A3740BF0A374E8F0A3740BF0A374E8F0C7
:1047F000A3740BF0A374E8F0A3740BF0A374E8F0B7
:10480000A3740BF0A374E8F0A3740BF09004E8E039
:10481000F8A3E0C8240EF582E83400F58374FFF0B5
:10482000A3F0A3F0A3F09004E8E0F8A3E0C82414F8
:10483000F582E83400F5837414F09003A27404F058
:10484000024B0474F712176B9004FAE02407F5D9B1
:104850009004EAE0C4333354C04406F5D978E879CB
:104860000488828983A3A3A3E0F5D988828983A3DE
:10487000A882A983E864EE7003E9640470E39004FD
:10488000FAE0601F78E87904FAE82413F582E93445
:1048900000F583E0F5D988828983A3A882A9831AC9
:1048A000EA70E690051AE02407F5D99004EAE0C41E
:1048B000333354C04404F5D978E879048882898375
:1048C000A3A3A3E0F5D988828983A3A882A983E85A
:1048D00064EE7003E9640470E390051AE0601F78E9
:1048E000E87904FAE82433F582E93400F583E0F549
:1048F000D988828983A3A882A9831AEA70E675E120
:1049000095900E7C7498F0A3740AF0A374E8F0A359
:10491000740BF0A374E8F0A3740BF0A374E8F0A395
:10492000740BF0A374E8F0A3740BF0A374E8F0A385
:10493000740BF0A374A4F0A3740AF0900E8A74E8C8
:10494000F0A3740BF0A374E8F0A3740BF0A374E865
:10495000F0A3740BF0A374E8F0A3740BF0A374E855
:10496000F0A3740BF0A374E8F0A3740BF09004E8C8
:10497000E0F8A3E0C8240EF582E83400F58374FF64
:10498000F0A3F0A3F0A3F09004E8E0F8A3E0C824BB
:1049900014F582E83400F5837415F09003A27403D3
:1049A000F0024B04C082C0839004E8E0F8A3E0C8A2
:1049B0002406F582E83400F583E40241D374F7124B
:1049C000176B9003D0E0F875F003A4C8AAF02AF999
:1049D00074D228F8740339F9E82405FAE93400FBA5
:1049E0008A828B83E0FCA3E0FD88828983A3A3A352
:1049F000A3A3A3A3A3A3ECF0A3EDF088828983A3D0
:104A0000A3A3A3A3A3A3E024FFF8A3E034FFF98AA0
:104A1000828B83E8F0A3E9F0024B0474F712176B62
:104A2000EAFEEBFF9061D0E06003024AF875D90E10
:104A300075D90375D904EE248BF582EF3400F58324
:104A4000E5822408F8E5833400F9E0F5D9A3E865A8
:104A5000827003E9658370F2EE2483F582EF3400FF
:104A6000F583E5822404F8E5833400F9E0F5D9A361
:104A7000E865827003E9658370F275E1957908EE67
:104A8000248BFAEF3400FB120B947904EE2483FAA2
:104A9000EF3400FB120B947C00EEF8EFF9ECFAC354
:104AA000E49AFA95E0FBEE2AFAEF3BFBEA248AF55A
:104AB00082EB3400F583E0C0E0E824AAF582E93413
:104AC00000F583D0E0F00C88828983A3A882A983B3
:104AD000ECC3940840C7EE246FF582EF3400F583F1
:104AE000E0F8A3E0F9EE2471F582EF3400F583E8F5
:104AF000F0A3E9F07901800279008008F0EEA2E0ED
:104B000092AF79007F0102183DC082C08375D9023F
:104B100075D90375D90575E195EA246FF582EB34F3
:104B200000F583E0F8A3E0F9EA2471F582EB3400A4
:104B3000F583E8F0A3E9F079010241D674F6121783
:104B40006BEAFEEBFF9005457406F07508457509A4
:104B500005780812197E7C017903120BDC740212AD
:104B6000171175D90675D903758245758305E0F56A
:104B7000D9A3E582644A7004E583640570F075E1A9
:104B8000959003A2E06408701EEE246FF582EF3466
:104B900000F583E0F8A3E0F9EE2471F582EF34002C
:104BA000F583E8F0A3E9F07901024E0A74F61217D2
:104BB0006BEAFEEBFF9061D0E070667801900545EE
:104BC000740BF09003A2E06407701975084575092D
:104BD00005780812197E7C017903120BDC7402122D
:104BE00017117805740128F5D975D90375824575B3
:104BF0008305E8FAE0F5D9A31AEA70F875E195EEB5
:104C0000246FF582EF3400F583E0F8A3E0F9EE2499
:104C100071F582EF3400F583E8F0A3E9F0790180C3
:104C2000027900024E0A74F712176BEAFEEBFF7569
:104C3000D90375D90375D90DEE24DDF582EF340063
:104C4000F583E0F5D975E1957904120CEAEE246F4D
:104C5000F582EF3400F583E0F8A3E0F9EE2471F576
:104C600082EF3400F583E8F0A3E9F07901024B0408
:104C700074F612176BEAFEEBFF9061D0E0F87480D7
:104C8000C398FAEE2482F582EF3400F583E06004E5
:104C9000780480027800E8240BF8EAC398500302F5
:104CA0004D357D09900545EDF0EE24E2F8EF340036
:104CB000F97A467B057C0888828983E08A828B8327
:104CC000F088828983A3A882A9838A828B83A3AA7E
:104CD00082AB831CEC70E0EE2482F582EF3400F5A9
:104CE00083E0601D750845750905780812197E7CFA
:104CF000097903EEFAEFFB120BDC74021217117D37
:104D00000D74012DF5D975D9037582457583058D0F
:104D100008E0F5D9A31508E50870F675E195790462
:104D2000120CEAEE241DF582EF3400F583E4F0A3C3
:104D3000F0790180027900024E0A74F612176BEACC
:104D4000FEEBFF9061D0E0F87480C398FAEE248205
:104D5000F582EF3400F583E0600478048002780087
:104D6000E82408F8EAC3985003024E087806900534
:104D700045740CF09003BFE0900546F09003C0E04E
:104D8000900547F09003C1E0900548F09003C2E021
:104D9000900549F09003C3E090054AF0EE2482F5B7
:104DA00082EF3400F583E0601B75084575090578CE
:104DB0000812197E7C067903EEFA120BDC740212DB
:104DC0001711780A740128F5D975D90375824575CC
:104DD00083058808E0F5D9A31508E50870F675E1A4
:104DE000957904120CEAEE246FF582EF3400F58316
:104DF000E0F8A3E0F9EE2471F582EF3400F583E8E2
:104E0000F0A3E9F07901800279007F0202183D7475
:104E1000F612176BEAFEEBFF9061D0E0F87480C3E6
:104E200098FAEE2482F582EF3400F583E06004788E
:104E30000480027800E82404F8EAC3985003024E84
:104E4000E97802900545E8F0EE24F4F582EF3400AD
:104E5000F583E0900546F0EE2482F582EF3400F50C
:104E600083E0601B750845750905780812197E7C7A
:104E7000027903EEFA120BDC740212171178067431
:104E80000128F5D975D9037582457583058808E031
:104E9000F5D9A31508E50870F675E195EE2473F5CC
:104EA00082EF3400F583E4F0EE247FF582EF3400E6
:104EB000F583E4F0EE241DF582EF3400F583E4F091
:104EC000A3F07904120CEAEE240DF582EF3400F51C
:104ED00083E0F8A3E0F9EE2471F582EF3400F58366
:104EE000E8F0A3E9F0790180027900024E0A74F635
:104EF00012176B9061D0E0F87480C398FCEA2482AA
:104F0000F582EB3400F583E06004780480027800D9
:104F1000E82404F8ECC398405B79029005457407D7
:104F2000F0EA24F5F582EB3400F583E0900546F0D5
:104F3000EA2482F582EB3400F583E06018750845B9
:104F4000750905780812197E7C0209120BDC7402BF
:104F50001217117906740129F5D975D9037582459F
:104F6000758305E9F8E0F5D9A318E870F875E195BF
:104F7000790180027900024E0A74F512176BE9FC80
:104F8000A2AFE433F50AC2AF7D0080010DEA246EC2
:104F9000F582EB3400F583E0F8EDC398501A8D08E4
:104FA000EA2508F8EB3400F9E8246AF582E93400D0
:104FB000F583E06C70D68024EA246EF8EB3400F9B7
:104FC000E0FEEA2EFAEB3400FBEA246AF582EB34C9
:104FD00000F583ECF088828983E004F0E50AA2E022
:104FE00092AF7F0302183D74F612176BA2AFE43341
:104FF000FDC2AFEA246EF582EB3400F583E014F0D5
:105000007C0060368C08EA2508F8EB3400F9E824C7
:105010006BF582E93400F583E0C0E0E8246AF582AC
:10502000E93400F583D0E0F00CEA246EF582EB342D
:1050300000F583E0F8ECC39840CAEA246DF582EBF2
:105040003400F58374FFF0EA2469F582EB3400F54F
:1050500083E4F0EDA2E092AF024E0AC082C083E585
:10506000A8F8C2AFEA246AF582EB3400F583E9F0D0
:10507000EA2469F582EB3400F583E4F0E8A2E7A2C4
:10508000E792AF0241D674F312176BEAFEEBFFEC26
:10509000FAEDFB8A828B83A3A3A3A3E0541FF0EE57
:1050A0002436F582EF3400F583E4F0F50AEEFCEFE8
:1050B000FD8A828B83E0C0E0EC245DF582ED340054
:1050C000F583D0E0F0750B00E50A33333354F8F57F
:1050D0000C8A828B83E0F508750900E50B780812CD
:1050E00016C9E508A2E0502FEE2436F8EF3400F997
:1050F00088828983E0F508EE2508F508EF3400F58D
:1051000009E5082438F582E5093400F583E50CF05B
:1051100088828983E004F0050B050CE50BC3940835
:1051200040AF050A8A828B83A3AA82AB838C828DCF
:1051300083A3AC82AD83E50AC3940550030250B14A
:105140007F0502183D74F712176B9003CEE06401DF
:1051500070030252A37A009003D4E060030252A3CA
:105160007401F0A3E4F0A3F090043404F090043947
:10517000F09003D7E4F0A3F0A3F0A3F09003E104D0
:10518000F0900407E4F09003EAF0A3F0A3F0A3F09A
:10519000A3F0A3F0A3F0900451F0900445F0900424
:1051A0003A7480F0A3E4F0900440F09004BCF0A3C3
:1051B000F0A3F0A3F0A3F0A3F0A3F0A3F09004C534
:1051C000F0900454F09004A4F0A3F0A3F0A3F0A393
:1051D000F0A3F0A3F0A3F0A3F0A3F09004B0F0903C
:1051E00004B2F09004AEF09004C8F0A3F0A3F0A3D2
:1051F000F0A3F0A3F0A3F0A3F078CE7903E8246E37
:10520000F582E93400F58374FFF00A88828983A36C
:10521000A882A983EAC3940440E37ACE7B0378DCB6
:10522000790488828983E0C0E0EA2461F582EB3466
:1052300000F583D0E0F088828983A3A882A9838ABD
:10524000828B83A3AA82AB83E864E17003E96404E0
:1052500070D07ACE7B0378B5790388828983A3E006
:10526000C0E0EA24E6F582EB3400F583D0E0F08874
:10527000828983A3A882A9838A828B83A3AA82AB13
:1052800083E864BD7003E9640370CF9003CEE0044B
:10529000F0640170089003D6E09003D0F07AD27BDE
:1052A0000380047A007B00024B04C082C083900319
:1052B000D5E4F09003D4F09003CEF0A3F0A374FFF4
:1052C000F075E1F10241D6C082C083780079009088
:1052D00003D5E0600478D2790388828983A3A3A3ED
:1052E000A3E0F90241D674F612176BEAFEEBFFEE6B
:1052F0002463F582EF3400F583E0F8A3E0F9E84990
:10530000700302538BEE2463F8EF3400F97A007BCC
:1053100000A2AFE433F508C2AF88828983E0FCA322
:10532000E0FDEC4D603A88828983E0FAA3E0FB8AD5
:10533000828B83E0FCA3E0FD88828983ECF0A3EDFF
:10534000F08A828B83E4F0A3F088828983E0FCA357
:10535000E0FDEC4D700A88828983A3A3E4F0A3F0FA
:10536000E508A2E092AF1212249004E2E004F0906B
:1053700004E3E004F0EE2463F582EF3400F583E00B
:10538000F8A3E0F9E84960030253058E828F83A3F6
:10539000A3A3E0600F8E828F83A3A3A3E4F0900306
:1053A000CFE014F09003CEE014F070069003D074B8
:1053B000FFF08E828F83A3A3E4F09004E1E0700DF0
:1053C0009003CFE0640170057900120CCCEEFAEF87
:1053D000FB120C0C024E0A74F712176BEAFEEBFF7D
:1053E0008E828F83A3A3A3A3E0FA7B001208D6EEDC
:1053F000FAEFFB120B5E120BF4024B04C082C08367
:1054000078B5790388828983A3E4F088828983A3AD
:10541000A882A983E864BD7003E9640370E6900381
:10542000B674010241D574F612176BEAFEEBFFEC7D
:105430002403F8ED3400F988088909EC2407F8ED15
:105440003400F9E8FCE9FD8C828D83E0F8A3E0F9F3
:10545000850882850983E0FAA3E0FB121670EE242A
:105460000DF582EF3400F583E8F0A3E9F08C828D2E
:1054700083E0F8A3E0F9850882850983E0FAA3E0D8
:10548000FB1216708B09EA45096013EE240DF582B4
:10549000EF3400F583E02401F0A3E03400F0024E85
:1054A0000A74F612176BEAFEEBFFEE242EF582EF7C
:1054B0003400F583E0FCA3E0FD780079FAECFAED26
:1054C000FB121670EE246FF582EF3400F583E8F0DE
:1054D000A3E9F0780079FAECFAEDFB1216708B096B
:1054E000EA45096013EE246FF582EF3400F583E09E
:1054F0002401F0A3E03400F0024E0A74EC12176BA2
:10550000EAFEEBFF741412174778081215B3120C59
:10551000908A0C8B0D8C0E8D0F7510027511007515
:105520001200751300780C79101215197510FF759B
:1055300011FF7512FF780C791012157A780C121978
:105540007A8E828F83E0F8A3E0F5838882A3A3128A
:1055500015D11223897404121711E9600302565FF2
:105560008E828F83E02402F8A3E03400F9E8FAE9A0
:10557000FB8A828B83780812153F8A828B83750899
:10558000FF7509FF750AFF750B0078081215A0EE6C
:10559000240BF582EF3400F583C082C0838E828FA6
:1055A00083A3A3A3A3A3E02401F8A3E03400F9D0CC
:1055B00083D082E0687003A3E06970057901025628
:1055C000618E828F83A3A3A3A3A3A3A3E02401F0EE
:1055D000A3E03400F0EE2473F582EF3400F583E0AD
:1055E00064017036EE2474F582EF3400F583E0F840
:1055F000A3E0F98E828F83A3A3A3A3A3A3A3E06850
:105600007003A3E0697013EE2474F582EF3400F5A3
:1056100083E02401F0A3E03400F0EE247FF582EF74
:105620003400F583E064017036EE2480F582EF34B7
:1056300000F583E0F8A3E0F98E828F83A3A3A3A3F0
:10564000A3A3A3E0687003A3E0697013EE2480F5C0
:1056500082EF3400F583E02401F0A3E03400F07918
:105660000002436E74F612176BE9FEECFFEA246247
:10567000F582EB3400F583E06401600302570D907E
:1056800061D0E0F508EA2482F582EB3400F583E08E
:1056900060047804800278007480C39508FC95E06B
:1056A000FDEF28F8E43400F9E82402F8E93400F9C1
:1056B000EC98ED99A2D265D033404E740A12174788
:1056C000E0F508A3E0F509EA2482F582EB3400F561
:1056D00083E06015780812197EEFFCEEF9120BDCFE
:1056E000740212171174042FFF74012FF5D98ED98B
:1056F000EF600F850882850983F8E0F5D9A318E8E3
:1057000070F875E195790080067907800279FF02CB
:105710004E0A74F712176BA2AFE433FEC2AF8A824F
:105720008B83E0F8A3E0F9E8498A828B83600AA3BF
:10573000A3E0F8A3E0F5838882ECF0A3EDF08A8281
:105740008B83A3A3ECF0A3EDF08C828D83E4F0A314
:10575000024AFC74F712176BE96021F88C828D8382
:10576000E08A828B83F08C828D83A3AC82AD838AA6
:10577000828B83A3AA82AB8318E870E0ECFAEDFB7E
:10578000024B0474F412176B907803E06442705576
:10579000900544E014F0704DC2AF12579D00782A76
:1057A000D0E0F618D0E0F6E59F540770057509FFC4
:1057B000800375097FC4C0E07829E6F50808E6553E
:1057C00009F509740B78081216D9D0E02508F8906D
:1057D0006270E0A2E740F8E8C333906272F0906232
:1057E00070E0D2E0F09003D0E0F47003025B7DE063
:1057F000F875F003A4C8AAF02AF974D228FE74033D
:1058000039FFEE2401F582EF3401F583E0F8A3E0DF
:10581000F9E849601EEE2401F582EF3401F583E0DA
:10582000FAA3E0FBEE2400F582EF3401F583E0F902
:10583000120F9C8E828F83A3A3A3A3A3A3A3E0F83C
:10584000A3E0F98E828F83A3A3A3A3A3E8F0A3E927
:10585000F0906054E09003A9F0906055E09003AAA6
:10586000F0906056E09003ABF0906057E09003AC8E
:10587000F0906058E09003ADF0906059E09003AE76
:10588000F090605AE09003AFF090605BE09003B05E
:10589000F090605CE0FC9003B1F090605DE0FB9004
:1058A00003B2F090605EE0FD9003B3F090605FE0C3
:1058B000FA9003B4F09003AFE08C082508F8E434C4
:1058C00000F98D08E82508F8E93400F98B08E82587
:1058D00008F8E93400F98A08E82508FAE93400FBF9
:1058E000EE24F6F582EF3400F583E02AF0A3E03BE6
:1058F000F08C08EE24F8F582EF3400F583E02508FB
:10590000F0A3E03400F0EE24FAF582EF3400F583E2
:10591000E02401F0A3E03400F0EE24FEF582EF3441
:1059200000F583E0F8A3E0F9E8496042906000E008
:10593000C333FCE433FDE82CF582E93DF583E02A2E
:10594000F0A3E03BF0906000E0FA9003B1E0FCEAE5
:10595000C333FAE433FBE82AF8E93BF9E8244AF5D3
:1059600082E93400F583E02CF0A3E03400F09003EA
:10597000AFE070119003B2E0700BA3E07007A3E0FA
:105980007003025A7A8E828F83A3A3A3A3A3E0F8A5
:10599000A3E0F9EE240DF582EF3400F583E028F85A
:1059A000A3E039F9EE240BF582EF3400F583E8F03B
:1059B000A3E9F0EE240FF582EF3400F583E4F0EE76
:1059C000241CF582EF3400F583E06401701EEE24A0
:1059D00020F582EF3400F583E0F8A3E0F9EE241D12
:1059E000F582EF3400F583E8F0A3E9F09003AAE034
:1059F0006052EE241CF582EF3400F5837401F0EE62
:105A00002469F582EF3400F583E07038EE2473F5F5
:105A100082EF3400F583E0702BEE247FF582EF34C3
:105A200000F583E0701EEE2420F582EF3400F5834C
:105A3000E0F8A3E0F9EE241DF582EF3400F583E8E9
:105A4000F0A3E9F0906062E07003025B2D8E828F1C
:105A500083E0F8A3E0F9E82406FCE93400FDE8243B
:105A600002FAE93400FB120C8A8E828F83E0F8A3DD
:105A7000E0C82412F582E8025B339003B1E0603A9B
:105A8000EE240FF582EF3400F583E4F0EE241CF5EC
:105A900082EF3400F583E064017040EE2420F5824B
:105AA000EF3400F583E0F8A3E0F9EE241DF582EF72
:105AB0003400F583E8F0A3E98020EE24FCF582EFC2
:105AC0003400F583E02401F0A3E03400F0EE241D5F
:105AD000F582EF3400F583E4F0A3F0EE240BF582B9
:105AE000EF3400F583E0F8A3E0F98E828F83A3A35F
:105AF000A3A3A3E0687003A3E06960030259ECEE7E
:105B0000240FF582EF3400F583E060128E828F83DC
:105B1000A3A3A3A3A3E064057002A3E06004790833
:105B20008002793EEEFAEFFB120B648050EE241DEA
