:020000040000FA
:060000000201070221AB22
:03002B0002262387
:030033000226059D
:03003B0002264456
:030043000225B9DA
:0300530002221E68
:03006B000225DF8C
:10008300022017E5C754F84401F5C779012200009F
:100093000080FB120086B900030200F1E4792178A5
:1000A30008B800028004F709D8FCE479297802B87B
:1000B30000028004F709D8FCE490028178B0790A41
:1000C3008002F0A3D8FCD9FA7A307B0C9001377800
:1000D3000279048015E493A3AD82AE838A828B8375
:1000E300F0A3AA82AB838D828E83D8E9D9E7758288
:1000F300417583A874031201197582917583007485
:100103000012011975D00075813F751881751902A8
:10011300759F00020096C09FF59FE473D09F22D085
:1001230083D082C09FE493C0E0740193C0E0740263
:1001330093F59F22FF0000B4000028002800283018
:1001430075A000A000A000A00000080008E001F0D6
:10015300001000100010001000100010005000509C
:1001630000500010001000D0070000000000000F36
:100173000001000500307507001000010081FF0039
:10018300000000FF360654063C06FF020202080286
:100193005000A0000000E8030259820100004A82D7
:1001A300026D82010000870C024D82010000B30240
:1001B300026D82010000880C024F82010000C90217
:1001C300026D82010000890C025182010000CB0202
:1001D300026D820100008A0C025382080000CC02E7
:1001E300026D820100008B0C0255820100008C0C11
:1001F300FF0100FF200259820100004482026D8248
:10020300010000F00C0257820000000000025B8234
:100213000300001903240C240C240C240C240C24A8
:100223000C240C240C240C240C240C240C240CA6C9
:100233000EBE0EA00EFFFF02020202020202020223
:10024300010D0000001001025982010000418202E9
:100253006D82010000330D0263820100005D07021D
:100263006D82010000340D026182010000DB810216
:100273006D82010000350D025F82010000BF810223
:100283006D82010000360D026582010000F58002D7
:100293006D82010000370D026B82010000E38002D2
:1002A3006D82010000380D02718201000007810296
:1002B3006D82010000390D0273820100003D81024D
:1002C3006D820100003A0D027582010000CD8102AA
:1002D3006D820100003B0D0277820100003C0D019D
:1002E300E803053F100AFF00013075030201060011
:1002F30000000000000000000000000000000000FB
:100303000000000000000000000000FFFF06008066
:100313000CE803140953696D706C65424C455065D4
:10032300726970686572616C051250002003020ADD
:10033300000201060302F0FF53696D706C652042F1
:100343004C45205065726970686572616C201300BA
:100353000026130A4368617261637465726973747A
:100363006963203100024368617261637465726975
:100373007374696320320008436861726163746552
:100383007269737469632033001043686172616337
:10039300746572697374696320340002436861721F
:1003A30061637465726973746963203500025982ED
:1003B3000100004782026D820100004F0E027B8222
:1003C300030000210C026982010000500E026D82BD
:1003D300010000610E027D82010000220C0269828D
:1003E300010000620E026D82010000730E027F8223
:1003F300020000230C026982010000740E026D8268
:10040300010000850E028182000000240C025B8241
:10041300030000250C026982010000860E026D8232
:10042300010000970E0283820400002B0C026982F4
:10043300010000980E1201228D9A03120122A49A40
:1004430003120122D59A03120122109B03120122E7
:100453003A9B03120122649B031201227B9B03122A
:100463000122929B03120122A99B03120122D29B18
:1004730003120122E59B03120122FB9B03120122BB
:100483000E9C03120122359C03120122BCA7021207
:100493000122C0A802120122F8A8021201221BA9FC
:1004A3000212012226A90212012249A902120122E3
:1004B30058AA021201222DAB02120122A8AB02128A
:1004C300012230AC021201226BAC02120122A2AC57
:1004D3000212012230AD0212012209AE02120122E0
:1004E30069AE0212012274AE02120122F3AE0212AD
:1004F3000122F6AE02120122F9AE0212012288AFE6
:10050300021201228BAF02120122BBAF021201229F
:10051300E5AF02120122D3B00212012285B1021209
:100523000122F4E0021201221CE1021201224AE13B
:100533000212012281E102120122DFE102120122F1
:100543002AE20212012275E202120122B5E202122C
:100553000122FBE20212012229E302120122E6E355
:1005630002120122F0E302120122FDE30212012230
:1005730030E402120122FCE40212012208E5021215
:10058300012220E5021201222AE502120122DBA444
:1005930003120122E9A40312012201A5031201227D
:1005A30019A503120122ADBA0112012259BB01128E
:1005B3000122D4BB01120122F5BC0112012231BD7B
:1005C30001120122DABD01120122C1BE0112012270
:1005D30025C0011201227CC001120122FDC00112BB
:1005E3000122EDC1011201223AC201120122C0C24D
:1005F30001120122F2C20112012206C501120122D7
:1006030048C50112012266C501120122E9C5011282
:100613000122BDC60112012285C70112012209CAA6
:1006230002120122DCCA0212012285CB021201222C
:10063300D8CB0212012288CC0212012214CD02125D
:10064300012200CE021201222FCE0212012242CF3A
:10065300021201228ACF021201225FD0021201226A
:100663009BD002120122B7D002120122EFA603127D
:100673000122C8FB02120122DEFB0212012204FC4A
:100683000212012220FD021201222AFD021201227E
:100693005FFE0212012257FF02120122CDDB02127A
:1006A3000122FDDC0212012230DD021201227ADD79
:1006B3000212012241DF02120122BEAA011201220B
:1006C30028AB0112012287AC0112012297AC01125F
:1006D3000122C4AC011201221BAD01120122C4ADDF
:1006E30001120122CBAE0112012295AF01120122A8
:1006F300F5B00112012238B101120122DDB101125C
:1007030001222AB20112012250B2011201225EB467
:100713000112012263B40112012268B601120122FF
:10072300B5B60112012228B7011201225BB70112EB
:100733000122FDB701120122A6B801120122DEB87F
:1007430001120122E1B80112012229B90112012289
:1007530069B901120122C0B9011201225093031297
:100763000122689303120122B09303120122C6935C
:10077300031201220D940312012221950312012277
:10078300AE9503120122F99503120122B826001235
:100793000122C42600120122FF260012012244274F
:1007A300001201220428001201228A2800120122C9
:1007B300EF28001201221B290012012254290012E2
:1007C3000122922B00120122762D001201225C2FAE
:1007D300001201229F3000120122ED320012012289
:1007E300FF33001201224A35001201225A36001249
:1007F3000122773600120122B23600120122D436CA
:1008030000120122373700120122F83B00120122A5
:100813008D3C00120122DE3C00120122053D001234
:100823000122573D00120122753D00120122CF3DE6
:1008330000120122B83E001201222E4000120122B2
:10084300B240001201229AD602120122A4D6021249
:100853000122E7D60212012202D70212012292D705
:1008630002120122BAD702120122F7D70212012281
:100873002ED80212012257D802120122CCD802121A
:100883000122E1D802120122F6D80212012227D94D
:10089300021201223BD90212012260D90212012263
:1008A3009AD902120122C6D902120122FED90212DA
:1008B30001225DDA02120122DCDA0212012207DBD5
:1008C3000212012250DB021201227ADB0212012200
:1008D300A5DB02120122EBA003120122E99A021204
:1008E3000122179B02120122659C02120122459DDF
:1008F30002120122649D02120122E19D02120122D1
:10090300249E021201227A9F021201223BA00212AC
:100913000122C2A20212012263A30212012259A4DC
:100923000212012256A502120122B0A602120122CE
:100933003BA7021201228A7E00120122F37E0012DB
:100943000122477F001201226E7F001201229F7F46
:1009530000120122F0EE021201225DEF02120122C7
:10096300A4EF02120122BCF002120122B8F102121A
:1009730001229BF202120122F6B10212012238B2C5
:10098300021201220AB302120122E3B3021201226C
:10099300DDB402120122BFB50212012228B60212EF
:1009A3000122DEB60212012252B702120122BEB7A1
:1009B30002120122E7B70212012261B802120122D8
:1009C300FAB8021201225FB90212012274B90212AB
:1009D3000122BAB902120122D3B90212012238BA92
:1009E300021201223BBA0212012257900312012282
:1009F3007F9003120122BD90031201227B91031207
:100A03000122E29103120122FE9103120122269296
:100A1300031201225692031201226592031201224C
:100A2300E29203120122089303120122276E00129D
:100A33000122057000120122377200120122737223
:100A430000120122A072001201228A7300120122F5
:100A5300D573001201222074001201223274001295
:100A63000122727400120122A77400120122F5748C
:100A7300001201222475001201224775001201227F
:100A830094750012012219760012012233780012A4
:100A93000122727A00120122B37A00120122557CDC
:100AA30000120122967C00120122097D001201220C
:100AB3005A7D00120122357E001201225F7E001250
:100AC3000122D48D02120122D28E021201226B95D1
:100AD300021201228C97021201225799021201225B
:100AE300BF9A02120122194100120122C8410012C9
:100AF30001220E42001201224443001201227243DA
:100B0300001201220845001201228245001201222F
:100B13009D4500120122184600120122724700125D
:100B23000122D24800120122D84900120122394B76
:100B330000120122524B00120122B04B001201227B
:100B43009E4C00120122D14C00120122414D001291
:100B53000122BB4D00120122054E00120122CF4E8D
:100B630000120122A44F001201228350001201221D
:100B73000E51001201227C5100120122F051001289
:100B830001221B5200120122DA52001201223F54A9
:100B9300001201225C54001201227B540012012234
:100BA3006C5500120122915500120122BB5500120F
:100BB3000122365600120122905600120122F957E3
:100BC30000120122A75800120122E8580012012244
:100BD3000080021201224E80021201225A80021268
:100BE30001223881021201226981021201229A81B3
:100BF300021201221A8202120122528202120122DD
:100C0300A48202120122E18202120122FE84021254
:100C130001222487021201220F8902120122F98A7A
:100C230002120122AD2600120122AB96011201220B
:100C3300DB9601120122B49D01120122399F011298
:100C4300012236A5011201221EA6011201225BA672
:100C5300011201227EA601120122AFA60112012276
:100C6300B8A601120122C2A601120122B0A70112E5
:100C73000122A6A801120122185900120122175DB0
:100C8300001201221D5D001201225864001201228C
:100C9300716900120122058703120122FF870312E3
:100CA3000122738803120122B188031201222589CC
:100CB300031201229E8903120122A7890312012232
:100CC300B38903120122C88903120122068A03127F
:100CD30001221C8A031201225DF3021201226AF32C
:100CE3000212012284F302120122C3F3021201222F
:100CF30001F40212012266F4021201227BF40212B1
:100D0300012286F40212012293F402120122AAF4B0
:100D130002120122B8F402120122C3F402120122C8
:100D2300CFF402120122DEF402120122E9F40212CC
:100D330001220CF502120122B3F502120122C3F5BE
:100D430002120122DDF502120122FAF5021201223A
:100D530016F6021201223BF60212012246F6021295
:100D630001225BF6021201226FF602120122D0F673
:100D730002120122D6F602120122DCF6021201222D
:100D8300E2F602120122FAF6021201222DF70212F2
:100D930001220FD80112012293D80112012242D954
:100DA30001120122A1DA01120122C2DC0112012285
:100DB300AEDD01120122E3DD0112012205DE011283
:100DC3000122B4DE01120122ACE001120122D5E0BE
:100DD3000112012267E10112012299E101120122AC
:100DE300A6E101120122FDE10112012223E2011217
:100DF300012290E40112012293E501120122EBE5A5
:100E0300011201229EC901120122A8CA0112012264
:100E13008FCB0112012299CB01120122BBCB01120C
:100E23000122C7CB0112012260CD011201228FCD15
:100E330001120122ABCE0112012204CF01120122C1
:100E43006AD00112012249D101120122A5D1011256
:100E5300012212D2011201224DD2011201228CD29F
:100E63000112012245D5011201225FD5011201228F
:100E7300EBD501120122F9D50112012252D601123A
:100E8300012260D601120122D3D60112012237D7E3
:100E93000112012281D7011201221EF40112012243
:100EA30040F40112012266F6011201227BF90112BC
:100EB300012293FA0112012246FB0112012228FCAE
:100EC30001120122479C031201226C9C031201228E
:100ED300DE9C031201228FC20212012298C2021267
:100EE3000122A1C20212012278C30212012229C5E2
:100EF300021201225FC50212012299C502120122C8
:100F0300CFC50212012209C6021201223DC60212F6
:100F1300012269C602120122B2C602120122ECC6E4
:100F23000212012235C7021201228DC702120122C9
:100F3300C2C7021201221DC80212012257C802129F
:100F43000122A8C802120122DEC80212012218C916
:100F53000212012246C90212012269C902120122A8
:100F63004CFF0112012278FF01120122D3FF01126B
:100F73000122DDFF01120122EDFF011201222CD11A
:100F83000212012236D10212012274D1021201226D
:100F9300BDD102120122F7D10212012251D2021253
:100FA300012272D2021201227BD202120122CCD27E
:100FB30002120122F5D202120122FFD202120122F1
:100FC3006BD302120122F9D30212012247D4021277
:100FD30001227DD40212012204D50212012244D53A
:100FE300021201227CD5021201228ED502120122A5
:100FF300ADD502120122B6D50212012270D6021219
:10100300012208A3031201228E9803120122C4981D
:1010130003120122FA9803120122539A03120122A6
:1010230073A70312012289A70312012293A70312B4
:101033000122DDA703120122AAF702120122C3F73C
:101043000212012267F802120122A7F802120122FA
:10105300C0F802120122F4F80212012241F902122D
:10106300012275F902120122B7F902120122BBFB18
:101073000212012202A4031201222BA40312012251
:1010830054A40312012296A4031201224C8A0312D0
:101093000122718A031201229D8A03120122DDA813
:1010A30003120122888201120122EC84011201221F
:1010B3009E860112012290870112012215880112D6
:1010C3000122938801120122C08801120122E48BBC
:1010D300011201225E8C011201224D8D01120122A7
:1010E300878D01120122C78D01120122818F011206
:1010F3000122D48F011201221D90011201228B9033
:1011030001120122BD9001120122D5900112012288
:10111300EA9101120122FA91011201222A9301128A
:1011230001224C930112012282930112012227957D
:1011330001120122669501120122869601120122F3
:10114300B2A503120122C3A50312012294A803121C
:101153000122D3A803120122E57F0012012261FFBD
:101163000212012271FF0212012289FF02120122DF
:10117300F1FF0212012204A20312012289A2031227
:101183000122EFA203120122739F031201229C9FEB
:101193000312012207A00312012258A00312012205
:1011A300B1A00312012264EA021201227BEA0212B5
:1011B3000122F4EA02120122CDEB021201228BEE8C
:1011C30002120122968303120122268403120122B2
:1011D300A484031201222D8503120122C285031266
:1011E30001224C86031201225686031201226586D0
:1011F300031201227B86031201228E86031201222F
:10120300EE860312012202870312012268A603124B
:101213000122D2A603120122E4A603120122EC9DAD
:1012230003120122419E03120122AF9E03120122E7
:101233001F9F031201222396031201224D960312CC
:1012430001222297031201221698031201225FBA88
:10125300021201221CBB0212012257BB02120122FD
:101263007FBB02120122E1BB021201222DBC02123A
:10127300012286BC0212012217BD0212012219BEED
:1012830002120122D6BF0212012258C00212012209
:10129300BDC002120122D4C002120122E4C1021213
:1012A300012222C20212012239E601120122C3E9FC
:1012B300011201224BEB01120122A2EB01120122C6
:1012C300C1EB011201223FEC01120122DDED0112FB
:1012D3000122C1EE01120122ABF2011201227BF3C2
:1012E300011201225D8D031201228C8D0312012252
:1012F300A28D03120122EA8D031201222C8E031206
:101303000122978E03120122668F03120122D28FCC
:1013130003120122B1E502120122E7E702120122C0
:101323008BE80212012286E902120122AFE90212BE
:1013330001221CEA021201220080031201224580CD
:10134300031201226280031201221381031201227C
:101353006681031201224182031201225D8303127B
:10136300012224A90312012250A903E06670100888
:10137300A3E066700A08A3E066700408A3E066228F
:10138300C3E7960809E7960809E7960809E796224E
:10139300C3E09608A3E09608A3E09608A3E096228C
:1013A300C008C3E096F50808A3E096420808A3E046
:1013B30096420808A3E09645087001D3D008220896
:1013C3000808EAC0E0EBC0E086F0E7A4FA18098653
:1013D300F0E7A42AFA180986F0E7A42AFA1809867E
:1013E300F0E7A42AFA1986F0E7A4FBE5F02AFA1934
:1013F3000886F0E7A42BFBE5F03AFA190886F0E734
:10140300A42BFBE5F03AFA18180986F0E7A4C5F017
:101413002BFBE43AFA1908E7C5F0C6A426F6E5F073
:101423003BFBE43AFA1886F0E7A4F6E5F00826F663
:10143300E43B08F6E43A08F6D0E0FBD0E0FA22E415
:10144300CFC0E0E4CEC0E0E4CDC0E0E4CCC0E075C2
:10145300F020E626F608E633F608E633F608E63328
:10146300F6181818EC33FCED33FDEE33FEEF33FFC3
:10147300C3EC9709ED9709EE9709EF9719191940EE
:101483000FFFEC97FC09ED97FD09EE97FE1919067E
:10149300D5F0BFECF709EDF709EEF709EFF71919E6
:1014A30019D0E0FCD0E0FDD0E0FED0E0FF226016D2
:1014B300080808C6C313C618C613C618C613C61829
:1014C300C613C6D5E0EA2270090808082260161878
:1014D3001818C6C333C608C633C608C633C608C6FB
:1014E30033C6D5E0EA22E627F60809E637F6080907
:1014F300E637F60809E637F622E026F608A3E036D3
:10150300F608A3E036F608A3E036F622E026F00854
:10151300A3E036F008A3E036F008A3E036F022C3D8
:10152300E697F60809E697F60809E697F60809E646
:1015330097F622C3E096F008A3E096F008A3E0969E
:10154300F008A3E096F022E657F60809E657F608F6
:1015530009E657F60809E657F622E056F608A3E02F
:1015630056F608A3E056F608A3E056F622E056F036
:1015730008A3E056F008A3E056F008A3E056F022D3
:10158300E0F608A3E0F608A3E0F608A3E0F622E6F7
:10159300F008A3E6F008A3E6F008A3E6F022E0FAD9
:1015A300A3E0FBA3E0FCA3E0FD22EAF0A3EBF0A39E
:1015B300ECF0A3EDF022E0F8A3E0F9A3E0FAA3E056
:1015C300FB22E8F0A3E9F0A3EAF0A3EBF022CAC000
:1015D300E0E6F0A308DAFAD0E0FA22CAC0E0E0A31A
:1015E300C582CCC582C583CDC583F0A3C582CCC5D6
:1015F30082C583CDC583DAE6D0E0CA22C3E498F876
:10160300E499F91216408026C3E49AFAE49BFBE9B5
:1016130020E7E9121640E498F8E499F922C3E49824
:10162300F8E499F9121640E498F8E499F9C3E49AB6
:10163300FAE49BFB22EB20E7CFE920E7E0B90010B7
:10164300BB0008E88AF084F8AAF022E4FBC8FA2277
:10165300EB70227B10C833C8C933C9335007C39A10
:10166300C3DBF280069A50012ADBEAC833F4C8C907
:1016730033F4C9FA2275F008E4C833C8C933C9334F
:10168300C99AC99B5004C92AC93BD5F0ECFBC8339E
:10169300F4C8E4C9FA22600D08C6A2E713C618C647
:1016A30013C6D5E0F322600C08C6C313C618C613CD
:1016B300C6D5E0F422700422600D18C6C333C608F1
:1016C300C633C6D5E0F41822251810AF08F5184024
:1016D3000C15198008F51840021519D2AF2200C065
:1016E300D0251810AF08F518500C05198008F51807
:1016F30050020519D2AFD0D0222518F58210AF08B9
:10170300F518400C15198008F51840021519D2AFC9
:10171300851983222518F582E43519F583222518C6
:10172300F8E43519F9222518FAE43519FB222518AE
:10173300FCE43519FD22E4732518C582C0E0E519E0
:1017430034FFC583C0E0E518C3958224F810AF08C1
:101753008583198582188008858319858218D2AFFD
:10176300CEF0A3E520F0A37808E608F0A3DEFAEFB5
:10177300F0A3E58124FAF8E608F0A3E608F0A3E66F
:1017830008F0A30808E608F0A3E608F0A3158115FE
:1017930081D0E0FED0E0F8158115811581E8C0E025
:1017A300EEC0E0222518C582C0E0E51934FFC583E9
:1017B300C0E0E518C3958224F910AF088583198525
:1017C30082188008858319858218D2AFCEF0A3E5ED
:1017D30020F0A37808E608F0A3DEFAEFF0A3E58192
:1017E30024FBF8E608F0A3E608F0A30808E608F0EF
:1017F300A3E608F0A315811581D0E0FED0E0F8152B
:10180300811581E8C0E0EEC0E02285198385188246
:10181300E0A3FEE0A3F5207808E0A3F608DFFAE0F2
:10182300A3FFE0A3C0E0E0A3C0E0E0A3C0E0E0A327
:10183300C0E0E0A3C0E010AF08858218858319805B
:1018430008858218858319D2AFD083D08202011F05
:10185300851983851882E0A3FEE0A3F5207808E0CC
:10186300A3F608DFFAE0A3FFE0A3C0E0E0A3C0E033
:10187300E0A3C0E0E0A3C0E010AF08858218858331
:10188300198008858218858319D2AFD083D082222C
:10189300C0D02518C582C0E0E51934FFC583C0E078
:1018A300E518C3958224F310AF0885831985821840
:1018B3008008858319858218D2AFC8F0A3E9F0A305
:1018C300EAF0A3EBF0A37908E709F0A3D8FAECF068
:1018D300A3EDF0A3EEF0A3EFF0A3D0E0F0A3D0E0EC
:1018E300F0A3D0E0F0A3E520F0A3E5F0F0A3228578
:1018F3001983851882E0C0E0A3E0F9A3E0FAA3E02E
:10190300FBA37808E0F608A3DFFAE0FCA3E0FDA35D
:10191300E0FEA3E0FFA3E0C0E0A3E0C0E0A3E0F5A6
:10192300D0A3E0F520A3E0A3F5F010AF0885831959
:101933008582188008858319858218D2AFD082D01A
:1019430083D0E0F8D0E0327404800674028002741D
:1019530001C0E0F4041216FCD0E01215D122740485
:10196300800474028000CCC0E0EDC0E0E518C39CA5
:10197300CCAD1950011D10AF068C188D1980068C43
:10198300188D19D2AF1215DED0E0FDD0E0FC22D0C5
:1019930083D082E9C0E0E493A3C386F0C5F095F059
:1019A300F908E493A386F0C5F095F0700BE493A3D4
:1019B300C3994005E9048002A3E475F002A42582DB
:1019C300F582E5F03583F583D0E0F9E493A3C0E035
:1019D300E493C0E022D083D082ECC0E0EDC0E0E429
:1019E30093A3FCE493A3FDED4C600D121A24EC24A5
:1019F300FFFCED34FFFD80EFE493A3FCE493A3FD30
:101A0300ED4C600D121A63EC24FFFCED34FFFD80F6
:101A1300EFD0E0FDD0E0FCE493A3C0E0E493C0E0AA
:101A230022C0E0C3E49396087401939618400FE430
:101A33009366700808740193661870007019A3A365
:101A4300C3E49396087401939618A3A3400DD0E0C2
:101A5300D0E0D0E0021A14A3A3A3A3A3A3D0E0224F
:101A6300C0E0C0F088F0E4936670080874019366E0
:101A7300187000A8F0A3A3700BD0F0D0E0D0E0D092
:0B1A8300E0021A14A3A3D0F0D0E02270
:101A900074F51217A7EAFEEBFFEE2434F8EF3400DA
:101AA000F988088909EE2435F582EF3400F583E0E2
:101AB000F8EE2437F582EF3400F583E0F50AEC8583
:101AC0000AF0A4FCAAF0850AF0EDA42AFDE82CF89F
:101AD000E43DF97A257B00121640EA8508828509E3
:101AE00083F0F8740758F97401B900028004C33315
:101AF000D9FCFAE8131313541FF8EE28F8EF34005A
:101B0000F9E8245DF582E93400F583E05A6008EED7
:101B10002434F582EF802CEE2434F582EF3400F586
:101B200083E0C0E0EE2436F582EF3400F583E0F583
:101B3000F0D0E084A8F0EE28F8EF3400F9E824387B
:101B4000F582E93400F583E0F97F0402185374F557
:101B50001217A7EAFEEBFFEE2434F582EF3400F50E
:101B600083E0C0E0EE2435F582EF3400F583D0E069
:101B7000F08E828F83A3A3A3A3A3A3A3C082C08359
:101B80008E828F83A3A3A3A3A3E0F8A3E0F9D0835D
:101B9000D082E0C398F508A3E099F509EE247FF51B
:101BA00082EF3400F583E064017069EE2480F582F1
:101BB000EF3400F583E0F8A3E0F98E828F83A3A3CE
:101BC000A3A3A3A3A3E0FCA3E0FD8E828F83A3A322
:101BD000A3A3A3E0FAA3E0FBC3EA9CEB9D5010C3D0
:101BE000EC98ED99402EC3EA98EB995027800EC3EC
:101BF000EA98EB994007C3EC98ED9940177CDC7D9F
:101C000004EEFAEFFB120B82EE247FF582EF340034
:101C1000F583E4F0EE2434F8EF3400F9E8FCE9FD54
:101C2000EE2435F582EF3400F583E0F8EE2437F545
:101C300082EF3400F583E0F50AE508850AF0A4F5A3
:101C400008AAF0850AF0E509A42AF509E82508F8AC
:101C5000E43509F97A257B00121640EA8C828D83DF
:101C6000F0F8740758F97401B900028004C333D93D
:101C7000FCFAE8131313541FF8EE28F8EF3400F9B8
:101C8000E8245DF582E93400F583E05A6008EE242B
:101C900034F582EF802CEE2434F582EF3400F583A6
:101CA000E0C0E0EE2436F582EF3400F583E0F5F095
:101CB000D0E084A8F0EE28F8EF3400F9E82438F5F5
:101CC00082E93400F583E0F91225A5021B49C082A0
:101CD000C083851882851983E0F8A3E0F9C3EA9CE4
:101CE000EB9D5010C3EC98ED99401BC3EA98EB991B
:101CF0005014800EC3EA98EB994007C3EC98ED9915
:101D00004004790180027900D083D08222EAC39C0A
:101D1000FAEB9DFB2274EF1217A79003A2E0640870
:101D20006005E06407702A9061C8E060249003D0E9
:101D3000E0F4601DE0F875F003A4C8AAF02AF97475
:101D4000D228FE740339FF8E828F83A3A3A3E07091
:101D500003021E45906060E0C0E0EE2468F582EF6B
:101D60003400F583D0E0F0750C45750D057508005D
:101D7000750900E5D914F50AE5D95403F50E601785
:101D80007403650E605CE50A6010EE2467F582EF6F
:101D90003400F583E07003021E2A900540E06401E0
:101DA000602AEE2482F582EF3400F583E060047847
:101DB0000480027800850A08E508C398FA95E0FBDC
:101DC000120A3E8A088B09EA45097005120D7480D3
:101DD00074EE2482F582EF3400F583E070048A0CFF
:101DE0008B0DE50A6012850C82850D83F50BE5D914
:101DF000F0A3150BE50B70F6EE2482F582EF3400AC
:101E0000F583E0604474FC250AF50A780C12194E3B
:101E1000AC0AA90EEEFAEFFB120C1E74021216E1C8
:101E2000E97026AA08AB09121224793D8E828F83AD
:101E3000A3A3A3A3E0FA7B00120912EEFAEFFB12B0
:101E40000B9A120C30790080747403650E6056850D
:101E50000A10751100781012194EAC0CAD0DAA08BD
:101E6000AB09120BFA74021216E1EE2468F582EF48
:101E70003400F583E064807004747F8001E0F50C29
:101E8000780C121952E50EF50C780C121952A90AA9
:101E9000AC08AD099003D0E0FA7B001208D67402BA
:101EA0001216E180139003A2E06408600BAC0CAD45
:101EB0000DEEFAEFFB120C8A120D8079017F0A02F7
:101EC000185374F51217A774FC1216CBEAFEEBFF39
:101ED0008908A2AFE433F509C2AF806AEE2463F843
:101EE000EF3400F97A007B00A2AFE433F50AC2AF09
:101EF00088828983E0FCA3E0FDEC4D603A8882890A
:101F000083E0FAA3E0FB8A828B83E0FCA3E0FD88F8
:101F1000828983ECF0A3EDF08A828B83E4F0A3F056
:101F200088828983E0FCA3E0FDEC4D700A888289F9
:101F300083A3A3E4F0A3F0E50AA2E092AF12122477
:101F40009004E3E004F0EE2463F582EF3400F583BF
:101F5000E0F8A3E0F9E849603DEE2463F582EF3450
:101F600000F583E02402FAA3E03400FBEA2402F542
:101F70000AEB3400F50B780A12194E8A828B83E043
:101F8000FCA3E0F9EEFAEFFB120BBE74021216E1AD
:101F9000E97003021EDC9004E3E060639004E4E077
:101FA000F89004E3E0C398500C74026508705090F8
:101FB00004E5E0604A8E828F83A3A3A3A3E0851883
:101FC00082851983F0A3E4F09004E3E0F874021230
:101FD0001717E8F0A3E4F09004E3E0F89004E2E0DF
:101FE00028F07402121717AC82AD83851882851908
:101FF00083AA82AB8379011208E29004E3E4F0E55E
:1020000009A2E092AF74041216E1021B490000001D
:102010008521878522C622C0E0C0D0E8C0E0E9C0A3
:10202000E0EAC0E0EBC0E0ECC0E0EDC0E0EEC0E014
:10203000C008C009C00AC00BC082C083C0F0A2AFF4
:10204000E433FEC2AF759B00906182E0A2E05012C3
:10205000E591A2E0500C7591FE74016521700312A8
:102060001D15E0A2E55051E591A2E5504B7591DFB9
:102070009003A2E064076005E064087023740165C2
:1020800021703579019003D0E0FA75F003A4CAA855
:10209000F028FB74D22AFA74033BFB121EC280188C
:1020A000E0640D70139003C4E004F064287002E44F
:1020B000F07A00E0F9120D86906182E0A2E640031A
:1020C00002215EE591A2E6400302215E7591BF9078
:1020D00003A2E064057008120CB4120CC080031255
:1020E0000CBA752100120D14E99003A3F0790012C7
:1020F0000D08120AF27A017B009003A1E0F9120F99
:10210000D8907803E064427055900544E014F07074
:102110004DC2AF12211600782AD0E0F618D0E0F6B2
:10212000E59F540770057509FF800375097FC4C0DA
:10213000E07829E6F50808E65509F509740B7808F2
:102140001216A9D0E02508F8906270E0A2E740F8E6
:10215000E8C333906272F0906270E0D2E0F0906178
:1021600081E0A2E35009E5E9A2E3500375E9F7A392
:10217000E0A2E75009E591A2E7500375917FEEA236
:10218000E092AFD0F0D083D082D00BD00AD009D06B
:1021900008D0E0FED0E0FDD0E0FCD0E0FBD0E0FADB
:1021A000D0E0F9D0E0F8D0D0D0E032C0E0C0D0C06C
:1021B00082C083906183E0A2E05009E5BFA2E050B5
:1021C0000375BFFEE0A2E15009E5BFA2E15003752F
:1021D000BFFDE0A2E25009E5BFA2E2500375BFFBDC
:1021E000E0A2E35009E5BFA2E3500375BFF7E0A208
:1021F000E45009E5BFA2E4500375BFEFE0A2E5504B
:1022000009E5BFA2E5500375BFDFE0A2E65009E58E
:10221000BFA2E6500375BFBFD083D0828088C0E0E4
:10222000C0D0E8C0E0E9C0E0EAC0E0EBC0E0ECC04C
:10223000E0EDC0E0C0F0E5A7A2E6500FE5A1A2E600
:10224000500953A7BF75A1BF122283E5A7A2E5508D
:102250000CE5A1A2E5500653A7DF75A1DFE5A7A213
:10226000E15009E5A1A2E1500375A1FDE5A7A2E2B5
:10227000500CE5A1A2E2500653A7FB75A1FBD0F0DC
:1022800002219474F81217A77521019003A2E0644B
:10229000067015120C4E8A828B83A3A3A3A3A3A35B
:1022A000E0FAA3E0FB120CA2A2AFE433FED2AF909F
:1022B00003A8E0640170187A207B009003A1E0F984
:1022C00012105C7A207B009003A1E0F9120FDE90DF
:1022D0006182E0D2E6F0900541E0602185C622806F
:1022E000169003A7E064017008E5C654F84405F5AC
:1022F000C653BEFC1220107401652160E4EEA2E01A
:1023000092AF7F01021853008E238F248582288587
:102310008327851882851983E0CEA3E0CF852882A4
:10232000852783EBC9EAC8EDCBECCA75F010C3E88A
:1023300033C8E933C9EA33CAEB33CBC3EA9EF52687
:10234000EB9FF525B35004AB25AA26EC33CCED3337
:10235000CDD5F0DAAE23AF242274ED1217A78A0888
:102360008B098C0A8D0B7413121717780C121583B6
:102370007808790C1213837510017511C875120055
:1023800075130050127808790C121522781079080C
:1023900012138350168010780C79081215227810C9
:1023A000790C12138340047901800279007F0C02BA
:1023B000185374ED1217A78A088B098C0A8D0B74B9
:1023C00013121717780C121583780C7908121383DF
:1023D00040117808790C121522AA08AB09AC0AAD95
:1023E0000B802275100075110075120075130178AD
:1023F00010790C121522781079081214E9AA10AB82
:1024000011AC12AD1380A68A828B837508FF750903
:10241000FF750AFF750B0078081215707F0402180B
:102420005374F51217A78C828D8378081215838A4E
:10243000828B837808121536EA2404F8EB3400F90D
:102440008C828D83A3A3A3A3E0FCA3E0FD888289F3
:1024500083C3E09CF0A3E09DF088828983C3E0946D
:1024600020A3E0944E40268A828B837508FF75096D
:10247000FF750AFF750BFF780812150F8A828B8390
:10248000A3A3A3A3E02420F0A3E0344EF00224078A
:1024900074F51217A7E9FE9004F7E0FAA3E0FBEE4B
:1024A000C333F8E433F9748128F582748139F583F4
:1024B000E02AF508A3E03BF509780812194E7A40A6
:1024C0007B427C0F7D0012230874021216E18A08F9
:1024D0008B098C0A8D0B741078081214B1AA08AB02
:1024E000097F0402185374F11217A78A0C8B0D8C04
:1024F0000E8D0F740F121717E0FAA3E0FB74111280
:102500001717E0F508A3E0F509780812194EEA2438
:1025100001F508EB3400F509E4F50AF50B780C79C0
:10252000081213C2750871750902780C7908121324
:10253000C2AA0CAB0DAC0EAD0F122308740212161A
:10254000E18B09EA450960047A0180027A00EC2AED
:10255000FCED3400FD7413121717E0F8A3E0F9E85E
:10256000FEE9FFECF8EDF97A717B0212164088085B
:1025700089098E828F837808121592ECF8EDF97A2A
:10258000717B021216408A088B09740578081216AE
:10259000B88E828F83A3A3A3A3E508F0A3E509F077
:1025A0007F08021853C082C083E9906000F0D08396
:1025B000D08222C2AF02000022C0E074F21218934F
:1025C000A2AFE433FED2AFC2C0E5D1A2E4500653BD
:1025D000D1EF121206EEA2E092AF7F010218F2C014
:1025E000E074F2121893A2AFE433FED2AFE589A2F1
:1025F000E150031211A0758900C2C5EEA2E092AFAE
:102600007F010218F2C0E074F2121893A2AFE43313
:10261000FED2AFE58BA2E050031211A0758B00C271
:10262000E880D8C0E0C0D0E8C0E0E9C0E0E5A8D2CA
:10263000AFC2C7A2E7A2E792AFD0E0F9D0E0F8D0EE
:10264000D0D0E032C0E0C0D0E8C0E0E9C0E0C008CF
:10265000C009C082C083A2AFE433F9D2AF9009F7BA
:10266000E0F8A3E0687008539AFBA374018025C2C8
:10267000E99009F7E0F50874012508F0747725085A
:10268000F582E43409F583E0F5C19009F7E0C394DD
:10269000804002E4F0E9A2E092AFD083D082D0097A
:1026A000D008D0E0F9D0E0F8D0D0D0E03202011F5D
:1026B000FFFFFFFFFFFFFFFFC082C083E9900CEF29
:1026C000F002294774F712173BE99002E1F07C19F8
:1026D0007D037AFF7BFF12081C9002E274FFF0A3D7
:1026E000F0A3E4F0A3F079051207A49002E1E0F969
:1026F0001206C67A3A7B081209F07F0102180D749F
:10270000F412173B8A088B09EB548060309002E189
:10271000E0F9120FC08A0A8B0BAE0AAF0BEE4F60C6
:10272000138E828F83E064B070031207BCEEFAEF61
:10273000FB120FAEAA08E5096480FB80047A007BD7
:102740000002291674F212173B74FC1216CBEAFE33
:10275000EBFFEE4F60387402121717EEF0A3EF1282
:102760002B7BECF0A3ED122B7BAA82AB831206C06D
:10277000E9F5087073741212171712372FE50A451E
:102780000B60658E828F831227F2EE4F70057508FD
:102790000280557A067B001210148A0C8B0DA80C4F
:1027A000A90DE8497005750813803D88828983E486
:1027B0001227FCA3A3EEF0A3EF123BC8E50AF0A397
:1027C000E50BF09002E71228849002E76017E0FC26
:1027D000A3E08003EAFCEBFD8C828D8312288470D9
:1027E000F38C828D83123654A90874041216E10208
:1027F0003DCAA3A3A3A3E0FEA3E0FF22F0A3F088B9
:102800008289832274F212173B890AE975F017A4B2
:10281000FEAFF09002E6E4F09002E4122884600A31
:1028200012101A9002E4E4F0A3F0EEFAEFFB12109B
:10283000148A088B09EA4509602FEEFCEFFD790048
:10284000120F9C9002E4E508F0A3E509F07B0080FC
:102850000812286EE4F0A3F00BEBC3950A40F2E5F2
:102860000A9002E6F0790080027913023DCAEB7506
:10287000F017A4F8A9F09002E4E028FAA3E0398A5E
:1028800082F583221233EAEA4B2274F412173B7565
:102890000800750900740C121717123B9CFEE9FF23
:1028A000800CE5082401F508E5093400F509C3E5C5
:1028B000089CE5099D503285080A85090B74037848
:1028C0000A1216B8EA250AF8EB350BF988828983D3
:1028D000A3A3A3A3A3A312372FEE650A7003EF658A
:1028E0000B70BFE8FAE9FB80047A007B0080277454
:1028F000F412173B7900EAA2E0501B7508F675093F
:1029000081780812194E7C047D007AF17B0C120745
:102910009E74021216E17F0402180DC082C08390DB
:1029200002E712294E601C88828983A3A3E06A70A3
:1029300003A3E06B8882898370E8A3A3A3A3123367
:10294000E680047A007B00D083D08202011F123E11
:102950009DE8492274EE12173B74FC1216CBEAFE76
:10296000EBFF851882851983E4F0A3F0EE240212B0
:102970003638EE2405122B69EE2404F50EEF122FE3
:102980004EE024FE603924FC604624FE605224FEA2
:10299000605E24FE7003022A6E24FE7003022AE6A3
:1029A00024FE7003022AF524FE7003022B0424FC8B
:1029B0007003022B1324FE7003022B22022B5F9064
:1029C00003007417F0A3E4122B8312043E022B5F62
:1029D000851882851983AC82AD831207C2022B2F22
:1029E000851882851983AC82AD831207C8022B2F0C
:1029F000850C08850D097402121717AC82AD83850A
:102A000008828509831233E61206E48A0C8B0DAC2A
:102A10000CAD0DEC4D6042E4F50CF50D780C12197F
:102A20004E750C00750D03780C12194E750C01755E
:102A30000D03780C12194E740812171712196579C4
:102A4000161233E012080474081216E1E9F50C704E
:102A50000B1233DC120456800F750C018508828539
:102A60000983122B71123654850C08022B32740222
:102A7000121717AC82AD83850C82850D831233E665
:102A80001206E48A108B11AC10AD11EC4D60438539
:102A90000C82850D83A3A3121965751000751103AF
:102AA000781012194E751001751103781012194E15
:102AB000740812171712196579161233E0120804F8
:102AC00074081216E1E9F509700B1233DC12045C8C
:102AD000800F750901850C82850D83122B711236CA
:102AE00054850908804C851882851983AC82AD8392
:102AF0001207CE803A851882851983AC82AD831285
:102B000007D4802B851882851983AC82AD83120788
:102B1000DA801C851882851983AC82AD831207E0A8
:102B2000800D851882851983AC82AD831207E6E992
:102B3000F508E50860298E828F83A3E06414601F86
:102B4000850E82850F83E0900300122B7B123E9945
:102B5000900301123654E508A3122B83120438EEB9
:102B6000FAEFFB120762023540F50CEF3400F50D69
:102B700022123E9D85188285198322F08518828550
:102B8000198322F07C007D03850A82850B83123332
:102B9000EA2274EE12173B74FC1216CB8A0A8B0BD6
:102BA0008C0E8D0FEA2405F508EB3400F5097C1531
:102BB0007D0079007A007B03120F9CE5082402F562
:102BC0000CE509122B6C8518828519838582108586
:102BD0008311781012194E850882850983A3A3A357
:102BE000A312309612194EE5082405F510E50934B4
:102BF00000F511781012194E850C82850D83123361
:102C0000F01206DE74061216E18A108B11AE10AFB8
:102C100011E50A2402F50AE50B12363BEE4F70036C
:102C2000022D58801774021217171233E688828912
:102C300083EAF0A3EBF0900300E004F0900300E0DF
:102C4000C394054003022D58E4F510F511781012D5
:102C5000194E7510E9751102781012194E7510EAA7
:102C6000751102781012194E740612171712196591
:102C70007910EEFCEFFD1233E0120804740812160E
:102C8000E1E9705E850882850983A3A3A3A3A3A3BA
:102C9000A3E0F89002E9E068704812309612194EED
:102CA0007CEA7D02E5082408FAE5093400FB120FEE
:102CB0009674021216E1E960298E828F83A3A3A382
:102CC000A31233E6900300E0F51074027810121698
:102CD000B874012510F58274033511F583EAF0A369
:102CE000EBF0740212171785821085831178101289
:102CF000194E7402121717121965850C82850D83FF
:102D0000123EAE1206EA74041216E18A108B11AE5E
:102D100010AF11900300E0F51075110074027810E7
:102D20001216B874002510F874033511F9888289D9
:102D300083A31228847003022C1CE82403F8E934CE
:102D400000F9EE4F6003022C258882898374FFF01E
:102D5000A3F0900300E004F0900300E0600A123357
:102D6000DC12044A7900800B8508828509831236BB
:102D70004B790A02354074EA12173B74FE1216CBE7
:102D80008C128D13EA2405F50CEB1240181227F66D
:102D9000750800750900EA2402F510EB3400F511FE
:102DA00085188285198385820A85830B780A121912
:102DB0004E850C82850D83A3A3A3A3122F5812194D
:102DC0004EE50C2405F50AE50D12363B780A12197A
:102DD0004E850C82850D83123EAC1206DE740612FF
:102DE00016E18A0A8B0BEA450B7003022F09EA24CD
:102DF00004F50EEB122F4E1227F68A828B83A3A3C3
:102E0000A3E0F98510828511831233E61206CCE91E
:102E1000F5096003022F09E4F514F5157814121969
:102E20004E7514E9751502781412194E7514EA7569
:102E30001502781412194E740612171712196579B3
:102E400013AC0AAD0B8510828511831233E612088C
:102E50000474081216E1E9F5096003022F099002D3
:102E6000E9E0F8E5087009E02402900301F080171A
:102E7000900301E0FCE82402FAE43400FBEA6C7001
:102E800001EB6003022F0D850882AA8212308D9417
:102E9000141230855073850E82850F83E0C0E07474
:102EA000022A122F45D0E0F00508850E82850F8397
:102EB000A3E0C0E085080A7402250A122F45D0E07D
:102EC000F005089002E9122F5812194E7CEA7D0293
:102ED00085080A7402250AFA74033400FB120F8471
:102EE00074021216E19002E9E02508F50874FF6EFD
:102EF000700374FF6F6012EE24010EEF3400FFE5E3
:102F000008C394145003022DA0E50860131232D1B7
:102F10008510828511831233E612045079008014E3
:102F2000E509700375090A851282851383EEF0A303
:102F3000EFF0A90974021216E17F0E02180D850840
:102F40000C7402250CF58274033400F583223400DE
:102F5000F50F850E82F58322123BDB2274EE1217E9
:102F60003B74FE1216CB8C0E8D0FEA2405F50CEB8C
:102F7000122B6C750B00900300E4F0F50AEA2402B2
:102F8000F508EB3400F5098049900300E0FA90025F
:102F9000E9E0F812308D9417123085400D9003004F
:102FA000E0F87416C3989002E9F012309612194EA8
:102FB0007CEA7D0274012AFA74033400FB120F8448
:102FC00074021216E19002E9E0F8900300E028F0A4
:102FD000050AE50C2416F582E50D122F49E0F8E507
:102FE0000AC398400302306E900300E0C394165069
:102FF0007DE50AC333F8E433F9E50C28FEE50D3925
:10300000FF851882851983AC82AD838E828F8312EF
:1030100033E61206E48A108B11AC10AD11EC4D7042
:1030200005750B018043E4F510F511781012194E67
:103030007510E9751102781012194E7510EA7511A4
:1030400002781012194E74061217171219657916A4
:103050008508828509831233E61208047408121663
:10306000E1E9F50B7003022F8912364780107C00CE
:103070007D038508828509831233E6120462A90B59
:103080007402023542E99400C365D03322EA28F87D
:10309000E43400F9E822E0F510751100781022748C
:1030A000EA12173B74FC1216CB8A0C8B0D8C128D16
:1030B00013EA2405F50AEB12363B75080075090082
:1030C000E50A2402F510E50B3400F511740212171D
:1030D0001785820E85830F780E12194E850A828518
:1030E0000B83A3A3A3A3123B8712194EE50A240561
:1030F000F50EE50B3400F50F780E12194E8510828F
:103100008511831236411233E01206DE7406121660
:10311000E18A0E8B0FAE0EAF0FE50C2402F50EE523
:103120000D3400F50F80408882898374FFF0050814
:10313000122F3E74FFF005089002E9E0F50C750DC2
:1031400000780C12194E7CEA7D0285080C74022569
:103150000CFA74033400FB120F8474021216E1900F
:1031600002E9E02508F508EE4F60718E828F83A397
:10317000A3A3E0F9850E82850F831233E61206CCF5
:10318000E9F509EE2404122B69E97044E4F514F51D
:1031900015781412194E7514E97515027814121960
:1031A0004E7514EA751502781412194E7408121728
:1031B000171219657911EEFCEFFD850E82850F83DC
:1031C0001233E612080474081216E1E9F5096027C3
:1031D000850C82850D831232C7123654E5087003C0
:1031E0000232AD1232D1850E82850F831233E61280
:1031F000046879000232C2850882AA82EA9002E954
:103200007009E02404900301F08022E0F8900301AB
:10321000E0F514E82404FCE43400FDEC65147001CE
:10322000ED70C012308D941212308550B6850C822C
:10323000850D83E0C0E074022A122F45D0E0F0052E
:1032400008850C82850D83A3E0C0E0122F3ED0E0FC
:103250001232E385820C85830D780C12194E7404AA
:10326000121717121965851082851183123EAE124E
:1032700006EA74041216E18A0C8B0DAE0CAF0D85B4
:10328000080C7402250CF874033400F9EE4F700337
:10329000023127851882851983E08882898312325A
:1032A000E3A3E0C0E0122F3ED0E0023135E5097023
:1032B0000375090A850A82850B831232C7123654B8
:1032C000A9097404022F36123E9D8512828513834C
:1032D00022900301E0F5F0E50884900300F07C0003
:1032E0007D0322F005088518828519832274EC126B
:1032F000173B74FE1216CB8A088B098C0E8D0FEAD1
:103300002405FEEB3400FF851882851983AC82AD5D
:10331000838E828F831233E61206E48A0A8B0BEEC9
:103320002418122B69EA450B70030233B7123529B2
:1033300050328518828519831233E61207F88A10F5
:103340008B11EA4511606B7912AC0AAD0B850882CE
:103350008509831233E6851082851183121739E9B6
:10336000F50A7058E4F50AF50B780A12194E8E82A8
:103370008F83A3A3E0F50A780A12194EEE240312F4
:103380003638780A12194E8E828F831233F0120863
:103390000A74061216E1E9F50A7021850C82850D82
:1033A00083E0701F8508828509831233E612046E5C
:1033B0008011750A0E8009750A018004E50A600310
:1033C000123647850C82850D83E060047900800207
:1033D000A90A74021216E17F0C02180D7C007D030D
:1033E000850A82850B831233EA22E0FAA3E0FB22EE
:1033F000E0FCA3E0FD8508828509831233EA22748C
:10340000EE12173B74FE1216CB8A088B098C0C8DBA
:103410000DEA2405FEEB3400FF750E008518828549
:103420001983AC82AD838E828F831233E61206E459
:103430008A0A8B0BEA450B700302351512352950A9
:10344000358518828519831233E61207F88A0E8BA8
:103450000FEA450F605E7912AC0AAD0B85088285D4
:1034600009831233E6850E82850F83121739E9F539
:103470000E600302351885088285098312372FAA4A
:103480000AFB1207EC8A108B11A810A911E84970E9
:103490001E7AFF7BFF1207EC8A108B11A810A9116E
:1034A000E849606C88828983E50AF0A3E50BF07532
:1034B0000A008007750E0E805F050A9002E6E0FAAA
:1034C000E50AC39A504AE50A75F017A4FAABF088EA
:1034D000828983A3A3E02AFAA3E03BFB8A828B8341
:1034E000123641EC4D70D2750A17750B00780A122E
:1034F000194EEEFCEFFD120F8474021216E1EEFC81
:10350000EFFD8508828509831233E6120474801466
:10351000750E098003750E01123E95850C82850D8E
:1035200083123654A90E023080E5082402F508E51E
:10353000093400F5098A828B83A3A3A3E0A2E522C4
:1035400074041216E17F0A02180D74EC12173B8CFA
:10355000108D11EA2405F50CEB122B6C750F00EAA7
:103560002402F50AEB12363B850A82F5831233E614
:103570001207EC8A088B09EA4509700302362D759B
:103580000E008071850C82850D83E06401704F8E82
:10359000828F83A3A31219658E828F83A3A3A3A313
:1035A000E0F512751300781212194EEE2405F5128B
:1035B000EF3400F513781212194E1233E012080A94
:1035C00074061216E1E9F50F6014850C82850D83EF
:1035D000E4F0123E958510828511831236547C17D3
:1035E0007D007900EEFAEFFB120F9C8E828F83E450
:1035F000F0A3F0050E9002E6E0F8E50EC398501E29
:10360000E50E75F017A4F8A9F0850882850983A353
:10361000A3124022123641EC4D6003023584850826
:103620008285098374FFF0A3F0E50F70061233E082
:1036300012047AA90F0233D7F50AEF3400F50B22F2
:10364000A3E0FCA3E0FD228E828F83123E9D850EB7
:1036500082850F83E8F0A3E9F022C082C083900244
:10366000E2E06A7003A3E06B70067AE27B028004FA
:103670007A007B00022947C082C08378008C828D4B
:1036800083E06A7003A3E06B7010E875F003A4F8A0
:10369000A9F0EC28FAED39FB8015088C828D83A304
:1036A000A3A3E06A7003A3E06B60DF7A007B0002F3
:1036B000294774F612173B1207B68A828B83E5827C
:1036C000458370067A007B008007A3A3A3A312336F
:1036D000E6023D4674F212173BE9FE740E1217170C
:1036E00012372F7410121717123BA78C828D83E0AC
:1036F00064027036A3123EA3F50CA3E0F9A80C7483
:10370000026870037429697021750C02750D0078C8
:103710000C12194E780812194E780A12194EEEF949
:1037200012082E74061216E180027901023DCAE0E9
:10373000F50AA3E0F50B2274E812173B74FB12168E
:10374000CBE9851882851983F08A168B17ECFEED7C
:10375000FF751000741D121717123E99741D121771
:10376000171236548E828F83A3A3A3E0A2E4502DB8
:10377000741D1217171233E61207F88A828B83E53D
:103780008245837003023B78790AEEFCEFFDAA16AE
:10379000AB17121739E9F5106003023B7B741F1257
:1037A0001717123BA7742112171712372F74231201
:1037B0001717E0F50EA3E0F50F8E828F83E0640209
:1037C0006003023B26A3123E99850882850983A3E4
:1037D000858212858313EE2406122B6988828983E1
:1037E000E0FAA3E0F9EA2400F514E439F5157814B9
:1037F0001219D80100002801281B3807000228E010
:103800003803284D380029173A0129423A0229E3A2
:10381000390329173A0429C13A263BE50E450F60C2
:1038200003023B21850C82850D83123B9CFAE9FB48
:103830008A828B83E0850A82850B83123BD2121920
:103840004E8A828B83A3E0FCA3E0023AABE50E45EF
:103850000F6003023B21850A82850B837401F012FD
:103860003BAF850882850983F07C007D008E828FC6
:1038700083A3A3A3A3E02401FAA3E03400FB120670
:10388000E4EA4B60418A828B83E02402F8850A8255
:10389000850B83E028F0EA2404F8EB3400F98882F1
:1038A0008983E0851282851383123BE4123BD21296
:1038B000194E8A828B83123640E5082403FAE50903
:1038C0003400FB023AB0850A82850B83E02404F0C1
:1038D0007C047D007900AA12AB13120F9C023B7B83
:1038E000E50E450F6003023B21123BAFFEA3E0FF54
:1038F000850A82850B837404F0EE8508828509832E
:10390000F0EF851282851383F07403121717AC82CF
:10391000AD83EEFAEFFB1206E48A0C8B0DEA450D3F
:1039200070030239C48A828B83A3A31227F2740125
:1039300012171785820E85830F780E12194E7405A3
:103940001217171219657CFF7DFF1206EA74041224
:1039500016E18B0FEA450F7033850C82850D8312BB
:103960003B8712194E850C82850D83A31219657C45
:10397000027D007A857B8212051674041216E1E935
:10398000700A740112171774FFF0A3F08E828F83F0
:10399000E064027039750C02750D00780C12194E36
:1039A0008E828F83123640E5082404FAE50934003C
:1039B000FB120F8474021216E1850A82850B83E0E4
:1039C000240280097401121717EEF0A3EFF07401BE
:1039D000121717123B98F07401121717A3123B909D
:1039E000023B1BE50E450F6003023B21850C8285DF
:1039F0000D83123641AA16AB17120822850A82855A
:103A00000B837402F0EA850882850983F0851282AF
:103A1000851383EB023B1EE50E450F6003023B213D
:103A2000123BAFF8A3E0F9850A82850B837402F09C
:103A3000E8850882850983F0E9851282851383026F
:103A40003B1E850C82850D831233E6120F7EEAFC45
:103A50008C82A882C3950EE4950F405FE8650E70D6
:103A600002E50F70047C008022851882851983E0AE
:103A7000FAE50E2AFAE50F3400FBC3EA98EB94004E
:103A80005003E08005E50ECCC39CFCEC850A8285E2
:103A90000B83F08C0A750B00780A12194E850C8284
:103AA000850D83E0250EFCA3E0350FFDAA08AB09C8
:103AB000120F8474021216E1023B7B751007023B61
:103AC0007BE50E450F705A850C82850D83123E9959
:103AD000850A82850B8374071227FE123B901227FA
:103AE000FEA3E0851282851383F0E82402FAE9340C
:103AF00000FB8A828B83123B90123BBF123B98A340
:103B0000123BC8123BA1F0E82405F8E93400F9881B
:103B1000828983123BA1A3123BE4A3A3A3A3F08059
:103B20005A75100B8055741D1217171233E61207C1
:103B3000B68A828B83E5824583603D123E99880C6C
:103B4000890DE8450D6031780E12194E780A121968
:103B50004E780812194E7406121717E0F9EEFCEFB2
:103B6000FDAA16AB17850C82850D831217397406D2
:103B70001216E1E9F510800375100EA910740512F4
:103B800016E17F1002180DE0F50E750F00780E2279
:103B9000E085088285098322123BEE22123E9DE8D1
:103BA00022123BEEA3A322E0F508A3E0F50922854B
:103BB0000C82850D83E0F8A3E0F5838882E022A3E0
:103BC000A3F08A828B83A322F088828983A3A3A394
:103BD000A322F08A828B83123BDB22E0F50A750B6D
:103BE00000780A22F088828983A3123BEE22E085C6
:103BF0000882850983A3A32274EE12173B74FE1278
:103C000016CB8A0A8B0BECFAEDFB7414121717E033
:103C1000F510A3E0F5117416121717E0FE741812D0
:103C20001717E0F50EA3E0F50F851882851983AC10
:103C300082AD831206E48A0C8B0DEA450D6049853E
:103C400018828519831233E61207B68A828B83E5C0
:103C5000824583602FA3A3123BA7E5084509602492
:103C6000780E12194E781012194EEEF9AC0CAD0DFB
:103C7000AA0AAB0B850882850983121739740412CE
:103C800016E18006790E8002790102308074F61206
:103C9000173B74FE1216CB740C121717123B9C853F
:103CA0001882851983F07401121717E9F0E4F508FA
:103CB000F509780812194E750802780812194E7421
:103CC00004121717858208858309780812194E1285
:103CD000080A74061216E174021216E1806874F77D
:103CE00012173BEAFEEBFF89087C197D03120822BC
:103CF000EA5402600BA908EEFAEFFB1206D8800224
:103D000079010226FA74F612173B74FF6A70037485
:103D1000FF6B70168C828D83123D4BE4F08C828D8C
:103D200083A3A3A3123D4BA380181207F28A088B2A
:103D300009A808A909E849600D8882898374FF12DF
:103D400027FCA3A3E4F07F0202180D74FFF0A3F098
:103D50008C828D83A3A32274F612173B1207F28A7A
:103D6000828B83E58245836006A3A3E0FA80027A12
:103D7000007B0080D174F212173B8A088B09ECFE9D
:103D8000EDFF740E121717E0F50A1207F28A0C8B7A
:103D90000DA80CA90DE8497026EEFCEFFD7AFF7B1B
:103DA000FF1207F28A0C8B0DA80CA90DE8497004CC
:103DB0007911801688828983E508F0A3E509F088E7
:103DC000828983A3A3E50AF079007F0602180D74A7
:103DD000EE12173BEAFEEBFF8C088D09890C741478
:103DE000121717123E9974161217171233E6750D33
:103DF00000E8496003023E8D7402650C6003023ED8
:103E0000887412121717123EA3FCA3E0F9EC2400E9
:103E1000F50EE439F50FEAF4F8EBF4F9EC58F8E5AF
:103E20000F59F9E849705CE5082406F8ED3400F90B
:103E3000880A890B8882F583123EAE1208228A1006
:103E40008B11E50E65107004E50F65116042780E68
:103E500012194E850A82850B83123EAE1208287411
:103E6000021216E1E9F50D7027780E12194E850839
:103E700082850983A3A3123EAC1208407402121675
:103E8000E1800D750D808008750D0D8003750D0B9B
:103E9000A90D0235458E828F83123E9D22E0F8A344
:103EA000E0F922123E9D88828983E022A3A3E0FCF0
:103EB000A3E0FDEEFAEFFB2274E812173B74E71261
:103EC00016CB851882851983EAF0A3EBF08C168D4A
:103ED00017890E7508007509007431121717E0F57F
:103EE00012A3E0F5137433121717E0F514A3E0F5ED
:103EF000157435121717E0F50FE50975F003A4F8EE
:103F0000A9F0851882851983124022E0F47003A37A
:103F1000E0F47003024005EE2402F50CEF124018A5
:103F2000E0700302400585160A85170B780A1219FE
:103F30004EAC14AD15AA12AB131207AA74021216D6
:103F4000E18A0A8B0BEA450B7003024005E4F51089
:103F5000F511781012194E74061217178582108504
:103F60008311781012194E74091217178582108563
:103F70008311781012194E851282851383A3A3A38F
:103F8000A31219657914AC0AAD0B8E828F8312339C
:103F9000E612080474081216E1E97069850A828540
:103FA0000B83A3A3A3A3123E997402121717123610
:103FB00054850C82850D83E0A2E05018A90E74028E
:103FC000121717AC82AD838E828F831233E61206EE
:103FD000FCE94208850C82850D83E0A2E15026E5CC
:103FE0000FF50A780A121952A90E7403121717ACAA
:103FF00082AD838E828F831233E61206F67401122D
:1040000016E1E942080509E509C394025003023E9E
:10401000F9A9087419023B7F3400F50D850C82F56F
:104020008322E028FEA3E039FF8E828F832274F280
:1040300012173BEAFEEBFF890B7401650B600E74EF
:1040400002650B706A7901120A0EE97062EEFAEFEE
:10405000FB1207EC8A088B09EA45096047750A00DC
:10406000800B7C177D007900120F9C050A9002E6F8
:10407000E0F8E50AC3985021E50A75F017A4F8A9FD
:10408000F0850882850983A3A3E028FAA3E039FB21
:104090008A828B8312294E70C985088285098374B0
:1040A000FFF0A3F07C197D03EEFAEFFB12081C026F
:1040B0003DCA74F212173B8A088B09ECFEEDFF74BF
:1040C0000E12171712372F900CEFE0F4603D7A09AB
:1040D0007B00120FA8EA4B60328A828B8374B1F0A6
:1040E000A3E4123BC1A3123BBFA3E508F0A3E5097B
:1040F00012410EEEF0A3EF12410EA3A3E50AF0A3C6
:10410000E50BF0900CEFE0F9120FB4023DCAF08A13
:10411000828B83A3A3A3A3A322C082C083906190B8
:104120007404F0A37448F0A37402F09061807440AA
:10413000F09061BC7403F09061877419F09062652F
:10414000741BF0906249E0C3941390619C400A7420
:1041500009F090606674018007740DF0906066E469
:10416000F090619A7433F0A37455F09061A0743AA2
:10417000F090053FE064017009C2919003A6746756
:1041800080059003A67461F09026B6E49390618652
:10419000F09026B0E493F46027E493540FF8906114
:1041A00085E0686012E5C654804449F5C6E59E5432
:1041B0007F644970F8E8F053C680E59E547F70FA3A
:1041C0007905120D6802436BC082C083E5A8F853DD
:1041D000A87E906181E4F0A3F0A3F0C2BA539AFEE6
:1041E000C289759B00C2C275E90075910075BF0058
:1041F00075A91175B905906181F0A374C0F0A3E4AD
:10420000F0D2BA439A0174805842A802436BC0822C
:10421000C08374F81216CB9003A4E0F8A3E0F9E889
:1042200049700302433C9003A4E0544060237908A2
:10423000851882851983AA82AB83120BDC851882CC
:10424000851983AA82AB831208BE9003A4E054BFF1
:10425000F0E054806010790C7A657B05120BDC90DD
:1042600003A4E0547FF0E0A2E0503190619A7433EF
:10427000F0A37455F09061A0743AF090053FE064AB
:10428000017009C2919003A6746780059003A6741B
:1042900061F01208C49003A4E054FEF0E054026000
:1042A0003190619A743FF0A3745AF09061A0747FCA
:1042B000F090053FE064017009D2919003A67471FB
:1042C00080059003A6746AF01208C49003A4E05419
:1042D000FDF0E0540460139026B4E493906186F0FE
:1042E0001208CA9003A4E054FBF0E0540860139055
:1042F00026B5E493906186F01208CA9003A4E054B6
:10430000F7F0E0541060139026B6E493906186F0C5
:104310001208CA9003A4E054EFF0E05420600A129F
:1043200008CA9003A4E054DFF0A3E05401600D122A
:104330000B041208D09003A5E054FEF07408121686
:10434000E102436BC082C083E9600814600A146014
:104350000C80139026B480089026B580039026B672
:10436000E493906186F08003F0A3F0D083D08202C2
:10437000011F74EC12173B74F41216CB851882855A
:104380001983AC82AD8375838275822574041215FE
:10439000DE9026B493F460030244FE907808E0C3F4
:1043A000940250030244DE7404121717AC82AD83EA
:1043B0007583817582E874081215DE851882851967
:1043C000838582128583137404121717AC82AD8320
:1043D000750EFF750FFF7FFF7E00750C48750D7819
:1043E000801574086E700302447274096E700302C3
:1043F0004472740A6E607B850C82850D8378081286
:1044000015838C828D83A909E50AC9F88810741870
:1044100078081214B1E5104508F8C3E098A3E099B4
:10442000850C82850D83780812158340188C828D47
:1044300083741878081214B1E5104508F8E0C398A1
:10444000F8A3E0801C741878081214B1E510450830
:10445000FAE9FB8C828D83E0F8A3E0F9EAC398F8CF
:10446000EB99F9C3E8950EE9950F5006880E890F70
:10447000EEFF0EE50C2404F50CE50D3400F50DEE11
:10448000C3941350030243E274FF650E700474FF7B
:10449000650F60238F08740278081216B8744825D7
:1044A00008F58274783509F583780812158385122A
:1044B00082851383E508F0EC2402FCED3400FD85D1
:1044C0001282851383A3858212858313740C1217BD
:1044D00017E5826C7003E5836D60030243D07508B5
:1044E00001750900780812194E7402121717AC8270
:1044F000AD837AAD7B0912117C74021216E1740C43
:104500001216E17F0C02180DC082C0839061AE7458
:1045100068F0A3746AF090624574FBF0A304F05352
:10452000F4FD43FE0290053F7401F09061A0E06449
:104530003A90619A70237433F0A37455F09061A09F
:10454000743AF0740164017009C2919003A6746713
:1045500080289003A674618021743FF0A3745AF000
:104560009061A0747FF0740164017009D29190038E
:10457000A6747180059003A6746A02436A7F0802DC
:10458000180DC082C0839004F1E06401700A9004A9
:10459000F6E06004790C8002790002436BC082C0AF
:1045A0008375E1F19004F4E0605B14600914605FCE
:1045B00014605714705E120B169004EAE0F97AEB5F
:1045C0007B04120CEA7AD67BBE7C897D8E120D208C
:1045D0007A557B557C557D00120CF69004F5E0F978
:1045E000120D027901120D5C9004E8E0F8A3E0C816
:1045F0002416F582E83400F583742EF0A3740BF0D2
:10460000790002436B120B1C80AF120B2280AA129E
:104610000B2880A5791280EA74F012173B75D90D2A
:104620009004D5E0A2E0E4331313F89004EAE0C468
:10463000333354C0484401F5D978E8790488828935
:1046400083A3A3A3E0F5D988828983A3A882A98341
:10465000E864EE7003E9640470E378D57904888235
:104660008983A3E0F5D988828983A3A882A983E8F6
:1046700064DB7003E9640470E575E1959004D5E0AE
:10468000F97AD67B04120CF0900D1174C2F0A37469
:104690000AF0A37424F0A3740CF0A37424F0A374A0
:1046A0000CF0A37424F0A3740CF0A374C8F0A374EA
:1046B0000AF0A37424F0A3740CF0A374E0F0A374C4
:1046C0000AF0900D1F7424F0A3740CF0A37424F06E
:1046D000A3740CF0A37424F0A3740CF0A37424F05E
:1046E000A3740CF0A37424F0A3740CF0A37424F04E
:1046F000A3740CF09004F4E064019004E87012E0FC
:10470000F8A3E0F5838882A3A375080075090880E3
:1047100010E0F8A3E0F5838882A3A3750804750967
:1047200000750A00750B0078081214FC750CFF75F3
:104730000DFF750EFF750F007808790C12154A9061
:1047400004E8E0F8A3E0C8240EF582E83400F5831D
:1047500078081215929004E8E0F8A3E0C82414F554
:1047600082E83400F5837413F09003A27402F0021F
:10477000457D74F712173B9004FAE02407F5D990B1
:1047800004EAE0C4333354C0F5D978E87904888268
:104790008983A3A3A3E0F5D988828983A3A882A9EA
:1047A00083E864EE7003E9640470E39004FAE06067
:1047B0001F78E87904FAE82413F582E93400F583D8
:1047C000E0F5D988828983A3A882A9831AEA70E6D2
:1047D00090051AE02407F5D99004EAE0C433335475
:1047E000C04404F5D978E8790488828983A3A3A317
:1047F000E0F5D988828983A3A882A983E864EE7052
:1048000003E9640470E390051AE0601F78E8790416
:10481000FAE82433F582E93400F583E0F5D988829B
:104820008983A3A882A9831AEA70E675E195900DA1
:104830001174CEF0A3740AF0A37424F0A3740CF0E6
:10484000A37424F0A3740CF0A37424F0A3740CF0EC
:10485000A374C8F0A3740AF0A37424F0A3740CF03A
:10486000A374E0F0A3740AF0900D1F7424F0A374F5
:104870000CF0A37424F0A3740CF0A37424F0A374BC
:104880000CF0A37424F0A3740CF0A37424F0A374AC
:104890000CF0A37424F0A3740CF09004E8E0F8A3E7
:1048A000E0C8240EF582E83400F58374FFF0A3F02D
:1048B000A3F0A3F09004E8E0F8A3E0C82414F58284
:1048C000E83400F5837412F09003A27401F0FF0243
:1048D000180D74F712173B9004FAE02407F5D990ED
:1048E00004EAE0C4333354C04402F5D978E87904CB
:1048F00088828983A3A3A3E0F5D988828983A3A8AA
:1049000082A983E864EE7003E9640470E39004FA1A
:10491000E0601F78E87904FAE82413F582E93400AE
:10492000F583E0F5D988828983A3A882A9831AEA4E
:1049300070E675E195900D1174DAF0A3740AF0A396
:1049400074DAF0A3740AF0A374DAF0A3740AF0A383
:1049500074DAF0A3740AF0A374DAF0A3740AF0A373
:1049600074DAF0A3740AF0A374E0F0A3740AF09070
:104970000D1F7424F0A3740CF0A37424F0A3740C22
:10498000F0A37424F0A3740CF0A37424F0A3740CAB
:10499000F0A37424F0A3740CF0A37424F0A3740C9B
:1049A000F09004E8E0F8A3E0C8240EF582E83400B3
:1049B000F58374FFF0A3F0A3F0A3F09004E8E0F80F
:1049C000A3E0C82414F582E83400F5837414F09051
:1049D00003A27404F0024C9974F712173B9004FA86
:1049E000E02407F5D99004EAE0C4333354C0440608
:1049F000F5D978E8790488828983A3A3A3E0F5D95F
:104A000088828983A3A882A983E864EE7003E9649D
:104A10000470E39004FAE0601F78E87904FAE8246F
:104A200013F582E93400F583E0F5D988828983A300
:104A3000A882A9831AEA70E690051AE02407F5D93E
:104A40009004EAE0C4333354C04404F5D978E879DB
:104A50000488828983A3A3A3E0F5D988828983A3EC
:104A6000A882A983E864EE7003E9640470E390050A
:104A70001AE0601F78E87904FAE82433F582E93413
:104A800000F583E0F5D988828983A3A882A9831AD7
:104A9000EA70E675E195900D1174D4F0A3740AF0F4
:104AA000A37424F0A3740CF0A37424F0A3740CF08A
:104AB000A37424F0A3740CF0A37424F0A3740CF07A
:104AC000A37424F0A3740CF0A374E0F0A3740AF0B0
:104AD000900D1F7424F0A3740CF0A37424F0A3743D
:104AE0000CF0A37424F0A3740CF0A37424F0A3744A
:104AF0000CF0A37424F0A3740CF0A37424F0A3743A
:104B00000CF09004E8E0F8A3E0C8240EF582E83445
:104B100000F58374FFF0A3F0A3F0A3F09004E8E0A5
:104B2000F8A3E0C82414F582E83400F5837415F086
:104B30009003A27403F0024C99C082C0839004E8F1
:104B4000E0F8A3E0C82406F582E83400F583E40227
:104B5000436874F712173B9003D0E0F875F003A494
:104B6000C8AAF02AF974D228F8740339F9E82405A0
:104B7000FAE93400FB8A828B83E0FCA3E0FD8882A3
:104B80008983A3A3A3A3A3A3A3A3A3ECF0A3EDF002
:104B900088828983A3A3A3A3A3A3A3E024FFF8A3EC
:104BA000E034FFF98A828B83E8F0A3E9F0024C99A4
:104BB00074F712173BEAFEEBFF9061D0E06003024E
:104BC0004C8D75D90E75D90375D904EE248BF582F9
:104BD000EF3400F583E5822408F8E5833400F9E03A
:104BE000F5D9A3E865827003E9658370F2EE24834A
:104BF000F582EF3400F583E5822404F8E583340080
:104C0000F9E0F5D9A3E865827003E9658370F27570
:104C1000E1957908EE248BFAEF3400FB120BD07982
:104C200004EE2483FAEF3400FB120BD07C00EEF884
:104C3000EFF9ECFAC3E49AFA95E0FBEE2AFAEF3BBF
:104C4000FBEA248AF582EB3400F583E0C0E0E82437
:104C5000AAF582E93400F583D0E0F00C88828983DC
:104C6000A3A882A983ECC3940840C7EE246FF58201
:104C7000EF3400F583E0F8A3E0F9EE2471F582EF5C
:104C80003400F583E8F0A3E9F0790180027900802F
:104C900008F0EEA2E092AF79007F0102180DC08209
:104CA000C08375D90275D90375D90575E195EA24D4
:104CB0006FF582EB3400F583E0F8A3E0F9EA2471A4
:104CC000F582EB3400F583E8F0A3E9F079010243C3
:104CD0006B74F612173BEAFEEBFF9005457406F085
:104CE000750845750905780812194E7C017903127B
:104CF0000C1874021216E175D90675D90375824530
:104D0000758305E0F5D9A3E582644A7004E5836400
:104D10000570F075E1959003A2E06408701EEE2422
:104D20006FF582EF3400F583E0F8A3E0F9EE24712B
:104D3000F582EF3400F583E8F0A3E9F07901024F42
:104D40009F74F612173BEAFEEBFF9061D0E07066AD
:104D50007801900545740BF09003A2E06407701988
:104D6000750845750905780812194E7C01790312FA
:104D70000C1874021216E17805740128F5D975D95A
:104D800003758245758305E8FAE0F5D9A31AEA7040
:104D9000F875E195EE246FF582EF3400F583E0F8C5
:104DA000A3E0F9EE2471F582EF3400F583E8F0A377
:104DB000E9F0790180027900024F9F74F712173BE6
:104DC000EAFEEBFF75D90375D90375D90DEE24DD25
:104DD000F582EF3400F583E0F5D975E19579041299
:104DE0000D26EE246FF582EF3400F583E0F8A3E0A2
:104DF000F9EE2471F582EF3400F583E8F0A3E9F0D1
:104E00007901024C9974F612173BEAFEEBFF9061B0
:104E1000D0E0F87480C398FAEE2482F582EF340073
:104E2000F583E06004780480027800E8240BF8EA57
:104E3000C3985003024ECA7D09900545EDF0EE245B
:104E4000E2F8EF3400F97A467B057C088882898392
:104E5000E08A828B83F088828983A3A882A9838ACF
:104E6000828B83A3AA82AB831CEC70E0EE2482F5D4
:104E700082EF3400F583E0601D75084575090578FB
:104E80000812194E7C097903EEFAEFFB120C187424
:104E9000021216E17D0D74012DF5D975D9037582C5
:104EA000457583058D08E0F5D9A31508E50870F66A
:104EB00075E1957904120D26EE241DF582EF34007C
:104EC000F583E4F0A3F0790180027900024F9F742A
:104ED000F612173BEAFEEBFF9061D0E0F87480C356
:104EE00098FAEE2482F582EF3400F583E0600478CE
:104EF0000480027800E82408F8EAC3985003024FBF
:104F00009D7806900545740CF09003BFE09005462F
:104F1000F09003C0E0900547F09003C1E090054891
:104F2000F09003C2E0900549F09003C3E090054A79
:104F3000F0EE2482F582EF3400F583E0601B750803
:104F400045750905780812194E7C067903EEFA12A8
:104F50000C1874021216E1780A740128F5D975D973
:104F6000037582457583058808E0F5D9A31508E522
:104F70000870F675E1957904120D26EE246FF5821E
:104F8000EF3400F583E0F8A3E0F9EE2471F582EF49
:104F90003400F583E8F0A3E9F07901800279007F1D
:104FA0000202180D74F612173BEAFEEBFF9061D077
:104FB000E0F87480C398FAEE2482F582EF3400F5AD
:104FC00083E06004780480027800E82404F8EAC3EF
:104FD00098500302507E7802900545E8F0EE24F4E4
:104FE000F582EF3400F583E0900546F0EE2482F57B
:104FF00082EF3400F583E0601B750845750905787C
:105000000812194E7C027903EEFA120C187402127F
:1050100016E17806740128F5D975D90375824575AE
:1050200083058808E0F5D9A31508E50870F675E151
:1050300095EE2473F582EF3400F583E4F0EE247FDF
:10504000F582EF3400F583E4F0EE241DF582EF34B1
:1050500000F583E4F0A3F07904120D26EE240DF59B
:1050600082EF3400F583E0F8A3E0F9EE2471F582D5
:10507000EF3400F583E8F0A3E9F0790180027900CC
:10508000024F9F74F612173B9061D0E0F87480C312
:1050900098FCEA2482F582EB3400F583E060047822
:1050A0000480027800E82404F8ECC398405B79029D
:1050B0009005457407F0EA24F5F582EB3400F5839A
:1050C000E0900546F0EA2482F582EB3400F583E0B7
:1050D0006018750845750905780812194E7C020993
:1050E000120C1874021216E17906740129F5D975AB
:1050F000D903758245758305E9F8E0F5D9A318E869
:1051000070F875E195790180027900024F9F74F57E
:1051100012173BE9FCA2AFE433F50AC2AF7D008071
:10512000010DEA246EF582EB3400F583E0F8EDC35F
:1051300098501A8D08EA2508F8EB3400F9E8246A3B
:10514000F582E93400F583E06C70D68024EA246EA1
:10515000F8EB3400F9E0FEEA2EFAEB3400FBEA2427
:105160006AF582EB3400F583ECF088828983E004F1
:10517000F0E50AA2E092AF7F0302180D74F6121751
:105180003BA2AFE433FDC2AFEA246EF582EB3400FC
:10519000F583E014F07C0060368C08EA2508F8EB13
:1051A0003400F9E8246BF582E93400F583E0C0E0CF
:1051B000E8246AF582E93400F583D0E0F00CEA24B3
:1051C0006EF582EB3400F583E0F8ECC39840CAEA50
:1051D000246DF582EB3400F58374FFF0EA2469F561
:1051E00082EB3400F583E4F0EDA2E092AF024F9F32
:1051F000C082C083E5A8F8C2AFEA246AF582EB3426
:1052000000F583E9F0EA2469F582EB3400F583E4E4
:10521000F0E8A2E7A2E792AF02436B74F312173BE8
:10522000EAFEEBFFECFAEDFB8A828B83A3A3A3A338
:10523000E0541FF0EE2436F582EF3400F583E4F0FD
:10524000F50AEEFCEFFD8A828B83E0C0E0EC245D82
:10525000F582ED3400F583D0E0F0750B00E50A33FC
:10526000333354F8F50C8A828B83E0F50875090016
:10527000E50B7808121699E508A2E0502FEE2436C7
:10528000F8EF3400F988828983E0F508EE2508F507
:1052900008EF3400F509E5082438F582E509340003
:1052A000F583E50CF088828983E004F0050B050C9A
:1052B000E50BC3940840AF050A8A828B83A3AA82B8
:1052C000AB838C828D83A3AC82AD83E50AC3940546
:1052D00050030252467F0502180D74F712173B90D7
:1052E00003CEE0640170030254387A009003D4E0E6
:1052F00060030254387401F0A3E4F0A3F090043486
:1053000004F0900439F09003D7E4F0A3F0A3F0A3E5
:10531000F09003E104F0900407E4F09003EAF0A3B6
:10532000F0A3F0A3F0A3F0A3F0A3F0900451F09049
:105330000445F090043A7480F0A3E4F0900440F047
:105340009004BCF0A3F0A3F0A3F0A3F0A3F0A3F0AB
:10535000A3F09004C5F0900454F09004A4F0A3F0DE
:10536000A3F0A3F0A3F0A3F0A3F0A3F0A3F0A3F0A5
:105370009004B0F09004B2F09004AEF09004C8F045
:10538000A3F0A3F0A3F0A3F0A3F0A3F0A3F078CED2
:105390007903E8246EF582E93400F58374FFF00A9E
:1053A00088828983A3A882A983EAC3940440E37A0C
:1053B000CE7B0378DC790488828983E0C0E0EA242C
:1053C00061F582EB3400F583D0E0F088828983A315
:1053D000A882A9838A828B83A3AA82AB83E864E133
:1053E0007003E9640470D07ACE7B0378B5790388C2
:1053F000828983A3E0C0E0EA24E6F582EB3400F57D
:1054000083D0E0F088828983A3A882A9838A828BD3
:1054100083A3AA82AB83E864BD7003E9640370CF01
:105420009003CEE004F0640170089003D6E090038E
:10543000D0F07AD27B0380047A007B00024C99C0C2
:1054400082C0839003D5E4F09003D4F09003CEF0B3
:10545000A3F0A374FFF075E1F102436BC082C08337
:10546000780079009003D5E0600478D279038882CF
:105470008983A3A3A3A3E0F902436B74F612173B3D
:10548000EAFEEBFFEE2463F582EF3400F583E0F8EB
:10549000A3E0F9E8497003025520EE2463F8EF34E5
:1054A00000F97A007B00A2AFE433F508C2AF88822E
:1054B0008983E0FCA3E0FDEC4D603A88828983E0BB
:1054C000FAA3E0FB8A828B83E0FCA3E0FD8882895B
:1054D00083ECF0A3EDF08A828B83E4F0A3F0888262
:1054E0008983E0FCA3E0FDEC4D700A88828983A3E8
:1054F000A3E4F0A3F0E508A2E092AF121224900416
:10550000E2E004F09004E3E004F0EE2463F582EFBF
:105510003400F583E0F8A3E0F9E849600302549A07
:105520008E828F83A3A3A3E0600F8E828F83A3A3B9
:10553000A3E4F09003CFE014F09003CEE014F070F9
:10554000069003D074FFF08E828F83A3A3E4F090C3
:1055500004E1E0700D9003CFE06401700579001262
:105560000D08EEFAEFFB120C48024F9F74F712176A
:105570003BEAFEEBFF8E828F83A3A3A3A3E0FA7B1B
:1055800000120912EEFAEFFB120B9A120C30024CC9
:1055900099C082C08378B5790388828983A3E4F0B7
:1055A00088828983A3A882A983E864BD7003E96423
:1055B0000370E69003B6740102436A74F612173B57
:1055C000EAFEEBFFEC2403F8ED3400F988088909C2
:1055D000EC2407F8ED3400F9E8FCE9FD8C828D83BA
:1055E000E0F8A3E0F9850882850983E0FAA3E0FBEF
:1055F000121640EE240DF582EF3400F583E8F0A397
:10560000E9F08C828D83E0F8A3E0F98508828509B2
:1056100083E0FAA3E0FB1216408B09EA4509601308
:10562000EE240DF582EF3400F583E02401F0A3E0D1
:105630003400F0024F9F74F612173BEAFEEBFFEEC8
:10564000242EF582EF3400F583E0FCA3E0FD780022
:1056500079FAECFAEDFB121640EE246FF582EF3486
:1056600000F583E8F0A3E9F0780079FAECFAEDFBB5
:105670001216408B09EA45096013EE246FF582EF9C
:105680003400F583E02401F0A3E03400F0024F9FE2
:1056900074EC12173BEAFEEBFF741412171778082C
:1056A000121583120CCC8A0C8B0D8C0E8D0F75107D
:1056B00002751100751200751300780C7910121420
:1056C000E97510FF7511FF7512FF780C791012152E
:1056D0004A780C12194A8E828F83E0F8A3E0F58392
:1056E0008882A3A31215A112235974041216E1E9AA
:1056F00060030257F48E828F83E02402F8A3E03423
:1057000000F9E8FAE9FB8A828B83780812150F8A80
:10571000828B837508FF7509FF750AFF750B00788A
:1057200008121570EE240BF582EF3400F583C08269
:10573000C0838E828F83A3A3A3A3A3E02401F8A335
:10574000E03400F9D083D082E0687003A3E0697090
:105750000579010257F68E828F83A3A3A3A3A3A387
:10576000A3E02401F0A3E03400F0EE2473F582EF0F
:105770003400F583E064017036EE2474F582EF3472
:1057800000F583E0F8A3E0F98E828F83A3A3A3A39F
:10579000A3A3A3E0687003A3E0697013EE2474F57B
:1057A00082EF3400F583E02401F0A3E03400F0EE52
:1057B000247FF582EF3400F583E064017036EE2437
:1057C00080F582EF3400F583E0F8A3E0F98E828F54
:1057D00083A3A3A3A3A3A3A3E0687003A3E06970BA
:1057E00013EE2480F582EF3400F583E02401F0A36A
:1057F000E03400F0790002450374F612173BE9FE2D
:10580000ECFFEA2462F582EB3400F583E06401608A
:10581000030258A29061D0E0F508EA2482F582EBF9
:105820003400F583E060047804800278007480C35B
:105830009508FC95E0FDEF28F8E43400F9E824022F
:10584000F8E93400F9EC98ED99A2D265D033404ED6
:10585000740A121717E0F508A3E0F509EA2482F5A7
:1058600082EB3400F583E06015780812194EEFFCE6
:10587000EEF9120C1874021216E174042FFF740171
:105880002FF5D98ED9EF600F850882850983F8E05E
:10589000F5D9A318E870F875E195790080067907C5
:1058A000800279FF024F9F74F712173BA2AFE433D7
:1058B000FEC2AF8A828B83E0F8A3E0F9E8498A82CE
:1058C0008B83600AA3A3E0F8A3E0F5838882ECF061
:1058D000A3EDF08A828B83A3A3ECF0A3EDF08C827E
:1058E0008D83E4F0A3024C9174F712173BE9602119
:1058F000F88C828D83E08A828B83F08C828D83A3E7
:10590000AC82AD838A828B83A3AA82AB8318E870B2
:10591000E0ECFAEDFB024C9974F412173B9078031B
:10592000E064427055900544E014F0704DC2AF122F
:10593000593200782AD0E0F618D0E0F6E59F5407F7
:1059400070057509FF800375097FC4C0E07829E6FA
:10595000F50808E65509F509740B78081216A9D060
:10596000E02508F8906270E0A2E740F8E8C33390C1
:105970006272F0906270E0D2E0F09003D0E0F470D8
:1059800003025D12E0F875F003A4C8AAF02AF974C6
:10599000D228FE740339FFEE2401F582EF3401F5BD
:1059A00083E0F8A3E0F9E849601EEE2401F582EFF8
:1059B0003401F583E0FAA3E0FBEE2400F582EF3436
:1059C00001F583E0F9120FD88E828F83A3A3A3A3DE
:1059D000A3A3A3E0F8A3E0F98E828F83A3A3A3A3DC
:1059E000A3E8F0A3E9F0906054E09003A9F0906080
:1059F00055E09003AAF0906056E09003ABF0906001
:105A000057E09003ACF0906058E09003ADF09060E8
:105A100059E09003AEF090605AE09003AFF09060D0
:105A20005BE09003B0F090605CE0FC9003B1F0901C
:105A3000605DE0FB9003B2F090605EE0FD9003B328
:105A4000F090605FE0FA9003B4F09003AFE08C0850
:105A50002508F8E43400F98D08E82508F8E9340051
:105A6000F98B08E82508F8E93400F98A08E82508E0
:105A7000FAE93400FBEE24F6F582EF3400F583E01A
:105A80002AF0A3E03BF08C08EE24F8F582EF340016
:105A9000F583E02508F0A3E03400F0EE24FAF58267
:105AA000EF3400F583E02401F0A3E03400F0EE24AD
:105AB000FEF582EF3400F583E0F8A3E0F9E84960F1
:105AC00042906000E0C333FCE433FDE82CF582E94A
:105AD0003DF583E02AF0A3E03BF0906000E0FA900F
:105AE00003B1E0FCEAC333FAE433FBE82AF8E93B0C
:105AF000F9E8244AF582E93400F583E02CF0A3E0CC
:105B00003400F09003AFE070119003B2E0700BA38B
:105B1000E07007A3E07003025C0F8E828F83A3A363
:105B2000A3A3A3E0F8A3E0F9EE240DF582EF34007F
