:020000040000FA
:060000000201070220C40A
:03002B0002253972
:0300330002251B88
:03003B0002255A41
:030043000224CFC5
:0300530002213A4D
:03006B000224F577
:10008300021F73E5C754F84401F5C7790122000044
:100093000080FB120086B900030200F1E4792178A5
:1000A30008B800028004F709D8FCE479297802B87B
:1000B30000028004F709D8FCE49002817838790CB7
:1000C3008002F0A3D8FCD9FA7AB87B0D9001377877
:1000D300F479038015E493A3AD82AE838A828B8384
:1000E300F0A3AA82AB838D828E83D8E9D9E7758288
:1000F3009F7583A974031201197582917583007426
:100103000012011975D00075813F751881751902A8
:10011300759F00020096C09FF59FE473D09F22D085
:1001230083D082C09FE493C0E0740193C0E0740263
:1001330093F59F22FF0000B4000028002800283018
:1001430075A000A000A000A00000080008E001F0D6
:10015300001000100010001000100010005000509C
:1001630000500010001000D0070000000000000F36
:100173000001000500307507001000010081FF0039
:10018300000000FF280646062E06FF0202020802B0
:100193005000A0000000E803027A9201000063927D
:1001A3000276920100000F0E027092010000B3026A
:1001B300027692010000100E026E92010000C90245
:1001C300027692010000110E026C92010000CB0234
:1001D300027692010000120E028092080000CC0207
:1001E300027692010000130E028492010000140EA5
:1001F300FF0100FF20027A92010000AD9102769286
:10020300010000780E028A92000000000002729240
:100213000300001903700C700C700C700C700C70E0
:100223000C700C700C700C700C700C700C700C4615
:100233000F5E0F400FFFFF020202020202020202E0
:10024300010D0000001001027A9201000069920280
:100253007692010000BB0E02A2920100005D07022C
:100263007692010000BC0E0294920100008D91026F
:100273007692010000BD0E02929201000064910289
:100283007692010000BE0E0290920100005B900284
:100293007692010000BF0E028E920100009190023F
:1002A3007692010000C00E028C920100007F900242
:1002B3007692010000C10E0288920100003790027D
:1002C3007692010000C20E02869201000072910232
:1002D3007692010000C30E028292010000C40E0157
:1002E300E803053F100AFF00013075030201060011
:1002F30000000000000000000000000000000000FB
:100303000000000000000000000000FFFF06008066
:100313000CE80325020305070B0D1113171D1F53CB
:10032300292B2F353B3D4347494F01020304050663
:100333000708090A0B0C0D0E0F1001020304050632
:100343000708090A0B0C0D0E0F10080964422E440E
:10035300657673051250002003020A0064422E449E
:10036300657673000000000000000000000000003C
:1003730000BA130000C01302307844423031000A3F
:100383003078444230320008307844423033001031
:10039300307844423034000830784442303500022B
:1003A3007A920100006692027692010000FB0F022E
:1003B3009892010000710D027492010000FC0F027B
:1003C30076920100000310029A92030000850D0249
:1003D300749201000004100276920100000B1002D7
:1003E3009C92020000990D0274920100000C10020D
:1003F30076920100001310029E92000000AD0D02E0
:100403007292030000AE0D027492010000141002F8
:1004130076920100001B1002A092020000B40D02AC
:1004230074920100001C10120122A29803120122EF
:10043300B99803120122EA980312012225990312A3
:1004430001224F99031201227999031201229099F3
:1004530003120122A79903120122BE99031201225A
:10046300E79903120122FA9903120122109A031247
:100473000122239A031201224A9A0312012225A57B
:100483000212012229A60212012261A602120122EE
:1004930084A6021201228FA602120122B2A6021220
:1004A3000122C1A70212012296A80212012211A958
:1004B3000212012299A902120122D4A902120122D5
:1004C3000BAA0212012299AA0212012272AB021292
:1004D3000122D2AB02120122DDAB021201225CAC7B
:1004E300021201225FAC0212012262AC021201224B
:1004F300F1AC02120122F4AC0212012224AD021269
:1005030001224EAD021201223CAE02120122EEAED6
:1005130002120122FBE80212012223E90212012244
:1005230051E90212012288E902120122E6E90212CC
:10053300012231EA021201227CEA02120122BCEA00
:100543000212012202EB0212012230EB02120122FB
:10055300EDEB02120122F7EB0212012204EC02126C
:10056300012237EC0212012203ED021201220FEDE8
:100573000212012227ED0212012231ED02120122A1
:10058300F9A40312012207A5031201221FA50312D6
:10059300012237A503120122D8B30112012284B428
:1005A30001120122FFB40112012220B6011201221D
:1005B3005CB60112012205B701120122ECB7011248
:1005C300012250B901120122A7B90112012228BA4E
:1005D3000112012218BB0112012265BB0112012283
:1005E300EBBB011201221DBC0112012231BE01121B
:1005F300012273BE0112012291BE0112012214BF16
:1006030001120122E8BF01120122B0C0011201222E
:10061300BBD2021201228ED30212012237D402125C
:1006230001228AD4021201223AD502120122C6D52E
:1006330002120122B2D602120122E1D602120122D3
:10064300F4D7021201223CD80212012211D902125C
:1006530001224DD90212012269D9021201224DA8A9
:100663000312012222FA0212012238FA0212012293
:100673005EFA021201227AFB0212012284FB0212A9
:100683000122B9FC02120122B1FD0212012211DF83
:100693000212012241E00212012274E0021201223D
:1006A300BEE00212012285E202120122E9A3011235
:1006B300012253A401120122B2A501120122C2A5F3
:1006C30001120122EFA50112012246A60112012205
:1006D300EFA601120122F6A701120122C0A80112FE
:1006E300012220AA0112012263AA0112012208ABEE
:1006F3000112012255AB011201227BAB011201222F
:1007030089AD011201228EAD0112012293AF0112B4
:100713000122E0AF0112012253B00112012286B07F
:100723000112012228B101120122D1B101120122C9
:1007330009B2011201220CB20112012254B20112B8
:10074300012294B201120122EBB20112012264933D
:10075300031201227C9303120122C4930312012288
:10076300DA93031201222194031201223595031215
:100773000122C295031201220D9603120122CC25F8
:1007830000120122D8250012012213260012012291
:100793005826001201221827001201229E27001258
:1007A3000122CA2700120122032800120122412A32
:1007B30000120122252C001201220B2E001201220D
:1007C3004E2F001201229C3100120122AE32001280
:1007D3000122F933001201220935001201222635C4
:1007E3000012012261350012012283350012012219
:1007F300E63500120122A73A001201223C3B001207
:1008030001228D3B00120122B43B00120122063C5F
:1008130000120122243C001201227E3C001201221C
:100823007D3D00120122013E00120122DED9021297
:100833000122E8D9021201222BDA0212012246DA3E
:1008430002120122D6DA02120122FEDA0212012278
:100853003BDB0212012272DB021201229BDB02123A
:10086300012210DC0212012225DC021201223ADCF1
:10087300021201226BDC021201227FDC021201222E
:10088300A4DC02120122DEDC021201220ADD0212C2
:10089300012242DD02120122A1DD0212012220DE29
:1008A300021201224BDE0212012294DE0212012205
:1008B300BEDE02120122E9DE0212012203A20312AA
:1008C3000122248D02120122528D02120122A08ED6
:1008D30002120122808F021201229F8F0212012233
:1008E3001C90021201225F9002120122B5910212A2
:1008F3000122769202120122FD94021201229E9598
:1009030002120122949602120122919702120122ED
:10091300EB9802120122769902120122A8A0031277
:10092300012211A10312012265A1031201228CA14C
:1009330003120122BDA103120122B8ED021201220A
:1009430025EE021201226CEE0212012284EF021242
:10095300012280F00212012263F102120122D8C2A5
:10096300021201221AC302120122ECC30212012253
:10097300C5C402120122BFC502120122A1C602127E
:1009830001220AC702120122C0C70212012234C87F
:1009930002120122A0C802120122C9C802120122B6
:1009A30043C902120122DCC90212012241CA021206
:1009B300012256CA021201229CCA02120122B5CA9E
:1009C300021201221ACB021201221DCB02120122B2
:1009D3006B9003120122939003120122D190031210
:1009E30001228F9103120122F69103120122129226
:1009F300031201223A92031201226A920312012284
:100A0300799203120122F692031201221C9303121C
:100A13000122A7920112012245940112012260963C
:100A2300011201229C9601120122C9960112012290
:100A3300AE9701120122F597011201223998011292
:100A430001224B98011201228B9801120122B898BE
:100A53000112012203990112012243990112012279
:100A6300719901120122C39901120122539A0112B1
:100A73000122F19C01120122079F01120122459FCD
:100A830001120122D6A0011201221BA1011201228F
:100A930092A101120122DCA10112012202A2011280
:100AA3000122EAA20112012214A301120122BEA310
:100AB300011201225FB902120122DEB902120122E0
:100AC300A0BF02120122AFC00212012217C20212FA
:100AD3000122AEC2021201228B5200120122D45211
:100AE3000012012201530012012234530012012289
:100AF3004153001201224D53001201225F53001291
:100B03000122465400120122A45400120122D95496
:100B1300001201221C560012012269560012012202
:100B23008D5600120122FA5600120122B857001204
:100B33000122715800120122DE580012012290593D
:100B430000120122A05900120122275A0012012289
:100B5300E65A00120122135B001201228C5B001281
:100B63000122E95B00120122335C00120122C95CFD
:100B730000120122945D00120122495E001201223B
:100B8300BE5E001201221F5F00120122895F001264
:100B93000122C25F0012012264600012012274610B
:100BA30000120122B46100120122D161001201225C
:100BB300F061001201223762001201225C6200120E
:100BC300012289620012012203630012012244639D
:100BD300001201226864001201221865001201222A
:100BE3006F6500120122D96500120122F26500121D
:100BF30001225FAF02120122B2AF02120122BEAF85
:100C03000212012293B002120122BAB0021201228F
:100C1300F5B00212012261B1021201229DB102124A
:100C23000122D3B1021201220CB20212012224B218
:100C33000212012279B20212012292B2021201229D
:100C4300DBB202120122EEB20212012208B3021237
:100C530001221EB30212012251B40212012298B5DD
:100C6300021201229AB60212012294B70212012241
:100C7300F9FF0212012249ED0112012279ED01125D
:100C8300012241F10112012298F20112012261F3C2
:100C930001120122E1F401120122B2F50112012233
:100CA300EFF50112012212F60112012250F6011290
:100CB300012259F601120122A3F601120122ADF617
:100CC3000112012257F70112012230F80112012209
:100CD30084F801120122E6F80112012239F9011206
:100CE300012268F901120122A5F9011201222466E9
:100CF300001201228B690012012291690012012264
:100D0300136F001201228C7300120122627700120A
:100D13000122FF86031201227587031201228B87AA
:100D230003120122CC870312012206880312012237
:100D33007F8803120122BA88031201222D8903122C
:100D430001226B8903120122748903120122808913
:100D5300031201229C8903120122C7890312012273
:100D6300DD8903120122218A0312012238E40212CF
:100D730001224BE40212012265E4021201228EE4F5
:100D830002120122D1E40212012210E50212012211
:100D93004EE502120122B3E502120122C8E5021256
:100DA3000122D3E502120122E0E502120122F7E556
:100DB3000212012205E60212012210E602120122AA
:100DC3001CE6021201222FE6021201223AE6021267
:100DD30001225DE60212012204E70212012214E756
:100DE300021201222EE7021201224BE70212012214
:100DF30067E7021201228CE70212012297E702122F
:100E03000122ACE702120122C0E70212012221E80B
:100E13000212012227E8021201222DE80212012206
:100E230033E8021201224BE8021201227EE8021289
:100E330001223AD101120122BED1011201226DD247
:100E430001120122CCD301120122EDD5011201229C
:100E5300D9D6011201220ED70112012230D7011275
:100E63000122DFD701120122D7D90112012200DAB0
:100E73000112012292DA01120122C4DA01120122C3
:100E8300D1DA0112012228DB011201224EDB011209
:100E93000122BBDD01120122BEDE0112012216DF97
:100EA30001120122C9C201120122D3C3011201227C
:100EB300BAC401120122C4C401120122E6C4011200
:100EC3000122F2C4011201228BC601120122BAC609
:100ED30001120122D6C7011201222FC801120122D9
:100EE30095C90112012274CA01120122D0CA01124A
:100EF30001223DCB0112012278CB01120122B7CB93
:100F03000112012270CE011201228ACE01120122A6
:100F130016CF0112012224CF011201227DCF01122B
:100F230001228BCF01120122FECF0112012262D0D6
:100F330001120122ACD001120122F79902120122FF
:100F4300199A021201223F9C02120122549F02129B
:100F530001226CA0021201221FA10212012201A28E
:100F630002120122049C03120122299C0312012272
:100F73009B9C0312012241CB021201224ACB021293
:100F8300012253CB021201222ACC02120122DBCD11
:100F93000212012211CE021201224BCE02120122B1
:100FA30081CE02120122BBCE02120122EFCE021227
:100FB30001221BCF0212012264CF021201229ECF13
:100FC30002120122E7CF021201223FD002120122B4
:100FD30074D002120122CFD00212012209D10212CF
:100FE30001225AD10212012290D102120122CAD146
:100FF30002120122F8D1021201221BD20212012293
:1010030086A603120122B2A6031201220DA7031220
:10101300012217A70312012227A70312012280FA34
:10102300011201228AFA01120122C8FA01120122D5
:1010330011FB011201224BFB01120122A5FB01123C
:101043000122C6FB01120122CFFB0112012220FC67
:101053000112012249FC0112012253FC0112012257
:10106300BFFC011201224DFD011201229BFD011261
:101073000122D1FD0112012258FE0112012298FE24
:1010830001120122D0FE01120122E2FE011201220D
:1010930001FF011201220AFF01120122C4FF011202
:1010A3000122008003120122F580031201220F8125
:1010B300031201222081031201225583031201220C
:1010C300BBFD02120122F1FD0212012227FE0212D0
:1010D300012280FF02120122D1A803120122E7A8F4
:1010E30003120122F1A8031201223BA903120122D8
:1010F30025F2021201223EF202120122E2F2021250
:10110300012222F3021201223BF3021201226FF3A6
:1011130002120122BCF302120122F0F30212012295
:1011230032F40212012220A40312012249A4031261
:10113300012272A403120122B4A403120122518AD0
:1011430003120122768A03120122A28A03120122C8
:101153003BAA03120122683E00120122CC40001276
:1011630001227E4200120122704300120122F54344
:1011730000120122734400120122A0440012012232
:10118300C447001201223E48001201222D490012D9
:101193000122674900120122A74900120122614B73
:1011A30000120122B44B00120122FD4B0012012256
:1011B3006B4C001201229D4C00120122B54C00120F
:1011C3000122CA4D00120122DA4D001201220A4FF8
:1011D300001201222C4F00120122624F0012012241
:1011E30007510012012246510012012266520012D9
:1011F3000122D0A503120122E1A503120122F2A9C3
:101203000312012231AA03120122E6FF0212012274
:1012130031A70312012241A70312012256A7031289
:101223000122BCA7031201221CA303120122A1A3C2
:101233000312012207A403120122309F0312012289
:10124300599F03120122C49F0312012215A0031206
:1012530001226EA003120122EEFF011201229083EC
:10126300031201222084031201229E84031201220D
:10127300278503120122BC8503120122468603122D
:1012830001225086031201225F8603120122758612
:1012930003120122888603120122E8860312012227
:1012A300FC8603120122C6A70312012230A80312EF
:1012B300012242A803120122A99D03120122FE9DCD
:1012C300031201226C9E03120122DC9E03120122EF
:1012D30037960312012261960312012236970312F5
:1012E30001222A9803120122B177001201226E789B
:1012F30000120122A97800120122D17800120122E2
:101303003379001201227F7900120122D879001269
:101313000122697A001201226B7B00120122287DCF
:1013230000120122AA7D001201220F7E0012012267
:10133300267E00120122367F00120122747F0012E2
:10134300012264DF01120122EEE20112012276E49E
:1013530001120122CDE401120122ECE40112012267
:101363006AE50112012208E701120122ECE70112EA
:101373000122D6EB01120122A6EC01120122628D99
:1013830003120122918D03120122A78D0312012260
:10139300EF8D03120122318E031201229C8E031260
:1013A30001226E8F03120122E68F031201220080B5
:1013B300021201227A83021201226984021201229B
:1013C300D48502120122A686021201221587021277
:1013D30001225D87021201227487021201226089B1
:1013E30002120122CE89021201229F8A02120122D5
:1013F300CF8A02120122F28A02120122CC8B02123C
:10140300012236F6021201227BF60212012298F61D
:101413000212012227F7021201229BF70212012274
:1014230075F802120122E9F9021201225C9A0312F1
:101433000122809A03120122449B03120122BC9BC6
:1014430003120122BAFF02120122E17F00E066705B
:101453001008A3E066700A08A3E066700408A3E01E
:101463006622C3E7960809E7960809E7960809E79D
:101473009622C3E09608A3E09608A3E09608A3E0AB
:101483009622C008C3E096F50808A3E09642080830
:10149300A3E096420808A3E09645087001D3D0085C
:1014A30022080808EAC0E0EBC0E086F0E7A4FA18D7
:1014B3000986F0E7A42AFA180986F0E7A42AFA189D
:1014C3000986F0E7A42AFA1986F0E7A4FBE5F02AD7
:1014D300FA190886F0E7A42BFBE5F03AFA19088617
:1014E300F0E7A42BFBE5F03AFA18180986F0E7A415
:1014F300C5F02BFBE43AFA1908E7C5F0C6A426F6B3
:10150300E5F03BFBE43AFA1886F0E7A4F6E5F008C9
:1015130026F6E43B08F6E43A08F6D0E0FBD0E0FA1E
:1015230022E4CFC0E0E4CEC0E0E4CDC0E0E4CCC030
:10153300E075F020E626F608E633F608E633F6080B
:10154300E633F6181818EC33FCED33FDEE33FEEFFB
:1015530033FFC3EC9709ED9709EE9709EF97191934
:1015630019400FFFEC97FC09ED97FD09EE97FE1963
:101573001906D5F0BFECF709EDF709EEF709EFF718
:10158300191919D0E0FCD0E0FDD0E0FED0E0FF2235
:101593006016080808C6C313C618C613C618C613B0
:1015A300C618C613C6D5E0EA2270090808082260E7
:1015B30016181818C6C333C608C633C608C633C6BA
:1015C30008C633C6D5E0EA22E627F60809E637F669
:1015D3000809E637F60809E637F622E026F608A3F7
:1015E300E036F608A3E036F608A3E036F622E02656
:1015F300F008A3E036F008A3E036F008A3E036F0E5
:1016030022C3E697F60809E697F60809E697F6086F
:1016130009E697F622C3E096F008A3E096F008A344
:10162300E096F008A3E096F022E056F608A3E05611
:10163300F608A3E056F608A3E056F622E056F008B3
:10164300A3E056F008A3E056F008A3E056F022E02A
:10165300F608A3E0F608A3E0F608A3E0F622E6F016
:1016630008A3E6F008A3E6F008A3E6F022E0FAA355
:10167300E0FBA3E0FCA3E0FD22EAF0A3EBF0A3EC84
:10168300F0A3EDF022E0F8A3E0F9A3E0FAA3E0FB76
:1016930022E8F0A3E9F0A3EAF0A3EBF022CAC0E04A
:1016A300E6F0A308DAFAD0E0FA22CAC0E0E0A3C564
:1016B30082CCC582C583CDC583F0A3C582CCC58248
:1016C300C583CDC583DAE6D0E0CA22C3E498F8E443
:1016D30099F912170F8026C3E49AFAE49BFBE920D9
:1016E300E7E912170FE498F8E499F922C3E498F8AC
:1016F300E499F912170FE498F8E499F9C3E49AFA14
:10170300E49BFB22EB20E7CFE920E7E0B90010BB25
:101713000008E88AF084F8AAF022E4FBC8FA22EB76
:1017230070227B10C833C8C933C9335007C39AC367
:10173300DBF280069A50012ADBEAC833F4C8C933C6
:10174300F4C9FA2275F008E4C833C8C933C933C9E8
:101753009AC99B5004C92AC93BD5F0ECFBC833F4A2
:10176300C8E4C9FA22600D08C6A2E713C618C61357
:10177300C6D5E0F322600C08C6C313C618C613C649
:10178300D5E0F422700422600D18C6C333C608C620
:1017930033C6D5E0F41822251810AF08F518400C0D
:1017A30015198008F51840021519D2AF2200C0D0D0
:1017B300251810AF08F518500C05198008F51850B6
:1017C300020519D2AFD0D0222518F58210AF08F543
:1017D30018400C15198008F51840021519D2AF8569
:1017E3001983222518F582E43519F583222518F883
:1017F300E43519F9222518FAE43519FB222518FCDA
:10180300E43519FD22E4732518C582C0E0E51934D7
:10181300FFC583C0E0E518C3958224F810AF08859F
:1018230083198582188008858319858218D2AFCEE3
:10183300F0A3E520F0A37808E608F0A3DEFAEFF0C2
:10184300A3E58124FAF8E608F0A3E608F0A3E60886
:10185300F0A30808E608F0A3E608F0A315811581B4
:10186300D0E0FED0E0F8158115811581E8C0E0EEE7
:10187300C0E0222518C582C0E0E51934FFC583C046
:10188300E0E518C3958224F910AF08858319858292
:10189300188008858319858218D2AFCEF0A3E5207E
:1018A300F0A37808E608F0A3DEFAEFF0A3E58124BD
:1018B300FBF8E608F0A3E608F0A30808E608F0A39F
:1018C300E608F0A315811581D0E0FED0E0F815817C
:1018D3001581E8C0E0EEC0E022851983851882E017
:1018E300A3FEE0A3F5207808E0A3F608DFFAE0A35F
:1018F300FFE0A3C0E0E0A3C0E0E0A3C0E0E0A3C03A
:10190300E0E0A3C0E010AF08858218858319800842
:10191300858218858319D2AFD083D08202011F85B7
:101923001983851882E0A3FEE0A3F5207808E0A3DD
:10193300F608DFFAE0A3FFE0A3C0E0E0A3C0E0E025
:10194300A3C0E0E0A3C0E010AF0885821885831927
:101953008008858218858319D2AFD083D08222C0B4
:10196300D02518C582C0E0E51934FFC583C0E0E582
:1019730018C3958224F310AF0885831985821880D4
:1019830008858319858218D2AFC8F0A3E9F0A3EACA
:10199300F0A3EBF0A37908E709F0A3D8FAECF0A3DE
:1019A300EDF0A3EEF0A3EFF0A3D0E0F0A3D0E0F0CE
:1019B300A3D0E0F0A3E520F0A3E5F0F0A32285197E
:1019C30083851882E0C0E0A3E0F9A3E0FAA3E0FB7B
:1019D300A37808E0F608A3DFFAE0FCA3E0FDA3E0A8
:1019E300FEA3E0FFA3E0C0E0A3E0C0E0A3E0F5D0E6
:1019F300A3E0F520A3E0A3F5F010AF0885831985D4
:101A030082188008858319858218D2AFD082D0834B
:101A1300D0E0F8D0E03274048006740280027401CE
:101A2300C0E0F4041217CBD0E01216A02274048095
:101A33000474028000CCC0E0EDC0E0E518C39CCC88
:101A4300AD1950011D10AF068C188D1980068C1826
:101A53008D19D2AF1216ADD0E0FDD0E0FC22D083B9
:101A6300D082E9C0E0E493A3C386F0C5F095F0F912
:101A730008E493A386F0C5F095F0700BE493A3C339
:101A8300994005E9048002A3E475F002A42582F5D8
:101A930082E5F03583F583D0E0F9E493A3C0E0E475
:101AA30093C0E022D083D082ECC0E0EDC0E0E493A9
:101AB300A3FCE493A3FDED4C600D121AF3EC24FF99
:101AC300FCED34FFFD80EFE493A3FCE493A3FDED71
:101AD3004C600D121B32EC24FFFCED34FFFD80EF54
:101AE300D0E0FDD0E0FCE493A3C0E0E493C0E022A7
:101AF300C0E0C3E49396087401939618400FE493EF
:101B030066700808740193661870007019A3A3C364
:101B1300E49396087401939618A3A3400DD0E0D0E4
:101B2300E0D0E0021AE3A3A3A3A3A3A3D0E022C0BF
:101B3300E0C0F088F0E493667008087401936618B7
:101B43007000A8F0A3A3700BD0F0D0E0D0E0D0E0F9
:0A1B5300021AE3A3A3D0F0D0E022B1
:101B600074F5121876EAFEEBFFEE2434F8EF340039
:101B7000F988088909EE2435121C8CF8EE243712F6
:101B80001C8CF50AEC850AF0A4FCAAF0850AF0ED9D
:101B9000A42AFDE82CF8E43DF97A257B0012170F02
:101BA000EA850882850983F074075AF87401B80041
:101BB000028004C333D8FCFBEA131313541FF8EE5E
:101BC00028F8EF3400F9E8245DF582E9121C8F5BF8
:101BD0006003EA801CEE2436121C8CF5F0EA84A81F
:101BE000F0EE28F8EF3400F9E82438F582E9121C09
:101BF0008FF97F0402192274F5121876EAFEEBFFC2
:101C0000EE2434121C8CC0E0EE2435F582EF340053
:101C1000F583D0E0F08E828F83A3A3A3A3A3E0FA81
:101C2000A3E0FB8E828F83A3A3A3A3A3A3A3E0FCC3
:101C3000A3E0FDECC39AF50AED9BF50BEE247FF5CE
:101C400008EF3400F509850882F583E06401702B04
:101C5000EE2480F582EF3400F583121A34121C95BD
:101C600074021217B0E960137CDC7D04EEFAEFFB1E
:101C7000120B92850882850983E4F0AC0AAD0BEE65
:101C8000FAEFFB121B601224BB021BF2F582EF3449
:101C900000F583E022C082C083851882851983E025
:101CA000F8A3E0F9C3EA9CEB9D5010C3EC98ED99C2
:101CB000401BC3EA98EB995014800EC3EA98EB9945
:101CC0004007C3EC98ED994004790180027900D077
:101CD00083D08222EAC39CFAEB9DFB2274ED12189A
:101CE000769003A2E064086005E06407702C9061C0
:101CF000C8E060269003D0E0F874FF68601CE875C7
:101D0000F003A4C8AAF02AF974D228FE740339FF9C
:101D10008E828F83A3A3A3E070057900021E7CEE60
:101D20002468F510EF3400F511906060E0851082B2
:101D3000851183F0750A45750B0575080075090056
:101D4000E5D914F50EE5D95403F50F601CEE248295
:101D5000F50CEF3400F50D7403650F6058E50E6067
:101D600013EE2467121C8C700B793DEEFAEFFB1218
:101D70000BB680A6900540E064016026850C828544
:101D80000D83E06004780480027800850E08E50881
:101D9000C398FA95E0FB120A248A088B09EA4509E0
:101DA0007006120E14021D1A850C82850D83E070D8
:101DB000048A0A8B0B78008016E5D9C0E08812E50A
:101DC0000A2512F582E50B3400F583D0E0F008E82F
:101DD000C3950E40E4850C82850D83E0602874FC79
:101DE000250EF50E780A121A1DAC0EA90FEEFAEFA9
:101DF000FB120C6A74021217B0E9700AAA08AB0948
:101E00001212BE021D697403650F6058850E0C75B1
:101E10000D00780C121A1DAC0AAD0BAA08AB091202
:101E20000C2E74021217B0851082851183E0F874AD
:101E300080687005750C7F8002880CE50CF50A78C7
:101E40000A121A21E50FF50A780A121A21A90EAC16
:101E500008AD099003D0E0FA7B001208BC740212AE
:101E600017B080139003A2E06408600BAC0AAD0BBE
:101E7000EEFAEFFB120D00120E2079017F0C021911
:101E80002274F312187674FC12179AEAFEEBFF899B
:101E900008A2AFE433F509C2AFEE2463F50AEF34CC
:101EA00000F50B8010AA0AAB0B120BE01212BE90C9
:101EB00004E3E004F0850A82850B83E0F8A3E0F9EF
:101EC000E849602FE82402FAE93400FBEA2402F52D
:101ED0000CEB3400F50D780C121A1D8A828B83E00E
:101EE000FCA3E0F9EEFAEFFB120BD474021217B068
:101EF000E960B29004E3E060579004E4E0F89004F5
:101F0000E3E0C398500C7402650870449004E5E067
:101F1000603E8E828F83A3A3A3A3E08518828519D8
:101F200083121F6074021217E6E8121F609004E229
:101F3000E028F074021217E6AC82AD838518828522
:101F40001983AA82AB8379011208C89004E3E4F0F4
:101F5000E509A2E092AF74041217B07F06021922BD
:101F6000F0A3E4F09004E3E0F822000085218785E7
:101F700022C622C0E074EF121962A2AFE433FEC29F
:101F8000AF759B00906182E0A2E05012E591A2E063
:101F9000500C7591FE740165217003121CDCE0A2E7
:101FA000E55051E591A2E5504B7591DF9003A2E019
:101FB00064076005E0640870237401652170357959
:101FC000019003D0E0FA75F003A4CAA8F028FB74CE
:101FD000D22AFA74033BFB121E818018E0640D7054
:101FE000139003C4E004F064287002E4F07A00E087
:101FF000F9120E26906182E0A2E6400302209AE5E3
:1020000091A2E6400302209A7591BF9003A2E0647A
:10201000057008120D42120D4E8003120D487521F5
:1020200000120DB4E99003A3F07900120DA8120A72
:10203000FC7A017B009003A1E0F9121078907803FC
:10204000E064427055900544E014F0704DC2AF1248
:10205000205200782AD0E0F618D0E0F6E59F540729
:1020600070057509FF800375097FC4C0E07829E613
:10207000F50808E65509F509740B7808121778D0A9
:10208000E02508F8906270E0A2E740F8E8C33390DA
:102090006272F0906270E0D2E0F0906181E0A2E3C1
:1020A0005009E5E9A2E3500375E9F7A3E0A2E75080
:1020B00009E591A2E7500375917FEEA2E092AF7F10
:1020C000040219C1C0E0C0D0C082C083906183E027
:1020D000A2E05009E5BFA2E0500375BFFEE0A2E117
:1020E0005009E5BFA2E1500375BFFDE0A2E250092F
:1020F000E5BFA2E2500375BFFBE0A2E35009E5BFD4
:10210000A2E3500375BFF7E0A2E45009E5BFA2E4E3
:10211000500375BFEFE0A2E55009E5BFA2E550030B
:1021200075BFDFE0A2E65009E5BFA2E6500375BF28
:10213000BFD083D082D0D0D0E032C0E074F2121988
:1021400062E5A7A2E4500FE5A1A2E4500953A7EF6E
:1021500075A1EF12218EE5A7A2E5500CE5A1A2E53D
:10216000500653A7DF75A1DFE5A7A2E15009E5A15D
:10217000A2E1500375A1FDE5A7A2E2500CE5A1A2E2
:10218000E2500653A7FB75A1FB7F010219C174F849
:102190001218767521019003A2E0640670077A0098
:1021A0007B00120D2AA2AFE433FED2AF9003A8E069
:1021B000640170187A207B009003A1E0F9121114D9
:1021C0007A207B009003A1E0F912107E906182E0FA
:1021D000D2E6F0900541E0602185C622801690038A
:1021E000A7E064017008E5C654F84405F5C653BE7F
:1021F000FC121F6C7401652160E4EEA2E092AF7FD7
:10220000010219228E238F24858228858327851831
:1022100082851983E0CEA3E0CF852882852783EBD2
:10222000C9EAC8EDCBECCA75F010C3E833C8E9338E
:10223000C9EA33CAEB33CBC3EA9EF526EB9FF525FB
:10224000B35004AB25AA26EC33CCED33CDD5F0DA70
:10225000AE23AF242274F11218768A088B098C0AF7
:102260008D0B9091FB780812162C740F1217E678DC
:102270000C1216529091FB780C12162C7808790CDF
:1022800012146590924B50107808790C121604784D
:10229000081214854014800E780C79081216047800
:1022A0000C12148550047901800279007F0802190C
:1022B0002274ED1218768A088B098C0A8D0B909186
:1022C000FB780812162C74131217E6780C121652AB
:1022D0009091FB780C12162C780C7908121465403A
:1022E000117808790C121604AA08AB09AC0AAD0BD8
:1022F0008022751000751100751200751301781099
:10230000790C121604781079081215CBAA10AB11AB
:10231000AC12AD137F0C0219229091FB78081216B3
:10232000528A828B83780812163F7F040219227426
:10233000F51218768C828D8378081216528A828B59
:10234000837808121618122383C3E098F0A3E0994B
:10235000122375401E90923778081216528A828B8B
:102360008378081215F18E828F83E02420F0A3E099
:10237000344EF080A4F08E828F83C3E09420A3E0DB
:10238000944E22EA2404F8EB3400F9E8FEE9FF8CCD
:10239000828D83A3A3A3A3E0F8A3E0F98E828F83A9
:1023A0002274F5121876E9FE9004F7E0FAA3E0FB38
:1023B000EEC333F8E433F9742628F582749139F5C5
:1023C00083E02AF508A3E03BF5097808121A1D906E
:1023D00091F312167012220474021217B08A088B3D
:1023E000098C0A8D0B74107808121593AA08AB0992
:1023F0007F0402192274F11218768A0C8B0D8C0E50
:102400008D0F740F1217E6E0FAA3E0FB7411121798
:10241000E6E0F508A3E0F5097808121A1DEA2401A0
:10242000F508EB3400F509E4F50AF50B780C7908AA
:102430001214A49092437808121652780C7908125C
:1024400014A4AA0CAB0DAC0EAD0F12220474021230
:1024500017B08B09EA450960047A0180027A00EC22
:102460002AFCED3400FD74131217E6E0F8A3E0F93E
:10247000E8FEE9FFECF8EDF97A717B0212170F889C
:10248000088909E4F50AF50B8E828F837808121605
:1024900061ECF8EDF97A717B0212170F8A088B094B
:1024A000740578081217878E828F83A3A3A3A3E5F0
:1024B00008F0A3E509F07F08021922C082C083E971
:1024C000906000F0D083D08222C2AF02000022C010
:1024D000E074F2121962A2AFE433FED2AFC2C0E5DB
:1024E000D1A2E4500653D1EF1212A0EEA2E092AFB7
:1024F0007F010219C1C0E074F2121962A2AFE43385
:10250000FED2AFE589A2E15003121252758900C2D2
:10251000C5EEA2E092AF7F010219C1C0E074F212D1
:102520001962A2AFE433FED2AFE58BA2E0500312F2
:102530001252758B00C2E880D8C0E0C0D0E8C0E07D
:10254000E9C0E0E5A8D2AFC2C7A2E7A2E792AFD048
:10255000E0F9D0E0F8D0D0D0E032C0E0C0D0E8C0A0
:10256000E0E9C0E0C008C009C082C083A2AFE43384
:10257000F9D2AF9009D1E0F8A3E0687008539AFB54
:10258000A374018025C2E99009D1E0F50874012502
:1025900008F074512508F582E43409F583E0F5C1AB
:1025A0009009D1E0C394804002E4F0E9A2E092AF48
:1025B000D083D082D009D008D0E0F9D0E0F8D0D0D4
:0325C000D0E03236
:1025C400FFFFFFFFFFFFFFFFC082C083E9900E778C
:1025D400F00227F674F712180AE99002E1F07C1968
:1025E4007D037AFF7BFF1208089002E274FFF0A3D8
:1025F400F0A3E4F0A3F079051207969002E1E0F964
:102604001206B87A207B081209D67F010218DC74FE
:10261400F412180A8A088B09EB548060309002E1A6
:10262400E0F91210608A0A8B0BAE0AAF0BEE4F6012
:10263400138E828F83E064B070031207A8EEFAEF62
:10264400FB12104EAA08E5096480FB80047A007B23
:10265400000227C574F212180A74FC12179AEAFED3
:10266400EBFFEE4F603874021217E6EEF0A3EF12A0
:102674002A2AECF0A3ED122A2AAA82AB831206B20C
:10268400E9F508707374121217E61235DEE50A458F
:102694000B60658E828F83122706EE4F70057508D6
:1026A4000280557A067B001210CC8A0C8B0DA80C84
:1026B400A90DE8497005750813803D88828983E473
:1026C400122710A3A3EEF0A3EF123A77E50AF0A3C2
:1026D400E50BF09002E71227989002E76017E0FC00
:1026E400A3E08003EAFCEBFD8C828D8312279870B3
:1026F400F38C828D83123503A90874041217B00277
:102704003C79A3A3A3A3E0FEA3E0FF22F0A3F088F7
:102714008289832274F212180A890AE975F017A4CF
:10272400FEAFF09002E6E4F09002E4122798600A0B
:102734001210D29002E4E4F0A3F0EEFAEFFB1210D0
:10274400CC8A088B09EA4509602FEEFCEFFD79007D
:1027540012103C9002E4E508F0A3E509F07B008048
:1027640008122782E4F0A3F00BEBC3950A40F2E5CC
:102774000A9002E6F0790080027913023C79EB7545
:10278400F017A4F8A9F09002E4E028FAA3E0398A4B
:1027940082F58322123299EA4B2274F412180A79D0
:1027A40000EAA2E0501B7508C57509917808121A51
:1027B4001D7C047D007A797B0E1207907402121737
:1027C400B07F040218DCC082C0839002E71227FDA8
:1027D400601C88828983A3A3E06A7003A3E06B88EA
:1027E40082898370E8A3A3A3A312329580047A009C
:1027F4007B00D083D08202011F123D4CE849227431
:10280400EE12180A74FC12179AEAFEEBFF8518827E
:10281400851983E4F0A3F0EE24021234E7EE2405D4
:10282400122A18EE2404F50EEF122DFDE024FE60AA
:102834003924FC604624FE605224FE605E24FE704F
:102844000302291D24FE700302299524FE7003024D
:1028540029A424FE70030229B324FC70030229C2B4
:1028640024FE70030229D1022A0E9003007417F08B
:10287400A3E4122A32120430022A0E851882851922
:1028840083AC82AD831207AE0229DE8518828519D6
:1028940083AC82AD831207B40229DE850C08850D52
:1028A4000974021217E6AC82AD8385088285098318
:1028B4001232951206D68A0C8B0DAC0CAD0DEC4D74
:1028C4006042E4F50CF50D780C121A1D750C0075B8
:1028D4000D03780C121A1D750C01750D03780C127A
:1028E4001A1D74081217E6121A34791612328F124E
:1028F40007F074081217B0E9F50C700B12328B1242
:102904000448800F750C01850882850983122A20EA
:10291400123503850C080229E174021217E6AC8211
:10292400AD83850C82850D831232951206D68A10EA
:102934008B11AC10AD11EC4D6043850C82850D8379
:10294400A3A3121A347510007511037810121A1DFE
:102954007510017511037810121A1D74081217E608
:10296400121A34791612328F1207F074081217B043
:10297400E9F509700B12328B12044E800F750901B0
:10298400850C82850D83122A20123503850908805F
:102994004C851882851983AC82AD831207BA803ABC
:1029A400851882851983AC82AD831207C0802B857C
:1029B4001882851983AC82AD831207C6801C8518E2
:1029C40082851983AC82AD831207CC800D85188271
:1029D400851983AC82AD831207D2E9F508E5086056
:1029E400298E828F83A3E06414601F850E82850F75
:1029F40083E0900300122A2A123D48900301123505
:102A040003E508A3122A3212042AEEFAEFFB120796
:102A1400540233EFF50CEF3400F50D22123D4C85D2
:102A2400188285198322F085188285198322F07C07
:102A3400007D03850A82850B831232992274EE127B
:102A4400180A74FC12179A8A0A8B0B8C0E8D0FEAE3
:102A54002405F508EB3400F5097C157D0079007A2E
:102A6400007B0312103CE5082402F50CE509122A48
:102A74001B8518828519838582108583117810122D
:102A84001A1D850882850983A3A3A3A3122F4512C7
:102A94001A1DE5082405F510E5093400F511781030
:102AA400121A1D850C82850D8312329F1206D07472
:102AB400061217B08A108B11AE10AF11E50A24026A
:102AC400F50AE50B1234EAEE4F7003022C07801767
:102AD40074021217E612329588828983EAF0A3EB16
:102AE400F0900300E004F0900300E0C39405400379
:102AF400022C07E4F510F5117810121A1D7510E96F
:102B04007511027810121A1D7510EA7511027810E9
:102B1400121A1D74061217E6121A347910EEFCEF1D
:102B2400FD12328F1207F074081217B0E9705E8537
:102B34000882850983A3A3A3A3A3A3A3E0F8900217
:102B4400E9E0687048122F45121A1D7CEA7D02E5FF
:102B5400082408FAE5093400FB121036740212172F
:102B6400B0E960298E828F83A3A3A3A31232959028
:102B74000300E0F510740278101217877401251011
:102B8400F58274033511F583EAF0A3EBF0740212B5
:102B940017E68582108583117810121A1D740212AB
:102BA40017E6121A34850C82850D83123D5D1206D8
:102BB400DC74041217B08A108B11AE10AF1190039D
:102BC40000E0F51075110074027810121787740074
:102BD4002510F874033511F988828983A312279884
:102BE4007003022ACBE82403F8E93400F9EE4F60BD
:102BF40003022AD48882898374FFF0A3F09003002F
:102C0400E004F0900300E0600A12328B12043C7975
:102C140000800B8508828509831234FA790A02330D
:102C2400EF74EA12180A74FE12179A8C128D13EAC2
:102C34002405F50CEB123D6712270A750800750987
:102C440000EA2402F510EB3400F511851882851989
:102C54008385820A85830B780A121A1D850C828566
:102C64000D83A3A3A3A3122E07121A1DE50C24059A
:102C7400F50AE50D1234EA780A121A1D850C8285CC
:102C84000D83123D5B1206D074061217B08A0A8BAC
:102C94000BEA450B7003022DB8EA2404F50EEB127F
:102CA4002DFD12270A8A828B83A3A3A3E0F9851042
:102CB400828511831232951206BEE9F5096003027A
:102CC4002DB8E4F514F5157814121A1D7514E97568
:102CD40015027814121A1D7514EA75150278141267
:102CE4001A1D74061217E6121A347913AC0AAD0BC6
:102CF4008510828511831232951207F07408121719
:102D0400B0E9F5096003022DB89002E9E0F8E5089E
:102D14007009E02402900301F08017900301E0FCA5
:102D2400E82402FAE43400FBEA6C7001EB6003026D
:102D34002DBC850882AA82122F3C9414122F345081
:102D440073850E82850F83E0C0E074022A122DF48D
:102D5400D0E0F00508850E82850F83A3E0C0E085EE
:102D6400080A7402250A122DF4D0E0F00508900236
:102D7400E9122E07121A1D7CEA7D0285080A7402E4
:102D8400250AFA74033400FB12102474021217B0DB
:102D94009002E9E02508F50874FF6E700374FF6F74
:102DA4006012EE24010EEF3400FFE508C3941450C2
:102DB40003022C4FE50860131231808510828511BF
:102DC4008312329512044279008014E50970037568
:102DD400090A851282851383EEF0A3EFF0A9097422
:102DE400021217B07F0E0218DC85080C7402250C41
:102DF400F58274033400F583223400F50F850E82C6
:102E0400F58322123A8A2274EE12180A74FE1217FB
:102E14009A8C0E8D0FEA2405F50CEB122A1B750B08
:102E240000900300E4F0F50AEA2402F508EB34000C
:102E3400F5098049900300E0FA9002E9E0F8122FC6
:102E44003C9417122F34400D900300E0F87416C31D
:102E5400989002E9F0122F45121A1D7CEA7D027443
:102E6400012AFA74033400FB12102474021217B0FE
:102E74009002E9E0F8900300E028F0050AE50C244C
:102E840016F582E50D122DF8E0F8E50AC398400323
:102E9400022F1D900300E0C39416507DE50AC3334E
:102EA400F8E433F9E50C28FEE50D39FF8518828531
:102EB4001983AC82AD838E828F831232951206D62B
:102EC4008A108B11AC10AD11EC4D7005750B01809F
:102ED40043E4F510F5117810121A1D7510E97511F7
:102EE400027810121A1D7510EA7511027810121A60
:102EF4001D74061217E6121A34791685088285099C
:102F0400831232951207F074081217B0E9F50B70AA
:102F140003022E381234F680107C007D038508826B
:102F2400850983123295120454A90B74020233F1F9
:102F3400E99400C365D03322EA28F8E43400F9E8C0
:102F440022E0F51075110078102274EA12180A7440
:102F5400FC12179A8A0C8B0D8C128D13EA2405F53A
:102F64000AEB1234EA750800750900E50A2402F533
:102F740010E50B3400F51174021217E685820E85F4
:102F8400830F780E121A1D850A82850B83A3A3A3CF
:102F9400A3123A36121A1DE50A2405F50EE50B3480
:102FA40000F50F780E121A1D8510828511831234D4
:102FB400F012328F1206D074061217B08A0E8B0FDD
:102FC400AE0EAF0FE50C2402F50EE50D3400F50F3F
:102FD40080408882898374FFF00508122DED74FF08
:102FE400F005089002E9E0F50C750D00780C121A52
:102FF4001D7CEA7D0285080C7402250CFA740334E6
:1030040000FB12102474021217B09002E9E02508A4
:10301400F508EE4F60718E828F83A3A3A3E0F98538
:103024000E82850F831232951206BEE9F509EE244D
:1030340004122A18E97044E4F514F5157814121AE8
:103044001D7514E97515027814121A1D7514EA75A4
:1030540015027814121A1D74081217E6121A34791C
:1030640011EEFCEFFD850E82850F83123295120757
:10307400F074081217B0E9F5096027850C82850DF4
:1030840083123176123503E508700302315C123184
:1030940080850E82850F8312329512045A790002BC
:1030A4003171850882AA82EA9002E97009E0240459
:1030B400900301F08022E0F8900301E0F514E82485
:1030C40004FCE43400FDEC65147001ED70C0122FB3
:1030D4003C9412122F3450B6850C82850D83E0C0C7
:1030E400E074022A122DF4D0E0F00508850C8285E4
:1030F4000D83A3E0C0E0122DEDD0E0123192858261
:103104000C85830D780C121A1D74041217E6121A1A
:1031140034851082851183123D5D1206DC7404121D
:1031240017B08A0C8B0DAE0CAF0D85080C740225FC
:103134000CF874033400F9EE4F7003022FD685188F
:1031440082851983E088828983123192A3E0C0E0EA
:10315400122DEDD0E0022FE4E509700375090A850C
:103164000A82850B83123176123503A9097404028D
:103174002DE5123D4C85128285138322900301E0D4
:10318400F5F0E50884900300F07C007D0322F0054F
:10319400088518828519832274EC12180A74FE12A9
:1031A400179A8A088B098C0E8D0FEA2405FEEB34DE
:1031B40000FF851882851983AC82AD838E828F834C
:1031C4001232951206D68A0A8B0BEE2418122A188C
:1031D400EA450B70030232661233D85032851882E6
:1031E4008519831232951207E48A108B11EA45116E
:1031F400606B7912AC0AAD0B8508828509831232A3
:1032040095851082851183121808E9F50A7058E42F
:10321400F50AF50B780A121A1D8E828F83A3A3E098
:10322400F50A780A121A1DEE24031234E7780A12FA
:103234001A1D8E828F8312329F1207F6740612179C
:10324400B0E9F50A7021850C82850D83E0701F8535
:1032540008828509831232951204608011750A0E62
:103264008009750A018004E50A60031234F6850CAE
:1032740082850D83E0600479008002A90A74021239
:1032840017B07F0C0218DC7C007D03850A82850B55
:103294008312329922E0FAA3E0FB22E0FCA3E0FDD2
:1032A4008508828509831232992274EE12180A74F1
:1032B400FE12179A8A088B098C0C8D0DEA2405FEE0
:1032C400EB3400FF750E00851882851983AC82AD3E
:1032D400838E828F831232951206D68A0A8B0BEA6A
:1032E400450B70030233C41233D8503585188285D8
:1032F40019831232951207E48A0E8B0FEA450F6088
:103304005E7912AC0AAD0B85088285098312329569
:10331400850E82850F83121808E9F50E60030233C7
:10332400C78508828509831235DEAA0AFB1207D8ED
:103334008A108B11A810A911E849701E7AFF7BFF2F
:103344001207D88A108B11A810A911E849606C885B
:10335400828983E50AF0A3E50BF0750A00800775FE
:103364000E0E805F050A9002E6E0FAE50AC39A5061
:103374004AE50A75F017A4FAABF088828983A3A3FF
:10338400E02AFAA3E03BFB8A828B831234F0EC4DF3
:1033940070D2750A17750B00780A121A1DEEFCEF2D
:1033A400FD12102474021217B0EEFCEFFD850882A2
:1033B4008509831232951204668014750E09800300
:1033C400750E01123D44850C82850D83123503A9C7
:1033D4000E022F2FE5082402F508E5093400F5094B
:1033E4008A828B83A3A3A3E0A2E52274041217B0FC
:1033F4007F0A0218DC74EC12180A8C108D11EA246E
:1034040005F50CEB122A1B750F00EA2402F50AEBF2
:103414001234EA850A82F5831232951207D88A0893
:103424008B09EA450970030234DC750E008071854E
:103434000C82850D83E06401704F8E828F83A3A379
:10344400121A348E828F83A3A3A3A3E0F5127513FB
:10345400007812121A1DEE2405F512EF3400F5134C
:103464007812121A1D12328F1207F674061217B050
:10347400E9F50F6014850C82850D83E4F0123D4458
:103484008510828511831235037C177D007900EE47
:10349400FAEFFB12103C8E828F83E4F0A3F0050E4A
:1034A4009002E6E0F8E50EC398501EE50E75F0179D
:1034B400A4F8A9F0850882850983A3A3123D71129B
:1034C40034F0EC4D6003023433850882850983743B
:1034D400FFF0A3F0E50F700612328F12046CA90FEF
:1034E400023286F50AEF3400F50B22A3E0FCA3E0D8
:1034F400FD228E828F83123D4C850E82850F83E8D8
:10350400F0A3E9F022C082C0839002E2E06A700373
:10351400A3E06B70067AE27B0280047A007B0002EF
:1035240027F6C082C08378008C828D83E06A7003A2
:10353400A3E06B7010E875F003A4F8A9F0EC28FA86
:10354400ED39FB8015088C828D83A3A3A3E06A70F8
:1035540003A3E06B60DF7A007B000227F674F612A7
:10356400180A1207A28A828B83E582458370067A41
:10357400007B008007A3A3A3A3123295023BF5743A
:10358400F212180AE9FE740E1217E61235DE7410F0
:103594001217E6123A568C828D83E064027036A3C9
:1035A400123D52F50CA3E0F9A80C74026870037480
:1035B40029697021750C02750D00780C121A1D789A
:1035C40008121A1D780A121A1DEEF912081A740646
:1035D4001217B080027901023C79E0F50AA3E0F504
:1035E4000B2274E812180A74FB12179AE9851882E0
:1035F400851983F08A168B17ECFEEDFF75100074A5
:103604001D1217E6123D48741D1217E61235038E7B
:10361400828F83A3A3A3E0A2E4502D741D1217E6A6
:103624001232951207E48A828B83E5824583700304
:10363400023A27790AEEFCEFFDAA16AB1712180816
:10364400E9F5106003023A2A741F1217E6123A567B
:1036540074211217E61235DE74231217E6E0F50E14
:10366400A3E0F50F8E828F83E0640260030239D5F4
:10367400A3123D48850882850983A3858212858328
:1036840013EE2406122A1888828983E0FAA3E0F94B
:10369400EA2400F514E439F5157814121AA7010088
:1036A40000280128CA36070002288F370328FC3671
:1036B4000029C6380129F138022992380329C6386D
:1036C40004297039D539E50E450F60030239D085D8
:1036D4000C82850D83123A4BFAE9FB8A828B83E0D4
:1036E400850A82850B83123A81121A1D8A828B8382
:1036F400A3E0FCA3E002395AE50E450F600302394A
:10370400D0850A82850B837401F0123A5E850882A3
:10371400850983F07C007D008E828F83A3A3A3A3FD
:10372400E02401FAA3E03400FB1206D6EA4B604120
:103734008A828B83E02402F8850A82850B83E02841
:10374400F0EA2404F8EB3400F988828983E08512D6
:1037540082851383123A93123A81121A1D8A828B3C
:10376400831234EFE5082403FAE5093400FB023937
:103774005F850A82850B83E02404F07C047D007954
:1037840000AA12AB1312103C023A2AE50E450F6050
:10379400030239D0123A5EFEA3E0FF850A82850B4C
:1037A400837404F0EE850882850983F0EF85128224
:1037B400851383F074031217E6AC82AD83EEFAEF3F
:1037C400FB1206D68A0C8B0DEA450D700302387382
:1037D4008A828B83A3A312270674011217E68582BB
:1037E4000E85830F780E121A1D74051217E6121A2D
:1037F400347CFF7DFF1206DC74041217B08B0FEAD1
:10380400450F7033850C82850D83123A36121A1DCA
:10381400850C82850D83A3121A347C027D007A788C
:103824007B9212050874041217B0E9700A7401122D
:1038340017E674FFF0A3F08E828F83E06402703980
:10384400750C02750D00780C121A1D8E828F83126E
:1038540034EFE5082404FAE5093400FB121024745B
:10386400021217B0850A82850B83E0240280097452
:10387400011217E6EEF0A3EFF074011217E6123A04
:1038840047F074011217E6A3123A3F0239CAE50E53
:10389400450F60030239D0850C82850D831234F004
:1038A400AA16AB1712080E850A82850B837402F0E0
:1038B400EA850882850983F0851282851383EB02E9
:1038C40039CDE50E450F60030239D0123A5EF8A3F4
:1038D400E0F9850A82850B837402F0E88508828505
:1038E4000983F0E98512828513830239CD850C8220
:1038F400850D8312329512101EEAFC8C82A882C3B5
:10390400950EE4950F405FE8650E7002E50F7004B4
:103914007C008022851882851983E0FAE50E2AFA54
:10392400E50F3400FBC3EA98EB94005003E08005F4
:10393400E50ECCC39CFCEC850A82850B83F08C0AD3
:10394400750B00780A121A1D850C82850D83E025FB
:103954000EFCA3E0350FFDAA08AB09121024740273
:103964001217B0023A2A751007023A2AE50E450FDB
:10397400705A850C82850D83123D48850A82850B19
:10398400837407122712123A3F122712A3E08512FA
:1039940082851383F0E82402FAE93400FB8A828BDF
:1039A40083123A3F123A6E123A47A3123A77123A06
:1039B40050F0E82405F8E93400F988828983123A42
:1039C40050A3123A93A3A3A3A3F0805A75100B80BB
:1039D40055741D1217E61232951207A28A828B8340
:1039E400E5824583603D123D48880C890DE8450D0C
:1039F4006031780E121A1D780A121A1D7808121AEC
:103A04001D74061217E6E0F9EEFCEFFDAA16AB17DB
:103A1400850C82850D8312180874061217B0E9F517
:103A240010800375100EA91074051217B07F1002D0
:103A340018DCE0F50E750F00780E22E0850882850B
:103A4400098322123A9D22123D4CE822123A9DA388
:103A5400A322E0F508A3E0F50922850C82850D83F5
:103A6400E0F8A3E0F5838882E022A3A3F08A828BA6
:103A740083A322F088828983A3A3A3A322F08A824A
:103A84008B83123A8A22E0F50A750B00780A22F039
:103A940088828983A3123A9D22E08508828509835E
:103AA400A3A32274EE12180A74FE12179A8A0A8BC0
:103AB4000BECFAEDFB74141217E6E0F510A3E0F535
:103AC4001174161217E6E0FE74181217E6E0F50EEC
:103AD400A3E0F50F851882851983AC82AD831206A5
:103AE400D68A0C8B0DEA450D6049851882851983A9
:103AF4001232951207A28A828B83E5824583602F56
:103B0400A3A3123A56E50845096024780E121A1D3B
:103B14007810121A1DEEF9AC0CAD0DAA0AAB0B8588
:103B2400088285098312180874041217B080067974
:103B34000E80027901022F2F74F612180A74FE12F5
:103B4400179A740C1217E6123A4B8518828519835A
:103B5400F074011217E6E9F0E4F508F509780812A3
:103B64001A1D7508027808121A1D74041217E685C6
:103B740082088583097808121A1D1207F674061242
:103B840017B074021217B0806874F712180AEAFEAC
:103B9400EBFF89087C197D0312080EEA5402600BBE
:103BA400A908EEFAEFFB1206CA8002790102260E7A
:103BB40074F612180A74FF6A700374FF6B70168C23
:103BC400828D83123BFAE4F08C828D83A3A3A3122B
:103BD4003BFAA380181207DE8A088B09A808A909F2
:103BE400E849600D8882898374FF122710A3A3E437
:103BF400F07F020218DC74FFF0A3F08C828D83A3A3
:103C0400A32274F612180A1207DE8A828B83E582D5
:103C140045836006A3A3E0FA80027A007B0080D18A
:103C240074F212180A8A088B09ECFEEDFF740E1266
:103C340017E6E0F50A1207DE8A0C8B0DA80CA90D15
:103C4400E8497026EEFCEFFD7AFF7BFF1207DE8A5F
:103C54000C8B0DA80CA90DE8497004791180168805
:103C6400828983E508F0A3E509F088828983A3A308
:103C7400E50AF079007F060218DC74EE12180AEAED
:103C8400FEEBFF8C088D09890C74141217E6123DA3
:103C94004874161217E6123295750D00E849600350
:103CA400023D3C7402650C6003023D377412121726
:103CB400E6123D52FCA3E0F9EC2400F50EE439F5DC
:103CC4000FEAF4F8EBF4F9EC58F8E50F59F9E84980
:103CD400705CE5082406F8ED3400F9880A890B883D
:103CE40082F583123D5D12080E8A108B11E50E6574
:103CF400107004E50F65116042780E121A1D850AD2
:103D040082850B83123D5D12081474021217B0E908
:103D1400F50D7027780E121A1D850882850983A374
:103D2400A3123D5B12082674021217B0800D750DA4
:103D3400808008750D0D8003750D0BA90D0233F4F9
:103D44008E828F83123D4C22E0F8A3E0F922123DCB
:103D54004C88828983E022A3A3E0FCA3E0FDEEFA71
:103D6400EFFB223400F50D850C82F58322E028FE5A
:103D7400A3E039FF8E828F832274F212180AEAFEBE
:103D8400EBFF890B7401650B600E7402650B706A9E
:103D940079011209F4E97062EEFAEFFB1207D88A8E
:103DA400088B09EA45096047750A00800B7C177D7A
:103DB40000790012103C050A9002E6E0F8E50AC317
:103DC400985021E50A75F017A4F8A9F085088285B2
:103DD4000983A3A3E028FAA3E039FB8A828B831228
:103DE40027FD70C985088285098374FFF0A3F07CE0
:103DF400197D03EEFAEFFB120808023C7974F21203
:103E0400180A8A088B09ECFEEDFF740E1217E612ED
:103E140035DE900E77E0F4603D7A097B001210489D
:103E2400EA4B60328A828B8374B1F0A3E4123A7055
:103E3400A3123A6EA3E508F0A3E509123E5DEEF085
:103E4400A3EF123E5DA3A3E50AF0A3E50BF0900EE9
:103E540077E0F9121054023C79F08A828B83A3A391
:103E6400A3A3A32274F012180A74FA12179A8908E9
:103E7400ECFEEDFF7509008A0A8B0B780A121A61B1
:103E84000004109040AB3EC93EE33EFB3E193F3177
:103E94003F543F6C3F803FAA3F274038404F406A21
:103EA4004090409040C03F74016508600302408B1D
:103EB4008E828F83E0F8C39403400302408BE89022
:103EC4000F6302406774026508600302408B8E82B0
:103ED4008F83124838900F64E8F0A3E902406774B6
:103EE400016508600302408B1240B8400302408B16
:103EF400E890076602406774016508600302408B1E
:103F04008E828F83E0F8C39405400302408BE890CF
:103F1400076702406774016508600302408B124022
:103F2400B8400302408BE89007680240677410654C
:103F340008600302408B750A10750B00780A121A88
:103F44001D7A697B0712102474021217B00240B163
:103F540074016508600302408B1240B840030240BC
:103F64008BE890077902406774016508600302409A
:103F74008B8E828F83E0900F67024067740465081C
:103F8400600302408B8E828F83780C1216529091BC
:103F9400F3780C121485500302408B90077B780C45
:103FA4001216610240B1E9600302408B120676E901
:103FB40070051211B6805690080E80637407650868
:103FC400600302408B750A06750B00780A121A1DED
:103FD4008E828F83A3AC82AD8374021217F8121001
:103FE4002A74021217B07C007D00AA18AB198E82C5
:103FF4008F83E0F9121162E9F50AC3940A400302BF
:1040040040AE120676E9700CA90A1211BC7950125E
:10401400133C806E740F250AF582E43408F583742A
:1040240001804074016508705E1240B85059E890F0
:10403400077A802F74016508704D8E828F83E0F8B3
:10404400C3940A5042E8900F6680187401650870A2
:10405400368E828F83E0F874F928C3940A5028E8D6
:10406400900F68F0804774016508701B90080DE09C
:10407400F88E828F83E090080DF0E87030E06401E0
:10408400702B1211AA80267509188021C3EA94277F
:10409400EB9400501574026508700F8E828F8312A2
:1040A4004B5B120514E9F5098003750902A909742B
:1040B400060244988E828F83E0F8C3940222740E21
:1040C4001217B07F040218DC74F012180A74B112CB
:1040D400179A8C0E8D0F9091DD74201218007406BF
:1040E4001216AD7420121800121162E9F50B745FF8
:1040F4001217E6E0F50CE9C3940A400302424A753C
:10410400F006E9A4F50974411218007A0E7420250A
:1041140009F9121336E97009744D1217E6E0FE80AE
:10412400027E00900F63E06402700575080180034D
:104134007508007408650C700474228002742125CB
:1041440009FF7C1B7D00790074261217F812103CBD
:10415400EEA2E0E433F50A74261218007A1BEFF994
:10416400121336E9702574401217E6E024F9C3945B
:104174000A50187808121A217427121800A90AAADA
:104184000EAB0F1205B674011217B07C147D0079C2
:1041940000740C1217F812103C740C1218007A10E8
:1041A40074242509F9121336E970307C1079FF74F0
:1041B4000C1217F812109CE97021741C1217E6AC4B
:1041C40082AD837A0474252509F9121336740C120E
:1041D4001800A90AAA0EAB0F12059EAC18AD197AE5
:1041E4000C7470250BF9121336E97049AA18AB192F
:1041F4001211927F00EF75F003A4F8A9F0851882DC
:10420400851983E58228F8E583124960124B5560CD
:104214001D88828983A3A3E0F50875090078081234
:104224001A1DAA0EAB0F1207FC74021217B00FEF7F
:10423400C3940440C0EEA2E1500C900765E0F9AAD3
:104244000EAB0F1208027404650C7027900F63E024
:104254006402701F7A00900779E060010A90076693
:10426400E06004780480027800E84AF9AA0EAB0FF3
:1042740012065E7900744F02449874F112180A749D
:10428400F012179A8A0C8B0D8C088D097E0AE9604E
:104294000C14600914603A1460750243641211A48A
:1042A400E9FEC3940A4003024364E5084509700328
:1042B400024364750A06750B00780A121A1DAC0CC9
:1042C400AD0DAA08AB0912102474021217B00243F0
:1042D400647F00750A06750B00780A121A1DAC0C6F
:1042E400AD0DEF75F00EA4F8A9F0748728FA7407E1
:1042F40039FB12103674021217B0E970090FEFC3BC
:10430400940A505C80CDEFFEC3940A505380427FE0
:1043140000AC18AD197A1075F006EFA42423F91235
:104324001336E9701C7C1079FFAA18AB1912109C83
:10433400E9700EAC0CAD0DAA18AB19120580E9603A
:10434400090FEFC3940A501880C7EFFEC3940A50B4
:104354000FE50845096009AA08AB09EEF912119E98
:10436400EEF974101217B07F070218DC74F41218F7
:104374000AE9FF7E1574FF6A700374FF6B70287579
:104384000800EFFC7A027B00A908121180E96002A0
:104394007E000508E508C3940A40E7EF604E7ACE34
:1043A4007B11120A0680451209E88A088B09EA453E
:1043B4000960387C007D00EA2405FAE43509FB85B0
:1043C4000882850983A3A3A3A3E0F9121162E9C3B8
:1043D400940A500BEFFC7A027B001211807E00EFEE
:1043E400600AAA08AB091211CE80011EEEF9024040
:1043F400C774F212180A8C088D097E15740E1217F0
:10440400E6E0F50AA3E0F50B74FF6A700374FF6B32
:10441400701D7F00AC0AAD0BAA08AB09EFF91211AD
:1044240086E960027E000FEFC3940A503B80E512D8
:1044340009E88A828B83E5824583602B7C007D00BA
:10444400E5822405FAE43583FBA3A3A3A3E0F912D0
:104454001162E9C3940A5010AC0AAD0BAA08AB0967
:104464001211867E0080011EEEF97F060218DCC060
:1044740082C08390077FEAF0A3EBF0900765E0FC2D
:104484007D007A267B00120514900765E0F9120777
:104494007E024F5B1217B07F080218DC74F012180A
:1044A4000A74EC12179AEAFEEBFFEE240CF50CE406
:1044B4003FF50DEE2405F50EE43FF50FEE2409F566
:1044C4000AE43FF50BEE2403F508E43FF5098E8278
:1044D4008F83A3A3E024FA700302475C24FD7003D6
:1044E40002467A14700302457714601024FD7003A9
:1044F4000246511470030246B10247B312525D6082
:104504004AE0F5838882E0F50EA3E0F50FE50E4559
:104514000F6038850C82850D83E0F50C780C121A37
:1045240021EE240BF582E43FF583E0F9850A8285C8
:104534000B83124B5B0A0A0AAB09850E82850F8333
:1045440012180874011217B00247B3850A82850B4A
:1045540083121A3490077B1216701205B07402127B
:1045640017B0E970030247B37901850A82850B838A
:104574000247278E828F83A385820A85830BE0609E
:1045840003024634850E82850F83E0A2E0400302D5
:10459400463490081912526060030246347C0E7D42
:1045A400007900AA18AB1912103C850C82850D8382
:1045B400124F26EA4B6010750C06750D00780C122C
:1045C4001A1DEA2410801B124F201209E8EA4B70CE
:1045D400030247B3750C06750D00780C121A1DEA18
:1045E4002405FCE43BFD74021217F8121024740233
:1045F4001217B0850E82850F83E0A2E25004D2F038
:104604008002C2F0A2F0E433F8740C1217E6E0481A
:10461400F0EEFCEFFDAA18AB19121198E970117AAB
:10462400027B00900765E0F912107879000247B523
:1046340012525D70030247B31247BA70030247B3C4
:10464400850A82850B83E0FC790102475012525D92
:1046540070030247B3124EE5890BE8450B70030261
:1046640047B38E828F83A3E0FC7902124F208882A5
:10467400850B830247577C007D00EE2404FAE43F57
:10468400FB850882850983E0F9121162E9F8C39475
:104694000A40030247B3EE240AFCE43FFD7A0475A2
:1046A400F006E8A42425F91213300247B3124F2070
:1046B40090077AE06007900F66E0F98069900F63D5
:1046C400E070047905805F1209E88A0C8B0DA80C50
:1046D400A90DE82404F50CE439F50D8E828F83A32B
:1046E400A3A3A3A3A3A3E0A2E05041E8497003025B
:1046F40047B3850C82850D83E0FE6030850A828590
:104704000B83E054107025740E121800E82405FA87
:10471400E439FBEEF9121162E9701179038508821C
:10472400850983124F261205AA0247B3AC0EAD0FBA
:10473400850C82850D83E0F9124F201211DA125292
:104744005D606C1247BA60677C007900124F208E5E
:10475400828F831218088057120676E970519008E8
:104764000EE0640170151211B690080EE4F07C0A94
:10477400FDF97A0F7B0812103C802C750A00850A1B
:1047840008740F2508FEE43408FF8E828F83E064EA
:1047940001700BA90A1211BC8E828F83E4F0050A02
:1047A400E50AC3940A40D7795012133C1211AA792E
:1047B400017414024498124EE9E8FEE9FFEE4F2218
:1047C40074F412180A74F212179AEAFE8C0975F03E
:1047D40006E9A42420F508AC18AD197A0EF91213D1
:1047E40036E9704B7C0679FFAA18AB1912109CE9C4
:1047F400703D740C1217E6124838E8F50BE50960B1
:1048040005EE420B8004EEF4520B850B82AA82E87B
:104814006A7001E96015740C1217E6EAF0A3E4F07B
:10482400AC18AD197A0EA9081213307901800279F7
:10483400000240C2E0F8A3E0F92274F212180A74EC
:10484400E612179A89098A0C8B0DECFEEDFF740CA5
:104854001218007A0E75F006E9A42420F912133612
:10486400E960030249237C0679FF740C1217F812DD
:10487400109CE9600302492374702509F508AC18FB
:10488400AD197A0CF9121336E9600302491FAA180C
:10489400AB19121192E50C450D701D7C0C7900AA20
:1048A40018AB1912109CE970727C0C7D007900AA77
:1048B40018AB1912103C8051AC18AD19AA0CAB0DF1
:1048C40012118C8A0A8B0BA80AA90BE8497022EEF4
:1048D4004F604CAC18AD197A007B0012118CEAF8C9
:1048E400EBF9EA4B603988828983E50CF0A3E50D86
:1048F400F012499CFAEE6A7001EF601FEEF04F70FF
:104904000888828983E4F0A3F0AA18AB19121192E3
:10491400AC18AD197A0CA908121330790180027908
:1049240000741A1217B002446E74F712180A7F004A
:10493400EF75F003A4F8A9F0EC28F8ED124960E053
:104944006A7003A3E06B7006E8FAE9FB800B0FEFD3
:10495400C3940440DB7A007B00024C9839F98882C6
:1049640089832274F712180A7E00EE75F003A4F806
:10497400A9F0EA28F8EB124960E0F4FCA3E0F4FDA6
:1049840088828983ECF0A3EDF012499CF4F00EEEDA
:10499400C3940440D5024C98E82402F582E439F526
:1049A40083E02274F412180A74F412179AEAFEEBE4
:1049B400FF8C0A8D0B900819125260704FEE4F70E5
:1049C40003024B36EC450B7003024B361211A4E97B
:1049D400900F69F0C3940A40337508007C0679FF90
:1049E400E50875F00EA4FAABF074812AFA74073B5B
:1049F400FB12109CE96003024A8F0508E508C39482
:104A04000A40D975090AE509900F69F0900F69E029
:104A1400C3940A4003024B3675F006E0A4F89008EC
:104A240019124F26EA4B7069EEFCEFFD7A0E7420E2
:104A340028F91213307C0C7D0079FFAA18AB1912E7
:104A4400103CAC18AD197A0C900F69E02470F9127F
:104A5400133075080E7509007808121A1DEEFCEF64
:104A6400FD900F69E075F00EA4F8A9F0748128FA9E
:104A7400740739FB12102474021217B0900819E558
:104A84000AF0A3E50BF07900024B38850809024AC5
:104A94000A124B3D2406124B4F60197A1B742128CD
:104AA400F9121330124B462406F582E438F583E4F8
:104AB400F0A380D1124B3D240A124B4F60107A1B95
:104AC400742228F9121330124B46240A80DB124B4D
:104AD4003D240C124B4F60107A10742328F91213E2
:104AE40030124B46240C80C1124B3D2408124B4F0C
:104AF40060347A10742428F9121330124B462408B7
:104B0400F582E438F583E02410FCA3E03400FD7A58
:104B14000475F006900F69E0A42425F912133012ED
:104B24004B462408808390080DE060031211E012C4
:104B340011D47901740C0240C4900819E0F9A3E07F
:104B4400C922900819E0F8A3E0C822F582E439F5F7
:104B540083124B5BEC4D22E0FCA3E0FD2274F412C3
:104B6400180A74F212179AEAFEEBFFE9C3940A508A
:104B740004EE4F700479028034AC18AD197A0E75C6
:104B8400F006E9A42420F9121336E9F508701C751F
:104B94000A06750B00780A121A1D7402121800EE28
:104BA400FAEFFB12102474021217B0A9080240C2D3
:104BB40074F412180AEAFEEBFF750800750A06750C
:104BC4000B00780A121A1DEEFCEFFDE50875F00ED5
:104BD400A4F8A9F0748128FA740739FB121036740A
:104BE400021217B0E96004A908800B0508E508C3A0
:104BF400940A40C8790A0240C774F712180A750863
:104C040000E50875F00EA4F8A9F0748128FE740775
:104C140039FFEEFCEFFD7A0E75F006E508A42420BA
:104C2400F9121336E960297C067D0079FFEEFAEF6C
:104C3400FB12103C7C067D0079FFEE2CFAE43FFB6E
:104C440012103CEE240CF582E43FF583E4F0A3F06B
:104C54000508E508C3940A40A890080DE060031213
:104C640011E01211D4802D74F712180A7E007F000F
:104C74007C0679FFEF75F00EA4FAABF074812AFA82
:104C840074073BFB12109CE970010E0FEFC3940AEA
:104C940040DEEEF97F010218DC74F712180A7E0078
:104CA400EEF91211BC0EEEC3940A5003E960F180D0
:104CB400E374F312180A74CB12179AE9FF900F6980
:104CC400E06F701B7A017B00900765E0F912107E9B
:104CD4007A027B00900765E0F912107E1211EC75E0
:104CE400F006EFA4FE74202EF50874271218007A3B
:104CF4000EA908121336E96003024DBB7C0679FF46
:104D040074271217F812109CE96003024DBB7C0E45
:104D14007D0079FF74271217F812103C7C1B7D006C
:104D240079FF740C1217F812103C7C0C7D0079FF8B
:104D3400AA18AB1912103C74271218007A0EA9088D
:104D4400121330E9F508740C1218007A1B74212E22
:104D5400F9121330E9F50C740C1218007A1B742242
:104D64002EF9121330E9F50B740C1218007A107432
:104D7400232EF9121330E9F509740C1218007A1075
:104D840074242EF9121330E9F50A740C1218007AFF
:104D94000474252EF9121330E9FEAC18AD197A0CFF
:104DA40074702FF9121330E9F8E50C450B450945E9
:104DB4000A4E4842088003750800A9087435121782
:104DC400B07F050218DC74F712180AE9900765F041
:104DD4001211AA024C9874F412180AEAFEEBFF545A
:104DE400807003024E72900765E0F91210608A0821
:104DF4008B09EA4509607078018A828B83E024502C
:104E0400603D14600624E1604F8052A3A3A3A3E095
:104E1400704E8A828B83A3A3A3A3A3A3A3121A34E1
:104E24008A828B83A3A3A3A3A3124B5B8A828B8363
:104E3400A3A3124F2612116E74021217B08021A37D
:104E4400A3A3A3E0641E701879008A828B83A3A3B2
:104E5400124F26121168800812117AE9F8E86007E7
:104E6400AA08AB0912104EEEFAEF64808065EE5486
:104E74000260237C007D007A007B00121198E960B7
:104E8400117A017B00900765E0F9121078EE640254
:104E9400803F7A028046EEA2E0503F124EF6124F57
:104EA400261211E6E9602F12525D601F124EE5884A
:104EB400088909E8450960137C007901124EF6124D
:104EC4004F268508828509831218081211ECEE64B6
:104ED40001FAEFFB80087A0180027A007B0002402D
:104EE400C7124EE922E0F5838882A3A3E0F8A3E089
:104EF400F922900819E0F8A3E0F5838882A3A3A31C
:104F0400227F020218DCC082C083900765E0F98A20
:104F1400828B83A3124F26120802803B8508828568
:104F24000983E0FAA3E0FB22C082C08374FF121756
:104F34009A1211B0E9C3940285188285198340043A
:104F440074028002740AF0AC18AD197A0179051262
:104F5400068E74011217B0D083D08202011F74F43C
:104F640012180A74E812179A8A088B09E9FE8C0A47
:104F74008D0B7C187D007900AA18AB1912103C85A2
:104F84001882851983E508F0A3E509F0900767E026
:104F9400C0E074021217E6D0E0F0900768E0C0E0C9
:104FA40074031217E6D0E0F0900F68E0C0E07417C5
:104FB4001217E6D0E0F074151217E6E054FEF8A3D9
:104FC400E0F9900F67E0A2E0E433FAE84AF87415D8
:104FD4001217E61250FDA2E15004D2F08002C2F092
:104FE400E854FDFAA2F0E43325E0F8EA48F8741531
:104FF4001217E61250FDA2E35004D2F08002C2F070
:10500400E854F7FAA2F0E433F5087509007403785C
:10501400081217871250F61217E61250FDA2E45038
:1050240004D2F08002C2F0E854EFFAA2F0E433F5BF
:1050340008740478081217871250F61217E61250F3
:10504400FDA2E55004D2F08002C2F0E854DFFAA2D7
:10505400F0E433F508740578081217871250F61235
:1050640017E61250FDA2E25004D2F08002C2F0E82A
:1050740054FBFAA2F0E433F5087402780812178797
:105084001250F61217E6E8F0A3E9F0900768E06022
:105094001D7508107808121A1D7C697D07740612A4
:1050A40017E6AA82AB8312102474021217B0900779
:1050B40079E06010EE600974151217E6E04402F01E
:1050C40078018002780074141217E6E048F0900723
:1050D40066E0600478048002780074141217E6E035
:1050E40048F0AC0AAD0BAA18AB191205A474180247
:1050F40040C4EA4508F8741522E8F0A3E9F0900FDB
:1051040067E02274F712180A120874750800E5089B
:1051140075F00EA4F8A9F0748128FE740739FF7C99
:105124000679FFEEFAEFFB12109CE97009EEFAEF34
:10513400FB790012087A0508E508C3940A40CF02F7
:105144004C9874F612180A74FD12179AEAFEEBFFD3
:1051540090081B125260703975081D75090878088B
:10516400121A1D7508027509007808121A1D7508AF
:10517400727509927808121A1D7CFF7DFF7A017BF3
:10518400001206D074061217B090081BEAF0A3EBC5
:10519400F090081B1252607003025247E4F508F5C0
:1051A400097808121A1D74041217F08808890978FE
:1051B40008121A1D74041217F08808890978081255
:1051C4001A1D90081D121A34790290081B125255A8
:1051D4001207F074081217B0E97036851882851921
:1051E40083E0FA74011217E6E0F8E4C8F9EA28F556
:1051F40008E439F509EA450960177808121A1D9080
:10520400081B124EF9A312525512116E7402121792
:10521400B0E4F508F5097808121A1D90081D121A51
:10522400347CFF7DFF90081B124F261206DC7404A9
:105234001217B090081BEAF0A3EBF090081B12526F
:1052440060700479018002790074031217B0024F70
:1052540005124B5BEEFAEFFB2290077F124838E809
:105264004922C082C08390081912526060109008CD
:1052740019124F2612104E900819E4F0A3F0900F63
:1052840069740AF0024F5BC082C083906190740419
:10529400F0A37448F0A3E4F09061807440F090614E
:1052A400BC7407F09061877469F09061B67416F06D
:1052B4007900120B027902120B089025C4E493F4CE
:1052C4006006E493F9120ADE7905120E0802568686
:1052D400C082C083E9540FF9906185E0696012E5EA
:1052E400C654804449F5C6E59E547F644970F8E984
:1052F400F053C680E59E547F70FA02568674F71206
:10530400180AE5A8FE53A87E120AEAC2BA539AFE06
:10531400C289759B00C2C2120AF075A91175B9053C
:10532400120AF6D2BA439A0174805E42A8025C1D46
:10533400C082C083906181E4F0A302568375E900C2
:1053440075910075BF0002011FC082C08390618106
:10535400E4F0A374C0F0A3E4025685C082C0837451
:10536400F812179A9003A41265B6700302543E9083
:1053740003A4E0544060237908851882851983AA20
:1053840082AB83120BFE851882851983AA82AB83B4
:105394001208A49003A4E054BFF0E0548060107994
:1053A4000C7A657B05120BFE9003A4E0547FF0E0B9
:1053B400A2E0500F7900120B021208AA9003A4E095
:1053C40054FEF0E05402600F7901120B021208AA95
:1053D4009003A4E054FDF0E05404600F7900120B34
:1053E400081208B09003A4E054FBF0E05408600FE6
:1053F4007901120B081208B09003A4E054F7F0E00E
:105404005410600F7902120B081208B09003A4E044
:1054140054EFF0E05420600F7903120B081208B027
:105424009003A4E054DFF0A3E05401600D120B14C8
:105434001208B69003A5E054FEF074081217B002E7
:105444005686C082C083E9600514602A804F90614B
:105454009A7433F0A37455F09061A0743AF09005F7
:105464003FE064017009C2919003A67467802D9097
:1054740003A67461802690619A743FF0A3745AF075
:105484009061A0747FF090053FE064017009D291AF
:105494009003A6747180059003A6746AF002568680
:1054A400C082C083E9600B14600D14601714600C93
:1054B40080209025C880159025C9801090053FE074
:1054C400640170059025CA80039025CBE493906114
:1054D40086F002568674EE12180A74F412179A852E
:1054E4001882851983AC82AD8375839275820774A3
:1054F400041216AD9025C893F46003025603907805
:1055040008E0C3940250030255E374041217E6AC96
:1055140082AD837583917582A574081216ADFC7EE5
:10552400FF7FFF8E0C7D008C8285820E800F7408B5
:105534006D606D74096D6068740A6D60638D0875C3
:1055440009007402780812178712560D121652A910
:1055540009E50AC9F8881074187808121593E5103B
:105564004508FAE9FBE50EC333F8E433F974041291
:1055740017E6E58228F582E58339125B0DC3E89AC4
:10558400E99B4008E8C39AF8E99B8006EAC398F8C7
:10559400EB99F9C3E89EE99F5006E8FEE9FF8D0CFC
:1055A4000DEDC39413408774FF6E700374FF6F6036
:1055B40024850C087402780812178712560D1216E7
:1055C40052851882851983E582250EF582E58312BA
:1055D4005FACE508F00CECC394045003025523754A
:1055E40008017509007808121A1D74021217E6AC36
:1055F40082AD837A727B0912122E74021217B07470
:105604000C1217B07F0A0218DC74482508F582745E
:10561400783509F583780822C082C083906186E0DA
:10562400F89025CBE4936870099025CAE4939061BF
:1056340086F09061AE7468F0A3746AF09062457469
:10564400FBF0A304F053F4FD43FE0290053F740104
:10565400F09061A0E0643A7004790080027901124C
:105664000B02025686C082C0839004F1E06401708C
:105674000A9004F6E06004790C800279008003F05B
:10568400A3F0D083D08202011FC082C08375E1F1F0
:105694009004F4E0604D14600914605114604914DE
:1056A4007050120B269004EAE0F97AEB7B04120D99
:1056B4008A90920F121670120DC09091E712167014
:1056C400120D969004F5E0F9120DA27901120DFC69
:1056D4001257A92416125FA9743EF0A3740BF07933
:1056E40000809F120B2C80BD120B3280B8120B3835
:1056F40080B3791280EB74F412180A75D90D9004F2
:10570400D5E0A2E0E4331313F812579F484401F59F
:10571400D9780012580C40FB7800880874D61265BA
:105724000C740412581640F275E1959004D5E0F912
:105734007AD67B04120D90900E9974B4F0A3740A77
:1057440012581C1258601258571259749004F4E0FD
:1057540064019004E8700B1257B21216529092131F
:1057640080091257B212165290921778081215DE59
:105774009091FB780812162C1257A9240E125FA9D7
:1057840078081216611257A92414125FA97413F031
:105794009003A27402F07F040218DC9004EAE0C4CF
:1057A400333354C0229004E8E0F8A3E0C822126422
:1057B4004478082274F612180A1259458AD97800D6
:1057C40012580C40FB780080061258BD1259FAE8B2
:1057D400C39940F512593712580C40FB78008008E1
:1057E40012650874051259FAE8C39940F375E195F6
:1057F400900E9974C0F0A3740A12581C125826749F
:1058040012F09003A2025BE1880874EB2508F5828C
:105814007404125B7794062212595D74BAF0A3746F
:105824000A221258601258571259789004E8E0F886
:10583400A3E0C8240E12584F74FF1262819004E84A
:10584400E0F8A3E0C8241412584F22F582E834008B
:10585400F58322F0A374D2F0A3740A2212586422AE
:1058640012586822F0A37470F0A3740C2274F61218
:10587400180A1258B212579F4402F5D978001258E8
:105884000C40FB780080061258BD1259FAE8C399FF
:1058940040F575E195900E991258C8F0A31258C8B6
:1058A4001258297414F09003A27404025BE3900468
:1058B400FAE0F9740729F5D922880874FB2508F55C
:1058C4008274042274CC1258D51258D5F0A3740AE9
:1058D40022F0A3740AF0A374CC2274F612180A12EC
:1058E400594574064AF5D9780012580C40FB7800E3
:1058F40080061258BD1259FAE8C39940F512593777
:1059040012580C40FB78008008126508740512597F
:10591400FAE8C39940F375E195900E9974C6F0A323
:10592400740A1259531258267415F09003A2740382
:10593400025BE390051A1258B574044AF5D978004D
:10594400221258B29004EAE0C4333354C0FA22124B
:10595400595D7470F0A3740C221259612212596EAD
:105964007470F0A3740C12596E22125868F0A322BA
:1059740012597822F0900EA77470F0A3740C125987
:10598400617470F0A3740C125864F022C082C08356
:105994001257A92406125FA9E402568374F7121859
:1059A4000A9003D0E0F875F003A4C8AAF02AF974A9
:1059B400D228F8740339F9E82405FAE9126457A3E4
:1059C400A3A3A3A3A3A3A3A3126558A3A3A3A3A3BD
:1059D400A3A3E024FFF8A3E034FFF98A828B83E8D1
:1059E400F0A3E9F0025C1D7F060218DC8808744508
:1059F4002508F5827405125F83F5D90822EAFEEBC7
:105A0400FF9061D0E0F87480C398FAEE24822212E9
:105A14005A19940422F582E93400F583E0F5D90A91
:105A2400EAC32274F612180AEAFEEBFF9061D0E092
:105A34006003025ABB75D90E75D90375D9047A006F
:105A44008A08EE2508126511248B125AC040F17A97
:105A5400008A08EE25081265112483125A1340F1B6
:105A640075E1957908EE248BFAEF3400FB120BF202
:105A74007904EE2483FAEF3400FB120BF27C008CE1
:105A840082AA82C3E49AF895E0F9EE28F8EF39F98E
:105A9400E8248AF582E9125F7FC0E0EE2A126511DC
:105AA40024AAF582E9125FACD0E0F00CECC39408B0
:105AB40040CD125AC980027900025BE4125A19944B
:105AC400082275E195EE246FF582EF1258521265A3
:105AD400D3EE2471F582EF125852E8F0A3E9F0797D
:105AE4000122C082C08375D90275D90375D90575A1
:105AF400E195EA246FF582EB125B0BEA2471F582DF
:105B0400EB125ADB0256863400F5831265D32274F5
:105B1400F612180AEAFEEBFF9005457406125B8242
:105B2400121A1D7C017903120C6474021217B075E9
