:020000040000FA
:0600000002010702203896
:03002B000224ADFF
:0300330002248F15
:03003B000224CECE
:0300430002244351
:030053000220AEDA
:03006B0002246903
:10008300021EE7E5C754F84401F5C77901220000D1
:100093000080FB120086B900030200F1E4792178A5
:1000A30008B800028004F709D8FCE479297802B87B
:1000B30000028004F709D8FCE4900281789B790A56
:1000C3008002F0A3D8FCD9FA7A1B7B0C9001377815
:1000D3000279048015E493A3AD82AE838A828B8375
:1000E300F0A3AA82AB838D828E83D8E9D9E7758288
:1000F300107583A1740312011975829175830074BD
:100103000012011975D00075813F751881751902A8
:10011300759F00020096C09FF59FE473D09F22D085
:1001230083D082C09FE493C0E0740193C0E0740263
:1001330093F59F22FF0000B4000028002800283018
:1001430075A000A000A000A00000080008E001F0D6
:10015300001000100010001000100010005000509C
:1001630000500010001000D0070000000000000F36
:100173000001000500307507001000010081FF0039
:10018300000000FF360654063C06FF020202080286
:100193005000A0000000E803020493010000E7926E
:1001A30002FA92010000720C02F492010000B30201
:1001B30002FA92010000730C02F092010000C902DE
:1001C30002FA92010000740C020693010000CB02B4
:1001D30002FA92010000750C022893080000CC0279
:1001E30002FA92010000760C021493010000770CCE
:1001F300FF0100FF20020493010000EA9202FA9239
:10020300010000DB0C021C93000000000002F692C8
:100213000300001903720C720C720C720C720C72D4
:100223000C720C720C720C720C720C720C720C4805
:100233000F600F420FFFFF020202020202020202DC
:10024300010D00000010010204930100004192021D
:10025300FA920100001E0D02FC920100005D0702EC
:10026300FA920100001F0D02F292010000089202AF
:10027300FA92010000200D020A93010000ED9102A1
:10028300FA92010000210D020E9301000008910271
:10029300FA92010000220D021093010000E4900283
:1002A300FA92010000230D021293010000F690025E
:1002B300FA92010000240D020293010000D2900281
:1002C300FA92010000250D021A93010000DF91024A
:1002D300FA92010000260D021693010000270D017A
:1002E300E803053F100AFF00013075030201060011
:1002F30000000000000000000000000000000000FB
:100303000000000000000000000000FFFF06008066
:100313000CE803140953696D706C65424C455065D4
:10032300726970686572616C051250002003020ADD
:10033300000201060302F0FF53696D706C652042F1
:100343004C45205065726970686572616CE61300F4
:1003530000EC130A436861726163746572697374B4
:100363006963203100024368617261637465726975
:100373007374696320320008436861726163746552
:100383007269737469632033001043686172616337
:10039300746572697374696320340002436861721F
:1003A3006163746572697374696320350002049331
:1003B300010000ED9202FA920100003A0E0220932E
:1003C3000300000C0C02F8920100003B0E02FA92AB
:1003D3000100004C0E0222930100000D0C02F89262
:1003E3000100004D0E02FA920100005E0E022493FA
:1003F3000200000E0C02F8920100005F0E02FA9256
:10040300010000700E0226930000000F0C02F6920A
:10041300030000100C02F892010000710E02FA9220
:10042300010000820E021893040000160C02F892D9
:10043300010000830E120122939303120122AA9357
:1004430003120122DB9303120122169403120122E9
:100453004094031201226A9403120122819403122D
:100463000122989403120122AF9403120122D8941B
:1004730003120122EB9403120122019503120122BC
:100483001495031201223B950312012201980212D3
:1004930001220599021201223D990212012260995B
:1004A300021201226B99021201228E990212012279
:1004B3009D9A02120122729B02120122ED9B0212EB
:1004C3000122759C02120122B09C02120122E79CB8
:1004D30002120122759D021201224E9E0212012276
:1004E300AE9E02120122B99E02120122389F02120D
:1004F30001223B9F021201223E9F02120122CD9F45
:1005030002120122D09F0212012200A00212012234
:100513002AA00212012218A102120122CAA1021268
:10052300012272E3021201229AE302120122C8E3BA
:1005330002120122FFE3021201225DE402120122F0
:10054300A8E402120122F3E40212012233E50212AB
:10055300012279E502120122A7E50212012264E6D3
:10056300021201226EE6021201227BE6021201222E
:10057300AEE6021201227AE70212012286E7021294
:1005830001229EE702120122A8E702120122B59D71
:1005930003120122C39D03120122DB9D03120122D8
:1005A300F39D031201224DB301120122F9B301128B
:1005B300012274B40112012295B501120122D1B5B1
:1005C300011201227AB60112012261B7011201223E
:1005D300C5B8011201221CB9011201229DB90112F1
:1005E30001228DBA01120122DABA0112012260BB83
:1005F3000112012292BB01120122A6BD01120122A6
:10060300E8BD0112012206BE0112012289BE0112B8
:1006130001225DBF0112012225C00112012291CDE9
:100623000212012264CE021201220DCF0212012214
:1006330060CF0212012210D0021201229CD00212BA
:10064300012288D102120122B7D102120122CAD299
:100653000212012212D302120122E7D30212012253
:1006630023D4021201223FD402120122BE9F03129D
:10067300012291F402120122A7F402120122CDF405
:1006830002120122E9F502120122F3F502120122FC
:1006930028F70212012220F802120122B4D4021216
:1006A3000122E4D50212012217D60212012261D6D9
:1006B3000212012228D8021201225EA30112012292
:1006C300C8A30112012227A50112012237A5011295
:1006D300012264A501120122BBA50112012264A615
:1006E300011201226BA70112012235A80112012276
:1006F30095A901120122D8A9011201227DAA011292
:100703000122CAAA01120122F0AA01120122FEAC9F
:100713000112012203AD0112012208AF01120122CD
:1007230055AF01120122C8AF01120122FBAF011222
:1007330001229DB00112012246B1011201227EB1B4
:100743000112012281B101120122C9B10112012258
:1007530009B20112012260B201120122568C031266
:1007630001226E8C03120122B68C03120122CC8C5F
:1007730003120122138D03120122278E0312012279
:10078300B48E03120122FF8E0312012240250012B0
:1007930001224C2500120122872500120122CC25BB
:1007A300001201228C2600120122122700120122BC
:1007B300772700120122A32700120122DC2700124F
:1007C30001221A2A00120122FE2B00120122E42D1B
:1007D30000120122272F001201227531001201227B
:1007E300873200120122D23300120122E2340012B6
:1007F3000122FF34001201223A35001201225C3536
:1008030000120122BF3500120122803A0012012298
:10081300153B00120122663B001201228D3B0012A0
:100823000122DF3B00120122FD3B00120122573C53
:1008330000120122403D00120122B63E00120122A5
:100843003A3F00120122DBD902120122E5D902123A
:10085300012228DA0212012243DA02120122D3DA38
:1008630002120122FBDA0212012238DB02120122F8
:100873006FDB0212012298DB021201220DDC02124D
:10088300012222DC0212012237DC0212012268DC7F
:10089300021201227CDC02120122A1DC02120122DB
:1008A300DBDC0212012207DD021201223FDD02120C
:1008B3000122BEDD02120122E9DD0212012232DE33
:1008C300021201225CDE0212012287DE02120122E1
:1008D300C599031201220080021201222E80021206
:1008E30001227C81021201225C82021201227B829C
:1008F30002120122F882021201223B830212012218
:10090300918402120122528502120122D987021216
:1009130001227A88021201227089021201226D8A51
:1009230002120122C78B02120122528C02120122EF
:100933006A9803120122D398031201222799031202
:1009430001224E99031201227F99031201222FE8FB
:10095300021201229CE802120122E3E802120122A0
:10096300FBE902120122F7EA02120122DAEB021278
:1009730001227EB502120122C0B50212012292B6F3
:10098300021201226BB70212012265B80212012280
:1009930047B902120122B0B90212012266BA021249
:1009A3000122DABA0212012246BB021201226FBBF4
:1009B30002120122E9BB0212012282BC02120122AD
:1009C300E7BC02120122FCBC0212012242BD021248
:1009D30001225BBD02120122C0BD02120122C3BD6E
:1009E300021201225D890312012285890312012269
:1009F300C38903120122818A03120122E88A0312A6
:100A03000122048B031201222C8B031201225C8B23
:100A1300031201226B8B03120122E88B03120122C2
:100A23000E8C031201222C9301120122CA9401128B
:100A33000122E596011201222197011201224E970C
:100A4300011201223398011201227A980112012224
:100A5300BE9801120122D0980112012210990112AD
:100A630001223D9901120122889901120122C8999C
:100A730001120122F69901120122489A0112012260
:100A8300D89A01120122769D011201228C9F011234
:100A93000122CA9F011201225BA101120122A0A11E
:100AA3000112012217A20112012261A201120122E5
:100AB3008CA20112012233A30112012205AC0212FE
:100AC300012284AC0212012246B20212012255B362
:100AD30002120122BDB40212012254B502120122F4
:100AE300C453001201220D54001201223A54001281
:100AF30001226D54001201227A54001201228654FD
:100B0300001201229854001201227F550012012283
:100B1300DD55001201221256001201225557001210
:100B23000122A25700120122C65700120122335894
:100B330000120122F15800120122AA5900120122C7
:100B4300175A00120122C95A00120122D95A00125F
:100B53000122605B001201221F5C001201224C5C27
:100B630000120122C55C00120122225D0012012243
:100B73006C5D00120122025E00120122CD5E0012A2
:100B83000122825F00120122F75F001201225860E6
:100B930000120122C26000120122FB600012012236
:100BA3009D6100120122AD6200120122ED6200126A
:100BB30001220A63001201222963001201227063D9
:100BC30000120122956300120122C2630012012266
:100BD3003C64001201227D6400120122A16500120F
:100BE3000122516600120122A86600120122126737
:100BF300001201222B67001201223BA202120122E2
:100C03008EA2021201229AA2021201226FA30212E1
:100C1300012296A302120122D1A3021201223DA4B2
:100C23000212012279A402120122B2A402120122A9
:100C3300CAA4021201221FA50212012238A5021220
:100C4300012281A50212012294A502120122AEA55E
:100C530002120122C4A502120122F7A602120122E6
:100C63003EA80212012240A9021201223AAA02124C
:100C73000122FBFF01120122BEEC01120122EEEC64
:100C830001120122B6F0011201220DF2011201221A
:100C9300D6F20112012256F40112012227F50112A4
:100CA300012264F50112012287F501120122C5F523
:100CB30001120122CEF50112012218F601120122BE
:100CC30022F601120122CCF601120122A5F701122C
:100CD3000122F9F7011201225BF801120122AEF899
:100CE30001120122DDF8011201221AF90112012277
:100CF3005D6700120122C46A00120122CA6A00124F
:100D030001224C7000120122C574001201229B784B
:100D130000120122008003120122768003120122B5
:100D23008C8003120122CD8003120122078103125A
:100D33000122808103120122BB81031201222E8230
:100D4300031201226C820312012275820312012213
:100D53008182031201229D8203120122C88203129F
:100D63000122DE8203120122228303120122AFDE5B
:100D730002120122C2DE02120122DCDE0212012271
:100D830005DF0212012248DF0212012287DF02126D
:100D93000122C5DF021201222AE0021201223FE0F2
:100DA300021201224AE00212012257E0021201223A
:100DB3006EE0021201227CE00212012287E002129D
:100DC300012293E002120122A6E002120122B1E005
:100DD30002120122D4E0021201227BE1021201225B
:100DE3008BE102120122A5E102120122C2E10212E9
:100DF3000122DEE10212012203E2021201220EE2CB
:100E03000212012223E20212012237E2021201221C
:100E130098E2021201229EE202120122A4E20212CD
:100E23000122AAE202120122C2E202120122F5E227
:100E330002120122AFD00112012233D10112012289
:100E4300E2D10112012241D30112012262D5011222
:100E530001224ED60112012283D601120122A5D608
:100E63000112012254D7011201224CD9011201228D
:100E730075D90112012207DA0112012239DA0112AE
:100E8300012246DA011201229DDA01120122C3DA9C
:100E93000112012230DD0112012233DE011201228F
:100EA3008BDE011201223EC20112012248C301124C
:100EB30001222FC40112012239C4011201225BC491
:100EC3000112012267C40112012200C6011201228C
:100ED3002FC6011201224BC701120122A4C701121E
:100EE30001220AC901120122E9C90112012245CADC
:100EF30001120122B2CA01120122EDCA011201221A
:100F03002CCB01120122E5CD01120122FFCD0112EA
:100F130001228BCE0112012299CE01120122F2CEBF
:100F23000112012200CF0112012273CF011201220B
:100F3300D7CF0112012221D001120122D38C021238
:100F43000122F58C021201221B8F02120122309220
:100F530002120122489302120122FB930212012280
:100F6300DD94021201224D950312012272950312A0
:100F73000122E4950312012217C60212012220C6A0
:100F83000212012229C60212012200C70212012203
:100F9300B1C802120122E7C80212012221C90212BA
:100FA300012257C90212012291C902120122C5C9A5
:100FB30002120122F1C9021201223ACA02120122CB
:100FC30074CA02120122BDCA0212012215CB0212F7
:100FD30001224ACB02120122A5CB02120122DFCB4E
:100FE3000212012230CC0212012266CC021201222B
:100FF300A0CC02120122CECC02120122F1CC0212A9
:1010030001228C9E03120122B89E03120122139F18
:10101300031201221D9F031201222D9F031201229D
:10102300F5F901120122FFF9011201223DFA011221
:10103300012286FA01120122C0FA011201221AFBCF
:10104300011201223BFB0112012244FB0112012286
:1010530095FB01120122BEFB01120122C8FB011202
:10106300012234FC01120122C2FC0112012210FDF3
:101073000112012246FD01120122CDFD01120122BE
:101083000DFE0112012245FE0112012257FE01123B
:10109300012276FE011201227FFE0112012239FF95
:1010A30001120122E29B03120122949103120122F5
:1010B300CA910312012200920312012259930312CF
:1010C300012242A00312012258A00312012262A0AE
:1010D30003120122ACA0031201229CEC0212012292
:1010E300B5EC0212012259ED0212012299ED02120E
:1010F3000122B2ED02120122E6ED0212012233EEC9
:101103000212012267EE02120122A9EE021201224B
:10111300DC9C03120122059D031201222E9D031262
:101123000122709D0312012252830312012277834D
:1011330003120122A38303120122ACA10312012291
:10114300A13F00120122054200120122B7430012FF
:101153000122A944001201222E4500120122AC45AE
:1011630000120122D94500120122FD48001201227A
:10117300774900120122664A00120122A04A001296
:101183000122E04A001201229A4C00120122ED4C86
:1011930000120122364D00120122A44D0012012239
:1011A300D64D00120122EE4D00120122034F001210
:1011B3000122134F001201224350001201226550F5
:1011C300001201229B500012012240520012012200
:1011D3007F52001201229F53001201222FFF02129D
:1011E300012240FF0212012263A103120122A2A1E4
:1011F30003120122EB7F0012012263FF011201227D
:1012030073FF011201228BFF01120122F1FF011270
:101213000122DE9A03120122639B03120122C99B5E
:1012230003120122F296031201221B9703120122D9
:10123300869703120122D7970312012230980312D3
:101243000122ADF002120122E4F00212012254F154
:101253000212012269F102120122B2F202120122E8
:1012630078F30212012297F302120122BEF3021253
:101273000122F3F3021201220BF4021201225CF4A5
:1012830002120122E5FF02120122C0FB0212012217
:1012930050FC02120122CEFC0212012257FD02125F
:1012A3000122ECFD0212012276FE0212012280FECF
:1012B300021201228FFE02120122A5FE0212012256
:1012C300B8FE0212012218FF021201222CFF0212A1
:1012D3000122379F03120122A19F03120122B39F10
:1012E30003120122647E00120122B97E0012012240
:1012F300277F00120122977F00120122298F0312F8
:101303000122538F031201222890031201221C9100
:1013130003120122E7BD02120122A4BE021201221E
:10132300DFBE0212012207BF0212012269BF0212AD
:101333000122B5BF021201220EC0021201229FC078
:1013430002120122A1C1021201225EC30212012272
:10135300E0C30212012245C4021201225CC402123C
:1013630001226CC502120122AAC502120122D9DE92
:101373000112012263E201120122EBE301120122B5
:1013830042E40112012261E401120122DFE40112AD
:1013930001227DE60112012261E7011201224BEBDA
:1013A300011201221BEC01120122638603120122A6
:1013B300928603120122A88603120122F0860312E9
:1013C30001223287031201229D87031201226C88B6
:1013D30003120122D88803120122EA7800120122A3
:1013E300297B00120122C87B00120122867D001294
:1013F3000122AF7D001201221C7E001201222AF875
:10140300021201226FF8021201228CF80212012249
:101413003DF90212012290F9021201226BFA021223
:10142300012287FB02120122F3A1031201221FA250
:1014330003E066701008A3E066700A08A3E0667014
:101443000408A3E06622C3E7960809E7960809E7BC
:10145300960809E79622C3E09608A3E09608A3E05E
:101463009608A3E09622C008C3E096F50808A3E017
:1014730096420808A3E096420808A3E09645087040
:1014830001D3D00822080808EAC0E0EBC0E086F0E8
:10149300E7A4FA180986F0E7A42AFA180986F0E700
:1014A300A42AFA180986F0E7A42AFA1986F0E7A411
:1014B300FBE5F02AFA190886F0E7A42BFBE5F03ADE
:1014C300FA190886F0E7A42BFBE5F03AFA18180995
:1014D30086F0E7A4C5F02BFBE43AFA1908E7C5F058
:1014E300C6A426F6E5F03BFBE43AFA1886F0E7A437
:1014F300F6E5F00826F6E43B08F6E43A08F6D0E011
:10150300FBD0E0FA226016080808C6C313C618C643
:1015130013C618C613C618C613C6D5E0EA22700947
:10152300080808226016181818C6C333C608C6333D
:10153300C608C633C608C633C6D5E0EA22E627F690
:101543000809E637F60809E637F60809E637F6220A
:10155300E026F608A3E036F608A3E036F608A3E093
:1015630036F622E026F008A3E036F008A3E036F0D2
:1015730008A3E036F022C3E697F60809E697F608D3
:1015830009E697F60809E697F622C3E096F008A362
:10159300E096F008A3E096F008A3E096F022E05668
:1015A300F608A3E056F608A3E056F608A3E056F6BD
:1015B30022E056F008A3E056F008A3E056F008A393
:1015C300E056F022E0F608A3E0F608A3E0F608A34D
:1015D300E0F622E6F008A3E6F008A3E6F008A3E6A7
:1015E300F022E0FAA3E0FBA3E0FCA3E0FD22EAF093
:1015F300A3EBF0A3ECF0A3EDF022E0F8A3E0F9A352
:10160300E0FAA3E0FB22E8F0A3E9F0A3EAF0A3EBFE
:10161300F022CAC0E0E6F0A308DAFAD0E0FA22CA60
:10162300C0E0E0A3C582CCC582C583CDC583F0A34A
:10163300C582CCC582C583CDC583DAE6D0E0CA2294
:10164300C3E498F8E499F91216848026C3E49AFA5D
:10165300E49BFBE920E7E9121684E498F8E499F99E
:1016630022C3E498F8E499F9121684E498F8E4990B
:10167300F9C3E49AFAE49BFB22EB20E7CFE920E7E6
:10168300E0B90010BB0008E88AF084F8AAF022E46D
:10169300FBC8FA22EB70227B10C833C8C933C933A5
:1016A3005007C39AC3DBF280069A50012ADBEAC8CB
:1016B30033F4C8C933F4C9FA2275F008E4C833C84F
:1016C300C933C933C99AC99B5004C92AC93BD5F048
:1016D300ECFBC833F4C8E4C9FA22600D08C6A2E7DC
:1016E30013C618C613C6D5E0F322600C08C6C3138D
:1016F300C618C613C6D5E0F422700422600D18C6BE
:10170300C333C608C633C6D5E0F41822251810AF74
:1017130008F518400C15198008F51840021519D260
:10172300AF2200C0D0251810AF08F518500C0519CA
:101733008008F51850020519D2AFD0D0222518F52C
:101743008210AF08F518400C15198008F5184002EF
:101753001519D2AF851983222518F582E43519F5B9
:1017630083222518F8E43519F9222518FAE43519E6
:10177300FB222518FCE43519FD22E4732518C582E4
:10178300C0E0E51934FFC583C0E0E518C3958224A2
:10179300F810AF0885831985821880088583198519
:1017A3008218D2AFCEF0A3E520F0A37808E608F0C4
:1017B300A3DEFAEFF0A3E58124FAF8E608F0A3E646
:1017C30008F0A3E608F0A30808E608F0A3E608F08B
:1017D300A315811581D0E0FED0E0F81581158115A0
:1017E30081E8C0E0EEC0E0222518C582C0E0E5191B
:1017F30034FFC583C0E0E518C3958224F910AF0810
:101803008583198582188008858319858218D2AF4C
:10181300CEF0A3E520F0A37808E608F0A3DEFAEF04
:10182300F0A3E58124FBF8E608F0A3E608F0A3089B
:1018330008E608F0A3E608F0A315811581D0E0FEC1
:10184300D0E0F815811581E8C0E0EEC0E0228519EB
:1018530083851882E0A3FEE0A3F5207808E0A3F6D1
:1018630008DFFAE0A3FFE0A3C0E0E0A3C0E0E0A349
:10187300C0E0E0A3C0E0E0A3C0E010AF0885821899
:101883008583198008858218858319D2AFD083D0C8
:101893008202011F851983851882E0A3FEE0A3F568
:1018A300207808E0A3F608DFFAE0A3FFE0A3C0E096
:1018B300E0A3C0E0E0A3C0E0E0A3C0E010AF088570
:1018C30082188583198008858218858319D2AFD041
:1018D30083D08222C0D02518C582C0E0E51934FF29
:1018E300C583C0E0E518C3958224F310AF08858350
:1018F300198582188008858319858218D2AFC8F0AC
:10190300A3E9F0A3EAF0A3EBF0A37908E709F0A3B6
:10191300D8FAECF0A3EDF0A3EEF0A3EFF0A3D0E040
:10192300F0A3D0E0F0A3D0E0F0A3E520F0A3E5F02E
:10193300F0A322851983851882E0C0E0A3E0F9A310
:10194300E0FAA3E0FBA37808E0F608A3DFFAE0FCE3
:10195300A3E0FDA3E0FEA3E0FFA3E0C0E0A3E0C09B
:10196300E0A3E0F5D0A3E0F520A3E0A3F5F010AFEA
:10197300088583198582188008858319858218D282
:10198300AFD082D083D0E0F8D0E032740480067404
:101993000280027401C0E0F404121740D0E0121672
:1019A30015227404800474028000CCC0E0EDC0E012
:1019B300E518C39CCCAD1950011D10AF068C188DD2
:1019C3001980068C188D19D2AF121622D0E0FDD0E3
:1019D300E0FC22D083D082E9C0E0E493A3C386F085
:1019E300C5F095F0F908E493A386F0C5F095F0707F
:1019F3000BE493A3C3994005E9048002A3E475F0C3
:101A030002A42582F582E5F03583F583D0E0F9E47D
:101A130093A3C0E0E493C0E022D083D082ECC0E083
:101A2300EDC0E0E493A3FCE493A3FDED4C600D1241
:101A33001A68EC24FFFCED34FFFD80EFE493A3FC74
:101A4300E493A3FDED4C600D121AA7EC24FFFCED0B
:101A530034FFFD80EFD0E0FDD0E0FCE493A3C0E0D1
:101A6300E493C0E022C0E0C3E49396087401939624
:101A730018400FE4936670080874019366187000A9
:101A83007019A3A3C3E49396087401939618A3A3B0
:101A9300400DD0E0D0E0D0E0021A58A3A3A3A3A343
:101AA300A3D0E022C0E0C0F088F0E4936670080899
:101AB30074019366187000A8F0A3A3700BD0F0D044
:0F1AC300E0D0E0D0E0021A58A3A3D0F0D0E02288
:101AD40074F51217EBEAFEEBFFEE2434F8EF340052
:101AE400F988088909EE2435121C00F8EE2437120F
:101AF4001C00F50AEC850AF0A4FCAAF0850AF0EDB6
:101B0400A42AFDE82CF8E43DF97A257B001216841A
:101B1400EA850882850983F074075AF87401B800CD
:101B2400028004C333D8FCFBEA131313541FF8EEEA
:101B340028F8EF3400F9E8245DF582E9121C035B10
:101B44006003EA801CEE2436121C00F5F0EA84A837
:101B5400F0EE28F8EF3400F9E82438F582E9121C95
:101B640003F97F0402189774F51217EBEAFEEBFFF2
:101B7400EE2434121C00C0E0EE2435F582EF34006C
:101B8400F583D0E0F08E828F83A3A3A3A3A3E0FA0E
:101B9400A3E0FB8E828F83A3A3A3A3A3A3A3E0FC50
:101BA400A3E0FDECC39AF50AED9BF50BEE247FF55B
:101BB40008EF3400F509850882F583E06401702B91
:101BC400EE2480F582EF3400F5831219A9121C0962
:101BD4007402121725E960137CDC7D04EEFAEFFB36
:101BE400120B9A850882850983E4F0AC0AAD0BEEEA
:101BF400FAEFFB121AD412242F021B66F582EF347B
:101C040000F583E022C082C083851882851983E0B1
:101C1400F8A3E0F9C3EA9CEB9D5010C3EC98ED994E
:101C2400401BC3EA98EB995014800EC3EA98EB99D1
:101C34004007C3EC98ED994004790180027900D003
:101C440083D08222EAC39CFAEB9DFB2274ED121727
:101C5400EB9003A2E064086005E06407702C9061D7
:101C6400C8E060269003D0E0F874FF68601CE87553
:101C7400F003A4C8AAF02AF974D228FE740339FF29
:101C84008E828F83A3A3A3E070057900021DF0EE7A
:101C94002468F510EF3400F511906060E08510823F
:101CA400851183F0750A45750B05750800750900E3
:101CB400E5D914F50EE5D95403F50F601CEE248222
:101CC400F50CEF3400F50D7403650F6058E50E60F4
:101CD40013EE2467121C00700B793DEEFAEFFB1231
:101CE4000BBE80A6900540E064016026850C8285C9
:101CF4000D83E06004780480027800850E08E5080E
:101D0400C398FA95E0FB120A388A088B09EA450958
:101D14007006120E16021C8E850C82850D83E070EF
:101D2400048A0A8B0B78008016E5D9C0E08812E596
:101D34000A2512F582E50B3400F583D0E0F008E8BB
:101D4400C3950E40E4850C82850D83E0602874FC05
:101D5400250EF50E780A121992AC0EA90FEEFAEFC1
:101D6400FB120C6C7402121725E9700AAA08AB095D
:101D74001212EA021CDD7403650F6058850E0C759F
:101D84000D00780C121992AC0AAD0BAA08AB09121B
:101D94000C307402121725851082851183E0F874C3
:101DA40080687005750C7F8002880CE50CF50A7854
:101DB4000A121996E50FF50A780A121996A90EACBB
:101DC40008AD099003D0E0FA7B001208D074021227
:101DD400172580139003A2E06408600BAC0AAD0BD6
:101DE400EEFAEFFB120D02120E2279017F0C02189B
:101DF4009774F31217EB74FC12170FEAFEEBFF89CA
:101E040008A2AFE433F509C2AFEE2463F50AEF3458
:101E140000F50B8010AA0AAB0B120BE81212EA9021
:101E240004E3E004F0850A82850B83E0F8A3E0F97B
:101E3400E849602FE82402FAE93400FBEA2402F5B9
:101E44000CEB3400F50D780C1219928A828B83E026
:101E5400FCA3E0F9EEFAEFFB120BDC740212172577
:101E6400E960B29004E3E060579004E4E0F8900481
:101E7400E3E0C398500C7402650870449004E5E0F4
:101E8400603E8E828F83A3A3A3A3E0851882851965
:101E940083121ED4740212175BE8121ED49004E25B
:101EA400E028F0740212175BAC82AD83851882853A
:101EB4001983AA82AB8379011208DC9004E3E4F06D
:101EC400E509A2E092AF74041217257F0602189761
:101ED400F0A3E4F09004E3E0F82200008521878574
:101EE40022C622C0E074EF1218D7A2AFE433FEC2B8
:101EF400AF759B00906182E0A2E05012E591A2E0F0
:101F0400500C7591FE740165217003121C50E0A2FF
:101F1400E55051E591A2E5504B7591DF9003A2E0A5
:101F240064076005E06408702374016521703579E5
:101F3400019003D0E0FA75F003A4CAA8F028FB745A
:101F4400D22AFA74033BFB121DF58018E0640D706D
:101F5400139003C4E004F064287002E4F07A00E013
:101F6400F9120E28906182E0A2E6400302200EE5F9
:101F740091A2E6400302200E7591BF9003A2E06493
:101F8400057008120D44120D508003120D4A75217C
:101F940000120DB6E99003A3F07900120DAA120BFA
:101FA400047A017B009003A1E0F912107A9078037F
:101FB400E064427055900544E014F0704DC2AF12D5
:101FC4001FC600782AD0E0F618D0E0F6E59F540743
:101FD40070057509FF800375097FC4C0E07829E6A0
:101FE400F50808E65509F509740B78081216EDD0C2
:101FF400E02508F8906270E0A2E740F8E8C3339067
:102004006272F0906270E0D2E0F0906181E0A2E34D
:102014005009E5E9A2E3500375E9F7A3E0A2E7500C
:1020240009E591A2E7500375917FEEA2E092AF7F9C
:1020340004021936C0E0C0D0C082C083906183E03E
:10204400A2E05009E5BFA2E0500375BFFEE0A2E1A3
:102054005009E5BFA2E1500375BFFDE0A2E25009BB
:10206400E5BFA2E2500375BFFBE0A2E35009E5BF60
:10207400A2E3500375BFF7E0A2E45009E5BFA2E470
:10208400500375BFEFE0A2E55009E5BFA2E5500398
:1020940075BFDFE0A2E65009E5BFA2E6500375BFB5
:1020A400BFD083D082D0D0D0E032C0E074F2121816
:1020B400D7E5A7A2E4500FE5A1A2E4500953A7EF86
:1020C40075A1EF122102E5A7A2E5500CE5A1A2E556
:1020D400500653A7DF75A1DFE5A7A2E15009E5A1EA
:1020E400A2E1500375A1FDE5A7A2E2500CE5A1A26F
:1020F400E2500653A7FB75A1FB7F0102193674F861
:102104001217EB7521019003A2E0640670077A00B0
:102114007B00120D2CA2AFE433FED2AF9003A8E0F3
:10212400640170187A207B009003A1E0F91210FE7C
:102134007A207B009003A1E0F9121080906182E084
:10214400D2E6F0900541E0602185C6228016900316
:10215400A7E064017008E5C654F84405F5C653BE0B
:10216400FC121EE07401652160E4EEA2E092AF7FF0
:10217400010218978E238F2485822885832785184A
:1021840082851983E0CEA3E0CF852882852783EB5F
:10219400C9EAC8EDCBECCA75F010C3E833C8E9331B
:1021A400C9EA33CAEB33CBC3EA9EF526EB9FF52588
:1021B400B35004AB25AA26EC33CCED33CDD5F0DAFD
:1021C400AE23AF242274F11217EB8A088B098C0A10
:1021D4008D0B9092BF78081215A1740F12175B78BB
:1021E4000C1215C79092BF780C1215A17808790CBF
:1021F4001214499092A350107808790C121579782A
:10220400081214694014800E780C79081215797834
:102214000C12146950047901800279007F080218B5
:102224009774ED1217EB8A088B098C0A8D0B909228
:10223400BF78081215A1741312175B780C1215C716
:102244009092BF780C1215A1780C790812144940A9
:10225400117808790C121579AA08AB09AC0AAD0BF0
:102264008022751000751100751200751301781025
:10227400790C12157978107908121540AA10AB114F
:10228400AC12AD137F0C0218979092BF7808121508
:10229400C78A828B8378081215B47F040218977456
:1022A400F51217EB8C828D8378081215C78A828BFE
:1022B40083780812158D1222F7C3E098F0A3E099F1
:1022C4001222E9401E9092CF78081215C78A828B99
:1022D4008378081215668E828F83E02420F0A3E0B1
:1022E400344EF080A4F08E828F83C3E09420A3E068
:1022F400944E22EA2404F8EB3400F9E8FEE9FF8C5A
:10230400828D83A3A3A3A3E0F8A3E0F98E828F8335
:102314002274F51217EBE9FE9004F7E0FAA3E0FB50
:10232400EEC333F8E433F974B228F582749139F5C5
:1023340083E02AF508A3E03BF50978081219929086
:1023440092AB1215E512217874021217258A088BB4
:10235400098C0A8D0B74107808121508AA08AB09A9
:102364007F0402189774F11217EB8A0C8B0D8C0EF4
:102374008D0F740F12175BE0FAA3E0FB74111217B0
:102384005BE0F508A3E0F5097808121992EA240144
:10239400F508EB3400F509E4F50AF50B780C790837
:1023A40012148890928378081215C7780C79081251
:1023B4001488AA0CAB0DAC0EAD0F12217874021266
:1023C40017258B09EA450960047A0180027A00EC3A
:1023D4002AFCED3400FD741312175BE0F8A3E0F956
:1023E400E8FEE9FFECF8EDF97A717B0212168488B5
:1023F400088909E4F50AF50B8E828F837808121593
:10240400D6ECF8EDF97A717B021216848A088B09EE
:10241400740578081216FC8E828F83A3A3A3A3E508
:1024240008F0A3E509F07F08021897C082C083E989
:10243400906000F0D083D08222C2AF02000022C09C
:10244400E074F21218D7A2AFE433FED2AFC2C0E5F3
:10245400D1A2E4500653D1EF1212CCEEA2E092AF17
:102464007F01021936C0E074F21218D7A2AFE43328
:10247400FED2AFE589A2E1500312123C758900C275
:10248400C5EEA2E092AF7F01021936C0E074F212E9
:1024940018D7A2AFE433FED2AFE58BA2E05003120B
:1024A400123C758B00C2E880D8C0E0C0D0E8C0E020
:1024B400E9C0E0E5A8D2AFC2C7A2E7A2E792AFD0D5
:1024C400E0F9D0E0F8D0D0D0E032C0E0C0D0E8C02D
:1024D400E0E9C0E0C008C009C082C083A2AFE43311
:1024E400F9D2AF9009D3E0F8A3E0687008539AFBDF
:1024F400A374018025C2E99009D3E0F5087401258D
:1025040008F074532508F582E43409F583E0F5C135
:102514009009D3E0C394804002E4F0E9A2E092AFD2
:10252400D083D082D009D008D0E0F9D0E0F8D0D060
:03253400D0E032C2
:10253800FFFFFFFFFFFFFFFFC082C083E9900CDAB7
:10254800F00227CF74F712177FE99002E1F07C19A7
:102558007D037AFF7BFF12081C9002E274FFF0A350
:10256800F0A3E4F0A3F079051207A49002E1E0F9E2
:102578001206C67A3A7B081209EA7F0102185174DA
:10258800F412177F8A088B09EB548060309002E1BF
:10259800E0F91210628A0A8B0BAE0AAF0BEE4F609D
:1025A800138E828F83E064B070031207BCEEFAEFDB
:1025B800FB121050AA08E5096480FB80047A007BAE
:1025C8000002279E74F212177F74FC12170FEAFE9E
:1025D800EBFFEE4F6038740212175BEEF0A3EF12B8
:1025E8002A03ECF0A3ED122A03AA82AB831206C0D9
:1025F800E9F5087073741212175B1235B7E50A45CE
:102608000B60658E828F8312267AEE4F70057508EF
:102618000280557A067B001210B68A0C8B0DA80C26
:10262800A90DE8497005750813803D88828983E4FF
:10263800122684A3A3EEF0A3EF123A50E50AF0A302
:10264800E50BF09002E712270C9002E76017E0FC18
:10265800A3E08003EAFCEBFD8C828D8312270C70CB
:10266800F38C828D831234DCA908740412172502B6
:102678003C52A3A3A3A3E0FEA3E0FF22F0A3F088AB
:102688008289832274F212177F890AE975F017A4E8
:10269800FEAFF09002E6E4F09002E412270C600A24
:1026A8001210BC9002E4E4F0A3F0EEFAEFFB121073
:1026B800B68A088B09EA4509602FEEFCEFFD790020
:1026C80012103E9002E4E508F0A3E509F07B0080D3
:1026D800081226F6E4F0A3F00BEBC3950A40F2E5E6
:1026E8000A9002E6F0790080027913023C52EB75F9
:1026F800F017A4F8A9F09002E4E028FAA3E0398AD8
:1027080082F58322123272EA4B2274F412177F7513
:102718000800750900740C12175B123A24FEE9FFD1
:10272800800CE5082401F508E5093400F509C3E53E
:10273800089CE5099D503285080A85090B740378C1
:102748000A1216FCEA250AF8EB350BF98882898308
:10275800A3A3A3A3A3A31235B7EE650A7003EF657D
:102768000B70BFE8FAE9FB80047A007B00802774CD
:10277800F412177F7900EAA2E0501B750852750918
:102788009278081219927C047D007ADC7B0C12077F
:102798009E74021217257F04021851C082C08390CC
:1027A80002E71227D6601C88828983A3A3E06A7097
:1027B80003A3E06B8882898370E8A3A3A3A31232E2
:1027C8006E80047A007B00D083D08202011F123D04
:1027D80025E8492274EE12177F74FC12170FEAFEDF
:1027E800EBFF851882851983E4F0A3F0EE2402122A
:1027F80034C0EE24051229F1EE2404F50EEF122D53
:10280800D6E024FE603924FC604624FE605224FE93
:10281800605E24FE70030228F624FE700302296E0F
:1028280024FE700302297D24FE700302298C24FCF7
:10283800700302299B24FE70030229AA0229E7904B
:1028480003007417F0A3E4122A0B12043E0229E7CE
:10285800851882851983AC82AD831207C20229B715
:10286800851882851983AC82AD831207C80229B7FF
:10287800850C08850D09740212175BAC82AD83853F
:10288800088285098312326E1206E48A0C8B0DAC1D
:102898000CAD0DEC4D6042E4F50CF50D780C1219F9
:1028A80092750C00750D03780C121992750C017550
:1028B8000D03780C121992740812175B1219A97972
:1028C800161232681208047408121725E9F50C70FC
:1028D8000B123264120456800F750C01850882852C
:1028E80009831229F91234DC850C080229BA74020A
:1028F80012175BAC82AD83850C82850D8312326E14
:102908001206E48A108B11AC10AD11EC4D604385B2
:102918000C82850D83A3A31219A9751000751103E4
:102928007810121992751001751103781012199206
:10293800740812175B1219A9791612326812080462
:102948007408121725E9F509700B12326412045C39
:10295800800F750901850C82850D831229F91234BF
:10296800DC850908804C851882851983AC82AD8383
:102978001207CE803A851882851983AC82AD8312FE
:1029880007D4802B851882851983AC82AD83120702
:10299800DA801C851882851983AC82AD831207E022
:1029A800800D851882851983AC82AD831207E6E90C
:1029B800F508E50860298E828F83A3E06414601F00
:1029C800850E82850F83E0900300122A03123D21B1
:1029D8009003011234DCE508A3122A0B120438EE26
:1029E800FAEFFB1207620233C8F50CEF3400F50D5D
:1029F80022123D2585188285198322F08518828543
:102A0800198322F07C007D03850A82850B831232AC
:102A1800722274EE12177F74FC12170F8A0A8B0B3E
:102A28008C0E8D0FEA2405F508EB3400F5097C15AA
:102A38007D0079007A007B0312103EE5082402F538
:102A48000CE5091229F48518828519838582108579
:102A580083117810121992850882850983A3A3A38C
:102A6800A3122F1E121992E5082405F510E5093462
:102A780000F5117810121992850C82850D83123297
:102A8800781206DE74061217258A108B11AE10AF65
:102A980011E50A2402F50AE50B1234C3EE4F700360
:102AA800022BE08017740212175B12326E8882893B
:102AB80083EAF0A3EBF0900300E004F0900300E059
:102AC800C394054003022BE0E4F510F511781012C9
:102AD80019927510E975110278101219927510EA99
:102AE8007511027810121992740612175B1219A93F
:102AF8007910EEFCEFFD1232681208047408121700
:102B080025E9705E850882850983A3A3A3A3A3A3EF
:102B1800A3E0F89002E9E0687048122F1E1219929B
:102B28007CEA7D02E5082408FAE5093400FB121066
:102B3800387402121725E960298E828F83A3A3A314
:102B4800A312326E900300E0F5107402781012168A
:102B5800FC74012510F58274033511F583EAF0A39E
:102B6800EBF0740212175B858210858311781012BE
:102B78001992740212175B1219A9850C82850D83AC
:102B8800123D361206EA74041217258A108B11AE0C
:102B980010AF11900300E0F5107511007402781061
:102BA8001216FC74002510F874033511F98882890F
:102BB80083A312270C7003022AA4E82403F8E9343B
:102BC80000F9EE4F6003022AAD8882898374FFF012
:102BD800A3F0900300E004F0900300E0600A1232D2
:102BE8006412044A7900800B8508828509831234AF
:102BF800D3790A0233C874EA12177F74FE12170FCA
:102C08008C128D13EA2405F50CEB123EA012267ED9
:102C1800750800750900EA2402F510EB3400F51177
:102C280085188285198385820A85830B780A12198B
:102C380092850C82850D83A3A3A3A3122DE01219FC
:102C480092E50C2405F50AE50D1234C3780A121929
:102C580092850C82850D83123D341206DE740612AD
:102C680017258A0A8B0BEA450B7003022D91EA247B
:102C780004F50EEB122DD612267E8A828B83A3A32F
:102C8800A3E0F985108285118312326E1206CCE911
:102C9800F5096003022D91E4F514F515781412195D
:102CA800927514E975150278141219927514EA755B
:102CB80015027814121992740612175B1219A97961
:102CC80013AC0AAD0B85108285118312326E12087F
:102CD800047408121725E9F5096003022D91900282
:102CE800E9E0F8E5087009E02402900301F0801794
:102CF800900301E0FCE82402FAE43400FBEA6C707B
:102D080001EB6003022D95850882AA82122F159483
:102D180014122F0D5073850E82850F83E0C0E07466
:102D2800022A122DCDD0E0F00508850E82850F838A
:102D3800A3E0C0E085080A7402250A122DCDD0E070
:102D4800F005089002E9122DE01219927CEA7D0242
:102D580085080A7402250AFA74033400FB12102647
:102D680074021217259002E9E02508F50874FF6E31
:102D7800700374FF6F6012EE24010EEF3400FFE55C
:102D880008C394145003022C28E508601312315923
:102D980085108285118312326E12045079008014D6
:102DA800E509700375090A851282851383EEF0A37D
:102DB800EFF0A90974021217257F0E021851850831
:102DC8000C7402250CF58274033400F58322340058
:102DD800F50F850E82F58322123A632274EE1217DC
:102DE8007F74FE12170F8C0E8D0FEA2405F50CEB7D
:102DF8001229F4750B00900300E4F0F50AEA2402A6
:102E0800F508EB3400F5098049900300E0FA9002D8
:102E1800E9E0F8122F159417122F0D400D900300BA
:102E2800E0F87416C3989002E9F0122F1E12199256
:102E38007CEA7D0274012AFA74033400FB1210261E
:102E480074021217259002E9E0F8900300E028F0D8
:102E5800050AE50C2416F582E50D122DD1E0F8E5FA
:102E68000AC3984003022EF6900300E0C39416505C
:102E78007DE50AC333F8E433F9E50C28FEE50D399E
:102E8800FF851882851983AC82AD838E828F831269
:102E9800326E1206E48A108B11AC10AD11EC4D7035
:102EA80005750B018043E4F510F51178101219929D
:102EB8007510E975110278101219927510EA7511DA
:102EC800027810121992740612175B1219A9791652
:102ED80085088285098312326E1208047408121755
:102EE80025E9F50B7003022E111234CF80107C00F7
:102EF8007D0385088285098312326E120462A90B4C
:102F080074020233CAE99400C365D03322EA28F870
:102F1800E43400F9E822E0F5107511007810227405
:102F2800EA12177F74FC12170F8A0C8B0D8C128D06
:102F380013EA2405F50AEB1234C375080075090075
:102F4800E50A2402F510E50B3400F5117402121796
:102F58005B85820E85830F780E121992850A828509
:102F68000B83A3A3A3A3123A0F121992E50A24050F
:102F7800F50EE50B3400F50F780E121992851082C4
:102F88008511831234C91232681206DE74061217CC
:102F9800258A0E8B0FAE0EAF0FE50C2402F50EE559
:102FA8000D3400F50F80408882898374FFF005088E
:102FB800122DC674FFF005089002E9E0F50C750DB6
:102FC80000780C1219927CEA7D0285080C7402259F
:102FD8000CFA74033400FB121026740212172590A1
:102FE80002E9E02508F508EE4F60718E828F83A311
:102FF800A3A3E0F9850E82850F8312326E1206CCE8
:10300800E9F509EE24041229F1E97044E4F514F510
:103018001578141219927514E97515027814121995
:10302800927514EA75150278141219927408121719
:103038005B1219A97911EEFCEFFD850E82850F83CD
:1030480012326E1208047408121725E9F509602770
:10305800850C82850D8312314F1234DCE50870032C
:10306800023135123159850E82850F8312326E1264
:103078000468790002314A850882AA82EA9002E946
:103088007009E02404900301F08022E0F890030125
:10309800E0F514E82404FCE43400FDEC6514700148
:1030A800ED70C0122F159412122F0D50B6850C8298
:1030B800850D83E0C0E074022A122DCDD0E0F00522
:1030C80008850C82850D83A3E0C0E0122DC6D0E0F0
:1030D80012316B85820C85830D780C121992740459
:1030E80012175B1219A9851082851183123D3612B9
:1030F80006EA74041217258A0C8B0DAE0CAF0D85E9
:10310800080C7402250CF874033400F9EE4F7003B0
:10311800022FAF851882851983E08882898312314E
:103128006BA3E0C0E0122DC6D0E0022FBDE5097008
:103138000375090A850A82850B8312314F1234DC24
:10314800A9097404022DBE123D25851282851383B8
:1031580022900301E0F5F0E50884900300F07C007C
:103168007D0322F005088518828519832274EC12E4
:10317800177F74FE12170F8A088B098C0E8D0FEAC1
:103188002405FEEB3400FF851882851983AC82ADD7
:10319800838E828F8312326E1206E48A0A8B0BEEBC
:1031A80024181229F1EA450B700302323F1233B199
:1031B800503285188285198312326E1207F88A10E8
:1031C8008B11EA4511606B7912AC0AAD0B85088248
:1031D80085098312326E85108285118312177DE965
:1031E800F50A7058E4F50AF50B780A1219928E82DE
:1031F8008F83A3A3E0F50A780A121992EE2403122A
:1032080034C0780A1219928E828F8312327812088B
:103218000A7406121725E9F50A7021850C82850DB6
:1032280083E0701F85088285098312326E12046E4E
:103238008011750A0E8009750A018004E50A600389
:103248001234CF850C82850D83E0600479008002FA
:10325800A90A74021217257F0C0218517C007D03FD
:10326800850A82850B8312327222E0FAA3E0FB22E0
:10327800E0FCA3E0FD85088285098312327222747E
:10328800EE12177F74FE12170F8A088B098C0C8DAB
:103298000DEA2405FEEB3400FF750E0085188285C3
:1032A8001983AC82AD838E828F8312326E1206E44C
:1032B8008A0A8B0BEA450B700302339D1233B15017
:1032C8003585188285198312326E1207F88A0E8B9B
:1032D8000FEA450F605E7912AC0AAD0B850882854E
:1032E800098312326E850E82850F8312177DE9F5E8
:1032F8000E60030233A08508828509831235B7AAB8
:103308000AFB1207EC8A108B11A810A911E8497062
:103318001E7AFF7BFF1207EC8A108B11A810A911E7
:10332800E849606C88828983E50AF0A3E50BF075AB
:103338000A008007750E0E805F050A9002E6E0FA23
:10334800E50AC39A504AE50A75F017A4FAABF08863
:10335800828983A3A3E02AFAA3E03BFB8A828B83BA
:103368001234C9EC4D70D2750A17750B00780A1221
:103378001992EEFCEFFD1210267402121725EEFCCE
:10338800EFFD85088285098312326E120474801459
:10339800750E098003750E01123D1D850C82850D81
:1033A800831234DCA90E022F08E5082402F508E58B
:1033B800093400F5098A828B83A3A3A3E0A2E5223E
:1033C80074041217257F0A02185174EC12177F8CA7
:1033D800108D11EA2405F50CEB1229F4750F00EA9B
:1033E8002402F50AEB1234C3850A82F58312326E81
:1033F8001207EC8A088B09EA450970030234B5758F
:103408000E008071850C82850D83E06401704F8EFB
:10341800828F83A3A31219A98E828F83A3A3A3A348
:10342800E0F5127513007812121992EE2405F512C0
:10343800EF3400F513781212199212326812080A42
:103448007406121725E9F50F6014850C82850D8323
:10345800E4F0123D1D8510828511831234DC7C173F
:103468007D007900EEFAEFFB12103E8E828F83E426
:10347800F0A3F0050E9002E6E0F8E50EC398501EA2
:10348800E50E75F017A4F8A9F0850882850983A3CD
:10349800A3123EAA1234C9EC4D600302340C85080D
:1034A8008285098374FFF0A3F0E50F700612326875
:1034B80012047AA90F02325FF50AEF3400F50B22E5
:1034C800A3E0FCA3E0FD228E828F83123D25850EAA
:1034D80082850F83E8F0A3E9F022C082C0839002BE
:1034E800E2E06A7003A3E06B70067AE27B02800474
:1034F8007A007B000227CFC082C08378008C828D3F
:1035080083E06A7003A3E06B7010E875F003A4F819
:10351800A9F0EC28FAED39FB8015088C828D83A37D
:10352800A3A3E06A7003A3E06B60DF7A007B00026C
:1035380027CF74F612177F1207B68A828B83E5822B
:10354800458370067A007B008007A3A3A3A31232E9
:103558006E023BCE74F212177FE9FE740E12175BEF
:103568001235B7741012175B123A2F8C828D83E0D4
:1035780064027036A3123D2BF50CA3E0F9A80C7475
:10358800026870037429697021750C02750D007842
:103598000C1219927808121992780A121992EEF9F7
:1035A80012082E740612172580027901023C52E097
:1035B800F50AA3E0F50B2274E812177F74FB1217C3
:1035C8000FE9851882851983F08A168B17ECFEEDB2
:1035D800FF751000741D12175B123D21741D121720
:1035E8005B1234DC8E828F83A3A3A3E0A2E4502D68
:1035F800741D12175B12326E1207F88A828B83E5EC
:103608008245837003023A00790AEEFCEFFDAA16A0
:10361800AB1712177DE9F5106003023A03741F1205
:10362800175B123A2F742112175B1235B7742312E5
:10363800175BE0F50EA3E0F50F8E828F83E064023E
:1036480060030239AEA3123D21850882850983A350
:10365800858212858313EE24061229F188828983D4
:10366800E0FAA3E0F9EA2400F514E439F515781432
:10367800121A1C010000280128A336070002286836
:10368800370328D53600299F380129CA3802296B03
:103698003803299F3804294939AE39E50E450F60AA
:1036A800030239A9850C82850D83123A24FAE9FBB5
:1036B8008A828B83E0850A82850B83123A5A121913
:1036C800928A828B83A3E0FCA3E0023933E50E459E
:1036D8000F60030239A9850A82850B837401F012F1
:1036E8003A37850882850983F07C007D008E828FB9
:1036F80083A3A3A3A3E02401FAA3E03400FB1206EA
:10370800E4EA4B60418A828B83E02402F8850A82CE
:10371800850B83E028F0EA2404F8EB3400F988826A
:103728008983E0851282851383123A6C123A5A1201
:1037380019928A828B831234C8E5082403FAE509B2
:103748003400FB023938850A82850B83E02404F0B3
:103758007C047D007900AA12AB1312103E023A03D2
:10376800E50E450F60030239A9123A37FEA3E0FFC0
:10377800850A82850B837404F0EE850882850983A7
:10378800F0EF851282851383F0740312175BAC8205
:10379800AD83EEFAEFFB1206E48A0C8B0DEA450DB9
:1037A800700302384C8A828B83A3A312267A740191
:1037B80012175B85820E85830F780E121992740595
:1037C80012175B1219A97CFF7DFF1206EA74041216
:1037D80017258B0FEA450F7033850C82850D8312F0
:1037E8003A0F121992850C82850D83A31219A97CB0
:1037F800027D007AFE7B921205167404121725E9E1
:10380800700A740112175B74FFF0A3F08E828F8325
:10381800E064027039750C02750D00780C1219926B
:103828008E828F831234C8E5082404FAE50934002F
:10383800FB1210267402121725850A82850B83E075
:1038480024028009740112175BEEF0A3EFF07401F3
:1038580012175B123A20F0740112175BA3123A1880
:103868000239A3E50E450F60030239A9850C82854C
:103878000D831234C9AA16AB17120822850A82854D
:103888000B837402F0EA850882850983F085128229
:10389800851383EB0239A6E50E450F60030239A9AB
:1038A800123A37F8A3E0F9850A82850B837402F08F
:1038B800E8850882850983F0E985128285138302E9
:1038C80039A6850C82850D8312326E121020EAFC0F
:1038D8008C82A882C3950EE4950F405FE8650E7050
:1038E80002E50F70047C008022851882851983E028
:1038F800FAE50E2AFAE50F3400FBC3EA98EB9400C8
:103908005003E08005E50ECCC39CFCEC850A82855B
:103918000B83F08C0A750B00780A121992850C82B9
:10392800850D83E0250EFCA3E0350FFDAA08AB0941
:103938001210267402121725023A03751007023A6C
:1039480003E50E450F705A850C82850D83123D21C3
:10395800850A82850B837407122686123A18122666
:1039680086A3E0851282851383F0E82402FAE934FD
:1039780000FB8A828B83123A18123A47123A20A324
:10398800123A50123A29F0E82405F8E93400F98887
:10399800828983123A29A3123A6CA3A3A3A3F080C5
:1039A8005A75100B8055741D12175B12326E120770
:1039B800B68A828B83E5824583603D123D21880C5F
:1039C800890DE8450D6031780E121992780A12199E
:1039D800927808121992740612175BE0F9EEFCEF60
:1039E800FDAA16AB17850C82850D8312177D740608
:1039F800121725E9F510800375100EA91074051229
:103A080017257F10021851E0F50E750F00780E2269
:103A1800E085088285098322123A7622123D25E83C
:103A280022123A76A3A322E0F508A3E0F50922853D
:103A38000C82850D83E0F8A3E0F5838882E022A359
:103A4800A3F08A828B83A322F088828983A3A3A30D
:103A5800A322F08A828B83123A6322E0F50A750B5F
:103A680000780A22F088828983A3123A7622E085B8
:103A78000882850983A3A32274EE12177F74FE12AD
:103A8800170F8A0A8B0BECFAEDFB741412175BE024
:103A9800F510A3E0F511741612175BE0FE74181206
:103AA800175BE0F50EA3E0F50F851882851983AC46
:103AB80082AD831206E48A0C8B0DEA450D604985B8
:103AC800188285198312326E1207B68A828B83E5B3
:103AD800824583602FA3A3123A2FE5084509602485
:103AE800780E1219927810121992EEF9AC0CAD0DED
:103AF800AA0AAB0B85088285098312177D74041204
:103B080017258006790E80027901022F0874F612B3
:103B1800177F74FE12170F740C12175B123A248564
:103B28001882851983F0740112175BE9F0E4F5082F
:103B3800F509780812199275080278081219927412
:103B48000412175B85820885830978081219921276
:103B5800080A74061217257402121725806874F76C
:103B680012177FEAFEEBFF89087C197D03120822F1
:103B7800EA5402600BA908EEFAEFFB1206D880029D
:103B8800790102258274F612177F74FF6A70037434
:103B9800FF6B70168C828D83123BD3E4F08C828D80
:103BA80083A3A3A3123BD3A380181207F28A088B1E
:103BB80009A808A909E849600D8882898374FF1259
:103BC8002684A3A3E4F07F0202185174FFF0A3F047
:103BD8008C828D83A3A32274F612177F1207F28AB0
:103BE800828B83E58245836006A3A3E0FA80027A8C
:103BF800007B0080D174F212177F8A088B09ECFED3
:103C0800EDFF740E12175BE0F50A1207F28A0C8BAF
:103C18000DA80CA90DE8497026EEFCEFFD7AFF7B94
:103C2800FF1207F28A0C8B0DA80CA90DE849700445
:103C38007911801688828983E508F0A3E509F08860
:103C4800828983A3A3E50AF079007F0602185174DC
:103C5800EE12177FEAFEEBFF8C088D09890C7414AD
:103C680012175B123D21741612175B12326E750D16
:103C780000E8496003023D157402650C6003023DCB
:103C880010741212175B123D2BFCA3E0F9EC240010
:103C9800F50EE439F50FEAF4F8EBF4F9EC58F8E529
:103CA8000F59F9E849705CE5082406F8ED3400F985
:103CB800880A890B8882F583123D361208228A10F9
:103CC8008B11E50E65107004E50F65116042780EE2
:103CD800121992850A82850B83123D3612082874C0
:103CE80002121725E9F50D7027780E12199285082A
:103CF80082850983A3A3123D341208407402121767
:103D080025800D750D808008750D0D8003750D0BD0
:103D1800A90D0233CD8E828F83123D2522E0F8A3B0
:103D2800E0F922123D2588828983E022A3A3E0FCE2
:103D3800A3E0FDEEFAEFFB2274E812177F74E71296
:103D4800170F851882851983EAF0A3EBF08C168D7E
:103D580017890E750800750900743112175BE0F5B4
:103D680012A3E0F513743312175BE0F514A3E0F522
:103D780015743512175BE0F50FE50975F003A4F823
:103D8800A9F0851882851983123EAAE0F47003A36E
:103D9800E0F47003023E8DEE2402F50CEF123EA013
:103DA800E07003023E8D85160A85170B780A1219F2
:103DB80092AC14AD15AA12AB131207AA740212170B
:103DC800258A0A8B0BEA450B7003023E8DE4F51039
:103DD800F5117810121992740612175B85821085F6
:103DE80083117810121992740912175B8582108555
:103DF80083117810121992851282851383A3A3A3C5
:103E0800A31219A97914AC0AAD0B8E828F831232D2
:103E18006E1208047408121725E97069850A8285EC
:103E28000B83A3A3A3A3123D21740212175B1234C0
:103E3800DC850C82850D83E0A2E05018A90E74027F
:103E480012175BAC82AD838E828F8312326E12069C
:103E5800FCE94208850C82850D83E0A2E15026E545
:103E68000FF50A780A121996A90E740312175BAC9B
:103E780082AD838E828F8312326E1206F67401121F
:103E88001725E942080509E509C394025003023DD4
:103E980081A9087419023A073400F50D850C82F5DA
:103EA8008322E028FEA3E039FF8E828F832274F2FA
:103EB80012177FEAFEEBFF890B7401650B600E7425
:103EC80002650B706A7901120A08E97062EEFAEF6E
:103ED800FB1207EC8A088B09EA45096047750A0056
:103EE800800B7C177D00790012103E050A9002E6CF
:103EF800E0F8E50AC3985021E50A75F017A4F8A977
:103F0800F0850882850983A3A3E028FAA3E039FB9A
:103F18008A828B831227D670C985088285098374A3
:103F2800FFF0A3F07C197D03EEFAEFFB12081C02E8
:103F38003C5274F212177F8A088B09ECFEEDFF746D
:103F48000E12175B1235B7900CDAE0F4603D7A096F
:103F58007B0012104AEA4B60328A828B8374B1F07C
:103F6800A3E4123A49A3123A47A3E508F0A3E509E6
:103F7800123F96EEF0A3EF123F96A3A3E50AF0A333
:103F8800E50BF0900CDAE0F9121056023C52F08A78
:103F9800828B83A3A3A3A3A32274F012177F74FABE
:103FA80012170F8908ECFEEDFF7509008A0A8B0BC2
:103FB800780A1219D6000410C941E43F02401C4097
:103FC800344052406A408D40A540B940E3406041CA
:103FD80071418841A341C941C941F940740165084B
:103FE80060030241C48E828F83E0F8C394034003C8
:103FF8000241C4E8900DC60241A07402650860033E
:104008000241C48E828F83124971900DC7E8F0A3D4
:10401800E90241A07401650860030241C41241F13C
:1040280040030241C4E89007660241A07401650894
:1040380060030241C48E828F83E0F8C39405400375
:104048000241C4E89007670241A074016508600353
:104058000241C41241F140030241C4E890076802DA
:1040680041A07410650860030241C4750A10750BFD
:1040780000780A1219927A697B07121026740212C4
:1040880017250241EA7401650860030241C4124120
:10409800F140030241C4E89007790241A074016528
:1040A8000860030241C48E828F83E0900DCA0241EA
:1040B800A07404650860030241C48E828F83780C63
:1040C8001215C79092AB780C12146950030241C4C0
:1040D80090077B780C1215D60241EAE96003024189
:1040E800C4120684E970051211A0805690080E804B
:1040F800637407650860030241C4750A06750B00FE
:10410800780A1219928E828F83A3AC82AD837402CF
:1041180012176D12102C74021217257C007D00AA4C
:1041280018AB198E828F83E0F912114CE9F50AC396
:10413800940A40030241E7120684E9700CA90A12A6
:1041480011A67950121368806E740F250AF582E45F
:104158003408F5837401804074016508705E12416B
:10416800F15059E890077A802F74016508704D8ED8
:10417800828F83E0F8C3940A5042E8900DC98018F2
:104188007401650870368E828F83E0F874F928C34D
:10419800940A5028E8900DCBF080477401650870A8
:1041A8001B90080DE0F88E828F83E090080DF0E8F0
:1041B8007030E06401702B12119480267509188004
:1041C80021C3EA9427EB9400501574026508700F18
:1041D8008E828F83124C94120522E9F509800375AB
:1041E8000902A90974060245D18E828F83E0F8C3BB
:1041F800940222740E1217257F0402185174F012CB
:10420800177F74B112170F8C0E8D0F90925E742069
:104218001217757406121622742012177512114C93
:10422800E9F50B745F12175BE0F50CE9C3940A40DB
:104238000302438375F006E9A4F509744112177562
:104248007A0E74202509F9121362E97009744D1267
:10425800175BE0FE80027E00900DC6E064027005E8
:1042680075080180037508007408650C70047422D1
:10427800800274212509FF7C1B7D007900742612B9
:10428800176D12103EEEA2E0E433F50A74261217F9
:10429800757A1BEFF9121362E97025744012175BE7
:1042A800E024F9C3940A5018780812199674271252
:1042B8001775A90AAA0EAB0F1205C47401121725A7
:1042C8007C147D007900740C12176D12103E740C6A
:1042D8001217757A1074242509F9121362E97030DF
:1042E8007C1079FF740C12176D12109EE9702174FE
:1042F8001C12175BAC82AD837A0474252509F91268
:104308001362740C121775A90AAA0EAB0F1205AC2A
:10431800AC18AD197A0C7470250BF9121362E97098
:1043280049AA18AB1912117C7F00EF75F003A4F8A5
:10433800A9F0851882851983E58228F8E583124A51
:1043480099124C8E601D88828983A3A3E0F50875B5
:1043580009007808121992AA0EAB0F1208107402FD
:104368001217250FEFC3940440C0EEA2E1500C9041
:104378000765E0F9AA0EAB0F1208167404650C70F5
:1043880027900DC6E06402701F7A00900779E060FC
:10439800010A900766E06004780480027800E84A21
:1043A800F9AA0EAB0F12066C7900744F0245D1744E
:1043B800F112177F74F012170F8A0C8B0D8C088D71
:1043C800097E0AE9600C14600914603A14607502E9
:1043D800449D12118EE9FEC3940A400302449DE5F0
:1043E800084509700302449D750A06750B00780A92
:1043F800121992AC0CAD0DAA08AB09121026740262
:1044080012172502449D7F00750A06750B00780A6D
:10441800121992AC0CAD0DEF75F00EA4F8A9F0745A
:104428008728FA740739FB1210387402121725E925
:1044380070090FEFC3940A505C80CDEFFEC3940A55
:10444800505380427F00AC18AD197A1075F006EF12
:10445800A42423F9121362E9701C7C1079FFAA18AE
:10446800AB1912109EE9700EAC0CAD0DAA18AB1961
:1044780012058EE960090FEFC3940A501880C7EF40
:10448800FEC3940A500FE50845096009AA08AB095C
:10449800EEF9121188EEF974101217257F07021829
:1044A8005174F412177FE9FF7E1574FF6A70037464
:1044B800FF6B7028750800EFFC7A027B00A90812D0
:1044C800116AE960027E000508E508C3940A40E71E
:1044D800EF604E7AB87B11120A1A80451209FC8ADD
:1044E800088B09EA450960387C007D00EA2405FA52
:1044F800E43509FB850882850983A3A3A3A3E0F912
:1045080012114CE9C3940A500BEFFC7A027B00129B
:10451800116A7E00EF600AAA08AB091211B880017F
:104528001EEEF902420074F212177F8C088D097E84
:1045380015740E12175BE0F50AA3E0F50B74FF6A19
:10454800700374FF6B701D7F00AC0AAD0BAA08AB3B
:1045580009EFF9121170E960027E000FEFC3940AA7
:10456800503B80E51209FC8A828B83E58245836093
:104578002B7C007D00E5822405FAE43583FBA3A3A8
:10458800A3A3E0F912114CE9C3940A5010AC0AAD88
:104598000BAA08AB091211707E0080011EEEF97F8C
:1045A80006021851C082C08390077FEAF0A3EBF09F
:1045B800900765E0FC7D007A267B001205229007B3
:1045C80065E0F912078C0250941217257F0802182B
:1045D8005174F012177F74EC12170FEAFEEBFFEE1E
:1045E800240CF50CE43FF50DEE2405F50EE43FF53B
:1045F8000FEE2409F50AE43FF50BEE2403F508E471
:104608003FF5098E828F83A3A3E024FA7003024842
:104618009524FD70030247B31470030246B014607A
:104628001024FD700302478A1470030247EA024807
:10463800EC125396604AE0F5838882E0F50EA3E019
:10464800F50FE50E450F6038850C82850D83E0F582
:104658000C780C121996EE240BF582E43FF583E0F2
:10466800F9850A82850B83124C940A0A0AAB0985DC
:104678000E82850F8312177D74011217250248ECEC
:10468800850A82850B831219A990077B1215E512FA
:1046980005BE7402121725E970030248EC790185FA
:1046A8000A82850B830248608E828F83A385820AE3
:1046B80085830BE0600302476D850E82850F83E0DA
:1046C800A2E0400302476D90081912539960030253
:1046D800476D7C0E7D007900AA18AB1912103E8533
:1046E8000C82850D8312505FEA4B6010750C0675BD
:1046F8000D00780C121992EA2410801B12505912DE
:1047080009FCEA4B70030248EC750C06750D00783D
:104718000C121992EA2405FCE43BFD740212176D91
:104728001210267402121725850E82850F83E0A2C7
:10473800E25004D2F08002C2F0A2F0E433F8740C24
:1047480012175BE048F0EEFCEFFDAA18AB19121146
:1047580082E970117A027B00900765E0F912107AFD
:1047680079000248EE12539670030248EC1248F39F
:1047780070030248EC850A82850B83E0FC7901020C
:10478800488912539670030248EC12501E890BE8B0
:10479800450B70030248EC8E828F83A3E0FC7902FC
:1047A8001250598882850B830248907C007D00EE68
:1047B8002404FAE43FFB850882850983E0F9121195
:1047C8004CE9F8C3940A40030248ECEE240AFCE4DE
:1047D8003FFD7A0475F006E8A42425F912135C025B
:1047E80048EC12505990077AE06007900DC9E0F93B
:1047F8008069900DC6E070047905805F1209FC8A13
:104808000C8B0DA80CA90DE82404F50CE439F50D62
:104818008E828F83A3A3A3A3A3A3A3E0A2E0504106
:10482800E84970030248EC850C82850D83E0FE6040
:1048380030850A82850B83E054107025740E121798
:1048480075E82405FAE439FBEEF912114CE9701108
:10485800790385088285098312505F1205B80248DA
:10486800ECAC0EAD0F850C82850D83E0F912505922
:104878001211C4125396606C1248F360677C007979
:10488800001250598E828F8312177D80571206842A
:10489800E9705190080EE0640170151211A090089B
:1048A8000EE4F07C0AFDF97A0F7B0812103E802C8A
:1048B800750A00850A08740F2508FEE43408FF8E7F
:1048C800828F83E06401700BA90A1211A68E828F71
:1048D80083E4F0050AE50AC3940A40D77950121315
:1048E80068121194790174140245D1125022E8FE1D
:1048F800E9FFEE4F2274F412177F74F212170FEAD1
:10490800FE8C0975F006E9A42420F508AC18AD1949
:104918007A0EF9121362E9704B7C0679FFAA18AB7C
:104928001912109EE9703D740C12175B124971E858
:10493800F50BE5096005EE420B8004EEF4520B8599
:104948000B82AA82E86A7001E96015740C12175B81
:10495800EAF0A3E4F0AC18AD197A0EA90812135CBA
:104968007901800279000241FBE0F8A3E0F92274A2
:10497800F212177F74E612170F89098A0C8B0DEC57
:10498800FEEDFF740C1217757A0E75F006E9A42473
:1049980020F9121362E96003024A5C7C0679FF740D
:1049A8000C12176D12109EE96003024A5C747025A0
:1049B80009F508AC18AD197A0CF9121362E960030D
:1049C800024A58AA18AB1912117CE50C450D701D46
:1049D8007C0C7900AA18AB1912109EE970727C0C35
:1049E8007D007900AA18AB1912103E8051AC18ADA1
:1049F80019AA0CAB0D1211768A0A8B0BA80AA90BFF
:104A0800E8497022EE4F604CAC18AD197A007B0073
:104A1800121176EAF8EBF9EA4B603988828983E566
:104A28000CF0A3E50DF0124AD5FAEE6A7001EF60BA
:104A38001FEEF04F700888828983E4F0A3F0AA186B
:104A4800AB1912117CAC18AD197A0CA90812135CB9
:104A5800790180027900741A1217250245A774F7A4
:104A680012177F7F00EF75F003A4F8A9F0EC28F87F
:104A7800ED124A99E06A7003A3E06B7006E8FAE960
:104A8800FB800B0FEFC3940440DB7A007B00024DE0
:104A9800D139F9888289832274F712177F7E00EE54
:104AA80075F003A4F8A9F0EA28F8EB124A99E0F4A3
:104AB800FCA3E0F4FD88828983ECF0A3EDF0124AB0
:104AC800D5F4F00EEEC3940440D5024DD1E824028B
:104AD800F582E439F583E02274F412177F74F41236
:104AE800170FEAFEEBFF8C0A8D0B900819125399E9
:104AF800704FEE4F7003024C6FEC450B7003024C85
:104B08006F12118EE9900DCCF0C3940A40337508EA
:104B1800007C0679FFE50875F00EA4FAABF0748105
:104B28002AFA74073BFB12109EE96003024BC80582
:104B380008E508C3940A40D975090AE509900DCC1F
:104B4800F0900DCCE0C3940A4003024C6F75F00658
:104B5800E0A4F890081912505FEA4B7069EEFCEF78
:104B6800FD7A0E742028F912135C7C0C7D0079FF05
:104B7800AA18AB1912103EAC18AD197A0C900DCCCE
:104B8800E02470F912135C75080E75090078081294
:104B98001992EEFCEFFD900DCCE075F00EA4F8A98B
:104BA800F0748128FA740739FB1210267402121760
:104BB80025900819E50AF0A3E50BF07900024C717D
:104BC800850809024B43124C762406124C8860195A
:104BD8007A1B742128F912135C124C7F2406F58283
:104BE800E438F583E4F0A380D1124C76240A124C01
:104BF8008860107A1B742228F912135C124C7F24E7
:104C08000A80DB124C76240C124C8860107A1074DF
:104C18002328F912135C124C7F240C80C1124C76A5
:104C28002408124C8860347A10742428F912135C12
:104C3800124C7F2408F582E438F583E02410FCA3A5
:104C4800E03400FD7A0475F006900DCCE0A424252C
:104C5800F912135C124C7F2408808390080DE060E1
:104C6800031211CA1211BE7901740C0241FD900899
:104C780019E0F9A3E0C922900819E0F8A3E0C822D6
:104C8800F582E439F583124C94EC4D22E0FCA3E064
:104C9800FD2274F412177F74F212170FEAFEEBFF6D
:104CA800E9C3940A5004EE4F700479028034AC18BA
:104CB800AD197A0E75F006E9A42420F9121362E9F9
:104CC800F508701C750A06750B00780A121992749B
:104CD80002121775EEFAEFFB12102674021217254E
:104CE800A9080241FB74F412177FEAFEEBFF75086E
:104CF80000750A06750B00780A121992EEFCEFFD92
:104D0800E50875F00EA4F8A9F0748128FA7407393B
:104D1800FB1210387402121725E96004A908800BE9
:104D28000508E508C3940A40C8790A02420074F7E6
:104D380012177F750800E50875F00EA4F8A9F0743D
:104D48008128FE740739FFEEFCEFFD7A0E75F00638
:104D5800E508A42420F9121362E960297C067D0085
:104D680079FFEEFAEFFB12103E7C067D0079FFEE2C
:104D78002CFAE43FFB12103EEE240CF582E43FF5DA
:104D880083E4F0A3F00508E508C3940A40A8900856
:104D98000DE060031211CA1211BE802D74F71217AC
:104DA8007F7E007F007C0679FFEF75F00EA4FAABDA
:104DB800F074812AFA74073BFB12109EE970010E09
:104DC8000FEFC3940A40DEEEF97F0102185174F721
:104DD80012177F7E00EEF91211A60EEEC3940A5048
:104DE80003E960F180E374F312177F74CB12170F95
:104DF800E9FF900DCCE06F701B7A017B009007658E
:104E0800E0F91210807A027B00900765E0F9121031
:104E1800801211D675F006EFA4FE74202EF50874E2
:104E2800271217757A0EA908121362E96003024E59
:104E3800F47C0679FF742712176D12109EE960033F
:104E4800024EF47C0E7D0079FF742712176D121044
:104E58003E7C1B7D0079FF740C12176D12103E7C8E
:104E68000C7D0079FFAA18AB1912103E742712178F
:104E7800757A0EA90812135CE9F508740C121775F7
:104E88007A1B74212EF912135CE9F50C740C1217B5
:104E9800757A1B74222EF912135CE9F50B740C1247
:104EA80017757A1074232EF912135CE9F509740C3E
:104EB8001217757A1074242EF912135CE9F50A7426
:104EC8000C1217757A0474252EF912135CE9FEACDE
:104ED80018AD197A0C74702FF912135CE9F8E50C07
:104EE800450B4509450A4E4842088003750800A944
:104EF8000874351217257F0502185174F712177FA9
:104F0800E9900765F0121194024DD174F412177FDD
:104F1800EAFEEBFF54807003024FAB900765E0F99F
:104F28001210628A088B09EA4509607078018A8242
:104F38008B83E02450603D14600624E1604F80526A
:104F4800A3A3A3A3E0704E8A828B83A3A3A3A3A3E6
:104F5800A3A31219A98A828B83A3A3A3A3A3124C88
:104F6800948A828B83A3A312505F12115874021281
:104F780017258021A3A3A3A3E0641E701879008AD3
:104F8800828B83A3A312505F1211528008121164FE
:104F9800E9F8E86007AA08AB09121050EEFAEF64C6
:104FA800808065EE540260237C007D007A007B00DF
:104FB800121182E960117A017B00900765E0F9120D
:104FC800107AEE6402803F7A028046EEA2E0503FFB
:104FD80012502F12505F1211D0E9602F12539660B1
:104FE8001F12501E88088909E8450960137C00795A
:104FF8000112502F12505F85088285098312177D90
:105008001211D6EE6401FAEFFB80087A0180027A69
:10501800007B0002420012502222E0F5838882A31E
:10502800A3E0F8A3E0F922900819E0F8A3E0F583DB
:105038008882A3A3A3227F02021851C082C0839052
:105048000765E0F98A828B83A312505F12081680E5
:105058003B850882850983E0FAA3E0FB22C082C071
:105068008374FF12170F12119AE9C39402851882EC
:10507800851983400474028002740AF0AC18AD19D3
:105088007A01790512069C7401121725D083D08203
:1050980002011F74F412177F74E812170F8A088B25
:1050A80009E9FE8C0A8D0B7C187D007900AA18ABE3
:1050B8001912103E851882851983E508F0A3E509C1
:1050C800F0900767E0C0E0740212175BD0E0F09040
:1050D8000768E0C0E0740312175BD0E0F0900DCBD6
:1050E800E0C0E0741712175BD0E0F0741512175B7C
:1050F800E054FEF8A3E0F9900DCAE0A2E0E433FA28
:10510800E84AF8741512175B125236A2E15004D21D
:10511800F08002C2F0E854FDFAA2F0E43325E0F88A
:10512800EA48F8741512175B125236A2E35004D2FB
:10513800F08002C2F0E854F7FAA2F0E433F50875FB
:105148000900740378081216FC12522F12175B120A
:105158005236A2E45004D2F08002C2F0E854EFFACA
:10516800A2F0E433F508740478081216FC12522FE2
:1051780012175B125236A2E55004D2F08002C2F038
:10518800E854DFFAA2F0E433F5087405780812163B
:10519800FC12522F12175B125236A2E25004D2F0C0
:1051A8008002C2F0E854FBFAA2F0E433F508740276
:1051B80078081216FC12522F12175BE8F0A3E9F0D8
:1051C800900768E0601D75081078081219927C69CC
:1051D8007D07740612175BAA82AB8312102674022D
:1051E800121725900779E06010EE60097415121700
:1051F8005BE04402F0780180027800741412175BB7
:10520800E048F0900766E060047804800278007453
:105218001412175BE048F0AC0AAD0BAA18AB1912D0
:1052280005B274180241FDEA4508F8741522E8F041
:10523800A3E9F0900DCAE02274F712177F12088EC6
:10524800750800E50875F00EA4F8A9F0748128FE29
:10525800740739FF7C0679FFEEFAEFFB12109EE91E
:105268007009EEFAEFFB79001208940508E508C307
:10527800940A40CF024DD174F612177F74FD1217AD
:105288000FEAFEEBFF90081B125399703975081D41
:1052980075090878081219927508027509007808C6
:1052A8001219927508F675099278081219927CFFFE
:1052B8007DFF7A017B001206DE740612172590081E
:1052C8001BEAF0A3EBF090081B12539970030253EA
:1052D80080E4F508F5097808121992740412176524
:1052E80088088909780812199274041217658808C1
:1052F8008909780812199290081D1219A979029043
:10530800081B12538E1208047408121725E9703608
:10531800851882851983E0FA740112175BE0F8E4B6
:10532800C8F9EA28F508E439F509EA450960177863
:105338000812199290081B125032A312538E1211A0
:10534800587402121725E4F508F50978081219921D
:1053580090081D1219A97CFF7DFF90081B12505F51
:105368001206EA740412172590081BEAF0A3EBF062
:1053780090081B1253997004790180027900740314
:1053880012172502503E124C94EEFAEFFB229007BA
:105398007F124971E84922C082C0839008191253CC
:1053A80099601090081912505F121050900819E473
:1053B800F0A3F0900DCC740AF0025094C082C08320
:1053C8009061907404F0A37448F0A3E4F0906180B5
:1053D8007440F09061BC7407F09061877469F09034
:1053E80061B67416F07900120B0A7902120B10904C
:1053F8002538E493F46006E493F9120AE679051275
:105408000E0A0257BFC082C083E9540FF990618524
:10541800E0696012E5C654804449F5C6E59E547FAC
:10542800644970F8E9F053C680E59E547F70FA022B
:1054380057BF74F712177FE5A8FE53A87E120AF229
:10544800C2BA539AFEC289759B00C2C2120AF87585
:10545800A91175B905120AFED2BA439A0174805E81
:1054680042A8025D56C082C083906181E4F0A30225
:1054780057BC75E90075910075BF0002011FC08215
:10548800C083906181E4F0A374C0F0A3E40257BE26
:10549800C082C08374F812170F9003A41266EF70CD
:1054A800030255779003A4E05440602379088518D7
:1054B80082851983AA82AB83120C06851882851906
:1054C80083AA82AB831208B89003A4E054BFF0E02B
:1054D80054806010790C7A657B05120C069003A441
:1054E800E0547FF0E0A2E0500F7900120B0A120896
:1054F800BE9003A4E054FEF0E05402600F7901125C
:105508000B0A1208BE9003A4E054FDF0E0540460B6
:105518000F7900120B101208C49003A4E054FBF09A
:10552800E05408600F7901120B101208C49003A40C
:10553800E054F7F0E05410600F7902120B101208D3
:10554800C49003A4E054EFF0E05420600F790312F4
:105558000B101208C49003A4E054DFF0A3E0540138
:10556800600D120B1C1208CA9003A5E054FEF074DB
:10557800081217250257BFC082C083E9600514606E
:105588002A804F90619A7433F0A37455F09061A00B
:10559800743AF090053FE064017009C2919003A647
:1055A8007467802D9003A67461802690619A743F79
:1055B800F0A3745AF09061A0747FF090053FE06406
:1055C800017009D2919003A6747180059003A674A6
:1055D8006AF00257BFC082C083E9600B14600D14E3
:1055E800601714600C802090253C801590253D8024
:1055F8001090053FE06401700590253E80039025DA
:105608003FE493906186F00257BF74EE12177F74DF
:10561800F412170F851882851983AC82AD837583C0
:10562800927582CB740412162290253C93F4600381
:1056380002573C907808E0C39402500302571C7448
:105648000412175BAC82AD8375839275824A740825
:10565800121622FC7EFF7FFF8E0C7D008C828582D5
:105668000E800F74086D606D74096D6068740A6D42
:1056780060638D08750900740278081216FC1257C9
:10568800461215C7A909E50AC9F8881074187808D8
:10569800121508E5104508FAE9FBE50EC333F8E4EE
:1056A80033F9740412175BE58228F582E583391211
:1056B8005C46C3E89AE99B4008E8C39AF8E99B80EE
:1056C80006EAC398F8EB99F9C3E89EE99F5006E803
:1056D800FEE9FF8D0C0DEDC39413408774FF6E70C7
:1056E8000374FF6F6024850C08740278081216FC96
:1056F8001257461215C7851882851983E582250E2B
:10570800F582E5831260E5E508F00CECC3940450DB
:105718000302565C7508017509007808121992741D
:105728000212175BAC82AD837A4F7B091212187490
:1057380002121725740C1217257F0A021851744893
:105748002508F58274783509F583780822C082C067
:1057580083906186E0F890253FE49368700990256E
:105768003EE493906186F09061AE7468F0A3746A29
:10577800F090624574FBF0A304F053F4FD43FE027D
:1057880090053F7401F09061A0E0643A70047900DC
:1057980080027901120B0A0257BFC082C0839004AD
:1057A800F1E06401700A9004F6E06004790C80026C
:1057B80079008003F0A3F0D083D08202011FC08259
:1057C800C08375E1F19004F4E0604D146009146041
:1057D80051146049147050120B2E9004EAE0F97AC3
:1057E800EB7B04120D8C9092D31215E5120DC2902A
:1057F80092BB1215E5120D989004F5E0F9120DA46C
:105808007901120DFE1258E224161260E27446F075
:10581800A3740BF07900809F120B3480BD120B3AF1
:1058280080B8120B4080B3791280EB74F412177FA2
:1058380075D90D9004D5E0A2E0E4331313F812589B
:10584800D8484401F5D9780012594540FB780088BA
:105858000874D6126645740412594F40F275E195E2
:105868009004D5E0F97AD67B04120D92900CFC7462
:10587800BCF0A3740A125955125999125990125A28
:10588800AD9004F4E064019004E8700B1258EB1238
:1058980015C79092D780091258EB1215C790929F9E
:1058A80078081215539092BF78081215A11258E281
:1058B800240E1260E278081215D61258E224141247
:1058C80060E27413F09003A27402F07F040218518E
:1058D8009004EAE0C4333354C0229004E8E0F8A30B
:1058E800E0C82212657D78082274F612177F125AD2
:1058F8007E8AD9780012594540FB780080061259F3
:10590800F6125B33E8C39940F5125A7012594540B4
:10591800FB780080081266417405125B33E8C3996E
:1059280040F375E195900CFC74C8F0A3740A125901
:105938005512595F7412F09003A2025D1A88087418
:10594800EB2508F5827404125CB0940622125A966C
:1059580074C2F0A3740A22125999125990125AB1BA
:105968009004E8E0F8A3E0C8240E12598874FF12E6
:1059780063BA9004E8E0F8A3E0C824141259882216
:10598800F582E83400F58322F0A374DAF0A3740AF0
:105998002212599D221259A122F0A37472F0A37405
:1059A8000C2274F612177F1259EB1258D84402F5DC
:1059B800D9780012594540FB780080061259F61232
:1059C8005B33E8C39940F575E195900CFC125A01D8
:1059D800F0A3125A011259627414F09003A27404CD
:1059E800025D1C9004FAE0F9740729F5D9228808A9
:1059F80074FB2508F58274042274D4125A0E125AC4
:105A08000EF0A3740A22F0A3740AF0A374D42274CB
:105A1800F612177F125A7E74064AF5D97800125981
:105A28004540FB780080061259F6125B33E8C399AB
:105A380040F5125A7012594540FB780080081266EA
:105A4800417405125B33E8C39940F375E195900CF6
:105A5800FC74CEF0A3740A125A8C12595F7415F0B4
:105A68009003A27403025D1C90051A1259EE740487
:105A78004AF5D97800221259EB9004EAE0C433338E
:105A880054C0FA22125A967472F0A3740C22125A55
:105A98009A22125AA77472F0A3740C125AA72212EF
:105AA80059A1F0A322125AB122F0900D0A7472F093
:105AB800A3740C125A9A7472F0A3740C12599DF0C4
:105AC80022C082C0831258E224061260E2E4025720
:105AD800BC74F712177F9003D0E0F875F003A4C8E0
:105AE800AAF02AF974D228F8740339F9E82405FAD7
:105AF800E9126590A3A3A3A3A3A3A3A3A3126691EA
:105B0800A3A3A3A3A3A3A3E024FFF8A3E034FFF96E
:105B18008A828B83E8F0A3E9F0025D567F060218BB
