:020000040000FA
:0600000002010702203896
:03002B000224ADFF
:0300330002248F15
:03003B000224CECE
:0300430002244351
:030053000220AEDA
:03006B0002246903
:10008300021EE7E5C754F84401F5C77901220000D1
:100093000080FB120086B900030200F1E4792178A5
:1000A30008B800028004F709D8FCE479297802B87B
:1000B30000028004F709D8FCE490028178AE790A43
:1000C3008002F0A3D8FCD9FA7A2E7B0C9001377802
:1000D300F879038015E493A3AD82AE838A828B8380
:1000E300F0A3AA82AB838D828E83D8E9D9E7758288
:1000F300BC7583A274031201197582917583007410
:100103000012011975D00075813F751881751902A8
:10011300759F00020096C09FF59FE473D09F22D085
:1001230083D082C09FE493C0E0740193C0E0740263
:1001330093F59F22FF0000B4000028002800283018
:1001430075A000A000A000A00000080008E001F0D6
:10015300001000100010001000100010005000509C
:1001630000500010001000D0070000000000000F36
:100173000001000500307507001000010081FF0039
:10018300000000FF2C064A063206FF0202020802A4
:100193005000A0000000E803021C93010000FF923E
:1001A300021293010000850C020C93010000B302BC
:1001B300021293010000860C020A93010000C90297
:1001C300021293010000870C021E93010000CB0270
:1001D300021293010000880C022293080000CC0253
:1001E300021293010000890C0240930100008A0C63
:1001F300FF0100FF20021C930100000293021293EF
:10020300010000EE0C0234930000000000020E9384
:100213000300001903740C740C740C740C740C74C8
:100223000C740C740C740C740C740C740C740C4AF5
:100233000F620F440FFFFF020202020202020202D8
:10024300010D0000001001021C93010000559202F1
:100253001293010000310D0214930100005D0702A7
:100263001293010000320D0208930100001C920258
:100273001293010000330D022C930100000192023E
:100283001293010000340D022693010000F890023E
:100293001293010000350D0228930100000A910218
:1002A3001293010000360D022A930100001C9102F3
:1002B3001293010000370D021A93010000E6900229
:1002C3001293010000380D023293010000F39102F2
:1002D3001293010000390D022E930100003A0D0123
:1002E300E803053F100AFF00013075030201060011
:1002F30000000000000000000000000000000000FB
:100303000000000000000000000000FFFF06008066
:100313000CE803140953696D706C65424C455065D4
:10032300726970686572616C051250002003020ADD
:10033300000201060302F0FF53696D706C652042F1
:100343004C45205065726970686572616CE81300F2
:1003530000EE130230784646303100024368617282
:10036300616374657269737469632032000843685A
:100373006172616374657269737469632033001019
:10038300436861726163746572697374696320346D
:1003930000024368617261637465726973746963AF
:1003A300203500021C930100000593021293010003
:1003B300004D0E0238930100000C0C021093010053
:1003C300004E0E021293010000550E023A930100F3
:1003D30000200C021093010000560E02129301003C
:1003E30000670E023C93020000210C0210930100EF
:1003F30000680E021293010000790E023E93000082
:1004030000220C020E93030000230C021093010040
:10041300007A0E0212930100008B0E023093040047
:1004230000290C0210930100008C0E120122F1939B
:1004330003120122089403120122399403120122A8
:100443007494031201229E9403120122C89403128E
:100453000122DF9403120122F694031201220D9567
:100463000312012236950312012249950312012238
:100473005F950312012272950312012299950312CB
:1004830001220198021201220599021201223D99CB
:10049300021201226099021201226B9902120122B7
:1004A3008E99021201229D9A02120122729B02125C
:1004B3000122ED9B02120122759C02120122B09CC3
:1004C30002120122E79C02120122759D02120122EF
:1004D3004E9E02120122AE9E02120122B99E021208
:1004E3000122389F021201223B9F021201223E9FEA
:1004F30002120122CD9F02120122D09F0212012279
:1005030000A0021201222AA00212012218A1021243
:100513000122CAA1021201227CE402120122A4E4F4
:1005230002120122D2E40212012209E5021201227F
:1005330067E502120122B2E502120122FDE5021271
:1005430001223DE60212012283E602120122B1E6F4
:10055300021201226EE70212012278E7021201223F
:1005630085E702120122B8E70212012284E802128F
:10057300012290E802120122A8E802120122B2E845
:1005830002120122139E03120122219E0312012251
:10059300399E03120122519E0312012248B4011213
:1005A3000122F4B4011201226FB50112012290B6A7
:1005B30001120122CCB60112012275B701120122E8
:1005C3005CB801120122C0B90112012217BA01124B
:1005D300012298BA0112012288BB01120122D5BB64
:1005E300011201225BBC011201228DBC0112012206
:1005F300A1BE01120122E3BE0112012201BF0112B9
:10060300012284BF0112012258C00112012220C11C
:100613000112012291CD0212012264CE02120122A3
:100623000DCF0212012260CF0212012210D002125A
:1006330001229CD00212012288D102120122B7D1D9
:1006430002120122CAD20212012212D30212012281
:10065300E7D30212012223D4021201223FD4021251
:1006630001226AA1031201224FF90212012265F944
:10067300021201228BF902120122A7FA02120122AD
:10068300B1FA02120122E6FB02120122DEFC02127F
:10069300012255DF0212012285E002120122B8E095
:1006A3000212012202E102120122C9E20212012214
:1006B30059A401120122C3A40112012222A601128C
:1006C300012232A6011201225FA601120122B6A65F
:1006D300011201225FA70112012266A80112012261
:1006E30030A90112012290AA01120122D3AA0112F8
:1006F300012278AB01120122C5AB01120122EBAB3F
:1007030001120122F9AD01120122FEAD01120122F3
:1007130003B00112012250B001120122C3B0011231
:100723000122F6B00112012298B10112012241B255
:100733000112012279B2011201227CB201120122BB
:10074300C4B20112012204B3011201225BB30112EC
:100753000122B48C03120122CC8C03120122148DCA
:10076300031201222A8D03120122718D0312012229
:10077300858E03120122128F031201225D8F031251
:1007830001224025001201224C2500120122872557
:1007930000120122CC25001201228C260012012214
:1007A300122700120122772700120122A327001229
:1007B3000122DC27001201221A2A00120122FE2B39
:1007C30000120122E42D00120122272F0012012220
:1007D300753100120122873200120122D233001236
:1007E3000122E23400120122FF34001201223A35C1
:1007F300001201225C3500120122BF3500120122D2
:10080300803A00120122153B00120122663B0012BE
:1008130001228D3B00120122DF3B00120122FD3B2E
:1008230000120122573C00120122403D0012012216
:10083300B63E001201223A3F0012012222DA0212CE
:1008430001222CDA021201226FDA021201228ADA61
:10085300021201221ADB0212012242DB02120122DE
:100863007FDB02120122B6DB02120122DFDB02125E
:10087300012254DC0212012269DC021201227EDC15
:1008830002120122AFDC02120122C3DC0212012296
:10089300E8DC0212012222DD021201224EDD0212E5
:1008A300012286DD02120122E5DD0212012264DE4D
:1008B300021201228FDE02120122D8DE021201226D
:1008C30002DF021201222DDF02120122239A0312F8
:1008D30001220080021201222E80021201227C8159
:1008E300021201225C82021201227B820212012285
:1008F300F882021201223B83021201229184021226
:100903000122528502120122D987021201227A881A
:10091300021201227089021201226D8A021201223F
:10092300C78B02120122528C02120122C8980312B1
:100933000122319903120122859903120122AC99F4
:1009430003120122DD990312012239E90212012265
:10095300A6E902120122EDE90212012205EB0212BD
:10096300012201EC02120122E4EC021201227EB503
:1009730002120122C0B50212012292B60212012212
:100983006BB70212012265B80212012247B90212A3
:100993000122B0B90212012266BA02120122DABAA6
:1009A3000212012246BB021201226FBB0212012274
:1009B300E9BB0212012282BC02120122E7BC02122D
:1009C3000122FCBC0212012242BD021201225BBDC4
:1009D30002120122C0BD02120122C3BD0212012272
:1009E300BB8903120122E38903120122218A031224
:1009F3000122DF8A03120122468B03120122628B3A
:100A0300031201228A8B03120122BA8B03120122E1
:100A1300C98B03120122468C031201226C8C031230
:100A23000122449301120122E29401120122FD9654
:100A33000112012239970112012266970112012244
:100A43004B9801120122929801120122D6980112A9
:100A53000122E898011201222899011201225599D5
:100A630001120122A09901120122E099011201222F
:100A73000E9A01120122609A01120122F09A0112C8
:100A830001228E9D01120122A49F01120122E29FE5
:100A93000112012273A101120122B8A10112012244
:100AA3002FA20112012279A2011201229FA2011297
:100AB300012287A3011201222EA40112012205ACF7
:100AC3000212012284AC0212012246B20212012256
:100AD30055B302120122BDB40212012254B502120F
:100AE3000122C453001201220D54001201223A5470
:100AF300001201226D54001201227A5400120122C5
:100B03008654001201229854001201227F550012CC
:100B13000122DD55001201221256001201225557FF
:100B230000120122A25700120122C657001201220D
:100B3300335800120122F15800120122AA5900125F
:100B43000122175A00120122C95A00120122D95A4E
:100B530000120122605B001201221F5C00120122BD
:100B63004C5C00120122C55C00120122225D0012BE
:100B730001226C5D00120122025E00120122CD5E91
:100B830000120122825F00120122F75F001201228C
:100B9300586000120122C26000120122FB600012A1
:100BA30001229D6100120122AD6200120122ED6259
:100BB300001201220A63001201222963001201229A
:100BC300706300120122956300120122C2630012B6
:100BD30001223C64001201227D6400120122A165FE
:100BE30000120122516600120122A866001201229E
:100BF3001267001201222B67001201223BA202128C
:100C030001228EA2021201229AA2021201226FA3D2
:100C13000212012296A302120122D1A3021201227F
:100C23003DA40212012279A402120122B2A40212EB
:100C33000122CAA4021201221FA50212012238A511
:100C43000212012281A50212012294A5021201229D
:100C5300AEA502120122C4A502120122F7A60212B6
:100C630001223EA80212012240A9021201223AAA3D
:100C730002120122F17F00120122B9ED01120122B9
:100C8300E9ED01120122B1F10112012208F301126F
:100C93000122D1F30112012251F50112012222F6A0
:100CA300011201225FF60112012282F601120122D2
:100CB300C0F601120122C9F60112012213F7011233
:100CC30001221DF701120122C7F701120122A0F828
:100CD30001120122F4F80112012256F90112012234
:100CE300A9F901120122D8F90112012215FA011200
:100CF30001225D6700120122C46A00120122CA6A3E
:100D0300001201224C7000120122C574001201224C
:100D13009B78001201226F8303120122E5830312E1
:100D23000122FB83031201223C84031201227684F5
:100D330003120122EF84031201222A8503120122E6
:100D43009D8503120122DB8503120122E485031230
:100D53000122F085031201220C8603120122378639
:100D6300031201224D8603120122918603120122EE
:100D7300F0FA0112012203FB011201221DFB0112F1
:100D8300012246FB0112012289FB01120122C8FB49
:100D93000112012206FC011201226BFC0112012245
:100DA30080FC011201228BFC0112012298FC01122A
:100DB3000122AFFC01120122BDFC01120122C8FC79
:100DC30001120122D4FC01120122E7FC01120122CB
:100DD300F2FC0112012215FD01120122BCFD0112D8
:100DE3000122CCFD01120122E6FD0112012203FEC4
:100DF300011201221FFE0112012244FE01120122EF
:100E03004FFE0112012264FE0112012278FE01123B
:100E13000122D9FE01120122DFFE01120122E5FEA9
:100E230001120122EBFE0112012203FF0112012232
:100E330036FF01120122AAD1011201222ED2011280
:100E43000122DDD2011201223CD4011201225DD61E
:100E53000112012249D7011201227ED70112012278
:100E6300A0D7011201224FD80112012247DA011241
:100E7300012270DA0112012202DB0112012234DBAA
:100E83000112012241DB0112012298DB011201222E
:100E9300BEDB011201222BDE011201222EDF011221
:100EA300012286DF0112012239C30112012243C448
:100EB300011201222AC50112012234C501120122A5
:100EC30056C50112012262C501120122FBC601129D
:100ED30001222AC70112012246C8011201229FC81A
:100EE3000112012205CA01120122E4CA01120122E0
:100EF30040CB01120122ADCB01120122E8CB01123A
:100F0300012227CC01120122E0CE01120122FACEE6
:100F13000112012286CF0112012294CF0112012274
:100F2300EDCF01120122FBCF011201226ED001127B
:100F33000122D2D0011201221CD101120122D38C31
:100F430002120122F58C021201221B8F02120122CE
:100F5300309202120122489302120122FB930212E1
:100F63000122DD9402120122AB9503120122D095D6
:100F73000312012242960312012217C60212012212
:100F830020C60212012229C60212012200C7021240
:100F93000122B1C802120122E7C80212012221C9AB
:100FA3000212012257C90212012291C9021201221F
:100FB300C5C902120122F1C9021201223ACA021260
:100FC300012274CA02120122BDCA0212012215CBE8
:100FD300021201224ACB02120122A5CB02120122E4
:100FE300DFCB0212012230CC0212012266CC0212A4
:100FF3000122A0CC02120122CECC02120122F1CC9A
:1010030002120122A09F03120122CC9F031201228C
:1010130027A00312012231A00312012241A00312CF
:101023000122B4D402120122BED402120122FCD442
:101033000212012245D5021201227FD5021201229A
:10104300D9D502120122FAD50212012203D60212C5
:10105300012254D6021201227DD60212012287D622
:1010630002120122F3D60212012281D702120122B7
:10107300CFD70212012205D8021201228CD8021204
:101083000122CCD80212012204D90212012216D95C
:101093000212012235D9021201223ED90212012283
:1010A300F8D902120122409C03120122F291031289
:1010B30001222892031201225E9203120122B793A6
:1010C30003120122EEA10312012204A20312012240
:1010D3000EA20312012258A203120122A6ED02124C
:1010E3000122BFED0212012263EE02120122A3EEDE
:1010F30002120122BCEE02120122F0EE02120122C0
:101103003DEF0212012271EF02120122B3EF02122C
:1011130001223A9D03120122639D031201228C9D39
:1011230003120122CE9D03120122E8FC02120122C6
:101133000DFD0212012239FD021201220FA3031237
:101143000122A13F00120122054200120122B743EE
:1011530000120122A944001201222E45001201228D
:10116300AC4500120122D94500120122FD480012AC
:101173000122774900120122664A00120122A04A85
:1011830000120122E04A001201229A4C00120122AD
:10119300ED4C00120122364D00120122A44D001223
:1011A3000122D64D00120122EE4D00120122034FFF
:1011B30000120122134F0012012243500012012298
:1011C3006550001201229B5000120122405200126E
:1011D30001227F52001201229F5300120122EA9E34
:1011E30003120122FB9E03120122B3FF011201220B
:1011F300F2FF01120122A0A3031201224BA003124A
:1012030001225BA00312012273A003120122D9A0C1
:10121300031201223C9B03120122C19B03120122F0
:10122300279C03120122509703120122799703127C
:101233000122E497031201223598031201228E98AA
:1012430003120122B7F102120122EEF1021201226E
:101253005EF20212012273F202120122BCF30212A5
:10126300012282F402120122A1F402120122C8F423
:1012730002120122FDF40212012215F502120122CB
:1012830066F502120122B3A30312012200800312A6
:1012930001229080031201220E8103120122978101
:1012A300031201222C8203120122B68203120122AD
:1012B300C08203120122CF8203120122E5820312AC
:1012C3000122F882031201225883031201226C8344
:1012D30003120122E3A0031201224DA103120122F2
:1012E3005FA1031201226A7E00120122BF7E001257
:1012F30001222D7F001201229D7F00120122878F80
:1013030003120122B18F03120122869003120122DC
:101313007A9103120122E7BD02120122A4BE021236
:101323000122DFBE0212012207BF0212012269BF9E
:1013330002120122B5BF021201220EC002120122C3
:101343009FC002120122A1C1021201225EC3021236
:101353000122E0C30212012245C4021201225CC42D
:10136300021201226CC502120122AAC50212012235
:10137300D4DF011201225EE301120122E6E401122D
:1013830001223DE5011201225CE501120122DAE5A9
:101393000112012278E7011201225CE80112012205
:1013A30046EC0112012216ED01120122C18603123D
:1013B3000122F086031201220687031201224E87BF
:1013C30003120122908703120122FB8703120122D9
:1013D300CA8803120122368903120122EA78001215
:1013E30001222A7B00120122CE7B001201228C7D76
:1013F30000120122B57D00120122227E0012012279
:101403009BF502120122E0F502120122FDF5021200
:101413000122B4F60212012212F702120122F7F797
:101423000212012216F90212012256A3031201220B
:1014330082A303E066701008A3E066700A08A3E0C5
:1014430066700408A3E06622C3E7960809E79608D6
:1014530009E7960809E79622C3E09608A3E09608F1
:10146300A3E09608A3E09622C008C3E096F5080817
:10147300A3E096420808A3E096420808A3E0964535
:10148300087001D3D00822080808EAC0E0EBC0E0E6
:1014930086F0E7A4FA180986F0E7A42AFA18098661
:1014A300F0E7A42AFA180986F0E7A42AFA1986F0C5
:1014B300E7A4FBE5F02AFA190886F0E7A42BFBE57D
:1014C300F03AFA190886F0E7A42BFBE5F03AFA188C
:1014D300180986F0E7A4C5F02BFBE43AFA1908E7EC
:1014E300C5F0C6A426F6E5F03BFBE43AFA1886F00D
:1014F300E7A4F6E5F00826F6E43B08F6E43A08F636
:10150300D0E0FBD0E0FA226016080808C6C313C671
:1015130018C613C618C613C618C613C6D5E0EA22E2
:101523007009080808226016181818C6C333C608BD
:10153300C633C608C633C608C633C6D5E0EA22E6B4
:1015430027F60809E637F60809E637F60809E63705
:10155300F622E026F608A3E036F608A3E036F608FE
:10156300A3E036F622E026F008A3E036F008A3E075
:1015730036F008A3E036F022C3E697F60809E697AB
:10158300F60809E697F60809E697F622C3E096F00F
:1015930008A3E096F008A3E096F008A3E096F022F3
:1015A300E056F608A3E056F608A3E056F608A3E0D3
:1015B30056F622E056F008A3E056F008A3E056F0F2
:1015C30008A3E056F022E0F608A3E0F608A3E0F64D
:1015D30008A3E0F622E6F008A3E6F008A3E6F00885
:1015E300A3E6F022E0FAA3E0FBA3E0FCA3E0FD22E4
:1015F300EAF0A3EBF0A3ECF0A3EDF022E0F8A3E014
:10160300F9A3E0FAA3E0FB22E8F0A3E9F0A3EAF0F0
:10161300A3EBF022CAC0E0E6F0A308DAFAD0E0FABE
:1016230022CAC0E0E0A3C582CCC582C583CDC583F1
:10163300F0A3C582CCC582C583CDC583DAE6D0E0ED
:10164300CA22C3E498F8E499F91216868026C3E403
:101653009AFAE49BFBE920E7E9121686E498F8E49A
:1016630099F922C3E498F8E499F9121686E498F8F4
:10167300E499F9C3E49AFAE49BFB22EB20E7CFE970
:1016830020E7E0B90010BB0008E88AF084F8AAF06C
:1016930022E4FBC8FA22EB70227B10C833C8C9339B
:1016A300C9335007C39AC3DBF280069A50012ADB81
:1016B300EAC833F4C8C933F4C9FA2275F008E4C898
:1016C30033C8C933C933C99AC99B5004C92AC93B12
:1016D300D5F0ECFBC833F4C8E4C9FA22600D08C6A0
:1016E300A2E713C618C613C6D5E0F322600C08C6DA
:1016F300C313C618C613C6D5E0F422700422600DC6
:1017030018C6C333C608C633C6D5E0F41822251855
:1017130010AF08F518400C15198008F5184002158C
:1017230019D2AF2200C0D0251810AF08F518500CFD
:1017330005198008F51850020519D2AFD0D022251B
:1017430018F58210AF08F518400C15198008F51824
:1017530040021519D2AF851983222518F582E43585
:1017630019F583222518F8E43519F9222518FAE426
:101773003519FB222518FCE43519FD22E4732518DD
:10178300C582C0E0E51934FFC583C0E0E518C39501
:101793008224F810AF088583198582188008858311
:1017A30019858218D2AFCEF0A3E520F0A37808E61E
:1017B30008F0A3DEFAEFF0A3E58124FAF8E608F0D7
:1017C300A3E608F0A3E608F0A30808E608F0A3E6FA
:1017D30008F0A315811581D0E0FED0E0F81581153E
:1017E300811581E8C0E0EEC0E0222518C582C0E083
:1017F300E51934FFC583C0E0E518C3958224F910C9
:10180300AF08858319858218800885831985821816
:10181300D2AFCEF0A3E520F0A37808E608F0A3DE6C
:10182300FAEFF0A3E58124FBF8E608F0A3E608F05D
:10183300A30808E608F0A3E608F0A315811581D0F4
:10184300E0FED0E0F815811581E8C0E0EEC0E022AB
:10185300851983851882E0A3FEE0A3F5207808E0CC
:10186300A3F608DFFAE0A3FFE0A3C0E0E0A3C0E033
:10187300E0A3C0E0E0A3C0E0E0A3C0E010AF0885B0
:1018830082188583198008858218858319D2AFD081
:1018930083D08202011F851983851882E0A3FEE0AD
:1018A300A3F5207808E0A3F608DFFAE0A3FFE0A39E
:1018B300C0E0E0A3C0E0E0A3C0E0E0A3C0E010AF5D
:1018C300088582188583198008858218858319D233
:1018D300AFD083D08222C0D02518C582C0E0E519DD
:1018E30034FFC583C0E0E518C3958224F310AF0825
:1018F3008583198582188008858319858218D2AF5C
:10190300C8F0A3E9F0A3EAF0A3EBF0A37908E70991
:10191300F0A3D8FAECF0A3EDF0A3EEF0A3EFF0A35D
:10192300D0E0F0A3D0E0F0A3D0E0F0A3E520F0A353
:10193300E5F0F0A322851983851882E0C0E0A3E0D7
:10194300F9A3E0FAA3E0FBA37808E0F608A3DFFA23
:10195300E0FCA3E0FDA3E0FEA3E0FFA3E0C0E0A35F
:10196300E0C0E0A3E0F5D0A3E0F520A3E0A3F5F009
:1019730010AF0885831985821880088583198582AD
:1019830018D2AFD082D083D0E0F8D0E03274048094
:1019930006740280027401C0E0F404121742D0E01E
:1019A300121617227404800474028000CCC0E0ED88
:1019B300C0E0E518C39CCCAD1950011D10AF068CD7
:1019C300188D1980068C188D19D2AF121624D0E009
:1019D300FDD0E0FC22D083D082E9C0E0E493A3C32E
:1019E30086F0C5F095F0F908E493A386F0C5F09569
:1019F300F0700BE493A3C3994005E9048002A3E4C8
:101A030075F002A42582F582E5F03583F583D0E0F5
:101A1300F9E493A3C0E0E493C0E022D083D082EC46
:101A2300C0E0EDC0E0E493A3FCE493A3FDED4C60C0
:101A33000D121A6AEC24FFFCED34FFFD80EFE493F2
:101A4300A3FCE493A3FDED4C600D121AA9EC24FF53
:101A5300FCED34FFFD80EFD0E0FDD0E0FCE493A388
:101A6300C0E0E493C0E022C0E0C3E49396087401AD
:101A7300939618400FE493667008087401936618F0
:101A830070007019A3A3C3E4939608740193961886
:101A9300A3A3400DD0E0D0E0D0E0021A5AA3A3A341
:101AA300A3A3A3D0E022C0E0C0F088F0E493667063
:101AB300080874019366187000A8F0A3A3700BD0F4
:101AC300F0D0E0D0E0D0E0021A5AA3A3D0F0D0E0E7
:101AD3002274F51217EDEAFEEBFFEE2434F8EF342F
:101AE30000F988088909EE2435121C00F8EE243722
:101AF300121C00F50AEC850AF0A4FCAAF0850AF092
:101B0300EDA42AFDE82CF8E43DF97A257B001216B2
:101B130086EA850882850983F074075AF87401B848
:101B230000028004C333D8FCFBEA131313541FF8D9
:101B3300EE28F8EF3400F9E8245DF582E9121C037E
:101B43005B6003EA801CEE2436121C00F5F0EA8485
:101B5300A8F0EE28F8EF3400F9E82438F582E9120A
:101B63001C03F97F0402189974F51217EDEAFEEBD2
:101B7300FFEE2434121C00C0E0EE2435F582EF346E
:101B830000F583D0E0F08E828F83A3A3A3A3A3E009
:101B9300FAA3E0FB8E828F83A3A3A3A3A3A3A3E053
:101BA300FCA3E0FDECC39AF50AED9BF50BEE247F55
:101BB300F508EF3400F509850882F583E0640170C8
:101BC3002BEE2480F582EF3400F5831219AB121C3F
:101BD300097402121727E960137CDC7D04EEFAEF27
:101BE300FB120B9C850882850983E4F0AC0AAD0BDC
:101BF300EEFAEFFB121AD412242F021B66F582EFC2
:101C03003400F583E022C082C0838518828519835E
:101C1300E0F8A3E0F9C3EA9CEB9D5010C3EC98ED08
:101C230099401BC3EA98EB995014800EC3EA98EBD2
:101C3300994007C3EC98ED9940047901800279003B
:101C4300D083D08222EAC39CFAEB9DFB2274ED126F
:101C530017ED9003A2E064086005E06407702C9020
:101C630061C8E060269003D0E0F874FF68601CE868
:101C730075F003A4C8AAF02AF974D228FE740339B4
:101C8300FF8E828F83A3A3A3E070057900021DF06A
:101C9300EE2468F510EF3400F511906060E08510D4
:101CA30082851183F0750A45750B05750800750962
:101CB30000E5D914F50EE5D95403F50F601CEE24A5
:101CC30082F50CEF3400F50D7403650F6058E50ED3
:101CD3006013EE2467121C00700B793DEEFAEFFBE4
:101CE300120BC080A6900540E064016026850C823B
:101CF300850D83E06004780480027800850E08E592
:101D030008C398FA95E0FB120A348A088B09EA455E
:101D1300097006120E18021C8E850C82850D83E055
:101D230070048A0A8B0B78008016E5D9C0E088120C
:101D3300E50A2512F582E50B3400F583D0E0F008BF
:101D4300E8C3950E40E4850C82850D83E06028741A
:101D5300FC250EF50E780A121994AC0EA90FEEFAB3
:101D6300EFFB120C6E7402121727E9700AAA08AB74
:101D7300091212EC021CDD7403650F6058850E0C0A
:101D8300750D00780C121994AC0AAD0BAA08AB09B7
:101D9300120C327402121727851082851183E0F822
:101DA3007480687005750C7F8002880CE50CF50A59
:101DB300780A121998E50FF50A780A121998A90EEC
:101DC300AC08AD099003D0E0FA7B001208CC740292
:101DD30012172780139003A2E06408600BAC0AADCE
:101DE3000BEEFAEFFB120D04120E2479017F0C02A5
:101DF300189974F31217ED74FC121711EAFEEBFF36
:101E03008908A2AFE433F509C2AFEE2463F50AEF04
:101E13003400F50B8010AA0AAB0B120BEA1212EC7A
:101E23009004E3E004F0850A82850B83E0F8A3E0E5
:101E3300F9E849602FE82402FAE93400FBEA2402B6
:101E4300F50CEB3400F50D780C1219948A828B8310
:101E5300E0FCA3E0F9EEFAEFFB120BDE74021217BB
:101E630027E960B29004E3E060579004E4E0F8905F
:101E730004E3E0C398500C7402650870449004E5D1
:101E8300E0603E8E828F83A3A3A3A3E0851882859F
:101E93001983121ED4740212175DE8121ED4900423
:101EA300E2E028F0740212175DAC82AD83851882DC
:101EB300851983AA82AB8379011208D89004E3E4DD
:101EC300F0E509A2E092AF74041217277F06021807
:101ED30099F0A3E4F09004E3E0F822000085218761
:101EE3008522C622C0E074EF1218D9A2AFE433FEF4
:101EF300C2AF759B00906182E0A2E05012E591A20F
:101F0300E0500C7591FE740165217003121C50E0C2
:101F1300A2E55051E591A2E5504B7591DF9003A2E4
:101F2300E064076005E0640870237401652170357F
:101F330079019003D0E0FA75F003A4CAA8F028FB56
:101F430074D22AFA74033BFB121DF58018E0640D6A
:101F530070139003C4E004F064287002E4F07A0084
:101F6300E0F9120E2A906182E0A2E6400302200EFD
:101F7300E591A2E6400302200E7591BF9003A2E013
:101F830064057008120D46120D528003120D4C7534
:101F93002100120DB8E99003A3F07900120DAC12E1
:101FA3000B067A017B009003A1E0F912107C907874
:101FB30003E064427055900544E014F0704DC2AFE5
:101FC300121FC600782AD0E0F618D0E0F6E59F5439
:101FD3000770057509FF800375097FC4C0E0782980
:101FE300E6F50808E65509F509740B78081216EFAB
:101FF300D0E02508F8906270E0A2E740F8E8C33328
:10200300906272F0906270E0D2E0F0906181E0A2A1
:10201300E35009E5E9A2E3500375E9F7A3E0A2E77A
:102023005009E591A2E7500375917FEEA2E092AFCC
:102033007F04021938C0E0C0D0C082C0839061839E
:10204300E0A2E05009E5BFA2E0500375BFFEE0A2A5
:10205300E15009E5BFA2E1500375BFFDE0A2E250E4
:1020630009E5BFA2E2500375BFFBE0A2E35009E517
:10207300BFA2E3500375BFF7E0A2E45009E5BFA296
:10208300E4500375BFEFE0A2E55009E5BFA2E550B8
:102093000375BFDFE0A2E65009E5BFA2E650037572
:1020A300BFBFD083D082D0D0D0E032C0E074F21270
:1020B30018D9E5A7A2E4500FE5A1A2E4500953A75C
:1020C300EF75A1EF122102E5A7A2E5500CE5A1A24D
:1020D300E5500653A7DF75A1DFE5A7A2E15009E5A7
:1020E300A1A2E1500375A1FDE5A7A2E2500CE5A171
:1020F300A2E2500653A7FB75A1FB7F0102193874B6
:10210300F81217ED7521019003A2E0640670077AB7
:10211300007B00120D2EA2AFE433FED2AF9003A8D2
:10212300E0640170187A207B009003A1E0F912119A
:10213300007A207B009003A1E0F912108290618263
:10214300E0D2E6F0900541E0602185C6228016903A
:1021530003A7E064017008E5C654F84405F5C653C7
:10216300BEFC121EE07401652160E4EEA2E092AFB2
:102173007F010218998E238F2485822885832785E2
:102183001882851983E0CEA3E0CF85288285278333
:10219300EBC9EAC8EDCBECCA75F010C3E833C8E964
:1021A30033C9EA33CAEB33CBC3EA9EF526EB9FF57B
:1021B30025B35004AB25AA26EC33CCED33CDD5F0B3
:1021C300DAAE23AF242274F11217ED8A088B098C3F
:1021D3000A8D0B9092D378081215A3740F12175D12
:1021E300780C1215C99092D3780C1215A37808793C
:1021F3000C12144B9092B750107808790C12157B7F
:10220300780812146B4014800E780C790812157B31
:10221300780C12146B50047901800279007F080254
:10222300189974ED1217ED8A088B098C0A8D0B909F
:1022330092D378081215A3741312175D780C121534
:10224300C99092D3780C1215A3780C790812144B09
:1022530040117808790C12157BAA08AB09AC0AADBA
:102263000B8022751000751100751200751301782B
:1022730010790C12157B78107908121542AA10AB4D
:1022830011AC12AD137F0C0218999092D3780812F7
:1022930015C98A828B8378081215B67F04021899B0
:1022A30074F51217ED8C828D8378081215C98A8212
:1022B3008B83780812158F1222F7C3E098F0A3E0FE
:1022C300991222E9401E9092DB78081215C98A827E
:1022D3008B8378081215688E828F83E02420F0A305
:1022E300E0344EF080A4F08E828F83C3E09420A369
:1022F300E0944E22EA2404F8EB3400F9E8FEE9FF07
:102303008C828D83A3A3A3A3E0F8A3E0F98E828F2D
:10231300832274F51217EDE9FE9004F7E0FAA3E0C7
:10232300FBEEC333F8E433F974C628F582749139AC
:10233300F583E02AF508A3E03BF509780812199420
:102343009092BF1215E712217874021217278A0898
:102353008B098C0A8D0B7410780812150AAA08AB26
:10236300097F0402189974F11217ED8A0C8B0D8CF6
:102373000E8D0F740F12175DE0FAA3E0FB741112B8
:10238300175DE0F508A3E0F5097808121994EA242B
:1023930001F508EB3400F509E4F50AF50B780C793F
:1023A3000812148A90929778081215C9780C790844
:1023B30012148AAA0CAB0DAC0EAD0F122178740265
:1023C3001217278B09EA450960047A0180027A0013
:1023D300EC2AFCED3400FD741312175DE0F8A3E062
:1023E300F9E8FEE9FFECF8EDF97A717B0212168643
:1023F30088088909E4F50AF50B8E828F8378081221
:1024030015D8ECF8EDF97A717B021216868A088BDF
:1024130009740578081216FE8E828F83A3A3A3A3E3
:10242300E508F0A3E509F07F08021899C082C0838C
:10243300E9906000F0D083D08222C2AF0200002274
:10244300C0E074F21218D9A2AFE433FED2AFC2C017
:10245300E5D1A2E4500653D1EF1212CEEEA2E092E0
:10246300AF7F01021938C0E074F21218D9A2AFE4A9
:1024730033FED2AFE589A2E1500312123E75890003
:10248300C2C5EEA2E092AF7F01021938C0E074F238
:102493001218D9A2AFE433FED2AFE58BA2E050030A
:1024A30012123E758B00C2E880D8C0E0C0D0E8C0ED
:1024B300E0E9C0E0E5A8D2AFC2C7A2E7A2E792AFC6
:1024C300D0E0F9D0E0F8D0D0D0E032C0E0C0D0E81E
:1024D300C0E0E9C0E0C008C009C082C083A2AFE485
:1024E30033F9D2AF9009D3E0F8A3E0687008539AA8
:1024F300FBA374018025C2E99009D3E0F5087401B8
:102503002508F074532508F582E43409F583E0F5D2
:10251300C19009D3E0C394804002E4F0E9A2E092C1
:10252300AFD083D082D009D008D0E0F9D0E0F8D082
:04253300D0D0E032F2
:10253800FFFFFFFFFFFFFFFFC082C083E9900CEDA4
:10254800F00227CF74F7121781E99002E1F07C19A5
:102558007D037AFF7BFF1208129002E274FFF0A35A
:10256800F0A3E4F0A3F0790512079A9002E1E0F9EC
:102578001206BC7A307B081209E67F0102185374F0
:10258800F41217818A088B09EB548060309002E1BD
:10259800E0F91210648A0A8B0BAE0AAF0BEE4F609B
:1025A800138E828F83E064B070031207B2EEFAEFE5
:1025B800FB121052AA08E5096480FB80047A007BAC
:1025C8000002279E74F212178174FC121711EAFE9A
:1025D800EBFFEE4F6038740212175DEEF0A3EF12B6
:1025E8002A03ECF0A3ED122A03AA82AB831206B6E3
:1025F800E9F5087073741212175D1235B7E50A45CC
:102608000B60658E828F8312267AEE4F70057508EF
:102618000280557A067B001210B88A0C8B0DA80C24
:10262800A90DE8497005750813803D88828983E4FF
:10263800122684A3A3EEF0A3EF123A50E50AF0A302
:10264800E50BF09002E712270C9002E76017E0FC18
:10265800A3E08003EAFCEBFD8C828D8312270C70CB
:10266800F38C828D831234DCA908740412172702B4
:102678003C52A3A3A3A3E0FEA3E0FF22F0A3F088AB
:102688008289832274F2121781890AE975F017A4E6
:10269800FEAFF09002E6E4F09002E412270C600A24
:1026A8001210BE9002E4E4F0A3F0EEFAEFFB121071
:1026B800B88A088B09EA4509602FEEFCEFFD79001E
:1026C8001210409002E4E508F0A3E509F07B0080D1
:1026D800081226F6E4F0A3F00BEBC3950A40F2E5E6
:1026E8000A9002E6F0790080027913023C52EB75F9
:1026F800F017A4F8A9F09002E4E028FAA3E0398AD8
:1027080082F58322123272EA4B2274F41217817511
:102718000800750900740C12175D123A24FEE9FFCF
:10272800800CE5082401F508E5093400F509C3E53E
:10273800089CE5099D503285080A85090B740378C1
:102748000A1216FEEA250AF8EB350BF98882898306
:10275800A3A3A3A3A3A31235B7EE650A7003EF657D
:102768000B70BFE8FAE9FB80047A007B00802774CD
:10277800F41217817900EAA2E0501B750866750902
:102788009278081219947C047D007AEF7B0C12076A
:102798009474021217277F04021853C082C08390D2
:1027A80002E71227D6601C88828983A3A3E06A7097
:1027B80003A3E06B8882898370E8A3A3A3A31232E2
:1027C8006E80047A007B00D083D08202011F123D04
:1027D80025E8492274EE12178174FC121711EAFEDB
:1027E800EBFF851882851983E4F0A3F0EE2402122A
:1027F80034C0EE24051229F1EE2404F50EEF122D53
:10280800D6E024FE603924FC604624FE605224FE93
:10281800605E24FE70030228F624FE700302296E0F
:1028280024FE700302297D24FE700302298C24FCF7
:10283800700302299B24FE70030229AA0229E7904B
:1028480003007417F0A3E4122A0B1204340229E7D8
:10285800851882851983AC82AD831207B80229B71F
:10286800851882851983AC82AD831207BE0229B709
:10287800850C08850D09740212175DAC82AD83853D
:10288800088285098312326E1206DA8A0C8B0DAC27
:102898000CAD0DEC4D6042E4F50CF50D780C1219F9
:1028A80094750C00750D03780C121994750C01754C
:1028B8000D03780C121994740812175D1219AB796C
:1028C800161232681207FA7408121727E9F50C7005
:1028D8000B12326412044C800F750C018508828536
:1028E80009831229F91234DC850C080229BA74020A
:1028F80012175DAC82AD83850C82850D8312326E12
:102908001206DA8A108B11AC10AD11EC4D604385BC
:102918000C82850D83A3A31219AB751000751103E2
:102928007810121994751001751103781012199402
:10293800740812175D1219AB79161232681207FA69
:102948007408121727E9F509700B12326412045241
:10295800800F750901850C82850D831229F91234BF
:10296800DC850908804C851882851983AC82AD8383
:102978001207C4803A851882851983AC82AD831208
:1029880007CA802B851882851983AC82AD8312070C
:10299800D0801C851882851983AC82AD831207D636
:1029A800800D851882851983AC82AD831207DCE916
:1029B800F508E50860298E828F83A3E06414601F00
:1029C800850E82850F83E0900300122A03123D21B1
:1029D8009003011234DCE508A3122A0B12042EEE30
:1029E800FAEFFB1207580233C8F50CEF3400F50D67
:1029F80022123D2585188285198322F08518828543
:102A0800198322F07C007D03850A82850B831232AC
:102A1800722274EE12178174FC1217118A0A8B0B3A
:102A28008C0E8D0FEA2405F508EB3400F5097C15AA
:102A38007D0079007A007B03121040E5082402F536
:102A48000CE5091229F48518828519838582108579
:102A580083117810121994850882850983A3A3A38A
:102A6800A3122F1E121994E5082405F510E5093460
:102A780000F5117810121994850C82850D83123295
:102A8800781206D474061217278A108B11AE10AF6D
:102A980011E50A2402F50AE50B1234C3EE4F700360
:102AA800022BE08017740212175D12326E88828939
:102AB80083EAF0A3EBF0900300E004F0900300E059
:102AC800C394054003022BE0E4F510F511781012C9
:102AD80019947510E975110278101219947510EA95
:102AE8007511027810121994740612175D1219AB39
:102AF8007910EEFCEFFD1232681207FA740812170B
:102B080027E9705E850882850983A3A3A3A3A3A3ED
:102B1800A3E0F89002E9E0687048122F1E12199499
:102B28007CEA7D02E5082408FAE5093400FB121066
:102B38003A7402121727E960298E828F83A3A3A310
:102B4800A312326E900300E0F5107402781012168A
:102B5800FE74012510F58274033511F583EAF0A39C
:102B6800EBF0740212175D858210858311781012BC
:102B78001994740212175D1219AB850C82850D83A6
:102B8800123D361206E074041217278A108B11AE14
:102B980010AF11900300E0F5107511007402781061
:102BA8001216FE74002510F874033511F98882890D
:102BB80083A312270C7003022AA4E82403F8E9343B
:102BC80000F9EE4F6003022AAD8882898374FFF012
:102BD800A3F0900300E004F0900300E0600A1232D2
:102BE800641204407900800B8508828509831234B9
:102BF800D3790A0233C874EA12178174FE121711C6
:102C08008C128D13EA2405F50CEB123EA012267ED9
:102C1800750800750900EA2402F510EB3400F51177
:102C280085188285198385820A85830B780A12198B
:102C380094850C82850D83A3A3A3A3122DE01219FA
:102C480094E50C2405F50AE50D1234C3780A121927
:102C580094850C82850D83123D341206D4740612B5
:102C680017278A0A8B0BEA450B7003022D91EA2479
:102C780004F50EEB122DD612267E8A828B83A3A32F
:102C8800A3E0F985108285118312326E1206C2E91B
:102C9800F5096003022D91E4F514F515781412195D
:102CA800947514E975150278141219947514EA7557
:102CB80015027814121994740612175D1219AB795B
:102CC80013AC0AAD0B85108285118312326E120780
:102CD800FA7408121727E9F5096003022D9190028A
:102CE800E9E0F8E5087009E02402900301F0801794
:102CF800900301E0FCE82402FAE43400FBEA6C707B
:102D080001EB6003022D95850882AA82122F159483
:102D180014122F0D5073850E82850F83E0C0E07466
:102D2800022A122DCDD0E0F00508850E82850F838A
:102D3800A3E0C0E085080A7402250A122DCDD0E070
:102D4800F005089002E9122DE01219947CEA7D0240
:102D580085080A7402250AFA74033400FB12102845
:102D680074021217279002E9E02508F50874FF6E2F
:102D7800700374FF6F6012EE24010EEF3400FFE55C
:102D880008C394145003022C28E508601312315923
:102D980085108285118312326E12044679008014E0
:102DA800E509700375090A851282851383EEF0A37D
:102DB800EFF0A90974021217277F0E02185385082D
:102DC8000C7402250CF58274033400F58322340058
:102DD800F50F850E82F58322123A632274EE1217DC
:102DE8008174FE1217118C0E8D0FEA2405F50CEB79
:102DF8001229F4750B00900300E4F0F50AEA2402A6
:102E0800F508EB3400F5098049900300E0FA9002D8
:102E1800E9E0F8122F159417122F0D400D900300BA
:102E2800E0F87416C3989002E9F0122F1E12199454
:102E38007CEA7D0274012AFA74033400FB1210281C
:102E480074021217279002E9E0F8900300E028F0D6
:102E5800050AE50C2416F582E50D122DD1E0F8E5FA
:102E68000AC3984003022EF6900300E0C39416505C
:102E78007DE50AC333F8E433F9E50C28FEE50D399E
:102E8800FF851882851983AC82AD838E828F831269
:102E9800326E1206DA8A108B11AC10AD11EC4D703F
:102EA80005750B018043E4F510F51178101219949B
:102EB8007510E975110278101219947510EA7511D8
:102EC800027810121994740612175D1219AB79164C
:102ED80085088285098312326E1207FA7408121760
:102EE80027E9F50B7003022E111234CF80107C00F5
:102EF8007D0385088285098312326E120458A90B56
:102F080074020233CAE99400C365D03322EA28F870
:102F1800E43400F9E822E0F5107511007810227405
:102F2800EA12178174FC1217118A0C8B0D8C128D02
:102F380013EA2405F50AEB1234C375080075090075
:102F4800E50A2402F510E50B3400F5117402121796
:102F58005D85820E85830F780E121994850A828505
:102F68000B83A3A3A3A3123A0F121994E50A24050D
:102F7800F50EE50B3400F50F780E121994851082C2
:102F88008511831234C91232681206D474061217D6
:102F9800278A0E8B0FAE0EAF0FE50C2402F50EE557
:102FA8000D3400F50F80408882898374FFF005088E
:102FB800122DC674FFF005089002E9E0F50C750DB6
:102FC80000780C1219947CEA7D0285080C7402259D
:102FD8000CFA74033400FB1210287402121727909D
:102FE80002E9E02508F508EE4F60718E828F83A311
:102FF800A3A3E0F9850E82850F8312326E1206C2F2
:10300800E9F509EE24041229F1E97044E4F514F510
:103018001578141219947514E97515027814121993
:10302800947514EA75150278141219947408121715
:103038005D1219AB7911EEFCEFFD850E82850F83C9
:1030480012326E1207FA7408121727E9F509602779
:10305800850C82850D8312314F1234DCE50870032C
:10306800023135123159850E82850F8312326E1264
:10307800045E790002314A850882AA82EA9002E950
:103088007009E02404900301F08022E0F890030125
:10309800E0F514E82404FCE43400FDEC6514700148
:1030A800ED70C0122F159412122F0D50B6850C8298
:1030B800850D83E0C0E074022A122DCDD0E0F00522
:1030C80008850C82850D83A3E0C0E0122DC6D0E0F0
:1030D80012316B85820C85830D780C121994740457
:1030E80012175D1219AB851082851183123D3612B5
:1030F80006E074041217278A0C8B0DAE0CAF0D85F1
:10310800080C7402250CF874033400F9EE4F7003B0
:10311800022FAF851882851983E08882898312314E
:103128006BA3E0C0E0122DC6D0E0022FBDE5097008
:103138000375090A850A82850B8312314F1234DC24
:10314800A9097404022DBE123D25851282851383B8
:1031580022900301E0F5F0E50884900300F07C007C
:103168007D0322F005088518828519832274EC12E4
:10317800178174FE1217118A088B098C0E8D0FEABD
:103188002405FEEB3400FF851882851983AC82ADD7
:10319800838E828F8312326E1206DA8A0A8B0BEEC6
:1031A80024181229F1EA450B700302323F1233B199
:1031B800503285188285198312326E1207EE8A10F2
:1031C8008B11EA4511606B7912AC0AAD0B85088248
:1031D80085098312326E85108285118312177FE963
:1031E800F50A7058E4F50AF50B780A1219948E82DC
:1031F8008F83A3A3E0F50A780A121994EE24031228
:1032080034C0780A1219948E828F83123278120889
:10321800007406121727E9F50A7021850C82850DBE
:1032280083E0701F85088285098312326E12046458
:103238008011750A0E8009750A018004E50A600389
:103248001234CF850C82850D83E0600479008002FA
:10325800A90A74021217277F0C0218537C007D03F9
:10326800850A82850B8312327222E0FAA3E0FB22E0
:10327800E0FCA3E0FD85088285098312327222747E
:10328800EE12178174FE1217118A088B098C0C8DA7
:103298000DEA2405FEEB3400FF750E0085188285C3
:1032A8001983AC82AD838E828F8312326E1206DA56
:1032B8008A0A8B0BEA450B700302339D1233B15017
:1032C8003585188285198312326E1207EE8A0E8BA5
:1032D8000FEA450F605E7912AC0AAD0B850882854E
:1032E800098312326E850E82850F8312177FE9F5E6
:1032F8000E60030233A08508828509831235B7AAB8
:103308000AFB1207E28A108B11A810A911E849706C
:103318001E7AFF7BFF1207E28A108B11A810A911F1
:10332800E849606C88828983E50AF0A3E50BF075AB
:103338000A008007750E0E805F050A9002E6E0FA23
:10334800E50AC39A504AE50A75F017A4FAABF08863
:10335800828983A3A3E02AFAA3E03BFB8A828B83BA
:103368001234C9EC4D70D2750A17750B00780A1221
:103378001994EEFCEFFD1210287402121727EEFCC8
:10338800EFFD85088285098312326E12046A801463
:10339800750E098003750E01123D1D850C82850D81
:1033A800831234DCA90E022F08E5082402F508E58B
:1033B800093400F5098A828B83A3A3A3E0A2E5223E
:1033C80074041217277F0A02185374EC1217818CA1
:1033D800108D11EA2405F50CEB1229F4750F00EA9B
:1033E8002402F50AEB1234C3850A82F58312326E81
:1033F8001207E28A088B09EA450970030234B57599
:103408000E008071850C82850D83E06401704F8EFB
:10341800828F83A3A31219AB8E828F83A3A3A3A346
:10342800E0F5127513007812121994EE2405F512BE
:10343800EF3400F51378121219941232681208004A
:103448007406121727E9F50F6014850C82850D8321
:10345800E4F0123D1D8510828511831234DC7C173F
:103468007D007900EEFAEFFB1210408E828F83E424
:10347800F0A3F0050E9002E6E0F8E50EC398501EA2
:10348800E50E75F017A4F8A9F0850882850983A3CD
:10349800A3123EAA1234C9EC4D600302340C85080D
:1034A8008285098374FFF0A3F0E50F700612326875
:1034B800120470A90F02325FF50AEF3400F50B22EF
:1034C800A3E0FCA3E0FD228E828F83123D25850EAA
:1034D80082850F83E8F0A3E9F022C082C0839002BE
:1034E800E2E06A7003A3E06B70067AE27B02800474
:1034F8007A007B000227CFC082C08378008C828D3F
:1035080083E06A7003A3E06B7010E875F003A4F819
:10351800A9F0EC28FAED39FB8015088C828D83A37D
:10352800A3A3E06A7003A3E06B60DF7A007B00026C
:1035380027CF74F61217811207AC8A828B83E58233
:10354800458370067A007B008007A3A3A3A31232E9
:103558006E023BCE74F2121781E9FE740E12175DEB
:103568001235B7741012175D123A2F8C828D83E0D2
:1035780064027036A3123D2BF50CA3E0F9A80C7475
:10358800026870037429697021750C02750D007842
:103598000C1219947808121994780A121994EEF9F1
:1035A800120824740612172780027901023C52E09F
:1035B800F50AA3E0F50B2274E812178174FB1217C1
:1035C80011E9851882851983F08A168B17ECFEEDB0
:1035D800FF751000741D12175D123D21741D12171E
:1035E8005D1234DC8E828F83A3A3A3E0A2E4502D66
:1035F800741D12175D12326E1207EE8A828B83E5F4
:103608008245837003023A00790AEEFCEFFDAA16A0
:10361800AB1712177FE9F5106003023A03741F1203
:10362800175D123A2F742112175D1235B7742312E1
:10363800175DE0F50EA3E0F50F8E828F83E064023C
:1036480060030239AEA3123D21850882850983A350
:10365800858212858313EE24061229F188828983D4
:10366800E0FAA3E0F9EA2400F514E439F515781432
:10367800121A1E010000280128A336070002286834
:10368800370328D53600299F380129CA3802296B03
:103698003803299F3804294939AE39E50E450F60AA
:1036A800030239A9850C82850D83123A24FAE9FBB5
:1036B8008A828B83E0850A82850B83123A5A121913
:1036C800948A828B83A3E0FCA3E0023933E50E459C
:1036D8000F60030239A9850A82850B837401F012F1
:1036E8003A37850882850983F07C007D008E828FB9
:1036F80083A3A3A3A3E02401FAA3E03400FB1206EA
:10370800DAEA4B60418A828B83E02402F8850A82D8
:10371800850B83E028F0EA2404F8EB3400F988826A
:103728008983E0851282851383123A6C123A5A1201
:1037380019948A828B831234C8E5082403FAE509B0
:103748003400FB023938850A82850B83E02404F0B3
:103758007C047D007900AA12AB13121040023A03D0
:10376800E50E450F60030239A9123A37FEA3E0FFC0
:10377800850A82850B837404F0EE850882850983A7
:10378800F0EF851282851383F0740312175DAC8203
:10379800AD83EEFAEFFB1206DA8A0C8B0DEA450DC3
:1037A800700302384C8A828B83A3A312267A740191
:1037B80012175D85820E85830F780E121994740591
:1037C80012175D1219AB7CFF7DFF1206E07404121C
:1037D80017278B0FEA450F7033850C82850D8312EE
:1037E8003A0F121994850C82850D83A31219AB7CAC
:1037F800027D007A167B9312050C7404121727E9D0
:10380800700A740112175D74FFF0A3F08E828F8323
:10381800E064027039750C02750D00780C12199469
:103828008E828F831234C8E5082404FAE50934002F
:10383800FB1210287402121727850A82850B83E071
:1038480024028009740112175DEEF0A3EFF07401F1
:1038580012175D123A20F0740112175DA3123A187C
:103868000239A3E50E450F60030239A9850C82854C
:103878000D831234C9AA16AB17120818850A828557
:103888000B837402F0EA850882850983F085128229
:10389800851383EB0239A6E50E450F60030239A9AB
:1038A800123A37F8A3E0F9850A82850B837402F08F
:1038B800E8850882850983F0E985128285138302E9
:1038C80039A6850C82850D8312326E121022EAFC0D
:1038D8008C82A882C3950EE4950F405FE8650E7050
:1038E80002E50F70047C008022851882851983E028
:1038F800FAE50E2AFAE50F3400FBC3EA98EB9400C8
:103908005003E08005E50ECCC39CFCEC850A82855B
:103918000B83F08C0A750B00780A121994850C82B7
:10392800850D83E0250EFCA3E0350FFDAA08AB0941
:103938001210287402121727023A03751007023A68
:1039480003E50E450F705A850C82850D83123D21C3
:10395800850A82850B837407122686123A18122666
:1039680086A3E0851282851383F0E82402FAE934FD
:1039780000FB8A828B83123A18123A47123A20A324
:10398800123A50123A29F0E82405F8E93400F98887
:10399800828983123A29A3123A6CA3A3A3A3F080C5
:1039A8005A75100B8055741D12175D12326E12076E
:1039B800AC8A828B83E5824583603D123D21880C69
:1039C800890DE8450D6031780E121994780A12199C
:1039D800947808121994740612175DE0F9EEFCEF5A
:1039E800FDAA16AB17850C82850D8312177F740606
:1039F800121727E9F510800375100EA91074051227
:103A080017277F10021853E0F50E750F00780E2265
:103A1800E085088285098322123A7622123D25E83C
:103A280022123A76A3A322E0F508A3E0F50922853D
:103A38000C82850D83E0F8A3E0F5838882E022A359
:103A4800A3F08A828B83A322F088828983A3A3A30D
:103A5800A322F08A828B83123A6322E0F50A750B5F
:103A680000780A22F088828983A3123A7622E085B8
:103A78000882850983A3A32274EE12178174FE12AB
:103A880017118A0A8B0BECFAEDFB741412175DE020
:103A9800F510A3E0F511741612175DE0FE74181204
:103AA800175DE0F50EA3E0F50F851882851983AC44
:103AB80082AD831206DA8A0C8B0DEA450D604985C2
:103AC800188285198312326E1207AC8A828B83E5BD
:103AD800824583602FA3A3123A2FE5084509602485
:103AE800780E1219947810121994EEF9AC0CAD0DE9
:103AF800AA0AAB0B85088285098312177F74041202
:103B080017278006790E80027901022F0874F612B1
:103B1800178174FE121711740C12175D123A24855E
:103B28001882851983F0740112175DE9F0E4F5082D
:103B3800F50978081219947508027808121994740E
:103B48000412175D85820885830978081219941272
:103B5800080074061217277402121727806874F772
:103B6800121781EAFEEBFF89087C197D03120818F9
:103B7800EA5402600BA908EEFAEFFB1206CE8002A7
:103B8800790102258274F612178174FF6A70037432
:103B9800FF6B70168C828D83123BD3E4F08C828D80
:103BA80083A3A3A3123BD3A380181207E88A088B28
:103BB80009A808A909E849600D8882898374FF1259
:103BC8002684A3A3E4F07F0202185374FFF0A3F045
:103BD8008C828D83A3A32274F61217811207E88AB8
:103BE800828B83E58245836006A3A3E0FA80027A8C
:103BF800007B0080D174F21217818A088B09ECFED1
:103C0800EDFF740E12175DE0F50A1207E88A0C8BB7
:103C18000DA80CA90DE8497026EEFCEFFD7AFF7B94
:103C2800FF1207E88A0C8B0DA80CA90DE84970044F
:103C38007911801688828983E508F0A3E509F08860
:103C4800828983A3A3E50AF079007F0602185374DA
:103C5800EE121781EAFEEBFF8C088D09890C7414AB
:103C680012175D123D21741612175D12326E750D12
:103C780000E8496003023D157402650C6003023DCB
:103C880010741212175D123D2BFCA3E0F9EC24000E
:103C9800F50EE439F50FEAF4F8EBF4F9EC58F8E529
:103CA8000F59F9E849705CE5082406F8ED3400F985
:103CB800880A890B8882F583123D361208188A1003
:103CC8008B11E50E65107004E50F65116042780EE2
:103CD800121994850A82850B83123D3612081E74C8
:103CE80002121727E9F50D7027780E121994850826
:103CF80082850983A3A3123D341208367402121771
:103D080027800D750D808008750D0D8003750D0BCE
:103D1800A90D0233CD8E828F83123D2522E0F8A3B0
:103D2800E0F922123D2588828983E022A3A3E0FCE2
:103D3800A3E0FDEEFAEFFB2274E812178174E71294
:103D48001711851882851983EAF0A3EBF08C168D7C
:103D580017890E750800750900743112175DE0F5B2
:103D680012A3E0F513743312175DE0F514A3E0F520
:103D780015743512175DE0F50FE50975F003A4F821
:103D8800A9F0851882851983123EAAE0F47003A36E
:103D9800E0F47003023E8DEE2402F50CEF123EA013
:103DA800E07003023E8D85160A85170B780A1219F2
:103DB80094AC14AD15AA12AB131207A07402121713
:103DC800278A0A8B0BEA450B7003023E8DE4F51037
:103DD800F5117810121994740612175D85821085F2
:103DE80083117810121994740912175D8582108551
:103DF80083117810121994851282851383A3A3A3C3
:103E0800A31219AB7914AC0AAD0B8E828F831232D0
:103E18006E1207FA7408121727E97069850A8285F5
:103E28000B83A3A3A3A3123D21740212175D1234BE
:103E3800DC850C82850D83E0A2E05018A90E74027F
:103E480012175DAC82AD838E828F8312326E12069A
:103E5800F2E94208850C82850D83E0A2E15026E54F
:103E68000FF50A780A121998A90E740312175DAC97
:103E780082AD838E828F8312326E1206EC74011229
:103E88001727E942080509E509C394025003023DD2
:103E980081A9087419023A073400F50D850C82F5DA
:103EA8008322E028FEA3E039FF8E828F832274F2FA
:103EB800121781EAFEEBFF890B7401650B600E7423
:103EC80002650B706A7901120A04E97062EEFAEF72
:103ED800FB1207E28A088B09EA45096047750A0060
:103EE800800B7C177D007900121040050A9002E6CD
:103EF800E0F8E50AC3985021E50A75F017A4F8A977
:103F0800F0850882850983A3A3E028FAA3E039FB9A
:103F18008A828B831227D670C985088285098374A3
:103F2800FFF0A3F07C197D03EEFAEFFB12081202F2
:103F38003C5274F21217818A088B09ECFEEDFF746B
:103F48000E12175D1235B7900CEDE0F4603D7A095A
:103F58007B0012104CEA4B60328A828B8374B1F07A
:103F6800A3E4123A49A3123A47A3E508F0A3E509E6
:103F7800123F96EEF0A3EF123F96A3A3E50AF0A333
:103F8800E50BF0900CEDE0F9121058023C52F08A63
:103F9800828B83A3A3A3A3A32274F012178174FABC
:103FA8001217118908ECFEEDFF7509008A0A8B0BC0
:103FB800780A1219D8000410C941E43F02401C4095
:103FC800344052406A408D40A540B940E3406041CA
:103FD80071418841A341C941C941F940740165084B
:103FE80060030241C48E828F83E0F8C394034003C8
:103FF8000241C4E8900DD90241A07402650860032B
:104008000241C48E828F83124971900DDAE8F0A3C1
:10401800E90241A07401650860030241C41241F13C
:1040280040030241C4E89007660241A07401650894
:1040380060030241C48E828F83E0F8C39405400375
:104048000241C4E89007670241A074016508600353
:104058000241C41241F140030241C4E890076802DA
:1040680041A07410650860030241C4750A10750BFD
:1040780000780A1219947A697B07121028740212C0
:1040880017270241EA7401650860030241C412411E
:10409800F140030241C4E89007790241A074016528
:1040A8000860030241C48E828F83E0900DDD0241D7
:1040B800A07404650860030241C48E828F83780C63
:1040C8001215C99092BF780C12146B50030241C4A8
:1040D80090077B780C1215D80241EAE96003024187
:1040E800C412067AE970051211A2805690080E8053
:1040F800637407650860030241C4750A06750B00FE
:10410800780A1219948E828F83A3AC82AD837402CD
:1041180012176F12102E74021217277C007D00AA46
:1041280018AB198E828F83E0F912114EE9F50AC394
:10413800940A40030241E712067AE9700CA90A12B0
:1041480011A8795012136A806E740F250AF582E45B
:104158003408F5837401804074016508705E12416B
:10416800F15059E890077A802F74016508704D8ED8
:10417800828F83E0F8C3940A5042E8900DDC8018DF
:104188007401650870368E828F83E0F874F928C34D
:10419800940A5028E8900DDEF08047740165087095
:1041A8001B90080DE0F88E828F83E090080DF0E8F0
:1041B8007030E06401702B12119680267509188002
:1041C80021C3EA9427EB9400501574026508700F18
:1041D8008E828F83124C94120518E9F509800375B5
:1041E8000902A90974060245D18E828F83E0F8C3BB
:1041F800940222740E1217277F0402185374F012C7
:10420800178174B11217118C0E8D0F909272742051
:104218001217777406121624742012177712114E8B
:10422800E9F50B745F12175DE0F50CE9C3940A40D9
:104238000302438375F006E9A4F509744112177760
:104248007A0E74202509F9121364E97009744D1265
:10425800175DE0FE80027E00900DD9E064027005D3
:1042680075080180037508007408650C70047422D1
:10427800800274212509FF7C1B7D007900742612B9
:10428800176F121040EEA2E0E433F50A74261217F5
:10429800777A1BEFF9121364E97025744012175DE1
:1042A800E024F9C3940A5018780812199874271250
:1042B8001777A90AAA0EAB0F1205BA7401121727AD
:1042C8007C147D007900740C12176F121040740C66
:1042D8001217777A1074242509F9121364E97030DB
:1042E8007C1079FF740C12176F1210A0E9702174FA
:1042F8001C12175DAC82AD837A0474252509F91266
:104308001364740C121777A90AAA0EAB0F1205A230
:10431800AC18AD197A0C7470250BF9121364E97096
:1043280049AA18AB1912117E7F00EF75F003A4F8A3
:10433800A9F0851882851983E58228F8E583124A51
:1043480099124C8E601D88828983A3A3E0F50875B5
:1043580009007808121994AA0EAB0F120806740205
:104368001217270FEFC3940440C0EEA2E1500C903F
:104378000765E0F9AA0EAB0F12080C7404650C70FF
:1043880027900DD9E06402701F7A00900779E060E9
:10439800010A900766E06004780480027800E84A21
:1043A800F9AA0EAB0F1206627900744F0245D17458
:1043B800F112178174F01217118A0C8B0D8C088D6D
:1043C800097E0AE9600C14600914603A14607502E9
:1043D800449D121190E9FEC3940A400302449DE5EE
:1043E800084509700302449D750A06750B00780A92
:1043F800121994AC0CAD0DAA08AB0912102874025E
:1044080012172702449D7F00750A06750B00780A6B
:10441800121994AC0CAD0DEF75F00EA4F8A9F07458
:104428008728FA740739FB12103A7402121727E921
:1044380070090FEFC3940A505C80CDEFFEC3940A55
:10444800505380427F00AC18AD197A1075F006EF12
:10445800A42423F9121364E9701C7C1079FFAA18AC
:10446800AB191210A0E9700EAC0CAD0DAA18AB195F
:10447800120584E960090FEFC3940A501880C7EF4A
:10448800FEC3940A500FE50845096009AA08AB095C
:10449800EEF912118AEEF974101217277F07021825
:1044A8005374F4121781E9FF7E1574FF6A70037460
:1044B800FF6B7028750800EFFC7A027B00A90812D0
:1044C800116CE960027E000508E508C3940A40E71C
:1044D800EF604E7ABA7B11120A1680451209F88AE3
:1044E800088B09EA450960387C007D00EA2405FA52
:1044F800E43509FB850882850983A3A3A3A3E0F912
:1045080012114EE9C3940A500BEFFC7A027B001299
:10451800116C7E00EF600AAA08AB091211BA80017B
:104528001EEEF902420074F21217818C088D097E82
:1045380015740E12175DE0F50AA3E0F50B74FF6A17
:10454800700374FF6B701D7F00AC0AAD0BAA08AB3B
:1045580009EFF9121172E960027E000FEFC3940AA5
:10456800503B80E51209F88A828B83E58245836097
:104578002B7C007D00E5822405FAE43583FBA3A3A8
:10458800A3A3E0F912114EE9C3940A5010AC0AAD86
:104598000BAA08AB091211727E0080011EEEF97F8A
:1045A80006021853C082C08390077FEAF0A3EBF09D
:1045B800900765E0FC7D007A267B001205189007BD
:1045C80065E0F91207820250941217277F08021833
:1045D8005374F012178174EC121711EAFEEBFFEE18
:1045E800240CF50CE43FF50DEE2405F50EE43FF53B
:1045F8000FEE2409F50AE43FF50BEE2403F508E471
:104608003FF5098E828F83A3A3E024FA7003024842
:104618009524FD70030247B31470030246B014607A
:104628001024FD700302478A1470030247EA024807
:10463800EC125396604AE0F5838882E0F50EA3E019
:10464800F50FE50E450F6038850C82850D83E0F582
:104658000C780C121998EE240BF582E43FF583E0F0
:10466800F9850A82850B83124C940A0A0AAB0985DC
:104678000E82850F8312177F74011217270248ECE8
:10468800850A82850B831219AB90077B1215E712F6
:1046980005B47402121727E970030248EC79018502
:1046A8000A82850B830248608E828F83A385820AE3
:1046B80085830BE0600302476D850E82850F83E0DA
:1046C800A2E0400302476D90081912539960030253
:1046D800476D7C0E7D007900AA18AB191210408531
:1046E8000C82850D8312505FEA4B6010750C0675BD
:1046F8000D00780C121994EA2410801B12505912DC
:1047080009F8EA4B70030248EC750C06750D007841
:104718000C121994EA2405FCE43BFD740212176F8D
:104728001210287402121727850E82850F83E0A2C3
:10473800E25004D2F08002C2F0A2F0E433F8740C24
:1047480012175DE048F0EEFCEFFDAA18AB19121144
:1047580084E970117A027B00900765E0F912107CF9
:1047680079000248EE12539670030248EC1248F39F
:1047780070030248EC850A82850B83E0FC7901020C
:10478800488912539670030248EC12501E890BE8B0
:10479800450B70030248EC8E828F83A3E0FC7902FC
:1047A8001250598882850B830248907C007D00EE68
:1047B8002404FAE43FFB850882850983E0F9121195
:1047C8004EE9F8C3940A40030248ECEE240AFCE4DC
:1047D8003FFD7A0475F006E8A42425F912135E0259
:1047E80048EC12505990077AE06007900DDCE0F928
:1047F8008069900DD9E070047905805F1209F88A04
:104808000C8B0DA80CA90DE82404F50CE439F50D62
:104818008E828F83A3A3A3A3A3A3A3E0A2E0504106
:10482800E84970030248EC850C82850D83E0FE6040
:1048380030850A82850B83E054107025740E121798
:1048480077E82405FAE439FBEEF912114EE9701104
:10485800790385088285098312505F1205AE0248E4
:10486800ECAC0EAD0F850C82850D83E0F912505922
:104878001211C6125396606C1248F360677C007977
:10488800001250598E828F8312177F805712067A32
:10489800E9705190080EE0640170151211A2900899
:1048A8000EE4F07C0AFDF97A0F7B08121040802C88
:1048B800750A00850A08740F2508FEE43408FF8E7F
:1048C800828F83E06401700BA90A1211A88E828F6F
:1048D80083E4F0050AE50AC3940A40D77950121315
:1048E8006A121196790174140245D1125022E8FE19
:1048F800E9FFEE4F2274F412178174F2121711EACD
:10490800FE8C0975F006E9A42420F508AC18AD1949
:104918007A0EF9121364E9704B7C0679FFAA18AB7A
:10492800191210A0E9703D740C12175D124971E854
:10493800F50BE5096005EE420B8004EEF4520B8599
:104948000B82AA82E86A7001E96015740C12175D7F
:10495800EAF0A3E4F0AC18AD197A0EA90812135EB8
:104968007901800279000241FBE0F8A3E0F92274A2
:10497800F212178174E612171189098A0C8B0DEC53
:10498800FEEDFF740C1217777A0E75F006E9A42471
:1049980020F9121364E96003024A5C7C0679FF740B
:1049A8000C12176F1210A0E96003024A5C7470259C
:1049B80009F508AC18AD197A0CF9121364E960030B
:1049C800024A58AA18AB1912117EE50C450D701D44
:1049D8007C0C7900AA18AB191210A0E970727C0C33
:1049E8007D007900AA18AB191210408051AC18AD9F
:1049F80019AA0CAB0D1211788A0A8B0BA80AA90BFD
:104A0800E8497022EE4F604CAC18AD197A007B0073
:104A1800121178EAF8EBF9EA4B603988828983E564
:104A28000CF0A3E50DF0124AD5FAEE6A7001EF60BA
:104A38001FEEF04F700888828983E4F0A3F0AA186B
:104A4800AB1912117EAC18AD197A0CA90812135EB5
:104A5800790180027900741A1217270245A774F7A2
:104A68001217817F00EF75F003A4F8A9F0EC28F87D
:104A7800ED124A99E06A7003A3E06B7006E8FAE960
:104A8800FB800B0FEFC3940440DB7A007B00024DE0
:104A9800D139F9888289832274F71217817E00EE52
:104AA80075F003A4F8A9F0EA28F8EB124A99E0F4A3
:104AB800FCA3E0F4FD88828983ECF0A3EDF0124AB0
:104AC800D5F4F00EEEC3940440D5024DD1E824028B
:104AD800F582E439F583E02274F412178174F41234
:104AE8001711EAFEEBFF8C0A8D0B900819125399E7
:104AF800704FEE4F7003024C6FEC450B7003024C85
:104B08006F121190E9900DDFF0C3940A40337508D5
:104B1800007C0679FFE50875F00EA4FAABF0748105
:104B28002AFA74073BFB1210A0E96003024BC80580
:104B380008E508C3940A40D975090AE509900DDF0C
:104B4800F0900DDFE0C3940A4003024C6F75F00645
:104B5800E0A4F890081912505FEA4B7069EEFCEF78
:104B6800FD7A0E742028F912135E7C0C7D0079FF03
:104B7800AA18AB19121040AC18AD197A0C900DDFB9
:104B8800E02470F912135E75080E75090078081292
:104B98001994EEFCEFFD900DDFE075F00EA4F8A976
:104BA800F0748128FA740739FB121028740212175E
:104BB80027900819E50AF0A3E50BF07900024C717B
:104BC800850809024B43124C762406124C8860195A
:104BD8007A1B742128F912135E124C7F2406F58281
:104BE800E438F583E4F0A380D1124C76240A124C01
:104BF8008860107A1B742228F912135E124C7F24E5
:104C08000A80DB124C76240C124C8860107A1074DF
:104C18002328F912135E124C7F240C80C1124C76A3
:104C28002408124C8860347A10742428F912135E10
:104C3800124C7F2408F582E438F583E02410FCA3A5
:104C4800E03400FD7A0475F006900DDFE0A4242519
:104C5800F912135E124C7F2408808390080DE060DF
:104C6800031211CC1211C07901740C0241FD900895
:104C780019E0F9A3E0C922900819E0F8A3E0C822D6
:104C8800F582E439F583124C94EC4D22E0FCA3E064
:104C9800FD2274F412178174F2121711EAFEEBFF69
:104CA800E9C3940A5004EE4F700479028034AC18BA
:104CB800AD197A0E75F006E9A42420F9121364E9F7
:104CC800F508701C750A06750B00780A1219947499
:104CD80002121777EEFAEFFB121028740212172748
:104CE800A9080241FB74F4121781EAFEEBFF75086C
:104CF80000750A06750B00780A121994EEFCEFFD90
:104D0800E50875F00EA4F8A9F0748128FA7407393B
:104D1800FB12103A7402121727E96004A908800BE5
:104D28000508E508C3940A40C8790A02420074F7E6
:104D3800121781750800E50875F00EA4F8A9F0743B
:104D48008128FE740739FFEEFCEFFD7A0E75F00638
:104D5800E508A42420F9121364E960297C067D0083
:104D680079FFEEFAEFFB1210407C067D0079FFEE2A
:104D78002CFAE43FFB121040EE240CF582E43FF5D8
:104D880083E4F0A3F00508E508C3940A40A8900856
:104D98000DE060031211CC1211C0802D74F71217A8
:104DA800817E007F007C0679FFEF75F00EA4FAABD8
:104DB800F074812AFA74073BFB1210A0E970010E07
:104DC8000FEFC3940A40DEEEF97F0102185374F71F
:104DD8001217817E00EEF91211A80EEEC3940A5044
:104DE80003E960F180E374F312178174CB12171191
:104DF800E9FF900DDFE06F701B7A017B009007657B
:104E0800E0F91210827A027B00900765E0F912102F
:104E1800821211D875F006EFA4FE74202EF50874DE
:104E2800271217777A0EA908121364E96003024E55
:104E3800F47C0679FF742712176F1210A0E960033B
:104E4800024EF47C0E7D0079FF742712176F121042
:104E5800407C1B7D0079FF740C12176F1210407C88
:104E68000C7D0079FFAA18AB19121040742712178D
:104E7800777A0EA90812135EE9F508740C121777F1
:104E88007A1B74212EF912135EE9F50C740C1217B3
:104E9800777A1B74222EF912135EE9F50B740C1243
:104EA80017777A1074232EF912135EE9F509740C3A
:104EB8001217777A1074242EF912135EE9F50A7422
:104EC8000C1217777A0474252EF912135EE9FEACDA
:104ED80018AD197A0C74702FF912135EE9F8E50C05
:104EE800450B4509450A4E4842088003750800A944
:104EF8000874351217277F0502185374F7121781A3
:104F0800E9900765F0121196024DD174F4121781D9
:104F1800EAFEEBFF54807003024FAB900765E0F99F
:104F28001210648A088B09EA4509607078018A8240
:104F38008B83E02450603D14600624E1604F80526A
:104F4800A3A3A3A3E0704E8A828B83A3A3A3A3A3E6
:104F5800A3A31219AB8A828B83A3A3A3A3A3124C86
:104F6800948A828B83A3A312505F12115A7402127F
:104F780017278021A3A3A3A3E0641E701879008AD1
:104F8800828B83A3A312505F1211548008121166FA
:104F9800E9F8E86007AA08AB09121052EEFAEF64C4
:104FA800808065EE540260237C007D007A007B00DF
:104FB800121184E960117A017B00900765E0F9120B
:104FC800107CEE6402803F7A028046EEA2E0503FF9
:104FD80012502F12505F1211D2E9602F12539660AF
:104FE8001F12501E88088909E8450960137C00795A
:104FF8000112502F12505F85088285098312177F8E
:105008001211D8EE6401FAEFFB80087A0180027A67
:10501800007B0002420012502222E0F5838882A31E
:10502800A3E0F8A3E0F922900819E0F8A3E0F583DB
:105038008882A3A3A3227F02021853C082C0839050
:105048000765E0F98A828B83A312505F12080C80EF
:105058003B850882850983E0FAA3E0FB22C082C071
:105068008374FF12171112119CE9C39402851882E8
:10507800851983400474028002740AF0AC18AD19D3
:105088007A0179051206927401121727D083D0820B
:1050980002011F74F412178174E81217118A088B21
:1050A80009E9FE8C0A8D0B7C187D007900AA18ABE3
:1050B80019121040851882851983E508F0A3E509BF
:1050C800F0900767E0C0E0740212175DD0E0F0903E
:1050D8000768E0C0E0740312175DD0E0F0900DDEC1
:1050E800E0C0E0741712175DD0E0F0741512175D78
:1050F800E054FEF8A3E0F9900DDDE0A2E0E433FA15
:10510800E84AF8741512175D125236A2E15004D21B
:10511800F08002C2F0E854FDFAA2F0E43325E0F88A
:10512800EA48F8741512175D125236A2E35004D2F9
:10513800F08002C2F0E854F7FAA2F0E433F50875FB
:105148000900740378081216FE12522F12175D1206
:105158005236A2E45004D2F08002C2F0E854EFFACA
:10516800A2F0E433F508740478081216FE12522FE0
:1051780012175D125236A2E55004D2F08002C2F036
:10518800E854DFFAA2F0E433F5087405780812163B
:10519800FE12522F12175D125236A2E25004D2F0BC
:1051A8008002C2F0E854FBFAA2F0E433F508740276
:1051B80078081216FE12522F12175DE8F0A3E9F0D4
:1051C800900768E0601D75081078081219947C69CA
:1051D8007D07740612175DAA82AB83121028740229
:1051E800121727900779E06010EE600974151217FE
:1051F8005DE04402F0780180027800741412175DB3
:10520800E048F0900766E060047804800278007453
:105218001412175DE048F0AC0AAD0BAA18AB1912CE
:1052280005A874180241FDEA4508F8741522E8F04B
:10523800A3E9F0900DDDE02274F7121781120884BB
:10524800750800E50875F00EA4F8A9F0748128FE29
:10525800740739FF7C0679FFEEFAEFFB1210A0E91C
:105268007009EEFAEFFB790012088A0508E508C311
:10527800940A40CF024DD174F612178174FD1217AB
:1052880011EAFEEBFF90081B125399703975081D3F
:1052980075090878081219947508027509007808C4
:1052A80012199475080E75099378081219947CFFE1
:1052B8007DFF7A017B001206D47406121727900826
:1052C8001BEAF0A3EBF090081B12539970030253EA
:1052D80080E4F508F5097808121994740412176720
:1052E80088088909780812199474041217678808BD
:1052F8008909780812199490081D1219AB7902903F
:10530800081B12538E1207FA7408121727E9703611
:10531800851882851983E0FA740112175DE0F8E4B4
:10532800C8F9EA28F508E439F509EA450960177863
:105338000812199490081B125032A312538E12119E
:105348005A7402121727E4F508F509780812199417
:1053580090081D1219AB7CFF7DFF90081B12505F4F
:105368001206E0740412172790081BEAF0A3EBF06A
:1053780090081B1253997004790180027900740314
:1053880012172702503E124C94EEFAEFFB229007B8
:105398007F124971E84922C082C0839008191253CC
:1053A80099601090081912505F121052900819E471
:1053B800F0A3F0900DDF740AF0025094C082C0830D
:1053C8009061907404F0A37448F0A3E4F0906180B5
:1053D8007440F09061BC7407F09061877469F09034
:1053E80061B67416F07900120B0C7902120B129048
:1053F8002538E493F46006E493F9120AE879051273
:105408000E0C0257BFC082C083E9540FF990618522
:10541800E0696012E5C654804449F5C6E59E547FAC
:10542800644970F8E9F053C680E59E547F70FA022B
:1054380057BF74F7121781E5A8FE53A87E120AF425
:10544800C2BA539AFEC289759B00C2C2120AFA7583
:10545800A91175B905120B00D2BA439A0174805E7E
:1054680042A8025D56C082C083906181E4F0A30225
:1054780057BC75E90075910075BF0002011FC08215
:10548800C083906181E4F0A374C0F0A3E40257BE26
:10549800C082C08374F81217119003A41266EF70CB
:1054A800030255779003A4E05440602379088518D7
:1054B80082851983AA82AB83120C08851882851904
:1054C80083AA82AB831208B49003A4E054BFF0E02F
:1054D80054806010790C7A657B05120C089003A43F
:1054E800E0547FF0E0A2E0500F7900120B0C120894
:1054F800BA9003A4E054FEF0E05402600F79011260
:105508000B0C1208BA9003A4E054FDF0E0540460B8
:105518000F7900120B121208C09003A4E054FBF09C
:10552800E05408600F7901120B121208C09003A40E
:10553800E054F7F0E05410600F7902120B121208D1
:10554800C09003A4E054EFF0E05420600F790312F8
:105558000B121208C09003A4E054DFF0A3E054013A
:10556800600D120B1E1208C69003A5E054FEF074DD
:10557800081217270257BFC082C083E9600514606C
:105588002A804F90619A7433F0A37455F09061A00B
:10559800743AF090053FE064017009C2919003A647
:1055A8007467802D9003A67461802690619A743F79
:1055B800F0A3745AF09061A0747FF090053FE06406
:1055C800017009D2919003A6747180059003A674A6
:1055D8006AF00257BFC082C083E9600B14600D14E3
:1055E800601714600C802090253C801590253D8024
:1055F8001090053FE06401700590253E80039025DA
:105608003FE493906186F00257BF74EE12178174DD
:10561800F4121711851882851983AC82AD837583BE
:10562800927582E3740412162490253C93F4600367
:1056380002573C907808E0C39402500302571C7448
:105648000412175DAC82AD8375839275825E74080F
:10565800121624FC7EFF7FFF8E0C7D008C828582D3
:105668000E800F74086D606D74096D6068740A6D42
:1056780060638D08750900740278081216FE1257C7
:10568800461215C9A909E50AC9F8881074187808D6
:1056980012150AE5104508FAE9FBE50EC333F8E4EC
:1056A80033F9740412175DE58228F582E58339120F
:1056B8005C46C3E89AE99B4008E8C39AF8E99B80EE
:1056C80006EAC398F8EB99F9C3E89EE99F5006E803
:1056D800FEE9FF8D0C0DEDC39413408774FF6E70C7
:1056E8000374FF6F6024850C08740278081216FE94
:1056F8001257461215C9851882851983E582250E29
:10570800F582E5831260E5E508F00CECC3940450DB
:105718000302565C7508017509007808121994741B
:105728000212175DAC82AD837A4F7B0912121A748C
:1057380002121727740C1217277F0A02185374488D
:105748002508F58274783509F583780822C082C067
:1057580083906186E0F890253FE49368700990256E
:105768003EE493906186F09061AE7468F0A3746A29
:10577800F090624574FBF0A304F053F4FD43FE027D
:1057880090053F7401F09061A0E0643A70047900DC
:1057980080027901120B0C0257BFC082C0839004AB
:1057A800F1E06401700A9004F6E06004790C80026C
:1057B80079008003F0A3F0D083D08202011FC08259
:1057C800C08375E1F19004F4E0604D146009146041
:1057D80051146049147050120B309004EAE0F97AC1
:1057E800EB7B04120D8E9092EB1215E7120DC4900C
:1057F80092CF1215E7120D9A9004F5E0F9120DA652
:105808007901120E001258E224161260E27448F070
:10581800A3740BF07900809F120B3680BD120B3CED
:1058280080B8120B4280B3791280EB74F41217819E
:1058380075D90D9004D5E0A2E0E4331313F812589B
:10584800D8484401F5D9780012594540FB780088BA
:105858000874D6126645740412594F40F275E195E2
:105868009004D5E0F97AD67B04120D94900D0F744C
:10587800BEF0A3740A125955125999125990125A26
:10588800AD9004F4E064019004E8700B1258EB1238
:1058980015C99092EF80091258EB1215C99092B36E
:1058A80078081215559092D378081215A31258E269
:1058B800240E1260E278081215D81258E224141245
:1058C80060E27413F09003A27402F07F040218538C
:1058D8009004EAE0C4333354C0229004E8E0F8A30B
:1058E800E0C82212657D78082274F6121781125AD0
:1058F8007E8AD9780012594540FB780080061259F3
:10590800F6125B33E8C39940F5125A7012594540B4
:10591800FB780080081266417405125B33E8C3996E
:1059280040F375E195900D0F74CAF0A3740A1259EB
:105938005512595F7412F09003A2025D1A88087418
:10594800EB2508F5827404125CB0940622125A966C
:1059580074C4F0A3740A22125999125990125AB1B8
:105968009004E8E0F8A3E0C8240E12598874FF12E6
:1059780063BA9004E8E0F8A3E0C824141259882216
:10598800F582E83400F58322F0A374DCF0A3740AEE
:105998002212599D221259A122F0A37474F0A37403
:1059A8000C2274F61217811259EB1258D84402F5DA
:1059B800D9780012594540FB780080061259F61232
:1059C8005B33E8C39940F575E195900D0F125A01C4
:1059D800F0A3125A011259627414F09003A27404CD
:1059E800025D1C9004FAE0F9740729F5D9228808A9
:1059F80074FB2508F58274042274D6125A0E125AC2
:105A08000EF0A3740A22F0A3740AF0A374D62274C9
:105A1800F6121781125A7E74064AF5D9780012597F
:105A28004540FB780080061259F6125B33E8C399AB
:105A380040F5125A7012594540FB780080081266EA
:105A4800417405125B33E8C39940F375E195900DF5
:105A58000F74D0F0A3740A125A8C12595F7415F09F
:105A68009003A27403025D1C90051A1259EE740487
:105A78004AF5D97800221259EB9004EAE0C433338E
:105A880054C0FA22125A967474F0A3740C22125A53
:105A98009A22125AA77474F0A3740C125AA72212ED
:105AA80059A1F0A322125AB122F0900D1D7474F07E
:105AB800A3740C125A9A7474F0A3740C12599DF0C2
:105AC80022C082C0831258E224061260E2E4025720
:105AD800BC74F71217819003D0E0F875F003A4C8DE
:105AE800AAF02AF974D228F8740339F9E82405FAD7
:105AF800E9126590A3A3A3A3A3A3A3A3A3126691EA
:105B0800A3A3A3A3A3A3A3E024FFF8A3E034FFF96E
:105B18008A828B83E8F0A3E9F0025D567F060218BB
