:020000040000FA
:060000000201070220D8F6
:03002B0002254D5E
:0300330002252F74
:03003B0002256E2D
:030043000224E3B1
:0300530002214E39
:03006B0002250962
:10008300021F87E5C754F84401F5C7790122000030
:100093000080FB120086B900030200F1E4792178A5
:1000A30008B800028004F709D8FCE479297802B87B
:1000B30000028004F709D8FCE490028178C2790A2F
:1000C3008002F0A3D8FCD9FA7A427B0C90013778EE
:1000D300D279038015E493A3AD82AE838A828B83A6
:1000E300F0A3AA82AB838D828E83D8E9D9E7758288
:1000F300A57583FF740112011975829175830074CC
:100103000012011975D00075813F751881751902A8
:10011300759F00020096C09FF59FE473D09F22D085
:1001230083D082C09FE493C0E0740193C0E0740263
:1001330093F59F22FF0000B4000028002800283018
:1001430075A000A000A000A00000080008E001F0D6
:10015300001000100010001000100010005000509C
:1001630000500010001000D0070000000000000F36
:100173000001000500307507001000010081FF0039
:10018300000000FF060624060C06FF020202080216
:100193005000A0000000E80302B493010000A19303
:1001A30002BE93010000990C02AC93010000B3025C
:1001B30002BE930100009A0C02AA93010000C90237
:1001C30002BE930100009B0C02B093010000CB021E
:1001D30002BE930100009C0C02B693080000CC02FF
:1001E30002BE930100009D0C02BA930100009E0C15
:1001F300FF0100FF2002B493010000A49302BE9309
:10020300010000020D02D693000000000002AE932D
:1002130003000019034E0C4E0C4E0C4E0C4E0C4EAC
:100223000C4E0C4E0C4E0C4E0C4E0C4E0C4E0C2425
:100233000F3C0F1E0FFFFF02020202020202020224
:10024300010D000000100102B493010000A7930206
:10025300BE93010000450D02D2930100005D070229
:10026300BE93010000460D02D0930100005A920292
:10027300BE93010000470D02CE93010000309202AD
:10028300BE93010000480D02CC930100003191029E
:10029300BE93010000490D02CA9301000079910247
:1002A300BE930100004A0D02C69301000043910270
:1002B300BE930100004B0D02C4930100006791023D
:1002C300BE930100004C0D02C2930100003E920256
:1002D300BE930100004D0D02C0930100004E0D01BD
:1002E300E803053F100AFF00013075030201060011
:1002F30000000000000000000000000000000000FB
:100303000000000000000000000000FFFF06008066
:100313000CE803080964422E446576730512500005
:100323002003020A0002010611060000000000007B
:10033300010001000100DBFF10F564422E446576E5
:10034300730000000000000000000000000000E651
:10035300130000EC1302307844423031000230784D
:100363004442303200083078444230330010307851
:100373004442303400083078444230350002B493AC
:100383000100009E9302BE93010000630E02DA9304
:100393000100000E0C02E493010000640E02BE9300
:1003A3000100006B0E02DC93010000220C02E493B7
:1003B3000100006C0E02BE93010000730E02DE9377
:1003C300020000230C02E493010000740E02BE93AA
:1003D3000100007B0E02E093000000370C02AE9395
:1003E300030000380C02E4930100007C0E02BE936C
:1003F300010000830E02E2930200003E0C02E4932C
:10040300010000840E1201222B9E03120122429E40
:1004130003120122739E03120122AE9E03120122D4
:10042300D89E03120122029F03120122199F031275
:100433000122309F03120122479F03120122709F62
:1004430003120122839F03120122999F03120122A7
:10045300AC9F03120122D39F0312012201980212BF
:1004630001220599021201223D990212012260998B
:10047300021201226B99021201228E9902120122A9
:100483009D9A02120122729B02120122ED9B02121B
:100493000122759C02120122B09C02120122E79CE8
:1004A30002120122759D021201224E9E02120122A6
:1004B300AE9E02120122B99E02120122389F02123D
:1004C30001223B9F021201223E9F02120122CD9F75
:1004D30002120122D09F0212012200A00212012265
:1004E3002AA00212012218A102120122CAA1021299
:1004F300012205EE021201222DEE021201225BEE11
:100503000212012292EE02120122F0EE02120122E5
:100513003BEF0212012286EF02120122C6EF021202
:1005230001220CF0021201223AF002120122F7F02A
:100533000212012201F1021201220EF10212012222
:1005430041F1021201220DF20212012219F20212EA
:10055300012231F2021201223BF202120122E1A82E
:1005630003120122EFA80312012207A90312012299
:100573001FA903120122ECB40112012298B5011242
:10058300012213B60112012234B70112012270B7FE
:100593000112012219B80112012200B9011201222C
:1005A30064BA01120122BBBA011201223CBB01123F
:1005B30001222CBC0112012279BC01120122FFBCD1
:1005C3000112012231BD0112012245BF0112012294
:1005D30087BF01120122A5BF0112012228C0011207
:1005E3000122FCC001120122C4C101120122F8DC64
:1005F30002120122CBDD0212012274DE0212012259
:10060300C7DE0212012277DF0212012203E0021287
:100613000122EFE0021201221EE10212012231E265
:100623000212012279E2021201224EE30212012296
:100633008AE302120122A6E30212012238AC03125A
:1006430001220080031201221680031201223C8042
:100653000312012258810312012262810312012233
:100663009782031201228F83031201221BE40212D9
:1006730001224BE5021201227EE502120122C8E5A6
:10068300021201228FE702120122FDA401120122AC
:1006930067A501120122C6A601120122D6A60112E4
:1006A300012203A7011201225AA70112012203A862
:1006B300011201220AA901120122D4A90112012265
:1006C30034AB0112012277AB011201221CAC0112DF
:1006D300012269AC011201228FAC011201229DAEED
:1006E30001120122A2AE01120122A7B001120122BE
:1006F300F4B00112012267B1011201229AB1011271
:1007030001223CB201120122E5B2011201221DB302
:100713000112012220B30112012268B30112012246
:10072300A8B301120122FFB301120122EE960312B4
:1007330001220697031201224E97031201226497A6
:1007430003120122AB9703120122BF980312012265
:100753004C9903120122979903120122E0250012FA
:100763000122EC25001201222726001201226C2609
:10077300001201222C2700120122B22700120122AB
:100783001728001201224328001201227C2800129C
:100793000122BA2A001201229E2C00120122842E69
:1007A30000120122C72F001201221532001201226A
:1007B3002733001201227234001201228235001203
:1007C30001229F3500120122DA3500120122FC3585
:1007D300001201225F3600120122203B0012012287
:1007E300B53B00120122063C001201222D3C0012EF
:1007F30001227F3C001201229D3C00120122F73CA2
:1008030000120122E03D00120122563F0012012294
:10081300DA3F001201228A79001201229479001230
:100823000122D77900120122F27900120122827A81
:1008330000120122AA7A00120122E77A0012012291
:100843001E7B00120122477B00120122BC7B001297
:100853000122D17B00120122E67B00120122177CC8
:10086300001201222B7C00120122507C0012012273
:100873008A7C00120122B67C00120122EE7C001257
:1008830001224D7D00120122CC7D00120122F77D51
:1008930000120122407E001201226A7E0012012210
:1008A300957E00120122BD7E0012012200800212F9
:1008B30001222E80021201227C81021201225C821B
:1008C300021201227B8202120122F8820212012209
:1008D3003B830212012291840212012252850212E9
:1008E3000122D987021201227A8802120122708919
:1008F300021201226D8A02120122C78B0212012207
:10090300528C0212012286A703120122EFA70312BF
:10091300012243A8031201226AA8031201229BA801
:1009230003120122C2F2021201222FF30212012248
:1009330076F3021201228EF4021201228AF50212C8
:1009430001226DF6021201227EB502120122C0B508
:100953000212012292B6021201226BB70212012285
:1009630065B80212012247B902120122B0B902127C
:10097300012266BA02120122DABA0212012246BB2E
:10098300021201226FBB02120122E9BB02120122F1
:1009930082BC02120122E7BC02120122FCBC021239
:1009A300012242BD021201225BBD02120122C0BD1F
:1009B30002120122C3BD02120122F5930312012286
:1009C3001D94031201225B94031201221995031251
:1009D30001228095031201229C9503120122C495E2
:1009E30003120122F495031201220396031201223A
:1009F300809603120122A69603120122E8930112A4
:100A03000122869501120122A19701120122DD978D
:100A1300011201220A9801120122EF980112012208
:100A23003699011201227A99011201228C9901123D
:100A33000122CC9901120122F99901120122449A4F
:100A430001120122849A01120122B29A0112012297
:100A5300049B01120122949B01120122329E011276
:100A6300012248A00112012286A00112012217A22D
:100A7300011201225CA201120122D3A2011201225E
:100A83001DA30112012243A3011201222BA401126F
:100A93000122D2A40112012205AC0212012284AC6C
:100AA3000212012246B20212012255B3021201229E
:100AB300BDB40212012254B5021201226454001281
:100AC3000122AD5400120122DA54001201220D5505
:100AD300001201221A55001201222655001201228A
:100AE3003855001201221F56001201227D560012B2
:100AF3000122B25600120122F55700120122425878
:100B030000120122665800120122D358001201225A
:100B13009159001201224A5A00120122B75A0012B7
:100B23000122695B00120122795B00120122005C41
:100B330000120122BF5C00120122EC5C00120122B0
:100B4300655D00120122C25D001201220C5E0012DB
:100B53000122A25E001201226D5F001201222260B7
:100B630000120122976000120122F8600012012294
:100B73006261001201229B61001201223D62001298
:100B830001224D63001201228D6300120122AA6328
:100B930000120122C9630012012210640012012213
:100BA300356400120122626400120122DC64001227
:100BB30001221D6500120122416600120122F16625
:100BC30000120122486700120122B26700120122BB
:100BD300CB67001201223BA2021201228EA2021253
:100BE30001229AA2021201226FA30212012296A3EA
:100BF30002120122D1A3021201223DA402120122F8
:100C030079A402120122B2A402120122CAA402127E
:100C130001221FA50212012238A50212012281A579
:100C23000212012294A502120122AEA50212012290
:100C3300C4A502120122F7A6021201223EA8021243
:100C4300012240A9021201223AAA02120122F8FF4C
:100C5300011201225DEE011201228DEE0112012229
:100C630055F201120122ACF30112012275F40112B3
:100C73000122F5F501120122C6F60112012203F742
:100C83000112012226F70112012264F70112012247
:100C93006DF701120122B7F701120122C1F7011208
:100CA30001226BF80112012244F90112012298F981
:100CB30001120122FAF9011201224DFA0112012255
:100CC3007CFA01120122B9FA01120122FD67001216
:100CD3000122646B001201226A6B00120122EC7084
:100CE300001201226575001201223B7900120122D4
:100CF300988A031201220E8B03120122248B031202
:100D03000122658B031201229F8B03120122188C8F
:100D130003120122538C03120122C68C03120122F7
:100D2300048D031201220D8D03120122198D03126A
:100D33000122358D03120122608D03120122768D6B
:100D430003120122BA8D0312012242E90212012287
:100D530055E9021201226FE90212012298E90212F7
:100D63000122DBE9021201221AEA0212012258EAE5
:100D730002120122BDEA02120122D2EA0212012268
:100D8300DDEA02120122EAEA0212012201EB021257
:100D930001220FEB021201221AEB0212012226EBAF
:100DA3000212012239EB0212012244EB0212012248
:100DB30067EB021201220EEC021201221EEC021258
:100DC300012238EC0212012255EC0212012271ECCD
:100DD3000212012296EC02120122A1EC021201225C
:100DE300B6EC02120122CAEC021201222BED02120E
:100DF300012231ED0212012237ED021201223DEDF3
:100E03000212012255ED0212012288ED0212012283
:100E13004ED201120122D2D20112012281D3011238
:100E23000122E0D40112012201D701120122EDD7E0
:100E33000112012222D80112012244D801120122F7
:100E4300F3D801120122EBDA0112012214DB0112A1
:100E53000122A6DB01120122D8DB01120122E5DB0C
:100E6300011201223CDC0112012262DC0112012287
:100E7300CFDE01120122D2DF011201222AE0011288
:100E83000122DDC301120122E7C401120122CEC5F2
:100E930001120122D8C501120122FAC50112012251
:100EA30006C6011201229FC701120122CEC70112F9
:100EB3000122EAC80112012243C901120122A9CA6F
:100EC3000112012288CB01120122E4CB011201227B
:100ED30051CC011201228CCC01120122CBCC011284
:100EE300012284CF011201229ECF011201222AD0B6
:100EF3000112012238D00112012291D001120122E4
:100F03009FD00112012212D10112012276D10112C6
:100F13000122C0D101120122D38C02120122F58CCD
:100F2300021201221B8F02120122309202120122AD
:100F3300489302120122FB9302120122DD94021252
:100F43000122E59F031201220AA0031201227CA0C1
:100F53000312012238CE0212012241CE02120122D3
:100F63004ACE0212012221CF02120122D2D0021252
:100F7300012208D10212012242D10212012278D1A8
:100F830002120122B2D102120122E6D1021201227F
:100F930012D2021201225BD20212012295D2021254
:100FA3000122DED20212012236D3021201226BD3B6
:100FB30002120122C6D30212012200D4021201221C
:100FC30051D40212012287D402120122C1D4021287
:100FD3000122EFD40212012212D5021201226EAABB
:100FE300031201229AAA03120122F5AA0312012273
:100FF300FFAA031201220FAB0312012217C602122A
:10100300012221C6021201225FC602120122A8C6D2
:1010130002120122E2C6021201223CC7021201227D
:101023005DC702120122FFC90212012208CA02127D
:10103300012259CA0212012282CA021201228CCA57
:1010430002120122F8CA021201228CCB02120122DF
:10105300E0CB0212012216CC021201229DCC021215
:101063000122DDCC0212012215CD0212012227CD6D
:101073000212012246CD021201224FCD0212012299
:101083000ECE021201229983031201228E840312CF
:101093000122A88403120122B98403120122EE86DD
:1010A300031201222C9C03120122629C03120122CF
:1010B300989C03120122F19D03120122BCAC03127E
:1010C3000122D2AC03120122DCAC0312012226ADB1
:1010D3000312012294FB01120122ADFB0112012232
:1010E30051FC0112012291FC01120122AAFC0112FE
:1010F3000122DEFC011201222BFD011201225FFD00
:1011030001120122A1FD0112012212A603120122E2
:101113003BA60312012264A603120122FFA60312B7
:10112300012241A703120122EA8D031201220F8E2D
:10113300031201223B8E03120122D3AD03120122BB
:10114300414000120122A54200120122574400121D
:101153000122494500120122CE45001201224C46CC
:10116300001201227946001201229D490012012238
:10117300174A00120122064B00120122404B0012B3
:101183000122804B001201223A4D001201228D4DA3
:1011930000120122D64D00120122444E00120122F8
:1011A300764E001201228E4E00120122A34F00122E
:1011B3000122B34F00120122E35000120122055114
:1011C300001201223B5100120122E05200120122BF
:1011D3001F53001201223F5400120122B8A9031227
:1011E3000122C9A9031201228AAD03120122C9AD4A
:1011F300031201229AAE0312012219AB0312012238
:1012030029AB0312012241AB03120122A7AB031244
:101213000122F2FE0212012277FF02120122DDFFF8
:10122300021201229AA403120122C3A4031201226F
:101233002EA5031201227FA503120122D8A50312B2
:1012430001222FF70212012266F702120122D6F7BA
:1012530002120122EBF70212012234F902120122D7
:10126300FAF90212012219FA0212012240FA0212B9
:10127300012275FA021201228DFA02120122DEFA0C
:1012830002120122ADAE03120122298703120122A9
:10129300B98703120122378803120122C08803127F
:1012A3000122558903120122DF8903120122E989F0
:1012B30003120122F889031201220E8A031201226A
:1012C300218A03120122818A03120122958A0312C1
:1012D3000122B1AB031201221BAC031201222DAC7C
:1012E3000312012213A30312012268A30312012292
:1012F300D6A30312012246A403120122C1990312A9
:101303000122EB9903120122C09A03120122B49B1A
:1013130003120122E7BD02120122A4BE021201221E
:10132300DFBE0212012207BF0212012269BF0212AD
:101333000122B5BF021201220EC0021201229FC078
:1013430002120122A1C1021201225EC30212012272
:10135300E0C30212012245C4021201225CC402123C
:1013630001226CC502120122AAC50212012278E0F1
:101373000112012202E4011201228AE50112012273
:10138300E1E50112012200E6011201227EE60112CB
:1013930001221CE80112012200E901120122EAECF8
:1013A30001120122BAED01120122FB900312012264
:1013B3002A91031201224091031201228891031200
:1013C3000122CA91031201223592031201220493CE
:1013D30003120122709303120122B2D502120122D9
:1013E3000BD802120122B2D80212012270DA0212C1
:1013F3000122E5DA0212012257DB021201229FDBEE
:101403000212012267DC02120122D0DC0212012245
:1014130013FB0212012258FB0212012275FB021276
:10142300012232FC0212012298FC021201226EFDFB
:1014330002120122B9FE021201228AA10312012221
:10144300AEA1031201229BA20312012250AE03128A
:1014530001221AAE03120122D67F001201227CAEB2
:1014630003E066701008A3E066700A08A3E06670E4
:101473000408A3E06622C3E7960809E7960809E78C
:10148300960809E79622C3E09608A3E09608A3E02E
:101493009608A3E09622C008C3E096F50808A3E0E7
:1014A30096420808A3E096420808A3E09645087010
:1014B30001D3D00822080808EAC0E0EBC0E086F0B8
:1014C300E7A4FA180986F0E7A42AFA180986F0E7D0
:1014D300A42AFA180986F0E7A42AFA1986F0E7A4E1
:1014E300FBE5F02AFA190886F0E7A42BFBE5F03AAE
:1014F300FA190886F0E7A42BFBE5F03AFA18180965
:1015030086F0E7A4C5F02BFBE43AFA1908E7C5F027
:10151300C6A426F6E5F03BFBE43AFA1886F0E7A406
:10152300F6E5F00826F6E43B08F6E43A08F6D0E0E0
:10153300FBD0E0FA22E4CFC0E0E4CEC0E0E4CDC0CB
:10154300E0E4CCC0E075F020E626F608E633F608C2
:10155300E633F608E633F6181818EC33FCED33FDE2
:10156300EE33FEEF33FFC3EC9709ED9709EE9709CE
:10157300EF97191919400FFFEC97FC09ED97FD0937
:10158300EE97FE191906D5F0BFECF709EDF709EE52
:10159300F709EFF7191919D0E0FCD0E0FDD0E0FE10
:1015A300D0E0FF226016080808C6C313C618C61386
:1015B300C618C613C618C613C6D5E0EA22700908B2
:1015C3000808226016181818C6C333C608C633C6DF
:1015D30008C633C608C633C6D5E0EA22E627F608AE
:1015E30009E637F60809E637F60809E637F622E092
:1015F30026F608A3E036F608A3E036F608A3E0369D
:10160300F622E026F008A3E036F008A3E036F0085F
:10161300A3E036F022C3E697F60809E697F6080931
:10162300E697F60809E697F622C3E096F008A3E0EA
:1016330096F008A3E096F008A3E096F022E056F6B1
:1016430008A3E056F608A3E056F608A3E056F622F0
:10165300E056F008A3E056F008A3E056F008A3E034
:1016630056F022E0F608A3E0F608A3E0F608A3E0AC
:10167300F622E6F008A3E6F008A3E6F008A3E6F0F6
:1016830022E0FAA3E0FBA3E0FCA3E0FD22EAF0A33F
:10169300EBF0A3ECF0A3EDF022E0F8A3E0F9A3E074
:1016A300FAA3E0FB22E8F0A3E9F0A3EAF0A3EBF04E
:1016B30022CAC0E0E6F0A308DAFAD0E0FA22CAC0F0
:1016C300E0E0A3C582CCC582C583CDC583F0A3C5A5
:1016D30082CCC582C583CDC583DAE6D0E0CA22C3F6
:1016E300E498F8E499F91217238026C3E49AFAE4FC
:1016F3009BFBE920E7E9121723E498F8E499F92220
:10170300C3E498F8E499F9121723E498F8E499F9F3
:10171300C3E49AFAE49BFB22EB20E7CFE920E7E05E
:10172300B90010BB0008E88AF084F8AAF022E4FBB1
:10173300C8FA22EB70227B10C833C8C933C93350AF
:1017430007C39AC3DBF280069A50012ADBEAC83347
:10175300F4C8C933F4C9FA2275F008E4C833C8C918
:1017630033C933C99AC99B5004C92AC93BD5F0EC84
:10177300FBC833F4C8E4C9FA22600D08C6A2E71314
:10178300C618C613C6D5E0F322600C08C6C313C639
:1017930018C613C6D5E0F422700422600D18C6C320
:1017A30033C608C633C6D5E0F41822251810AF088F
:1017B300F518400C15198008F51840021519D2AF19
:1017C3002200C0D0251810AF08F518500C05198059
:1017D30008F51850020519D2AFD0D0222518F5828A
:1017E30010AF08F518400C15198008F518400215BC
:1017F30019D2AF851983222518F582E43519F583AB
:10180300222518F8E43519F9222518FAE43519FBCD
:10181300222518FCE43519FD22E4732518C582C07E
:10182300E0E51934FFC583C0E0E518C3958224F8C9
:1018330010AF0885831985821880088583198582EE
:1018430018D2AFCEF0A3E520F0A37808E608F0A302
:10185300DEFAEFF0A3E58124FAF8E608F0A3E60840
:10186300F0A3E608F0A30808E608F0A3E608F0A34F
:1018730015811581D0E0FED0E0F815811581158121
:10188300E8C0E0EEC0E0222518C582C0E0E51934C7
:10189300FFC583C0E0E518C3958224F910AF08851E
:1018A30083198582188008858319858218D2AFCE63
:1018B300F0A3E520F0A37808E608F0A3DEFAEFF042
:1018C300A3E58124FBF8E608F0A3E608F0A30808E3
:1018D300E608F0A3E608F0A315811581D0E0FED059
:1018E300E0F815811581E8C0E0EEC0E02285198398
:1018F300851882E0A3FEE0A3F5207808E0A3F608AC
:10190300DFFAE0A3FFE0A3C0E0E0A3C0E0E0A3C0F0
:10191300E0E0A3C0E0E0A3C0E010AF088582188533
:1019230083198008858218858319D2AFD083D0822A
:1019330002011F851983851882E0A3FEE0A3F52029
:101943007808E0A3F608DFFAE0A3FFE0A3C0E0E035
:10195300A3C0E0E0A3C0E0E0A3C0E010AF0885822D
:10196300188583198008858218858319D2AFD0839F
:10197300D08222C0D02518C582C0E0E51934FFC546
:1019830083C0E0E518C3958224F310AF088583195B
:101993008582188008858319858218D2AFC8F0A381
:1019A300E9F0A3EAF0A3EBF0A37908E709F0A3D8E1
:1019B300FAECF0A3EDF0A3EEF0A3EFF0A3D0E0F088
:1019C300A3D0E0F0A3D0E0F0A3E520F0A3E5F0F08E
:1019D300A322851983851882E0C0E0A3E0F9A3E080
:1019E300FAA3E0FBA37808E0F608A3DFFAE0FCA380
:1019F300E0FDA3E0FEA3E0FFA3E0C0E0A3E0C0E0BE
:101A0300A3E0F5D0A3E0F520A3E0A3F5F010AF0821
:101A13008583198582188008858319858218D2AF3A
:101A2300D082D083D0E0F8D0E03274048006740210
:101A330080027401C0E0F4041217DFD0E01216B480
:101A4300227404800474028000CCC0E0EDC0E0E5A1
:101A530018C39CCCAD1950011D10AF068C188D19FD
:101A630080068C188D19D2AF1216C1D0E0FDD0E0DC
:101A7300FC22D083D082E9C0E0E493A3C386F0C5FF
:101A8300F095F0F908E493A386F0C5F095F0700B98
:101A9300E493A3C3994005E9048002A3E475F0022B
:101AA300A42582F582E5F03583F583D0E0F9E4934C
:101AB300A3C0E0E493C0E022D083D082ECC0E0ED89
:101AC300C0E0E493A3FCE493A3FDED4C600D121B73
:101AD30007EC24FFFCED34FFFD80EFE493A3FCE46B
:101AE30093A3FDED4C600D121B46EC24FFFCED347B
:101AF300FFFD80EFD0E0FDD0E0FCE493A3C0E0E481
:101B030093C0E022C0E0C3E493960874019396184F
:101B1300400FE493667008087401936618700070B0
:101B230019A3A3C3E49396087401939618A3A3403F
:101B33000DD0E0D0E0D0E0021AF7A3A3A3A3A3A3A0
:101B4300D0E022C0E0C0F088F0E493667008087427
:101B5300019366187000A8F0A3A3700BD0F0D0E037
:0E1B6300D0E0D0E0021AF7A3A3D0F0D0E02229
:101B740074F512188AEAFEEBFFEE2434F8EF340011
:101B8400F988088909EE2435121CA0F8EE243712CE
:101B94001CA0F50AEC850AF0A4FCAAF0850AF0ED75
:101BA400A42AFDE82CF8E43DF97A257B00121723DA
:101BB400EA850882850983F074075AF87401B8002D
:101BC400028004C333D8FCFBEA131313541FF8EE4A
:101BD40028F8EF3400F9E8245DF582E9121CA35BD0
:101BE4006003EA801CEE2436121CA0F5F0EA84A8F7
:101BF400F0EE28F8EF3400F9E82438F582E9121CF5
:101C0400A3F97F0402193674F512188AEAFEEBFF71
:101C1400EE2434121CA0C0E0EE2435F582EF34002B
:101C2400F583D0E0F08E828F83A3A3A3A3A3E0FA6D
:101C3400A3E0FB8E828F83A3A3A3A3A3A3A3E0FCAF
:101C4400A3E0FDECC39AF50AED9BF50BEE247FF5BA
:101C540008EF3400F509850882F583E06401702BF0
:101C6400EE2480F582EF3400F583121A48121CA981
:101C740074021217C4E960137CDC7D04EEFAEFFBF6
:101C8400120B76850882850983E4F0AC0AAD0BEE6D
:101C9400FAEFFB121B741224CF021C06F582EF34F8
:101CA40000F583E022C082C083851882851983E011
:101CB400F8A3E0F9C3EA9CEB9D5010C3EC98ED99AE
:101CC400401BC3EA98EB995014800EC3EA98EB9931
:101CD4004007C3EC98ED994004790180027900D063
:101CE40083D08222EAC39CFAEB9DFB2274ED121886
:101CF4008A9003A2E064086005E06407702C906198
:101D0400C8E060269003D0E0F874FF68601CE875B2
:101D1400F003A4C8AAF02AF974D228FE740339FF88
:101D24008E828F83A3A3A3E070057900021E90EE38
:101D34002468F510EF3400F511906060E08510829E
:101D4400851183F0750A45750B0575080075090042
:101D5400E5D914F50EE5D95403F50F601CEE248281
:101D6400F50CEF3400F50D7403650F6058E50E6053
:101D740013EE2467121CA0700B793DEEFAEFFB12F0
:101D84000B9A80A6900540E064016026850C82854C
:101D94000D83E06004780480027800850E08E5086D
:101DA400C398FA95E0FB120A0E8A088B09EA4509E2
:101DB4007006120DF2021D2E850C82850D83E070D3
:101DC400048A0A8B0B78008016E5D9C0E08812E5F6
:101DD4000A2512F582E50B3400F583D0E0F008E81B
:101DE400C3950E40E4850C82850D83E0602874FC65
:101DF400250EF50E780A121A31AC0EA90FEEFAEF81
:101E0400FB120C4874021217C4E9700AAA08AB0941
:101E14001212EA021D7D7403650F6058850E0C755D
:101E24000D00780C121A31AC0AAD0BAA08AB0912DA
:101E34000C0C74021217C4851082851183E0F874A7
:101E440080687005750C7F8002880CE50CF50A78B3
:101E54000A121A35E50FF50A780A121A35A90EACDA
:101E640008AD099003D0E0FA7B001208A6740212B0
:101E740017C480139003A2E06408600BAC0AAD0B96
:101E8400EEFAEFFB120CDE120DFE79017F0C021943
:101E94003674F312188A74FC1217AEEAFEEBFF894B
:101EA40008A2AFE433F509C2AFEE2463F50AEF34B8
:101EB40000F50B8010AA0AAB0B120BC41212EA90A5
:101EC40004E3E004F0850A82850B83E0F8A3E0F9DB
:101ED400E849602FE82402FAE93400FBEA2402F519
:101EE4000CEB3400F50D780C121A318A828B83E0E6
:101EF400FCA3E0F9EEFAEFFB120BB874021217C45C
:101F0400E960B29004E3E060579004E4E0F89004E0
:101F1400E3E0C398500C7402650870449004E5E053
:101F2400603E8E828F83A3A3A3A3E08518828519C4
:101F340083121F7474021217FAE8121F749004E2D9
:101F4400E028F074021217FAAC82AD8385188285FA
:101F54001983AA82AB8379011208B29004E3E4F0F6
:101F6400E509A2E092AF74041217C47F0602193681
:101F7400F0A3E4F09004E3E0F822000085218785D3
:101F840022C622C0E074EF121976A2AFE433FEC277
:101F9400AF759B00906182E0A2E05012E591A2E04F
:101FA400500C7591FE740165217003121CF0E0A2BF
:101FB400E55051E591A2E5504B7591DF9003A2E005
:101FC40064076005E0640870237401652170357945
:101FD400019003D0E0FA75F003A4CAA8F028FB74BA
:101FE400D22AFA74033BFB121E958018E0640D702C
:101FF400139003C4E004F064287002E4F07A00E073
:10200400F9120E04906182E0A2E640030220AEE5DC
:1020140091A2E640030220AE7591BF9003A2E06452
:10202400057008120D20120D2C8003120D26752147
:1020340000120D92E99003A3F07900120D86120AA2
:10204400E07A017B009003A1E0F912105C90780320
:10205400E064427055900544E014F0704DC2AF1234
:10206400206600782AD0E0F618D0E0F6E59F540701
:1020740070057509FF800375097FC4C0E07829E6FF
:10208400F50808E65509F509740B780812178CD081
:10209400E02508F8906270E0A2E740F8E8C33390C6
:1020A4006272F0906270E0D2E0F0906181E0A2E3AD
:1020B4005009E5E9A2E3500375E9F7A3E0A2E7506C
:1020C40009E591A2E7500375917FEEA2E092AF7FFC
:1020D400040219D5C0E0C0D0C082C083906183E0FF
:1020E400A2E05009E5BFA2E0500375BFFEE0A2E103
:1020F4005009E5BFA2E1500375BFFDE0A2E250091B
:10210400E5BFA2E2500375BFFBE0A2E35009E5BFBF
:10211400A2E3500375BFF7E0A2E45009E5BFA2E4CF
:10212400500375BFEFE0A2E55009E5BFA2E55003F7
:1021340075BFDFE0A2E65009E5BFA2E6500375BF14
:10214400BFD083D082D0D0D0E032C0E074F2121974
:1021540076E5A7A2E4500FE5A1A2E4500953A7EF46
:1021640075A1EF1221A2E5A7A2E5500CE5A1A2E515
:10217400500653A7DF75A1DFE5A7A2E15009E5A149
:10218400A2E1500375A1FDE5A7A2E2500CE5A1A2CE
:10219400E2500653A7FB75A1FB7F010219D574F821
:1021A40012188A7521019003A2E0640670077A0070
:1021B4007B00120D08A2AFE433FED2AF9003A8E077
:1021C400640170187A207B009003A1E0F91210F8E2
:1021D4007A207B009003A1E0F9121062906182E002
:1021E400D2E6F0900541E0602185C6228016900376
:1021F400A7E064017008E5C654F84405F5C653BE6B
:10220400FC121F807401652160E4EEA2E092AF7FAE
:10221400010219368E238F24858228858327851809
:1022240082851983E0CEA3E0CF852882852783EBBE
:10223400C9EAC8EDCBECCA75F010C3E833C8E9337A
:10224400C9EA33CAEB33CBC3EA9EF526EB9FF525E7
:10225400B35004AB25AA26EC33CCED33CDD5F0DA5C
:10226400AE23AF242274F112188A8A088B098C0ACF
:102274008D0B90937A7808121640740F1217FA781F
:102284000C12166690937A780C1216407808790C22
:1022940012147990935650107808790C1216187805
:1022A400081214994014800E780C790812161878C4
:1022B4000C12149950047901800279007F080219E4
:1022C4003674ED12188A8A088B098C0A8D0B909348
:1022D4007A780812164074131217FA780C121666DC
:1022E40090937A780C121640780C7908121479407D
:1022F400117808790C121618AA08AB09AC0AAD0BB0
:102304008022751000751100751200751301781084
:10231400790C121618781079081215DFAA10AB116F
:10232400AC12AD137F0C02193690937A780812160A
:10233400668A828B8378081216537F0402193674D6
:10234400F512188A8C828D8378081216668A828B1D
:1023540083780812162C122397C3E098F0A3E0990F
:10236400122389401E90939678081216668A828BEF
:102374008378081216058E828F83E02420F0A3E070
:10238400344EF080A4F08E828F83C3E09420A3E0C7
:10239400944E22EA2404F8EB3400F9E8FEE9FF8CB9
:1023A400828D83A3A3A3A3E0F8A3E0F98E828F8395
:1023B4002274F512188AE9FE9004F7E0FAA3E0FB10
:1023C400EEC333F8E433F9741128F582749239F5C5
:1023D40083E02AF508A3E03BF5097808121A319046
:1023E400934A12168412221874021217C48A088B94
:1023F400098C0A8D0B741078081215A7AA08AB096A
:102404007F0402193674F112188A8A0C8B0D8C0E13
:102414008D0F740F1217FAE0FAA3E0FB7411121770
:10242400FAE0F508A3E0F5097808121A31EA240164
:10243400F508EB3400F509E4F50AF50B780C790896
:102444001214B890933E7808121666780C79081224
:1024540014B8AA0CAB0DAC0EAD0F122218740212F4
:1024640017C48B09EA450960047A0180027A00ECFA
:102474002AFCED3400FD74131217FAE0F8A3E0F916
:10248400E8FEE9FFECF8EDF97A717B021217238874
:10249400088909E4F50AF50B8E828F8378081216F1
:1024A40075ECF8EDF97A717B021217238A088B090F
:1024B4007405780812179B8E828F83A3A3A3A3E5C8
:1024C40008F0A3E509F07F08021936C082C083E949
:1024D400906000F0D083D08222C2AF02000022C0FC
:1024E400E074F2121976A2AFE433FED2AFC2C0E5B3
:1024F400D1A2E4500653D1EF1212CCEEA2E092AF77
:102504007F010219D5C0E074F2121976A2AFE43348
:10251400FED2AFE589A2E1500312123C758900C2D4
:10252400C5EEA2E092AF7F010219D5C0E074F212A9
:102534001976A2AFE433FED2AFE58BA2E0500312CA
:10254400123C758B00C2E880D8C0E0C0D0E8C0E07F
:10255400E9C0E0E5A8D2AFC2C7A2E7A2E792AFD034
:10256400E0F9D0E0F8D0D0D0E032C0E0C0D0E8C08C
:10257400E0E9C0E0C008C009C082C083A2AFE43370
:10258400F9D2AF9009D3E0F8A3E0687008539AFB3E
:10259400A374018025C2E99009D3E0F508740125EC
:1025A40008F074532508F582E43409F583E0F5C195
:1025B4009009D3E0C394804002E4F0E9A2E092AF32
:1025C400D083D082D009D008D0E0F9D0E0F8D0D0C0
:0325D400D0E03222
:1025D800FFFFFFFFFFFFFFFFC082C083E9900D01EF
:1025E800F002286F74F712181EE99002E1F07C19C6
:1025F8007D037AFF7BFF1207EC9002E274FFF0A3E1
:10260800F0A3E4F0A3F079051207749002E1E0F971
:102618001206967A0A7B081209C07F010218F07424
:10262800F412181E8A088B09EB548060309002E17E
:10263800E0F91210448A0A8B0BAE0AAF0BEE4F601A
:10264800138E828F83E064B0700312078CEEFAEF6A
:10265800FB121032AA08E5096480FB80047A007B2B
:102668000002283E74F212181E74FC1217AEEAFE1D
:10267800EBFFEE4F603874021217FAEEF0A3EF1278
:102688002AA3ECF0A3ED122AA3AA82AB8312069028
:10269800E9F508707374121217FA123657E50A45ED
:1026A8000B60658E828F8312271AEE4F70057508AE
:1026B8000280557A067B001210B08A0C8B0DA80C8C
:1026C800A90DE8497005750813803D88828983E45F
:1026D800122724A3A3EEF0A3EF123AF0E50AF0A321
:1026E800E50BF09002E71227AC9002E76017E0FCD8
:1026F800A3E08003EAFCEBFD8C828D831227AC708B
:10270800F38C828D8312357CA90874041217C402D5
:102718003CF2A3A3A3A3E0FEA3E0FF22F0A3F0886A
:102728008289832274F212181E890AE975F017A4A7
:10273800FEAFF09002E6E4F09002E41227AC600AE3
:102748001210B69002E4E4F0A3F0EEFAEFFB1210D8
:10275800B08A088B09EA4509602FEEFCEFFD790085
:1027680012101A9002E4E508F0A3E509F07B008056
:1027780008122796E4F0A3F00BEBC3950A40F2E5A4
:102788000A9002E6F0790080027913023CF2EB75B8
:10279800F017A4F8A9F09002E4E028FAA3E0398A37
:1027A80082F58322123312EA4B2274F412181E7532
:1027B8000800750900740C1217FA123AC4FEE9FFF2
:1027C800800CE5082401F508E5093400F509C3E59E
:1027D800089CE5099D503285080A85090B74037821
:1027E8000A12179BEA250AF8EB350BF988828983C8
:1027F800A3A3A3A3A3A3123657EE650A7003EF653C
:102808000B70BFE8FAE9FB80047A007B008027742C
:10281800F412181E7900EAA2E0501B7508F2750937
:10282800927808121A317C047D007A037B0D120716
:102838006E74021217C47F040218F0C082C083901D
:1028480002E7122876601C88828983A3A3E06A7055
:1028580003A3E06B8882898370E8A3A3A3A3123340
:102868000E80047A007B00D083D08202011F123DC3
:10287800C5E8492274EE12181E74FC1217AEEAFE5F
:10288800EBFF851882851983E4F0A3F0EE24021289
:102898003560EE2405122A91EE2404F50EEF122E6F
:1028A80076E024FE603924FC604624FE605224FE53
:1028B800605E24FE700302299624FE7003022A0E2D
:1028C80024FE7003022A1D24FE7003022A2C24FC15
:1028D8007003022A3B24FE7003022A4A022A8790C8
:1028E80003007417F0A3E4122AAB12040E022A871D
:1028F800851882851983AC82AD83120792022A5704
:10290800851882851983AC82AD83120798022A57ED
:10291800850C08850D0974021217FAAC82AD8385FF
:10292800088285098312330E1206B48A0C8B0DAC0B
:102938000CAD0DEC4D6042E4F50CF50D780C121A57
:1029480031750C00750D03780C121A31750C017570
:102958000D03780C121A3174081217FA121A4879F2
:10296800161233081207D474081217C4E9F50C704C
:102978000B123304120426800F750C01850882851A
:102988000983122A9912357C850C08022A5A740286
:102998001217FAAC82AD83850C82850D8312330E33
:1029A8001206B48A108B11AC10AD11EC4D60438542
:1029B8000C82850D83A3A3121A48751000751103A4
:1029C8007810121A317510017511037810121A3126
:1029D80074081217FA121A4879161233081207D413
:1029E80074081217C4E9F509700B12330412042C89
:1029F800800F750901850C82850D83122A9912357D
:102A08007C850908804C851882851983AC82AD8342
:102A180012079E803A851882851983AC82AD83128D
:102A280007A4802B851882851983AC82AD83120791
:102A3800AA801C851882851983AC82AD831207B0E1
:102A4800800D851882851983AC82AD831207B6E99B
:102A5800F508E50860298E828F83A3E06414601F5F
:102A6800850E82850F83E0900300122AA3123DC1D0
:102A780090030112357CE508A3122AAB120408EE74
:102A8800FAEFFB120732023468F50CEF3400F50D4B
:102A980022123DC585188285198322F08518828502
:102AA800198322F07C007D03850A82850B8312330B
:102AB800122274EE12181E74FC1217AE8A0A8B0BBF
:102AC8008C0E8D0FEA2405F508EB3400F5097C150A
:102AD8007D0079007A007B0312101AE5082402F5BC
:102AE8000CE509122A948518828519838582108538
:102AF80083117810121A31850882850983A3A3A34C
:102B0800A3122FBE121A31E5082405F510E5093481
:102B180000F5117810121A31850C82850D83123355
:102B2800181206AE74061217C48A108B11AE10AFB5
:102B380011E50A2402F50AE50B123563EE4F70031E
:102B4800022C80801774021217FA12330E888289B9
:102B580083EAF0A3EBF0900300E004F0900300E0B8
:102B6800C394054003022C80E4F510F51178101287
:102B78001A317510E97511027810121A317510EAB8
:102B88007511027810121A3174061217FA121A48BF
:102B98007910EEFCEFFD1233081207D474081217EF
:102BA800C4E9705E850882850983A3A3A3A3A3A3B0
:102BB800A3E0F89002E9E0687048122FBE121A31BB
:102BC8007CEA7D02E5082408FAE5093400FB1210C6
:102BD8001474021217C4E960298E828F83A3A3A3F9
:102BE800A312330E900300E0F51074027810121748
:102BF8009B74012510F58274033511F583EAF0A35F
:102C0800EBF074021217FA8582108583117810127E
:102C18001A3174021217FA121A48850C82850D832C
:102C2800123DD61206BA74041217C48A108B11AE5C
:102C380010AF11900300E0F51075110074027810C0
:102C480012179B74002510F874033511F9888289CE
:102C580083A31227AC7003022B44E82403F8E93459
:102C680000F9EE4F6003022B4D8882898374FFF0D0
:102C7800A3F0900300E004F0900300E0600A123330
:102C88000412041A7900800B85088285098312359D
:102C980073790A02346874EA12181E74FE1217AEA9
:102CA8008C128D13EA2405F50CEB123F4012271EF7
:102CB800750800750900EA2402F510EB3400F511D7
:102CC80085188285198385820A85830B780A121AEA
:102CD80031850C82850D83A3A3A3A3122E80121A1B
:102CE80031E50C2405F50AE50D123563780A121A48
:102CF80031850C82850D83123DD41206AE740612FE
:102D080017C48A0A8B0BEA450B7003022E31EA249A
:102D180004F50EEB122E7612271E8A828B83A3A34C
:102D2800A3E0F985108285118312330E12069CE9FF
:102D3800F5096003022E31E4F514F5157814121A1A
:102D4800317514E97515027814121A317514EA757B
:102D580015027814121A3174061217FA121A4879E1
:102D680013AC0AAD0B85108285118312330E12073E
:102D7800D474081217C4E9F5096003022E319002D1
:102D8800E9E0F8E5087009E02402900301F08017F3
:102D9800900301E0FCE82402FAE43400FBEA6C70DA
:102DA80001EB6003022E35850882AA82122FB594A2
:102DB80014122FAD5073850E82850F83E0C0E07426
:102DC800022A122E6DD0E0F00508850E82850F8349
:102DD800A3E0C0E085080A7402250A122E6DD0E02F
:102DE800F005089002E9122E80121A317CEA7D0261
:102DF80085080A7402250AFA74033400FB121002CB
:102E080074021217C49002E9E02508F50874FF6EF1
:102E1800700374FF6F6012EE24010EEF3400FFE5BB
:102E280008C394145003022CC8E50860131231F942
:102E380085108285118312330E12042079008014C4
:102E4800E509700375090A851282851383EEF0A3DC
:102E5800EFF0A90974021217C47F0E0218F0850852
:102E68000C7402250CF58274033400F583223400B7
:102E7800F50F850E82F58322123B032274EE121899
:102E88001E74FE1217AE8C0E8D0FEA2405F50CEB9E
:102E9800122A94750B00900300E4F0F50AEA240264
:102EA800F508EB3400F5098049900300E0FA900238
:102EB800E9E0F8122FB59417122FAD400D900300DA
:102EC800E0F87416C3989002E9F0122FBE121A3176
:102ED8007CEA7D0274012AFA74033400FB121002A2
:102EE80074021217C49002E9E0F8900300E028F099
:102EF800050AE50C2416F582E50D122E71E0F8E5B9
:102F08000AC3984003022F96900300E0C39416501A
:102F18007DE50AC333F8E433F9E50C28FEE50D39FD
:102F2800FF851882851983AC82AD838E828F8312C8
:102F3800330E1206B48A108B11AC10AD11EC4D7023
:102F480005750B018043E4F510F5117810121A315C
:102F58007510E97511027810121A317510EA751199
:102F6800027810121A3174061217FA121A487916D2
:102F780085088285098312330E1207D47408121744
:102F8800C4E9F50B7003022EB112356F80107C0076
:102F98007D0385088285098312330E120432A90B3A
:102FA800740202346AE99400C365D03322EA28F82F
:102FB800E43400F9E822E0F5107511007810227465
:102FC800EA12181E74FC1217AE8A0C8B0D8C128D27
:102FD80013EA2405F50AEB12356375080075090034
:102FE800E50A2402F510E50B3400F51174021217F6
:102FF800FA85820E85830F780E121A31850A82852A
:103008000B83A3A3A3A3123AAF121A31E50A24052E
:10301800F50EE50B3400F50F780E121A3185108283
:103028008511831235691233081206AE7406121719
:10303800C48A0E8B0FAE0EAF0FE50C2402F50EE519
:103048000D3400F50F80408882898374FFF00508ED
:10305800122E6674FFF005089002E9E0F50C750D74
:1030680000780C121A317CEA7D0285080C7402255E
:103078000CFA74033400FB12100274021217C49085
:1030880002E9E02508F508EE4F60718E828F83A370
:10309800A3A3E0F9850E82850F8312330E12069CD6
:1030A800E9F509EE2404122A91E97044E4F514F5CF
:1030B800157814121A317514E97515027814121A54
:1030C800317514EA7515027814121A31740812173A
:1030D800FA121A487911EEFCEFFD850E82850F83EE
:1030E80012330E1207D474081217C4E9F5096027C1
:1030F800850C82850D831231EF12357CE50870034B
:103108000231D51231F9850E82850F8312330E12E2
:10311800043879000231EA850882AA82EA9002E935
:103128007009E02404900301F08022E0F890030184
:10313800E0F514E82404FCE43400FDEC65147001A7
:10314800ED70C0122FB59412122FAD50B6850C82B7
:10315800850D83E0C0E074022A122E6DD0E0F005E0
:1031680008850C82850D83A3E0C0E0122E66D0E0AE
:1031780012320B85820C85830D780C121A31740477
:103188001217FA121A48851082851183123DD61239
:1031980006BA74041217C48A0C8B0DAE0CAF0D85D9
:1031A800080C7402250CF874033400F9EE4F700310
:1031B80002304F851882851983E08882898312320C
:1031C8000BA3E0C0E0122E66D0E002305DE5097086
:1031D8000375090A850A82850B831231EF12357C43
:1031E800A9097404022E5E123DC5851282851383D7
:1031F80022900301E0F5F0E50884900300F07C00DC
:103208007D0322F005088518828519832274EC1243
:10321800181E74FE1217AE8A088B098C0E8D0FEAE1
:103228002405FEEB3400FF851882851983AC82AD36
:10323800838E828F8312330E1206B48A0A8B0BEEAA
:103248002418122A91EA450B70030232DF12345116
:10325800503285188285198312330E1207C88A10D6
:103268008B11EA4511606B7912AC0AAD0B850882A7
:1032780085098312330E85108285118312181CE983
:10328800F50A7058E4F50AF50B780A121A318E829D
:103298008F83A3A3E0F50A780A121A31EE240312E9
:1032A8003560780A121A318E828F8312331812070A
:1032B800DA74061217C4E9F50A7021850C82850DA7
:1032C80083E0701F85088285098312330E12043E3D
:1032D8008011750A0E8009750A018004E50A6003E9
:1032E80012356F850C82850D83E0600479008002B9
:1032F800A90A74021217C47F0C0218F07C007D031F
:10330800850A82850B8312331222E0FAA3E0FB229E
:10331800E0FCA3E0FD85088285098312331222743C
:10332800EE12181E74FE1217AE8A088B098C0C8DCB
:103338000DEA2405FEEB3400FF750E008518828522
:103348001983AC82AD838E828F8312330E1206B43A
:103358008A0A8B0BEA450B700302343D1234515034
:103368003585188285198312330E1207C88A0E8B89
:103378000FEA450F605E7912AC0AAD0B85088285AD
:10338800098312330E850E82850F8312181CE9F506
:103398000E6003023440850882850983123657AAD5
:1033A8000AFB1207BC8A108B11A810A911E84970F2
:1033B8001E7AFF7BFF1207BC8A108B11A810A91177
:1033C800E849606C88828983E50AF0A3E50BF0750B
:1033D8000A008007750E0E805F050A9002E6E0FA83
:1033E800E50AC39A504AE50A75F017A4FAABF088C3
:1033F800828983A3A3E02AFAA3E03BFB8A828B831A
:10340800123569EC4D70D2750A17750B00780A12DF
:103418001A31EEFCEFFD12100274021217C4EEFC12
:10342800EFFD85088285098312330E120444801447
:10343800750E098003750E01123DBD850C82850D40
:103448008312357CA90E022FA8E5082402F508E5A9
:10345800093400F5098A828B83A3A3A3E0A2E5229D
:1034680074041217C47F0A0218F074EC12181E8C28
:10347800108D11EA2405F50CEB122A94750F00EA59
:103488002402F50AEB123563850A82F58312330E9E
:103498001207BC8A088B09EA45097003023555757D
:1034A8000E008071850C82850D83E06401704F8E5B
:1034B800828F83A3A3121A488E828F83A3A3A3A308
:1034C800E0F5127513007812121A31EE2405F51280
:1034D800EF3400F5137812121A311233081207DA92
:1034E80074061217C4E9F50F6014850C82850D83E4
:1034F800E4F0123DBD85108285118312357C7C175E
:103508007D007900EEFAEFFB12101A8E828F83E4A9
:10351800F0A3F0050E9002E6E0F8E50EC398501E01
:10352800E50E75F017A4F8A9F0850882850983A32C
:10353800A3123F4A123569EC4D60030234AC85088A
:103548008285098374FFF0A3F0E50F700612330833
:1035580012044AA90F0232FFF50AEF3400F50B22D4
:10356800A3E0FCA3E0FD228E828F83123DC5850E69
:1035780082850F83E8F0A3E9F022C082C08390021D
:10358800E2E06A7003A3E06B70067AE27B028004D3
:103598007A007B0002286FC082C08378008C828DFD
:1035A80083E06A7003A3E06B7010E875F003A4F879
:1035B800A9F0EC28FAED39FB8015088C828D83A3DD
:1035C800A3A3E06A7003A3E06B60DF7A007B0002CC
:1035D800286F74F612181E1207868A828B83E5827A
:1035E800458370067A007B008007A3A3A3A3123348
:1035F8000E023C6E74F212181EE9FE740E1217FACF
:1036080012365774101217FA123ACF8C828D83E053
:1036180064027036A3123DCBF50CA3E0F9A80C7434
:10362800026870037429697021750C02750D0078A1
:103638000C121A317808121A31780A121A31EEF976
:103648001207FE74061217C480027901023CF2E0E8
:10365800F50AA3E0F50B2274E812181E74FB121782
:10366800AEE9851882851983F08A168B17ECFEED72
:10367800FF751000741D1217FA123DC1741D121740
:10368800FA12357C8E828F83A3A3A3E0A2E4502D87
:10369800741D1217FA12330E1207C88A828B83E53B
:1036A8008245837003023AA0790AEEFCEFFDAA1660
:1036B800AB1712181CE9F5106003023AA3741F1225
:1036C80017FA123ACF74211217FA123657742312C6
:1036D80017FAE0F50EA3E0F50F8E828F83E06402FF
:1036E8006003023A4EA3123DC1850882850983A36F
:1036F800858212858313EE2406122A918882898393
:10370800E0FAA3E0F9EA2400F514E439F515781491
:10371800121ABB01000028012843370700022808B5
:10372800380328753700293F3901296A3902290BDE
:103738003903293F390429E9394E3AE50E450F6026
:1037480003023A49850C82850D83123AC4FAE9FBD3
:103758008A828B83E0850A82850B83123AFA121AD1
:10376800318A828B83A3E0FCA3E00239D3E50E45BE
:103778000F6003023A49850A82850B837401F012AF
:103788003AD7850882850983F07C007D008E828F78
:1037980083A3A3A3A3E02401FAA3E03400FB120649
:1037A800B4EA4B60418A828B83E02402F8850A825E
:1037B800850B83E028F0EA2404F8EB3400F98882CA
:1037C8008983E0851282851383123B0C123AFA1220
:1037D8001A318A828B83123568E5082403FAE509D1
:1037E8003400FB0239D8850A82850B83E02404F073
:1037F8007C047D007900AA12AB1312101A023AA3B6
:10380800E50E450F6003023A49123AD7FEA3E0FFDE
:10381800850A82850B837404F0EE85088285098306
:10382800F0EF851282851383F074031217FAAC82C5
:10383800AD83EEFAEFFB1206B48A0C8B0DEA450D48
:1038480070030238EC8A828B83A3A312271A7401AF
:103858001217FA85820E85830F780E121A317405B5
:103868001217FA121A487CFF7DFF1206BA74041266
:1038780017C48B0FEA450F7033850C82850D8312B0
:103888003AAF121A31850C82850D83A3121A487C2F
:10389800027D007AB27B931204E674041217C4E91D
:1038A800700A74011217FA74FFF0A3F08E828F83E6
:1038B800E064027039750C02750D00780C121A312B
:1038C8008E828F83123568E5082404FAE5093400EE
:1038D800FB12100274021217C4850A82850B83E05A
:1038E8002402800974011217FAEEF0A3EFF07401B4
:1038F8001217FA123AC0F074011217FAA3123AB862
:10390800023A43E50E450F6003023A49850C828569
:103918000D83123569AA16AB171207F2850A82853C
:103928000B837402F0EA850882850983F085128288
:10393800851383EB023A46E50E450F6003023A49C8
:10394800123AD7F8A3E0F9850A82850B837402F04E
:10395800E8850882850983F0E98512828513830248
:103968003A46850C82850D8312330E120FFCEAFC51
:103978008C82A882C3950EE4950F405FE8650E70AF
:1039880002E50F70047C008022851882851983E087
:10399800FAE50E2AFAE50F3400FBC3EA98EB940027
:1039A8005003E08005E50ECCC39CFCEC850A8285BB
:1039B8000B83F08C0A750B00780A121A31850C8279
:1039C800850D83E0250EFCA3E0350FFDAA08AB09A1
:1039D80012100274021217C4023AA3751007023AB1
:1039E800A3E50E450F705A850C82850D83123DC1E3
:1039F800850A82850B837407122726123AB8122784
:103A080026A3E0851282851383F0E82402FAE934BC
:103A180000FB8A828B83123AB8123AE7123AC0A3A3
:103A2800123AF0123AC9F0E82405F8E93400F988A6
:103A3800828983123AC9A3123B0CA3A3A3A3F080E3
:103A48005A75100B8055741D1217FA12330E12078F
:103A5800868A828B83E5824583603D123DC1880C4E
:103A6800890DE8450D6031780E121A31780A121A5C
:103A7800317808121A3174061217FAE0F9EEFCEFE1
:103A8800FDAA16AB17850C82850D8312181C7406C7
:103A98001217C4E9F510800375100EA910740512E9
:103AA80017C47F100218F0E0F50E750F00780E228B
:103AB800E085088285098322123B1622123DC5E85B
:103AC80022123B16A3A322E0F508A3E0F5092285FC
:103AD8000C82850D83E0F8A3E0F5838882E022A3B9
:103AE800A3F08A828B83A322F088828983A3A3A36D
:103AF800A322F08A828B83123B0322E0F50A750B1E
:103B080000780A22F088828983A3123B1622E08576
:103B18000882850983A3A32274EE12181E74FE126C
:103B280017AE8A0A8B0BECFAEDFB74141217FAE045
:103B3800F510A3E0F51174161217FAE0FE741812C6
:103B480017FAE0F50EA3E0F50F851882851983AC06
:103B580082AD831206B48A0C8B0DEA450D60498547
:103B6800188285198312330E1207868A828B83E5A1
:103B7800824583602FA3A3123ACFE5084509602444
:103B8800780E121A317810121A31EEF9AC0CAD0D0C
:103B9800AA0AAB0B85088285098312181C740412C3
:103BA80017C48006790E80027901022FA874F612D4
:103BB800181E74FE1217AE740C1217FA123AC48546
:103BC8001882851983F074011217FAE9F0E4F508F0
:103BD800F5097808121A317508027808121A317432
:103BE800041217FA8582088583097808121A311297
:103BF80007DA74061217C474021217C4806874F7BF
:103C080012181EEAFEEBFF89087C197D031207F2E1
:103C1800EA5402600BA908EEFAEFFB1206A880022C
:103C2800790102262274F612181E74FF6A70037452
:103C3800FF6B70168C828D83123C73E4F08C828D3E
:103C480083A3A3A3123C73A380181207C28A088B0C
:103C580009A808A909E849600D8882898374FF12B8
:103C68002724A3A3E4F07F020218F074FFF0A3F066
:103C78008C828D83A3A32274F612181E1207C28A9F
:103C8800828B83E58245836006A3A3E0FA80027AEB
:103C9800007B0080D174F212181E8A088B09ECFE92
:103CA800EDFF740E1217FAE0F50A1207C28A0C8BA0
:103CB8000DA80CA90DE8497026EEFCEFFD7AFF7BF4
:103CC800FF1207C28A0C8B0DA80CA90DE8497004D5
:103CD8007911801688828983E508F0A3E509F088C0
:103CE800828983A3A3E50AF079007F060218F0749D
:103CF800EE12181EEAFEEBFF8C088D09890C74146D
:103D08001217FA123DC174161217FA12330E750DF6
:103D180000E8496003023DB57402650C6003023D8A
:103D2800B074121217FA123DCBFCA3E0F9EC240090
:103D3800F50EE439F50FEAF4F8EBF4F9EC58F8E588
:103D48000F59F9E849705CE5082406F8ED3400F9E4
:103D5800880A890B8882F583123DD61207F28A10E9
:103D68008B11E50E65107004E50F65116042780E41
:103D7800121A31850A82850B83123DD61207F87410
:103D8800021217C4E9F50D7027780E121A3185084A
:103D980082850983A3A3123DD41208107402121756
:103DA800C4800D750D808008750D0D8003750D0B91
:103DB800A90D02346D8E828F83123DC522E0F8A3CF
:103DC800E0F922123DC588828983E022A3A3E0FCA2
:103DD800A3E0FDEEFAEFFB2274E812181E74E71256
:103DE80017AE851882851983EAF0A3EBF08C168D3F
:103DF80017890E75080075090074311217FAE0F575
:103E080012A3E0F51374331217FAE0F514A3E0F5E2
:103E18001574351217FAE0F50FE50975F003A4F8E3
:103E2800A9F0851882851983123F4AE0F47003A32C
:103E3800E0F47003023F2DEE2402F50CEF123F4030
:103E4800E07003023F2D85160A85170B780A121AAF
:103E580031AC14AD15AA12AB1312077A74021217FB
:103E6800C48A0A8B0BEA450B7003023F2DE4F51058
:103E7800F5117810121A3174061217FA8582108516
:103E880083117810121A3174091217FA8582108575
:103E980083117810121A31851282851383A3A3A384
:103EA800A3121A487914AC0AAD0B8E828F83123391
:103EB8000E1207D474081217C4E97069850A82853E
:103EC8000B83A3A3A3A3123DC174021217FA1235E0
:103ED8007C850C82850D83E0A2E05018A90E74023F
:103EE8001217FAAC82AD838E828F8312330E1206BC
:103EF800CCE94208850C82850D83E0A2E15026E5D5
:103F08000FF50A780A121A35A90E74031217FAACBB
:103F180082AD838E828F8312330E1206C67401120D
:103F280017C4E942080509E509C394025003023E93
:103F380021A9087419023AA73400F50D850C82F5F9
:103F48008322E028FEA3E039FF8E828F832274F259
:103F580012181EEAFEEBFF890B7401650B600E74E4
:103F680002650B706A79011209DEE97062EEFAEFF8
:103F7800FB1207BC8A088B09EA45096047750A00E5
:103F8800800B7C177D00790012101A050A9002E652
:103F9800E0F8E50AC3985021E50A75F017A4F8A9D6
:103FA800F0850882850983A3A3E028FAA3E039FBFA
:103FB8008A828B8312287670C98508828509837462
:103FC800FFF0A3F07C197D03EEFAEFFB1207EC0279
:103FD8003CF274F212181E8A088B09ECFEEDFF748D
:103FE8000E1217FA123657900D01E0F4603D7A0967
:103FF8007B0012102CEA4B60328A828B8374B1F0FA
:10400800A3E4123AE9A3123AE7A3E508F0A3E50905
:10401800124036EEF0A3EF124036A3A3E50AF0A350
:10402800E50BF0900D01E0F9121038023CF2F08A2D
:10403800828B83A3A3A3A3A32274F012181E74FA7D
:104048001217AE8908ECFEEDFF7509008A0A8B0B82
:10405800780A121A7500041069428440A240BC40D4
:10406800D440F2400A412D41454159418341004223
:1040780011422842434269426942994174016508E4
:1040880060030242648E828F83E0F8C39403400386
:10409800024264E8900DED02424074026508600334
:1040A8000242648E828F83124A11900DEEE8F0A3CB
:1040B800E9024240740165086003024264124291B9
:1040C8004003024264E890076602424074016508B2
:1040D80060030242648E828F83E0F8C39405400334
:1040E800024264E890076702424074016508600371
:1040F8000242641242914003024264E89007680257
:104108004240741065086003024264750A10750B1A
:1041180000780A121A317A697B07121002740212A7
:1041280017C402428A74016508600302426412429D
:10413800914003024264E8900779024240740165A5
:104148000860030242648E828F83E0900DF1024280
:10415800407404650860030242648E828F83780C81
:1041680012166690934A780C12149950030242640E
:1041780090077B780C12167502428AE960030242A6
:1041880064120654E970051211A0805690080E803A
:1041980063740765086003024264750A06750B00BC
:1041A800780A121A318E828F83A3AC82AD8374028F
:1041B80012180C12100874021217C47C007D00AA91
:1041C80018AB198E828F83E0F912114CE9F50AC3F6
:1041D800940A4003024287120654E9700CA90A1295
:1041E80011A67950121368806E740F250AF582E4BF
:1041F8003408F5837401804074016508705E1242CA
:10420800915059E890077A802F74016508704D8E97
:10421800828F83E0F8C3940A5042E8900DF080182A
:104228007401650870368E828F83E0F874F928C3AC
:10423800940A5028E8900DF2F080477401650870E0
:104248001B90080DE0F88E828F83E090080DF0E84F
:104258007030E06401702B12119480267509188063
:1042680021C3EA9427EB9400501574026508700F77
:104278008E828F83124D341204F2E9F5098003759A
:104288000902A90974060246718E828F83E0F8C379
:10429800940222740E1217C47F040218F074F012EC
:1042A800181E74B11217AE8C0E8D0F9092FE7420EA
:1042B80012181474061216C1742012181412114C14
:1042C800E9F50B745F1217FAE0F50CE9C3940A409C
:1042D8000302442375F006E9A4F509744112181481
:1042E8007A0E74202509F9121362E97009744D12C7
:1042F80017FAE0FE80027E00900DEDE06402700582
:1043080075080180037508007408650C7004742230
:10431800800274212509FF7C1B7D00790074261218
:10432800180C12101AEEA2E0E433F50A74261218DB
:10433800147A1BEFF9121362E9702574401217FA08
:10434800E024F9C3940A50187808121A3574271211
:104358001814A90AAA0EAB0F12059474011217C4F7
:104368007C147D007900740C12180C12101A740C4D
:104378001218147A1074242509F9121362E970309E
:104388007C1079FF740C12180C121080E9702174DB
:104398001C1217FAAC82AD837A0474252509F91228
:1043A8001362740C121814A90AAA0EAB0F12057C1A
:1043B800AC18AD197A0C7470250BF9121362E970F8
:1043C80049AA18AB1912117C7F00EF75F003A4F805
:1043D800A9F0851882851983E58228F8E583124BB0
:1043E80039124D2E601D88828983A3A3E0F50875D4
:1043F80009007808121A31AA0EAB0F1207E07402EE
:104408001217C40FEFC3940440C0EEA2E1500C9001
:104418000765E0F9AA0EAB0F1207E67404650C7085
:1044280027900DEDE06402701F7A00900779E06034
:10443800010A900766E06004780480027800E84A80
:10444800F9AA0EAB0F12063C7900744F024671743C
:10445800F112181E74F01217AE8A0C8B0D8C088D91
:10446800097E0AE9600C14600914603A1460750248
:10447800453D12118EE9FEC3940A400302453DE50D
:10448800084509700302453D750A06750B00780A50
:10449800121A31AC0CAD0DAA08AB09121002740245
:1044A8001217C402453D7F00750A06750B00780A8D
:1044B800121A31AC0CAD0DEF75F00EA4F8A9F0741A
:1044C8008728FA740739FB12101474021217C4E90A
:1044D80070090FEFC3940A505C80CDEFFEC3940AB5
:1044E800505380427F00AC18AD197A1075F006EF72
:1044F800A42423F9121362E9701C7C1079FFAA180E
:10450800AB19121080E9700EAC0CAD0DAA18AB19DE
:1045180012055EE960090FEFC3940A501880C7EFCF
:10452800FEC3940A500FE50845096009AA08AB09BB
:10453800EEF9121188EEF974101217C47F070218E9
:10454800F074F412181EE9FF7E1574FF6A70037484
:10455800FF6B7028750800EFFC7A027B00A908122F
:10456800116AE960027E000508E508C3940A40E77D
:10457800EF604E7AB87B111209F080451209D28A91
:10458800088B09EA450960387C007D00EA2405FAB1
:10459800E43509FB850882850983A3A3A3A3E0F971
:1045A80012114CE9C3940A500BEFFC7A027B0012FB
:1045B800116A7E00EF600AAA08AB091211B88001DF
:1045C8001EEEF90242A074F212181E8C088D097EA4
:1045D80015740E1217FAE0F50AA3E0F50B74FF6ADA
:1045E800700374FF6B701D7F00AC0AAD0BAA08AB9B
:1045F80009EFF9121170E960027E000FEFC3940A07
:10460800503B80E51209D28A828B83E5824583601C
:104618002B7C007D00E5822405FAE43583FBA3A307
:10462800A3A3E0F912114CE9C3940A5010AC0AADE7
:104638000BAA08AB091211707E0080011EEEF97FEB
:10464800060218F0C082C08390077FEAF0A3EBF05F
:10465800900765E0FC7D007A267B001204F2900743
:1046680065E0F912075C0251341217C47F0802187A
:10467800F074F012181E74EC1217AEEAFEEBFFEE9F
:10468800240CF50CE43FF50DEE2405F50EE43FF59A
:104698000FEE2409F50AE43FF50BEE2403F508E4D0
:1046A8003FF5098E828F83A3A3E024FA70030249A1
:1046B8003524FD70030248531470030247501460F8
:1046C8001024FD700302482A14700302488A024924
:1046D8008C125436604AE0F5838882E0F50EA3E038
:1046E800F50FE50E450F6038850C82850D83E0F5E2
:1046F8000C780C121A35EE240BF582E43FF583E0B2
:10470800F9850A82850B83124D340A0A0AAB09859A
:104718000E82850F8312181C74011217C402498C6B
:10472800850A82850B83121A4890077B1216841219
:10473800058E74021217C4E9700302498C79018549
:104748000A82850B830249008E828F83A385820AA1
:1047580085830BE0600302480D850E82850F83E098
:10476800A2E0400302480D90081912543960030270
:10477800480D7C0E7D007900AA18AB1912101A8515
:104788000C82850D831250FFEA4B6010750C06757C
:104798000D00780C121A31EA2410801B1250F912FD
:1047A80009D2EA4B700302498C750C06750D007826
:1047B8000C121A31EA2405FCE43BFD740212180CB1
:1047C80012100274021217C4850E82850F83E0A2AC
:1047D800E25004D2F08002C2F0A2F0E433F8740C84
:1047E8001217FAE048F0EEFCEFFDAA18AB19121107
:1047F80082E970117A027B00900765E0F912105C7B
:10480800790002498E125436700302498C1249937A
:10481800700302498C850A82850B83E0FC790102CA
:104828004929125436700302498C1250BE890BE88C
:10483800450B700302498C8E828F83A3E0FC7902BA
:104848001250F98882850B830249307C007D00EE86
:104858002404FAE43FFB850882850983E0F91211F4
:104868004CE9F8C3940A400302498CEE240AFCE49C
:104878003FFD7A0475F006E8A42425F912135C02BA
:10488800498C1250F990077AE06007900DF0E0F932
:104898008069900DEDE070047905805F1209D28A75
:1048A8000C8B0DA80CA90DE82404F50CE439F50DC2
:1048B8008E828F83A3A3A3A3A3A3A3E0A2E0504166
:1048C800E849700302498C850C82850D83E0FE60FF
:1048D80030850A82850B83E054107025740E1218F7
:1048E80014E82405FAE439FBEEF912114CE97011C9
:1048F80079038508828509831250FF1205880249C9
:104908008CAC0EAD0F850C82850D83E0F91250F941
:104918001211C4125436606C12499360677C007996
:10492800001250F98E828F8312181C805712065479
:10493800E9705190080EE0640170151211A09008FA
:104948000EE4F07C0AFDF97A0F7B0812101A802C0D
:10495800750A00850A08740F2508FEE43408FF8EDE
:10496800828F83E06401700BA90A1211A68E828FD0
:1049780083E4F0050AE50AC3940A40D77950121374
:1049880068121194790174140246711250C2E8FE3B
:10499800E9FFEE4F2274F412181E74F21217AEEAF1
:1049A800FE8C0975F006E9A42420F508AC18AD19A9
:1049B8007A0EF9121362E9704B7C0679FFAA18ABDC
:1049C80019121080E9703D740C1217FA124A11E896
:1049D800F50BE5096005EE420B8004EEF4520B85F9
:1049E8000B82AA82E86A7001E96015740C1217FA42
:1049F800EAF0A3E4F0AC18AD197A0EA90812135C1A
:104A080079018002790002429BE0F8A3E0F9227460
:104A1800F212181E74E61217AE89098A0C8B0DEC77
:104A2800FEEDFF740C1218147A0E75F006E9A42432
:104A380020F9121362E96003024AFC7C0679FF74CC
:104A48000C12180C121080E96003024AFC747025DD
:104A580009F508AC18AD197A0CF9121362E960036C
:104A6800024AF8AA18AB1912117CE50C450D701D05
:104A78007C0C7900AA18AB19121080E970727C0CB2
:104A88007D007900AA18AB1912101A8051AC18AD24
:104A980019AA0CAB0D1211768A0A8B0BA80AA90B5E
:104AA800E8497022EE4F604CAC18AD197A007B00D3
:104AB800121176EAF8EBF9EA4B603988828983E5C6
:104AC8000CF0A3E50DF0124B75FAEE6A7001EF6079
:104AD8001FEEF04F700888828983E4F0A3F0AA18CB
:104AE800AB1912117CAC18AD197A0CA90812135C19
:104AF800790180027900741A1217C402464774F7C4
:104B080012181E7F00EF75F003A4F8A9F0EC28F83E
:104B1800ED124B39E06A7003A3E06B7006E8FAE91E
:104B2800FB800B0FEFC3940440DB7A007B00024E3E
:104B38007139F9888289832274F712181E7E00EE73
:104B480075F003A4F8A9F0EA28F8EB124B39E0F461
:104B5800FCA3E0F4FD88828983ECF0A3EDF0124B0E
:104B680075F4F00EEEC3940440D5024E71E82402A9
:104B7800F582E439F583E02274F412181E74F412F5
:104B880017AEEAFEEBFF8C0A8D0B90081912543908
:104B9800704FEE4F7003024D0FEC450B7003024D42
:104BA8000F12118EE9900DF3F0C3940A4033750883
:104BB800007C0679FFE50875F00EA4FAABF0748165
:104BC8002AFA74073BFB121080E96003024C68055F
:104BD80008E508C3940A40D975090AE509900DF358
:104BE800F0900DF3E0C3940A4003024D0F75F006F0
:104BF800E0A4F89008191250FFEA4B7069EEFCEF38
:104C0800FD7A0E742028F912135C7C0C7D0079FF64
:104C1800AA18AB1912101AAC18AD197A0C900DF32A
:104C2800E02470F912135C75080E750900780812F3
:104C38001A31EEFCEFFD900DF3E075F00EA4F8A923
:104C4800F0748128FA740739FB12100274021217E3
:104C5800C4900819E50AF0A3E50BF07900024D119C
:104C6800850809024BE3124D162406124D286019D7
:104C78007A1B742128F912135C124D1F2406F58241
:104C8800E438F583E4F0A380D1124D16240A124DBE
:104C98002860107A1B742228F912135C124D1F2405
:104CA8000A80DB124D16240C124D2860107A1074FD
:104CB8002328F912135C124D1F240C80C1124D16C3
:104CC8002408124D2860347A10742428F912135CD1
:104CD800124D1F2408F582E438F583E02410FCA364
:104CE800E03400FD7A0475F006900DF3E0A4242565
:104CF800F912135C124D1F2408808390080DE060A0
:104D0800031211CA1211BE7901740C02429D900857
:104D180019E0F9A3E0C922900819E0F8A3E0C82235
:104D2800F582E439F583124D34EC4D22E0FCA3E022
:104D3800FD2274F412181E74F21217AEEAFEEBFF8D
:104D4800E9C3940A5004EE4F700479028034AC1819
:104D5800AD197A0E75F006E9A42420F9121362E958
:104D6800F508701C750A06750B00780A121A31745A
:104D780002121814EEFAEFFB12100274021217C492
:104D8800A90802429B74F412181EEAFEEBFF75088C
:104D980000750A06750B00780A121A31EEFCEFFD51
:104DA800E50875F00EA4F8A9F0748128FA7407399B
:104DB800FB12101474021217C4E96004A908800BCE
:104DC8000508E508C3940A40C8790A0242A074F7A6
:104DD80012181E750800E50875F00EA4F8A9F074FD
:104DE8008128FE740739FFEEFCEFFD7A0E75F00698
:104DF800E508A42420F9121362E960297C067D00E5
:104E080079FFEEFAEFFB12101A7C067D0079FFEEAF
:104E18002CFAE43FFB12101AEE240CF582E43FF55D
:104E280083E4F0A3F00508E508C3940A40A89008B5
:104E38000DE060031211CA1211BE802D74F712180A
:104E48001E7E007F007C0679FFEF75F00EA4FAAB9A
:104E5800F074812AFA74073BFB121080E970010E86
:104E68000FEFC3940A40DEEEF97F010218F074F7E1
:104E780012181E7E00EEF91211A60EEEC3940A5007
:104E880003E960F180E374F312181E74CB1217AEB5
:104E9800E9FF900DF3E06F701B7A017B00900765C6
:104EA800E0F91210627A027B00900765E0F91210AF
:104EB800621211D675F006EFA4FE74202EF5087460
:104EC800271218147A0EA908121362E96003024F18
:104ED800947C0679FF742712180C121080E960037D
:104EE800024F947C0E7D0079FF742712180C121063
:104EF8001A7C1B7D0079FF740C12180C12101A7C96
:104F08000C7D0079FFAA18AB1912101A7427121811
:104F1800147A0EA90812135CE9F508740C12181417
:104F28007A1B74212EF912135CE9F50C740C121813
:104F3800147A1B74222EF912135CE9F50B740C1207
:104F480018147A1074232EF912135CE9F509740CFD
:104F58001218147A1074242EF912135CE9F50A74E5
:104F68000C1218147A0474252EF912135CE9FEAC9D
:104F780018AD197A0C74702FF912135CE9F8E50C66
:104F8800450B4509450A4E4842088003750800A9A3
:104F98000874351217C47F050218F074F712181E2A
:104FA800E9900765F0121194024E7174F412181EFC
:104FB800EAFEEBFF5480700302504B900765E0F95E
:104FC8001210448A088B09EA4509607078018A82C0
:104FD8008B83E02450603D14600624E1604F8052CA
:104FE800A3A3A3A3E0704E8A828B83A3A3A3A3A346
:104FF800A3A3121A488A828B83A3A3A3A3A3124D47
:10500800348A828B83A3A31250FF121158740212A0
:1050180017C48021A3A3A3A3E0641E701879008A93
:10502800828B83A3A31250FF1211528008121164BD
:10503800E9F8E86007AA08AB09121032EEFAEF6443
:10504800808065EE540260237C007D007A007B003E
:10505800121182E960117A017B00900765E0F9126C
:10506800105CEE6402803F7A028046EEA2E0503F78
:105078001250CF1250FF1211D0E9602F125436602F
:105088001F1250BE88088909E8450960137C007919
:10509800011250CF1250FF85088285098312181C0F
:1050A8001211D6EE6401FAEFFB80087A0180027AC9
:1050B800007B000242A01250C222E0F5838882A33E
:1050C800A3E0F8A3E0F922900819E0F8A3E0F5833B
:1050D8008882A3A3A3227F020218F0C082C0839013
:1050E8000765E0F98A828B83A31250FF1207E680D6
:1050F8003B850882850983E0FAA3E0FB22C082C0D1
:105108008374FF1217AE12119AE9C39402851882AC
:10511800851983400474028002740AF0AC18AD1932
:105128007A01790512066C74011217C4D083D082F3
:1051380002011F74F412181E74E81217AE8A088B45
:1051480009E9FE8C0A8D0B7C187D007900AA18AB42
:105158001912101A851882851983E508F0A3E50944
:10516800F0900767E0C0E074021217FAD0E0F09000
:105178000768E0C0E074031217FAD0E0F0900DF26F
:10518800E0C0E074171217FAD0E0F074151217FA9D
:10519800E054FEF8A3E0F9900DF1E0A2E0E433FA60
:1051A800E84AF874151217FA1252D6A2E15004D23E
:1051B800F08002C2F0E854FDFAA2F0E43325E0F8EA
:1051C800EA48F874151217FA1252D6A2E35004D21C
:1051D800F08002C2F0E854F7FAA2F0E433F508755B
:1051E80009007403780812179B1252CF1217FA128B
:1051F80052D6A2E45004D2F08002C2F0E854EFFA8A
:10520800A2F0E433F5087404780812179B1252CF01
:105218001217FA1252D6A2E55004D2F08002C2F058
:10522800E854DFFAA2F0E433F50874057808121799
:105238009B1252CF1217FA1252D6A2E25004D2F0A1
:105248008002C2F0E854FBFAA2F0E433F5087402D5
:10525800780812179B1252CF1217FAE8F0A3E9F058
:10526800900768E0601D7508107808121A317C698B
:105278007D0774061217FAAA82AB83121002740211
:105288001217C4900779E06010EE600974151217C0
:10529800FAE04402F078018002780074141217FAD8
:1052A800E048F0900766E0600478048002780074B3
:1052B800141217FAE048F0AC0AAD0BAA18AB191291
:1052C8000582741802429DEA4508F8741522E8F030
:1052D800A3E9F0900DF1E02274F712181E12085E8F
:1052E800750800E50875F00EA4F8A9F0748128FE89
:1052F800740739FF7C0679FFEEFAEFFB121080E99C
:105308007009EEFAEFFB79001208640508E508C396
:10531800940A40CF024E7174F612181E74FD1217CB
:10532800AEEAFEEBFF90081B125439703975081D60
:105338007509087808121A31750802750900780885
:10534800121A317508AE7509937808121A317CFF64
:105358007DFF7A017B001206AE74061217C490080E
:105368001BEAF0A3EBF090081B12543970030254A7
:1053780020E4F508F5097808121A317404121804A3
:10538800880889097808121A3174041218048808E0
:1053980089097808121A3190081D121A4879029062
:1053A800081B12542E1207D474081217C4E9703659
:1053B800851882851983E0FA74011217FAE0F8E477
:1053C800C8F9EA28F508E439F509EA4509601778C3
:1053D80008121A3190081B1250D2A312542E12111F
:1053E8005874021217C4E4F508F5097808121A313E
:1053F80090081D121A487CFF7DFF90081B1250FF71
:105408001206BA74041217C490081BEAF0A3EBF052
:1054180090081B12543970047901800279007403D2
:105428001217C40250DE124D34EEFAEFFB22900739
:105438007F124A11E84922C082C083900819125489
:105448003960109008191250FF121032900819E4B0
:10545800F0A3F0900DF3740AF0025134C082C083B7
:105468009061907404F0A37448F0A3E4F090618014
:105478007440F09061BC7407F09061877469F09093
:1054880061B67416F07900120AE67902120AEC90F5
:1054980025D8E493F46006E493F9120AC279051258
:1054A8000DE602585FC082C083E9540FF990618508
:1054B800E0696012E5C654804449F5C6E59E547F0C
:1054C800644970F8E9F053C680E59E547F70FA028B
:1054D800585F74F712181EE5A8FE53A87E120ACE6C
:1054E800C2BA539AFEC289759B00C2C2120AD47509
:1054F800A91175B905120ADAD2BA439A0174805E05
:1055080042A8025DF6C082C083906181E4F0A302E4
:10551800585C75E90075910075BF0002011FC082D3
:10552800C083906181E4F0A374C0F0A3E402585EE4
:10553800C082C08374F81217AE9003A412678F70EC
:10554800030256179003A4E0544060237908851895
:1055580082851983AA82AB83120BE285188285198A
:1055680083AA82AB8312088E9003A4E054BFF0E0B4
:1055780054806010790C7A657B05120BE29003A4C5
:10558800E0547FF0E0A2E0500F7900120AE612081A
:10559800949003A4E054FEF0E05402600F790112E5
:1055A8000AE61208949003A4E054FDF0E054046065
:1055B8000F7900120AEC12089A9003A4E054FBF049
:1055C800E05408600F7901120AEC12089A9003A4BB
:1055D800E054F7F0E05410600F7902120AEC120858
:1055E8009A9003A4E054EFF0E05420600F7903127E
:1055F8000AEC12089A9003A4E054DFF0A3E05401E7
:10560800600D120AF81208A09003A5E054FEF07489
:10561800081217C402585FC082C083E9600514608D
:105628002A804F90619A7433F0A37455F09061A06A
:10563800743AF090053FE064017009C2919003A6A6
:105648007467802D9003A67461802690619A743FD8
:10565800F0A3745AF09061A0747FF090053FE06465
:10566800017009D2919003A6747180059003A67405
:105678006AF002585FC082C083E9600B14600D14A1
:10568800601714600C80209025DC80159025DD8043
:105698001090053FE0640170059025DE8003902599
:1056A800DFE493906186F002585F74EE12181E745E
:1056B800F41217AE851882851983AC82AD83758381
:1056C8009375823674041216C19025DC93F4600336
:1056D8000257DC907808E0C3940250030257BC7468
:1056E800041217FAAC82AD837583927582E474084C
:1056F8001216C1FC7EFF7FFF8E0C7D008C82858296
:105708000E800F74086D606D74096D6068740A6DA1
:1057180060638D087509007402780812179B125788
:10572800E6121666A909E50AC9F8881074187808F7
:105738001215A7E5104508FAE9FBE50EC333F8E4AE
:1057480033F974041217FAE58228F582E5833912D1
:105758005CE6C3E89AE99B4008E8C39AF8E99B80AD
:1057680006EAC398F8EB99F9C3E89EE99F5006E862
:10577800FEE9FF8D0C0DEDC39413408774FF6E7026
:105788000374FF6F6024850C087402780812179B55
:105798001257E6121666851882851983E582250E4A
:1057A800F582E583126185E508F00CECC39404509A
:1057B800030256FC7508017509007808121A31743D
:1057C800021217FAAC82AD837A777B091212187429
:1057D800021217C4740C1217C47F0A0218F0744816
:1057E8002508F58274783509F583780822C082C0C7
:1057F80083906186E0F89025DFE49368700990252E
:10580800DEE493906186F09061AE7468F0A3746AE8
:10581800F090624574FBF0A304F053F4FD43FE02DC
:1058280090053F7401F09061A0E0643A700479003B
:1058380080027901120AE602585FC082C083900490
:10584800F1E06401700A9004F6E06004790C8002CB
:1058580079008003F0A3F0D083D08202011FC082B8
:10586800C08375E1F19004F4E0604D1460091460A0
:1058780051146049147050120B0A9004EAE0F97A46
:10588800EB7B04120D6890932E121684120D9E90D5
:105898009366121684120D749004F5E0F9120D80C7
:1058A8007901120DDA12598224161261827422F0DB
:1058B800A3740BF07900809F120B1080BD120B1699
:1058C80080B8120B1C80B3791280EB74F412181E86
:1058D80075D90D9004D5E0A2E0E4331313F81259FA
:1058E80078484401F5D978001259E540FB780088DA
:1058F8000874D61266E574041259EF40F275E19502
:105908009004D5E0F97AD67B04120D6E900D2374BD
:1059180098F0A3740A1259F5125A39125A30125BC8
:105928004D9004F4E064019004E8700B12598B1256
:105938001666909346800912598B12166690935EEC
:1059480078081215F290937A780812164012598244
:10595800240E1261827808121675125982241412C4
:1059680061827413F09003A27402F07F040218F0AD
:105978009004EAE0C4333354C0229004E8E0F8A36A
:10598800E0C82212661D78082274F612181E125BEF
:105998001E8AD978001259E540FB78008006125A11
:1059A80096125BD3E8C39940F5125B101259E54093
:1059B800FB780080081266E17405125BD3E8C3998E
:1059C80040F375E195900D2374A4F0A3740A12595D
:1059D800F51259FF7412F09003A2025DBA88087498
:1059E800EB2508F5827404125D50940622125B368A
:1059F800749EF0A3740A22125A39125A30125B515B
:105A08009004E8E0F8A3E0C8240E125A2874FF12A4
:105A1800645A9004E8E0F8A3E0C82414125A282233
:105A2800F582E83400F58322F0A374B6F0A3740A73
:105A380022125A3D22125A4122F0A3744EF0A37446
:105A48000C2274F612181E125A8B1259784402F559
:105A5800D978001259E540FB78008006125A961250
:105A68005BD3E8C39940F575E195900D23125AA1CF
:105A7800F0A3125AA1125A027414F09003A27404EB
:105A8800025DBC9004FAE0F9740729F5D922880868
:105A980074FB2508F58274042274B0125AAE125AA7
:105AA800AEF0A3740A22F0A3740AF0A374B02274AF
:105AB800F612181E125B1E74064AF5D978001259A0
:105AC800E540FB78008006125A96125BD3E8C3992A
:105AD80040F5125B101259E540FB78008008126609
:105AE800E17405125BD3E8C39940F375E195900D15
:105AF8002374AAF0A3740A125B2C1259FF7415F0D0
:105B08009003A27403025DBC90051A125A8E7404A5
:105B18004AF5D9780022125A8B9004EAE0C433334C
