:020000040000FA
:060000000201070220E8E6
:03002B0002255D4E
:0300330002253F64
:03003B0002257E1D
:030043000224F3A1
:0300530002215E29
:03006B0002251952
:10008300021F97E5C754F84401F5C7790122000020
:100093000080FB120086B900030200F1E4792178A5
:1000A30008B800028004F709D8FCE479297802B87B
:1000B30000028004F709D8FCE490028178C3790A2E
:1000C3008002F0A3D8FCD9FA7A437B0C90013778ED
:1000D300F079038015E493A3AD82AE838A828B8388
:1000E300F0A3AA82AB838D828E83D8E9D9E7758288
:1000F300427583AC74031201197582917583007480
:100103000012011975D00075813F751881751902A8
:10011300759F00020096C09FF59FE473D09F22D085
:1001230083D082C09FE493C0E0740193C0E0740263
:1001330093F59F22FF0000B4000028002800283018
:1001430075A000A000A000A00000080008E001F0D6
:10015300001000100010001000100010005000509C
:1001630000500010001000D0070000000000000F36
:100173000001000500307507001000010081FF0039
:10018300000000FF240642062A06FF0202020802BC
:100193005000A0000000E80302A3930100008E9327
:1001A30002D1930100009A0C029993010000B3025B
:1001B30002D1930100009B0C029793010000C90236
:1001C30002D1930100009C0C029D93010000CB021D
:1001D30002D1930100009D0C02A193080000CC0200
:1001E30002D1930100009E0C02A7930100009F0C13
:1001F300FF0100FF2002A393010000919302D1931A
:10020300010000030D02C3930000000000029B9352
:1002130003000019036C0C6C0C6C0C6C0C6C0C6CF8
:100223000C6C0C6C0C6C0C6C0C6C0C6C0C6C0C4235
:100233000F5A0F3C0FFFFF020202020202020202E8
:10024300010D000000100102A3930100009493022A
:10025300D193010000460D02BF930100005D070228
:10026300D193010000470D02BD9301000053920298
:10027300D193010000480D02BB930100001C9202C0
:10028300D193010000490D02B9930100001D9102B1
:10029300D1930100004A0D02B5930100005391026E
:1002A300D1930100004B0D02B3930100006591024D
:1002B300D1930100004C0D02B1930100007791022C
:1002C300D1930100004D0D02AF930100003892025B
:1002D300D1930100004E0D02AD930100004F0D01BB
:1002E300E803053F100AFF00013075030201060011
:1002F30000000000000000000000000000000000FB
:100303000000000000000000000000FFFF06008066
:100313000CE803080964422E446576730512500005
:100323002003020A0002010611060000000000007B
:10033300010001000100DBFF10F564422E446576E5
:10034300730000000000000000000000000000FE39
:10035300130000041402307846463031000243682B
:100363006172616374657269737469632032000832
:1003730030784442303300104368617261637465BE
:100383007269737469632034000243686172616344
:10039300746572697374696320350002A393010065
:1003A300008B9302D193010000640E02C7930100F6
:1003B300000E0C02AB93010000650E02D193010005
:1003C300006C0E02C993010000220C02AB930100E2
:1003D300006D0E02D1930100007E0E02CB9302004A
:1003E30000230C02AB930100007F0E02D1930100A6
:1003F30000860E02CD93000000370C029B9303008E
:1004030000380C02AB93010000870E02D193010068
:1004130000980E02CF930400003E0C02AB93010040
:1004230000990E12012244FE021201225BFE021207
:1004330001228CFE02120122C7FE02120122F1FEEA
:10044300021201221BFF0212012232FF02120122B9
:1004530049FF0212012260FF0212012289FF0212E8
:1004630001229CFF02120122B2FF02120122C5FFE8
:1004730002120122ECFF0212012201980212012250
:100483000599021201223D9902120122609902127A
:1004930001226B99021201228E99021201229D9A66
:1004A30002120122729B02120122ED9B021201220F
:1004B300759C02120122B09C02120122E79C0212D7
:1004C3000122759D021201224E9E02120122AE9E4E
:1004D30002120122B99E02120122389F0212012246
:1004E3003B9F021201223E9F02120122CD9F021264
:1004F3000122D09F0212012200A0021201222AA08F
:100503000212012218A102120122CAA1021201221F
:10051300DFED0212012207EE0212012235EE021272
:1005230001226CEE02120122CAEE0212012215EF21
:100533000212012260EF02120122A0EF0212012235
:10054300E6EF0212012214F002120122D1F002128C
:100553000122DBF002120122E8F0021201221BF158
:1005630002120122E7F102120122F3F10212012227
:100573000BF20212012215F20212012299A70312B1
:100583000122A7A703120122BFA703120122D7A7A3
:1005930003120122D9B40112012285B501120122ED
:1005A30000B60112012221B7011201225DB7011227
:1005B300012206B801120122EDB80112012251BA3B
:1005C30001120122A8BA0112012229BB0112012240
:1005D30019BC0112012266BC01120122ECBC0112FA
:1005E30001221EBD0112012232BF0112012274BF7A
:1005F3000112012292BF0112012215C00112012230
:10060300E9C001120122B1C101120122B2D50212C5
:10061300012285D6021201222ED70212012281D78E
:100623000212012231D802120122BDD80212012284
:10063300A9D902120122D8D902120122EBDA02123D
:10064300012233DB0212012208DC0212012244DC04
:100653000212012260DC02120122F0AA031201221B
:100663000080031201221680031201223C80031230
:10067300012258810312012262810312012297820F
:10068300031201228F8303120122F5E302120122D6
:1006930025E50212012258E502120122A2E5021207
:1006A300012269E702120122EAA40112012254A5E0
:1006B30001120122B3A601120122C3A601120122D3
:1006C300F0A60112012247A701120122F0A701128D
:1006D3000122F7A801120122C1A90112012221ABB3
:1006E3000112012264AB0112012209AC01120122A1
:1006F30056AC011201227CAC011201228AAE011216
:1007030001228FAE0112012294B001120122E1B045
:100713000112012254B10112012287B101120122F7
:1007230029B201120122D2B2011201220AB301122B
:1007330001220DB30112012255B30112012295B317
:1007430001120122ECB301120122D49603120122F9
:10075300EC96031201223497031201224A970312E3
:100763000122919703120122A598031201223299C3
:10077300031201227D9903120122F02500120122A6
:10078300FC25001201223726001201227C260012CA
:1007930001223C2700120122C2270012012227282E
:1007A300001201225328001201228C280012012278
:1007B300CA2A00120122AE2C00120122942E00122A
:1007C3000122D72F001201222532001201223733D2
:1007D30000120122823400120122923500120122FA
:1007E300AF3500120122EA35001201220C36001245
:1007F30001226F3600120122303B00120122C53B59
:1008030000120122163C001201223D3C001201227B
:100813008F3C00120122AD3C00120122073D001261
:100823000122F03D00120122663F00120122EA3F3D
:10083300001201229A7900120122A47900120122E6
:10084300E77900120122027A00120122927A001241
:100853000122BA7A00120122F77A001201222E7BBA
:1008630000120122577B00120122CC7B00120122CD
:10087300E17B00120122F67B00120122277C001289
:1008830001223B7C00120122607C001201229A7C2F
:1008930000120122C67C00120122FE7C00120122FA
:1008A3005D7D00120122DC7D00120122077E001211
:1008B3000122507E001201227A7E00120122A57EBF
:1008C30000120122CD7E00120122008002120122B9
:1008D3002E80021201227C81021201225C8202120A
:1008E30001227B8202120122F882021201223B833F
:1008F3000212012291840212012252850212012264
:10090300D987021201227A88021201227089021207
:1009130001226D8A02120122C78B02120122528C1C
:100923000212012229A40312012292A4031201221A
:10093300E6A4031201220DA5031201223EA5031210
:10094300012281FB01120122EEFB0112012235FC7F
:10095300011201224DFD0112012249FE0112012261
:100963002CFF011201227EB502120122C0B5021230
:10097300012292B6021201226BB70212012265B85C
:100983000212012247B902120122B0B90212012256
:1009930066BA02120122DABA0212012246BB02121D
:1009A30001226FBB02120122E9BB0212012282BCA7
:1009B30002120122E7BC02120122FCBC0212012234
:1009C30042BD021201225BBD02120122C0BD02120E
:1009D3000122C3BD02120122DB93031201220394FD
:1009E30003120122419403120122FF9403120122F4
:1009F300669503120122829503120122AA9503121E
:100A03000122DA9503120122E99503120122669667
:100A1300031201228C9603120122D59301120122A3
:100A23007395011201228E9701120122CA970112B6
:100A33000122F79701120122DC9801120122239966
:100A430001120122679901120122799901120122EF
:100A5300B99901120122E69901120122319A011278
:100A63000122719A011201229F9A01120122F19A25
:100A730001120122819B011201221F9E01120122F8
:100A830035A00112012273A00112012204A2011256
:100A9300012249A201120122C0A2011201220AA3CA
:100AA3000112012230A30112012218A40112012212
:100AB300BFA40112012205AC0212012284AC02126E
:100AC300012246B20212012255B302120122BDB421
:100AD3000212012254B5021201227454001201229F
:100AE300BD5400120122EA54001201221D550012C6
:100AF30001222A55001201223655001201224855BF
:100B0300001201222F56001201228D5600120122DB
:100B1300C256001201220558001201225258001237
:100B23000122765800120122E35800120122A15932
:100B3300001201225A5A00120122C75A001201223E
:100B4300795B00120122895B00120122105C001202
:100B53000122CF5C00120122FC5C00120122755DB0
:100B630000120122D25D001201221C5E001201223A
:100B7300B25E001201227D5F001201223260001278
:100B83000122A76000120122086100120122726192
:100B930000120122AB61001201224D6200120122F8
:100BA3005D63001201229D6300120122BA630012E9
:100BB3000122D9630012012220640012012245643C
:100BC30000120122726400120122EC64001201225D
:100BD3002D650012012251660012012201670012E5
:100BE3000122586700120122C26700120122DB674B
:100BF300001201223BA2021201228EA20212012242
:100C03009AA2021201226FA30212012296A30212D8
:100C13000122D1A3021201223DA40212012279A4CE
:100C230002120122B2A402120122CAA40212012258
:100C33001FA50212012238A50212012281A5021268
:100C4300012294A502120122AEA502120122C4A51B
:100C530002120122F7A6021201223EA80212012269
:100C630040A9021201223AAA02120122F97F0012BC
:100C730001224AEE011201227AEE0112012242F20E
:100C83000112012299F30112012262F401120122DD
:100C9300E2F501120122B3F601120122F0F601126C
:100CA300012213F70112012251F7011201225AF70F
:100CB30001120122A4F701120122AEF7011201224F
:100CC30058F80112012231F90112012285F90112AA
:100CD3000122E7F9011201223AFA0112012269FA0B
:100CE30001120122A6FA011201220D68001201224B
:100CF300746B001201227A6B00120122FC70001245
:100D030001227575001201224B79001201227E8A9D
:100D130003120122F48A031201220A8B0312012215
:100D23004B8B03120122858B03120122FE8B0312CC
:100D33000122398C03120122AC8C03120122EA8CAA
:100D430003120122F38C03120122FF8C03120122EE
:100D53001B8D03120122468D031201225C8D0312A7
:100D63000122A08D031201221CE9021201222FE9A4
:100D73000212012249E90212012272E9021201223E
:100D8300B5E902120122F4E90212012232EA021247
:100D9300012297EA02120122ACEA02120122B7EA07
:100DA30002120122C4EA02120122DBEA0212012228
:100DB300E9EA02120122F4EA0212012200EB021212
:100DC300012213EB021201221EEB0212012241EB5C
:100DD30002120122E8EB02120122F8EB02120122B5
:100DE30012EC021201222FEC021201224BEC02122E
:100DF300012270EC021201227BEC0212012290EC20
:100E030002120122A4EC0212012205ED02120122B8
:100E13000BED0212012211ED0212012217ED021253
:100E230001222FED0212012262ED021201223BD2B6
:100E330001120122BFD2011201226ED3011201223B
:100E4300CDD401120122EED601120122DAD701120A
:100E530001220FD80112012231D801120122E0D858
:100E630001120122D8DA0112012201DB011201224F
:100E730093DB01120122C5DB01120122D2DB011235
:100E8300012229DC011201224FDC01120122BCDE06
:100E930001120122BFDF0112012217E00112012218
:100EA300CAC301120122D4C401120122BBC501121B
:100EB3000122C5C501120122E7C501120122F3C5B2
:100EC300011201228CC701120122BBC701120122A8
:100ED300D7C80112012230C90112012296CA011298
:100EE300012275CB01120122D1CB011201223ECC8A
:100EF3000112012279CC01120122B8CC0112012284
:100F030071CF011201228BCF0112012217D00112DE
:100F1300012225D0011201227ED0011201228CD0A0
:100F230001120122FFD00112012263D10112012219
:100F3300ADD101120122D38C02120122F58C0212CF
:100F430001221B8F021201223092021201224893C6
:100F530002120122FB9302120122DD9402120122EA
:100F6300119E03120122369E03120122A89E031230
:100F7300012238CE0212012241CE021201224ACEB0
:100F83000212012221CF02120122D2D00212012227
:100F930008D10212012242D10212012278D1021297
:100FA3000122B2D102120122E6D10212012212D28F
:100FB300021201225BD20212012295D202120122F5
:100FC300DED20212012236D3021201226BD30212A5
:100FD3000122C6D30212012200D40212012251D4EB
:100FE3000212012287D402120122C1D40212012269
:100FF300EFD40212012212D50212012226A90312F2
:10100300012252A903120122ADA903120122B7A999
:1010130003120122C7A90312012217C602120122D9
:1010230021C6021201225FC602120122A8C60212C1
:101033000122E2C6021201223CC7021201225DC74D
:1010430002120122FFC90212012208CA021201225E
:1010530059CA0212012282CA021201228CCA021246
:101063000122F8CA021201228CCB02120122E0CB28
:101073000212012216CC021201229DCC021201227D
:10108300DDCC0212012215CD0212012227CD02125C
:10109300012246CD021201224FCD021201220ECEB1
:1010A300021201229983031201228E840312012268
:1010B3009F8403120122D48603120122129C03127D
:1010C3000122489C031201227E9C03120122D79D18
:1010D3000312012274AB031201228AAB0312012211
:1010E30094AB03120122DEAB031201229CF2021223
:1010F3000122B5F20212012259F30212012299F3DD
:1011030002120122B2F302120122E6F302120122B9
:1011130033F40212012267F402120122A9F402122B
:101123000122B5A203120122DEA20312012207A3A8
:1011330003120122A2A303120122E4A30312012238
:10114300D08D03120122F58D03120122218E031289
:101153000122DEAC03120122514000120122B542EA
:101163000012012267440012012259450012012294
:10117300DE45001201225C4600120122894600125C
:101183000122AD4900120122274A00120122164B07
:1011930000120122504B00120122904B0012012237
:1011A3004A4D001201229D4D00120122E64D00120C
:1011B3000122544E00120122864E001201229E4E3D
:1011C30000120122B34F00120122C34F0012012269
:1011D300F350001201221551001201224B5100124B
:1011E3000122F052001201222F53001201224F5408
:1011F3000012012270A80312012281A80312012206
:1012030095AC03120122D4AC03120122E67F001233
:101213000122D1A903120122E1A903120122F9A992
:10122300031201225FAA0312012295A603120122CF
:101233001AA70312012280A7031201223DA1031260
:10124300012266A103120122D1A10312012222A2CB
:10125300031201227BA203120122ADF60212012224
:10126300E4F60212012254F70212012269F7021274
:101273000122B2F80212012278F90212012297F92F
:1012830002120122BEF902120122F3F90212012213
:101293000BFA021201225CFA02120122EEFF011282
:1012A30001220F87031201229F87031201221D8847
:1012B30003120122A688031201223B890312012291
:1012C300C58903120122CF8903120122DE89031289
:1012D3000122F48903120122078A03120122678A79
:1012E300031201227B8A0312012269AA031201223B
:1012F300D3AA03120122E5AA03120122B69F031205
:1013030001220BA00312012279A003120122E9A0FA
:1013130003120122A79903120122D1990312012278
:10132300A69A031201229A9B03120122E7BD02121D
:101333000122A4BE02120122DFBE0212012207BF54
:101343000212012269BF02120122B5BF0212012259
:101353000EC0021201229FC002120122A1C1021279
:1013630001225EC302120122E0C30212012245C41C
:10137300021201225CC4021201226CC50212012274
:10138300AAC50212012265E001120122EFE3011254
:10139300012277E501120122CEE501120122EDE5DA
:1013A300011201226BE60112012209E80112012256
:1013B300EDE801120122D7EC01120122A7ED01127F
:1013C3000122E190031201221091031201222691BE
:1013D300031201226E9103120122B0910312012222
:1013E3001B9203120122EA92031201225693031263
:1013F3000122D5DC0212012228DF02120122CFDFF3
:10140300021201228CE102120122E2E10212012204
:1014130054E2021201229CE20212012264E302124C
:101423000122CDE30212012291FA02120122D6FA1D
:1014330002120122F3FA02120122B0FB021201226C
:1014430019FC02120122FCFC021201220BFE021201
:10145300012284A503120122A8A5031201225BAD78
:101463000312012225AD0312012287AD03120122CB
:10147300AFAD03E066701008A3E066700A08A3E04E
:1014830066700408A3E06622C3E7960809E7960896
:1014930009E7960809E79622C3E09608A3E09608B1
:1014A300A3E09608A3E09622C008C3E096F50808D7
:1014B300A3E096420808A3E096420808A3E09645F5
:1014C300087001D3D00822080808EAC0E0EBC0E0A6
:1014D30086F0E7A4FA180986F0E7A42AFA18098621
:1014E300F0E7A42AFA180986F0E7A42AFA1986F085
:1014F300E7A4FBE5F02AFA190886F0E7A42BFBE53D
:10150300F03AFA190886F0E7A42BFBE5F03AFA184B
:10151300180986F0E7A4C5F02BFBE43AFA1908E7AB
:10152300C5F0C6A426F6E5F03BFBE43AFA1886F0CC
:10153300E7A4F6E5F00826F6E43B08F6E43A08F6F5
:10154300D0E0FBD0E0FA22E4CFC0E0E4CEC0E0E498
:10155300CDC0E0E4CCC0E075F020E626F608E63323
:10156300F608E633F608E633F6181818EC33FCED04
:1015730033FDEE33FEEF33FFC3EC9709ED9709EE2E
:101583009709EF97191919400FFFEC97FC09ED978D
:10159300FD09EE97FE191906D5F0BFECF709EDF733
:1015A30009EEF709EFF7191919D0E0FCD0E0FDD0E7
:1015B300E0FED0E0FF226016080808C6C313C61871
:1015C300C613C618C613C618C613C6D5E0EA2270DA
:1015D30009080808226016181818C6C333C608C6B7
:1015E30033C608C633C608C633C6D5E0EA22E627A3
:1015F300F60809E637F60809E637F60809E637F686
:1016030022E026F608A3E036F608A3E036F608A3A0
:10161300E036F622E026F008A3E036F008A3E03631
:10162300F008A3E036F022C3E697F60809E697F63A
:101633000809E697F60809E697F622C3E096F0084C
:10164300A3E096F008A3E096F008A3E096F022E06A
:1016530056F608A3E056F608A3E056F608A3E056AC
:10166300F622E056F008A3E056F008A3E056F0088F
:10167300A3E056F022E0F608A3E0F608A3E0F6089C
:10168300A3E0F622E6F008A3E6F008A3E6F008A339
:10169300E6F022E0FAA3E0FBA3E0FCA3E0FD22EAEC
:1016A300F0A3EBF0A3ECF0A3EDF022E0F8A3E0F954
:1016B300A3E0FAA3E0FB22E8F0A3E9F0A3EAF0A396
:1016C300EBF022CAC0E0E6F0A308DAFAD0E0FA228F
:1016D300CAC0E0E0A3C582CCC582C583CDC583F073
:1016E300A3C582CCC582C583CDC583DAE6D0E0CA63
:1016F30022C3E498F8E499F91217358026C3E49AD3
:10170300FAE49BFBE920E7E9121735E498F8E4993A
:10171300F922C3E498F8E499F9121735E498F8E448
:1017230099F9C3E49AFAE49BFB22EB20E7CFE92083
:10173300E7E0B90010BB0008E88AF084F8AAF022B9
:10174300E4FBC8FA22EB70227B10C833C8C933C943
:10175300335007C39AC3DBF280069A50012ADBEAAF
:10176300C833F4C8C933F4C9FA2275F008E4C8339E
:10177300C8C933C933C99AC99B5004C92AC93BD5BF
:10178300F0ECFBC833F4C8E4C9FA22600D08C6A222
:10179300E713C618C613C6D5E0F322600C08C6C308
:1017A30013C618C613C6D5E0F422700422600D18C0
:1017B300C6C333C608C633C6D5E0F41822251810AD
:1017C300AF08F518400C15198008F51840021519D3
:1017D300D2AF2200C0D0251810AF08F518500C0561
:1017E300198008F51850020519D2AFD0D022251858
:1017F300F58210AF08F518400C15198008F518404C
:10180300021519D2AF851983222518F582E43519FB
:10181300F583222518F8E43519F9222518FAE43559
:1018230019FB222518FCE43519FD22E4732518C59C
:1018330082C0E0E51934FFC583C0E0E518C3958293
:1018430024F810AF088583198582188008858319C9
:10185300858218D2AFCEF0A3E520F0A37808E6087E
:10186300F0A3DEFAEFF0A3E58124FAF8E608F0A38B
:10187300E608F0A3E608F0A30808E608F0A3E608E4
:10188300F0A315811581D0E0FED0E0F81581158114
:101893001581E8C0E0EEC0E0222518C582C0E0E56E
:1018A3001934FFC583C0E0E518C3958224F910AF4E
:1018B300088583198582188008858319858218D243
:1018C300AFCEF0A3E520F0A37808E608F0A3DEFA94
:1018D300EFF0A3E58124FBF8E608F0A3E608F0A304
:1018E3000808E608F0A3E608F0A315811581D0E007
:1018F300FED0E0F815811581E8C0E0EEC0E0228556
:101903001983851882E0A3FEE0A3F5207808E0A3FD
:10191300F608DFFAE0A3FFE0A3C0E0E0A3C0E0E045
:10192300A3C0E0E0A3C0E0E0A3C0E010AF0885825D
:10193300188583198008858218858319D2AFD083CF
:10194300D08202011F851983851882E0A3FEE0A3DC
:10195300F5207808E0A3F608DFFAE0A3FFE0A3C0D0
:10196300E0E0A3C0E0E0A3C0E0E0A3C0E010AF0864
:101973008582188583198008858218858319D2AFDB
:10198300D083D08222C0D02518C582C0E0E51934A7
:10199300FFC583C0E0E518C3958224F310AF088523
:1019A30083198582188008858319858218D2AFC868
:1019B300F0A3E9F0A3EAF0A3EBF0A37908E709F0B9
:1019C300A3D8FAECF0A3EDF0A3EEF0A3EFF0A3D0CD
:1019D300E0F0A3D0E0F0A3D0E0F0A3E520F0A3E58E
:1019E300F0F0A322851983851882E0C0E0A3E0F913
:1019F300A3E0FAA3E0FBA37808E0F608A3DFFAE08C
:101A0300FCA3E0FDA3E0FEA3E0FFA3E0C0E0A3E0AE
:101A1300C0E0A3E0F5D0A3E0F520A3E0A3F5F01028
:101A2300AF088583198582188008858319858218F4
:101A3300D2AFD082D083D0E0F8D0E03274048006F5
:101A4300740280027401C0E0F4041217F1D0E012B2
:101A530016C6227404800474028000CCC0E0EDC07A
:101A6300E0E518C39CCCAD1950011D10AF068C18CE
:101A73008D1980068C188D19D2AF1216D3D0E0FDC4
:101A8300D0E0FC22D083D082E9C0E0E493A3C386F4
:101A9300F0C5F095F0F908E493A386F0C5F095F04E
:101AA300700BE493A3C3994005E9048002A3E47592
:101AB300F002A42582F582E5F03583F583D0E0F9C1
:101AC300E493A3C0E0E493C0E022D083D082ECC0CF
:101AD300E0EDC0E0E493A3FCE493A3FDED4C600DC3
:101AE300121B19EC24FFFCED34FFFD80EFE493A3FC
:101AF300FCE493A3FDED4C600D121B58EC24FFFC9A
:101B0300ED34FFFD80EFD0E0FDD0E0FCE493A3C013
:101B1300E0E493C0E022C0E0C3E493960874019329
:101B23009618400FE4936670080874019366187062
:101B3300007019A3A3C3E49396087401939618A3A2
:101B4300A3400DD0E0D0E0D0E0021B09A3A3A3A3E0
:101B5300A3A3D0E022C0E0C0F088F0E4936670084D
:101B63000874019366187000A8F0A3A3700BD0F05B
:101B7300D0E0D0E0D0E0021B09A3A3D0F0D0E02254
:101B840074F512189CEAFEEBFFEE2434F8EF3400EF
:101B9400F988088909EE2435121CB0F8EE243712AE
:101BA4001CB0F50AEC850AF0A4FCAAF0850AF0ED55
:101BB400A42AFDE82CF8E43DF97A257B00121735B8
:101BC400EA850882850983F074075AF87401B8001D
:101BD400028004C333D8FCFBEA131313541FF8EE3A
:101BE40028F8EF3400F9E8245DF582E9121CB35BB0
:101BF4006003EA801CEE2436121CB0F5F0EA84A8D7
:101C0400F0EE28F8EF3400F9E82438F582E9121CE4
:101C1400B3F97F0402194874F512189CEAFEEBFF2D
:101C2400EE2434121CB0C0E0EE2435F582EF34000B
:101C3400F583D0E0F08E828F83A3A3A3A3A3E0FA5D
:101C4400A3E0FB8E828F83A3A3A3A3A3A3A3E0FC9F
:101C5400A3E0FDECC39AF50AED9BF50BEE247FF5AA
:101C640008EF3400F509850882F583E06401702BE0
:101C7400EE2480F582EF3400F583121A5A121CB94F
:101C840074021217D6E960137CDC7D04EEFAEFFBD4
:101C9400120B94850882850983E4F0AC0AAD0BEE3F
:101CA400FAEFFB121B841224DF021C16F582EF34B8
:101CB40000F583E022C082C083851882851983E001
:101CC400F8A3E0F9C3EA9CEB9D5010C3EC98ED999E
:101CD400401BC3EA98EB995014800EC3EA98EB9921
:101CE4004007C3EC98ED994004790180027900D053
:101CF40083D08222EAC39CFAEB9DFB2274ED121876
:101D04009C9003A2E064086005E06407702C906175
:101D1400C8E060269003D0E0F874FF68601CE875A2
:101D2400F003A4C8AAF02AF974D228FE740339FF78
:101D34008E828F83A3A3A3E070057900021EA0EE18
:101D44002468F510EF3400F511906060E08510828E
:101D5400851183F0750A45750B0575080075090032
:101D6400E5D914F50EE5D95403F50F601CEE248271
:101D7400F50CEF3400F50D7403650F6058E50E6043
:101D840013EE2467121CB0700B793DEEFAEFFB12D0
:101D94000BB880A6900540E064016026850C82851E
:101DA4000D83E06004780480027800850E08E5085D
:101DB400C398FA95E0FB120A2C8A088B09EA4509B4
:101DC4007006120E10021D3E850C82850D83E07094
:101DD400048A0A8B0B78008016E5D9C0E08812E5E6
:101DE4000A2512F582E50B3400F583D0E0F008E80B
:101DF400C3950E40E4850C82850D83E0602874FC55
:101E0400250EF50E780A121A43AC0EA90FEEFAEF5E
:101E1400FB120C6674021217D6E9700AAA08AB0901
:101E2400121302021D8D7403650F6058850E0C7524
:101E34000D00780C121A43AC0AAD0BAA08AB0912B8
:101E44000C2A74021217D6851082851183E0F87467
:101E540080687005750C7F8002880CE50CF50A78A3
:101E64000A121A47E50FF50A780A121A47A90EACA6
:101E740008AD099003D0E0FA7B001208C474021282
:101E840017D680139003A2E06408600BAC0AAD0B74
:101E9400EEFAEFFB120CFC120E1C79017F0C0219F6
:101EA4004874F312189C74FC1217C0EAFEEBFF8905
:101EB40008A2AFE433F509C2AFEE2463F50AEF34A8
:101EC40000F50B8010AA0AAB0B120BE2121302905E
:101ED40004E3E004F0850A82850B83E0F8A3E0F9CB
:101EE400E849602FE82402FAE93400FBEA2402F509
:101EF4000CEB3400F50D780C121A438A828B83E0C4
:101F0400FCA3E0F9EEFAEFFB120BD674021217D61B
:101F1400E960B29004E3E060579004E4E0F89004D0
:101F2400E3E0C398500C7402650870449004E5E043
:101F3400603E8E828F83A3A3A3A3E08518828519B4
:101F440083121F84740212180CE8121F849004E296
:101F5400E028F0740212180CAC82AD8385188285D7
:101F64001983AA82AB8379011208D09004E3E4F0C8
:101F7400E509A2E092AF74041217D67F060219484D
:101F8400F0A3E4F09004E3E0F822000085218785C3
:101F940022C622C0E074EF121988A2AFE433FEC255
:101FA400AF759B00906182E0A2E05012E591A2E03F
:101FB400500C7591FE740165217003121D00E0A29E
:101FC400E55051E591A2E5504B7591DF9003A2E0F5
:101FD40064076005E0640870237401652170357935
:101FE400019003D0E0FA75F003A4CAA8F028FB74AA
:101FF400D22AFA74033BFB121EA58018E0640D700C
:10200400139003C4E004F064287002E4F07A00E062
:10201400F9120E22906182E0A2E640030220BEE59E
:1020240091A2E640030220BE7591BF9003A2E06432
:10203400057008120D3E120D4A8003120D447521DD
:1020440000120DB0E99003A3F07900120DA4120A56
:10205400FE7A017B009003A1E0F912107A907803D4
:10206400E064427055900544E014F0704DC2AF1224
:10207400207600782AD0E0F618D0E0F6E59F5407E1
:1020840070057509FF800375097FC4C0E07829E6EF
:10209400F50808E65509F509740B780812179ED05F
:1020A400E02508F8906270E0A2E740F8E8C33390B6
:1020B4006272F0906270E0D2E0F0906181E0A2E39D
:1020C4005009E5E9A2E3500375E9F7A3E0A2E7505C
:1020D40009E591A2E7500375917FEEA2E092AF7FEC
:1020E400040219E7C0E0C0D0C082C083906183E0DD
:1020F400A2E05009E5BFA2E0500375BFFEE0A2E1F3
:102104005009E5BFA2E1500375BFFDE0A2E250090A
:10211400E5BFA2E2500375BFFBE0A2E35009E5BFAF
:10212400A2E3500375BFF7E0A2E45009E5BFA2E4BF
:10213400500375BFEFE0A2E55009E5BFA2E55003E7
:1021440075BFDFE0A2E65009E5BFA2E6500375BF04
:10215400BFD083D082D0D0D0E032C0E074F2121964
:1021640088E5A7A2E4500FE5A1A2E4500953A7EF24
:1021740075A1EF1221B2E5A7A2E5500CE5A1A2E5F5
:10218400500653A7DF75A1DFE5A7A2E15009E5A139
:10219400A2E1500375A1FDE5A7A2E2500CE5A1A2BE
:1021A400E2500653A7FB75A1FB7F010219E774F8FF
:1021B40012189C7521019003A2E0640670077A004E
:1021C4007B00120D26A2AFE433FED2AF9003A8E049
:1021D400640170187A207B009003A1E0F9121110B9
:1021E4007A207B009003A1E0F9121080906182E0D4
:1021F400D2E6F0900541E0602185C6228016900366
:10220400A7E064017008E5C654F84405F5C653BE5A
:10221400FC121F907401652160E4EEA2E092AF7F8E
:10222400010219488E238F248582288583278518E7
:1022340082851983E0CEA3E0CF852882852783EBAE
:10224400C9EAC8EDCBECCA75F010C3E833C8E9336A
:10225400C9EA33CAEB33CBC3EA9EF526EB9FF525D7
:10226400B35004AB25AA26EC33CCED33CDD5F0DA4C
:10227400AE23AF242274F112189C8A088B098C0AAD
:102284008D0B90937B7808121652740F12180C78E9
:102294000C12167890937B780C1216527808790CED
:1022A40012148B90937F50107808790C12162A78A8
:1022B400081214AB4014800E780C790812162A7890
:1022C4000C1214AB50047901800279007F080219C2
:1022D4004874ED12189C8A088B098C0A8D0B909314
:1022E4007B7808121652741312180C780C12167894
:1022F40090937B780C121652780C790812148B4048
:10230400117808790C12162AAA08AB09AC0AAD0B8D
:102314008022751000751100751200751301781074
:10232400790C12162A781079081215F1AA10AB113B
:10233400AC12AD137F0C02194890937B78081216E7
:10234400788A828B8378081216657F040219487490
:10235400F512189C8C828D8378081216788A828BE9
:1023640083780812163E1223A7C3E098F0A3E099DD
:10237400122399401E90938778081216788A828BCC
:102384008378081216178E828F83E02420F0A3E04E
:10239400344EF080A4F08E828F83C3E09420A3E0B7
:1023A400944E22EA2404F8EB3400F9E8FEE9FF8CA9
:1023B400828D83A3A3A3A3E0F8A3E0F98E828F8385
:1023C4002274F512189CE9FE9004F7E0FAA3E0FBEE
:1023D400EEC333F8E433F974FD28F582749139F5CA
:1023E40083E02AF508A3E03BF5097808121A439024
:1023F400933B12169612222874021217D68A088B5F
:10240400098C0A8D0B741078081215B9AA08AB0947
:102414007F0402194874F112189C8A0C8B0D8C0EDF
:102424008D0F740F12180CE0FAA3E0FB741112184C
:102434000CE0F508A3E0F5097808121A43EA240130
:10244400F508EB3400F509E4F50AF50B780C790886
:102454001214CA90935B7808121678780C790812D3
:1024640014CAAA0CAB0DAC0EAD0F122228740212C2
:1024740017D68B09EA450960047A0180027A00ECD8
:102484002AFCED3400FD741312180CE0F8A3E0F9F3
:10249400E8FEE9FFECF8EDF97A717B021217358852
:1024A400088909E4F50AF50B8E828F8378081216E1
:1024B40087ECF8EDF97A717B021217358A088B09DB
:1024C400740578081217AD8E828F83A3A3A3A3E5A6
:1024D40008F0A3E509F07F08021948C082C083E927
:1024E400906000F0D083D08222C2AF02000022C0EC
:1024F400E074F2121988A2AFE433FED2AFC2C0E591
:10250400D1A2E4500653D1EF1212E4EEA2E092AF4E
:102514007F010219E7C0E074F2121988A2AFE43314
:10252400FED2AFE589A2E15003121254758900C2AC
:10253400C5EEA2E092AF7F010219E7C0E074F21287
:102544001988A2AFE433FED2AFE58BA2E0500312A8
:102554001254758B00C2E880D8C0E0C0D0E8C0E057
:10256400E9C0E0E5A8D2AFC2C7A2E7A2E792AFD024
:10257400E0F9D0E0F8D0D0D0E032C0E0C0D0E8C07C
:10258400E0E9C0E0C008C009C082C083A2AFE43360
:10259400F9D2AF9009D3E0F8A3E0687008539AFB2E
:1025A400A374018025C2E99009D3E0F508740125DC
:1025B40008F074532508F582E43409F583E0F5C185
:1025C4009009D3E0C394804002E4F0E9A2E092AF22
:1025D400D083D082D009D008D0E0F9D0E0F8D0D0B0
:0325E400D0E03212
:1025E800FFFFFFFFFFFFFFFFC082C083E9900D02DE
:1025F800F002287F74F7121830E99002E1F07C1994
:102608007D037AFF7BFF12080A9002E274FFF0A3B1
:10261800F0A3E4F0A3F079051207929002E1E0F943
:102628001206B47A287B081209DE7F0102190274A7
:10263800F41218308A088B09EB548060309002E15C
:10264800E0F91210628A0A8B0BAE0AAF0BEE4F60EC
:10265800138E828F83E064B070031207AAEEFAEF3C
:10266800FB121050AA08E5096480FB80047A007BFD
:102678000002284E74F212183074FC1217C0EAFED9
:10268800EBFFEE4F6038740212180CEEF0A3EF1255
:102698002AB3ECF0A3ED122AB3AA82AB831206AEDA
:1026A800E9F5087073741212180C123667E50A45BA
:1026B8000B60658E828F8312272AEE4F700575088E
:1026C8000280557A067B001210C88A0C8B0DA80C64
:1026D800A90DE8497005750813803D88828983E44F
:1026E800122734A3A3EEF0A3EF123B00E50AF0A3F0
:1026F800E50BF09002E71227BC9002E76017E0FCB8
:10270800A3E08003EAFCEBFD8C828D831227BC706A
:10271800F38C828D8312358CA90874041217D602A3
:102728003D02A3A3A3A3E0FEA3E0FF22F0A3F08849
:102738008289832274F2121830890AE975F017A485
:10274800FEAFF09002E6E4F09002E41227BC600AC3
:102758001210CE9002E4E4F0A3F0EEFAEFFB1210B0
:10276800C88A088B09EA4509602FEEFCEFFD79005D
:102778001210389002E4E508F0A3E509F07B008028
:10278800081227A6E4F0A3F00BEBC3950A40F2E584
:102798000A9002E6F0790080027913023D02EB7597
:1027A800F017A4F8A9F09002E4E028FAA3E0398A27
:1027B80082F58322123322EA4B2274F41218307500
:1027C8000800750900740C12180C123AD4FEE9FFBF
:1027D800800CE5082401F508E5093400F509C3E58E
:1027E800089CE5099D503285080A85090B74037811
:1027F8000A1217ADEA250AF8EB350BF988828983A6
:10280800A3A3A3A3A3A3123667EE650A7003EF651B
:102818000B70BFE8FAE9FB80047A007B008027741C
:10282800F41218307900EAA2E0501B7508E4750923
:10283800927808121A437C047D007A047B0D1207F3
:102848008C74021217D67F04021902C082C08390CA
:1028580002E7122886601C88828983A3A3E06A7035
:1028680003A3E06B8882898370E8A3A3A3A3123330
:102878001E80047A007B00D083D08202011F123DA3
:10288800D5E8492274EE12183074FC1217C0EAFE1B
:10289800EBFF851882851983E4F0A3F0EE24021279
:1028A8003570EE2405122AA1EE2404F50EEF122E3F
:1028B80086E024FE603924FC604624FE605224FE33
:1028C800605E24FE70030229A624FE7003022A1EFD
:1028D80024FE7003022A2D24FE7003022A3C24FCE5
:1028E8007003022A4B24FE7003022A5A022A979088
:1028F80003007417F0A3E4122ABB12042C022A97CF
:10290800851882851983AC82AD831207B0022A67C5
:10291800851882851983AC82AD831207B6022A67AF
:10292800850C08850D09740212180CAC82AD8385DC
:10293800088285098312331E1206D28A0C8B0DACCD
:102948000CAD0DEC4D6042E4F50CF50D780C121A47
:1029580043750C00750D03780C121A43750C01753C
:102968000D03780C121A43740812180C121A5A79AB
:10297800161233181207F274081217D6E9F50C70FC
:102988000B123314120444800F750C0185088285DC
:102998000983122AA912358C850C08022A6A740246
:1029A80012180CAC82AD83850C82850D8312331E00
:1029B8001206D28A108B11AC10AD11EC4D60438514
:1029C8000C82850D83A3A3121A5A75100075110382
:1029D8007810121A437510017511037810121A43F2
:1029E800740812180C121A5A79161233181207F2B0
:1029F80074081217D6E9F509700B12331412044A39
:102A0800800F750901850C82850D83122AA912355C
:102A18008C850908804C851882851983AC82AD8322
:102A28001207BC803A851882851983AC82AD83125F
:102A380007C2802B851882851983AC82AD83120763
:102A4800C8801C851882851983AC82AD831207CE95
:102A5800800D851882851983AC82AD831207D4E96D
:102A6800F508E50860298E828F83A3E06414601F4F
:102A7800850E82850F83E0900300122AB3123DD1A0
:102A880090030112358CE508A3122ABB120426EE26
:102A9800FAEFFB120750023478F50CEF3400F50D0D
:102AA80022123DD585188285198322F085188285E2
:102AB800198322F07C007D03850A82850B831233FB
:102AC800222274EE12183074FC1217C08A0A8B0B7B
:102AD8008C0E8D0FEA2405F508EB3400F5097C15FA
:102AE8007D0079007A007B03121038E5082402F58E
:102AF8000CE509122AA48518828519838582108518
:102B080083117810121A43850882850983A3A3A329
:102B1800A3122FCE121A43E5082405F510E509344F
:102B280000F5117810121A43850C82850D83123333
:102B3800281206CC74061217D68A108B11AE10AF65
:102B480011E50A2402F50AE50B123573EE4F7003FE
:102B5800022C908017740212180C12331E88828976
:102B680083EAF0A3EBF0900300E004F0900300E0A8
:102B7800C394054003022C90E4F510F51178101267
:102B88001A437510E97511027810121A437510EA84
:102B98007511027810121A43740612180C121A5A78
:102BA8007910EEFCEFFD1233181207F274081217B1
:102BB800D6E9705E850882850983A3A3A3A3A3A38E
:102BC800A3E0F89002E9E0687048122FCE121A4389
:102BD8007CEA7D02E5082408FAE5093400FB1210B6
:102BE8003274021217D6E960298E828F83A3A3A3B9
:102BF800A312331E900300E0F51074027810121728
:102C0800AD74012510F58274033511F583EAF0A33C
:102C1800EBF0740212180C8582108583117810125B
:102C28001A43740212180C121A5A850C82850D83E5
:102C3800123DE61206D874041217D68A108B11AE0C
:102C480010AF11900300E0F51075110074027810B0
:102C58001217AD74002510F874033511F9888289AC
:102C680083A31227BC7003022B54E82403F8E93429
:102C780000F9EE4F6003022B5D8882898374FFF0B0
:102C8800A3F0900300E004F0900300E0600A123320
:102C9800141204387900800B85088285098312355F
:102CA80083790A02347874EA12183074FE1217C055
:102CB8008C128D13EA2405F50CEB123F5012272EC7
:102CC800750800750900EA2402F510EB3400F511C7
:102CD80085188285198385820A85830B780A121ADA
:102CE80043850C82850D83A3A3A3A3122E90121AE9
:102CF80043E50C2405F50AE50D123573780A121A16
:102D080043850C82850D83123DE41206CC740612AD
:102D180017D68A0A8B0BEA450B7003022E41EA2468
:102D280004F50EEB122E8612272E8A828B83A3A31C
:102D3800A3E0F985108285118312331E1206BAE9C1
:102D4800F5096003022E41E4F514F5157814121AFA
:102D5800437514E97515027814121A437514EA7547
:102D680015027814121A43740612180C121A5A799A
:102D780013AC0AAD0B85108285118312331E12071E
:102D8800F274081217D6E9F5096003022E41900281
:102D9800E9E0F8E5087009E02402900301F08017E3
:102DA800900301E0FCE82402FAE43400FBEA6C70CA
:102DB80001EB6003022E45850882AA82122FC59472
:102DC80014122FBD5073850E82850F83E0C0E07406
:102DD800022A122E7DD0E0F00508850E82850F8329
:102DE800A3E0C0E085080A7402250A122E7DD0E00F
:102DF800F005089002E9122E90121A437CEA7D022F
:102E080085080A7402250AFA74033400FB1210209C
:102E180074021217D69002E9E02508F50874FF6ECF
:102E2800700374FF6F6012EE24010EEF3400FFE5AB
:102E380008C394145003022CD8E508601312320911
:102E480085108285118312331E12043E7900801486
:102E5800E509700375090A851282851383EEF0A3CC
:102E6800EFF0A90974021217D67F0E02190285081D
:102E78000C7402250CF58274033400F583223400A7
:102E8800F50F850E82F58322123B132274EE121879
:102E98003074FE1217C08C0E8D0FEA2405F50CEB6A
:102EA800122AA4750B00900300E4F0F50AEA240244
:102EB800F508EB3400F5098049900300E0FA900228
:102EC800E9E0F8122FC59417122FBD400D900300AA
:102ED800E0F87416C3989002E9F0122FCE121A4344
:102EE8007CEA7D0274012AFA74033400FB12102074
:102EF80074021217D69002E9E0F8900300E028F077
:102F0800050AE50C2416F582E50D122E81E0F8E598
:102F18000AC3984003022FA6900300E0C3941650FA
:102F28007DE50AC333F8E433F9E50C28FEE50D39ED
:102F3800FF851882851983AC82AD838E828F8312B8
:102F4800331E1206D28A108B11AC10AD11EC4D70E5
:102F580005750B018043E4F510F5117810121A433A
:102F68007510E97511027810121A437510EA751177
:102F7800027810121A43740612180C121A5A79168B
:102F880085088285098312331E1207F27408121706
:102F9800D6E9F50B7003022EC112357F80107C0034
:102FA8007D0385088285098312331E120450A90BFC
:102FB800740202347AE99400C365D03322EA28F80F
:102FC800E43400F9E822E0F5107511007810227455
:102FD800EA12183074FC1217C08A0C8B0D8C128DF3
:102FE80013EA2405F50AEB12357375080075090014
:102FF800E50A2402F510E50B3400F51174021218E5
:103008000C85820E85830F780E121A43850A8285F5
:103018000B83A3A3A3A3123ABF121A43E50A2405FC
:10302800F50EE50B3400F50F780E121A4385108261
:103038008511831235791233181206CC74061217CB
:10304800D68A0E8B0FAE0EAF0FE50C2402F50EE5F7
:103058000D3400F50F80408882898374FFF00508DD
:10306800122E7674FFF005089002E9E0F50C750D54
:1030780000780C121A437CEA7D0285080C7402253C
:103088000CFA74033400FB12102074021217D69045
:1030980002E9E02508F508EE4F60718E828F83A360
:1030A800A3A3E0F9850E82850F8312331E1206BA98
:1030B800E9F509EE2404122AA1E97044E4F514F5AF
:1030C800157814121A437514E97515027814121A32
:1030D800437514EA7515027814121A437408121805
:1030E8000C121A5A7911EEFCEFFD850E82850F83BA
:1030F80012331E1207F274081217D6E9F509602771
:10310800850C82850D831231FF12358CE50870031A
:103118000231E5123209850E82850F8312331E12A1
:10312800045679000231FA850882AA82EA9002E9F7
:103138007009E02404900301F08022E0F890030174
:10314800E0F514E82404FCE43400FDEC6514700197
:10315800ED70C0122FC59412122FBD50B6850C8287
:10316800850D83E0C0E074022A122E7DD0E0F005C0
:1031780008850C82850D83A3E0C0E0122E76D0E08E
:1031880012321B85820C85830D780C121A43740445
:1031980012180C121A5A851082851183123DE612F4
:1031A80006D874041217D68A0C8B0DAE0CAF0D8599
:1031B800080C7402250CF874033400F9EE4F700300
:1031C80002305F851882851983E0888289831232EC
:1031D8001BA3E0C0E0122E76D0E002306DE5097046
:1031E8000375090A850A82850B831231FF12358C13
:1031F800A9097404022E6E123DD5851282851383A7
:1032080022900301E0F5F0E50884900300F07C00CB
:103218007D0322F005088518828519832274EC1233
:10322800183074FE1217C08A088B098C0E8D0FEAAD
:103238002405FEEB3400FF851882851983AC82AD26
:10324800838E828F8312331E1206D28A0A8B0BEE6C
:103258002418122AA1EA450B70030232EF123461D6
:10326800503285188285198312331E1207E68A1098
:103278008B11EA4511606B7912AC0AAD0B85088297
:1032880085098312331E85108285118312182EE951
:10329800F50A7058E4F50AF50B780A121A438E827B
:1032A8008F83A3A3E0F50A780A121A43EE240312C7
:1032B8003570780A121A438E828F831233281207C8
:1032C800F874061217D6E9F50A7021850C82850D67
:1032D80083E0701F85088285098312331E12045CFF
:1032E8008011750A0E8009750A018004E50A6003D9
:1032F80012357F850C82850D83E060047900800299
:10330800A90A74021217D67F0C0219027C007D03E9
:10331800850A82850B8312332222E0FAA3E0FB227E
:10332800E0FCA3E0FD85088285098312332222741C
:10333800EE12183074FE1217C08A088B098C0C8D97
:103348000DEA2405FEEB3400FF750E008518828512
:103358001983AC82AD838E828F8312331E1206D2FC
:103368008A0A8B0BEA450B700302344D1234615004
:103378003585188285198312331E1207E68A0E8B4B
:103388000FEA450F605E7912AC0AAD0B850882859D
:10339800098312331E850E82850F8312182EE9F5D4
:1033A8000E6003023450850882850983123667AAA5
:1033B8000AFB1207DA8A108B11A810A911E84970C4
:1033C8001E7AFF7BFF1207DA8A108B11A810A91149
:1033D800E849606C88828983E50AF0A3E50BF075FB
:1033E8000A008007750E0E805F050A9002E6E0FA73
:1033F800E50AC39A504AE50A75F017A4FAABF088B3
:10340800828983A3A3E02AFAA3E03BFB8A828B8309
:10341800123579EC4D70D2750A17750B00780A12BF
:103428001A43EEFCEFFD12102074021217D6EEFCC0
:10343800EFFD85088285098312331E120462801409
:10344800750E098003750E01123DCD850C82850D20
:103458008312358CA90E022FB8E5082402F508E579
:10346800093400F5098A828B83A3A3A3E0A2E5228D
:1034780074041217D67F0A02190274EC1218308CE1
:10348800108D11EA2405F50CEB122AA4750F00EA39
:103498002402F50AEB123573850A82F58312331E6E
:1034A8001207DA8A088B09EA45097003023565753F
:1034B8000E008071850C82850D83E06401704F8E4B
:1034C800828F83A3A3121A5A8E828F83A3A3A3A3E6
:1034D800E0F5127513007812121A43EE2405F5125E
:1034E800EF3400F5137812121A431233181207F842
:1034F80074061217D6E9F50F6014850C82850D83C2
:10350800E4F0123DCD85108285118312358C7C172D
:103518007D007900EEFAEFFB1210388E828F83E47B
:10352800F0A3F0050E9002E6E0F8E50EC398501EF1
:10353800E50E75F017A4F8A9F0850882850983A31C
:10354800A3123F5A123579EC4D60030234BC85084A
:103558008285098374FFF0A3F0E50F700612331813
:10356800120468A90F02330FF50AEF3400F50B2295
:10357800A3E0FCA3E0FD228E828F83123DD5850E49
:1035880082850F83E8F0A3E9F022C082C08390020D
:10359800E2E06A7003A3E06B70067AE27B028004C3
:1035A8007A007B0002287FC082C08378008C828DDD
:1035B80083E06A7003A3E06B7010E875F003A4F869
:1035C800A9F0EC28FAED39FB8015088C828D83A3CD
:1035D800A3A3E06A7003A3E06B60DF7A007B0002BC
:1035E800287F74F61218301207A48A828B83E5822A
:1035F800458370067A007B008007A3A3A3A3123338
:103608001E023C7E74F2121830E9FE740E12180C79
:10361800123667741012180C123ADF8C828D83E010
:1036280064027036A3123DDBF50CA3E0F9A80C7414
:10363800026870037429697021750C02750D007891
:103648000C121A437808121A43780A121A43EEF930
:1036580012081C74061217D680027901023D02E096
:10366800F50AA3E0F50B2274E812183074FB121760
:10367800C0E9851882851983F08A168B17ECFEED50
:10368800FF751000741D12180C123DD1741D12180C
:103698000C12358C8E828F83A3A3A3E0A2E4502D55
:1036A800741D12180C12331E1207E68A828B83E5EA
:1036B8008245837003023AB0790AEEFCEFFDAA1640
:1036C800AB1712182EE9F5106003023AB3741F12F3
:1036D800180C123ADF742112180C12366774231270
:1036E800180CE0F50EA3E0F50F8E828F83E06402DC
:1036F8006003023A5EA3123DD1850882850983A33F
:10370800858212858313EE2406122AA18882898372
:10371800E0FAA3E0F9EA2400F514E439F515781481
:10372800121ACD0100002801285337070002281873
:10373800380328853700294F3901297A3902291B8E
:103748003903294F390429F9395E3AE50E450F60E6
:1037580003023A59850C82850D83123AD4FAE9FBA3
:103768008A828B83E0850A82850B83123B0A121AB0
:10377800438A828B83A3E0FCA3E00239E3E50E458C
:103788000F6003023A59850A82850B837401F0128F
:103798003AE7850882850983F07C007D008E828F58
:1037A80083A3A3A3A3E02401FAA3E03400FB120639
:1037B800D2EA4B60418A828B83E02402F8850A8230
:1037C800850B83E028F0EA2404F8EB3400F98882BA
:1037D8008983E0851282851383123B1C123B0A12EF
:1037E8001A438A828B83123578E5082403FAE5099F
:1037F8003400FB0239E8850A82850B83E02404F053
:103808007C047D007900AA12AB13121038023AB377
:10381800E50E450F6003023A59123AE7FEA3E0FFAE
:10382800850A82850B837404F0EE850882850983F6
:10383800F0EF851282851383F0740312180CAC82A2
:10384800AD83EEFAEFFB1206D28A0C8B0DEA450D1A
:1038580070030238FC8A828B83A3A312272A74017F
:1038680012180C85820E85830F780E121A43740580
:1038780012180C121A5A7CFF7DFF1206D874041213
:1038880017D68B0FEA450F7033850C82850D83128E
:103898003ABF121A43850C82850D83A3121A5A7CEB
:1038A800027D007A9F7B9312050474041217D6E9EF
:1038B800700A740112180C74FFF0A3F08E828F83C3
:1038C800E064027039750C02750D00780C121A4309
:1038D8008E828F83123578E5082404FAE5093400CE
:1038E800FB12102074021217D6850A82850B83E01A
:1038F80024028009740112180CEEF0A3EFF0740191
:1039080012180C123AD0F0740112180CA3123AC80B
:10391800023A53E50E450F6003023A59850C828539
:103928000D83123579AA16AB17120810850A8285FD
:103938000B837402F0EA850882850983F085128278
:10394800851383EB023A56E50E450F6003023A5998
:10395800123AE7F8A3E0F9850A82850B837402F02E
:10396800E8850882850983F0E98512828513830238
:103978003A56850C82850D8312331E12101AEAFC02
:103988008C82A882C3950EE4950F405FE8650E709F
:1039980002E50F70047C008022851882851983E077
:1039A800FAE50E2AFAE50F3400FBC3EA98EB940017
:1039B8005003E08005E50ECCC39CFCEC850A8285AB
:1039C8000B83F08C0A750B00780A121A43850C8257
:1039D800850D83E0250EFCA3E0350FFDAA08AB0991
:1039E80012102074021217D6023AB3751007023A61
:1039F800B3E50E450F705A850C82850D83123DD1B3
:103A0800850A82850B837407122736123AC8122753
:103A180036A3E0851282851383F0E82402FAE9349C
:103A280000FB8A828B83123AC8123AF7123AD0A363
:103A3800123B00123AD9F0E82405F8E93400F98875
:103A4800828983123AD9A3123B1CA3A3A3A3F080B3
:103A58005A75100B8055741D12180C12331E12075C
:103A6800A48A828B83E5824583603D123DD1880C10
:103A7800890DE8450D6031780E121A43780A121A3A
:103A8800437808121A43740612180CE0F9EEFCEF9A
:103A9800FDAA16AB17850C82850D8312182E7406A5
:103AA8001217D6E9F510800375100EA910740512C7
:103AB80017D67F10021902E0F50E750F00780E2256
:103AC800E085088285098322123B2622123DD5E82B
:103AD80022123B26A3A322E0F508A3E0F5092285DC
:103AE8000C82850D83E0F8A3E0F5838882E022A3A9
:103AF800A3F08A828B83A322F088828983A3A3A35D
:103B0800A322F08A828B83123B1322E0F50A750BFD
:103B180000780A22F088828983A3123B2622E08556
:103B28000882850983A3A32274EE12183074FE124A
:103B380017C08A0A8B0BECFAEDFB741412180CE010
:103B4800F510A3E0F511741612180CE0FE741812A3
:103B5800180CE0F50EA3E0F50F851882851983ACE3
:103B680082AD831206D28A0C8B0DEA450D60498519
:103B7800188285198312331E1207A48A828B83E563
:103B8800824583602FA3A3123ADFE5084509602424
:103B9800780E121A437810121A43EEF9AC0CAD0DD8
:103BA800AA0AAB0B85088285098312182E740412A1
:103BB80017D68006790E80027901022FB874F612A2
:103BC800183074FE1217C0740C12180C123AD485EF
:103BD8001882851983F0740112180CE9F0E4F508CD
:103BE800F5097808121A437508027808121A4374FE
:103BF8000412180C8582088583097808121A431262
:103C080007F874061217D674021217D6806874F76C
:103C1800121830EAFEEBFF89087C197D03120810A0
:103C2800EA5402600BA908EEFAEFFB1206C68002FE
:103C3800790102263274F612183074FF6A70037420
:103C4800FF6B70168C828D83123C83E4F08C828D1E
:103C580083A3A3A3123C83A380181207E08A088BCE
:103C680009A808A909E849600D8882898374FF12A8
:103C78002734A3A3E4F07F0202190274FFF0A3F033
:103C88008C828D83A3A32274F61218301207E08A5F
:103C9800828B83E58245836006A3A3E0FA80027ADB
:103CA800007B0080D174F21218308A088B09ECFE70
:103CB800EDFF740E12180CE0F50A1207E08A0C8B5F
:103CC8000DA80CA90DE8497026EEFCEFFD7AFF7BE4
:103CD800FF1207E08A0C8B0DA80CA90DE8497004A7
:103CE8007911801688828983E508F0A3E509F088B0
:103CF800828983A3A3E50AF079007F06021902747A
:103D0800EE121830EAFEEBFF8C088D09890C74144A
:103D180012180C123DD1741612180C12331E750DA0
:103D280000E8496003023DC57402650C6003023D6A
:103D3800C0741212180C123DDBFCA3E0F9EC24004D
:103D4800F50EE439F50FEAF4F8EBF4F9EC58F8E578
:103D58000F59F9E849705CE5082406F8ED3400F9D4
:103D6800880A890B8882F583123DE61208108A10AA
:103D78008B11E50E65107004E50F65116042780E31
:103D8800121A43850A82850B83123DE612081674BF
:103D9800021217D6E9F50D7027780E121A43850816
:103DA80082850983A3A3123DE412082E7402121718
:103DB800D6800D750D808008750D0D8003750D0B6F
:103DC800A90D02347D8E828F83123DD522E0F8A39F
:103DD800E0F922123DD588828983E022A3A3E0FC82
:103DE800A3E0FDEEFAEFFB2274E812183074E71234
:103DF80017C0851882851983EAF0A3EBF08C168D1D
:103E080017890E750800750900743112180CE0F551
:103E180012A3E0F513743312180CE0F514A3E0F5BF
:103E280015743512180CE0F50FE50975F003A4F8C0
:103E3800A9F0851882851983123F5AE0F47003A30C
:103E4800E0F47003023F3DEE2402F50CEF123F5000
:103E5800E07003023F3D85160A85170B780A121A8F
:103E680043AC14AD15AA12AB1312079874021217BB
:103E7800D68A0A8B0BEA450B7003023F3DE4F51026
:103E8800F5117810121A43740612180C85821085E1
:103E980083117810121A43740912180C8582108540
:103EA80083117810121A43851282851383A3A3A362
:103EB800A3121A5A7914AC0AAD0B8E828F8312336F
:103EC8001E1207F274081217D6E97069850A8285EE
:103ED8000B83A3A3A3A3123DD1740212180C1235AD
:103EE8008C850C82850D83E0A2E05018A90E74021F
:103EF80012180CAC82AD838E828F8312331E120689
:103F0800EAE94208850C82850D83E0A2E15026E5A6
:103F18000FF50A780A121A47A90E740312180CAC86
:103F280082AD838E828F8312331E1206E4740112CF
:103F380017D6E942080509E509C394025003023E71
:103F480031A9087419023AB73400F50D850C82F5C9
:103F58008322E028FEA3E039FF8E828F832274F249
:103F6800121830EAFEEBFF890B7401650B600E74C2
:103F780002650B706A79011209FCE97062EEFAEFCA
:103F8800FB1207DA8A088B09EA45096047750A00B7
:103F9800800B7C177D007900121038050A9002E624
:103FA800E0F8E50AC3985021E50A75F017A4F8A9C6
:103FB800F0850882850983A3A3E028FAA3E039FBEA
:103FC8008A828B8312288670C98508828509837442
:103FD800FFF0A3F07C197D03EEFAEFFB12080A024A
:103FE8003D0274F21218308A088B09ECFEEDFF745A
:103FF8000E12180C123667900D02E0F4603D7A0933
:104008007B0012104AEA4B60328A828B8374B1F0CB
:10401800A3E4123AF9A3123AF7A3E508F0A3E509D5
:10402800124046EEF0A3EF124046A3A3E50AF0A320
:10403800E50BF0900D02E0F9121056023D02F08AED
:10404800828B83A3A3A3A3A32274F012183074FA5B
:104058001217C08908ECFEEDFF7509008A0A8B0B60
:10406800780A121A8700041079429440B240CC4072
:10407800E44002411A413D41554169419341104292
:1040880021423842534279427942A9417401650874
:1040980060030242748E828F83E0F8C39403400366
:1040A800024274E8900DEE02425074026508600303
:1040B8000242748E828F83124A21900DEFE8F0A39A
:1040C800E90242507401650860030242741242A179
:1040D8004003024274E89007660242507401650882
:1040E80060030242748E828F83E0F8C39405400314
:1040F800024274E890076702425074016508600341
:104108000242741242A14003024274E89007680216
:104118004250741065086003024274750A10750BEA
:1041280000780A121A437A697B0712102074021267
:1041380017D602429A74016508600302427412425B
:10414800A14003024274E890077902425074016565
:104158000860030242748E828F83E0900DF202425F
:10416800507404650860030242748E828F83780C51
:1041780012167890933B780C1214AB5003024274D9
:1041880090077B780C12168702429AE96003024274
:1041980074120672E970051211B8805690080E80E4
:1041A80063740765086003024274750A06750B009C
:1041B800780A121A438E828F83A3AC82AD8374026D
:1041C80012181E12102674021217D67C007D00AA3F
:1041D80018AB198E828F83E0F9121164E9F50AC3CE
:1041E800940A4003024297120672E9700CA90A1257
:1041F80011BE7950121380806E740F250AF582E47F
:104208003408F5837401804074016508705E1242B9
:10421800A15059E890077A802F74016508704D8E77
:10422800828F83E0F8C3940A5042E8900DF1801819
:104238007401650870368E828F83E0F874F928C39C
:10424800940A5028E8900DF3F080477401650870CF
:104258001B90080DE0F88E828F83E090080DF0E83F
:104268007030E06401702B1211AC8026750918803B
:1042780021C3EA9427EB9400501574026508700F67
:104288008E828F83124D44120510E9F5098003755B
:104298000902A90974060246818E828F83E0F8C359
:1042A800940222740E1217D67F0402190274F012B7
:1042B800183074B11217C08C0E8D0F9092EA7420CA
:1042C80012182674061216D37420121826121164B6
:1042D800E9F50B745F12180CE0F50CE9C3940A4079
:1042E8000302443375F006E9A4F50974411218264F
:1042F8007A0E74202509F912137AE97009744D129F
:10430800180CE0FE80027E00900DEEE0640270055D
:1043180075080180037508007408650C7004742220
:10432800800274212509FF7C1B7D00790074261208
:10433800181E121038EEA2E0E433F50A742612189B
:10434800267A1BEFF912137AE97025744012180CBB
:10435800E024F9C3940A50187808121A47742712EF
:104368001826A90AAA0EAB0F1205B274011217D6A5
:104378007C147D007900740C12181E121038740C0D
:104388001218267A1074242509F912137AE9703064
:104398007C1079FF740C12181E12109EE97021749B
:1043A8001C12180CAC82AD837A0474252509F91205
:1043B800137A740C121826A90AAA0EAB0F12059AC2
:1043C800AC18AD197A0C7470250BF912137AE970D0
:1043D80049AA18AB191211947F00EF75F003A4F8DD
:1043E800A9F0851882851983E58228F8E583124BA0
:1043F80049124D3E601D88828983A3A3E0F50875A4
:1044080009007808121A43AA0EAB0F1207FE7402AD
:104418001217D60FEFC3940440C0EEA2E1500C90DF
:104428000765E0F9AA0EAB0F1208047404650C7056
:1044380027900DEEE06402701F7A00900779E06023
:10444800010A900766E06004780480027800E84A70
:10445800F9AA0EAB0F12065A7900744F02468174FE
:10446800F112183074F01217C08A0C8B0D8C088D5D
:10447800097E0AE9600C14600914603A1460750238
:10448800454D1211A6E9FEC3940A400302454DE5C5
:10449800084509700302454D750A06750B00780A30
:1044A800121A43AC0CAD0DAA08AB09121020740205
:1044B8001217D602454D7F00750A06750B00780A5B
:1044C800121A43AC0CAD0DEF75F00EA4F8A9F074F8
:1044D8008728FA740739FB12103274021217D6E9CA
:1044E80070090FEFC3940A505C80CDEFFEC3940AA5
:1044F800505380427F00AC18AD197A1075F006EF62
:10450800A42423F912137AE9701C7C1079FFAA18E5
:10451800AB1912109EE9700EAC0CAD0DAA18AB19B0
:1045280012057CE960090FEFC3940A501880C7EFA1
:10453800FEC3940A500FE50845096009AA08AB09AB
:10454800EEF91211A0EEF974101217D67F070219AE
:104558000274F4121830E9FF7E1574FF6A70037450
:10456800FF6B7028750800EFFC7A027B00A908121F
:104578001182E960027E000508E508C3940A40E755
:10458800EF604E7AD07B11120A0E80451209F08A2C
:10459800088B09EA450960387C007D00EA2405FAA1
:1045A800E43509FB850882850983A3A3A3A3E0F961
:1045B800121164E9C3940A500BEFFC7A027B0012D3
:1045C80011827E00EF600AAA08AB091211D080019F
:1045D8001EEEF90242B074F21218308C088D097E72
:1045E80015740E12180CE0F50AA3E0F50B74FF6AB7
:1045F800700374FF6B701D7F00AC0AAD0BAA08AB8B
:1046080009EFF9121188E960027E000FEFC3940ADE
:10461800503B80E51209F08A828B83E582458360EE
:104628002B7C007D00E5822405FAE43583FBA3A3F7
:10463800A3A3E0F9121164E9C3940A5010AC0AADBF
:104648000BAA08AB091211887E0080011EEEF97FC3
:1046580006021902C082C08390077FEAF0A3EBF03C
:10466800900765E0FC7D007A267B00120510900714
:1046780065E0F912077A0251441217D67F08021929
:104688000274F012183074EC1217C0EAFEEBFFEE59
:10469800240CF50CE43FF50DEE2405F50EE43FF58A
:1046A8000FEE2409F50AE43FF50BEE2403F508E4C0
:1046B8003FF5098E828F83A3A3E024FA7003024991
:1046C8004524FD70030248631470030247601460B8
:1046D8001024FD700302483A14700302489A0249F4
:1046E8009C125446604AE0F5838882E0F50EA3E008
:1046F800F50FE50E450F6038850C82850D83E0F5D2
:104708000C780C121A47EE240BF582E43FF583E08F
:10471800F9850A82850B83124D440A0A0AAB09857A
:104728000E82850F8312182E74011217D602499C27
:10473800850A82850B83121A5A90077B12169612E5
:1047480005AC74021217D6E9700302499C790185F9
:104758000A82850B830249108E828F83A385820A81
:1047680085830BE0600302481D850E82850F83E078
:10477800A2E0400302481D90081912544960030240
:10478800481D7C0E7D007900AA18AB1912103885D7
:104798000C82850D8312510FEA4B6010750C06755B
:1047A8000D00780C121A43EA2410801B12510912CA
:1047B80009F0EA4B700302499C750C06750D0078E8
:1047C8000C121A43EA2405FCE43BFD740212181E7D
:1047D80012102074021217D6850E82850F83E0A26C
:1047E800E25004D2F08002C2F0A2F0E433F8740C74
:1047F80012180CE048F0EEFCEFFDAA18AB191211E4
:104808009AE970117A027B00900765E0F912107A34
:10481800790002499E125446700302499C1249A32A
:10482800700302499C850A82850B83E0FC790102AA
:104838004939125446700302499C1250CE890BE83C
:10484800450B700302499C8E828F83A3E0FC79029A
:104858001251098882850B830249407C007D00EE55
:104868002404FAE43FFB850882850983E0F91211E4
:1048780064E9F8C3940A400302499CEE240AFCE464
:104888003FFD7A0475F006E8A42425F91213740292
:10489800499C12510990077AE06007900DF1E0F900
:1048A8008069900DEEE070047905805F1209F08A46
:1048B8000C8B0DA80CA90DE82404F50CE439F50DB2
:1048C8008E828F83A3A3A3A3A3A3A3E0A2E0504156
:1048D800E849700302499C850C82850D83E0FE60DF
:1048E80030850A82850B83E054107025740E1218E7
:1048F80026E82405FAE439FBEEF9121164E970118F
:10490800790385088285098312510F1205A6024989
:104918009CAC0EAD0F850C82850D83E0F912510910
:104928001211DC125446606C1249A360677C00794E
:10493800001251098E828F8312182E805712067228
:10494800E9705190080EE0640170151211B89008D2
:104958000EE4F07C0AFDF97A0F7B08121038802CDF
:10496800750A00850A08740F2508FEE43408FF8ECE
:10497800828F83E06401700BA90A1211BE8E828FA8
:1049880083E4F0050AE50AC3940A40D77950121364
:10499800801211AC790174140246811250D2E8FEDB
:1049A800E9FFEE4F2274F412183074F21217C0EABD
:1049B800FE8C0975F006E9A42420F508AC18AD1999
:1049C8007A0EF912137AE9704B7C0679FFAA18ABB4
:1049D8001912109EE9703D740C12180C124A21E845
:1049E800F50BE5096005EE420B8004EEF4520B85E9
:1049F8000B82AA82E86A7001E96015740C12180C1F
:104A0800EAF0A3E4F0AC18AD197A0EA908121374F1
:104A18007901800279000242ABE0F8A3E0F9227440
:104A2800F212183074E61217C089098A0C8B0DEC43
:104A3800FEEDFF740C1218267A0E75F006E9A42410
:104A480020F912137AE96003024B0C7C0679FF7493
:104A58000C12181E12109EE96003024B0C7470258C
:104A680009F508AC18AD197A0CF912137AE9600344
:104A7800024B08AA18AB19121194E50C450D701DCC
:104A88007C0C7900AA18AB1912109EE970727C0C84
:104A98007D007900AA18AB191210388051AC18ADF6
:104AA80019AA0CAB0D12118E8A0A8B0BA80AA90B36
:104AB800E8497022EE4F604CAC18AD197A007B00C3
:104AC80012118EEAF8EBF9EA4B603988828983E59E
:104AD8000CF0A3E50DF0124B85FAEE6A7001EF6059
:104AE8001FEEF04F700888828983E4F0A3F0AA18BB
:104AF800AB19121194AC18AD197A0CA908121374D9
:104B0800790180027900741A1217D602465774F791
:104B18001218307F00EF75F003A4F8A9F0EC28F81C
:104B2800ED124B49E06A7003A3E06B7006E8FAE9FE
:104B3800FB800B0FEFC3940440DB7A007B00024E2E
:104B48008139F9888289832274F71218307E00EE41
:104B580075F003A4F8A9F0EA28F8EB124B49E0F441
:104B6800FCA3E0F4FD88828983ECF0A3EDF0124BFE
:104B780085F4F00EEEC3940440D5024E81E8240279
:104B8800F582E439F583E02274F412183074F412D3
:104B980017C0EAFEEBFF8C0A8D0B900819125449D6
:104BA800704FEE4F7003024D1FEC450B7003024D22
:104BB8001F1211A6E9900DF4F0C3940A403375084A
:104BC800007C0679FFE50875F00EA4FAABF0748155
:104BD8002AFA74073BFB12109EE96003024C780521
:104BE80008E508C3940A40D975090AE509900DF447
:104BF800F0900DF4E0C3940A4003024D1F75F006CF
:104C0800E0A4F890081912510FEA4B7069EEFCEF16
:104C1800FD7A0E742028F91213747C0C7D0079FF3C
:104C2800AA18AB19121038AC18AD197A0C900DF4FB
:104C3800E02470F912137475080E750900780812CB
:104C48001A43EEFCEFFD900DF4E075F00EA4F8A900
:104C5800F0748128FA740739FB12102074021217B5
:104C6800D6900819E50AF0A3E50BF07900024D216A
:104C7800850809024BF3124D262406124D38601997
:104C88007A1B742128F9121374124D2F2406F58209
:104C9800E438F583E4F0A380D1124D26240A124D9E
:104CA8003860107A1B742228F9121374124D2F24BD
:104CB8000A80DB124D26240C124D3860107A1074CD
:104CC8002328F9121374124D2F240C80C1124D267B
:104CD8002408124D3860347A10742428F912137499
:104CE800124D2F2408F582E438F583E02410FCA344
:104CF800E03400FD7A0475F006900DF4E0A4242554
:104D0800F9121374124D2F2408808390080DE06067
:104D1800031211E21211D67901740C0242AD900807
:104D280019E0F9A3E0C922900819E0F8A3E0C82225
:104D3800F582E439F583124D44EC4D22E0FCA3E002
:104D4800FD2274F412183074F21217C0EAFEEBFF59
:104D5800E9C3940A5004EE4F700479028034AC1809
:104D6800AD197A0E75F006E9A42420F912137AE930
:104D7800F508701C750A06750B00780A121A437438
:104D880002121826EEFAEFFB12102074021217D640
:104D9800A9080242AB74F4121830EAFEEBFF75085A
:104DA80000750A06750B00780A121A43EEFCEFFD2F
:104DB800E50875F00EA4F8A9F0748128FA7407398B
:104DC800FB12103274021217D6E96004A908800B8E
:104DD8000508E508C3940A40C8790A0242B074F786
:104DE800121830750800E50875F00EA4F8A9F074DB
:104DF8008128FE740739FFEEFCEFFD7A0E75F00688
:104E0800E508A42420F912137AE960297C067D00BC
:104E180079FFEEFAEFFB1210387C067D0079FFEE81
:104E28002CFAE43FFB121038EE240CF582E43FF52F
:104E380083E4F0A3F00508E508C3940A40A89008A5
:104E48000DE060031211E21211D6802D74F71218CA
:104E5800307E007F007C0679FFEF75F00EA4FAAB78
:104E6800F074812AFA74073BFB12109EE970010E58
:104E78000FEFC3940A40DEEEF97F0102190274F7BE
:104E88001218307E00EEF91211BE0EEEC3940A50CD
:104E980003E960F180E374F312183074CB1217C081
:104EA800E9FF900DF4E06F701B7A017B00900765B5
:104EB800E0F91210807A027B00900765E0F9121081
:104EC800801211EE75F006EFA4FE74202EF508741A
:104ED800271218267A0EA90812137AE96003024FDE
:104EE800A47C0679FF742712181E12109EE960032D
:104EF800024FA47C0E7D0079FF742712181E121031
:104F0800387C1B7D0079FF740C12181E1210387C37
:104F18000C7D0079FFAA18AB1912103874271218E3
:104F2800267A0EA908121374E9F508740C121826CB
:104F38007A1B74212EF9121374E9F50C740C1218EB
:104F4800267A1B74222EF9121374E9F50B740C12CD
:104F580018267A1074232EF9121374E9F509740CC3
:104F68001218267A1074242EF9121374E9F50A74AB
:104F78000C1218267A0474252EF9121374E9FEAC63
:104F880018AD197A0C74702FF9121374E9F8E50C3E
:104F9800450B4509450A4E4842088003750800A993
:104FA8000874351217D67F0502190274F7121830E3
:104FB800E9900765F01211AC024E8174F4121830B2
:104FC800EAFEEBFF5480700302505B900765E0F93E
:104FD8001210628A088B09EA4509607078018A8292
:104FE8008B83E02450603D14600624E1604F8052BA
:104FF800A3A3A3A3E0704E8A828B83A3A3A3A3A336
:10500800A3A3121A5A8A828B83A3A3A3A3A3124D24
:10501800448A828B83A3A312510F12117074021257
:1050280017D68021A3A3A3A3E0641E701879008A71
:10503800828B83A3A312510F12116A800812117C6C
:10504800E9F8E86007AA08AB09121050EEFAEF6415
:10505800808065EE540260237C007D007A007B002E
:1050680012119AE960117A017B00900765E0F91244
:10507800107AEE6402803F7A028046EEA2E0503F4A
:105088001250DF12510F1211E8E9602F12544660D6
:105098001F1250CE88088909E8450960137C0079F9
:1050A800011250DF12510F85088285098312182ECC
:1050B8001211EEEE6401FAEFFB80087A0180027AA1
:1050C800007B000242B01250D222E0F5838882A30E
:1050D800A3E0F8A3E0F922900819E0F8A3E0F5832B
:1050E8008882A3A3A3227F02021902C082C08390F0
:1050F8000765E0F98A828B83A312510F1208048096
:105108003B850882850983E0FAA3E0FB22C082C0C0
:105118008374FF1217C01211B2E9C3940285188272
:10512800851983400474028002740AF0AC18AD1922
:105138007A01790512068A74011217D6D083D082B3
:1051480002011F74F412183074E81217C08A088B11
:1051580009E9FE8C0A8D0B7C187D007900AA18AB32
:1051680019121038851882851983E508F0A3E50916
:10517800F0900767E0C0E0740212180CD0E0F090DD
:105188000768E0C0E0740312180CD0E0F0900DF34B
:10519800E0C0E0741712180CD0E0F0741512180C67
:1051A800E054FEF8A3E0F9900DF2E0A2E0E433FA4F
:1051B800E84AF8741512180C1252E6A2E15004D20B
:1051C800F08002C2F0E854FDFAA2F0E43325E0F8DA
:1051D800EA48F8741512180C1252E6A2E35004D2E9
:1051E800F08002C2F0E854F7FAA2F0E433F508754B
:1051F8000900740378081217AD1252DF12180C1246
:1052080052E6A2E45004D2F08002C2F0E854EFFA69
:10521800A2F0E433F508740478081217AD1252DFCF
:1052280012180C1252E6A2E55004D2F08002C2F025
:10523800E854DFFAA2F0E433F50874057808121789
:10524800AD1252DF12180C1252E6A2E25004D2F04C
:105258008002C2F0E854FBFAA2F0E433F5087402C5
:1052680078081217AD1252DF12180CE8F0A3E9F013
:10527800900768E0601D7508107808121A437C6969
:105288007D07740612180CAA82AB831210207402D0
:105298001217D6900779E06010EE6009741512189D
:1052A8000CE04402F0780180027800741412180CA3
:1052B800E048F0900766E0600478048002780074A3
:1052C8001412180CE048F0AC0AAD0BAA18AB19126E
:1052D80005A074180242ADEA4508F8741522E8F0F2
:1052E800A3E9F0900DF2E02274F712183012087C4E
:1052F800750800E50875F00EA4F8A9F0748128FE79
:10530800740739FF7C0679FFEEFAEFFB12109EE96D
:105318007009EEFAEFFB79001208820508E508C368
:10532800940A40CF024E8174F612183074FD121799
:10533800C0EAFEEBFF90081B125449703975081D2E
:105348007509087808121A43750802750900780863
:10535800121A4375089B7509937808121A437CFF43
:105368007DFF7A017B001206CC74061217D69008CE
:105378001BEAF0A3EBF090081B1254497003025487
:1053880030E4F508F5097808121A4374041218165F
:10539800880889097808121A4374041218168808AC
:1053A80089097808121A4390081D121A5A7902902E
:1053B800081B12543E1207F274081217D6E9703609
:1053C800851882851983E0FA740112180CE0F8E454
:1053D800C8F9EA28F508E439F509EA4509601778B3
:1053E80008121A4390081B1250E2A312543E1211DD
:1053F8007074021217D6E4F508F5097808121A43F2
:1054080090081D121A5A7CFF7DFF90081B12510F3D
:105418001206D874041217D690081BEAF0A3EBF012
:1054280090081B12544970047901800279007403B2
:105438001217D60250EE124D44EEFAEFFB229007F7
:105448007F124A21E84922C082C083900819125469
:1054580049601090081912510F121050900819E461
:10546800F0A3F0900DF4740AF0025144C082C08396
:105478009061907404F0A37448F0A3E4F090618004
:105488007440F09061BC7407F09061877469F09083
:1054980061B67416F07900120B047902120B0A90A7
:1054A80025E8E493F46006E493F9120AE07905121A
:1054B8000E0402586FC082C083E9540FF9906185C9
:1054C800E0696012E5C654804449F5C6E59E547FFC
:1054D800644970F8E9F053C680E59E547F70FA027B
:1054E800586F74F7121830E5A8FE53A87E120AEC1C
:1054F800C2BA539AFEC289759B00C2C2120AF275DB
:10550800A91175B905120AF8D2BA439A0174805ED6
:1055180042A8025E06C082C083906181E4F0A302C3
:10552800586C75E90075910075BF0002011FC082B3
:10553800C083906181E4F0A374C0F0A3E402586EC4
:10554800C082C08374F81217C09003A412679F70BA
:10555800030256279003A4E0544060237908851875
:1055680082851983AA82AB83120C0085188285195B
:1055780083AA82AB831208AC9003A4E054BFF0E086
:1055880054806010790C7A657B05120C009003A496
:10559800E0547FF0E0A2E0500F7900120B041208EB
:1055A800B29003A4E054FEF0E05402600F790112B7
:1055B8000B041208B29003A4E054FDF0E054046018
:1055C8000F7900120B0A1208B89003A4E054FBF0FC
:1055D800E05408600F7901120B0A1208B89003A46E
:1055E800E054F7F0E05410600F7902120B0A120829
:1055F800B89003A4E054EFF0E05420600F79031250
:105608000B0A1208B89003A4E054DFF0A3E0540199
:10561800600D120B161208BE9003A5E054FEF0743C
:10562800081217D602586FC082C083E9600514605B
:105638002A804F90619A7433F0A37455F09061A05A
:10564800743AF090053FE064017009C2919003A696
:105658007467802D9003A67461802690619A743FC8
:10566800F0A3745AF09061A0747FF090053FE06455
:10567800017009D2919003A6747180059003A674F5
:105688006AF002586FC082C083E9600B14600D1481
:10569800601714600C80209025EC80159025ED8013
:1056A8001090053FE0640170059025EE8003902579
:1056B800EFE493906186F002586F74EE121830741C
:1056C800F41217C0851882851983AC82AD8375835F
:1056D8009375822374041216D39025EC93F4600317
:1056E8000257EC907808E0C3940250030257CC7438
:1056F8000412180CAC82AD837583927582D6740837
:105708001216D3FC7EFF7FFF8E0C7D008C82858273
:105718000E800F74086D606D74096D6068740A6D91
:1057280060638D08750900740278081217AD125766
:10573800F6121678A909E50AC9F8881074187808C5
:105748001215B9E5104508FAE9FBE50EC333F8E48C
:1057580033F9740412180CE58228F582E5833912AE
:105768005CF6C3E89AE99B4008E8C39AF8E99B808D
:1057780006EAC398F8EB99F9C3E89EE99F5006E852
:10578800FEE9FF8D0C0DEDC39413408774FF6E7016
:105798000374FF6F6024850C08740278081217AD33
:1057A8001257F6121678851882851983E582250E18
:1057B800F582E583126195E508F00CECC39404507A
:1057C8000302570C7508017509007808121A43740A
:1057D8000212180CAC82AD837A7B7B0912123074EA
:1057E800021217D6740C1217D67F0A0219027448CF
:1057F8002508F58274783509F583780822C082C0B7
:1058080083906186E0F89025EFE49368700990250D
:10581800EEE493906186F09061AE7468F0A3746AC8
:10582800F090624574FBF0A304F053F4FD43FE02CC
:1058380090053F7401F09061A0E0643A700479002B
:1058480080027901120B0402586FC082C083900451
:10585800F1E06401700A9004F6E06004790C8002BB
:1058680079008003F0A3F0D083D08202011FC082A8
:10587800C08375E1F19004F4E0604D146009146090
:1058880051146049147050120B289004EAE0F97A18
:10589800EB7B04120D8690931F121696120DBC9086
:1058A8009367121696120D929004F5E0F9120D9E68
:1058B8007901120DF812599224161261927440F06F
:1058C800A3740BF07900809F120B2E80BD120B344D
:1058D80080B8120B3A80B3791280EB74F412183046
:1058E80075D90D9004D5E0A2E0E4331313F81259EA
:1058F80088484401F5D978001259F540FB780088AA
:105908000874D61266F574041259FF40F275E195D1
:105918009004D5E0F97AD67B04120D8C900D24748E
:10592800B6F0A3740A125A05125A49125A40125B69
:105938005D9004F4E064019004E8700B12599B1226
:10594800167890934B800912599B121678909357AA
:10595800780812160490937B7808121652125992FE
:10596800240E126192780812168712599224141282
:1059780061927413F09003A27402F07F040219027A
:105988009004EAE0C4333354C0229004E8E0F8A35A
:10599800E0C82212662D78082274F6121830125BBD
:1059A8002E8AD978001259F540FB78008006125AE1
:1059B800A6125BE3E8C39940F5125B201259F54043
:1059C800FB780080081266F17405125BE3E8C3995E
:1059D80040F375E195900D2474C2F0A3740A125A2D
:1059E80005125A0F7412F09003A2025DCA88087457
:1059F800EB2508F5827404125D60940622125B465A
:105A080074BCF0A3740A22125A49125A40125B61FC
:105A18009004E8E0F8A3E0C8240E125A3874FF1284
:105A2800646A9004E8E0F8A3E0C82414125A382203
:105A3800F582E83400F58322F0A374D4F0A3740A45
:105A480022125A4D22125A5122F0A3746CF0A374F8
:105A58000C2274F6121830125A9B1259884402F517
:105A6800D978001259F540FB78008006125AA61220
:105A78005BE3E8C39940F575E195900D24125AB19E
:105A8800F0A3125AB1125A127414F09003A27404BB
:105A9800025DCC9004FAE0F9740729F5D922880848
:105AA80074FB2508F58274042274CE125ABE125A69
:105AB800BEF0A3740A22F0A3740AF0A374CE227471
:105AC800F6121830125B2E74064AF5D9780012596E
:105AD800F540FB78008006125AA6125BE3E8C399EA
:105AE80040F5125B201259F540FB780080081266D9
:105AF800F17405125BE3E8C39940F375E195900DE5
:105B08002474C8F0A3740A125B3C125A0F7415F07F
:105B18009003A27403025DCC90051A125A9E740475
