:020000040000FA
:06000000020107022110BD
:03002B0002258526
:030033000225673C
:03003B000225A6F5
:0300430002251B78
:0300530002218601
:03006B000225412A
:10008300021FBFE5C754F84401F5C77901220000F8
:100093000080FB120086B900030200F1E4792178A5
:1000A30008B800028004F709D8FCE479297802B87B
:1000B30000028004F709D8FCE49002817810790EDD
:1000C3008002F0A3D8FCD9FA7A907B0F900137789D
:1000D300F479038015E493A3AD82AE838A828B8384
:1000E300F0A3AA82AB838D828E83D8E9D9E7758288
:1000F300587583B174031201197582917583007465
:100103000012011975D00075813F751881751902A8
:10011300759F00020096C09FF59FE473D09F22D085
:1001230083D082C09FE493C0E0740193C0E0740263
:1001330093F59F22FF0000B4000028002800283018
:1001430075A000A000A000A00000080008E001F0D6
:10015300001000100010001000100010005000509C
:1001630000500010001000D0070000000000000F36
:100173000001000500307507001000010081FF0039
:10018300000000FF280646062E06FF0202020802B0
:100193005000A0000000E80302F0940100001D9449
:1001A30002EC94010000E70F02E494010000B302A3
:1001B30002EC94010000E80F02E294010000C9027E
:1001C30002EC94010000E90F02E694010000CB0267
:1001D30002EC94010000EA0F02EE94080000CC0246
:1001E30002EC94010000EB0F02F894010000EC0F05
:1001F300FF0100FF2002F094010000D99402EC9467
:10020300010000501002FE940000000000021A9545
:100213000300001903700C700C700C700C700C70E0
:100223000C700C700C700C700C700C700C700C4615
:100233000F5E0F400FFFFF020202020202020202E0
:10024300010D000000100102F094010000DC940293
:10025300EC94010000931002F6940100005D070284
:10026300EC94010000941002FA94010000CD930273
:10027300EC94010000951002FC9401000097930296
:10028300EC94010000961002009501000082920296
:10029300EC940100009710020C950100004C9202AF
:1002A300EC940100009810020A950100005E92028E
:1002B300EC9401000099100208950100007092026D
:1002C300EC940100009A10020695010000A5930228
:1002D300EC940100009B100204950100009C1001A6
:1002E300E803053F100AFF00013075030201060011
:1002F30000000000000000000000000000000000FB
:100303000000000000000000000000FFFF06008066
:100313000CE80325020305070B0D1113171D1F53CB
:10032300292B2F353B3D4347494F01020304050663
:100333000708090A0B0C0D0E0F1001020304050632
:100343000708090A0B0C0D0E0F10080964422E440E
:10035300657673051250002003020A0064422E449E
:10036300657673000000000000000000000000003C
:1003730000FC130000021402307844423031000ABA
:100383003078444230320008307844423033001031
:10039300307844423034000830784442303500022B
:1003A300F094010000DF9402EC94010000D31102E9
:1003B3001095010000490F02EA94010000D41102D4
:1003C300EC94010000DB110212950300005D0F02A3
:1003D300EA94010000DC1102EC94010000E3110235
:1003E3001495020000710F02EA94010000E4110267
:1003F300EC94010000EB11021695000000850F023A
:100403001A95030000860F02EA94010000EC110222
:10041300EC94010000F3110218950200008C0F0206
:10042300EA94010000F4111201227AA203120122BC
:1004330091A203120122C2A203120122FDA20312FE
:10044300012227A30312012251A30312012268A34D
:10045300031201227FA30312012296A30312012296
:10046300BFA303120122D2A303120122E8A30312A2
:100473000122FBA30312012222A40312012238A5A5
:10048300021201223CA60212012274A602120122C8
:1004930097A602120122A2A602120122C5A60212E7
:1004A3000122D4A702120122A9A80212012224A91F
:1004B30002120122ACA902120122E7A902120122AF
:1004C3001EAA02120122ACAA0212012285AB021259
:1004D3000122E5AB02120122F0AB021201226FAC42
:1004E3000212012272AC0212012275AC0212012225
:1004F30004AD0212012207AD0212012237AD02122E
:10050300012261AD021201224FAE0212012201AF9C
:100513000212012232EF021201225AEF02120122C9
:1005230088EF02120122BFEF021201221DF0021214
:10053300012268F002120122B3F002120122F3F049
:100543000212012239F10212012267F10212012281
:1005530024F2021201222EF2021201223BF20212B3
:1005630001226EF2021201223AF30212012246F331
:10057300021201225EF30212012268F30212012227
:1005830036AD0312012244AD031201225CAD031206
:10059300012274AD031201224FB601120122FBB6F0
:1005A3000112012276B70112012297B8011201222A
:1005B300D3B8011201227CB90112012263BA0112DC
:1005C3000122C7BB011201221EBC011201229FBCE2
:1005D300011201228FBD01120122DCBD0112012291
:1005E30062BE0112012294BE01120122A8C00112AF
:1005F3000122EAC00112012208C1011201228BC1AA
:10060300011201225FC20112012227C3011201223A
:1006130084D30212012257D40212012200D50212FE
:10062300012253D50212012203D6021201228FD6D0
:10063300021201227BD702120122AAD7021201223F
:10064300BDD80212012205D902120122DAD90212FF
:10065300012216DA0212012232DA0212012206B054
:1006630003120122D08703120122E687031201221B
:100673000C880312012228890312012232890312F2
:100683000122678A031201225F8B0312012248E5CC
:100693000212012278E602120122ABE602120122C3
:1006A300F5E602120122BCE80212012260A6011241
:1006B3000122CAA60112012229A80112012239A886
:1006C3000112012266A801120122BDA80112012212
:1006D30066A9011201226DAA0112012237AB011290
:1006E300012297AC01120122DAAC011201227FAD83
:1006F30001120122CCAD01120122F2AD011201223D
:1007030000B00112012205B0011201220AB2011246
:10071300012257B201120122CAB201120122FDB213
:10072300011201229FB30112012248B401120122D6
:1007330080B40112012283B401120122CBB401124D
:1007430001220BB50112012262B5011201223D9B68
:1007530003120122559B031201229D9B03120122C6
:10076300B39B03120122FA9B031201220E9D031273
:1007730001229B9D03120122E69D031201221826EA
:10078300001201222426001201225F2600120122F8
:10079300A42600120122642700120122EA27001274
:1007A30001221628001201224F28001201228D2A4D
:1007B30000120122712C00120122572E0012012275
:1007C3009A2F00120122E83100120122FA3200129C
:1007D30001224534001201225535001201227235DF
:1007E30000120122AD3500120122CF350012012281
:1007F300323600120122F33A00120122883B001222
:100803000122D93B00120122003C00120122523C7A
:1008130000120122703C00120122CA3C0012012284
:10082300C93D001201224D3E0012012215E00212C1
:1008330001221FE00212012262E0021201227DE086
:10084300021201220DE10212012235E102120122FC
:1008530072E102120122A9E102120122D2E1021283
:10086300012247E2021201225CE20212012271E23A
:1008730002120122A2E202120122B6E202120122B4
:10088300DBE20212012215E30212012241E302120A
:10089300012279E302120122D8E30212012257E472
:1008A3000212012282E402120122CBE4021201228B
:1008B300F5E40212012220E50212012240AA0312EA
:1008C3000122378D02120122658D02120122B38E9D
:1008D30002120122938F02120122B28F021201220D
:1008E3002F9002120122729002120122C891021269
:1008F3000122899202120122109502120122B1955E
:1009030002120122A79602120122A49702120122C7
:10091300FE9802120122899902120122E5A803120C
:1009230001224EA903120122A2A903120122C9A97D
:1009330003120122FAA903120122EFF30212012288
:100943005CF402120122A3F402120122BBF502128B
:100953000122B7F6021201229AF702120122EBC218
:10096300021201222DC302120122FFC3021201222D
:10097300D8C402120122D2C502120122B4C6021245
:1009830001221DC702120122D3C70212012247C846
:1009930002120122B3C802120122DCC80212012290
:1009A30056C902120122EFC90212012254CA0212CD
:1009B300012269CA02120122AFCA02120122C8CA65
:1009C300021201222DCB0212012230CB021201228C
:1009D3004498031201226C9803120122AA9803126D
:1009E3000122689903120122CF9903120122EB9984
:1009F30003120122139A03120122439A03120122C2
:100A0300529A03120122CF9A03120122F59A03127A
:100A130001221E9501120122BC9601120122D798D0
:100A2300011201221399011201224099011201229C
:100A3300259A011201226C9A01120122B09A011225
:100A43000122C29A01120122029B011201222F9B51
:100A5300011201227A9B01120122BA9B0112012287
:100A6300E89B011201223A9C01120122CA9C011245
:100A73000122689F011201227EA101120122BCA161
:100A8300011201224DA30112012292A3011201229C
:100A930009A40112012253A40112012279A4011213
:100AA300012261A5011201228BA50112012235A6A3
:100AB3000112012272B902120122F1B902120122BA
:100AC300B3BF02120122C2C0021201222AC20212C1
:100AD3000122C1C202120122D75200120122205365
:100AE300001201224D5300120122805300120122F1
:100AF3008D5300120122995300120122AB530012AD
:100B03000122925400120122F054001201222555B1
:100B130000120122685600120122B556001201226A
:100B2300D95600120122465700120122045800121E
:100B33000122BD58001201222A5900120122DC5958
:100B430000120122EC5900120122735A00120122F1
:100B5300325B001201225F5B00120122D85B00129C
:100B63000122355C001201227F5C00120122155D17
:100B730000120122E05D00120122955E00120122A3
:100B83000A5F001201226B5F00120122D55F00127F
:100B930001220E6000120122B06000120122C06126
:100BA300001201220062001201221D6200120122C2
:100BB3003C6200120122836200120122A862001229
:100BC3000122D562001201224F63001201229063B9
:100BD30000120122B4640012012264650012012292
:100BE300BB65001201222566001201223E66001237
:100BF300012272AF02120122C5AF02120122D1AF4C
:100C030002120122A6B002120122CDB00212012269
:100C130008B10212012274B102120122B0B1021210
:100C23000122E6B1021201221FB20212012237B2DF
:100C3300021201228CB202120122A5B20212012277
:100C4300EEB20212012201B3021201221BB30212FD
:100C5300012231B30212012264B402120122ABB5A4
:100C630002120122ADB602120122A7B7021201221B
:100C7300F9FF0112012200800212012230800212C8
:100C83000122F883021201224F85021201221886E3
:100C9300021201229887021201226988021201229C
:100CA300A68802120122C9880212012207890212B0
:100CB30001221089021201225A8902120122648937
:100CC300021201220E8A02120122E78A0212012273
:100CD3003B8B021201229D8B02120122F08B021226
:100CE30001221F8C021201225C8C02120122706607
:100CF30000120122D76900120122DD6900120122CC
:100D03005F6F00120122D87300120122AE77001226
:100D13000122D88E031201224E8F03120122648F07
:100D230003120122A58F03120122DF8F0312012276
:100D33005890031201229390031201220691031289
:100D430001224491031201224D9103120122599170
:100D530003120122759103120122A09103120122B1
:100D6300B69103120122FA91031201226FEA0212D1
:100D7300012282EA021201229CEA02120122C5EA3E
:100D83000212012208EB0212012247EB0212012296
:100D930085EB02120122EAEB02120122FFEB02129F
:100DA30001220AEC0212012217EC021201222EEC9C
:100DB300021201223CEC0212012247EC0212012230
:100DC30053EC0212012266EC0212012271EC0212B0
:100DD300012294EC021201223BED021201224BED9F
:100DE3000212012265ED0212012282ED021201229A
:100DF3009EED02120122C3ED02120122CEED021278
:100E03000122E3ED02120122F7ED0212012258EE54
:100E1300021201225EEE0212012264EE021201228C
:100E23006AEE0212012282EE02120122B5EE0212D2
:100E3300012245E201120122C9E20112012278E3F3
:100E430001120122D7E401120122F8E60112012264
:100E5300E4E70112012219E8011201223BE8011221
:100E63000122EAE801120122E2EA011201220BEB5C
:100E7300011201229DEB01120122CFEB011201228B
:100E8300DCEB0112012233EC0112012259EC0112B5
:100E93000122C6EE01120122C9EF0112012221F043
:100EA30001120122D4D301120122DED40112012244
:100EB300C5D501120122CFD501120122F1D50112AC
:100EC3000122FDD50112012296D701120122C5D7B5
:100ED30001120122E1D8011201223AD901120122A1
:100EE300A0DA011201227FDB01120122DBDB0112F6
:100EF300012248DC0112012283DC01120122C2DC3F
:100F0300011201227BDF0112012295DF011201226E
:100F130021E0011201222FE00112012288E00112D7
:100F2300012296E00112012209E1011201226DE181
:100F330001120122B7E1011201220A9A02120122CF
:100F43002C9A02120122529C02120122679F021262
:100F530001227FA00212012232A10212012214A255
:100F63000212012254FE0112012279FE0112012212
:100F7300EBFE01120122FD77001201220678001216
:100F830001220F7800120122E67800120122977ADB
:100F930000120122CD7A00120122077B00120122E6
:100FA3003D7B00120122777B00120122AB7B0012F2
:100FB3000122D77B00120122207C001201225A7CDD
:100FC30000120122A37C00120122FB7C00120122E9
:100FD300307D001201228B7D00120122C57D00129B
:100FE3000122167E001201224C7E00120122867E0F
:100FF30000120122B47E00120122D77E00120122C8
:10100300C3AE03120122EFAE031201224AAF031251
:10101300012254AF0312012264AF03120122A7DAA3
:1010230002120122B1DA02120122EFDA02120122C4
:1010330038DB0212012272DB02120122CCDB021224
:101043000122EDDB02120122F6DB0212012247DC50
:101053000212012270DC021201227ADC0212012246
:10106300E6DC0212012274DD02120122C2DD021249
:101073000122F8DD021201227FDE02120122BFDE0D
:1010830002120122F7DE0212012209DF02120122FB
:1010930028DF0212012231DF02120122EBDF0212EA
:1010A30001226DFC0212012262FD021201227CFD6B
:1010B300021201228DFD02120122C2FF021201223D
:1010C3007BA003120122B1A003120122E7A00312A5
:1010D300012240A2031201228AB003120122A0B00E
:1010E30003120122AAB003120122F4B00312012257
:1010F3005CF80212012275F80212012219F9021298
:10110300012259F90212012272F902120122A6F9EF
:1011130002120122F3F90212012227FA021201221A
:1011230069FA021201225DAC0312012286AC03129A
:101133000122AFAC03120122F1AC031201222A9265
:10114300031201224F92031201227B920312012206
:10115300F4B103120122B43E00120122184100121D
:101163000122CA4200120122BC430012012241445F
:1011730000120122BF4400120122EC44001201229A
:101183001048001201228A480012012279490012F4
:101193000122B34900120122F34900120122AD4B8F
:1011A30000120122004C00120122494C00120122BC
:1011B300B74C00120122E94C00120122014D00122A
:1011C3000122164E00120122264E00120122564F12
:1011D30000120122784F00120122AE4F00120122A9
:1011E300535100120122925100120122B2520012F5
:1011F30001220DAE031201221EAE03120122ABB176
:1012030003120122EAB10312012285B20312012261
:101213006EAF031201227EAF0312012296AF0312B7
:101223000122FCAF0312012259AB03120122DEABF0
:101233000312012244AC031201226DA703120122FF
:1012430096A70312012201A80312012252A8031236
:101253000122ABA803120122EC830312012223848F
:1012630003120122938403120122A8840312012290
:10127300F18503120122B78603120122D6860312D7
:101283000122FD86031201223287031201224A87BB
:10129300031201229B870312012298B20312012237
:1012A300698B03120122F98B03120122778C03123B
:1012B3000122008D03120122958D031201221F8E3C
:1012C30003120122298E03120122388E03120122F6
:1012D3004E8E03120122618E03120122C18E03126C
:1012E3000122D58E03120122777F00120122E17FB2
:1012F30000120122F37F00120122E6A5031201224C
:101303003BA603120122A9A60312012219A7031265
:101313000122109E031201223A9E031201220F9F03
:101323000312012203A00312012254CB0212012251
:1013330011CC021201224CCC0212012274CC0212F3
:101343000122D6CC0212012222CD021201227BCD30
:10135300021201220CCE021201220ECF021201222E
:10136300CBD0021201224DD102120122B2D10212BC
:101373000122C9D102120122D9D20212012217D3AA
:10138300021201226FF001120122F9F3011201226C
:1013930081F501120122D8F501120122F7F501129C
:1013A300012275F60112012213F801120122F7F846
:1013B30001120122E1FC01120122B1FD01120122FD
:1013C3003B95031201226A950312012280950312B1
:1013D3000122C895031201220A960312012275966F
:1013E30003120122479703120122BF97031201221E
:1013F30040C501120122C4C801120122B2C901125F
:1014030001227ECB0112012223CC0112012292CCB4
:1014130001120122DACC01120122F1CC01120122C4
:101423007FCD0112012267CF01120122D0CF011219
:10143300012273D0011201224FD1011201227FD167
:1014430001120122A2D1011201227CD20112012236
:1014530000800312012245800312012262800312DD
:101463000122F180031201226581031201223F82CE
:1014730003120122B3830312012234A403120122B3
:1014830058A40312012226A5031201229EA50312CA
:1014930001223BB20312012267B203E06670100817
:1014A300A3E066700A08A3E066700408A3E066225E
:1014B300C3E7960809E7960809E7960809E796221D
:1014C300C3E09608A3E09608A3E09608A3E096225B
:1014D300C008C3E096F50808A3E096420808A3E015
:1014E30096420808A3E09645087001D3D008220865
:1014F3000808EAC0E0EBC0E086F0E7A4FA18098622
:10150300F0E7A42AFA180986F0E7A42AFA1809864C
:10151300F0E7A42AFA1986F0E7A4FBE5F02AFA1902
:101523000886F0E7A42BFBE5F03AFA190886F0E702
:10153300A42BFBE5F03AFA18180986F0E7A4C5F0E6
:101543002BFBE43AFA1908E7C5F0C6A426F6E5F042
:101553003BFBE43AFA1886F0E7A4F6E5F00826F632
:10156300E43B08F6E43A08F6D0E0FBD0E0FA22E4E4
:10157300CFC0E0E4CEC0E0E4CDC0E0E4CCC0E07591
:10158300F020E626F608E633F608E633F608E633F7
:10159300F6181818EC33FCED33FDEE33FEEF33FF92
:1015A300C3EC9709ED9709EE9709EF9719191940BD
:1015B3000FFFEC97FC09ED97FD09EE97FE1919064D
:1015C300D5F0BFECF709EDF709EEF709EFF71919B5
:1015D30019D0E0FCD0E0FDD0E0FED0E0FF226016A1
:1015E300080808C6C313C618C613C618C613C618F8
:1015F300C613C6D5E0EA2270090808082260161847
:101603001818C6C333C608C633C608C633C608C6C9
:1016130033C6D5E0EA22E627F60809E637F60809D5
:10162300E637F60809E637F622E026F608A3E036A1
:10163300F608A3E036F608A3E036F622E026F00823
:10164300A3E036F008A3E036F008A3E036F022C3A7
:10165300E697F60809E697F60809E697F60809E615
:1016630097F622C3E096F008A3E096F008A3E0966D
:10167300F008A3E096F022E056F608A3E056F60839
:10168300A3E056F608A3E056F622E056F008A3E0DE
:1016930056F008A3E056F008A3E056F022E0F6085F
:1016A300A3E0F608A3E0F608A3E0F622E6F008A319
:1016B300E6F008A3E6F008A3E6F022E0FAA3E0FBD5
:1016C300A3E0FCA3E0FD22EAF0A3EBF0A3ECF0A37C
:1016D300EDF022E0F8A3E0F9A3E0FAA3E0FB22E8AF
:1016E300F0A3E9F0A3EAF0A3EBF022CAC0E0E6F02E
:1016F300A308DAFAD0E0FA22CAC0E0E0A3C582CC9C
:10170300C582C583CDC583F0A3C582CCC582C583FD
:10171300CDC583DAE6D0E0CA22C3E498F8E499F9A8
:1017230012175D8026C3E49AFAE49BFBE920E7E9FC
:1017330012175DE498F8E499F922C3E498F8E49960
:10174300F912175DE498F8E499F9C3E49AFAE49B73
:10175300FB22EB20E7CFE920E7E0B90010BB00084C
:10176300E88AF084F8AAF022E4FBC8FA22EB70229C
:101773007B10C833C8C933C9335007C39AC3DBF2DC
:1017830080069A50012ADBEAC833F4C8C933F4C986
:10179300FA2275F008E4C833C8C933C933C99AC9F2
:1017A3009B5004C92AC93BD5F0ECFBC833F4C8E409
:1017B300C9FA22600D08C6A2E713C618C613C6D518
:1017C300E0F322600C08C6C313C618C613C6D5E0DF
:1017D300F422700422600D18C6C333C608C633C68C
:1017E300D5E0F41822251810AF08F518400C151988
:1017F3008008F51840021519D2AF2200C0D0251871
:1018030010AF08F518500C05198008F5185002059B
:1018130019D2AFD0D0222518F58210AF08F51840A1
:101823000C15198008F51840021519D2AF851983D4
:10183300222518F582E43519F583222518F8E435B5
:1018430019F9222518FAE43519FB222518FCE43589
:1018530019FD22E4732518C582C0E0E51934FFC5DC
:1018630083C0E0E518C3958224F810AF0885831977
:101873008582188008858319858218D2AFCEF0A39C
:10188300E520F0A37808E608F0A3DEFAEFF0A3E57D
:101893008124FAF8E608F0A3E608F0A3E608F0A32B
:1018A3000808E608F0A3E608F0A315811581D0E047
:1018B300FED0E0F8158115811581E8C0E0EEC0E0A7
:1018C300222518C582C0E0E51934FFC583C0E0E5D1
:1018D30018C3958224F910AF08858319858218806F
:1018E30008858319858218D2AFCEF0A3E520F0A333
:1018F3007808E608F0A3DEFAEFF0A3E58124FBF80D
:10190300E608F0A3E608F0A30808E608F0A3E60853
:10191300F0A315811581D0E0FED0E0F81581158183
:10192300E8C0E0EEC0E022851983851882E0A3FEBB
:10193300E0A3F5207808E0A3F608DFFAE0A3FFE0D0
:10194300A3C0E0E0A3C0E0E0A3C0E0E0A3C0E0E008
:10195300A3C0E010AF0885821885831980088582AB
:1019630018858319D2AFD083D08202011F851983D2
:10197300851882E0A3FEE0A3F5207808E0A3F6082B
:10198300DFFAE0A3FFE0A3C0E0E0A3C0E0E0A3C070
:10199300E0E0A3C0E010AF088582188583198008B2
:1019A300858218858319D2AFD083D08222C0D025F7
:1019B30018C582C0E0E51934FFC583C0E0E518C34C
:1019C300958224F310AF08858319858218800885D2
:1019D3008319858218D2AFC8F0A3E9F0A3EAF0A374
:1019E300EBF0A37908E709F0A3D8FAECF0A3EDF044
:1019F300A3EEF0A3EFF0A3D0E0F0A3D0E0F0A3D0E8
:101A0300E0F0A3E520F0A3E5F0F0A3228519838598
:101A13001882E0C0E0A3E0F9A3E0FAA3E0FBA37817
:101A230008E0F608A3DFFAE0FCA3E0FDA3E0FEA3D1
:101A3300E0FFA3E0C0E0A3E0C0E0A3E0F5D0A3E0B3
:101A4300F520A3E0A3F5F010AF088583198582186C
:101A53008008858319858218D2AFD082D083D0E0E5
:101A6300F8D0E03274048006740280027401C0E08E
:101A7300F404121819D0E01216EE227404800474D0
:101A8300028000CCC0E0EDC0E0E518C39CCCAD19EA
:101A930050011D10AF068C188D1980068C188D19F6
:101AA300D2AF1216FBD0E0FDD0E0FC22D083D0826F
:101AB300E9C0E0E493A3C386F0C5F095F0F908E428
:101AC30093A386F0C5F095F0700BE493A3C39940FC
:101AD30005E9048002A3E475F002A42582F582E5FA
:101AE300F03583F583D0E0F9E493A3C0E0E493C039
:101AF300E022D083D082ECC0E0EDC0E0E493A3FC0D
:101B0300E493A3FDED4C600D121B41EC24FFFCEDAF
:101B130034FFFD80EFE493A3FCE493A3FDED4C605D
:101B23000D121B80EC24FFFCED34FFFD80EFD0E0B1
:101B3300FDD0E0FCE493A3C0E0E493C0E022C0E066
:101B4300C3E49396087401939618400FE493667068
:101B53000808740193661870007019A3A3C3E49373
:101B630096087401939618A3A3400DD0E0D0E0D05B
:101B7300E0021B31A3A3A3A3A3A3D0E022C0E0C030
:101B8300F088F0E493667008087401936618700097
:101B9300A8F0A3A3700BD0F0D0E0D0E0D0E0021BFC
:081BA30031A3A3D0F0D0E02231
:101BAC0074F51218C4EAFEEBFFEE2434F8EF34009F
:101BBC00F988088909EE2435121CD8F8EE2437125E
:101BCC001CD8F50AEC850AF0A4FCAAF0850AF0ED05
:101BDC00A42AFDE82CF8E43DF97A257B0012175D68
:101BEC00EA850882850983F074075AF87401B800F5
:101BFC00028004C333D8FCFBEA131313541FF8EE12
:101C0C0028F8EF3400F9E8245DF582E9121CDB5B5F
:101C1C006003EA801CEE2436121CD8F5F0EA84A886
:101C2C00F0EE28F8EF3400F9E82438F582E9121CBC
:101C3C00DBF97F0402197074F51218C4EAFEEBFF8D
:101C4C00EE2434121CD8C0E0EE2435F582EF3400BB
:101C5C00F583D0E0F08E828F83A3A3A3A3A3E0FA35
:101C6C00A3E0FB8E828F83A3A3A3A3A3A3A3E0FC77
:101C7C00A3E0FDECC39AF50AED9BF50BEE247FF582
:101C8C0008EF3400F509850882F583E06401702BB8
:101C9C00EE2480F582EF3400F583121A82121CE1D7
:101CAC0074021217FEE960137CDC7D04EEFAEFFB84
:101CBC00120B92850882850983E4F0AC0AAD0BEE19
:101CCC00FAEFFB121BAC122507021C3EF582EF3417
:101CDC0000F583E022C082C083851882851983E0D9
:101CEC00F8A3E0F9C3EA9CEB9D5010C3EC98ED9976
:101CFC00401BC3EA98EB995014800EC3EA98EB99F9
:101D0C004007C3EC98ED994004790180027900D02A
:101D1C0083D08222EAC39CFAEB9DFB2274ED12184D
:101D2C00C49003A2E064086005E06407702C906125
:101D3C00C8E060269003D0E0F874FF68601CE8757A
:101D4C00F003A4C8AAF02AF974D228FE740339FF50
:101D5C008E828F83A3A3A3E070057900021EC8EEC8
:101D6C002468F510EF3400F511906060E085108266
:101D7C00851183F0750A45750B057508007509000A
:101D8C00E5D914F50EE5D95403F50F601CEE248249
:101D9C00F50CEF3400F50D7403650F6058E50E601B
:101DAC0013EE2467121CD8700B793DEEFAEFFB1280
:101DBC000BB680A6900540E064016026850C8285F8
:101DCC000D83E06004780480027800850E08E50835
:101DDC00C398FA95E0FB120A248A088B09EA450994
:101DEC007006120E14021D66850C82850D83E07040
:101DFC00048A0A8B0B78008016E5D9C0E08812E5BE
:101E0C000A2512F582E50B3400F583D0E0F008E8E2
:101E1C00C3950E40E4850C82850D83E0602874FC2C
:101E2C00250EF50E780A121A6BAC0EA90FEEFAEF0E
:101E3C00FB120C6A74021217FEE9700AAA08AB09AD
:101E4C00121300021DB57403650F6058850E0C75D6
:101E5C000D00780C121A6BAC0AAD0BAA08AB091268
:101E6C000C2E74021217FE851082851183E0F87413
:101E7C0080687005750C7F8002880CE50CF50A787B
:101E8C000A121A6FE50FF50A780A121A6FA90EAC2E
:101E9C0008AD099003D0E0FA7B001208BC74021262
:101EAC0017FE80139003A2E06408600BAC0AAD0B24
:101EBC00EEFAEFFB120D00120E2079017F0C0219C5
:101ECC007074F31218C474FC1217E8EAFEEBFF8965
:101EDC0008A2AFE433F509C2AFEE2463F50AEF3480
:101EEC0000F50B8010AA0AAB0B120BE0121300903A
:101EFC0004E3E004F0850A82850B83E0F8A3E0F9A3
:101F0C00E849602FE82402FAE93400FBEA2402F5E0
:101F1C000CEB3400F50D780C121A6B8A828B83E073
:101F2C00FCA3E0F9EEFAEFFB120BD474021217FECD
:101F3C00E960B29004E3E060579004E4E0F89004A8
:101F4C00E3E0C398500C7402650870449004E5E01B
:101F5C00603E8E828F83A3A3A3A3E085188285198C
:101F6C0083121FAC7402121834E8121FAC9004E2F6
:101F7C00E028F07402121834AC82AD838518828587
:101F8C001983AA82AB8379011208C89004E3E4F0A8
:101F9C00E509A2E092AF74041217FE7F06021970D5
:101FAC00F0A3E4F09004E3E0F8220000852187859B
:101FBC0022C622C0E074EF1219B0A2AFE433FEC205
:101FCC00AF759B00906182E0A2E05012E591A2E017
:101FDC00500C7591FE740165217003121D28E0A24E
:101FEC00E55051E591A2E5504B7591DF9003A2E0CD
:101FFC0064076005E064087023740165217035790D
:10200C00019003D0E0FA75F003A4CAA8F028FB7481
:10201C00D22AFA74033BFB121ECD8018E0640D70BB
:10202C00139003C4E004F064287002E4F07A00E03A
:10203C00F9120E26906182E0A2E640030220E6E54A
:10204C0091A2E640030220E67591BF9003A2E064E2
:10205C00057008120D42120D4E8003120D487521A9
:10206C0000120DB4E99003A3F07900120DA8120A26
:10207C00FC7A017B009003A1E0F9121078907803B0
:10208C00E064427055900544E014F0704DC2AF12FC
:10209C00209E00782AD0E0F618D0E0F6E59F540791
:1020AC0070057509FF800375097FC4C0E07829E6C7
:1020BC00F50808E65509F509740B78081217C6D00F
:1020CC00E02508F8906270E0A2E740F8E8C333908E
:1020DC006272F0906270E0D2E0F0906181E0A2E375
:1020EC005009E5E9A2E3500375E9F7A3E0A2E75034
:1020FC0009E591A2E7500375917FEEA2E092AF7FC4
:10210C0004021A0FC0E0C0D0C082C083906183E08B
:10211C00A2E05009E5BFA2E0500375BFFEE0A2E1CA
:10212C005009E5BFA2E1500375BFFDE0A2E25009E2
:10213C00E5BFA2E2500375BFFBE0A2E35009E5BF87
:10214C00A2E3500375BFF7E0A2E45009E5BFA2E497
:10215C00500375BFEFE0A2E55009E5BFA2E55003BF
:10216C0075BFDFE0A2E65009E5BFA2E6500375BFDC
:10217C00BFD083D082D0D0D0E032C0E074F212193C
:10218C00B0E5A7A2E4500FE5A1A2E4500953A7EFD4
:10219C0075A1EF1221DAE5A7A2E5500CE5A1A2E5A5
:1021AC00500653A7DF75A1DFE5A7A2E15009E5A111
:1021BC00A2E1500375A1FDE5A7A2E2500CE5A1A296
:1021CC00E2500653A7FB75A1FB7F01021A0F74F8AE
:1021DC001218C47521019003A2E0640670077A00FE
:1021EC007B00120D2AA2AFE433FED2AF9003A8E01D
:1021FC00640170187A207B009003A1E0F91211148D
:10220C007A207B009003A1E0F912107E906182E0AD
:10221C00D2E6F0900541E0602185C622801690033D
:10222C00A7E064017008E5C654F84405F5C653BE32
:10223C00FC121FB87401652160E4EEA2E092AF7F3E
:10224C00010219708E238F24858228858327851897
:10225C0082851983E0CEA3E0CF852882852783EB86
:10226C00C9EAC8EDCBECCA75F010C3E833C8E93342
:10227C00C9EA33CAEB33CBC3EA9EF526EB9FF525AF
:10228C00B35004AB25AA26EC33CCED33CDD5F0DA24
:10229C00AE23AF242274F11218C48A088B098C0A5D
:1022AC008D0B909471780812167A740F121834787A
:1022BC000C1216A0909471780C12167A7808790C7E
:1022CC001214B39094A950107808790C1216527805
:1022DC00081214D34014800E780C79081216527818
:1022EC000C1214D350047901800279007F08021972
:1022FC007074ED1218C48A088B098C0A8D0B90949B
:10230C0071780812167A7413121834780C1216A0FD
:10231C00909471780C12167A780C79081214B340D8
:10232C00117808790C121652AA08AB09AC0AAD0B3D
:10233C00802275100075110075120075130178104C
:10234C00790C12165278107908121619AA10AB11C2
:10235C00AC12AD137F0C02197090947178081216A0
:10236C00A08A828B83780812168D7F0402197074F0
:10237C00F51218C48C828D8378081216A08A828B71
:10238C008378081216661223CFC3E098F0A3E09965
:10239C001223C1401E90948978081216A08A828B51
:1023AC0083780812163F8E828F83E02420F0A3E0FE
:1023BC00344EF080A4F08E828F83C3E09420A3E08F
:1023CC00944E22EA2404F8EB3400F9E8FEE9FF8C81
:1023DC00828D83A3A3A3A3E0F8A3E0F98E828F835D
:1023EC002274F51218C4E9FE9004F7E0FAA3E0FB9E
:1023FC00EEC333F8E433F9743A28F582749339F563
:10240C0083E02AF508A3E03BF5097808121A6B90D3
:10241C0094911216BE12225074021217FE8A088B67
:10242C00098C0A8D0B741078081215E1AA08AB09F7
:10243C007F0402197074F11218C48A0C8B0D8C0E67
:10244C008D0F740F121834E0FAA3E0FB74111218FC
:10245C0034E0F508A3E0F5097808121A6BEA2401B8
:10246C00F508EB3400F509E4F50AF50B780C79085E
:10247C001214F290949D78081216A0780C79081218
:10248C0014F2AA0CAB0DAC0EAD0F1222507402124A
:10249C0017FE8B09EA450960047A0180027A00EC88
:1024AC002AFCED3400FD7413121834E0F8A3E0F9A3
:1024BC00E8FEE9FFECF8EDF97A717B0212175D8802
:1024CC00088909E4F50AF50B8E828F8378081216B9
:1024DC00AFECF8EDF97A717B0212175D8A088B0963
:1024EC00740578081217D58E828F83A3A3A3A3E556
:1024FC0008F0A3E509F07F08021970C082C083E9D7
:10250C00906000F0D083D08222C2AF02000022C0C3
:10251C00E074F21219B0A2AFE433FED2AFC2C0E540
:10252C00D1A2E4500653D1EF1212E2EEA2E092AF28
:10253C007F01021A0FC0E074F21219B0A2AFE4339B
:10254C00FED2AFE589A2E15003121252758900C286
:10255C00C5EEA2E092AF7F01021A0FC0E074F21236
:10256C0019B0A2AFE433FED2AFE58BA2E050031258
:10257C001252758B00C2E880D8C0E0C0D0E8C0E031
:10258C00E9C0E0E5A8D2AFC2C7A2E7A2E792AFD0FC
:10259C00E0F9D0E0F8D0D0D0E032C0E0C0D0E8C054
:1025AC00E0E9C0E0C008C009C082C083A2AFE43338
:1025BC00F9D2AF9009D3E0F8A3E0687008539AFB06
:1025CC00A374018025C2E99009D3E0F508740125B4
:1025DC0008F074532508F582E43409F583E0F5C15D
:1025EC009009D3E0C394804002E4F0E9A2E092AFFA
:1025FC00D083D082D009D008D0E0F9D0E0F8D0D088
:03260C00D0E032E9
:10261000FFFFFFFFFFFFFFFFC082C083E990104F65
:10262000F002284274F7121858E99002E1F07C1980
:102630007D037AFF7BFF1208089002E274FFF0A38B
:10264000F0A3E4F0A3F079051207969002E1E0F917
:102650001206B87A207B081209D67F0102192A7463
:10266000F41218588A088B09EB548060309002E10C
:10267000E0F91210608A0A8B0BAE0AAF0BEE4F60C6
:10268000138E828F83E064B070031207A8EEFAEF16
:10269000FB12104EAA08E5096480FB80047A007BD7
:1026A0000002281174F212185874FC1217E8EAFE9E
:1026B000EBFFEE4F60387402121834EEF0A3EF1205
:1026C0002A76ECF0A3ED122A76AA82AB831206B228
:1026D000E9F5087073741212183412362AE50A45A7
:1026E0000B60658E828F83122752EE4F700575083E
:1026F0000280557A067B001210CC8A0C8B0DA80C38
:10270000A90DE8497005750813803D88828983E426
:1027100012275CA3A3EEF0A3EF123AC3E50AF0A3DD
:10272000E50BF09002E71227E49002E76017E0FC67
:10273000A3E08003EAFCEBFD8C828D831227E4701A
:10274000F38C828D8312354FA90874041217FE0290
:102750003CC5A3A3A3A3E0FEA3E0FF22F0A3F0885F
:102760008289832274F2121858890AE975F017A435
:10277000FEAFF09002E6E4F09002E41227E4600A73
:102780001210D29002E4E4F0A3F0EEFAEFFB121084
:10279000CC8A088B09EA4509602FEEFCEFFD790031
:1027A00012103C9002E4E508F0A3E509F07B0080FC
:1027B000081227CEE4F0A3F00BEBC3950A40F2E534
:1027C0000A9002E6F0790080027913023CC5EB75AD
:1027D000F017A4F8A9F09002E4E028FAA3E0398AFF
:1027E00082F583221232E5EA4B2274F412185879EA
:1027F00000EAA2E0501B75083B7509947808121A8C
:102800006B7C047D007A517B1012079074021217C2
:10281000FE7F0402192AC082C0839002E712284971
:10282000601C88828983A3A3E06A7003A3E06B889D
:1028300082898370E8A3A3A3A31232E180047A0003
:102840007B00D083D08202011F123D98E849227498
:10285000EE12185874FC1217E8EAFEEBFF85188296
:10286000851983E4F0A3F0EE2402123533EE24053B
:10287000122A64EE2404F50EEF122E49E024FE60C5
:102880003924FC604624FE605224FE605E24FE7003
:102890000302296924FE70030229E124FE70030269
:1028A00029F024FE70030229FF24FC7003022A0E83
:1028B00024FE7003022A1D022A5A9003007417F0A6
:1028C000A3E4122A7E120430022A5A85188285193E
:1028D00083AC82AD831207AE022A2A85188285193D
:1028E00083AC82AD831207B4022A2A850C08850DB9
:1028F000097402121834AC82AD838508828509837D
:102900001232E11206D68A0C8B0DAC0CAD0DEC4DDB
:102910006042E4F50CF50D780C121A6B750C00751D
:102920000D03780C121A6B750C01750D03780C12DF
:102930001A6B7408121834121A8279161232DB12CA
:1029400007F074081217FEE9F50C700B1232D7125B
:102950000448800F750C01850882850983122A6C52
:1029600012354F850C08022A2D7402121834AC82DD
:10297000AD83850C82850D831232E11206D68A1052
:102980008B11AC10AD11EC4D6043850C82850D832D
:10299000A3A3121A827510007511037810121A6B16
:1029A0007510017511037810121A6B74081218341F
:1029B000121A8279161232DB1207F074081217FE0F
:1029C000E9F509700B1232D712044E800F75090118
:1029D000850C82850D83122A6C12354F850908807B
:1029E0004C851882851983AC82AD831207BA803A70
:1029F000851882851983AC82AD831207C0802B8530
:102A00001882851983AC82AD831207C6801C851895
:102A100082851983AC82AD831207CC800D85188224
:102A2000851983AC82AD831207D2E9F508E5086009
:102A3000298E828F83A3E06414601F850E82850F28
:102A400083E0900300122A76123D94900301123520
:102A50004FE508A3122A7E12042AEEFAEFFB1207B2
:102A60005402343BF50CEF3400F50D22123D9885ED
:102A7000188285198322F085188285198322F07CBB
:102A8000007D03850A82850B831232E52274EE12E3
:102A9000185874FC1217E88A0A8B0B8C0E8D0FEAFB
:102AA0002405F508EB3400F5097C157D0079007AE2
:102AB000007B0312103CE5082402F50CE509122AFC
:102AC0006785188285198385821085831178101295
:102AD0001A6B850882850983A3A3A3A3122F9112E1
:102AE0001A6BE5082405F510E5093400F511781096
:102AF000121A6B850C82850D831232EB1206D0748C
:102B0000061217FE8A108B11AE10AF11E50A2402CF
:102B1000F50AE50B123536EE4F7003022C53801781
:102B200074021218341232E188828983EAF0A3EB2E
:102B3000F0900300E004F0900300E0C3940540032C
:102B4000022C53E4F510F5117810121A6B7510E988
:102B50007511027810121A6B7510EA75110278104F
:102B6000121A6B7406121834121A827910EEFCEFE6
:102B7000FD1232DB1207F074081217FEE9705E8551
:102B80000882850983A3A3A3A3A3A3A3E0F89002CB
:102B9000E9E0687048122F91121A6B7CEA7D02E519
:102BA000082408FAE5093400FB12103674021217E3
:102BB000FEE960298E828F83A3A3A3A31232E19042
:102BC0000300E0F510740278101217D57401251077
:102BD000F58274033511F583EAF0A3EBF074021269
:102BE00018348582108583117810121A6B740212C2
:102BF0001834121A82850C82850D83123DA91206A3
:102C0000DC74041217FE8A108B11AE10AF11900302
:102C100000E0F510751100740278101217D57400D9
:102C20002510F874033511F988828983A31227E4EB
:102C30007003022B17E82403F8E93400F9EE4F6023
:102C400003022B208882898374FFF0A3F090030095
:102C5000E004F0900300E0600A1232D712043C79DD
:102C600000800B850882850983123546790A023473
:102C70003B74EA12185874FE1217E88C128D13EA8E
:102C80002405F50CEB123DB31227567508007509A3
:102C900000EA2402F510EB3400F51185188285193D
:102CA0008385820A85830B780A121A6B850C8285CC
:102CB0000D83A3A3A3A3122E53121A6BE50C2405B4
:102CC000F50AE50D123536780A121A6B850C8285E5
:102CD0000D83123DA71206D074061217FE8A0A8BC6
:102CE0000BEA450B7003022E04EA2404F50EEB12E6
:102CF0002E491227568A828B83A3A3A3E0F985105D
:102D0000828511831232E11206BEE9F509600302E1
:102D10002E04E4F514F5157814121A6B7514E97580
:102D200015027814121A6B7514EA751502781412CC
:102D30001A6B7406121834121A827913AC0AAD0B8E
:102D40008510828511831232E11207F07408121780
:102D5000FEE9F5096003022E049002E9E0F8E508B7
:102D60007009E02402900301F08017900301E0FC59
:102D7000E82402FAE43400FBEA6C7001EB60030221
:102D80002E08850882AA82122F889414122F805050
:102D900073850E82850F83E0C0E074022A122E40F4
:102DA000D0E0F00508850E82850F83A3E0C0E085A2
:102DB000080A7402250A122E40D0E0F0050890029D
:102DC000E9122E53121A6B7CEA7D0285080A7402FE
:102DD000250AFA74033400FB12102474021217FE41
:102DE0009002E9E02508F50874FF6E700374FF6F28
:102DF0006012EE24010EEF3400FFE508C394145076
:102E000003022C9BE50860131231CC8510828511DA
:102E1000831232E112044279008014E509700375CF
:102E2000090A851282851383EEF0A3EFF0A90974D5
:102E3000021217FE7F0E02192A85080C7402250C57
:102E4000F58274033400F583223400F50F850E8279
:102E5000F58322123AD62274EE12185874FE121715
:102E6000E88C0E8D0FEA2405F50CEB122A67750B22
:102E700000900300E4F0F50AEA2402F508EB3400C0
:102E8000F5098049900300E0FA9002E9E0F8122F7A
:102E9000889417122F80400D900300E0F87416C339
:102EA000989002E9F0122F91121A6B7CEA7D02745D
:102EB000012AFA74033400FB12102474021217FE64
:102EC0009002E9E0F8900300E028F0050AE50C2400
:102ED00016F582E50D122E44E0F8E50AC39840038A
:102EE000022F69900300E0C39416507DE50AC333B6
:102EF000F8E433F9E50C28FEE50D39FF85188285E5
:102F00001983AC82AD838E828F831232E11206D692
:102F10008A108B11AC10AD11EC4D7005750B018052
:102F200043E4F510F5117810121A6B7510E975115C
:102F3000027810121A6B7510EA7511027810121AC5
:102F40006B7406121834121A827916850882850964
:102F5000831232E11207F074081217FEE9F50B70C4
:102F600003022E8412354280107C007D0385088286
:102F70008509831232E1120454A90B740202343D14
:102F8000E99400C365D03322EA28F8E43400F9E874
:102F900022E0F51075110078102274EA12185874A6
:102FA000FC1217E88A0C8B0D8C128D13EA2405F5A0
:102FB0000AEB123536750800750900E50A2402F59A
:102FC00010E50B3400F511740212183485820E8559
:102FD000830F780E121A6B850A82850B83A3A3A335
:102FE000A3123A82121A6BE50A2405F50EE50B349A
:102FF00000F50F780E121A6B851082851183123539
:103000003C1232DB1206D074061217FE8A0E8B0FAA
:10301000AE0EAF0FE50C2402F50EE50D3400F50FF2
:1030200080408882898374FFF00508122E3974FF6E
:10303000F005089002E9E0F50C750D00780C121A05
:103040006B7CEA7D0285080C7402250CFA7403344B
:1030500000FB12102474021217FE9002E9E025080A
:10306000F508EE4F60718E828F83A3A3A3E0F985EC
:103070000E82850F831232E11206BEE9F509EE24B5
:1030800004122A64E97044E4F514F5157814121A50
:103090006B7514E97515027814121A6B7514EA75BC
:1030A00015027814121A6B7408121834121A8279E5
:1030B00011EEFCEFFD850E82850F831232E11207BF
:1030C000F074081217FEE9F5096027850C82850D5A
:1030D000831231C212354FE50870030231A8123154
:1030E000CC850E82850F831232E112045A790002D8
:1030F00031BD850882AA82EA9002E97009E02404C1
:10310000900301F08022E0F8900301E0F514E82438
:1031100004FCE43400FDEC65147001ED70C0122F66
:10312000889412122F8050B6850C82850D83E0C0E2
:10313000E074022A122E40D0E0F00508850C82854A
:103140000D83A3E0C0E0122E39D0E01231DE85827B
:103150000C85830D780C121A6B7404121834121A31
:1031600082851082851183123DA91206DC74041237
:1031700017FE8A0C8B0DAE0CAF0D85080C74022562
:103180000CF874033400F9EE4F70030230228518F6
:1031900082851983E0888289831231DEA3E0C0E052
:1031A000122E39D0E0023030E509700375090A8526
:1031B0000A82850B831231C212354FA909740402A9
:1031C0002E31123D9885128285138322900301E0EF
:1031D000F5F0E50884900300F07C007D0322F00503
:1031E000088518828519832274EC12185874FE120F
:1031F00017E88A088B098C0E8D0FEA2405FEEB3444
:1032000000FF851882851983AC82AD838E828F83FF
:103210001232E11206D68A0A8B0BEE2418122A64A7
:10322000EA450B70030232B2123424503285188200
:103230008519831232E11207E48A108B11EA4511D5
:10324000606B7912AC0AAD0B850882850983123256
:10325000E1851082851183121856E9F50A7058E449
:10326000F50AF50B780A121A6B8E828F83A3A3E0FE
:10327000F50A780A121A6BEE2403123533780A1213
:103280001A6B8E828F831232EB1207F674061217B6
:10329000FEE9F50A7021850C82850D83E0701F859B
:1032A00008828509831232E11204608011750A0ECA
:1032B0008009750A018004E50A6003123542850C15
:1032C00082850D83E0600479008002A90A740212ED
:1032D00017FE7F0C02192A7C007D03850A82850B6C
:1032E000831232E522E0FAA3E0FB22E0FCA3E0FD3A
:1032F0008508828509831232E52274EE121858740B
:10330000FE1217E88A088B098C0C8D0DEA2405FE45
:10331000EB3400FF750E00851882851983AC82ADF1
:10332000838E828F831232E11206D68A0A8B0BEAD1
:10333000450B7003023410123424503585188285F1
:1033400019831232E11207E48A0E8B0FEA450F60EF
:103350005E7912AC0AAD0B8508828509831232E1D1
:10336000850E82850F83121856E9F50E600302342C
:103370001385088285098312362AAA0AFB1207D808
:103380008A108B11A810A911E849701E7AFF7BFFE3
:103390001207D88A108B11A810A911E849606C880F
:1033A000828983E50AF0A3E50BF0750A00800775B2
:1033B0000E0E805F050A9002E6E0FAE50AC39A5015
:1033C0004AE50A75F017A4FAABF088828983A3A3B3
:1033D000E02AFAA3E03BFB8A828B8312353CEC4D5A
:1033E00070D2750A17750B00780A121A6BEEFCEF93
:1033F000FD12102474021217FEEEFCEFFD85088208
:103400008509831232E11204668014750E09800367
:10341000750E01123D90850C82850D8312354FA9E2
:103420000E022F7BE5082402F508E5093400F509B2
:103430008A828B83A3A3A3E0A2E52274041217FE61
:103440007F0A02192A74EC1218588C108D11EA2484
:1034500005F50CEB122A67750F00EA2402F50AEB5A
:10346000123536850A82F5831232E11207D88A08AE
:103470008B09EA45097003023528750E00807185B5
:103480000C82850D83E06401704F8E828F83A3A32D
:10349000121A828E828F83A3A3A3A3E0F512751361
:1034A000007812121A6BEE2405F512EF3400F513B2
:1034B0007812121A6B1232DB1207F674061217FE1C
:1034C000E9F50F6014850C82850D83E4F0123D90C0
:1034D00085108285118312354F7C177D007900EEAF
:1034E000FAEFFB12103C8E828F83E4F0A3F0050EFE
:1034F0009002E6E0F8E50EC398501EE50E75F01751
:10350000A4F8A9F0850882850983A3A3123DBD1202
:10351000353CEC4D600302347F8508828509837455
:10352000FFF0A3F0E50F70061232DB12046CA90F56
:103530000232D2F50AEF3400F50B22A3E0FCA3E03F
:10354000FD228E828F83123D98850E82850F83E83F
:10355000F0A3E9F022C082C0839002E2E06A700327
:10356000A3E06B70067AE27B0280047A007B0002A3
:103570002842C082C08378008C828D83E06A700309
:10358000A3E06B7010E875F003A4F8A9F0EC28FA3A
:10359000ED39FB8015088C828D83A3A3A3E06A70AC
:1035A00003A3E06B60DF7A007B0002284274F6120E
:1035B00018581207A28A828B83E582458370067AA7
:1035C000007B008007A3A3A3A31232E1023C417455
:1035D000F2121858E9FE740E12183412362A7410BA
:1035E000121834123AA28C828D83E064027036A3E2
:1035F000123D9EF50CA3E0F9A80C740268700374E8
:1036000029697021750C02750D00780C121A6B78FF
:1036100008121A6B780A121A6BEEF912081A74065D
:103620001217FE80027901023CC5E0F50AA3E0F51D
:103630000B2274E812185874FB1217E8E9851882F7
:10364000851983F08A168B17ECFEEDFF7510007458
:103650001D121834123D94741D12183412354F8EF9
:10366000828F83A3A3A3E0A2E4502D741D1218340B
:103670001232E11207E48A828B83E582458370036C
:10368000023A73790AEEFCEFFDAA16AB1712185630
:10369000E9F5106003023A76741F121834123AA248
:1036A000742112183412362A7423121834E0F50EDD
:1036B000A3E0F50F8E828F83E064026003023A215B
:1036C000A3123D94850882850983A3858212858390
:1036D00013EE2406122A6488828983E0FAA3E0F9B3
:1036E000EA2400F514E439F5157814121AF50100EE
:1036F00000280128163707000228DB37032848373F
:103700000029123901293D390229DE3803291239ED
:103710000429BC39213AE50E450F6003023A1C85A5
:103720000C82850D83123A97FAE9FB8A828B83E03B
:10373000850A82850B83123ACD121A6B8A828B839B
:10374000A3E0FCA3E00239A6E50E450F6003023AB0
:103750001C850A82850B837401F0123AAA850882BF
:10376000850983F07C007D008E828F83A3A3A3A3B1
:10377000E02401FAA3E03400FB1206D6EA4B6041D4
:103780008A828B83E02402F8850A82850B83E028F5
:10379000F0EA2404F8EB3400F988828983E085128A
:1037A00082851383123ADF123ACD121A6B8A828B0A
:1037B0008312353BE5082403FAE5093400FB02399E
:1037C000AB850A82850B83E02404F07C047D0079BC
:1037D00000AA12AB1312103C023A76E50E450F60B8
:1037E00003023A1C123AAAFEA3E0FF850A82850B67
:1037F000837404F0EE850882850983F0EF851282D8
:10380000851383F07403121834AC82AD83EEFAEFA3
:10381000FB1206D68A0C8B0DEA450D70030238BFE9
:103820008A828B83A3A312275274011218348582D3
:103830000E85830F780E121A6B7405121834121A43
:10384000827CFF7DFF1206DC74041217FE8B0FEAE8
:10385000450F7033850C82850D83123A82121A6BE4
:10386000850C82850D83A3121A827C027D007A0268
:103870007B9512050874041217FEE9700A74011290
:10388000183474FFF0A3F08E828F83E064027039E5
:10389000750C02750D00780C121A6B8E828F8312D4
:1038A000353BE5082404FAE5093400FB12102474C2
:1038B000021217FE850A82850B83E02402800974B8
:1038C00001121834EEF0A3EFF07401121834123A1A
:1038D00093F07401121834A3123A8B023A16E50ED3
:1038E000450F6003023A1C850C82850D8312353C1E
:1038F000AA16AB1712080E850A82850B837402F094
:10390000EA850882850983F0851282851383EB029C
:103910003A19E50E450F6003023A1C123AAAF8A3C1
:10392000E0F9850A82850B837402F0E885088285B8
:103930000983F0E9851282851383023A19850C8286
:10394000850D831232E112101EEAFC8C82A882C31C
:10395000950EE4950F405FE8650E7002E50F700468
:103960007C008022851882851983E0FAE50E2AFA08
:10397000E50F3400FBC3EA98EB94005003E08005A8
:10398000E50ECCC39CFCEC850A82850B83F08C0A87
:10399000750B00780A121A6B850C82850D83E02561
:1039A0000EFCA3E0350FFDAA08AB09121024740227
:1039B0001217FE023A76751007023A76E50E450FA9
:1039C000705A850C82850D83123D94850A82850B81
:1039D00083740712275E123A8B12275EA3E08512CA
:1039E00082851383F0E82402FAE93400FB8A828B93
:1039F00083123A8B123ABA123A93A3123AC3123A8A
:103A00009CF0E82405F8E93400F988828983123AA9
:103A10009CA3123ADFA3A3A3A3F0805A75100B80D6
:103A200055741D1218341232E11207A28A828B8358
:103A3000E5824583603D123D94880C890DE8450D73
:103A40006031780E121A6B780A121A6B7808121A03
:103A50006B7406121834E0F9EEFCEFFDAA16AB17F2
:103A6000850C82850D8312185674061217FEE9F52F
:103A700010800375100EA91074051217FE7F100236
:103A8000192AE0F50E750F00780E22E08508828570
:103A9000098322123AE922123D98E822123AE9A358
:103AA000A322E0F508A3E0F50922850C82850D83A9
:103AB000E0F8A3E0F5838882E022A3A3F08A828B5A
:103AC00083A322F088828983A3A3A3A322F08A82FE
:103AD0008B83123AD622E0F50A750B00780A22F0A1
:103AE00088828983A3123AE922E0850882850983C6
:103AF000A3A32274EE12185874FE1217E88A0A8BD8
:103B00000BECFAEDFB7414121834E0F510A3E0F599
:103B1000117416121834E0FE7418121834E0F50E01
:103B2000A3E0F50F851882851983AC82AD83120658
:103B3000D68A0C8B0DEA450D60498518828519835C
:103B40001232E11207A28A828B83E5824583602FBD
:103B5000A3A3123AA2E50845096024780E121A6B55
:103B60007810121A6BEEF9AC0CAD0DAA0AAB0B85EE
:103B7000088285098312185674041217FE8006798C
:103B80000E80027901022F7B74F612185874FE120F
:103B900017E8740C121834123A9785188285198325
:103BA000F07401121834E9F0E4F508F50978081208
:103BB0001A6B7508027808121A6B7404121834858F
:103BC00082088583097808121A6B1207F6740612A8
:103BD00017FE74021217FE806874F7121858EAFE76
:103BE000EBFF89087C197D0312080EEA5402600B72
:103BF000A908EEFAEFFB1206CA8002790102265AE2
:103C000074F612185874FF6A700374FF6B70168C88
:103C1000828D83123C46E4F08C828D83A3A3A31291
:103C20003C46A380181207DE8A088B09A808A90958
:103C3000E849600D8882898374FF12275CA3A3E49E
:103C4000F07F0202192A74FFF0A3F08C828D83A307
:103C5000A32274F61218581207DE8A828B83E5823B
:103C600045836006A3A3E0FA80027A007B0080D13E
:103C700074F21218588A088B09ECFEEDFF740E12CC
:103C80001834E0F50A1207DE8A0C8B0DA80CA90D7A
:103C9000E8497026EEFCEFFD7AFF7BFF1207DE8A13
:103CA0000C8B0DA80CA90DE84970047911801688B9
:103CB000828983E508F0A3E509F088828983A3A3BC
:103CC000E50AF079007F0602192A74EE121858EA04
:103CD000FEEBFF8C088D09890C7414121834123D08
:103CE0009474161218341232E1750D00E84960031D
:103CF000023D887402650C6003023D837412121841
:103D000034123D9EFCA3E0F9EC2400F50EE439F5F5
:103D10000FEAF4F8EBF4F9EC58F8E50F59F9E84933
:103D2000705CE5082406F8ED3400F9880A890B88F0
:103D300082F583123DA912080E8A108B11E50E65DB
:103D4000107004E50F65116042780E121A6B850A37
:103D500082850B83123DA912081474021217FEE922
:103D6000F50D7027780E121A6B850882850983A3DA
:103D7000A3123DA712082674021217FE800D750DBE
:103D8000808008750D0D8003750D0BA90D02344060
:103D90008E828F83123D9822E0F8A3E0F922123D33
:103DA0009888828983E022A3A3E0FCA3E0FDEEFAD9
:103DB000EFFB223400F50D850C82F58322E028FE0E
:103DC000A3E039FF8E828F832274F2121858EAFE24
:103DD000EBFF890B7401650B600E7402650B706A52
:103DE00079011209F4E97062EEFAEFFB1207D88A42
:103DF000088B09EA45096047750A00800B7C177D2E
:103E000000790012103C050A9002E6E0F8E50AC3CA
:103E1000985021E50A75F017A4F8A9F08508828565
:103E20000983A3A3E028FAA3E039FB8A828B8312DB
:103E3000284970C985088285098374FFF0A3F07C46
:103E4000197D03EEFAEFFB120808023CC574F2126A
:103E500018588A088B09ECFEEDFF740E1218341204
:103E6000362A90104FE0F4603D7A097B001210482A
:103E7000EA4B60328A828B8374B1F0A3E4123ABCBD
:103E8000A3123ABAA3E508F0A3E509123EA9EEF0A1
:103E9000A3EF123EA9A3A3E50AF0A3E50BF090104F
:103EA0004FE0F9121054023CC5F08A828B83A3A321
:103EB000A3A3A32274F012185874FA1217E8890801
:103EC000ECFEEDFF7509008A0A8B0B780A121AAF17
:103ED000000410DC40F73E153F2F3F473F653F7D14
:103EE0003FA03FB83FCC3FF63F734084409B40B675
:103EF00040DC40DC400C407401650860030240D7A0
:103F00008E828F83E0F8C3940340030240D7E89089
:103F1000113B0240B37402650860030240D78E82F1
:103F20008F8312488490113CE8F0A3E90240B374F7
:103F300001650860030240D712410440030240D7E4
:103F4000E89007660240B37401650860030240D739
:103F50008E828F83E0F8C3940540030240D7E89037
:103F600007670240B37401650860030240D712413D
:103F70000440030240D7E89007680240B37410651C
:103F80000860030240D7750A10750B00780A121AF0
:103F90006B7A697B0712102474021217FE0240FD2F
:103FA0007401650860030240D712410440030240D7
:103FB000D7E89007790240B37401650860030240B6
:103FC000D78E828F83E090113F0240B3740465085E
:103FD00060030240D78E828F83780C1216A09094D3
:103FE00091780C1214D350030240D790077B780CC1
:103FF0001216AF0240FDE960030240D7120676E9CF
:1040000070051211B6805690080E8063740765081B
:1040100060030240D7750A06750B00780A121A6B06
:104020008E828F83A3AC82AD837402121846121065
:104030002A74021217FE7C007D00AA18AB198E822A
:104040008F83E0F9121162E9F50AC3940A40030272
:1040500040FA120676E9700CA90A1211BC795012C6
:10406000137E806E740F250AF582E43408F583749C
:1040700001804074016508705E1241045059E89057
:10408000077A802F74016508704D8E828F83E0F867
:10409000C3940A5042E890113E801874016508707C
:1040A000368E828F83E0F874F928C3940A5028E88A
:1040B000901140F0804774016508701B90080DE076
:1040C000F88E828F83E090080DF0E87030E0640194
:1040D000702B1211AA80267509188021C3EA942733
:1040E000EB9400501574026508700F8E828F831256
:1040F0004BA7120514E9F5098003750902A9097493
:10410000060244E48E828F83E0F8C3940222740E88
:104110001217FE7F0402192A74F012185874B11293
:1041200017E88C0E8D0F909453742012184E74065D
:104130001216FB742012184E121162E9F50B745F0F
:10414000121834E0F50CE9C3940A40030242967554
:10415000F006E9A4F509744112184E7A0E74202570
:1041600009F9121378E97009744D121834E0FE80D1
:10417000027E0090113BE064027005750801800327
:104180007508007408650C7004742280027421257F
:1041900009FF7C1B7D007900742612184612103C22
:1041A000EEA2E0E433F50A742612184E7A1BEFF9FA
:1041B000121378E970257440121834E024F9C3947E
:1041C0000A50187808121A6F742712184EA90AAAF2
:1041D0000EAB0F1205B674011217FE7C147D007928
:1041E00000740C12184612103C740C12184E7A10FF
:1041F00074242509F9121378E970307C1079FF7462
:104200000C12184612109CE97021741C121834AC60
:1042100082AD837A0474252509F9121378740C127F
:10422000184EA90AAA0EAB0F12059EAC18AD197A4A
:104230000C7470250BF9121378E97049AA18AB19A0
:104240001211927F00EF75F003A4F8A9F08518828F
:10425000851983E58228F8E5831249AC124BA160E9
:104260001D88828983A3A3E0F508750900780812E8
:104270001A6BAA0EAB0F1207FC74021217FE0FEF97
:10428000C3940440C0EEA2E1500C900765E0F9AA87
:104290000EAB0F1208027404650C702790113BE0FE
:1042A0006402701F7A00900779E060010A90076647
:1042B000E06004780480027800E84AF9AA0EAB0FA7
:1042C00012065E7900744F0244E474F112185874B7
:1042D000F01217E88A0C8B0D8C088D097E0AE960B4
:1042E0000C14600914603A1460750243B01211A4F2
:1042F000E9FEC3940A40030243B0E5084509700390
:104300000243B0750A06750B00780A121A6BAC0CE2
:10431000AD0DAA08AB0912102474021217FE024355
:10432000B07F00750A06750B00780A121A6BAC0C88
:10433000AD0DEF75F00EA4F8A9F0748728FA740794
:1043400039FB12103674021217FEE970090FEFC321
:10435000940A505C80CDEFFEC3940A505380427F94
:1043600000AC18AD197A1075F006EFA42423F912E9
:104370001378E9701C7C1079FFAA18AB1912109CF5
:10438000E9700EAC0CAD0DAA18AB19120580E960EE
:10439000090FEFC3940A501880C7EFFEC3940A5068
:1043A0000FE50845096009AA08AB09EEF912119E4C
:1043B000EEF974101217FE7F0702192A74F412180E
:1043C00058E9FF7E1574FF6A700374FF6B702875DF
:1043D0000800EFFC7A027B00A908121180E9600254
:1043E0007E000508E508C3940A40E7EF604E7ACEE8
:1043F0007B11120A0680451209E88A088B09EA45F2
:104400000960387C007D00EA2405FAE43509FB8563
:104410000882850983A3A3A3A3E0F9121162E9C36B
:10442000940A500BEFFC7A027B001211807E00EFA1
:10443000600AAA08AB091211CE80011EEEF90241F2
:104440001374F21218588C088D097E15740E121808
:1044500034E0F50AA3E0F50B74FF6A700374FF6B98
:10446000701D7F00AC0AAD0BAA08AB09EFF9121161
:1044700086E960027E000FEFC3940A503B80E5128C
:1044800009E88A828B83E5824583602B7C007D006E
:10449000E5822405FAE43583FBA3A3A3A3E0F91284
:1044A0001162E9C3940A5010AC0AAD0BAA08AB091B
:1044B0001211867E0080011EEEF97F0602192AC0C5
:1044C00082C08390077FEAF0A3EBF0900765E0FCE1
:1044D0007D007A267B00120514900765E0F912072B
:1044E0007E024FA71217FE7F0802192A74F01218D5
:1044F0005874EC1217E8EAFEEBFFEE240CF50CE41E
:104500003FF50DEE2405F50EE43FF50FEE2409F519
:104510000AE43FF50BEE2403F508E43FF5098E822B
:104520008F83A3A3E024FA70030247A824FD70033D
:104530000246C61470030245C314601024FD7003C4
:1045400002469D1470030246FD0247FF1252A96005
:104550004AE0F5838882E0F50EA3E0F50FE50E450D
:104560000F6038850C82850D83E0F50C780C121AEB
:104570006FEE240BF582E43FF583E0F9850A82852E
:104580000B83124BA70A0A0AAB09850E82850F839B
:1045900012185674011217FE0247FF850A82850B16
:1045A00083121A8290077B1216BE1205B074021293
:1045B00017FEE970030247FF7901850A82850B83A4
:1045C0000247738E828F83A385820A85830BE06006
:1045D00003024680850E82850F83E0A2E04003023D
:1045E00046809008191252AC60030246807C0E7D12
:1045F000007900AA18AB1912103C850C82850D8336
:10460000124F72EA4B6010750C06750D00780C1293
:104610001A6BEA2410801B124F6C1209E8EA4B70E7
:10462000030247FF750C06750D00780C121A6BEA31
:104630002405FCE43BFD7402121846121024740297
:104640001217FE850E82850F83E0A2E25004D2F09D
:104650008002C2F0A2F0E433F8740C121834E0487F
:10466000F0EEFCEFFDAA18AB19121198E970117A5F
:10467000027B00900765E0F912107879000248018A
:104680001252A970030247FF12480670030247FF47
:10469000850A82850B83E0FC790102479C1252A9AE
:1046A00070030247FF124F31890BE8450B7003027C
:1046B00047FF8E828F83A3E0FC7902124F6C8882C1
:1046C000850B830247A37C007D00EE2404FAE43FBF
:1046D000FB850882850983E0F9121162E9F8C39429
:1046E0000A40030247FFEE240AFCE43FFD7A04750A
:1046F000F006E8A42425F91213720247FF124F6C4A
:1047000090077AE0600790113EE0F9806990113BD4
:10471000E070047905805F1209E88A0C8B0DA80C03
:10472000A90DE82404F50CE439F50D8E828F83A3DE
:10473000A3A3A3A3A3A3E0A2E05041E8497003020E
:1047400047FF850C82850D83E0FE6030850A8285F7
:104750000B83E054107025740E12184EE82405FAED
:10476000E439FBEEF9121162E970117903850882D0
:10477000850983124F721205AA0247FFAC0EAD0FD6
:10478000850C82850D83E0F9124F6C1211DA1252FA
:10479000A9606C12480660677C007900124F6C8E2D
:1047A000828F831218568057120676E9705190084E
:1047B0000EE0640170151211B690080EE4F07C0A48
:1047C000FDF97A0F7B0812103C802C750A00850ACF
:1047D00008740F2508FEE43408FF8E828F83E0649E
:1047E00001700BA90A1211BC8E828F83E4F0050AB6
:1047F000E50AC3940A40D7795012137E1211AA79A0
:104800000174140244E4124F35E8FEE9FFEE4F2232
:1048100074F412185874F21217E8EAFE8C0975F055
:1048200006E9A42420F508AC18AD197A0EF9121384
:1048300078E9704B7C0679FFAA18AB1912109CE935
:10484000703D740C121834124884E8F50BE50960C9
:1048500005EE420B8004EEF4520B850B82AA82E82F
:104860006A7001E96015740C121834EAF0A3E4F0E0
:10487000AC18AD197A0EA908121372790180027969
:104880000002410EE0F8A3E0F92274F21218587405
:10489000E61217E889098A0C8B0DECFEEDFF740C0B
:1048A00012184E7A0E75F006E9A42420F912137836
:1048B000E9600302496F7C0679FF740C12184612F6
:1048C000109CE9600302496F74702509F508AC1863
:1048D000AD197A0CF9121378E9600302496BAA1832
:1048E000AB19121192E50C450D701D7C0C7900AAD4
:1048F00018AB1912109CE970727C0C7D007900AA2B
:1049000018AB1912103C8051AC18AD19AA0CAB0DA4
:1049100012118C8A0A8B0BA80AA90BE8497022EEA7
:104920004F604CAC18AD197A007B0012118CEAF87C
:10493000EBF9EA4B603988828983E50CF0A3E50D39
:10494000F01249E8FAEE6A7001EF601FEEF04F7066
:104950000888828983E4F0A3F0AA18AB1912119297
:10496000AC18AD197A0CA90812137279018002797A
:1049700000741A1217FE0244BA74F71218587F0016
:10498000EF75F003A4F8A9F0EC28F8ED1249ACE0BB
:104990006A7003A3E06B7006E8FAE9FB800B0FEF87
:1049A000C3940440DB7A007B00024CE439F988822E
:1049B00089832274F71218587E00EE75F003A4F86C
:1049C000A9F0EA28F8EB1249ACE0F4FCA3E0F4FD0E
:1049D00088828983ECF0A3EDF01249E8F4F00EEE42
:1049E000C3940440D5024CE4E82402F582E439F58E
:1049F00083E02274F412185874F41217E8EAFEEBFC
:104A0000FF8C0A8D0B9008191252AC704FEE4F704C
:104A100003024B82EC450B7003024B821211A4E996
:104A2000901141F0C3940A40337508007C0679FF69
:104A3000E50875F00EA4FAABF074812AFA74073B0E
:104A4000FB12109CE96003024ADB0508E508C394E9
:104A50000A40D975090AE509901141F0901141E029
:104A6000C3940A4003024B8275F006E0A4F8900854
:104A700019124F72EA4B7069EEFCEFFD7A0E74204A
:104A800028F91213727C0C7D0079FFAA18AB191259
:104A9000103CAC18AD197A0C901141E02470F91259
:104AA000137275080E7509007808121A6BEEFCEF88
:104AB000FD901141E075F00EA4F8A9F0748128FA78
:104AC000740739FB12102474021217FE900819E5BE
:104AD0000AF0A3E50BF07900024B84850809024A2D
:104AE00056124B892406124B9B60197A1B7421289D
:104AF000F9121372124B922406F582E438F583E41E
:104B0000F0A380D1124B89240A124B9B60107A1BB0
:104B1000742228F9121372124B92240A80DB124B72
:104B200089240C124B9B60107A10742328F91213FD
:104B300072124B92240C80C1124B892408124B9B99
:104B400060347A10742428F9121372124B922408DC
:104B5000F582E438F583E02410FCA3E03400FD7A0C
:104B60000475F006901141E0A42425F91213721285
:104B70004B922408808390080DE060031211E0122C
:104B800011D47901740C024110900819E0F9A3E0E6
:104B9000C922900819E0F8A3E0C822F582E439F5AB
:104BA00083124BA7EC4D22E0FCA3E0FD2274F4122B
:104BB000185874F21217E8EAFEEBFFE9C3940A50A2
:104BC00004EE4F700479028034AC18AD197A0E757A
:104BD000F006E9A42420F9121378E9F508701C7591
:104BE0000A06750B00780A121A6B740212184EEE40
:104BF000FAEFFB12102474021217FEA90802410EEC
:104C000074F4121858EAFEEBFF750800750A067571
:104C10000B00780A121A6BEEFCEFFDE50875F00E3A
:104C2000A4F8A9F0748128FA740739FB12103674BD
:104C3000021217FEE96004A908800B0508E508C305
:104C4000940A40C8790A02411374F712185875087B
:104C500000E50875F00EA4F8A9F0748128FE740729
:104C600039FFEEFCEFFD7A0E75F006E508A424206E
:104C7000F9121378E960297C067D0079FFEEFAEFDE
:104C8000FB12103C7C067D0079FFEE2CFAE43FFB22
:104C900012103CEE240CF582E43FF583E4F0A3F01F
:104CA0000508E508C3940A40A890080DE0600312C7
:104CB00011E01211D4802D74F71218587E007F0075
:104CC0007C0679FFEF75F00EA4FAABF074812AFA36
:104CD00074073BFB12109CE970010E0FEFC3940A9E
:104CE00040DEEEF97F0102192A74F71218587E008F
:104CF000EEF91211BC0EEEC3940A5003E960F18084
:104D0000E374F312185874CB1217E8E9FF901141BD
:104D1000E06F701B7A017B00900765E0F912107E4E
:104D20007A027B00900765E0F912107E1211EC7593
:104D3000F006EFA4FE74202EF508742712184E7AA0
:104D40000EA908121378E96003024E077C0679FF6A
:104D5000742712184612109CE96003024E077C0E5D
:104D60007D0079FF742712184612103C7C1B7D00D1
:104D700079FF740C12184612103C7C0C7D0079FFF0
:104D8000AA18AB1912103C742712184E7A0EA908F3
:104D9000121372E9F508740C12184E7A1B74212E46
:104DA000F9121372E9F50C740C12184E7A1B742266
:104DB0002EF9121372E9F50B740C12184E7A107456
:104DC000232EF9121372E9F509740C12184E7A1099
:104DD00074242EF9121372E9F50A740C12184E7A23
:104DE0000474252EF9121372E9FEAC18AD197A0C71
:104DF00074702FF9121372E9F8E50C450B4509455B
:104E00000A4E4842088003750800A9087435121735
:104E1000FE7F0502192A74F7121858E9900765F009
:104E20001211AA024CE474F4121858EAFEEBFF5473
:104E3000807003024EBE900765E0F91210608A0888
:104E40008B09EA4509607078018A828B83E02450DF
:104E5000603D14600624E1604F8052A3A3A3A3E049
:104E6000704E8A828B83A3A3A3A3A3A3A3121A8247
:104E70008A828B83A3A3A3A3A3124BA78A828B83CB
:104E8000A3A3124F7212116E74021217FE8021A397
:104E9000A3A3A3E0641E701879008A828B83A3A366
:104EA000124F72121168800812117AE9F8E860074F
:104EB000AA08AB0912104EEEFAEF64808065EE543A
:104EC0000260237C007D007A007B00121198E9606B
:104ED000117A017B00900765E0F9121078EE640208
:104EE000803F7A028046EEA2E0503F124F42124FBE
:104EF000721211E6E9602F1252A9601F124F318819
:104F0000088909E8450960137C007901124F4212B3
:104F10004F728508828509831218561211ECEE64CF
:104F200001FAEFFB80087A0180027A007B000241DF
:104F300013124F3522E0F5838882A3A3E0F8A3E0A3
:104F4000F922900819E0F8A3E0F5838882A3A3A3CF
:104F5000227F0202192AC082C083900765E0F98A85
:104F6000828B83A3124F72120802803B85088285D0
:104F70000983E0FAA3E0FB22C082C08374FF12170A
:104F8000E81211B0E9C394028518828519834004A0
:104F900074028002740AF0AC18AD197A0179051216
:104FA000068E74011217FED083D08202011F74F4A2
:104FB00012185874E81217E88A088B09E9FE8C0A5F
:104FC0008D0B7C187D007900AA18AB1912103C8556
:104FD0001882851983E508F0A3E509F0900767E0DA
:104FE000C0E07402121834D0E0F0900768E0C0E02E
:104FF0007403121834D0E0F0901140E0C0E0741750
:10500000121834D0E0F07415121834E054FEF8A3EE
:10501000E0F990113FE0A2E0E433FAE84AF87415B1
:10502000121834125149A2E15004D2F08002C2F0A9
:10503000E854FDFAA2F0E43325E0F8EA48F87415E4
:10504000121834125149A2E35004D2F08002C2F087
:10505000E854F7FAA2F0E433F50875090074037810
:10506000081217D5125142121834125149A2E450B5
:1050700004D2F08002C2F0E854EFFAA2F0E433F573
:1050800008740478081217D51251421218341251BC
:1050900049A2E55004D2F08002C2F0E854DFFAA23F
:1050A000F0E433F508740578081217D5125142124E
:1050B0001834125149A2E25004D2F08002C2F0E842
:1050C00054FBFAA2F0E433F508740278081217D5FD
:1050D000125142121834E8F0A3E9F0900768E0603A
:1050E0001D7508107808121A6B7C697D077406120A
:1050F0001834AA82AB8312102474021217FE900790
:1051000079E06010EE60097415121834E04402F082
:105110007801800278007414121834E048F0900787
:1051200066E060047804800278007414121834E099
:1051300048F0AC0AAD0BAA18AB191205A4741802FA
:105140004110EA4508F8741522E8F0A3E9F090113F
:105150003FE02274F7121858120874750800E50829
:1051600075F00EA4F8A9F0748128FE740739FF7C4D
:105170000679FFEEFAEFFB12109CE97009EEFAEFE8
:10518000FB790012087A0508E508C3940A40CF02AB
:105190004CE474F612185874FD1217E8EAFEEBFF9F
:1051A00090081B1252AC703975081D7509087808F3
:1051B000121A6B7508027509007808121A6B7508C7
:1051C0001A7509957808121A6B7CFF7DFF7A017BAE
:1051D000001206D074061217FE90081BEAF0A3EB2B
:1051E000F090081B1252AC7003025293E4F508F5DC
:1051F000097808121A6B740412183E880889097815
:1052000008121A6B740412183E880889097808126B
:105210001A6B90081D121A82790290081B1252A173
:105220001207F074081217FEE97036851882851986
:1052300083E0FA7401121834E0F8E4C8F9EA28F5BA
:1052400008E439F509EA450960177808121A6B90E5
:10525000081B124F45A31252A112116E74021217AD
:10526000FEE4F508F5097808121A6B90081D121A69
:10527000827CFF7DFF90081B124F721206DC7404C3
:105280001217FE90081BEAF0A3EBF090081B1252D5
:10529000AC700479018002790074031217FE024F8A
:1052A00051124BA7EEFAEFFB2290077F124884E8D9
:1052B0004922C082C0839008191252AC6010900835
:1052C00019124F7212104E900819E4F0A3F09011C9
:1052D00041740AF0024FA7C082C0839061907404A9
:1052E000F0A37448F0A3E4F09061807440F0906102
:1052F000BC7407F09061877469F09061B67416F021
:105300007900120B027902120B08902610E493F434
:105310006006E493F9120ADE7905120E080256D2ED
:10532000C082C083E9540FF9906185E0696012E59D
:10533000C654804449F5C6E59E547F644970F8E937
:10534000F053C680E59E547F70FA0256D274F7126D
:105350001858E5A8FE53A87E120AEAC2BA539AFE6C
:10536000C289759B00C2C2120AF075A91175B905F0
:10537000120AF6D2BA439A0174805E42A8025C69AE
:10538000C082C083906181E4F0A30256CF75E9002A
:1053900075910075BF0002011FC082C083906181BA
:1053A000E4F0A374C0F0A3E40256D1C082C08374B9
:1053B000F81217E89003A4126602700302548A9050
:1053C00003A4E0544060237908851882851983AAD4
:1053D00082AB83120BFE851882851983AA82AB8368
:1053E0001208A49003A4E054BFF0E0548060107948
:1053F0000C7A657B05120BFE9003A4E0547FF0E06D
:10540000A2E0500F7900120B021208AA9003A4E048
:1054100054FEF0E05402600F7901120B021208AA48
:105420009003A4E054FDF0E05404600F7900120BE7
:10543000081208B09003A4E054FBF0E05408600F99
:105440007901120B081208B09003A4E054F7F0E0C1
:105450005410600F7902120B081208B09003A4E0F8
:1054600054EFF0E05420600F7903120B081208B0DB
:105470009003A4E054DFF0A3E05401600D120B147C
:105480001208B69003A5E054FEF074081217FE024D
:1054900056D2C082C083E9600514602A804F9061B3
:1054A0009A7433F0A37455F09061A0743AF09005AB
:1054B0003FE064017009C2919003A67467802D904B
:1054C00003A67461802690619A743FF0A3745AF029
:1054D0009061A0747FF090053FE064017009D29163
:1054E0009003A6747180059003A6746AF00256D2E8
:1054F000C082C083E9600B14600D14601714600C47
:1055000080209026148015902615801090053FE08D
:10551000640170059026168003902617E49390612D
:1055200086F00256D274EE12185874F41217E885F9
:105530001882851983AC82AD8375839475826174FA
:10554000041216FB90261493F4600302564F9078D1
:1055500008E0C39402500302562F7404121834ACAE
:1055600082AD8375839475822674081216FBFC7EC7
:10557000FF7FFF8E0C7D008C8285820E800F740869
:105580006D606D74096D6068740A6D60638D087577
:105590000900740278081217D51256591216A0A9DC
:1055A00009E50AC9F88810741878081215E1E510A1
:1055B0004508FAE9FBE50EC333F8E433F974041245
:1055C0001834E58228F582E58339125B59C3E89ADD
:1055D000E99B4008E8C39AF8E99B8006EAC398F87B
:1055E000EB99F9C3E89EE99F5006E8FEE9FF8D0CB0
:1055F0000DEDC39413408774FF6E700374FF6F60EA
:1056000024850C08740278081217D5125659121600
:10561000A0851882851983E582250EF582E583121F
:105620005FF8E508F00CECC39404500302556F7565
:1056300008017509007808121A6B7402121834AC4C
:1056400082AD837A857B0912122E74021217FE74C2
:105650000C1217FE7F0A02192A74482508F5827475
:10566000783509F583780822C082C083906186E08E
:10567000F8902617E493687009902616E4939061D9
:1056800086F09061AE7468F0A3746AF0906245741D
:10569000FBF0A304F053F4FD43FE0290053F7401B8
:1056A000F09061A0E0643A70047900800279011200
:1056B0000B020256D2C082C0839004F1E0640170F4
:1056C0000A9004F6E06004790C800279008003F00F
:1056D000A3F0D083D08202011FC082C08375E1F1A4
:1056E0009004F4E0604D1460091460511460491492
:1056F0007050120B269004EAE0F97AEB7B04120D4D
:105700008A9094591216BE120DC090947D1216BE46
:10571000120D969004F5E0F9120DA27901120DFC1C
:105720001257F52416125FF5743EF0A3740BF0794E
:1057300000809F120B2C80BD120B3280B8120B38E8
:1057400080B3791280EB74F412185875D90D900457
:10575000D5E0A2E0E4331313F81257EB484401F507
:10576000D9780012585840FB7800880874D6126522
:1057700058740412586240F275E1959004D5E0F92E
:105780007AD67B04120D9090107174B4F0A3740A51
:105790001258681258AC1258A31259C09004F4E081
:1057A00064019004E8700B1257FE1216A090945DED
:1057B00080091257FE1216A09094C9780812162C70
:1057C000909471780812167A1257F5240E125FF52C
:1057D00078081216AF1257F52414125FF57413F0FF
:1057E0009003A27402F07F0402192A9004EAE0C434
:1057F000333354C0229004E8E0F8A3E0C8221264D6
:105800009078082274F61218581259918AD97800A3
:1058100012585840FB78008006125909125A46E87F
:10582000C39940F512598312585840FB78008008FC
:105830001265547405125A46E8C39940F375E19510
:1058400090107174C0F0A3740A12586812587274E0
:1058500012F09003A2025C2D880874EB2508F582F3
:105860007404125BC39406221259A974BAF0A3748B
:105870000A221258AC1258A31259C49004E8E0F856
:10588000A3E0C8240E12589B74FF1262CD9004E866
:10589000E0F8A3E0C8241412589B22F582E83400F3
:1058A000F58322F0A374D2F0A3740A221258B02216
:1058B0001258B422F0A37470F0A3740C2274F61280
:1058C00018581258FE1257EB4402F5D978001258B6
:1058D0005840FB78008006125909125A46E8C399CD
:1058E00040F575E195901071125914F0A3125914F6
:1058F0001258757414F09003A27404025C2F900483
:10590000FAE0F9740729F5D922880874FB2508F50F
:105910008274042274CC125921125921F0A3740A02
:1059200022F0A3740AF0A374CC2274F61218581251
:10593000599174064AF5D9780012585840FB7800FE
:105940008006125909125A46E8C39940F512598344
:1059500012585840FB780080081265547405125A9A
:1059600046E8C39940F375E19590107174C6F0A3B1
:10597000740A12599F1258727415F09003A274039E
:10598000025C2F90051A12590174044AF5D9780067
:10599000221258FE9004EAE0C4333354C0FA2212B3
:1059A00059A97470F0A3740C221259AD221259BA7D
:1059B0007470F0A3740C1259BA221258B4F0A322D6
:1059C0001259C422F090107F7470F0A3740C125915
:1059D000AD7470F0A3740C1258B0F022C082C08372
:1059E0001257F52406125FF5E40256CF74F7121829
:1059F000589003D0E0F875F003A4C8AAF02AF9740F
:105A0000D228F8740339F9E82405FAE91264A3A34B
:105A1000A3A3A3A3A3A3A3A31265A4A3A3A3A3A324
:105A2000A3A3E024FFF8A3E034FFF98A828B83E884
:105A3000F0A3E9F0025C697F0602192A8808744520
:105A40002508F5827405125FCFF5D90822EAFEEB2E
:105A5000FF9061D0E0F87480C398FAEE248222129D
:105A60005A65940422F582E93400F583E0F5D90AF9
:105A7000EAC32274F6121858EAFEEBFF9061D0E0F8
:105A80006003025B0775D90E75D90375D9047A00D6
:105A90008A08EE250812655D248B125B0C40F17AB2
:105AA000008A08EE250812655D2483125A5F40F1D2
:105AB00075E1957908EE248BFAEF3400FB120BF2B6
:105AC0007904EE2483FAEF3400FB120BF27C008C95
:105AD00082AA82C3E49AF895E0F9EE28F8EF39F942
:105AE000E8248AF582E9125FCBC0E0EE2A12655DF8
:105AF00024AAF582E9125FF8D0E0F00CECC3940818
:105B000040CD125B1580027900025C30125A659418
:105B1000082275E195EE246FF582EF12589E126609
:105B20001FEE2471F582EF12589EE8F0A3E9F07998
