:020000040000FA
:06000000020107022024AA
:03002B0002249913
:0300330002247B29
:03003B000224BAE2
:0300430002242F65
:0300530002209AEE
:03006B0002245517
:10008300021ED3E5C754F84401F5C77901220000E5
:100093000080FB120086B900030200F1E4792178A5
:1000A30008B800028004F709D8FCE479297802B87B
:1000B30000028004F709D8FCE490028178C1790A30
:1000C3008002F0A3D8FCD9FA7A417B0C90013778EF
:1000D300EE79038015E493A3AD82AE838A828B838A
:1000E300F0A3AA82AB838D828E83D8E9D9E7758288
:1000F300187583A1740312011975829175830074B5
:100103000012011975D00075813F751881751902A8
:10011300759F00020096C09FF59FE473D09F22D085
:1001230083D082C09FE493C0E0740193C0E0740263
:1001330093F59F22FF0000B4000028002800283018
:1001430075A000A000A000A00000080008E001F0D6
:10015300001000100010001000100010005000509C
:1001630000500010001000D0070000000000000F36
:100173000001000500307507001000010081FF0039
:10018300000000FF220640062806FF0202020802C2
:100193005000A0000000E803020E930100005D92EE
:1001A300020A93010000980C020493010000B302B9
:1001B300020A93010000990C022C93010000C9026A
:1001C300020A930100009A0C021493010000CB026F
:1001D300020A930100009B0C021A93080000CC0250
:1001E300020A930100009C0C023C930100009D0C49
:1001F300FF0100FF20020E93010000FB92020A930D
:10020300010000010D021E9300000000000206938E
:1002130003000019035E0C5E0C5E0C5E0C5E0C5E4C
:100223000C5E0C5E0C5E0C5E0C5E0C5E0C5E0C34A5
:100233000F4C0F2E0FFFFF02020202020202020204
:10024300010D0000001001020E93010000FE920256
:100253000A93010000440D022A930100005D070286
:100263000A93010000450D0228930100001C92022D
:100273000A93010000460D022693010000E5910256
:100283000A93010000470D022493010000F8900235
:100293000A93010000480D0222930100000A910213
:1002A3000A93010000490D022093010000409102CE
:1002B3000A930100004A0D021C93010000E690021C
:1002C3000A930100004B0D021893010000019202F2
:1002D3000A930100004C0D0216930100004D0D011D
:1002E300E803053F100AFF00013075030201060011
:1002F30000000000000000000000000000000000FB
:100303000000000000000000000000FFFF06008066
:100313000CE803140953696D706C65424C455065D4
:10032300726970686572616C051250002003020ADD
:10033300000201060302F0FF53696D706C652042F1
:100343004C45205065726970686572616CD2130008
:1003530000D8130230784646303100024368617298
:10036300616374657269737469632032000830785D
:10037300444230330010436861726163746572698B
:100383007374696320340002436861726163746546
:10039300726973746963203500020E9301000001D2
:1003A30093020A93010000600E0234930100000CD3
:1003B3000C020893010000610E020A930100006819
:1003C3000E023693010000200C020893010000691D
:1003D3000E020A930100007A0E02389302000021F4
:1003E3000C0208930100007B0E020A9301000082B5
:1003F3000E023A93000000350C0206930300003608
:100403000C020893010000830E020A93010000947A
:100413000E0230930400003C0C0208930100009587
:100423000E120122949103120122AB9103120122B5
:10043300DC9103120122179203120122419203124B
:1004430001226B92031201228292031201229992DA
:1004530003120122B09203120122D9920312012244
:10046300EC92031201220293031201221593031249
:1004730001223C93031201220198021201220599E1
:10048300021201223D9902120122609902120122F5
:100493006B99021201228E99021201229D9A021275
:1004A3000122729B02120122ED9B02120122759C12
:1004B30002120122B09C02120122E79C02120122C5
:1004C300759D021201224E9E02120122AE9E02125D
:1004D3000122B99E02120122389F021201223B9F80
:1004E300021201223E9F02120122CD9F021201221B
:1004F300D09F0212012200A0021201222AA002129E
:10050300012218A102120122CAA102120122BDE195
:1005130002120122E5E10212012213E20212012278
:100523004AE202120122A8E202120122F3E20212BB
:1005330001223EE3021201227EE302120122C4E3FE
:1005430002120122F2E302120122AFE4021201229B
:10055300B9E402120122C6E402120122F9E40212F2
:100563000122C5E502120122D1E502120122E9E5C9
:1005730002120122F3E5021201223D9D0312012220
:100583004B9D03120122639D031201227B9D0312E3
:10059300012261B3011201220DB40112012288B4B8
:1005A30001120122A9B501120122E5B501120122AE
:1005B3008EB60112012275B701120122D9B80112B8
:1005C300012230B901120122B1B901120122A1BAEB
:1005D30001120122EEBA0112012274BB011201229F
:1005E300A6BB01120122BABD01120122FCBD0112F8
:1005F30001221ABE011201229DBE0112012271BF06
:100603000112012239C001120122D67800120122FF
:10061300A97900120122527A00120122A57A00124E
:100623000122557B00120122E17B00120122CD7CC5
:1006330000120122FC7C001201220F7E0012012213
:10064300577E001201222C7F00120122687F0012C4
:100653000122847F0012012294A0031201228FF64B
:1006630002120122A5F602120122CBF60212012286
:10067300E7F702120122F1F70212012226F9021210
:1006830001221EFA02120122FFD2021201222FD4EA
:100693000212012262D402120122ACD402120122FC
:1006A30073D60212012272A301120122DCA30112EA
:1006B30001223BA5011201224BA50112012278A5BB
:1006C30001120122CFA50112012278A601120122F3
:1006D3007FA70112012249A801120122A9A901122F
:1006E3000122ECA90112012291AA01120122DEAA20
:1006F3000112012204AB0112012212AD01120122E7
:1007030017AD011201221CAF0112012269AF0112C0
:100713000122DCAF011201220FB001120122B1B09C
:10072300011201225AB10112012292B101120122D6
:1007330095B101120122DDB1011201221DB2011294
:10074300012274B201120122568C031201226E8C13
:1007530003120122B68C03120122CC8C0312012254
:10076300138D03120122278E03120122B48E03126A
:100773000122FF8E031201222C25001201223825AB
:1007830000120122732500120122B8250012012252
:10079300782600120122FE2600120122632700128E
:1007A30001228F2700120122C82700120122062AE4
:1007B30000120122EA2B00120122D02D0012012285
:1007C300132F001201226131001201227332001231
:1007D3000122BE3300120122CE3400120122EB3477
:1007E300001201222635001201224835001201228F
:1007F300AB35001201226C3A00120122013B0012B8
:100803000122523B00120122793B00120122CB3B11
:1008130000120122E93B00120122433C0012012293
:100823002C3D00120122A23E00120122263F00129B
:10083300012226D80212012230D80212012273D8D3
:10084300021201228ED8021201221ED902120122A3
:1008530046D90212012283D902120122BAD9021205
:100863000122E3D90212012258DA021201226DDABF
:100873000212012282DA02120122B3DA02120122E7
:10088300C7DA02120122ECDA0212012226DB02127B
:10089300012252DB021201228ADB0212012209DC4D
:1008A3000212012234DC021201227DDC0212012237
:1008B300A7DC02120122D2DC021201224D9903129B
:1008C30001220080021201222E80021201227C8169
:1008D300021201225C82021201227B820212012295
:1008E300F882021201223B83021201229184021236
:1008F3000122528502120122D987021201227A882B
:10090300021201227089021201226D8A021201224F
:10091300C78B02120122528C02120122F297031298
:1009230001225B9803120122AF9803120122D69889
:10093300031201220799031201227AE6021201220D
:10094300E7E6021201222EE70212012246E8021212
:10095300012242E90212012225EA021201227EB596
:1009630002120122C0B50212012292B60212012222
:100973006BB70212012265B80212012247B90212B3
:100983000122B0B90212012266BA02120122DABAB6
:100993000212012246BB021201226FBB0212012284
:1009A300E9BB0212012282BC02120122E7BC02123D
:1009B3000122FCBC0212012242BD021201225BBDD4
:1009C30002120122C0BD02120122C3BD0212012282
:1009D3005D8903120122858903120122C38903124F
:1009E3000122818A03120122E88A03120122048B65
:1009F300031201222C8B031201225C8B03120122AE
:100A03006B8B03120122E88B031201220E8C03125B
:100A13000122409301120122DE9401120122F99670
:100A2300011201223597011201226297011201225C
:100A33004798011201228E9801120122D2980112C5
:100A43000122E498011201222499011201225199F1
:100A5300011201229C9901120122DC990112012247
:100A63000A9A011201225C9A01120122EC9A0112E4
:100A730001228A9D01120122A09F01120122DE9F01
:100A8300011201226FA101120122B4A1011201225C
:100A93002BA20112012275A201120122A0A20112AE
:100AA300012247A30112012205AC0212012284ACE8
:100AB3000212012246B20212012255B3021201228E
:100AC300BDB40212012254B502120122B053001226
:100AD3000122F95300120122265400120122595413
:100AE30000120122665400120122725400120122E4
:100AF3008454001201226B5500120122C9550012C1
:100B03000122FE55001201224157001201228E5785
:100B130000120122B257001201221F5800120122B3
:100B2300DD5800120122965900120122035A0012C5
:100B33000122B55A00120122C55A001201224C5B50
:100B4300001201220B5C00120122385C0012012208
:100B5300B15C001201220E5D00120122585D0012E9
:100B63000122EE5D00120122B95E001201226E5FC6
:100B730000120122E35F00120122446000120122ED
:100B8300AE6000120122E7600012012289610012A7
:100B93000122996200120122D96200120122F66237
:100BA300001201221563001201225C63001201226C
:100BB300816300120122AE63001201222864001235
:100BC30001226964001201228D65001201223D6633
:100BD30000120122946600120122FE660012012215
:100BE3001767001201223BA2021201228EA20212F7
:100BF30001229AA2021201226FA30212012296A3DA
:100C030002120122D1A3021201223DA402120122E7
:100C130079A402120122B2A402120122CAA402126E
:100C230001221FA50212012238A50212012281A569
:100C33000212012294A502120122AEA50212012280
:100C4300C4A502120122F7A6021201223EA8021233
:100C5300012240A9021201223AAA02120122F97FBB
:100C630000120122D2EC0112012202ED0112012233
:100C7300CAF00112012221F201120122EAF2011249
:100C830001226AF4011201223BF50112012278F5D7
:100C9300011201229BF501120122D9F50112012251
:100CA300E2F5011201222CF60112012236F601129D
:100CB3000122E0F601120122B9F7011201220DF817
:100CC300011201226FF801120122C2F8011201225E
:100CD300F1F8011201222EF90112012249670012D3
:100CE3000122B06A00120122B66A00120122387092
:100CF30000120122B174001201228778001201222E
:100D03000080031201227680031201228C800312D9
:100D13000122CD8003120122078103120122808167
:100D230003120122BB81031201222E82031201222C
:100D33006C82031201227582031201228182031243
:100D430001229D8203120122C88203120122DE8244
:100D530003120122228303120122FADC021201226E
:100D63000DDD0212012227DD0212012250DD0212E3
:100D7300012293DD02120122D2DD0212012210DED2
:100D83000212012275DE021201228ADE0212012200
:100D930095DE02120122A2DE02120122B9DE021244
:100DA3000122C7DE02120122D2DE02120122DEDE9E
:100DB30002120122F1DE02120122FCDE02120122E2
:100DC3001FDF02120122C6DF02120122D6DF021246
:100DD3000122F0DF021201220DE00212012229E0BA
:100DE300021201224EE00212012259E002120122F4
:100DF3006EE00212012282E002120122E3E00212FB
:100E03000122E9E002120122EFE002120122F5E0E1
:100E1300021201220DE10212012240E1021201221B
:100E2300C3D00112012247D101120122F6D10112CE
:100E3300012255D30112012276D50112012262D675
:100E43000112012297D601120122B9D60112012201
:100E530068D70112012260D90112012289D9011236
:100E630001221BDA011201224DDA011201225ADAA0
:100E730001120122B1DA01120122D7DA0112012291
:100E830044DD0112012247DE011201229FDE01121D
:100E9300012252C2011201225CC30112012243C486
:100EA300011201224DC4011201226FC40112012259
:100EB3007BC40112012214C60112012243C601128E
:100EC30001225FC701120122B8C7011201221EC904
:100ED30001120122FDC90112012259CA0112012284
:100EE300C6CA0112012201CB0112012240CB011219
:100EF3000122F9CD0112012213CE011201229FCE4C
:100F030001120122ADCE0112012206CF01120122EC
:100F130014CF0112012287CF01120122EBCF01125C
:100F2300012235D001120122D38C02120122F58C49
:100F3300021201221B8F021201223092021201229D
:100F4300489302120122FB9302120122DD94021242
:100F530001224E9303120122739303120122E5939C
:100F63000312012217C60212012220C60212012215
:100F730029C60212012200C702120122B1C80212BD
:100F83000122E7C80212012221C90212012257C914
:100F93000212012291C902120122C5C902120122C1
:100FA300F1C9021201223ACA0212012274CA0212C0
:100FB3000122BDCA0212012215CB021201224ACB21
:100FC30002120122A5CB02120122DFCB021201225F
:100FD30030CC0212012266CC02120122A0CC0212F2
:100FE3000122CECC02120122F1CC02120122CA9EAE
:100FF30003120122F69E03120122519F03120122C2
:101003005B9F031201226B9F0312012291CD0212F7
:1010130001229BCD02120122D9CD0212012222CE3E
:10102300021201225CCE02120122B6CE021201226A
:10103300D7CE02120122E0CE0212012231CF0212D8
:1010430001225ACF0212012264CF02120122D0CF11
:10105300021201225ED002120122ACD0021201223E
:10106300E2D00212012269D102120122A9D1021295
:101073000122E1D102120122F3D10212012212D282
:10108300021201221BD202120122D5D20212012224
:101093006A9B0312012297FD02120122CDFD021267
:1010A300012203FE021201225CFF0212012281FFD0
:1010B3000112012297FF01120122A1FF0112012255
:1010C30096FF02120122E7EA0212012200EB02124A
:1010D3000122A4EB02120122E4EB02120122FDEB36
:1010E3000212012231EC021201227EEC02120122D1
:1010F300B2EC02120122F4EC02120122649C0312EC
:1011030001228D9C03120122B69C03120122F89C3A
:101113000312012252830312012277830312012255
:10112300A38303120122B4A1031201228D3F0012F3
:101133000122F14100120122A3430012012295442E
:10114300001201221A4500120122984500120122C1
:10115300C54500120122E948001201226349001229
:101163000122524A001201228C4A00120122CC4A67
:1011730000120122864C00120122D94C00120122D6
:10118300224D00120122904D00120122C24D001285
:101193000122DA4D00120122EF4E00120122FF4E0E
:1011A300001201222F50001201225150001201227D
:1011B3008750001201222C52001201226B5200129E
:1011C30001228B5300120122149E03120122259E39
:1011D300031201226BA103120122AAA1031201220D
:1011E300EBFF01120122759F03120122859F031257
:1011F30001229D9F0312012203A003120122669A7A
:1012030003120122EB9A03120122519B03120122C2
:101213007A9603120122A396031201220E97031258
:1012230001225F9703120122B89703120122F8EEFD
:10123300021201222FEF021201229FEF021201225A
:10124300B4EF02120122FDF002120122C3F10212D5
:101253000122E2F10212012209F2021201223EF2FC
:101263000212012256F202120122A7F202120122F5
:1012730045A20312012228FA02120122B8FA02122D
:10128300012236FB02120122BFFB0212012254FC8F
:1012930002120122DEFC02120122E8FC02120122E8
:1012A300F7FC021201220DFD0212012220FD02129F
:1012B300012280FD0212012294FD021201220DA0DF
:1012C3000312012277A00312012289A00312012233
:1012D300F39403120122489503120122B6950312D7
:1012E3000122269603120122298F03120122538F12
:1012F300031201222890031201221C9103120122DE
:10130300E7BD02120122A4BE02120122DFBE0212B5
:10131300012207BF0212012269BF02120122B5BFD7
:10132300021201220EC0021201229FC002120122E8
:10133300A1C1021201225EC302120122E0C3021202
:10134300012245C4021201225CC4021201226CC5AF
:1013530002120122AAC502120122EDDE01120122AC
:1013630077E201120122FFE30112012256E4011286
:10137300012275E401120122F3E40112012291E634
:101383000112012275E7011201225FEB0112012212
:101393002FEC0112012263860312012292860312AB
:1013A3000122A88603120122F0860312012232874A
:1013B300031201229D87031201226C88031201226A
:1013C300D8880312012209FA011201224AFC0112F0
:1013D3000122E6FC01120122A4FE01120122CCFE2D
:1013E3000112012239FF01120122DCF20212012251
:1013F30021F3021201223EF302120122FBF3021235
:10140300012264F40212012247F50212012256F668
:1014130002120122FBA10312012227A203E066703C
:101423001008A3E066700A08A3E066700408A3E04E
:101433006622C3E7960809E7960809E7960809E7CD
:101443009622C3E09608A3E09608A3E09608A3E0DB
:101453009622C008C3E096F50808A3E09642080860
:10146300A3E096420808A3E09645087001D3D0088C
:1014730022080808EAC0E0EBC0E086F0E7A4FA1807
:101483000986F0E7A42AFA180986F0E7A42AFA18CD
:101493000986F0E7A42AFA1986F0E7A4FBE5F02A07
:1014A300FA190886F0E7A42BFBE5F03AFA19088647
:1014B300F0E7A42BFBE5F03AFA18180986F0E7A445
:1014C300C5F02BFBE43AFA1908E7C5F0C6A426F6E3
:1014D300E5F03BFBE43AFA1886F0E7A4F6E5F008FA
:1014E30026F6E43B08F6E43A08F6D0E0FBD0E0FA4F
:1014F300226016080808C6C313C618C613C618C642
:1015030013C618C613C6D5E0EA22700908080822D4
:101513006016181818C6C333C608C633C608C633C0
:10152300C608C633C6D5E0EA22E627F60809E63739
:10153300F60809E637F60809E637F622E026F60844
:10154300A3E036F608A3E036F608A3E036F622E079
:1015530026F008A3E036F008A3E036F008A3E0364F
:10156300F022C3E697F60809E697F60809E697F628
:101573000809E697F622C3E096F008A3E096F00880
:10158300A3E096F008A3E096F022E056F608A3E065
:1015930056F608A3E056F608A3E056F622E056F006
:1015A30008A3E056F008A3E056F008A3E056F022A3
:1015B300E0F608A3E0F608A3E0F608A3E0F622E6C7
:1015C300F008A3E6F008A3E6F008A3E6F022E0FAA9
:1015D300A3E0FBA3E0FCA3E0FD22EAF0A3EBF0A36E
:1015E300ECF0A3EDF022E0F8A3E0F9A3E0FAA3E026
:1015F300FB22E8F0A3E9F0A3EAF0A3EBF022CAC0D0
:10160300E0E6F0A308DAFAD0E0FA22CAC0E0E0A3E9
:10161300C582CCC582C583CDC583F0A3C582CCC5A5
:1016230082C583CDC583DAE6D0E0CA22C3E498F845
:10163300E499F91216708026C3E49AFAE49BFBE955
:1016430020E7E9121670E498F8E499F922C3E498C4
:10165300F8E499F9121670E498F8E499F9C3E49A56
:10166300FAE49BFB22EB20E7CFE920E7E0B9001087
:10167300BB0008E88AF084F8AAF022E4FBC8FA2247
:10168300EB70227B10C833C8C933C9335007C39AE0
:10169300C3DBF280069A50012ADBEAC833F4C8C9D7
:1016A30033F4C9FA2275F008E4C833C8C933C9331F
:1016B300C99AC99B5004C92AC93BD5F0ECFBC8336E
:1016C300F4C8E4C9FA22600D08C6A2E713C618C617
:1016D30013C6D5E0F322600C08C6C313C618C6139D
:1016E300C6D5E0F422700422600D18C6C333C608C1
:1016F300C633C6D5E0F41822251810AF08F51840F4
:101703000C15198008F51840021519D2AF2200C034
:10171300D0251810AF08F518500C05198008F518D6
:1017230050020519D2AFD0D0222518F58210AF0888
:10173300F518400C15198008F51840021519D2AF99
:10174300851983222518F582E43519F58322251896
:10175300F8E43519F9222518FAE43519FB2225187E
:10176300FCE43519FD22E4732518C582C0E0E519B0
:1017730034FFC583C0E0E518C3958224F810AF0891
:101783008583198582188008858319858218D2AFCD
:10179300CEF0A3E520F0A37808E608F0A3DEFAEF85
:1017A300F0A3E58124FAF8E608F0A3E608F0A3E63F
:1017B30008F0A30808E608F0A3E608F0A3158115CE
:1017C30081D0E0FED0E0F8158115811581E8C0E0F5
:1017D300EEC0E0222518C582C0E0E51934FFC583B9
:1017E300C0E0E518C3958224F910AF0885831985F5
:1017F30082188008858319858218D2AFCEF0A3E5BD
:1018030020F0A37808E608F0A3DEFAEFF0A3E58161
:1018130024FBF8E608F0A3E608F0A30808E608F0BE
:10182300A3E608F0A315811581D0E0FED0E0F815FA
:10183300811581E8C0E0EEC0E02285198385188216
:10184300E0A3FEE0A3F5207808E0A3F608DFFAE0C2
:10185300A3FFE0A3C0E0E0A3C0E0E0A3C0E0E0A3F7
:10186300C0E0E0A3C0E010AF08858218858319802B
:1018730008858218858319D2AFD083D08202011FD5
:10188300851983851882E0A3FEE0A3F5207808E09C
:10189300A3F608DFFAE0A3FFE0A3C0E0E0A3C0E003
:1018A300E0A3C0E0E0A3C0E010AF08858218858301
:1018B300198008858218858319D2AFD083D08222FC
:1018C300C0D02518C582C0E0E51934FFC583C0E048
:1018D300E518C3958224F310AF0885831985821810
:1018E3008008858319858218D2AFC8F0A3E9F0A3D5
:1018F300EAF0A3EBF0A37908E709F0A3D8FAECF038
:10190300A3EDF0A3EEF0A3EFF0A3D0E0F0A3D0E0BB
:10191300F0A3D0E0F0A3E520F0A3E5F0F0A3228547
:101923001983851882E0C0E0A3E0F9A3E0FAA3E0FD
:10193300FBA37808E0F608A3DFFAE0FCA3E0FDA32D
:10194300E0FEA3E0FFA3E0C0E0A3E0C0E0A3E0F576
:10195300D0A3E0F520A3E0A3F5F010AF0885831929
:101963008582188008858319858218D2AFD082D0EA
:1019730083D0E0F8D0E032740480067402800274ED
:1019830001C0E0F40412172CD0E0121601227404F3
:10199300800474028000CCC0E0EDC0E0E518C39C75
:1019A300CCAD1950011D10AF068C188D1980068C13
:1019B300188D19D2AF12160ED0E0FDD0E0FC22D064
:1019C30083D082E9C0E0E493A3C386F0C5F095F029
:1019D300F908E493A386F0C5F095F0700BE493A3A4
:1019E300C3994005E9048002A3E475F002A42582AB
:1019F300F582E5F03583F583D0E0F9E493A3C0E005
:101A0300E493C0E022D083D082ECC0E0EDC0E0E4F8
:101A130093A3FCE493A3FDED4C600D121A54EC2444
:101A2300FFFCED34FFFD80EFE493A3FCE493A3FDFF
:101A3300ED4C600D121A93EC24FFFCED34FFFD8096
:101A4300EFD0E0FDD0E0FCE493A3C0E0E493C0E07A
:101A530022C0E0C3E49396087401939618400FE400
:101A63009366700808740193661870007019A3A335
:101A7300C3E49396087401939618A3A3400DD0E092
:101A8300D0E0D0E0021A44A3A3A3A3A3A3D0E022EF
:101A9300C0E0C0F088F0E4936670080874019366B0
:101AA300187000A8F0A3A3700BD0F0D0E0D0E0D062
:0B1AB300E0021A44A3A3D0F0D0E02210
:101AC00074F51217D7EAFEEBFFEE2434F8EF34007A
:101AD000F988088909EE2435121BECF8EE24371238
:101AE0001BECF50AEC850AF0A4FCAAF0850AF0EDDF
:101AF000A42AFDE82CF8E43DF97A257B0012167043
:101B0000EA850882850983F074075AF87401B800E1
:101B1000028004C333D8FCFBEA131313541FF8EEFE
:101B200028F8EF3400F9E8245DF582E9121BEF5B39
:101B30006003EA801CEE2436121BECF5F0EA84A860
:101B4000F0EE28F8EF3400F9E82438F582E9121BAA
:101B5000EFF97F0402188374F51217D7EAFEEBFF42
:101B6000EE2434121BECC0E0EE2435F582EF340095
:101B7000F583D0E0F08E828F83A3A3A3A3A3E0FA22
:101B8000A3E0FB8E828F83A3A3A3A3A3A3A3E0FC64
:101B9000A3E0FDECC39AF50AED9BF50BEE247FF56F
:101BA00008EF3400F509850882F583E06401702BA5
:101BB000EE2480F582EF3400F583121995121BF59F
:101BC0007402121711E960137CDC7D04EEFAEFFB5E
:101BD000120B86850882850983E4F0AC0AAD0BEE12
:101BE000FAEFFB121AC012241B021B52F582EF34CB
:101BF00000F583E022C082C083851882851983E0C6
:101C0000F8A3E0F9C3EA9CEB9D5010C3EC98ED9962
:101C1000401BC3EA98EB995014800EC3EA98EB99E5
:101C20004007C3EC98ED994004790180027900D017
:101C300083D08222EAC39CFAEB9DFB2274ED12173B
:101C4000D79003A2E064086005E06407702C9061FF
:101C5000C8E060269003D0E0F874FF68601CE87567
:101C6000F003A4C8AAF02AF974D228FE740339FF3D
:101C70008E828F83A3A3A3E070057900021DDCEEA2
:101C80002468F510EF3400F511906060E085108253
:101C9000851183F0750A45750B05750800750900F7
:101CA000E5D914F50EE5D95403F50F601CEE248236
:101CB000F50CEF3400F50D7403650F6058E50E6008
:101CC00013EE2467121BEC700B793DEEFAEFFB125A
:101CD0000BAA80A6900540E064016026850C8285F1
:101CE0000D83E06004780480027800850E08E50822
:101CF000C398FA95E0FB120A248A088B09EA450981
:101D00007006120E02021C7A850C82850D83E0702B
:101D1000048A0A8B0B78008016E5D9C0E08812E5AA
:101D20000A2512F582E50B3400F583D0E0F008E8CF
:101D3000C3950E40E4850C82850D83E0602874FC19
:101D4000250EF50E780A12197EAC0EA90FEEFAEFE9
:101D5000FB120C587402121711E9700AAA08AB0999
:101D60001212D6021CC97403650F6058850E0C75DB
:101D70000D00780C12197EAC0AAD0BAA08AB091243
:101D80000C1C7402121711851082851183E0F874FF
:101D900080687005750C7F8002880CE50CF50A7868
:101DA0000A121982E50FF50A780A121982A90EACF7
:101DB00008AD099003D0E0FA7B001208BC7402124F
:101DC000171180139003A2E06408600BAC0AAD0BFE
:101DD000EEFAEFFB120CEE120E0E79017F0C0218D8
:101DE0008374F31217D774FC1216FBEAFEEBFF891B
:101DF00008A2AFE433F509C2AFEE2463F50AEF346D
:101E000000F50B8010AA0AAB0B120BD41212D6905D
:101E100004E3E004F0850A82850B83E0F8A3E0F98F
:101E2000E849602FE82402FAE93400FBEA2402F5CD
:101E30000CEB3400F50D780C12197E8A828B83E04E
:101E4000FCA3E0F9EEFAEFFB120BC87402121711B3
:101E5000E960B29004E3E060579004E4E0F8900495
:101E6000E3E0C398500C7402650870449004E5E008
:101E7000603E8E828F83A3A3A3A3E0851882851979
:101E800083121EC07402121747E8121EC09004E2AB
:101E9000E028F07402121747AC82AD838518828562
:101EA0001983AA82AB8379011208C89004E3E4F095
:101EB000E509A2E092AF74041217117F060218839D
:101EC000F0A3E4F09004E3E0F82200008521878588
:101ED00022C622C0E074EF1218C3A2AFE433FEC2E0
:101EE000AF759B00906182E0A2E05012E591A2E004
:101EF000500C7591FE740165217003121C3CE0A228
:101F0000E55051E591A2E5504B7591DF9003A2E0B9
:101F100064076005E06408702374016521703579F9
:101F2000019003D0E0FA75F003A4CAA8F028FB746E
:101F3000D22AFA74033BFB121DE18018E0640D7095
:101F4000139003C4E004F064287002E4F07A00E027
:101F5000F9120E14906182E0A2E64003021FFAE536
:101F600091A2E64003021FFA7591BF9003A2E064BC
:101F7000057008120D30120D3C8003120D367521CC
:101F800000120DA2E99003A3F07900120D96120A37
:101F9000F07A017B009003A1E0F9121066907803BB
:101FA000E064427055900544E014F0704DC2AF12E9
:101FB0001FB200782AD0E0F618D0E0F6E59F54076B
:101FC00070057509FF800375097FC4C0E07829E6B4
:101FD000F50808E65509F509740B78081216D9D0EA
:101FE000E02508F8906270E0A2E740F8E8C333907B
:101FF0006272F0906270E0D2E0F0906181E0A2E362
:102000005009E5E9A2E3500375E9F7A3E0A2E75020
:1020100009E591A2E7500375917FEEA2E092AF7FB0
:1020200004021922C0E0C0D0C082C083906183E066
:10203000A2E05009E5BFA2E0500375BFFEE0A2E1B7
:102040005009E5BFA2E1500375BFFDE0A2E25009CF
:10205000E5BFA2E2500375BFFBE0A2E35009E5BF74
:10206000A2E3500375BFF7E0A2E45009E5BFA2E484
:10207000500375BFEFE0A2E55009E5BFA2E55003AC
:1020800075BFDFE0A2E65009E5BFA2E6500375BFC9
:10209000BFD083D082D0D0D0E032C0E074F212182A
:1020A000C3E5A7A2E4500FE5A1A2E4500953A7EFAE
:1020B00075A1EF1220EEE5A7A2E5500CE5A1A2E57F
:1020C000500653A7DF75A1DFE5A7A2E15009E5A1FE
:1020D000A2E1500375A1FDE5A7A2E2500CE5A1A283
:1020E000E2500653A7FB75A1FB7F0102192274F889
:1020F0001217D77521019003A2E0640670077A00D9
:102100007B00120D18A2AFE433FED2AF9003A8E01B
:10211000640170187A207B009003A1E0F91210EAA4
:102120007A207B009003A1E0F912106C906182E0AC
:10213000D2E6F0900541E0602185C622801690032A
:10214000A7E064017008E5C654F84405F5C653BE1F
:10215000FC121ECC7401652160E4EEA2E092AF7F18
:10216000010218838E238F24858228858327851872
:1021700082851983E0CEA3E0CF852882852783EB73
:10218000C9EAC8EDCBECCA75F010C3E833C8E9332F
:10219000C9EA33CAEB33CBC3EA9EF526EB9FF5259C
:1021A000B35004AB25AA26EC33CCED33CDD5F0DA11
:1021B000AE23AF242274F11217D78A088B098C0A38
:1021C0008D0B9092C7780812158D740F12174778EF
:1021D0000C1215B39092C7780C12158D7808790CF3
:1021E0001214359092C350107808790C1215657846
:1021F000081214554014800E780C79081215657871
:102200000C12145550047901800279007F080218DD
:102210008374ED1217D78A088B098C0A8D0B909264
:10222000C7780812158D7413121747780C1215B35E
:102230009092C7780C12158D780C790812143540DD
:10224000117808790C121565AA08AB09AC0AAD0B18
:102250008022751000751100751200751301781039
:10226000790C1215657810790812152CAA10AB118B
:10227000AC12AD137F0C0218839092C77808121528
:10228000B38A828B8378081215A07F0402188374A6
:10229000F51217D78C828D8378081215B38A828B3A
:1022A0008378081215791222E3C3E098F0A3E0992D
:1022B0001222D5401E9092DF78081215B38A828BC5
:1022C0008378081215528E828F83E02420F0A3E0D9
:1022D000344EF080A4F08E828F83C3E09420A3E07C
:1022E000944E22EA2404F8EB3400F9E8FEE9FF8C6E
:1022F000828D83A3A3A3A3E0F8A3E0F98E828F834A
:102300002274F51217D7E9FE9004F7E0FAA3E0FB78
:10231000EEC333F8E433F9749628F582749139F5F5
:1023200083E02AF508A3E03BF509780812197E90AE
:1023300092BB1215D112216474021217118A088BF4
:10234000098C0A8D0B741078081214F4AA08AB09D2
:102350007F0402188374F11217D78A0C8B0D8C0E30
:102360008D0F740F121747E0FAA3E0FB74111217D8
:1023700047E0F508A3E0F509780812197EEA240180
:10238000F508EB3400F509E4F50AF50B780C79084B
:102390001214749092EB78081215B3780C79081225
:1023A0001474AA0CAB0DAC0EAD0F122164740212A2
:1023B00017118B09EA450960047A0180027A00EC62
:1023C0002AFCED3400FD7413121747E0F8A3E0F97E
:1023D000E8FEE9FFECF8EDF97A717B0212167088DD
:1023E000088909E4F50AF50B8E828F8378081215A7
:1023F000C2ECF8EDF97A717B021216708A088B092B
:10240000740578081216E88E828F83A3A3A3A3E530
:1024100008F0A3E509F07F08021883C082C083E9B1
:10242000906000F0D083D08222C2AF02000022C0B0
:10243000E074F21218C3A2AFE433FED2AFC2C0E51B
:10244000D1A2E4500653D1EF1212B8EEA2E092AF3F
:102450007F01021922C0E074F21218C3A2AFE43364
:10246000FED2AFE589A2E15003121228758900C29D
:10247000C5EEA2E092AF7F01021922C0E074F21211
:1024800018C3A2AFE433FED2AFE58BA2E050031233
:102490001228758B00C2E880D8C0E0C0D0E8C0E048
:1024A000E9C0E0E5A8D2AFC2C7A2E7A2E792AFD0E9
:1024B000E0F9D0E0F8D0D0D0E032C0E0C0D0E8C041
:1024C000E0E9C0E0C008C009C082C083A2AFE43325
:1024D000F9D2AF9009D3E0F8A3E0687008539AFBF3
:1024E000A374018025C2E99009D3E0F508740125A1
:1024F00008F074532508F582E43409F583E0F5C14A
:102500009009D3E0C394804002E4F0E9A2E092AFE6
:10251000D083D082D009D008D0E0F9D0E0F8D0D074
:03252000D0E032D6
:10252400FFFFFFFFFFFFFFFFC082C083E9900D00A4
:10253400F00227BB74F712176BE99002E1F07C19E3
:102544007D037AFF7BFF1208089002E274FFF0A378
:10255400F0A3E4F0A3F079051207909002E1E0F90A
:102564001206B27A267B081209D67F0102183D743E
:10257400F412176B8A088B09EB548060309002E1E7
:10258400E0F912104E8A0A8B0BAE0AAF0BEE4F60C5
:10259400138E828F83E064B070031207A8EEFAEF03
:1025A400FB12103CAA08E5096480FB80047A007BD6
:1025B4000002278A74F212176B74FC1216FBEAFEEF
:1025C400EBFFEE4F60387402121747EEF0A3EF12E0
:1025D40029EFECF0A3ED1229EFAA82AB831206AC2B
:1025E400E9F508707374121217471235A3E50A450A
:1025F4000B60658E828F83122666EE4F7005750818
:102604000280557A067B001210A28A0C8B0DA80C4E
:10261400A90DE8497005750813803D88828983E413
:10262400122670A3A3EEF0A3EF123A3CE50AF0A33E
:10263400E50BF09002E71226F89002E76017E0FC41
:10264400A3E08003EAFCEBFD8C828D831226F870F4
:10265400F38C828D831234C8A908740412171102F2
:102664003C3EA3A3A3A3E0FEA3E0FF22F0A3F088D3
:102674008289832274F212176B890AE975F017A410
:10268400FEAFF09002E6E4F09002E41226F8600A4D
:102694001210A89002E4E4F0A3F0EEFAEFFB12109B
:1026A400A28A088B09EA4509602FEEFCEFFD790048
:1026B40012102A9002E4E508F0A3E509F07B0080FB
:1026C400081226E2E4F0A3F00BEBC3950A40F2E50E
:1026D4000A9002E6F0790080027913023C3EEB7521
:1026E400F017A4F8A9F09002E4E028FAA3E0398AEC
:1026F40082F5832212325EEA4B2274F412176B7550
:102704000800750900740C121747123A10FEE9FF0D
:10271400800CE5082401F508E5093400F509C3E552
:10272400089CE5099D503285080A85090B740378D5
:102734000A1216E8EA250AF8EB350BF98882898330
:10274400A3A3A3A3A3A31235A3EE650A7003EF65A5
:102754000B70BFE8FAE9FB80047A007B00802774E1
:10276400F412176B7900EAA2E0501B75087E750914
:1027740092780812197E7C047D007A027B0D120780
:102784008A74021217117F0402183DC082C083901C
:1027940002E71227C2601C88828983A3A3E06A70BF
:1027A40003A3E06B8882898370E8A3A3A3A31232F6
:1027B4005A80047A007B00D083D08202011F123D2C
:1027C40011E8492274EE12176B74FC1216FBEAFE30
:1027D400EBFF851882851983E4F0A3F0EE2402123E
:1027E40034ACEE24051229DDEE2404F50EEF122D8F
:1027F400C2E024FE603924FC604624FE605224FEBC
:10280400605E24FE70030228E224FE700302295A4B
:1028140024FE700302296924FE700302297824FC33
:10282400700302298724FE70030229960229D3909B
:1028340003007417F0A3E41229F712042A0229D31F
:10284400851882851983AC82AD831207AE0229A351
:10285400851882851983AC82AD831207B40229A33B
:10286400850C08850D097402121747AC82AD838567
:10287400088285098312325A1206D08A0C8B0DAC59
:102884000CAD0DEC4D6042E4F50CF50D780C12190D
:102894007E750C00750D03780C12197E750C01758C
:1028A4000D03780C12197E740812174712199579C2
:1028B400161232541207F07408121711E9F50C704D
:1028C4000B123250120442800F750C018508828568
:1028D40009831229E51234C8850C080229A674025A
:1028E400121747AC82AD83850C82850D8312325A50
:1028F4001206D08A108B11AC10AD11EC4D604385DB
:102904000C82850D83A3A31219957510007511030C
:10291400781012197E751001751103781012197E42
:10292400740812174712199579161232541207F0C7
:102934007408121711E9F509700B12325012044889
:10294400800F750901850C82850D831229E51234E7
:10295400C8850908804C851882851983AC82AD83AB
:102964001207BA803A851882851983AC82AD831226
:1029740007C0802B851882851983AC82AD8312072A
:10298400C6801C851882851983AC82AD831207CC5E
:10299400800D851882851983AC82AD831207D2E934
:1029A400F508E50860298E828F83A3E06414601F14
:1029B400850E82850F83E09003001229EF123D0DEE
:1029C4009003011234C8E508A31229F7120424EE77
:1029D400FAEFFB12074E0233B4F50CEF3400F50D99
:1029E40022123D1185188285198322F0851882856B
:1029F400198322F07C007D03850A82850B831232C1
:102A04005E2274EE12176B74FC1216FB8A0A8B0B8F
:102A14008C0E8D0FEA2405F508EB3400F5097C15BE
:102A24007D0079007A007B0312102AE5082402F560
:102A34000CE5091229E085188285198385821085A1
:102A44008311781012197E850882850983A3A3A3B4
:102A5400A3122F0A12197EE5082405F510E509349E
:102A640000F511781012197E850C82850D831232BF
:102A7400641206CA74061217118A108B11AE10AFB5
:102A840011E50A2402F50AE50B1234AFEE4F700388
:102A9400022BCC8017740212174712325A8882898B
:102AA40083EAF0A3EBF0900300E004F0900300E06D
:102AB400C394054003022BCCE4F510F511781012F1
:102AC400197E7510E9751102781012197E7510EAD5
:102AD400751102781012197E74061217471219958F
:102AE4007910EEFCEFFD1232541207F0740812173D
:102AF40011E9705E850882850983A3A3A3A3A3A318
:102B0400A3E0F89002E9E0687048122F0A12197ED7
:102B14007CEA7D02E5082408FAE5093400FB12107A
:102B2400247402121711E960298E828F83A3A3A350
:102B3400A312325A900300E0F510740278101216B2
:102B4400E874012510F58274033511F583EAF0A3C6
:102B5400EBF07402121747858210858311781012E6
:102B6400197E7402121747121995850C82850D83FC
:102B7400123D221206D674041217118A108B11AE5C
:102B840010AF11900300E0F5107511007402781075
:102B94001216E874002510F874033511F988828937
:102BA40083A31226F87003022A90E82403F8E93478
:102BB40000F9EE4F6003022A998882898374FFF03A
:102BC400A3F0900300E004F0900300E0600A1232E6
:102BD400501204367900800B8508828509831234EB
:102BE400BF790A0233B474EA12176B74FE1216FB2F
:102BF4008C128D13EA2405F50CEB123E8C12266A16
:102C0400750800750900EA2402F510EB3400F5118B
:102C140085188285198385820A85830B780A12199F
:102C24007E850C82850D83A3A3A3A3122DCC121938
:102C34007EE50C2405F50AE50D1234AF780A121965
:102C44007E850C82850D83123D201206CA740612FD
:102C540017118A0A8B0BEA450B7003022D7DEA24B7
:102C640004F50EEB122DC212266A8A828B83A3A36B
:102C7400A3E0F985108285118312325A1206B8E94D
:102C8400F5096003022D7DE4F514F5157814121985
:102C94007E7514E9751502781412197E7514EA7597
:102CA4001502781412197E740612174712199579B1
:102CB40013AC0AAD0B85108285118312325A1207A8
:102CC400F07408121711E9F5096003022D7D9002D2
:102CD400E9E0F8E5087009E02402900301F08017A8
:102CE400900301E0FCE82402FAE43400FBEA6C708F
:102CF40001EB6003022D81850882AA82122F0194C0
:102D040014122EF95073850E82850F83E0C0E0748F
:102D1400022A122DB9D0E0F00508850E82850F83B2
:102D2400A3E0C0E085080A7402250A122DB9D0E098
:102D3400F005089002E9122DCC12197E7CEA7D027E
:102D440085080A7402250AFA74033400FB1210126F
:102D540074021217119002E9E02508F50874FF6E59
:102D6400700374FF6F6012EE24010EEF3400FFE570
:102D740008C394145003022C14E50860131231455F
:102D840085108285118312325A12043C7900801412
:102D9400E509700375090A851282851383EEF0A391
:102DA400EFF0A90974021217117F0E02183D85086D
:102DB4000C7402250CF58274033400F5832234006C
:102DC400F50F850E82F58322123A4F2274EE121704
:102DD4006B74FE1216FB8C0E8D0FEA2405F50CEBBA
:102DE4001229E0750B00900300E4F0F50AEA2402CE
:102DF400F508EB3400F5098049900300E0FA9002ED
:102E0400E9E0F8122F019417122EF9400D900300F7
:102E1400E0F87416C3989002E9F0122F0A12197E92
:102E24007CEA7D0274012AFA74033400FB12101246
:102E340074021217119002E9E0F8900300E028F000
:102E4400050AE50C2416F582E50D122DBDE0F8E522
:102E54000AC3984003022EE2900300E0C394165084
:102E64007DE50AC333F8E433F9E50C28FEE50D39B2
:102E7400FF851882851983AC82AD838E828F83127D
:102E8400325A1206D08A108B11AC10AD11EC4D7071
:102E940005750B018043E4F510F511781012197EC5
:102EA4007510E9751102781012197E7510EA751102
:102EB40002781012197E74061217471219957916A2
:102EC40085088285098312325A1207F07408121792
:102ED40011E9F50B7003022DFD1234BB80107C0048
:102EE4007D0385088285098312325A12044EA90B88
:102EF40074020233B6E99400C365D03322EA28F899
:102F0400E43400F9E822E0F5107511007810227419
:102F1400EA12176B74FC1216FB8A0C8B0D8C128D43
:102F240013EA2405F50AEB1234AF7508007509009D
:102F3400E50A2402F510E50B3400F51174021217AA
:102F44004785820E85830F780E12197E850A828545
:102F54000B83A3A3A3A31239FB12197EE50A24054C
:102F6400F50EE50B3400F50F780E12197E851082EC
:102F74008511831234B51232541206CA740612171C
:102F8400118A0E8B0FAE0EAF0FE50C2402F50EE581
:102F94000D3400F50F80408882898374FFF00508A2
:102FA400122DB274FFF005089002E9E0F50C750DDE
:102FB40000780C12197E7CEA7D0285080C740225C7
:102FC4000CFA74033400FB121012740212171190DD
:102FD40002E9E02508F508EE4F60718E828F83A325
:102FE400A3A3E0F9850E82850F8312325A1206B824
:102FF400E9F509EE24041229DDE97044E4F514F539
:1030040015781412197E7514E975150278141219BD
:103014007E7514EA751502781412197E7408121755
:10302400471219957911EEFCEFFD850E82850F8309
:1030340012325A1207F07408121711E9F5096027C1
:10304400850C82850D8312313B1234C8E508700368
:10305400023121123145850E82850F8312325A12B4
:1030640004547900023136850882AA82EA9002E982
:103074007009E02404900301F08022E0F890030139
:10308400E0F514E82404FCE43400FDEC651470015C
:10309400ED70C0122F019412122EF950B6850C82D5
:1030A400850D83E0C0E074022A122DB9D0E0F0054A
:1030B40008850C82850D83A3E0C0E0122DB2D0E018
:1030C40012315785820C85830D780C12197E740495
:1030D400121747121995851082851183123D221209
:1030E40006D674041217118A0C8B0DAE0CAF0D8525
:1030F400080C7402250CF874033400F9EE4F7003C5
:10310400022F9B851882851983E088828983123176
:1031140057A3E0C0E0122DB2D0E0022FA9E5097058
:103124000375090A850A82850B8312313B1234C860
:10313400A9097404022DAA123D11851282851383F4
:1031440022900301E0F5F0E50884900300F07C0090
:103154007D0322F005088518828519832274EC12F8
:10316400176B74FE1216FB8A088B098C0E8D0FEAFE
:103174002405FEEB3400FF851882851983AC82ADEB
:10318400838E828F8312325A1206D08A0A8B0BEEF8
:1031940024181229DDEA450B700302322B12339DE9
:1031A400503285188285198312325A1207E48A1024
:1031B4008B11EA4511606B7912AC0AAD0B8508825C
:1031C40085098312325A851082851183121769E9A1
:1031D400F50A7058E4F50AF50B780A12197E8E8206
:1031E4008F83A3A3E0F50A780A12197EEE24031252
:1031F40034AC780A12197E8E828F831232641207DD
:10320400F67406121711E9F50A7021850C82850DF2
:1032140083E0701F85088285098312325A12045A8A
:103224008011750A0E8009750A018004E50A60039D
:103234001234BB850C82850D83E060047900800222
:10324400A90A74021217117F0C02183D7C007D0339
:10325400850A82850B8312325E22E0FAA3E0FB2208
:10326400E0FCA3E0FD85088285098312325E2274A6
:10327400EE12176B74FE1216FB8A088B098C0C8DE8
:103284000DEA2405FEEB3400FF750E0085188285D7
:103294001983AC82AD838E828F8312325A1206D088
:1032A4008A0A8B0BEA450B700302338912339D5053
:1032B4003585188285198312325A1207E48A0E8BD7
:1032C4000FEA450F605E7912AC0AAD0B8508828562
:1032D400098312325A850E82850F83121769E9F524
:1032E4000E600302338C8508828509831235A3AAF4
:1032F4000AFB1207D88A108B11A810A911E849708B
:103304001E7AFF7BFF1207D88A108B11A810A9110F
:10331400E849606C88828983E50AF0A3E50BF075BF
:103324000A008007750E0E805F050A9002E6E0FA37
:10333400E50AC39A504AE50A75F017A4FAABF08877
:10334400828983A3A3E02AFAA3E03BFB8A828B83CE
:103354001234B5EC4D70D2750A17750B00780A1249
:10336400197EEEFCEFFD1210127402121711EEFC1E
:10337400EFFD85088285098312325A120460801495
:10338400750E098003750E01123D09850C82850DA9
:10339400831234C8A90E022EF4E5082402F508E5C8
:1033A400093400F5098A828B83A3A3A3E0A2E52252
:1033B40074041217117F0A02183D74EC12176B8CF7
:1033C400108D11EA2405F50CEB1229E0750F00EAC3
:1033D4002402F50AEB1234AF850A82F58312325ABD
:1033E4001207D88A088B09EA450970030234A175CB
:1033F4000E008071850C82850D83E06401704F8E10
:10340400828F83A3A31219958E828F83A3A3A3A370
:10341400E0F512751300781212197EEE2405F512E8
:10342400EF3400F513781212197E1232541207F693
:103434007406121711E9F50F6014850C82850D834B
:10344400E4F0123D098510828511831234C87C177B
:103454007D007900EEFAEFFB12102A8E828F83E44E
:10346400F0A3F0050E9002E6E0F8E50EC398501EB6
:10347400E50E75F017A4F8A9F0850882850983A3E1
:10348400A3123E961234B5EC4D60030233F885085E
:103494008285098374FFF0A3F0E50F70061232549D
:1034A400120466A90F02324BF50AEF3400F50B2221
:1034B400A3E0FCA3E0FD228E828F83123D11850ED2
:1034C40082850F83E8F0A3E9F022C082C0839002D2
:1034D400E2E06A7003A3E06B70067AE27B02800488
:1034E4007A007B000227BBC082C08378008C828D67
:1034F40083E06A7003A3E06B7010E875F003A4F82E
:10350400A9F0EC28FAED39FB8015088C828D83A391
:10351400A3A3E06A7003A3E06B60DF7A007B000280
:1035240027BB74F612176B1207A28A828B83E5827B
:10353400458370067A007B008007A3A3A3A31232FD
:103544005A023BBA74F212176BE9FE740E12174753
:103554001235A37410121747123A1B8C828D83E024
:1035640064027036A3123D17F50CA3E0F9A80C749D
:10357400026870037429697021750C02750D007856
:103584000C12197E780812197E780A12197EEEF947
:1035940012081A740612171180027901023C3EE0E7
:1035A400F50AA3E0F50B2274E812176B74FB1216EC
:1035B400FBE9851882851983F08A168B17ECFEEDDA
:1035C400FF751000741D121747123D0D741D12175C
:1035D400471234C88E828F83A3A3A3E0A2E4502DA4
:1035E400741D12174712325A1207E48A828B83E53C
:1035F40082458370030239EC790AEEFCEFFDAA16CA
:10360400AB17121769E9F51060030239EF741F1242
:103614001747123A1B74211217471235A374231249
:103624001747E0F50EA3E0F50F8E828F83E0640266
:10363400600302399AA3123D0D850882850983A38C
:10364400858212858313EE24061229DD88828983FC
:10365400E0FAA3E0F9EA2400F514E439F515781446
:10366400121A080100002801288F36070002285486
:10367400370328C13600298B380129B63802295767
:103684003803298B38042935399A39E50E450F60FA
:1036940003023995850C82850D83123A10FAE9FBF1
:1036A4008A828B83E0850A82850B83123A4612193B
:1036B4007E8A828B83A3E0FCA3E002391FE50E45DA
:1036C4000F6003023995850A82850B837401F01219
:1036D4003A23850882850983F07C007D008E828FE1
:1036E40083A3A3A3A3E02401FAA3E03400FB1206FE
:1036F400D0EA4B60418A828B83E02402F8850A82F7
:10370400850B83E028F0EA2404F8EB3400F988827E
:103714008983E0851282851383123A58123A46123D
:10372400197E8A828B831234B4E5082403FAE509EE
:103734003400FB023924850A82850B83E02404F0DB
:103744007C047D007900AA12AB1312102A0239EF0F
:10375400E50E450F6003023995123A23FEA3E0FFFC
:10376400850A82850B837404F0EE850882850983BB
:10377400F0EF851282851383F07403121747AC822D
:10378400AD83EEFAEFFB1206D08A0C8B0DEA450DE1
:1037940070030238388A828B83A3A31226667401CD
:1037A40012174785820E85830F780E12197E7405D1
:1037B4001217471219957CFF7DFF1206D674041266
:1037C40017118B0FEA450F7033850C82850D831218
:1037D40039FB12197E850C82850D83A31219957C01
:1037E400027D007A0C7B931205027404121711E90E
:1037F400700A740112174774FFF0A3F08E828F834E
:10380400E064027039750C02750D00780C12197E93
:103814008E828F831234B4E5082404FAE509340057
:10382400FB1210127402121711850A82850B83E0B1
:10383400240280097401121747EEF0A3EFF074011B
:10384400121747123A0CF07401121747A3123A04E4
:1038540002398FE50E450F6003023995850C828588
:103864000D831234B5AA16AB1712080E850A828589
:103874000B837402F0EA850882850983F08512823D
:10388400851383EB023992E50E450F6003023995E7
:10389400123A23F8A3E0F9850A82850B837402F0B7
:1038A400E8850882850983F0E985128285138302FD
:1038B4003992850C82850D8312325A12100CEAFC5F
:1038C4008C82A882C3950EE4950F405FE8650E7064
:1038D40002E50F70047C008022851882851983E03C
:1038E400FAE50E2AFAE50F3400FBC3EA98EB9400DC
:1038F4005003E08005E50ECCC39CFCEC850A828570
:103904000B83F08C0A750B00780A12197E850C82E1
:10391400850D83E0250EFCA3E0350FFDAA08AB0955
:1039240012101274021217110239EF7510070239BE
:10393400EFE50E450F705A850C82850D83123D0DFF
:10394400850A82850B837407122672123A041226A2
:1039540072A3E0851282851383F0E82402FAE93425
:1039640000FB8A828B83123A04123A33123A0CA374
:10397400123A3C123A15F0E82405F8E93400F988C3
:10398400828983123A15A3123A58A3A3A3A3F08001
:103994005A75100B8055741D12174712325A1207AC
:1039A400A28A828B83E5824583603D123D0D880C9B
:1039B400890DE8450D6031780E12197E780A1219C6
:1039C4007E780812197E7406121747E0F9EEFCEFB0
:1039D400FDAA16AB17850C82850D83121769740630
:1039E400121711E9F510800375100EA91074051251
:1039F40017117F1002183DE0F50E750F00780E22A6
:103A0400E085088285098322123A6222123D11E878
:103A140022123A62A3A322E0F508A3E0F509228565
:103A24000C82850D83E0F8A3E0F5838882E022A36D
:103A3400A3F08A828B83A322F088828983A3A3A321
:103A4400A322F08A828B83123A4F22E0F50A750B87
:103A540000780A22F088828983A3123A6222E085E0
:103A64000882850983A3A32274EE12176B74FE12D5
:103A740016FB8A0A8B0BECFAEDFB7414121747E061
:103A8400F510A3E0F5117416121747E0FE7418122E
:103A94001747E0F50EA3E0F50F851882851983AC6E
:103AA40082AD831206D08A0C8B0DEA450D604985E0
:103AB400188285198312325A1207A28A828B83E5EF
:103AC400824583602FA3A3123A1BE50845096024AD
:103AD400780E12197E781012197EEEF9AC0CAD0D29
:103AE400AA0AAB0B8508828509831217697404122C
:103AF40017118006790E80027901022EF474F612F1
:103B0400176B74FE1216FB740C121747123A1085C9
:103B14001882851983F07401121747E9F0E4F50857
:103B2400F509780812197E750802780812197E744E
:103B340004121747858208858309780812197E12B2
:103B440007F674061217117402121711806874F7BD
:103B540012176BEAFEEBFF89087C197D0312080E2D
:103B6400EA5402600BA908EEFAEFFB1206C48002C5
:103B7400790102256E74F612176B74FF6A70037470
:103B8400FF6B70168C828D83123BBFE4F08C828DA8
:103B940083A3A3A3123BBFA380181207DE8A088B5A
:103BA40009A808A909E849600D8882898374FF126D
:103BB4002670A3A3E4F07F0202183D74FFF0A3F083
:103BC4008C828D83A3A32274F612176B1207DE8AEC
:103BD400828B83E58245836006A3A3E0FA80027AA0
:103BE400007B0080D174F212176B8A088B09ECFEFB
:103BF400EDFF740E121747E0F50A1207DE8A0C8BEC
:103C04000DA80CA90DE8497026EEFCEFFD7AFF7BA8
:103C1400FF1207DE8A0C8B0DA80CA90DE84970046D
:103C24007911801688828983E508F0A3E509F08874
:103C3400828983A3A3E50AF079007F0602183D7404
:103C4400EE12176BEAFEEBFF8C088D09890C7414D5
:103C5400121747123D0D741612174712325A750D7A
:103C640000E8496003023D017402650C6003023CF4
:103C7400FC7412121747123D17FCA3E0F9EC240060
:103C8400F50EE439F50FEAF4F8EBF4F9EC58F8E53D
:103C94000F59F9E849705CE5082406F8ED3400F999
:103CA400880A890B8882F583123D2212080E8A1035
:103CB4008B11E50E65107004E50F65116042780EF6
:103CC40012197E850A82850B83123D221208147410
:103CD40002121711E9F50D7027780E12197E850866
:103CE40082850983A3A3123D2012082C74021217A3
:103CF40011800D750D808008750D0D8003750D0BF9
:103D0400A90D0233B98E828F83123D1122E0F8A3EC
:103D1400E0F922123D1188828983E022A3A3E0FC0A
:103D2400A3E0FDEEFAEFFB2274E812176B74E712BE
:103D340016FB851882851983EAF0A3EBF08C168DA7
:103D440017890E7508007509007431121747E0F5DC
:103D540012A3E0F5137433121747E0F514A3E0F54A
:103D6400157435121747E0F50FE50975F003A4F84B
:103D7400A9F0851882851983123E96E0F47003A396
:103D8400E0F47003023E79EE2402F50CEF123E8C4F
:103D9400E07003023E7985160A85170B780A12191A
:103DA4007EAC14AD15AA12AB131207967402121747
:103DB400118A0A8B0BEA450B7003023E79E4F51075
:103DC400F511781012197E74061217478582108532
:103DD4008311781012197E74091217478582108591
:103DE4008311781012197E851282851383A3A3A3ED
:103DF400A31219957914AC0AAD0B8E828F831232FB
:103E04005A1207F07408121711E97069850A82853D
:103E14000B83A3A3A3A3123D0D74021217471234FC
:103E2400C8850C82850D83E0A2E05018A90E7402A7
:103E3400121747AC82AD838E828F8312325A1206D8
:103E4400E8E94208850C82850D83E0A2E15026E56D
:103E54000FF50A780A121982A90E7403121747ACD7
:103E640082AD838E828F8312325A1206E27401125B
:103E74001711E942080509E509C394025003023DFC
:103E84006DA90874190239F33400F50D850C82F517
:103E94008322E028FEA3E039FF8E828F832274F20E
:103EA40012176BEAFEEBFF890B7401650B600E744D
:103EB40002650B706A79011209F4E97062EEFAEF97
:103EC400FB1207D88A088B09EA45096047750A007E
:103ED400800B7C177D00790012102A050A9002E6F7
:103EE400E0F8E50AC3985021E50A75F017A4F8A98B
:103EF400F0850882850983A3A3E028FAA3E039FBAF
:103F04008A828B831227C270C985088285098374CB
:103F1400FFF0A3F07C197D03EEFAEFFB1208080210
:103F24003C3E74F212176B8A088B09ECFEEDFF74A9
:103F34000E1217471235A3900D00E0F4603D7A0984
:103F44007B00121036EA4B60328A828B8374B1F0A4
:103F5400A3E4123A35A3123A33A3E508F0A3E50922
:103F6400123F82EEF0A3EF123F82A3A3E50AF0A36F
:103F7400E50BF0900D00E0F9121042023C3EF08A8D
:103F8400828B83A3A3A3A3A32274F012176B74FAE6
:103F94001216FB8908ECFEEDFF7509008A0A8B0BEB
:103FA400780A1219C2000410B541D03FEE3F084010
:103FB40020403E40564079409140A540CF404C417E
:103FC4005D4174418F41B541B541E54074016508D7
:103FD40060030241B08E828F83E0F8C394034003F0
:103FE4000241B0E8900DEC02418C74026508600354
:103FF4000241B08E828F8312495D900DEDE8F0A3EB
:10400400E902418C7401650860030241B01241DD8C
:1040140040030241B0E890076602418C74016508D0
:1040240060030241B08E828F83E0F8C3940540039D
:104034000241B0E890076702418C7401650860038F
:104044000241B01241DD40030241B0E8900768022A
:10405400418C7410650860030241B0750A10750B39
:1040640000780A12197E7A697B0712101274021200
:1040740017110241D67401650860030241B0124170
:10408400DD40030241B0E890077902418C74016578
:104094000860030241B08E828F83E0900DF00241EC
:1040A4008C7404650860030241B08E828F83780C9F
:1040B4001215B39092BB780C12145550030241B000
:1040C40090077B780C1215C20241D6E960030241C5
:1040D400B0120670E9700512118C805690080E809B
:1040E400637407650860030241B0750A06750B0026
:1040F400780A12197E8E828F83A3AC82AD837402F8
:1041040012175912101874021217117C007D00AA9C
:1041140018AB198E828F83E0F9121138E9F50AC3BE
:10412400940A40030241D3120670E9700CA90A12E2
:1041340011927950121354806E740F250AF582E49B
:104144003408F5837401804074016508705E12417F
:10415400DD5059E890077A802F74016508704D8E00
:10416400828F83E0F8C3940A5042E8900DEF8018E0
:104174007401650870368E828F83E0F874F928C361
:10418400940A5028E8900DF1F08047740165087096
:104194001B90080DE0F88E828F83E090080DF0E804
:1041A4007030E06401702B1211808026750918802C
:1041B40021C3EA9427EB9400501574026508700F2C
:1041C4008E828F83124C8012050EE9F509800375E7
:1041D4000902A90974060245BD8E828F83E0F8C3E3
:1041E400940222740E1217117F0402183D74F01207
:1041F400176B74B11216FB8C0E8D0F90926C742099
:10420400121761740612160E7420121761121138F7
:10421400E9F50B745F121747E0F50CE9C3940A4003
:104224000302436F75F006E9A4F50974411217619E
:104234007A0E74202509F912134EE97009744D128F
:104244001747E0FE80027E00900DECE064027005EA
:1042540075080180037508007408650C70047422E5
:10426400800274212509FF7C1B7D007900742612CD
:10427400175912102AEEA2E0E433F50A7426121735
:10428400617A1BEFF912134EE97025744012174737
:10429400E024F9C3940A501878081219827427127A
:1042A4001761A90AAA0EAB0F1205B07401121711F7
:1042B4007C147D007900740C12175912102A740CA6
:1042C4001217617A1074242509F912134EE970301B
:1042D4007C1079FF740C12175912108AE97021743A
:1042E4001C121747AC82AD837A0474252509F91290
:1042F400134E740C121761A90AAA0EAB0F1205987B
:10430400AC18AD197A0C7470250BF912134EE970C0
:1043140049AA18AB191211687F00EF75F003A4F8CD
:10432400A9F0851882851983E58228F8E583124A65
:1043340085124C7A601D88828983A3A3E0F50875F1
:104344000900780812197EAA0EAB0F1207FC74023A
:104354001217110FEFC3940440C0EEA2E1500C9069
:104364000765E0F9AA0EAB0F1208027404650C701D
:1043740027900DECE06402701F7A00900779E060EA
:10438400010A900766E06004780480027800E84A35
:10439400F9AA0EAB0F1206587900744F0245BD748A
:1043A400F112176B74F01216FB8A0C8B0D8C088DAE
:1043B400097E0AE9600C14600914603A14607502FD
:1043C400448912117AE9FEC3940A4003024489E540
:1043D4000845097003024489750A06750B00780ABA
:1043E40012197EAC0CAD0DAA08AB0912101274029E
:1043F4001217110244897F00750A06750B00780AAA
:1044040012197EAC0CAD0DEF75F00EA4F8A9F07482
:104414008728FA740739FB1210247402121711E961
:1044240070090FEFC3940A505C80CDEFFEC3940A69
:10443400505380427F00AC18AD197A1075F006EF26
:10444400A42423F912134EE9701C7C1079FFAA18D6
:10445400AB1912108AE9700EAC0CAD0DAA18AB1989
:1044640012057AE960090FEFC3940A501880C7EF68
:10447400FEC3940A500FE50845096009AA08AB0970
:10448400EEF9121174EEF974101217117F07021865
:104494003D74F412176BE9FF7E1574FF6A700374A0
:1044A400FF6B7028750800EFFC7A027B00A90812E4
:1044B4001156E960027E000508E508C3940A40E746
:1044C400EF604E7AA47B11120A0680451209E88A2D
:1044D400088B09EA450960387C007D00EA2405FA66
:1044E400E43509FB850882850983A3A3A3A3E0F926
:1044F400121138E9C3940A500BEFFC7A027B0012C4
:1045040011567E00EF600AAA08AB091211A48001BB
:104514001EEEF90241EC74F212176B8C088D097EC1
:1045240015740E121747E0F50AA3E0F50B74FF6A41
:10453400700374FF6B701D7F00AC0AAD0BAA08AB4F
:1045440009EFF912115CE960027E000FEFC3940ACF
:10455400503B80E51209E88A828B83E582458360BB
:104564002B7C007D00E5822405FAE43583FBA3A3BC
:10457400A3A3E0F9121138E9C3940A5010AC0AADB0
:104584000BAA08AB0912115C7E0080011EEEF97FB4
:104594000602183DC082C08390077FEAF0A3EBF0C7
:1045A400900765E0FC7D007A267B0012050E9007DB
:1045B40065E0F91207780250801217117F0802187B
:1045C4003D74F012176B74EC1216FBEAFEEBFFEE6F
:1045D400240CF50CE43FF50DEE2405F50EE43FF54F
:1045E4000FEE2409F50AE43FF50BEE2403F508E485
:1045F4003FF5098E828F83A3A3E024FA7003024857
:104604008124FD700302479F14700302469C1460CA
:104614001024FD70030247761470030247D6024843
:10462400D8125382604AE0F5838882E0F50EA3E055
:10463400F50FE50E450F6038850C82850D83E0F596
:104644000C780C121982EE240BF582E43FF583E01A
:10465400F9850A82850B83124C800A0A0AAB098504
:104664000E82850F8312176974011217110248D83C
:10467400850A82850B8312199590077B1215D11236
:1046840005AA7402121711E970030248D87901854A
:104694000A82850B8302484C8E828F83A385820A0B
:1046A40085830BE06003024759850E82850F83E002
:1046B400A2E040030247599008191253856003028F
:1046C40047597C0E7D007900AA18AB1912102A856F
:1046D4000C82850D8312504BEA4B6010750C0675E5
:1046E4000D00780C12197EEA2410801B125045121A
:1046F40009E8EA4B70030248D8750C06750D00787A
:104704000C12197EEA2405FCE43BFD7402121759CD
:104714001210127402121711850E82850F83E0A203
:10472400E25004D2F08002C2F0A2F0E433F8740C38
:10473400121747E048F0EEFCEFFDAA18AB1912116E
:104744006EE970117A027B00900765E0F912106639
:1047540079000248DA12538270030248D81248DF03
:1047640070030248D8850A82850B83E0FC79010234
:10477400487512538270030248D812500A890BE814
:10478400450B70030248D88E828F83A3E0FC790224
:104794001250458882850B8302487C7C007D00EEA4
:1047A4002404FAE43FFB850882850983E0F91211A9
:1047B40038E9F8C3940A40030248D8EE240AFCE41A
:1047C4003FFD7A0475F006E8A42425F91213480283
:1047D40048D812504590077AE06007900DEFE0F951
:1047E4008069900DECE070047905805F1209E88A15
:1047F4000C8B0DA80CA90DE82404F50CE439F50D77
:104804008E828F83A3A3A3A3A3A3A3E0A2E050411A
:10481400E84970030248D8850C82850D83E0FE6068
:1048240030850A82850B83E054107025740E1217AC
:1048340061E82405FAE439FBEEF9121138E9701144
:10484400790385088285098312504B1205A4024816
:10485400D8AC0EAD0F850C82850D83E0F91250455E
:104864001211B0125382606C1248DF60677C0079C9
:10487400001250458E828F8312176980571206707A
:10488400E9705190080EE06401701512118C9008C3
:104894000EE4F07C0AFDF97A0F7B0812102A802CB2
:1048A400750A00850A08740F2508FEE43408FF8E93
:1048B400828F83E06401700BA90A1211928E828F99
:1048C40083E4F0050AE50AC3940A40D77950121329
:1048D40054121180790174140245BD12500EE8FE81
:1048E400E9FFEE4F2274F412176B74F21216FBEA0E
:1048F400FE8C0975F006E9A42420F508AC18AD195E
:104904007A0EF912134EE9704B7C0679FFAA18ABA4
:104914001912108AE9703D740C12174712495DE8A8
:10492400F50BE5096005EE420B8004EEF4520B85AD
:104934000B82AA82E86A7001E96015740C121747A9
:10494400EAF0A3E4F0AC18AD197A0EA908121348E2
:104954007901800279000241E7E0F8A3E0F92274CA
:10496400F212176B74E61216FB89098A0C8B0DEC94
:10497400FEEDFF740C1217617A0E75F006E9A4249B
:1049840020F912134EE96003024A487C0679FF7449
:104994000C12175912108AE96003024A48747025F0
:1049A40009F508AC18AD197A0CF912134EE9600335
:1049B400024A44AA18AB19121168E50C450D701D82
:1049C4007C0C7900AA18AB1912108AE970727C0C5D
:1049D4007D007900AA18AB1912102A8051AC18ADC9
:1049E40019AA0CAB0D1211628A0A8B0BA80AA90B27
:1049F400E8497022EE4F604CAC18AD197A007B0088
:104A0400121162EAF8EBF9EA4B603988828983E58E
:104A14000CF0A3E50DF0124AC1FAEE6A7001EF60E2
:104A24001FEEF04F700888828983E4F0A3F0AA187F
:104A3400AB19121168AC18AD197A0CA908121348F5
:104A4400790180027900741A12171102459374F7E0
:104A540012176B7F00EF75F003A4F8A9F0EC28F8A7
:104A6400ED124A85E06A7003A3E06B7006E8FAE988
:104A7400FB800B0FEFC3940440DB7A007B00024DF4
:104A8400BD39F9888289832274F712176B7E00EE90
:104A940075F003A4F8A9F0EA28F8EB124A85E0F4CB
:104AA400FCA3E0F4FD88828983ECF0A3EDF0124AC4
:104AB400C1F4F00EEEC3940440D5024DBDE82402C7
:104AC400F582E439F583E02274F412176B74F4125E
:104AD40016FBEAFEEBFF8C0A8D0B90081912538526
:104AE400704FEE4F7003024C5BEC450B7003024CAD
:104AF4005B12117AE9900DF2F0C3940A4033750801
:104B0400007C0679FFE50875F00EA4FAABF0748119
:104B14002AFA74073BFB12108AE96003024BB405BE
:104B240008E508C3940A40D975090AE509900DF20D
:104B3400F0900DF2E0C3940A4003024C5B75F0065A
:104B4400E0A4F890081912504BEA4B7069EEFCEFA0
:104B5400FD7A0E742028F91213487C0C7D0079FF2D
:104B6400AA18AB1912102AAC18AD197A0C900DF2D0
:104B7400E02470F912134875080E750900780812BC
:104B8400197EEEFCEFFD900DF2E075F00EA4F8A98D
:104B9400F0748128FA740739FB1210127402121788
:104BA40011900819E50AF0A3E50BF07900024C5DB9
:104BB400850809024B2F124C622406124C746019AA
:104BC4007A1B742128F9121348124C6B2406F582BF
:104BD400E438F583E4F0A380D1124C62240A124C29
:104BE4007460107A1B742228F9121348124C6B2437
:104BF4000A80DB124C62240C124C7460107A10741C
:104C04002328F9121348124C6B240C80C1124C62F5
:104C14002408124C7460347A10742428F91213484E
:104C2400124C6B2408F582E438F583E02410FCA3CD
:104C3400E03400FD7A0475F006900DF2E0A424251A
:104C4400F9121348124C6B2408808390080DE0601D
:104C5400031211B61211AA7901740C0241E99008E9
:104C640019E0F9A3E0C922900819E0F8A3E0C822EA
:104C7400F582E439F583124C80EC4D22E0FCA3E08C
:104C8400FD2274F412176B74F21216FBEAFEEBFFAA
:104C9400E9C3940A5004EE4F700479028034AC18CE
:104CA400AD197A0E75F006E9A42420F912134EE921
:104CB400F508701C750A06750B00780A12197E74C3
:104CC40002121761EEFAEFFB12101274021217119E
:104CD400A9080241E774F412176BEAFEEBFF7508AA
:104CE40000750A06750B00780A12197EEEFCEFFDBA
:104CF400E50875F00EA4F8A9F0748128FA74073950
:104D0400FB1210247402121711E96004A908800B25
:104D14000508E508C3940A40C8790A0241EC74F70F
:104D240012176B750800E50875F00EA4F8A9F07465
:104D34008128FE740739FFEEFCEFFD7A0E75F0064C
:104D4400E508A42420F912134EE960297C067D00AD
:104D540079FFEEFAEFFB12102A7C067D0079FFEE54
:104D64002CFAE43FFB12102AEE240CF582E43FF502
:104D740083E4F0A3F00508E508C3940A40A890086A
:104D84000DE060031211B61211AA802D74F71217E8
:104D94006B7E007F007C0679FFEF75F00EA4FAAB02
:104DA400F074812AFA74073BFB12108AE970010E31
:104DB4000FEFC3940A40DEEEF97F0102183D74F749
:104DC40012176B7E00EEF91211920EEEC3940A5084
:104DD40003E960F180E374F312176B74CB1216FBD2
:104DE400E9FF900DF2E06F701B7A017B009007657C
:104DF400E0F912106C7A027B00900765E0F912105A
:104E04006C1211C275F006EFA4FE74202EF508741E
:104E1400271217617A0EA90812134EE96003024E95
:104E2400E07C0679FF742712175912108AE960038F
:104E3400024EE07C0E7D0079FF7427121759121080
:104E44002A7C1B7D0079FF740C12175912102A7CDE
:104E54000C7D0079FFAA18AB1912102A74271217B7
:104E6400617A0EA908121348E9F508740C12176147
:104E74007A1B74212EF9121348E9F50C740C1217DD
:104E8400617A1B74222EF9121348E9F50B740C1283
:104E940017617A1074232EF9121348E9F509740C7A
:104EA4001217617A1074242EF9121348E9F50A7462
:104EB4000C1217617A0474252EF9121348E9FEAC1A
:104EC40018AD197A0C74702FF9121348E9F8E50C2F
:104ED400450B4509450A4E4842088003750800A958
:104EE4000874351217117F0502183D74F712176BF9
:104EF400E9900765F0121180024DBD74F412176B2E
:104F0400EAFEEBFF54807003024F97900765E0F9C7
:104F140012104E8A088B09EA4509607078018A826A
:104F24008B83E02450603D14600624E1604F80527E
:104F3400A3A3A3A3E0704E8A828B83A3A3A3A3A3FA
:104F4400A3A31219958A828B83A3A3A3A3A3124CB0
:104F5400808A828B83A3A312504B121144740212D1
:104F640017118021A3A3A3A3E0641E701879008AFB
:104F7400828B83A3A312504B12113E80081211504E
:104F8400E9F8E86007AA08AB0912103CEEFAEF64EE
:104F9400808065EE540260237C007D007A007B00F3
:104FA40012116EE960117A017B00900765E0F91235
:104FB4001066EE6402803F7A028046EEA2E0503F23
:104FC40012501B12504B1211BCE9602F1253826015
:104FD4001F12500A88088909E8450960137C007982
:104FE4000112501B12504B850882850983121769E0
:104FF4001211C2EE6401FAEFFB80087A0180027A92
:10500400007B000241EC12500E22E0F5838882A35B
:10501400A3E0F8A3E0F922900819E0F8A3E0F583EF
:105024008882A3A3A3227F0202183DC082C083907A
:105034000765E0F98A828B83A312504B1208028021
:105044003B850882850983E0FAA3E0FB22C082C085
:105054008374FF1216FB121186E9C3940285188229
:10506400851983400474028002740AF0AC18AD19E7
:105074007A0179051206887401121711D083D0823F
:1050840002011F74F412176B74E81216FB8A088B62
:1050940009E9FE8C0A8D0B7C187D007900AA18ABF7
:1050A4001912102A851882851983E508F0A3E509E9
:1050B400F0900767E0C0E07402121747D0E0F09068
:1050C4000768E0C0E07403121747D0E0F0900DF1D8
:1050D400E0C0E07417121747D0E0F07415121747B8
:1050E400E054FEF8A3E0F9900DF0E0A2E0E433FA16
:1050F400E84AF87415121747125222A2E15004D25A
:10510400F08002C2F0E854FDFAA2F0E43325E0F89E
:10511400EA48F87415121747125222A2E35004D237
:10512400F08002C2F0E854F7FAA2F0E433F508750F
:105134000900740378081216E812521B121747125A
:105144005222A2E45004D2F08002C2F0E854EFFAF2
:10515400A2F0E433F508740478081216E812521B1E
:10516400121747125222A2E55004D2F08002C2F074
:10517400E854DFFAA2F0E433F5087405780812164F
:10518400E812521B121747125222A2E25004D2F024
:105194008002C2F0E854FBFAA2F0E433F50874028A
:1051A40078081216E812521B121747E8F0A3E9F028
:1051B400900768E0601D750810780812197E7C69F4
:1051C4007D077406121747AA82AB83121012740269
:1051D400121711900779E06010EE60097415121728
:1051E40047E04402F07801800278007414121747F3
:1051F400E048F0900766E060047804800278007468
:1052040014121747E048F0AC0AAD0BAA18AB1912F8
:10521400059E74180241E9EA4508F8741522E8F07D
:10522400A3E9F0900DF0E02274F712176B12087ADC
:10523400750800E50875F00EA4F8A9F0748128FE3D
:10524400740739FF7C0679FFEEFAEFFB12108AE946
:105254007009EEFAEFFB79001208800508E508C32F
:10526400940A40CF024DBD74F612176B74FD1216EA
:10527400FBEAFEEBFF90081B125385703975081D7D
:10528400750908780812197E7508027509007808EE
:1052940012197E750806750993780812197E7CFF29
:1052A4007DFF7A017B001206CA740612171190085A
:1052B4001BEAF0A3EBF090081B1253857003025312
:1052C4006CE4F508F509780812197E740412175174
:1052D40088088909780812197E74041217518808FD
:1052E4008909780812197E90081D1219957902907F
:1052F400081B12537A1207F07408121711E970365A
:10530400851882851983E0FA7401121747E0F8E4DE
:10531400C8F9EA28F508E439F509EA450960177877
:105324000812197E90081B12501EA312537A1211F0
:10533400447402121711E4F508F509780812197E6D
:1053440090081D1219957CFF7DFF90081B12504B8D
:105354001206D6740412171190081BEAF0A3EBF09E
:1053640090081B125385700479018002790074033C
:1053740012171102502A124C80EEFAEFFB2290070A
:105384007F12495DE84922C082C0839008191253F4
:1053940085601090081912504B12103C900819E4C3
:1053A400F0A3F0900DF2740AF0025080C082C08322
:1053B4009061907404F0A37448F0A3E4F0906180C9
:1053C4007440F09061BC7407F09061877469F09048
:1053D40061B67416F07900120AF67902120AFC908A
:1053E4002524E493F46006E493F9120AD2790512B1
:1053F4000DF60257ABC082C083E9540FF990618562
:10540400E0696012E5C654804449F5C6E59E547FC0
:10541400644970F8E9F053C680E59E547F70FA023F
:1054240057AB74F712176BE5A8FE53A87E120ADE79
:10543400C2BA539AFEC289759B00C2C2120AE475AD
:10544400A91175B905120AEAD2BA439A0174805EA9
:1054540042A8025D42C082C083906181E4F0A3024D
:1054640057A875E90075910075BF0002011FC0823D
:10547400C083906181E4F0A374C0F0A3E40257AA4E
:10548400C082C08374F81216FB9003A41266DB700A
:10549400030255639003A4E05440602379088518FF
:1054A40082851983AA82AB83120BF285188285192F
:1054B40083AA82AB831208A49003A4E054BFF0E053
:1054C40054806010790C7A657B05120BF29003A46A
:1054D400E0547FF0E0A2E0500F7900120AF61208BF
:1054E400AA9003A4E054FEF0E05402600F79011284
:1054F4000AF61208AA9003A4E054FDF0E0540460F4
:105504000F7900120AFC1208B09003A4E054FBF0D7
:10551400E05408600F7901120AFC1208B09003A449
:10552400E054F7F0E05410600F7902120AFC1208FC
:10553400B09003A4E054EFF0E05420600F7903121C
:105544000AFC1208B09003A4E054DFF0A3E0540175
:10555400600D120B081208B69003A5E054FEF07417
:10556400081217110257ABC082C083E960051460AA
:105574002A804F90619A7433F0A37455F09061A01F
:10558400743AF090053FE064017009C2919003A65B
:105594007467802D9003A67461802690619A743F8D
:1055A400F0A3745AF09061A0747FF090053FE0641A
:1055B400017009D2919003A6747180059003A674BA
:1055C4006AF00257ABC082C083E9600B14600D140B
:1055D400601714600C802090252880159025298060
:1055E4001090053FE06401700590252A8003902502
:1055F4002BE493906186F00257AB74EE12176B7430
:10560400F41216FB851882851983AC82AD837583E9
:10561400927582D3740412160E90252893F46003B5
:10562400025728907808E0C3940250030257087484
:1056340004121747AC82AD83758392758255740842
:1056440012160EFC7EFF7FFF8E0C7D008C828582FD
:105654000E800F74086D606D74096D6068740A6D56
:1056640060638D08750900740278081216E81257F1
:10567400321215B3A909E50AC9F888107418780814
:105684001214F4E5104508FAE9FBE50EC333F8E417
:1056940033F97404121747E58228F582E583391239
:1056A4005C32C3E89AE99B4008E8C39AF8E99B8016
:1056B40006EAC398F8EB99F9C3E89EE99F5006E817
:1056C400FEE9FF8D0C0DEDC39413408774FF6E70DB
:1056D4000374FF6F6024850C08740278081216E8BE
:1056E4001257321215B3851882851983E582250E67
:1056F400F582E5831260D1E508F00CECC394045004
:1057040003025648750801750900780812197E7459
:1057140002121747AC82AD837A4A7B0912120474D1
:1057240002121711740C1217117F0A02183D7448E3
:105734002508F58274783509F583780822C082C07B
:1057440083906186E0F890252BE493687009902596
:105754002AE493906186F09061AE7468F0A3746A51
:10576400F090624574FBF0A304F053F4FD43FE0291
:1057740090053F7401F09061A0E0643A70047900F0
:1057840080027901120AF60257ABC082C0839004EA
:10579400F1E06401700A9004F6E06004790C800280
:1057A40079008003F0A3F0D083D08202011FC0826D
:1057B400C08375E1F19004F4E0604D146009146055
:1057C40051146049147050120B1A9004EAE0F97AEB
:1057D400EB7B04120D789092DB1215D1120DAE9072
:1057E40092BF1215D1120D849004F5E0F9120D90B8
:1057F4007901120DEA1258CE24161260CE7432F0DA
:10580400A3740BF07900809F120B2080BD120B262D
:1058140080B8120B2C80B3791280EB74F412176BDE
:1058240075D90D9004D5E0A2E0E4331313F81258AF
:10583400C4484401F5D9780012593140FB780088F6
:105844000874D6126631740412593B40F275E1951E
:105854009004D5E0F97AD67B04120D7E900D227463
:10586400A8F0A3740A12594112598512597C125A8C
:10587400999004F4E064019004E8700B1258D71274
:1058840015B39092E780091258D71215B39092EF8E
:10589400780812153F9092C7780812158D1258CEC9
:1058A400240E1260CE78081215C21258CE24141297
:1058B40060CE7413F09003A27402F07F0402183DCA
:1058C4009004EAE0C4333354C0229004E8E0F8A31F
:1058D400E0C82212656978082274F612176B125A0E
:1058E4006A8AD9780012593140FB7800800612592F
:1058F400E2125B1FE8C39940F5125A5C1259314019
:10590400FB7800800812662D7405125B1FE8C399AA
:1059140040F375E195900D2274B4F0A3740A125902
:105924004112594B7412F09003A2025D0688087468
:10593400EB2508F5827404125C9C940622125A82A8
:1059440074AEF0A3740A2212598512597C125A9D1E
:105954009004E8E0F8A3E0C8240E12597474FF120E
:1059640063A69004E8E0F8A3E0C824141259742252
:10597400F582E83400F58322F0A374C6F0A3740A18
:10598400221259892212598D22F0A3745EF0A37455
:105994000C2274F612176B1259D71258C44402F52C
:1059A400D9780012593140FB780080061259E2126E
:1059B4005B1FE8C39940F575E195900D221259EDEE
:1059C400F0A31259ED12594E7414F09003A274040A
:1059D400025D089004FAE0F9740729F5D9228808D1
:1059E40074FB2508F58274042274C01259FA125902
:1059F400FAF0A3740A22F0A3740AF0A374C0227408
:105A0400F612176B125A6A74064AF5D978001259BD
:105A14003140FB780080061259E2125B1FE8C399FB
:105A240040F5125A5C12593140FB78008008126626
:105A34002D7405125B1FE8C39940F375E195900D31
:105A44002274BAF0A3740A125A7812594B7415F0DE
:105A54009003A27403025D0890051A1259DA7404C3
:105A64004AF5D97800221259D79004EAE0C43333B6
:105A740054C0FA22125A82745EF0A3740C22125A91
:105A84008622125A93745EF0A3740C125A93221253
:105A9400598DF0A322125A9D22F0900D30745EF0BD
:105AA400A3740C125A86745EF0A3740C125989F014
:105AB40022C082C0831258CE24061260CEE402575C
:105AC400A874F712176B9003D0E0F875F003A4C81C
:105AD400AAF02AF974D228F8740339F9E82405FAEB
:105AE400E912657CA3A3A3A3A3A3A3A3A312667D26
:105AF400A3A3A3A3A3A3A3E024FFF8A3E034FFF983
:105B04008A828B83E8F0A3E9F0025D427F060218E3
:105B14003D880874452508F58274051260A8F5D9F6
:105B24000822EAFEEBFF9061D0E0F87480C398FA93
