:020000040000FA
:060000000201070220C00E
:03002B0002253576
:030033000225178C
:03003B0002255645
:030043000224CBC9
:0300530002213651
:03006B000224F17B
:10008300021F6FE5C754F84401F5C7790122000048
:100093000080FB120086B900030200F1E4792178A5
:1000A30008B800028004F709D8FCE479297802B87B
:1000B30000028004F709D8FCE4900281781B790CD4
:1000C3008002F0A3D8FCD9FA7A9B7B0D9001377894
:1000D300D279038015E493A3AD82AE838A828B83A6
:1000E300F0A3AA82AB838D828E83D8E9D9E7758288
:1000F300AC7583A974031201197582917583007419
:100103000012011975D00075813F751881751902A8
:10011300759F00020096C09FF59FE473D09F22D085
:1001230083D082C09FE493C0E0740193C0E0740263
:1001330093F59F22FF0000B4000028002800283018
:1001430075A000A000A000A00000080008E001F0D6
:10015300001000100010001000100010005000509C
:1001630000500010001000D0070000000000000F36
:100173000001000500307507001000010081FF0039
:10018300000000FF060624060C06FF020202080216
:100193005000A0000000E80302DA93010000B293CC
:1001A30002C493010000F20D02BE93010000B302EA
:1001B30002C493010000F30D02C893010000C902B9
:1001C30002C493010000F40D02CC93010000CB02A2
:1001D30002C493010000F50D02D093080000CC0285
:1001E30002C493010000F60D02D493010000F70D41
:1001F300FF0100FF2002DA93010000B89302C493C9
:100203000100005B0E02F693000000000002C093A1
:100213000300001903420C420C420C420C420C42F4
:100223000C420C420C420C420C420C420C420C1885
:100233000F300F120FFFFF0202020202020202023C
:10024300010D000000100102DA93010000B59302D2
:10025300C4930100009E0E02E6930100005D0702B5
:10026300C4930100009F0E02E493010000949202E4
:10027300C493010000A00E02E2930100006B9202FE
:10028300C493010000A10E02E093010000949102C7
:10029300C493010000A20E02DE93010000829102CA
:1002A300C493010000A30E02DC930100005E9102DF
:1002B300C493010000A40E02D893010000B8910278
:1002C300C493010000A50E02D6930100005D9202C3
:1002D300C493010000A60E02D293010000A70E01F1
:1002E300E803053F100AFF00013075030201060011
:1002F30000000000000000000000000000000000FB
:100303000000000000000000000000FFFF06008066
:100313000CE803080964422E446576730512500005
:100323002003020A0002010611060000000000007B
:10033300010001000100DBFF10F564422E446576E5
:10034300730000000000000000000000000000CE69
:10035300130000D413023078444230310002307865
:100363004442303200083078444230330010307851
:100373004442303400083078444230350002DA9386
:10038300010000BB9302C493010000BC0F02EC9375
:10039300010000670D02C293010000BD0F02C49368
:1003A300010000C40F02EE930100007B0D02C29313
:1003B300010000C50F02C493010000CC0F02F093AB
:1003C3000200007C0D02C293010000CD0F02C49312
:1003D300010000D40F02F293000000900D02C093BD
:1003E300030000910D02C293010000D50F02C493D4
:1003F300010000DC0F02F493020000970D02C29388
:10040300010000DD0F120122A29803120122B99804
:1004130003120122EA9803120122259903120122F1
:100423004F99031201227999031201229099031221
:100433000122A79903120122BE9903120122E7990F
:1004430003120122FA9903120122109A03120122C4
:10045300239A031201224A9A0312012201980212DB
:1004630001220599021201223D990212012260998B
:10047300021201226B99021201228E9902120122A9
:100483009D9A02120122729B02120122ED9B02121B
:100493000122759C02120122B09C02120122E79CE8
:1004A30002120122759D021201224E9E02120122A6
:1004B300AE9E02120122B99E02120122389F02123D
:1004C30001223B9F021201223E9F02120122CD9F75
:1004D30002120122D09F0212012200A00212012265
:1004E3002AA00212012218A102120122CAA1021299
:1004F3000122A1E902120122C9E902120122F7E94C
:10050300021201222EEA021201228CEA02120122B5
:10051300D7EA0212012222EB0212012262EB02123B
:100523000122A8EB02120122D6EB0212012293EC64
:10053300021201229DEC02120122AAEC02120122F4
:10054300DDEC02120122A9ED02120122B5ED021225
:100553000122CDED02120122D7ED0212012203A5E1
:100563000312012211A50312012229A5031201225C
:1005730041A503120122FDB401120122A9B5011202
:10058300012224B60112012245B70112012281B7CB
:10059300011201222AB80112012211B9011201220A
:1005A30075BA01120122CCBA011201224DBB01120C
:1005B30001223DBC011201228ABC0112012210BD9D
:1005C3000112012242BD0112012256BF0112012272
:1005D30098BF01120122B6BF0112012239C00112D4
:1005E30001220DC101120122D5C101120122F3CD55
:1005F30002120122C6CE021201226FCF0212012281
:10060300C2CF0212012272D002120122FED00212C4
:100613000122EAD10212012219D2021201222CD3A1
:100623000212012274D30212012249D402120122BE
:1006330085D402120122A1D4021201225AA8031264
:1006430001225AFA0212012270FA0212012296FAC8
:1006530002120122B2FB02120122BCFB021201228E
:10066300F1FC02120122E9FD02120122B7DF02129C
:100673000122E7E0021201221AE10212012264E1DF
:10068300021201222BE3021201220EA50112012202
:1006930078A501120122D7A601120122E7A60112B1
:1006A300012214A7011201226BA70112012214A82F
:1006B300011201221BA901120122E5A90112012243
:1006C30045AB0112012288AB011201222DAC0112AC
:1006D30001227AAC01120122A0AC01120122AEAEBA
:1006E30001120122B3AE01120122B8B0011201229C
:1006F30005B10112012278B101120122ABB101123D
:1007030001224DB201120122F6B2011201222EB3CF
:100713000112012231B30112012279B30112012224
:10072300B9B30112012210B401120122649303121E
:1007330001227C9303120122C49303120122DA9350
:10074300031201222194031201223595031201227F
:10075300C295031201220D9603120122C82500122D
:100763000122D425001201220F2600120122542651
:10077300001201221427001201229A2700120122DB
:10078300C62700120122FF27001201223D2A001270
:100793000122212C00120122072E001201224A2FCE
:1007A30000120122983100120122AA320012012202
:1007B300F533001201220535001201222235001201
:1007C30001225D35001201227F3500120122E2353C
:1007D30000120122A33A00120122383B0012012227
:1007E300893B00120122B03B00120122023C00129D
:1007F3000122203C001201227A3C00120122793DA1
:1008030000120122FD3D0012012284DA02120122AC
:100813008EDA02120122D1DA02120122ECDA02127A
:1008230001227CDB02120122A4DB02120122E1DBA2
:100833000212012218DC0212012241DC02120122FF
:10084300B6DC02120122CBDC02120122E0DC02122E
:10085300012211DD0212012225DD021201224ADDED
:100863000212012284DD02120122B0DD02120122F2
:10087300E8DD0212012247DE02120122C6DE021265
:100883000122F1DE021201223ADF0212012264DFA9
:10089300021201228FDF021201220DA20312012292
:1008A3000080021201222E80021201227C81021298
:1008B30001225C82021201227B8202120122F8824F
:1008C300021201223B8302120122918402120122AD
:1008D300528502120122D987021201227A8802125A
:1008E30001227089021201226D8A02120122C78B32
:1008F30002120122528C02120122B2A0031201221F
:100903001BA1031201226FA10312012296A103125C
:100913000122C7A1031201225EEE02120122CBEED5
:100923000212012212EF021201222AF00212012204
:1009330026F10212012209F20212012210BE021252
:10094300012252BE0212012224BF02120122FDBF64
:1009530002120122F7C002120122D9C1021201229E
:1009630042C202120122F8C2021201226CC3021215
:100973000122D8C30212012201C4021201227BC444
:100983000212012214C50212012279C502120122A8
:100993008EC502120122D4C502120122EDC5021234
:1009A300012252C60212012255C6021201226B9085
:1009B30003120122939003120122D1900312012208
:1009C3008F9103120122F691031201221292031254
:1009D30001223A92031201226A92031201227992AE
:1009E30003120122F692031201221C930312012225
:1009F300F99301120122979501120122B297011274
:100A03000122EE97011201221B9801120122009983
:100A1300011201224799011201228B99011201222D
:100A23009D9901120122DD99011201220A9A0112F4
:100A33000122559A01120122959A01120122C39AA9
:100A430001120122159B01120122A59B0112012211
:100A5300439E0112012259A00112012297A0011203
:100A6300012228A2011201226DA201120122E4A295
:100A7300011201222EA30112012254A30112012209
:100A83003CA401120122E3A40112012205AC0212CB
:100A9300012284AC0212012246B20212012255B392
:100AA30002120122BDB40212012254B50212012224
:100AB300875200120122D05200120122FD5200126D
:100AC30001223053001201223D53001201224953E7
:100AD300001201225B530012012242540012012230
:100AE300A05400120122D5540012012218560012FC
:100AF3000122655600120122895600120122F65680
:100B030000120122B457001201226D580012012273
:100B1300DA58001201228C59001201229C5900124A
:100B23000122235A00120122E25A001201220F5B12
:100B330000120122885B00120122E55B00120122F0
:100B43002F5C00120122C55C00120122905D00128D
:100B53000122455E00120122BA5E001201221B5FD0
:100B630000120122855F00120122BE5F00120122E2
:100B7300606000120122706100120122B061001254
:100B83000122CD6100120122EC61001201223362C5
:100B93000012012258620012012285620012012212
:100BA300FF620012012240630012012264640012FA
:100BB30001221465001201226B6500120122D56522
:100BC30000120122EE65001201223BA20212012251
:100BD3008EA2021201229AA2021201226FA3021212
:100BE300012296A302120122D1A3021201223DA4E3
:100BF3000212012279A402120122B2A402120122DA
:100C0300CAA4021201221FA50212012238A5021250
:100C1300012281A50212012294A502120122AEA58E
:100C230002120122C4A502120122F7A60212012216
:100C33003EA80212012240A9021201223AAA02127C
:100C43000122FB7F001201226EEE011201229EEEB1
:100C53000112012266F201120122BDF301120122E7
:100C630086F40112012206F601120122D7F60112BF
:100C7300012214F70112012237F70112012275F73D
:100C8300011201227EF701120122C8F7011201228B
:100C9300D2F7011201227CF80112012255F9011247
:100CA3000122A9F9011201220BFA011201225EFAB3
:100CB300011201228DFA01120122CAFA0112012244
:100CC3002066001201228769001201228D69001239
:100CD30001220F6F001201228873001201225E7736
:100CE30000120122FF8603120122758703120122DB
:100CF3008B8703120122CC87031201220688031279
:100D030001227F8803120122BA88031201222D894E
:100D1300031201226B890312012274890312012237
:100D23008089031201229C8903120122C7890312BD
:100D33000122DD8903120122218A03120122DEE44A
:100D430002120122F1E4021201220BE50212012236
:100D530034E50212012277E502120122B6E50212FE
:100D63000122F4E50212012259E6021201226EE683
:100D73000212012279E60212012286E60212012200
:100D83009DE602120122ABE602120122B6E602122E
:100D93000122C2E602120122D5E602120122E0E696
:100DA3000212012203E702120122AAE70212012220
:100DB300BAE702120122D4E702120122F1E702127A
:100DC30001220DE80212012232E8021201223DE85B
:100DD3000212012252E80212012266E802120122E3
:100DE300C7E802120122CDE802120122D3E802125F
:100DF3000122D9E802120122F1E80212012224E9B8
:100E0300021201225FD201120122E3D20112012256
:100E130092D301120122F1D40112012212D701123D
:100E23000122FED70112012233D80112012255D823
:100E33000112012204D901120122FCDA011201225A
:100E430025DB01120122B7DB01120122E9DB0112CA
:100E53000122F6DB011201224DDC0112012273DCB7
:100E630001120122E0DE01120122E3DF011201225D
:100E73003BE001120122EEC301120122F8C4011268
:100E83000122DFC501120122E9C5011201220BC6AD
:100E93000112012217C601120122B0C70112012259
:100EA300DFC701120122FBC80112012254C901123A
:100EB3000122BACA0112012299CB01120122F5CBF8
:100EC3000112012262CC011201229DCC01120122E6
:100ED300DCCC0112012295CF01120122AFCF011206
:100EE30001223BD00112012249D001120122A2D0DA
:100EF30001120122B0D00112012223D101120122D9
:100F030087D101120122D1D101120122D38C021205
:100F13000122F58C021201221B8F02120122309250
:100F230002120122489302120122FB9302120122B0
:100F3300DD94021201220E9C03120122339C031240
:100F43000122A59C0312012279C60212012282C644
:100F5300021201228BC60212012262C7021201226F
:100F630013C90212012249C90212012283C90212C2
:100F73000122B9C902120122F3C90212012227CAAE
:100F83000212012253CA021201229CCA0212012236
:100F9300D6CA021201221FCB0212012277CB021200
:100FA3000122ACCB0212012207CC0212012241CC56
:100FB3000212012292CC02120122C8CC0212012297
:100FC30002CD0212012230CD0212012253CD0212B0
:100FD300012290A603120122BCA60312012217A725
:100FE3000312012221A70312012231A703120122B6
:100FF30016D50212012220D5021201225ED5021259
:101003000122A7D502120122E1D5021201223BD609
:10101300021201225CD60212012265D602120122BB
:10102300B6D602120122DFD602120122E9D602123B
:10103300012255D702120122E3D70212012231D82D
:101043000212012267D802120122EED802120122F3
:101053002ED90212012266D90212012278D9021274
:10106300012297D902120122A0D9021201225ADACF
:1010730002120122008003120122F58003120122D1
:101083000F810312012220810312012255830312CF
:101093000122F3FD0212012229FE021201225FFE48
:1010A30002120122B8FF02120122DEA8031201225A
:1010B300F4A803120122FEA80312012248A9031275
:1010C3000122A5FB01120122BEFB0112012262FCD7
:1010D30001120122A2FC01120122BBFC0112012216
:1010E300EFFC011201223CFD0112012270FD0112ED
:1010F3000122B2FD011201222AA40312012253A4E8
:10110300031201227CA403120122BEA403120122B2
:10111300518A03120122768A03120122A28A031240
:101123000122FFA903120122643E00120122C840DA
:10113300001201227A42001201226C4300120122A2
:10114300F143001201226F44001201229C44001259
:101153000122C047001201223A4800120122294904
:1011630000120122634900120122A3490012012245
:101173005D4B00120122B04B00120122F94B001209
:101183000122674C00120122994C00120122B14C3A
:1011930000120122C64D00120122D64D0012012277
:1011A300064F00120122284F001201225E4F001247
:1011B3000122035100120122425100120122625204
:1011C30000120122DAA503120122EBA50312012268
:1011D300B6FF01120122F5FF0112012272AA0312C6
:1011E30001223BA7031201224BA70312012263A78B
:1011F30003120122C9A70312012226A3031201220B
:10120300ABA30312012211A4031201223A9F03127A
:101213000122639F03120122CE9F031201221FA00A
:101223000312012278A003120122CBF2021201223F
:1012330002F30212012272F30212012287F3021255
:101243000122D0F40212012296F502120122B5F511
:1012530002120122DCF50212012211F6021201220E
:1012630029F6021201227AF60212012285AA03123A
:1012730001229083031201222084031201229E84FF
:1012830003120122278503120122BC8503120122C6
:101293004686031201225086031201225F8603123F
:1012A3000122758603120122888603120122E88631
:1012B30003120122FC8603120122D3A70312012287
:1012C3003DA8031201224FA803120122B39D03126A
:1012D3000122089E03120122769E03120122E69E3A
:1012E300031201223796031201226196031201228F
:1012F3003697031201222A9803120122AD770012B6
:1013030001226A7800120122A57800120122CD7809
:10131300001201222F79001201227B79001201228F
:10132300D47900120122657A00120122677B001230
:101333000122247D00120122A67D001201220B7ED0
:1013430000120122227E00120122327F00120122AA
:10135300707F0012012289E00112012213E40112BD
:1013630001229BE501120122F2E50112012211E69D
:10137300011201228FE6011201222DE8011201223E
:1013830011E901120122FBEC01120122CBED011242
:101393000122628D03120122918D03120122A78D76
:1013A30003120122EF8D03120122318E0312012257
:1013B3009C8E031201226E8F03120122E68F031209
:1013C30001227EB502120122DCB702120122D2B839
:1013D300021201220ABB021201227BBB021201226A
:1013E300EABB0212012232BC0212012249BC0212E0
:1013F3000122DFBC0212012248BD02120122AFF614
:1014030002120122F4F60212012211F70212012242
:101413009AF70212012200F802120122D6F80212F0
:10142300012221FA021201225C9A03120122809AFC
:10143300031201224E9B03120122C69B03120122B7
:1014430046AA03120122DD7F00E066701008A3E0C4
:1014530066700A08A3E066700408A3E06622C3E787
:10146300960809E7960809E7960809E79622C3E074
:101473009608A3E09608A3E09608A3E09622C00886
:10148300C3E096F50808A3E096420808A3E0964255
:101493000808A3E09645087001D3D008220808087D
:1014A300EAC0E0EBC0E086F0E7A4FA180986F0E7AB
:1014B300A42AFA180986F0E7A42AFA180986F0E79D
:1014C300A42AFA1986F0E7A4FBE5F02AFA1908869C
:1014D300F0E7A42BFBE5F03AFA190886F0E7A42B12
:1014E300FBE5F03AFA18180986F0E7A4C5F02BFBE0
:1014F300E43AFA1908E7C5F0C6A426F6E5F03BFB83
:10150300E43AFA1886F0E7A4F6E5F00826F6E43B99
:1015130008F6E43A08F6D0E0FBD0E0FA22E4CFC0C4
:10152300E0E4CEC0E0E4CDC0E0E4CCC0E075F02060
:10153300E626F608E633F608E633F608E633F61849
:101543001818EC33FCED33FDEE33FEEF33FFC3EC41
:101553009709ED9709EE9709EF97191919400FFFAE
:10156300EC97FC09ED97FD09EE97FE191906D5F0E6
:10157300BFECF709EDF709EEF709EFF7191919D0E1
:10158300E0FCD0E0FDD0E0FED0E0FF2260160808CA
:1015930008C6C313C618C613C618C613C618C6137F
:1015A300C6D5E0EA22700908080822601618181840
:1015B300C6C333C608C633C608C633C608C633C651
:1015C300D5E0EA22E627F60809E637F60809E63702
:1015D300F60809E637F622E026F608A3E036F60811
:1015E300A3E036F608A3E036F622E026F008A3E0EF
:1015F30036F008A3E036F008A3E036F022C3E697FE
:10160300F60809E697F60809E697F60809E697F655
:1016130022C3E096F008A3E096F008A3E096F00852
:10162300A3E096F022E056F608A3E056F608A3E0FE
:1016330056F608A3E056F622E056F008A3E056F06B
:1016430008A3E056F008A3E056F022E0F608A3E072
:10165300F608A3E0F608A3E0F622E6F008A3E6F016
:1016630008A3E6F008A3E6F022E0FAA3E0FBA3E078
:10167300FCA3E0FD22EAF0A3EBF0A3ECF0A3EDF072
:1016830022E0F8A3E0F9A3E0FAA3E0FB22E8F0A349
:10169300E9F0A3EAF0A3EBF022CAC0E0E6F0A30866
:1016A300DAFAD0E0FA22CAC0E0E0A3C582CCC58250
:1016B300C583CDC583F0A3C582CCC582C583CDC503
:1016C30083DAE6D0E0CA22C3E498F8E499F9121762
:1016D3000B8026C3E49AFAE49BFBE920E7E912179F
:1016E3000BE498F8E499F922C3E498F8E499F91221
:1016F300170BE498F8E499F9C3E49AFAE49BFB2204
:10170300EB20E7CFE920E7E0B90010BB0008E88A47
:10171300F084F8AAF022E4FBC8FA22EB70227B10D3
:10172300C833C8C933C9335007C39AC3DBF2800631
:101733009A50012ADBEAC833F4C8C933F4C9FA2240
:1017430075F008E4C833C8C933C933C99AC99B5073
:1017530004C92AC93BD5F0ECFBC833F4C8E4C9FA81
:1017630022600D08C6A2E713C618C613C6D5E0F358
:1017730022600C08C6C313C618C613C6D5E0F422EC
:10178300700422600D18C6C333C608C633C6D5E03D
:10179300F41822251810AF08F518400C1519800805
:1017A300F51840021519D2AF2200C0D0251810AF8A
:1017B30008F518500C05198008F51850020519D2C0
:1017C300AFD0D0222518F58210AF08F518400C15BC
:1017D300198008F51840021519D2AF8519832225FF
:1017E30018F582E43519F583222518F8E43519F93B
:1017F300222518FAE43519FB222518FCE43519FDD6
:1018030022E4732518C582C0E0E51934FFC583C0FF
:10181300E0E518C3958224F810AF08858319858203
:10182300188008858319858218D2AFCEF0A3E520EE
:10183300F0A37808E608F0A3DEFAEFF0A3E581242D
:10184300FAF8E608F0A3E608F0A3E608F0A3080810
:10185300E608F0A3E608F0A315811581D0E0FED0D9
:10186300E0F8158115811581E8C0E0EEC0E022257E
:1018730018C582C0E0E51934FFC583C0E0E518C38D
:10188300958224F910AF088583198582188008850D
:101893008319858218D2AFCEF0A3E520F0A3780890
:1018A300E608F0A3DEFAEFF0A3E58124FBF8E608EF
:1018B300F0A3E608F0A30808E608F0A3E608F0A3FF
:1018C30015811581D0E0FED0E0F815811581E8C0BF
:1018D300E0EEC0E022851983851882E0A3FEE0A331
:1018E300F5207808E0A3F608DFFAE0A3FFE0A3C041
:1018F300E0E0A3C0E0E0A3C0E0E0A3C0E0E0A3C059
:10190300E010AF08858218858319800885821885C1
:101913008319D2AFD083D08202011F851983851822
:1019230082E0A3FEE0A3F5207808E0A3F608DFFA3F
:10193300E0A3FFE0A3C0E0E0A3C0E0E0A3C0E0E0D9
:10194300A3C0E010AF0885821885831980088582BB
:1019530018858319D2AFD083D08222C0D02518C571
:1019630082C0E0E51934FFC583C0E0E518C3958262
:1019730024F310AF0885831985821880088583199D
:10198300858218D2AFC8F0A3E9F0A3EAF0A3EBF085
:10199300A37908E709F0A3D8FAECF0A3EDF0A3EEDE
:1019A300F0A3EFF0A3D0E0F0A3D0E0F0A3D0E0F0F9
:1019B300A3E520F0A3E5F0F0A3228519838518821F
:1019C300E0C0E0A3E0F9A3E0FAA3E0FBA37808E01A
:1019D300F608A3DFFAE0FCA3E0FDA3E0FEA3E0FF2B
:1019E300A3E0C0E0A3E0C0E0A3E0F5D0A3E0F520CE
:1019F300A3E0A3F5F010AF0885831985821880084A
:101A0300858319858218D2AFD082D083D0E0F8D0F5
:101A1300E03274048006740280027401C0E0F404AE
:101A23001217C7D0E012169C22740480047402803B
:101A330000CCC0E0EDC0E0E518C39CCCAD1950016B
:101A43001D10AF068C188D1980068C188D19D2AF16
:101A53001216A9D0E0FDD0E0FC22D083D082E9C0E9
:101A6300E0E493A3C386F0C5F095F0F908E493A3EB
:101A730086F0C5F095F0700BE493A3C3994005E994
:101A8300048002A3E475F002A42582F582E5F03513
:101A930083F583D0E0F9E493A3C0E0E493C0E022AC
:101AA300D083D082ECC0E0EDC0E0E493A3FCE493E8
:101AB300A3FDED4C600D121AEFEC24FFFCED34FF97
:101AC300FD80EFE493A3FCE493A3FDED4C600D12C2
:101AD3001B2EEC24FFFCED34FFFD80EFD0E0FDD0A6
:101AE300E0FCE493A3C0E0E493C0E022C0E0C3E4DD
:101AF3009396087401939618400FE4936670080850
:101B0300740193661870007019A3A3C3E493960835
:101B13007401939618A3A3400DD0E0D0E0D0E00267
:101B23001ADFA3A3A3A3A3A3D0E022C0E0C0F0883D
:101B3300F0E4936670080874019366187000A8F0C7
:101B4300A3A3700BD0F0D0E0D0E0D0E0021ADFA363
:061B5300A3D0F0D0E02257
:101B5C0074F5121872EAFEEBFFEE2434F8EF340041
:101B6C00F988088909EE2435121C88F8EE243712FE
:101B7C001C88F50AEC850AF0A4FCAAF0850AF0EDA5
:101B8C00A42AFDE82CF8E43DF97A257B0012170B0A
:101B9C00EA850882850983F074075AF87401B80045
:101BAC00028004C333D8FCFBEA131313541FF8EE62
:101BBC0028F8EF3400F9E8245DF582E9121C8B5B00
:101BCC006003EA801CEE2436121C88F5F0EA84A827
:101BDC00F0EE28F8EF3400F9E82438F582E9121C0D
:101BEC008BF97F0402191E74F5121872EAFEEBFFD2
:101BFC00EE2434121C88C0E0EE2435F582EF34005C
:101C0C00F583D0E0F08E828F83A3A3A3A3A3E0FA85
:101C1C00A3E0FB8E828F83A3A3A3A3A3A3A3E0FCC7
:101C2C00A3E0FDECC39AF50AED9BF50BEE247FF5D2
:101C3C0008EF3400F509850882F583E06401702B08
:101C4C00EE2480F582EF3400F583121A30121C91C9
:101C5C0074021217ACE960137CDC7D04EEFAEFFB26
:101C6C00120B6A850882850983E4F0AC0AAD0BEE91
:101C7C00FAEFFB121B5C1224B7021BEEF582EF3459
:101C8C0000F583E022C082C083851882851983E029
:101C9C00F8A3E0F9C3EA9CEB9D5010C3EC98ED99C6
:101CAC00401BC3EA98EB995014800EC3EA98EB9949
:101CBC004007C3EC98ED994004790180027900D07B
:101CCC0083D08222EAC39CFAEB9DFB2274ED12189E
:101CDC00729003A2E064086005E06407702C9061C8
:101CEC00C8E060269003D0E0F874FF68601CE875CB
:101CFC00F003A4C8AAF02AF974D228FE740339FFA1
:101D0C008E828F83A3A3A3E070057900021E78EE68
:101D1C002468F510EF3400F511906060E0851082B6
:101D2C00851183F0750A45750B057508007509005A
:101D3C00E5D914F50EE5D95403F50F601CEE248299
:101D4C00F50CEF3400F50D7403650F6058E50E606B
:101D5C0013EE2467121C88700B793DEEFAEFFB1220
:101D6C000B8E80A6900540E064016026850C828570
:101D7C000D83E06004780480027800850E08E50885
:101D8C00C398FA95E0FB120A028A088B09EA450906
:101D9C007006120DE6021D16850C82850D83E0700F
:101DAC00048A0A8B0B78008016E5D9C0E08812E50E
:101DBC000A2512F582E50B3400F583D0E0F008E833
:101DCC00C3950E40E4850C82850D83E0602874FC7D
:101DDC00250EF50E780A121A19AC0EA90FEEFAEFB1
:101DEC00FB120C3C74021217ACE9700AAA08AB097E
:101DFC001212D2021D657403650F6058850E0C75A6
:101E0C000D00780C121A19AC0AAD0BAA08AB09120A
:101E1C000C0074021217AC851082851183E0F874E3
:101E2C0080687005750C7F8002880CE50CF50A78CB
:101E3C000A121A1DE50FF50A780A121A1DA90EAC22
:101E4C0008AD099003D0E0FA7B0012089A740212D4
:101E5C0017AC80139003A2E06408600BAC0AAD0BC6
:101E6C00EEFAEFFB120CD2120DF279017F0C021973
:101E7C001E74F312187274FC121796EAFEEBFF89AB
:101E8C0008A2AFE433F509C2AFEE2463F50AEF34D0
:101E9C0000F50B8010AA0AAB0B120BB81212D290E1
:101EAC0004E3E004F0850A82850B83E0F8A3E0F9F3
:101EBC00E849602FE82402FAE93400FBEA2402F531
:101ECC000CEB3400F50D780C121A198A828B83E016
:101EDC00FCA3E0F9EEFAEFFB120BAC74021217AC98
:101EEC00E960B29004E3E060579004E4E0F89004F9
:101EFC00E3E0C398500C7402650870449004E5E06C
:101F0C00603E8E828F83A3A3A3A3E08518828519DC
:101F1C0083121F5C74021217E2E8121F5C9004E239
:101F2C00E028F074021217E2AC82AD83851882852A
:101F3C001983AA82AB8379011208A69004E3E4F01A
:101F4C00E509A2E092AF74041217AC7F0602191EC9
:101F5C00F0A3E4F09004E3E0F822000085218785EB
:101F6C0022C622C0E074EF12195EA2AFE433FEC2A7
:101F7C00AF759B00906182E0A2E05012E591A2E067
:101F8C00500C7591FE740165217003121CD8E0A2EF
:101F9C00E55051E591A2E5504B7591DF9003A2E01D
:101FAC0064076005E064087023740165217035795D
:101FBC00019003D0E0FA75F003A4CAA8F028FB74D2
:101FCC00D22AFA74033BFB121E7D8018E0640D705C
:101FDC00139003C4E004F064287002E4F07A00E08B
:101FEC00F9120DF8906182E0A2E64003022096E51A
:101FFC0091A2E640030220967591BF9003A2E06483
:10200C00057008120D14120D208003120D1A752183
:10201C0000120D86E99003A3F07900120D7A120AD2
:10202C00D47A017B009003A1E0F912104A90780356
:10203C00E064427055900544E014F0704DC2AF124C
:10204C00204E00782AD0E0F618D0E0F6E59F540731
:10205C0070057509FF800375097FC4C0E07829E617
:10206C00F50808E65509F509740B7808121774D0B1
:10207C00E02508F8906270E0A2E740F8E8C33390DE
:10208C006272F0906270E0D2E0F0906181E0A2E3C5
:10209C005009E5E9A2E3500375E9F7A3E0A2E75084
:1020AC0009E591A2E7500375917FEEA2E092AF7F14
:1020BC00040219BDC0E0C0D0C082C083906183E02F
:1020CC00A2E05009E5BFA2E0500375BFFEE0A2E11B
:1020DC005009E5BFA2E1500375BFFDE0A2E2500933
:1020EC00E5BFA2E2500375BFFBE0A2E35009E5BFD8
:1020FC00A2E3500375BFF7E0A2E45009E5BFA2E4E8
:10210C00500375BFEFE0A2E55009E5BFA2E550030F
:10211C0075BFDFE0A2E65009E5BFA2E6500375BF2C
:10212C00BFD083D082D0D0D0E032C0E074F212198C
:10213C005EE5A7A2E4500FE5A1A2E4500953A7EF76
:10214C0075A1EF12218AE5A7A2E5500CE5A1A2E545
:10215C00500653A7DF75A1DFE5A7A2E15009E5A161
:10216C00A2E1500375A1FDE5A7A2E2500CE5A1A2E6
:10217C00E2500653A7FB75A1FB7F010219BD74F851
:10218C001218727521019003A2E0640670077A00A0
:10219C007B00120CFCA2AFE433FED2AF9003A8E09C
:1021AC00640170187A207B009003A1E0F91210E60C
:1021BC007A207B009003A1E0F9121050906182E02C
:1021CC00D2E6F0900541E0602185C622801690038E
:1021DC00A7E064017008E5C654F84405F5C653BE83
:1021EC00FC121F687401652160E4EEA2E092AF7FDF
:1021FC000102191E8E238F2485822885832785183A
:10220C0082851983E0CEA3E0CF852882852783EBD6
:10221C00C9EAC8EDCBECCA75F010C3E833C8E93392
:10222C00C9EA33CAEB33CBC3EA9EF526EB9FF525FF
:10223C00B35004AB25AA26EC33CCED33CDD5F0DA74
:10224C00AE23AF242274F11218728A088B098C0AFF
:10225C008D0B90935E7808121628740F1217E27883
:10226C000C12164E90935E780C1216287808790C86
:10227C0012146190933250107808790C1216007871
:10228C00081214814014800E780C7908121600780C
:10229C000C12148150047901800279007F08021914
:1022AC001E74ED1218728A088B098C0A8D0B909390
:1022BC005E780812162874131217E2780C12164E58
:1022CC0090935E780C121628780C790812146140E1
:1022DC00117808790C121600AA08AB09AC0AAD0BE0
:1022EC00802275100075110075120075130178109D
:1022FC00790C121600781079081215C7AA10AB11B8
:10230C00AC12AD137F0C02191E90935E7808121656
:10231C004E8A828B83780812163B7F0402191E7436
:10232C00F51218728C828D83780812164E8A828B65
:10233C0083780812161412237FC3E098F0A3E09957
:10234C00122371401E909396780812164E8A828B37
:10235C008378081215ED8E828F83E02420F0A3E0A1
:10236C00344EF080A4F08E828F83C3E09420A3E0DF
:10237C00944E22EA2404F8EB3400F9E8FEE9FF8CD1
:10238C00828D83A3A3A3A3E0F8A3E0F98E828F83AD
:10239C002274F5121872E9FE9004F7E0FAA3E0FB40
:1023AC00EEC333F8E433F9740E28F582749239F5E0
:1023BC0083E02AF508A3E03BF5097808121A199076
:1023CC0093AE12166C12220074021217AC8A088B90
:1023DC00098C0A8D0B7410780812158FAA08AB099A
:1023EC007F0402191E74F11218728A0C8B0D8C0E5C
:1023FC008D0F740F1217E2E0FAA3E0FB74111217A1
:10240C00E2E0F508A3E0F5097808121A19EA2401AC
:10241C00F508EB3400F509E4F50AF50B780C7908AE
:10242C001214A090939E780812164E780C7908120C
:10243C0014A0AA0CAB0DAC0EAD0F1222007402123C
:10244C0017AC8B09EA450960047A0180027A00EC2A
:10245C002AFCED3400FD74131217E2E0F8A3E0F946
:10246C00E8FEE9FFECF8EDF97A717B0212170B88A4
:10247C00088909E4F50AF50B8E828F837808121609
:10248C005DECF8EDF97A717B0212170B8A088B0957
:10249C00740578081217838E828F83A3A3A3A3E5F8
:1024AC0008F0A3E509F07F0802191EC082C083E979
:1024BC00906000F0D083D08222C2AF02000022C014
:1024CC00E074F212195EA2AFE433FED2AFC2C0E5E3
:1024DC00D1A2E4500653D1EF1212B4EEA2E092AFA7
:1024EC007F010219BDC0E074F212195EA2AFE43391
:1024FC00FED2AFE589A2E15003121224758900C205
:10250C00C5EEA2E092AF7F010219BDC0E074F212D9
:10251C00195EA2AFE433FED2AFE58BA2E0500312FA
:10252C001224758B00C2E880D8C0E0C0D0E8C0E0AF
:10253C00E9C0E0E5A8D2AFC2C7A2E7A2E792AFD04C
:10254C00E0F9D0E0F8D0D0D0E032C0E0C0D0E8C0A4
:10255C00E0E9C0E0C008C009C082C083A2AFE43388
:10256C00F9D2AF9009D3E0F8A3E0687008539AFB56
:10257C00A374018025C2E99009D3E0F50874012504
:10258C0008F074532508F582E43409F583E0F5C1AD
:10259C009009D3E0C394804002E4F0E9A2E092AF4A
:1025AC00D083D082D009D008D0E0F9D0E0F8D0D0D8
:0325BC00D0E0323A
:1025C000FFFFFFFFFFFFFFFFC082C083E9900E5AAD
:1025D000F00227F274F7121806E99002E1F07C1974
:1025E0007D037AFF7BFF1207E69002E274FFF0A3FF
:1025F000F0A3E4F0A3F079051207749002E1E0F98A
:102600001206967AFE7B071209B47F010218D8746D
:10261000F41218068A088B09EB548060309002E1AE
:10262000E0F91210328A0A8B0BAE0AAF0BEE4F6044
:10263000138E828F83E064B07003120786EEFAEF88
:10264000FB121020AA08E5096480FB80047A007B55
:10265000000227C174F212180674FC121796EAFEE3
:10266000EBFFEE4F603874021217E2EEF0A3EF12A8
:102670002A26ECF0A3ED122A26AA82AB831206903A
:10268000E9F508707374121217E21235DAE50A459B
:102690000B60658E828F83122702EE4F70057508DE
:1026A0000280557A067B0012109E8A0C8B0DA80CB6
:1026B000A90DE8497005750813803D88828983E477
:1026C00012270CA3A3EEF0A3EF123A73E50AF0A3CE
:1026D000E50BF09002E71227949002E76017E0FC08
:1026E000A3E08003EAFCEBFD8C828D8312279470BB
:1026F000F38C828D831234FFA90874041217AC0284
:102700003C75A3A3A3A3E0FEA3E0FF22F0A3F088FF
:102710008289832274F2121806890AE975F017A4D7
:10272000FEAFF09002E6E4F09002E4122794600A13
:102730001210A49002E4E4F0A3F0EEFAEFFB121002
:102740009E8A088B09EA4509602FEEFCEFFD7900AF
:1027500012100E9002E4E508F0A3E509F07B00807A
:102760000812277EE4F0A3F00BEBC3950A40F2E5D4
:102770000A9002E6F0790080027913023C75EB754D
:10278000F017A4F8A9F09002E4E028FAA3E0398A4F
:1027900082F58322123295EA4B2274F412180679DC
:1027A00000EAA2E0501B75080A7509937808121A0E
:1027B000197C047D007A5C7B0E12076E740212177E
:1027C000AC7F040218D8C082C0839002E71227F9B8
:1027D000601C88828983A3A3E06A7003A3E06B88EE
:1027E00082898370E8A3A3A3A312329180047A00A4
:1027F0007B00D083D08202011F123D48E849227439
:10280000EE12180674FC121796EAFEEBFF8518828A
:10281000851983E4F0A3F0EE24021234E3EE2405DC
:10282000122A14EE2404F50EEF122DF9E024FE60B6
:102830003924FC604624FE605224FE605E24FE7053
:102840000302291924FE700302299124FE70030259
:1028500029A024FE70030229AF24FC70030229BEC4
:1028600024FE70030229CD022A0A9003007417F097
:10287000A3E4122A2E12040E022A0A851882851950
:1028800083AC82AD8312078C0229DA851882851900
:1028900083AC82AD831207920229DA850C08850D7C
:1028A0000974021217E2AC82AD8385088285098320
:1028B0001232911206B48A0C8B0DAC0CAD0DEC4D9E
:1028C0006042E4F50CF50D780C121A19750C0075C0
:1028D0000D03780C121A19750C01750D03780C1282
:1028E0001A1974081217E2121A30791612328B1262
:1028F00007CE74081217ACE9F50C700B1232871270
:102900000426800F750C01850882850983122A1C14
:102910001234FF850C080229DD74021217E2AC8222
:10292000AD83850C82850D831232911206B48A1014
:102930008B11AC10AD11EC4D6043850C82850D837D
:10294000A3A3121A307510007511037810121A190A
:102950007510017511037810121A1974081217E214
:10296000121A30791612328B1207CE74081217AC75
:10297000E9F509700B12328712042C800F750901DA
:10298000850C82850D83122A1C1234FF850908806C
:102990004C851882851983AC82AD83120798803AE2
:1029A000851882851983AC82AD8312079E802B85A2
:1029B0001882851983AC82AD831207A4801C851808
:1029C00082851983AC82AD831207AA800D85188297
:1029D000851983AC82AD831207B0E9F508E508607C
:1029E000298E828F83A3E06414601F850E82850F79
:1029F00083E0900300122A26123D44900301123412
:102A0000FFE508A3122A2E120408EEFAEFFB1207C4
:102A1000320233EBF50CEF3400F50D22123D488500
:102A2000188285198322F085188285198322F07C0B
:102A3000007D03850A82850B831232952274EE1283
:102A4000180674FC1217968A0A8B0B8C0E8D0FEAEF
:102A50002405F508EB3400F5097C157D0079007A32
:102A6000007B0312100EE5082402F50CE509122A7A
:102A70001785188285198385821085831178101235
:102A80001A19850882850983A3A3A3A3122F4112D3
:102A90001A19E5082405F510E5093400F511781038
:102AA000121A19850C82850D8312329B1206AE74A0
:102AB000061217AC8A108B11AE10AF11E50A240272
:102AC000F50AE50B1234E6EE4F7003022C03801773
:102AD00074021217E212329188828983EAF0A3EB22
:102AE000F0900300E004F0900300E0C3940540037D
:102AF000022C03E4F510F5117810121A197510E97B
:102B00007511027810121A197510EA7511027810F1
:102B1000121A1974061217E2121A307910EEFCEF2D
:102B2000FD12328B1207CE74081217ACE9705E8565
:102B30000882850983A3A3A3A3A3A3A3E0F890021B
:102B4000E9E0687048122F41121A197CEA7D02E50B
:102B5000082408FAE5093400FB1210087402121761
:102B6000ACE960298E828F83A3A3A3A31232919034
:102B70000300E0F510740278101217837401251019
:102B8000F58274033511F583EAF0A3EBF0740212B9
:102B900017E28582108583117810121A19740212B7
:102BA00017E2121A30850C82850D83123D591206E8
:102BB000BA74041217AC8A108B11AE10AF119003C7
:102BC00000E0F5107511007402781012178374007C
:102BD0002510F874033511F988828983A31227948C
:102BE0007003022AC7E82403F8E93400F9EE4F60C5
:102BF00003022AD08882898374FFF0A3F090030037
:102C0000E004F0900300E0600A12328712041A799F
:102C100000800B8508828509831234F6790A023315
:102C2000EB74EA12180674FE1217968C128D13EAD2
:102C30002405F50CEB123D63122706750800750993
:102C400000EA2402F510EB3400F51185188285198D
:102C50008385820A85830B780A121A19850C82856E
:102C60000D83A3A3A3A3122E03121A19E50C2405A6
:102C7000F50AE50D1234E6780A121A19850C8285D8
:102C80000D83123D571206AE74061217AC8A0A8BDA
:102C90000BEA450B7003022DB4EA2404F50EEB1287
:102CA0002DF91227068A828B83A3A3A3E0F985104E
:102CB0008285118312329112069CE9F509600302A4
:102CC0002DB4E4F514F5157814121A197514E97574
:102CD00015027814121A197514EA7515027814126F
:102CE0001A1974061217E2121A307913AC0AAD0BD6
:102CF0008510828511831232911207CE7408121743
:102D0000ACE9F5096003022DB49002E9E0F8E508AA
:102D10007009E02402900301F08017900301E0FCA9
:102D2000E82402FAE43400FBEA6C7001EB60030271
:102D30002DB8850882AA82122F389414122F305091
:102D400073850E82850F83E0C0E074022A122DF095
:102D5000D0E0F00508850E82850F83A3E0C0E085F2
:102D6000080A7402250A122DF0D0E0F0050890023E
:102D7000E9122E03121A197CEA7D0285080A7402F0
:102D8000250AFA74033400FB120FF674021217AC12
:102D90009002E9E02508F50874FF6E700374FF6F78
:102DA0006012EE24010EEF3400FFE508C3941450C6
:102DB00003022C4BE508601312317C8510828511CB
:102DC0008312329112042079008014E50970037592
:102DD000090A851282851383EEF0A3EFF0A9097426
:102DE000021217AC7F0E0218D885080C7402250C4D
:102DF000F58274033400F583223400F50F850E82CA
:102E0000F58322123A862274EE12180674FE121707
:102E1000968C0E8D0FEA2405F50CEB122A17750B14
:102E200000900300E4F0F50AEA2402F508EB340010
:102E3000F5098049900300E0FA9002E9E0F8122FCA
:102E4000389417122F30400D900300E0F87416C329
:102E5000989002E9F0122F41121A197CEA7D02744F
:102E6000012AFA74033400FB120FF674021217AC35
:102E70009002E9E0F8900300E028F0050AE50C2450
:102E800016F582E50D122DF4E0F8E50AC39840032B
:102E9000022F19900300E0C39416507DE50AC33356
:102EA000F8E433F9E50C28FEE50D39FF8518828535
:102EB0001983AC82AD838E828F831232911206B455
:102EC0008A108B11AC10AD11EC4D7005750B0180A3
:102ED00043E4F510F5117810121A197510E97511FF
:102EE000027810121A197510EA7511027810121A68
:102EF0001974061217E2121A3079168508828509AC
:102F0000831232911207CE74081217ACE9F50B70D8
:102F100003022E341234F280107C007D0385088277
:102F2000850983123291120432A90B74020233ED27
:102F3000E99400C365D03322EA28F8E43400F9E8C4
:102F400022E0F51075110078102274EA1218067448
:102F5000FC1217968A0C8B0D8C128D13EA2405F542
:102F60000AEB1234E6750800750900E50A2402F53B
:102F700010E50B3400F51174021217E285820E85FC
:102F8000830F780E121A19850A82850B83A3A3A3D7
:102F9000A3123A32121A19E50A2405F50EE50B348C
:102FA00000F50F780E121A198510828511831234DC
:102FB000EC12328B1206AE74061217AC8A0E8B0F0F
:102FC000AE0EAF0FE50C2402F50EE50D3400F50F43
:102FD00080408882898374FFF00508122DE974FF10
:102FE000F005089002E9E0F50C750D00780C121A56
:102FF000197CEA7D0285080C7402250CFA740334EE
:1030000000FB120FF674021217AC9002E9E02508DB
:10301000F508EE4F60718E828F83A3A3A3E0F9853C
:103020000E82850F8312329112069CE9F509EE2477
:1030300004122A14E97044E4F514F5157814121AF0
:10304000197514E97515027814121A197514EA75B0
:1030500015027814121A1974081217E2121A30792C
:1030600011EEFCEFFD850E82850F8312329112075F
:10307000CE74081217ACE9F5096027850C82850D1E
:10308000831231721234FFE5087003023158123195
:103090007C850E82850F83123291120438790002EA
:1030A000316D850882AA82EA9002E97009E0240461
:1030B000900301F08022E0F8900301E0F514E82489
:1030C00004FCE43400FDEC65147001ED70C0122FB7
:1030D000389412122F3050B6850C82850D83E0C0D3
:1030E000E074022A122DF0D0E0F00508850C8285EC
:1030F0000D83A3E0C0E0122DE9D0E012318E85826D
:103100000C85830D780C121A1974041217E2121A26
:1031100030851082851183123D591206BA7404124B
:1031200017AC8A0C8B0DAE0CAF0D85080C74022504
:103130000CF874033400F9EE4F7003022FD2851897
:1031400082851983E08882898312318EA3E0C0E0F2
:10315000122DE9D0E0022FE0E509700375090A8518
:103160000A82850B831231721234FFA9097404029A
:103170002DE1123D4885128285138322900301E0E0
:10318000F5F0E50884900300F07C007D0322F00553
:10319000088518828519832274EC12180674FE12B1
:1031A00017968A088B098C0E8D0FEA2405FEEB34E6
:1031B00000FF851882851983AC82AD838E828F8350
:1031C0001232911206B48A0A8B0BEE2418122A14BA
:1031D000EA450B70030232621233D45032851882F2
:1031E0008519831232911207C28A108B11EA451198
:1031F000606B7912AC0AAD0B8508828509831232A7
:1032000091851082851183121804E9F50A7058E43B
:10321000F50AF50B780A121A198E828F83A3A3E0A0
:10322000F50A780A121A19EE24031234E3780A1206
:103230001A198E828F8312329B1207D474061217CA
:10324000ACE9F50A7021850C82850D83E0701F853D
:10325000088285098312329112043E8011750A0E8C
:103260008009750A018004E50A60031234F2850CB6
:1032700082850D83E0600479008002A90A7402123D
:1032800017AC7F0C0218D87C007D03850A82850B61
:103290008312329522E0FAA3E0FB22E0FCA3E0FDDA
:1032A0008508828509831232952274EE12180674FD
:1032B000FE1217968A088B098C0C8D0DEA2405FEE8
:1032C000EB3400FF750E00851882851983AC82AD42
:1032D000838E828F831232911206B48A0A8B0BEA94
:1032E000450B70030233C01233D4503585188285E4
:1032F00019831232911207C28A0E8B0FEA450F60B2
:103300005E7912AC0AAD0B85088285098312329171
:10331000850E82850F83121804E9F50E60030233CF
:10332000C38508828509831235DAAA0AFB1207B61B
:103330008A108B11A810A911E849701E7AFF7BFF33
:103340001207B68A108B11A810A911E849606C8881
:10335000828983E50AF0A3E50BF0750A0080077502
:103360000E0E805F050A9002E6E0FAE50AC39A5065
:103370004AE50A75F017A4FAABF088828983A3A303
:10338000E02AFAA3E03BFB8A828B831234ECEC4DFB
:1033900070D2750A17750B00780A121A19EEFCEF35
:1033A000FD120FF674021217ACEEFCEFFD850882D9
:1033B0008509831232911204448014750E0980032A
:1033C000750E01123D40850C82850D831234FFA9D4
:1033D0000E022F2BE5082402F508E5093400F50953
:1033E0008A828B83A3A3A3E0A2E52274041217AC04
:1033F0007F0A0218D874EC1218068C108D11EA247A
:1034000005F50CEB122A17750F00EA2402F50AEBFA
:103410001234E6850A82F5831232911207B68A08C1
:103420008B09EA450970030234D8750E0080718556
:103430000C82850D83E06401704F8E828F83A3A37D
:10344000121A308E828F83A3A3A3A3E0F512751303
:10345000007812121A19EE2405F512EF3400F51354
:103460007812121A1912328B1207D474061217AC82
:10347000E9F50F6014850C82850D83E4F0123D4060
:103480008510828511831234FF7C177D007900EE50
:10349000FAEFFB12100E8E828F83E4F0A3F0050E7C
:1034A0009002E6E0F8E50EC398501EE50E75F017A1
:1034B000A4F8A9F0850882850983A3A3123D6D12A3
:1034C00034ECEC4D600302342F8508828509837447
:1034D000FFF0A3F0E50F700612328B12044AA90F19
:1034E000023282F50AEF3400F50B22A3E0FCA3E0E0
:1034F000FD228E828F83123D48850E82850F83E8E0
:10350000F0A3E9F022C082C0839002E2E06A700377
:10351000A3E06B70067AE27B0280047A007B0002F3
:1035200027F2C082C08378008C828D83E06A7003AA
:10353000A3E06B7010E875F003A4F8A9F0EC28FA8A
:10354000ED39FB8015088C828D83A3A3A3E06A70FC
:1035500003A3E06B60DF7A007B000227F274F612AF
:1035600018061207808A828B83E582458370067A6B
:10357000007B008007A3A3A3A3123291023BF17446
:10358000F2121806E9FE740E1217E21235DA741000
:103590001217E2123A528C828D83E064027036A3D5
:1035A000123D4EF50CA3E0F9A80C74026870037488
:1035B00029697021750C02750D00780C121A1978A2
:1035C00008121A19780A121A19EEF91207F8740675
:1035D0001217AC80027901023C75E0F50AA3E0F510
:1035E0000B2274E812180674FB121796E9851882EC
:1035F000851983F08A168B17ECFEEDFF75100074A9
:103600001D1217E2123D44741D1217E21234FF8E90
:10361000828F83A3A3A3E0A2E4502D741D1217E2AE
:103620001232911207C28A828B83E582458370032E
:10363000023A23790AEEFCEFFDAA16AB1712180422
:10364000E9F5106003023A26741F1217E2123A528B
:1036500074211217E21235DA74231217E2E0F50E24
:10366000A3E0F50F8E828F83E0640260030239D1FC
:10367000A3123D44850882850983A3858212858330
:1036800013EE2406122A1488828983E0FAA3E0F953
:10369000EA2400F514E439F5157814121AA3010090
:1036A00000280128C636070002288B370328F83681
:1036B0000029C2380129ED3802298E380329C23881
:1036C00004296C39D139E50E450F60030239CC85E8
:1036D0000C82850D83123A47FAE9FB8A828B83E0DC
:1036E000850A82850B83123A7D121A198A828B838E
:1036F000A3E0FCA3E0023956E50E450F6003023952
:10370000CC850A82850B837401F0123A5A850882AF
:10371000850983F07C007D008E828F83A3A3A3A301
:10372000E02401FAA3E03400FB1206B4EA4B604146
:103730008A828B83E02402F8850A82850B83E02845
:10374000F0EA2404F8EB3400F988828983E08512DA
:1037500082851383123A8F123A7D121A198A828B4C
:10376000831234EBE5082403FAE5093400FB02393F
:103770005B850A82850B83E02404F07C047D00795C
:1037800000AA12AB1312100E023A26E50E450F6086
:10379000030239CC123A5AFEA3E0FF850A82850B58
:1037A000837404F0EE850882850983F0EF85128228
:1037B000851383F074031217E2AC82AD83EEFAEF47
:1037C000FB1206B48A0C8B0DEA450D700302386FAC
:1037D0008A828B83A3A312270274011217E28582C7
:1037E0000E85830F780E121A1974051217E2121A39
:1037F000307CFF7DFF1206BA74041217AC8B0FEAFF
:10380000450F7033850C82850D83123A32121A19D6
:10381000850C82850D83A3121A307C027D007AC646
:103820007B931204E674041217ACE9700A74011257
:1038300017E274FFF0A3F08E828F83E06402703988
:10384000750C02750D00780C121A198E828F831276
:1038500034EBE5082404FAE5093400FB120FF67492
:10386000021217AC850A82850B83E024028009745A
:10387000011217E2EEF0A3EFF074011217E2123A10
:1038800043F074011217E2A3123A3B0239C6E50E67
:10389000450F60030239CC850C82850D831234EC10
:1038A000AA16AB171207EC850A82850B837402F007
:1038B000EA850882850983F0851282851383EB02ED
:1038C00039C9E50E450F60030239CC123A5AF8A304
:1038D000E0F9850A82850B837402F0E88508828509
:1038E0000983F0E98512828513830239C9850C8228
:1038F000850D83123291120FF0EAFC8C82A882C3EC
:10390000950EE4950F405FE8650E7002E50F7004B8
:103910007C008022851882851983E0FAE50E2AFA58
:10392000E50F3400FBC3EA98EB94005003E08005F8
:10393000E50ECCC39CFCEC850A82850B83F08C0AD7
:10394000750B00780A121A19850C82850D83E02503
:103950000EFCA3E0350FFDAA08AB09120FF67402A6
:103960001217AC023A26751007023A26E50E450FEB
:10397000705A850C82850D83123D44850A82850B21
:1039800083740712270E123A3B12270EA3E085120A
:1039900082851383F0E82402FAE93400FB8A828BE3
:1039A00083123A3B123A6A123A43A3123A73123A1A
:1039B0004CF0E82405F8E93400F988828983123A4A
:1039C0004CA3123A8FA3A3A3A3F0805A75100B80C7
:1039D00055741D1217E21232911207808A828B836E
:1039E000E5824583603D123D44880C890DE8450D14
:1039F0006031780E121A19780A121A197808121AF8
:103A00001974061217E2E0F9EEFCEFFDAA16AB17E7
:103A1000850C82850D8312180474061217ACE9F523
:103A200010800375100EA91074051217AC7F1002D8
:103A300018D8E0F50E750F00780E22E08508828513
:103A4000098322123A9922123D48E822123A99A398
:103A5000A322E0F508A3E0F50922850C82850D83F9
:103A6000E0F8A3E0F5838882E022A3A3F08A828BAA
:103A700083A322F088828983A3A3A3A322F08A824E
:103A80008B83123A8622E0F50A750B00780A22F041
:103A900088828983A3123A9922E085088285098366
:103AA000A3A32274EE12180674FE1217968A0A8BCC
:103AB0000BECFAEDFB74141217E2E0F510A3E0F53D
:103AC0001174161217E2E0FE74181217E2E0F50EF8
:103AD000A3E0F50F851882851983AC82AD831206A9
:103AE000B48A0C8B0DEA450D6049851882851983CF
:103AF0001232911207808A828B83E5824583602F80
:103B0000A3A3123A52E50845096024780E121A1947
:103B10007810121A19EEF9AC0CAD0DAA0AAB0B8590
:103B2000088285098312180474041217AC80067980
:103B30000E80027901022F2B74F612180674FE1201
:103B40001796740C1217E2123A478518828519836A
:103B5000F074011217E2E9F0E4F508F509780812AB
:103B60001A197508027808121A1974041217E285D6
:103B700082088583097808121A191207D47406126C
:103B800017AC74021217AC806874F7121806EAFEBC
:103B9000EBFF89087C197D031207ECEA5402600BE5
:103BA000A908EEFAEFFB1206A88002790102260AA4
:103BB00074F612180674FF6A700374FF6B70168C2B
:103BC000828D83123BF6E4F08C828D83A3A3A31233
:103BD0003BF6A380181207BC8A088B09A808A9091C
:103BE000E849600D8882898374FF12270CA3A3E43F
:103BF000F07F020218D874FFF0A3F08C828D83A3AB
:103C0000A32274F61218061207BC8A828B83E582FF
:103C100045836006A3A3E0FA80027A007B0080D18E
:103C200074F21218068A088B09ECFEEDFF740E126E
:103C300017E2E0F50A1207BC8A0C8B0DA80CA90D3F
:103C4000E8497026EEFCEFFD7AFF7BFF1207BC8A85
:103C50000C8B0DA80CA90DE8497004791180168809
:103C6000828983E508F0A3E509F088828983A3A30C
:103C7000E50AF079007F060218D874EE121806EAF9
:103C8000FEEBFF8C088D09890C74141217E2123DAB
:103C90004474161217E2123291750D00E849600360
:103CA000023D387402650C6003023D337412121732
:103CB000E2123D4EFCA3E0F9EC2400F50EE439F5E8
:103CC0000FEAF4F8EBF4F9EC58F8E50F59F9E84984
:103CD000705CE5082406F8ED3400F9880A890B8841
:103CE00082F583123D591207EC8A108B11E50E659F
:103CF000107004E50F65116042780E121A19850ADA
:103D000082850B83123D591207F274021217ACE937
:103D1000F50D7027780E121A19850882850983A37C
:103D2000A3123D5712080474021217AC800D750DD2
:103D3000808008750D0D8003750D0BA90D0233F001
:103D40008E828F83123D4822E0F8A3E0F922123DD3
:103D50004888828983E022A3A3E0FCA3E0FDEEFA79
:103D6000EFFB223400F50D850C82F58322E028FE5E
:103D7000A3E039FF8E828F832274F2121806EAFEC6
:103D8000EBFF890B7401650B600E7402650B706AA2
:103D900079011209D2E97062EEFAEFFB1207B68AD6
:103DA000088B09EA45096047750A00800B7C177D7E
:103DB00000790012100E050A9002E6E0F8E50AC349
:103DC000985021E50A75F017A4F8A9F085088285B6
:103DD0000983A3A3E028FAA3E039FB8A828B83122C
:103DE00027F970C985088285098374FFF0A3F07CE8
:103DF000197D03EEFAEFFB1207E6023C7574F2122E
:103E000018068A088B09ECFEEDFF740E1217E212F9
:103E100035DA900E5AE0F4603D7A097B0012101AF0
:103E2000EA4B60328A828B8374B1F0A3E4123A6C5D
:103E3000A3123A6AA3E508F0A3E509123E59EEF091
:103E4000A3EF123E59A3A3E50AF0A3E50BF0900EF1
:103E50005AE0F9121026023C75F08A828B83A3A3E4
:103E6000A3A3A32274F012180674FA1217968908F5
:103E7000ECFEEDFF7509008A0A8B0B780A121A5DB9
:103E80000004108C40A73EC53EDF3EF73E153F2D97
:103E90003F503F683F7C3FA63F234034404B406645
:103EA000408C408C40BC3F74016508600302408731
:103EB0008E828F83E0F8C394034003024087E8902A
:103EC0000F460240637402650860030240878E82D9
:103ED0008F83124834900F47E8F0A3E902406374DF
:103EE00001650860030240871240B4400302408726
:103EF000E89007660240637401650860030240872A
:103F00008E828F83E0F8C394054003024087E890D7
:103F1000076702406374016508600302408712402E
:103F2000B44003024087E89007680240637410655C
:103F3000086003024087750A10750B00780A121A90
:103F4000197A697B07120FF674021217AC0240ADA2
:103F50007401650860030240871240B440030240C8
:103F600087E89007790240637401650860030240A6
:103F7000878E828F83E0900F4A0240637404650845
:103F800060030240878E828F83780C12164E9093C6
:103F9000AE780C121481500302408790077B780C96
:103FA00012165D0240ADE96003024087120654E933
:103FB0007005121188805690080E8063740765089A
:103FC0006003024087750A06750B00780A121A19F9
:103FD0008E828F83A3AC82AD8374021217F4120F0A
:103FE000FC74021217AC7C007D00AA18AB198E82FB
:103FF0008F83E0F9121134E9F50AC3940A400302F1
:1040000040AA120654E9700CA90A12118E795012B6
:104010001350806E740F250AF582E43408F583741A
:1040200001804074016508705E1240B45059E890F8
:10403000077A802F74016508704D8E828F83E0F8B7
:10404000C3940A5042E8900F4980187401650870C3
:10405000368E828F83E0F874F928C3940A5028E8DA
:10406000900F4BF0804774016508701B90080DE0BD
:10407000F88E828F83E090080DF0E87030E06401E4
:10408000702B12117C80267509188021C3EA9427B1
:10409000EB9400501574026508700F8E828F8312A6
:1040A0004B571204F2E9F5098003750902A9097456
:1040B000060244948E828F83E0F8C3940222740E29
:1040C0001217AC7F040218D874F012180674B112DB
:1040D00017968C0E8D0F90931674201217FC740691
:1040E0001216A974201217FC121134E9F50B745F33
:1040F0001217E2E0F50CE9C3940A40030242467548
:10410000F006E9A4F50974411217FC7A0E74202513
:1041100009F912134AE97009744D1217E2E0FE80A2
:10412000027E00900F46E06402700575080180036E
:104130007508007408650C700474228002742125CF
:1041400009FF7C1B7D00790074261217F412100EF3
:10415000EEA2E0E433F50A74261217FC7A1BEFF99D
:1041600012134AE9702574401217E2E024F9C3944F
:104170000A50187808121A1D74271217FCA90AAAE7
:104180000EAB0F12059474011217AC7C147D0079EC
:1041900000740C1217F412100E740C1217FC7A1023
:1041A00074242509F912134AE970307C1079FF74E0
:1041B0000C1217F412106EE97021741C1217E2AC85
:1041C00082AD837A0474252509F912134A740C12FE
:1041D00017FCA90AAA0EAB0F12057CAC18AD197A10
:1041E0000C7470250BF912134AE97049AA18AB191F
:1041F0001211647F00EF75F003A4F8A9F08518820E
:10420000851983E58228F8E58312495C124B5160D9
:104210001D88828983A3A3E0F50875090078081238
:104220001A19AA0EAB0F1207DA74021217AC0FEFAD
:10423000C3940440C0EEA2E1500C900765E0F9AAD7
:104240000EAB0F1207E07404650C7027900F46E068
:104250006402701F7A00900779E060010A90076697
:10426000E06004780480027800E84AF9AA0EAB0FF7
:1042700012063C7900744F02449474F112180674CB
:10428000F01217968A0C8B0D8C088D097E0AE96056
:104290000C14600914603A146075024360121176C0
:1042A000E9FEC3940A4003024360E5084509700330
:1042B000024360750A06750B00780A121A19AC0CD5
:1042C000AD0DAA08AB09120FF674021217AC024327
:1042D000607F00750A06750B00780A121A19AC0C7B
:1042E000AD0DEF75F00EA4F8A9F0748728FA7407E5
:1042F00039FB12100874021217ACE970090FEFC3F2
:10430000940A505C80CDEFFEC3940A505380427FE4
:1043100000AC18AD197A1075F006EFA42423F91239
:10432000134AE9701C7C1079FFAA18AB1912106EA1
:10433000E9700EAC0CAD0DAA18AB1912055EE96060
:10434000090FEFC3940A501880C7EFFEC3940A50B8
:104350000FE50845096009AA08AB09EEF9121170CA
:10436000EEF974101217AC7F070218D874F4121803
:1043700006E9FF7E1574FF6A700374FF6B70287581
:104380000800EFFC7A027B00A908121152E96002D2
:104390007E000508E508C3940A40E7EF604E7AA066
:1043A0007B111209E480451209C68A088B09EA4587
:1043B0000960387C007D00EA2405FAE43509FB85B4
:1043C0000882850983A3A3A3A3E0F9121134E9C3EA
:1043D000940A500BEFFC7A027B001211527E00EF20
:1043E000600AAA08AB091211A080011EEEF9024072
:1043F000C374F21218068C088D097E15740E1217FC
:10440000E2E0F50AA3E0F50B74FF6A700374FF6B3A
:10441000701D7F00AC0AAD0BAA08AB09EFF91211B1
:1044200058E960027E000FEFC3940A503B80E5120A
:1044300009C68A828B83E5824583602B7C007D00E0
:10444000E5822405FAE43583FBA3A3A3A3E0F912D4
:104450001134E9C3940A5010AC0AAD0BAA08AB0999
:104460001211587E0080011EEEF97F060218D8C096
:1044700082C08390077FEAF0A3EBF0900765E0FC31
:104480007D007A267B001204F2900765E0F912079E
:104490005C024F571217AC7F080218D874F012183C
:1044A0000674EC121796EAFEEBFFEE240CF50CE412
:1044B0003FF50DEE2405F50EE43FF50FEE2409F56A
:1044C0000AE43FF50BEE2403F508E43FF5098E827C
:1044D0008F83A3A3E024FA700302475824FD7003DE
:1044E00002467614700302457314601024FD7003B5
:1044F00002464D1470030246AD0247AF1252596096
:104500004AE0F5838882E0F50EA3E0F50FE50E455D
:104510000F6038850C82850D83E0F50C780C121A3B
:104520001DEE240BF582E43FF583E0F9850A8285D0
:104530000B83124B570A0A0AAB09850E82850F833B
:1045400012180474011217AC0247AF850A82850B5A
:1045500083121A3090077B12166C12058E740212A9
:1045600017ACE970030247AF7901850A82850B8396
:104570000247238E828F83A385820A85830BE060A6
:1045800003024630850E82850F83E0A2E0400302DD
:10459000463090081912525C60030246307C0E7D52
:1045A000007900AA18AB1912100E850C82850D83B4
:1045B000124F22EA4B6010750C06750D00780C1234
:1045C0001A19EA2410801B124F1C1209C6EA4B70FC
:1045D000030247AF750C06750D00780C121A19EA24
:1045E0002405FCE43BFD74021217F4120FF674026A
:1045F0001217AC850E82850F83E0A2E25004D2F040
:104600008002C2F0A2F0E433F8740C1217E2E04822
:10461000F0EEFCEFFDAA18AB1912116AE970117ADD
:10462000027B00900765E0F912104A79000247B159
:1046300012525970030247AF1247B670030247AFD8
:10464000850A82850B83E0FC790102474C1252599E
:1046500070030247AF124EE1890BE8450B7003026D
:1046600047AF8E828F83A3E0FC7902124F1C8882B1
:10467000850B830247537C007D00EE2404FAE43F5F
:10468000FB850882850983E0F9121134E9F8C394A7
:104690000A40030247AFEE240AFCE43FFD7A0475AA
:1046A000F006E8A42425F91213440247AF124F1C68
:1046B00090077AE06007900F49E0F98069900F4613
:1046C000E070047905805F1209C68A0C8B0DA80C76
:1046D000A90DE82404F50CE439F50D8E828F83A32F
:1046E000A3A3A3A3A3A3E0A2E05041E8497003025F
:1046F00047AF850C82850D83E0FE6030850A828598
:104700000B83E054107025740E1217FCE82405FA90
:10471000E439FBEEF9121134E9701179038508824E
:10472000850983124F221205880247AFAC0EAD0FE8
:10473000850C82850D83E0F9124F1C1211AC1252C8
:1047400059606C1247B660677C007900124F1C8E6E
:10475000828F831218048057120654E97051900812
:104760000EE06401701512118890080EE4F07C0AC6
:10477000FDF97A0F7B0812100E802C750A00850A4D
:1047800008740F2508FEE43408FF8E828F83E064EE
:1047900001700BA90A12118E8E828F83E4F0050A34
:1047A000E50AC3940A40D7795012135012117C794C
:1047B000017414024494124EE5E8FEE9FFEE4F2224
:1047C00074F412180674F2121796EAFE8C0975F04A
:1047D00006E9A42420F508AC18AD197A0EF91213D5
:1047E0004AE9704B7C0679FFAA18AB1912106EE9E2
:1047F000703D740C1217E2124834E8F50BE50960BD
:1048000005EE420B8004EEF4520B850B82AA82E87F
:104810006A7001E96015740C1217E2EAF0A3E4F083
:10482000AC18AD197A0EA9081213447901800279E7
:10483000000240BEE0F8A3E0F92274F212180674F8
:10484000E612179689098A0C8B0DECFEEDFF740CAD
:104850001217FC7A0E75F006E9A42420F912134A07
:10486000E9600302491F7C0679FF740C1217F412E9
:10487000106EE9600302491F74702509F508AC1831
:10488000AD197A0CF912134AE9600302491BAA1800
:10489000AB19121164E50C450D701D7C0C7900AA52
:1048A00018AB1912106EE970727C0C7D007900AAA9
:1048B00018AB1912100E8051AC18AD19AA0CAB0D23
:1048C00012115E8A0A8B0BA80AA90BE8497022EE26
:1048D0004F604CAC18AD197A007B0012115EEAF8FB
:1048E000EBF9EA4B603988828983E50CF0A3E50D8A
:1048F000F0124998FAEE6A7001EF601FEEF04F7007
:104900000888828983E4F0A3F0AA18AB1912116415
:10491000AC18AD197A0CA9081213447901800279F8
:1049200000741A1217AC02446A74F71218067F005A
:10493000EF75F003A4F8A9F0EC28F8ED12495CE05B
:104940006A7003A3E06B7006E8FAE9FB800B0FEFD7
:10495000C3940440DB7A007B00024C9439F98882CE
:1049600089832274F71218067E00EE75F003A4F80E
:10497000A9F0EA28F8EB12495CE0F4FCA3E0F4FDAE
:1049800088828983ECF0A3EDF0124998F4F00EEEE2
:10499000C3940440D5024C94E82402F582E439F52E
:1049A00083E02274F412180674F4121796EAFEEBF0
:1049B000FF8C0A8D0B90081912525C704FEE4F70ED
:1049C00003024B32EC450B7003024B32121176E9B5
:1049D000900F4CF0C3940A40337508007C0679FFB1
:1049E000E50875F00EA4FAABF074812AFA74073B5F
:1049F000FB12106EE96003024A8B0508E508C394B8
:104A00000A40D975090AE509900F4CF0900F4CE067
:104A1000C3940A4003024B3275F006E0A4F89008F4
:104A200019124F22EA4B7069EEFCEFFD7A0E7420EA
:104A300028F91213447C0C7D0079FFAA18AB1912D7
:104A4000100EAC18AD197A0C900F4CE02470F912CE
:104A5000134475080E7509007808121A19EEFCEF58
:104A6000FD900F4CE075F00EA4F8A9F0748128FABF
:104A7000740739FB120FF674021217AC900819E58F
:104A80000AF0A3E50BF07900024B34850809024ACD
:104A900006124B392406124B4B60197A1B742128DD
:104AA000F9121344124B422406F582E438F583E4EC
:104AB000F0A380D1124B39240A124B4B60107A1BA1
:104AC000742228F9121344124B42240A80DB124B41
:104AD00039240C124B4B60107A10742328F91213EE
:104AE00044124B42240C80C1124B392408124B4B08
:104AF00060347A10742428F9121344124B422408AB
:104B0000F582E438F583E02410FCA3E03400FD7A5C
:104B10000475F006900F4CE0A42425F912134412FA
:104B20004B422408808390080DE060031211B212FA
:104B300011A67901740C0240C0900819E0F9A3E0B5
:104B4000C922900819E0F8A3E0C822F582E439F5FB
:104B500083124B57EC4D22E0FCA3E0FD2274F412CB
:104B6000180674F2121796EAFEEBFFE9C3940A5096
:104B700004EE4F700479028034AC18AD197A0E75CA
:104B8000F006E9A42420F912134AE9F508701C750F
:104B90000A06750B00780A121A1974021217FCEE35
:104BA000FAEFFB120FF674021217ACA9080240BE0E
:104BB00074F4121806EAFEEBFF750800750A067514
:104BC0000B00780A121A19EEFCEFFDE50875F00EDD
:104BD000A4F8A9F0748128FA740739FB121008743C
:104BE000021217ACE96004A908800B0508E508C3A8
:104BF000940A40C8790A0240C374F712180675086F
:104C000000E50875F00EA4F8A9F0748128FE740779
:104C100039FFEEFCEFFD7A0E75F006E508A42420BE
:104C2000F912134AE960297C067D0079FFEEFAEF5C
:104C3000FB12100E7C067D0079FFEE2CFAE43FFBA0
:104C400012100EEE240CF582E43FF583E4F0A3F09D
:104C50000508E508C3940A40A890080DE060031217
:104C600011B21211A6802D74F71218067E007F0073
:104C70007C0679FFEF75F00EA4FAABF074812AFA86
:104C800074073BFB12106EE970010E0FEFC3940A1C
:104C900040DEEEF97F010218D874F71218067E0084
:104CA000EEF912118E0EEEC3940A5003E960F18002
:104CB000E374F312180674CB121796E9FF900F4CA9
:104CC000E06F701B7A017B00900765E0F9121050CD
:104CD0007A027B00900765E0F91210501211BE7540
:104CE000F006EFA4FE74202EF50874271217FC7A44
:104CF0000EA90812134AE96003024DB77C0679FF3A
:104D000074271217F412106EE96003024DB77C0E7F
:104D10007D0079FF74271217F412100E7C1B7D00A2
:104D200079FF740C1217F412100E7C0C7D0079FFC1
:104D3000AA18AB1912100E74271217FC7A0EA908C4
:104D4000121344E9F508740C1217FC7A1B74212E17
:104D5000F9121344E9F50C740C1217FC7A1B742237
:104D60002EF9121344E9F50B740C1217FC7A107427
:104D7000232EF9121344E9F509740C1217FC7A106A
:104D800074242EF9121344E9F50A740C1217FC7AF4
:104D90000474252EF9121344E9FEAC18AD197A0CEF
:104DA00074702FF9121344E9F8E50C450B450945D9
:104DB0000A4E4842088003750800A9087435121786
:104DC000AC7F050218D874F7121806E9900765F051
:104DD00012117C024C9474F4121806EAFEEBFF5494
:104DE000807003024E6E900765E0F91210328A0857
:104DF0008B09EA4509607078018A828B83E0245030
:104E0000603D14600624E1604F8052A3A3A3A3E099
:104E1000704E8A828B83A3A3A3A3A3A3A3121A30E9
:104E20008A828B83A3A3A3A3A3124B578A828B836B
:104E3000A3A3124F2212114074021217AC8021A3B7
:104E4000A3A3A3E0641E701879008A828B83A3A3B6
:104E5000124F2212113A800812114CE9F8E860074B
:104E6000AA08AB09121020EEFAEF64808065EE54B8
:104E70000260237C007D007A007B0012116AE960E9
:104E8000117A017B00900765E0F912104AEE640286
:104E9000803F7A028046EEA2E0503F124EF2124F5F
:104EA000221211B8E9602F125259601F124EE18888
:104EB000088909E8450960137C007901124EF21255
:104EC0004F228508828509831218041211BEEE64F0
:104ED00001FAEFFB80087A0180027A007B00024031
:104EE000C3124EE522E0F5838882A3A3E0F8A3E095
:104EF000F922900819E0F8A3E0F5838882A3A3A320
:104F0000227F020218D8C082C083900765E0F98A28
:104F1000828B83A3124F221207E0803B8508828593
:104F20000983E0FAA3E0FB22C082C08374FF12175A
:104F300096121182E9C39402851882851983400470
:104F400074028002740AF0AC18AD197A0179051266
:104F5000066C74011217ACD083D08202011F74F466
:104F600012180674E81217968A088B09E9FE8C0A53
:104F70008D0B7C187D007900AA18AB1912100E85D4
:104F80001882851983E508F0A3E509F0900767E02A
:104F9000C0E074021217E2D0E0F0900768E0C0E0D1
:104FA00074031217E2D0E0F0900F4BE0C0E07417EA
:104FB0001217E2D0E0F074151217E2E054FEF8A3E5
:104FC000E0F9900F4AE0A2E0E433FAE84AF87415F9
:104FD0001217E21250F9A2E15004D2F08002C2F09E
:104FE000E854FDFAA2F0E43325E0F8EA48F8741535
:104FF0001217E21250F9A2E35004D2F08002C2F07C
:10500000E854F7FAA2F0E433F50875090074037860
:10501000081217831250F21217E21250F9A2E4504C
:1050200004D2F08002C2F0E854EFFAA2F0E433F5C3
:1050300008740478081217831250F21217E2125003
:10504000F9A2E55004D2F08002C2F0E854DFFAA2DF
:10505000F0E433F508740578081217831250F21241
:1050600017E21250F9A2E25004D2F08002C2F0E836
:1050700054FBFAA2F0E433F508740278081217839F
:105080001250F21217E2E8F0A3E9F0900768E0602E
:105090001D7508107808121A197C697D07740612AC
:1050A00017E2AA82AB83120FF674021217AC9007B4
:1050B00079E06010EE600974151217E2E04402F026
:1050C00078018002780074141217E2E048F090072B
:1050D00066E0600478048002780074141217E2E03D
:1050E00048F0AC0AAD0BAA18AB191205827418026D
:1050F00040C0EA4508F8741522E8F0A3E9F0900FE3
:105100004AE02274F7121806120852750800E508E2
:1051100075F00EA4F8A9F0748128FE740739FF7C9D
:105120000679FFEEFAEFFB12106EE97009EEFAEF66
:10513000FB79001208580508E508C3940A40CF021D
:105140004C9474F612180674FD121796EAFEEBFFE3
:1051500090081B12525C703975081D750908780893
:10516000121A197508027509007808121A197508BB
:10517000C07509937808121A197CFF7DFF7A017BAC
:10518000001206AE74061217AC90081BEAF0A3EBEF
:10519000F090081B12525C7003025243E4F508F5CC
:1051A000097808121A1974041217EC88088909780A
:1051B00008121A1974041217EC8808890978081261
:1051C0001A1990081D121A30790290081B125251B8
:1051D0001207CE74081217ACE9703685188285194B
:1051E00083E0FA74011217E2E0F8E4C8F9EA28F55E
:1051F00008E439F509EA450960177808121A199088
:10520000081B124EF5A312525112114074021217CC
:10521000ACE4F508F5097808121A1990081D121A5D
:10522000307CFF7DFF90081B124F221206BA7404D7
:105230001217AC90081BEAF0A3EBF090081B125277
:105240005C700479018002790074031217AC024F7C
:1052500001124B57EEFAEFFB2290077F124834E819
:105260004922C082C08390081912525C60109008D5
:1052700019124F22121020900819E4F0A3F0900F99
:105280004C740AF0024F57C082C08390619074043E
:10529000F0A37448F0A3E4F09061807440F0906152
:1052A000BC7407F09061877469F09061B67416F071
:1052B0007900120ADA7902120AE09025C0E493F428
:1052C0006006E493F9120AB67905120DDA025682E5
:1052D000C082C083E9540FF9906185E0696012E5EE
:1052E000C654804449F5C6E59E547F644970F8E988
:1052F000F053C680E59E547F70FA02568274F7120E
:105300001806E5A8FE53A87E120AC2C2BA539AFE36
:10531000C289759B00C2C2120AC875A91175B90568
:10532000120ACED2BA439A0174805E42A8025C1976
:10533000C082C083906181E4F0A302567F75E900CA
:1053400075910075BF0002011FC082C0839061810A
:10535000E4F0A374C0F0A3E4025681C082C0837459
:10536000F81217969003A41265B2700302543A9093
:1053700003A4E0544060237908851882851983AA24
:1053800082AB83120BD6851882851983AA82AB83E0
:105390001208829003A4E054BFF0E05480601079BA
:1053A0000C7A657B05120BD69003A4E0547FF0E0E5
:1053B000A2E0500F7900120ADA1208889003A4E0E4
:1053C00054FEF0E05402600F7901120ADA120888E4
:1053D0009003A4E054FDF0E05404600F7900120A39
:1053E000E012088E9003A4E054FBF0E05408600F34
:1053F0007901120AE012088E9003A4E054F7F0E05D
:105400005410600F7902120AE012088E9003A4E093
:1054100054EFF0E05420600F7903120AE012088E76
:105420009003A4E054DFF0A3E05401600D120AECF5
:105430001208949003A5E054FEF074081217AC0211
:105440005682C082C083E9600514602A804F906153
:105450009A7433F0A37455F09061A0743AF09005FB
:105460003FE064017009C2919003A67467802D909B
:1054700003A67461802690619A743FF0A3745AF079
:105480009061A0747FF090053FE064017009D291B3
:105490009003A6747180059003A6746AF002568288
:1054A000C082C083E9600B14600D14601714600C97
:1054B00080209025C480159025C5801090053FE080
:1054C000640170059025C680039025C7E493906120
:1054D00086F002568274EE12180674F4121796853E
:1054E0001882851983AC82AD83758393758272743B
:1054F000041216A99025C493F460030255FF907816
:1055000008E0C3940250030255DF74041217E2ACA2
:1055100082AD837583927582F374081216A9FC7E9E
:10552000FF7FFF8E0C7D008C8285820E800F7408B9
:105530006D606D74096D6068740A6D60638D0875C7
:1055400009007402780812178312560912164EA920
:1055500009E50AC9F888107418780812158FE51043
:105560004508FAE9FBE50EC333F8E433F974041295
:1055700017E2E58228F582E58339125B09C3E89AD0
:10558000E99B4008E8C39AF8E99B8006EAC398F8CB
:10559000EB99F9C3E89EE99F5006E8FEE9FF8D0C00
:1055A0000DEDC39413408774FF6E700374FF6F603A
:1055B00024850C08740278081217831256091216F3
:1055C0004E851882851983E582250EF582E58312C2
:1055D0005FA8E508F00CECC39404500302551F7556
:1055E00008017509007808121A1974021217E2AC42
:1055F00082AD837A717B0912120074021217AC74A7
:105600000C1217AC7F0A0218D874482508F582746A
:10561000783509F583780822C082C083906186E0DE
:10562000F89025C7E4936870099025C6E4939061CB
:1056300086F09061AE7468F0A3746AF0906245746D
:10564000FBF0A304F053F4FD43FE0290053F740108
:10565000F09061A0E0643A70047900800279011250
:105660000ADA025682C082C0839004F1E0640170BD
:105670000A9004F6E06004790C800279008003F05F
:10568000A3F0D083D08202011FC082C08375E1F1F4
:105690009004F4E0604D14600914605114604914E2
:1056A0007050120AFE9004EAE0F97AEB7B04120DC6
:1056B0005C9093AA12166C120D9290935612166C6F
:1056C000120D689004F5E0F9120D747901120DCEF7
:1056D0001257A52416125FA57416F0A3740BF07967
:1056E00000809F120B0480BD120B0A80B8120B10B1
:1056F00080B3791280EB74F412180675D90D9004FA
:10570000D5E0A2E0E4331313F812579B484401F5A7
:10571000D9780012580840FB7800880874D61265C2
:1057200008740412581240F275E1959004D5E0F91E
:105730007AD67B04120D62900E7C748CF0A3740AEE
:1057400012581812585C1258531259709004F4E011
:1057500064019004E8700B1257AE12164E9093A29B
:1057600080091257AE12164E90939A78081215DAE5
:1057700090935E78081216281257A5240E125FA582
:10578000780812165D1257A52414125FA57413F041
:105790009003A27402F07F040218D89004EAE0C4D7
:1057A000333354C0229004E8E0F8A3E0C822126426
:1057B0004078082274F61218061259418AD97800E6
:1057C00012580840FB780080061258B91259F6E8C2
:1057D000C39940F512593312580840FB78008008ED
:1057E00012650474051259F6E8C39940F375E19502
:1057F000900E7C7498F0A3740A12581812582274F0
:1058000012F09003A2025BDD880874EB2508F58294
:105810007404125B739406221259597492F0A374A3
:105820000A2212585C1258531259749004E8E0F896
:10583000A3E0C8240E12584B74FF12627D9004E856
:10584000E0F8A3E0C8241412584B22F582E8340093
:10585000F58322F0A374AAF0A3740A2212586022DE
:1058600012586422F0A37442F0A3740C2274F6124E
:1058700018061258AE12579B4402F5D978001258F8
:105880000840FB780080061258B91259F6E8C3990F
:1058900040F575E195900E7C1258C4F0A31258C4DF
:1058A0001258257414F09003A27404025BDF900474
:1058B000FAE0F9740729F5D922880874FB2508F560
:1058C0008274042274A41258D11258D1F0A3740A1D
:1058D00022F0A3740AF0A374A42274F6121806121C
:1058E000594174064AF5D9780012580840FB7800EF
:1058F00080061258B91259F6E8C39940F512593387
:1059000012580840FB78008008126504740512598B
:10591000F6E8C39940F375E195900E7C749EF0A370
:10592000740A12594F1258227415F09003A274038E
:10593000025BDF90051A1258B174044AF5D9780059
:10594000221258AE9004EAE0C4333354C0FA221253
:1059500059597442F0A3740C2212595D2212596AEB
:105960007442F0A3740C12596A22125864F0A322F4
:1059700012597422F0900E8A7442F0A3740C1259DA
:105980005D7442F0A3740C125860F022C082C08390
:105990001257A52406125FA5E402567F74F7121869
:1059A000069003D0E0F875F003A4C8AAF02AF974B1
:1059B000D228F8740339F9E82405FAE9126453A3EC
:1059C000A3A3A3A3A3A3A3A3126554A3A3A3A3A3C5
:1059D000A3A3E024FFF8A3E034FFF98A828B83E8D5
:1059E000F0A3E9F0025C197F060218D88808744514
:1059F0002508F5827405125F7FF5D90822EAFEEBCF
:105A0000FF9061D0E0F87480C398FAEE24822212ED
:105A10005A15940422F582E93400F583E0F5D90A99
:105A2000EAC32274F6121806EAFEEBFF9061D0E09A
:105A30006003025AB775D90E75D90375D9047A0077
:105A40008A08EE250812650D248B125ABC40F17AA3
:105A5000008A08EE250812650D2483125A0F40F1C2
:105A600075E1957908EE248BFAEF3400FB120BCA2E
:105A70007904EE2483FAEF3400FB120BCA7C008C0D
:105A800082AA82C3E49AF895E0F9EE28F8EF39F992
:105A9000E8248AF582E9125F7BC0E0EE2A12650DE8
:105AA00024AAF582E9125FA8D0E0F00CECC39408B8
:105AB00040CD125AC580027900025BE0125A15945B
:105AC000082275E195EE246FF582EF12584E1265AB
:105AD000CFEE2471F582EF12584EE8F0A3E9F07989
:105AE0000122C082C08375D90275D90375D90575A5
:105AF000E195EA246FF582EB125B07EA2471F582E7
:105B0000EB125AD70256823400F5831265CF227405
:105B1000F6121806EAFEEBFF9005457406125B7E4E
:105B2000121A197C017903120C3674021217AC7523
