:020000040000FA
:060000000201070220BC12
:03002B000225317A
:0300330002251390
:03003B0002255249
:030043000224C7CD
:0300530002213255
:03006B000224ED7F
:10008300021F6BE5C754F84401F5C779012200004C
:100093000080FB120086B900030200F1E4792178A5
:1000A30008B800028004F709D8FCE479297802B87B
:1000B30000028004F709D8FCE490028178C0790A31
:1000C3008002F0A3D8FCD9FA7A407B0C90013778F0
:1000D300D479038015E493A3AD82AE838A828B83A4
:1000E300F0A3AA82AB838D828E83D8E9D9E7758288
:1000F300A67583FF740112011975829175830074CB
:100103000012011975D00075813F751881751902A8
:10011300759F00020096C09FF59FE473D09F22D085
:1001230083D082C09FE493C0E0740193C0E0740263
:1001330093F59F22FF0000B4000028002800283018
:1001430075A000A000A000A00000080008E001F0D6
:10015300001000100010001000100010005000509C
:1001630000500010001000D0070000000000000F36
:100173000001000500307507001000010081FF0039
:10018300000000FF080626060E06FF020202080210
:100193005000A0000000E80302CB93010000ED92A1
:1001A30002B393010000970C02AD93010000B30268
:1001B30002B393010000980C02B793010000C90237
:1001C30002B393010000990C02BB93010000CB0220
:1001D30002B3930100009A0C02BF93080000CC0203
:1001E30002B3930100009B0C02C1930100009C0C1D
:1001F300FF0100FF2002CB93010000A79302B393FA
:10020300010000000D02E593000000000002AF931F
:100213000300001903440C440C440C440C440C44E8
:100223000C440C440C440C440C440C440C440C1A75
:100233000F320F140FFFFF02020202020202020238
:10024300010D000000100102CB93010000A49302F2
:10025300B393010000430D02D5930100005D070233
:10026300B393010000440D02D393010000A0920256
:10027300B393010000450D02D1930100004F920298
:10028300B393010000460D02CF9301000042910297
:10029300B393010000470D02CD9301000066910264
:1002A300B393010000480D02C99301000078910245
:1002B300B393010000490D02C7930100005491025A
:1002C300B3930100004A0D02C5930100005D920241
:1002D300B3930100004B0D02C3930100004C0D01C9
:1002E300E803053F100AFF00013075030201060011
:1002F30000000000000000000000000000000000FB
:100303000000000000000000000000FFFF06008066
:100313000CE8037B00080964422E446576730512DA
:1003230050002003020A000201061106000000002B
:100333000000010001000100DBFF10F564422E44C0
:10034300657673000000000000000000000000005C
:1003530000D0130000D6130230784442303100023B
:100363003078444230320008307844423033001051
:10037300307844423034000830784442303500024B
:10038300CB93010000AA9302B393010000630E0212
:10039300DB930100000C0C02B193010000640E0218
:1003A300B3930100006B0E02DD93010000200C02E9
:1003B300B1930100006C0E02B393010000730E02AF
:1003C300DF93020000210C02B193010000740E02BE
:1003D300B3930100007B0E02E193000000350C0291
:1003E300AF93030000360C02B1930100007C0E02B0
:1003F300B393010000830E02E3930200003C0C025E
:10040300B193010000840E1201228197031201228D
:10041300989703120122C997031201220498031229
:1004230001222E98031201225898031201226F9879
:10043300031201228698031201229D9803120122BE
:10044300C69803120122D99803120122EF980312CE
:100453000122029903120122299903120122019810
:10046300021201220599021201223D990212012270
:100473006099021201226B99021201228E990212D3
:1004830001229D9A02120122729B02120122ED9B0C
:1004930002120122759C02120122B09C0212012257
:1004A300E79C02120122759D021201224E9E021246
:1004B3000122AE9E02120122B99E02120122389F2E
:1004C300021201223B9F021201223E9F02120122CD
:1004D300CD9F02120122D09F0212012200A002121C
:1004E30001222AA00212012218A102120122CAA18A
:1004F3000212012281E802120122A9E8021201225A
:10050300D7E8021201220EE9021201226CE902125B
:100513000122B7E90212012202EA0212012242EA8F
:100523000212012288EA02120122B6EA0212012211
:1005330073EB021201227DEB021201228AEB0212FB
:100543000122BDEB0212012289EC0212012295EC79
:1005530002120122ADEC02120122B7EC02120122B7
:10056300E2A303120122F0A30312012208A403123F
:10057300012220A403120122EDB40112012299B534
:100583000112012214B60112012235B70112012210
:1005930071B7011201221AB80112012201B9011225
:1005A300012265BA01120122BCBA011201223DBB2C
:1005B300011201222DBC011201227ABC0112012277
:1005C30000BD0112012232BD0112012246BF0112F8
:1005D300012288BF01120122A6BF0112012229C0F4
:1005E30001120122FDC001120122C5C10112012223
:1005F300D3CC02120122A6CD021201224FCE021247
:100603000122A2CE0212012252CF02120122DECF18
:1006130002120122CAD002120122F9D002120122CF
:100623000CD20212012254D20212012229D3021245
:10063300012265D30212012281D30212012239A7BA
:10064300031201223AF90212012250F90212012285
:1006530076F90212012292FA021201229CFA021284
:100663000122D1FB02120122C9FC0212012297DEF0
:1006730002120122C7DF02120122FADF0212012253
:1006830044E0021201220BE202120122FEA4011233
:10069300012268A501120122C7A601120122D7A6D1
:1006A3000112012204A7011201225BA701120122F8
:1006B30004A8011201220BA901120122D5A90112DA
:1006C300012235AB0112012278AB011201221DACCC
:1006D300011201226AAC0112012290AC0112012223
:1006E3009EAE01120122A3AE01120122A8B0011293
:1006F3000122F5B00112012268B1011201229BB15E
:10070300011201223DB201120122E6B201120122BD
:100713001EB30112012221B30112012269B3011296
:100723000122A9B30112012200B401120122449053
:10073300031201225C9003120122A49003120122EE
:10074300BA9003120122019103120122159203129E
:100753000122A29203120122ED9203120122C42567
:1007630000120122D025001201220B2600120122C1
:100773005026001201221027001201229627001290
:100783000122C22700120122FB2700120122392A6B
:10079300001201221D2C00120122032E001201223D
:1007A300462F00120122943100120122A6320012B8
:1007B3000122F133001201220135001201221E35FC
:1007C300001201225935001201227B350012012249
:1007D300DE35001201229F3A00120122343B00123F
:1007E3000122853B00120122AC3B00120122FE3B99
:1007F300001201221C3C00120122763C001201224D
:10080300753D00120122F93D0012012264D9021242
:1008130001226ED902120122B1D902120122CCD9CE
:10082300021201225CDA0212012284DA021201228C
:10083300C1DA02120122F8DA0212012221DB0212CA
:10084300012296DB02120122ABDB02120122C0DB82
:1008530002120122F1DB0212012205DC0212012243
:100863002ADC0212012264DC0212012290DC021251
:100873000122C8DC0212012227DD02120122A6DDB9
:1008830002120122D1DD021201221ADE021201221A
:1008930044DE021201226FDE02120122ECA00312D7
:1008A30001220080021201222E80021201227C8189
:1008B300021201225C82021201227B8202120122B5
:1008C300F882021201223B83021201229184021256
:1008D3000122528502120122D987021201227A884B
:1008E300021201227089021201226D8A0212012270
:1008F300C78B02120122528C02120122919F031212
:100903000122FA9F031201224EA00312012275A0B5
:1009130003120122A6A0031201223EED02120122BC
:10092300ABED02120122F2ED021201220AEF0212D2
:10093300012206F002120122E9F0021201227EB521
:1009430002120122C0B50212012292B60212012242
:100953006BB70212012265B80212012247B90212D3
:100963000122B0B90212012266BA02120122DABAD6
:100973000212012246BB021201226FBB02120122A4
:10098300E9BB0212012282BC02120122E7BC02125D
:100993000122FCBC0212012242BD021201225BBDF4
:1009A30002120122C0BD02120122C3BD02120122A2
:1009B3004B8D03120122738D03120122B18D031299
:1009C30001226F8E03120122D68E03120122F28EB0
:1009D300031201221A8F031201224A8F03120122EA
:1009E300598F03120122D68F03120122FC8F0312A7
:1009F3000122E99301120122879501120122A29794
:100A030001120122DE97011201220B980112012229
:100A1300F098011201223799011201227B990112E8
:100A230001228D9901120122CD9901120122FA9915
:100A330001120122459A01120122859A0112012213
:100A4300B39A01120122059B01120122959B011207
:100A53000122339E0112012249A00112012287A023
:100A63000112012218A2011201225DA20112012228
:100A7300D4A2011201221EA30112012244A30112D6
:100A830001222CA401120122D3A40112012205ACDC
:100A93000212012284AC0212012246B20212012286
:100AA30055B302120122BDB40212012254B502123F
:100AB3000122835200120122CC5200120122F95268
:100AC300001201222C530012012239530012012279
:100AD3004553001201225753001201223E540012C3
:100AE30001229C5400120122D154001201221456F7
:100AF30000120122615600120122855600120122C2
:100B0300F25600120122B057001201226958001256
:100B13000122D65800120122885900120122985945
:100B2300001201221F5A00120122DE5A0012012272
:100B33000B5B00120122845B00120122E15B0012B5
:100B430001222B5C00120122C15C001201228C5D88
:100B530000120122415E00120122B65E0012012240
:100B6300175F00120122815F00120122BA5F001297
:100B730001225C60001201226C6100120122AC614F
:100B830000120122C96100120122E8610012012250
:100B93002F620012012254620012012281620012AC
:100BA3000122FB62001201223C63001201226064F5
:100BB3000012012210650012012267650012012252
:100BC300D16500120122EA65001201223BA2021242
:100BD30001228EA2021201229AA2021201226FA303
:100BE3000212012296A302120122D1A302120122B0
:100BF3003DA40212012279A402120122B2A402121C
:100C03000122CAA4021201221FA50212012238A541
:100C13000212012281A50212012294A502120122CD
:100C2300AEA502120122C4A502120122F7A60212E6
:100C330001223EA80212012240A9021201223AAA6D
:100C430002120122F77F001201225EEE011201223D
:100C53008EEE0112012256F201120122ADF30112AE
:100C6300012276F401120122F6F501120122C7F6E0
:100C73000112012204F70112012227F701120122B6
:100C830065F7011201226EF701120122B8F7011272
:100C93000122C2F7011201226CF80112012245F967
:100CA3000112012299F901120122FBF90112012219
:100CB3004EFA011201227DFA01120122BAFA01123F
:100CC30001221C6600120122836900120122896934
:100CD300001201220B6F0012012284730012012201
:100CE3005A7700120122FF8603120122758703122D
:100CF30001228B8703120122CC870312012206886B
:100D0300031201227F8803120122BA8803120122EF
:100D13002D89031201226B890312012274890312A4
:100D230001228089031201229C8903120122C789AF
:100D330003120122DD8903120122218A03120122F7
:100D4300BEE302120122D1E302120122EBE30212FB
:100D5300012214E40212012257E40212012296E452
:100D630002120122D4E40212012239E50212012205
:100D73004EE50212012259E50212012266E5021232
:100D830001227DE5021201228BE50212012296E582
:100D930002120122A2E502120122B5E5021201228A
:100DA300C0E502120122E3E5021201228AE60212E1
:100DB30001229AE602120122B4E602120122D1E6CE
:100DC30002120122EDE60212012212E702120122AF
:100DD3001DE70212012232E70212012246E7021244
:100DE3000122A7E702120122ADE702120122B3E7B3
:100DF30002120122B9E702120122D1E702120122F3
:100E030004E8021201224FD201120122D3D20112AD
:100E1300012282D301120122E1D40112012202D75D
:100E230001120122EED70112012223D8011201225D
:100E330045D801120122F4D801120122ECDA011281
:100E4300012215DB01120122A7DB01120122D9DBEA
:100E530001120122E6DB011201223DDC0112012213
:100E630063DC01120122D0DE01120122D3DF011261
:100E730001222BE001120122DEC301120122E8C488
:100E830001120122CFC501120122D9C5011201228B
:100E9300FBC50112012207C601120122A0C70112DC
:100EA3000122CFC701120122EBC80112012244C95A
:100EB30001120122AACA0112012289CB01120122C5
:100EC300E5CB0112012252CC011201228DCC011279
:100ED3000122CCCC0112012285CF011201229FCF26
:100EE300011201222BD00112012239D00112012259
:100EF30092D001120122A0D00112012213D10112BA
:100F0300012277D101120122C1D101120122D38C16
:100F130002120122F58C021201221B8F02120122FE
:100F2300309202120122489302120122FB93021211
:100F33000122DD9402120122ED9A03120122129B77
:100F430003120122849B03120122E7BD0212012234
:100F5300F0BD02120122F9BD02120122D0BE02121B
:100F6300012281C002120122B7C002120122F1C084
:100F73000212012227C10212012261C102120122BF
:100F830095C102120122C1C1021201220AC2021238
:100F9300012244C2021201228DC202120122E5C2C1
:100FA300021201221AC30212012275C30212012284
:100FB300AFC30212012200C40212012236C402127C
:100FC300012270C4021201229EC402120122C1C472
:100FD300021201226FA5031201229BA50312012213
:100FE300F6A50312012200A60312012210A6031282
:100FF3000122F6D30212012200D4021201223ED4AE
:101003000212012287D402120122C1D40212012248
:101013001BD5021201223CD50212012245D5021230
:10102300012296D502120122BFD502120122C9D58F
:101033000212012235D602120122C3D60212012264
:1010430011D70212012247D702120122CED7021270
:1010530001220ED80212012246D80212012258D8C8
:101063000212012277D80212012280D80212012231
:101073003AD902120122008003120122F5800312E1
:1010830001220F81031201222081031201225583C1
:1010930003120122829503120122B8950312012241
:1010A300EE9503120122479703120122BDA70312F3
:1010B3000122D3A703120122DDA70312012227A8CD
:1010C3000312012295FB01120122AEFB0112012240
:1010D30052FC0112012292FC01120122ABFC01120B
:1010E3000122DFFC011201222CFD0112012260FD0D
:1010F30001120122A2FD0112012209A303120122FE
:1011030032A3031201225BA3031201229DA3031244
:101113000122D3FC02120122F8FC0212012224FD57
:1011230002120122D4A803120122603E00120122FE
:10113300C4400012012276420012012268430012C9
:101143000122ED43001201226B4400120122984454
:1011530000120122BC47001201223648001201226C
:101163002549001201225F49001201229F49001202
:101173000122594B00120122AC4B00120122F54B04
:1011830000120122634C00120122954C001201222D
:10119300AD4C00120122C24D00120122D24D0012A9
:1011A3000122024F00120122244F001201225A4F42
:1011B30000120122FF50001201223E5100120122AF
:1011C3005E5200120122B9A403120122CAA403121F
:1011D30001228BA803120122CAA803120122E4FFF1
:1011E300021201221AA6031201222AA603120122C5
:1011F30042A603120122A8A60312012205A203128A
:1012030001228AA203120122F0A203120122199ED3
:1012130003120122429E03120122AD9E03120122F8
:10122300FE9E03120122579F03120122ABF1021209
:101233000122E2F10212012252F20212012267F2AA
:1012430002120122B0F30212012276F402120122E9
:1012530095F402120122BCF402120122F1F40212EB
:10126300012209F5021201225AF50212012247A9AD
:10127300031201229083031201222084031201220C
:101283009E8403120122278503120122BC850312C7
:1012930001224686031201225086031201225F8631
:1012A300031201227586031201228886031201228A
:1012B300E88603120122FC8603120122B2A603125E
:1012C30001221CA7031201222EA703120122929CC2
:1012D30003120122E79C03120122559D03120122EE
:1012E300C59D031201221793031201224193031296
:1012F30001221694031201220A9503120122A977EF
:1013030000120122667800120122A1780012012244
:10131300C978001201222B79001201227779001279
:101323000122D07900120122617A00120122637B2B
:1013330000120122207D00120122A27D001201224F
:10134300077E001201221E7E001201222E7F001250
:1013530001226C7F0012012279E00112012203E4D1
:10136300011201228BE501120122E2E501120122A1
:1013730001E6011201227FE6011201221DE801129A
:10138300012201E901120122EBEC01120122BBED62
:1013930001120122518A03120122808A03120122BF
:1013A300968A03120122DE8A03120122208B031282
:1013B30001228B8B031201225A8C03120122C68C49
:1013C3000312012261C502120122BAC702120122CD
:1013D30097C80212012254CA02120122C0CA021281
:1013E300012232CB021201227ACB0212012242CC19
:1013F30002120122ABCC021201228FF5021201224A
:10140300D4F502120122F1F5021201227AF6021238
:101413000122E0F602120122B6F70212012201F9BB
:10142300021201223B99031201225F990312012246
:101433002D9A03120122A59A031201221BA903125A
:101443000122D97F00E066701008A3E066700A08E5
:10145300A3E066700408A3E06622C3E7960809E7E1
:10146300960809E7960809E79622C3E09608A3E0E1
:101473009608A3E09608A3E09622C008C3E096F579
:101483000808A3E096420808A3E096420808A3E0F0
:101493009645087001D3D00822080808EAC0E0EB9B
:1014A300C0E086F0E7A4FA180986F0E7A42AFA1840
:1014B3000986F0E7A42AFA180986F0E7A42AFA199C
:1014C30086F0E7A4FBE5F02AFA190886F0E7A42BD7
:1014D300FBE5F03AFA190886F0E7A42BFBE5F03AAE
:1014E300FA18180986F0E7A4C5F02BFBE43AFA19B9
:1014F30008E7C5F0C6A426F6E5F03BFBE43AFA1884
:1015030086F0E7A4F6E5F00826F6E43B08F6E43AAD
:1015130008F6D0E0FBD0E0FA22E4CFC0E0E4CEC08E
:10152300E0E4CDC0E0E4CCC0E075F020E626F608A8
:10153300E633F608E633F608E633F6181818EC3304
:10154300FCED33FDEE33FEEF33FFC3EC9709ED976C
:1015530009EE9709EF97191919400FFFEC97FC094A
:10156300ED97FD09EE97FE191906D5F0BFECF709C3
:10157300EDF709EEF709EFF7191919D0E0FCD0E000
:10158300FDD0E0FED0E0FF226016080808C6C313B2
:10159300C618C613C618C613C618C613C6D5E0EABE
:1015A300227009080808226016181818C6C333C623
:1015B30008C633C608C633C608C633C6D5E0EA2212
:1015C300E627F60809E637F60809E637F60809E6D6
:1015D30037F622E026F608A3E036F608A3E036F64F
:1015E30008A3E036F622E026F008A3E036F008A3CD
:1015F300E036F008A3E036F022C3E697F60809E6E2
:1016030097F60809E697F60809E697F622C3E096E7
:10161300F008A3E096F008A3E096F008A3E096F0A4
:1016230022E056F608A3E056F608A3E056F608A310
:10163300E056F622E056F008A3E056F008A3E05681
:10164300F008A3E056F022E0F608A3E0F608A3E0D2
:10165300F608A3E0F622E6F008A3E6F008A3E6F016
:1016630008A3E6F022E0FAA3E0FBA3E0FCA3E0FD7D
:1016730022EAF0A3EBF0A3ECF0A3EDF022E0F8A351
:10168300E0F9A3E0FAA3E0FB22E8F0A3E9F0A3EA80
:10169300F0A3EBF022CAC0E0E6F0A308DAFAD0E048
:1016A300FA22CAC0E0E0A3C582CCC582C583CDC5FA
:1016B30083F0A3C582CCC582C583CDC583DAE6D0CA
:1016C300E0CA22C3E498F8E499F91217078026C305
:1016D300E49AFAE49BFBE920E7E9121707E498F898
:1016E300E499F922C3E498F8E499F9121707E49806
:1016F300F8E499F9C3E49AFAE49BFB22EB20E7CFE1
:10170300E920E7E0B90010BB0008E88AF084F8AAF2
:10171300F022E4FBC8FA22EB70227B10C833C8C95D
:1017230033C9335007C39AC3DBF280069A50012AA8
:10173300DBEAC833F4C8C933F4C9FA2275F008E404
:10174300C833C8C933C933C99AC99B5004C92AC904
:101753003BD5F0ECFBC833F4C8E4C9FA22600D08AA
:10176300C6A2E713C618C613C6D5E0F322600C0859
:10177300C6C313C618C613C6D5E0F422700422608C
:101783000D18C6C333C608C633C6D5E0F4182225E0
:101793001810AF08F518400C15198008F518400209
:1017A3001519D2AF2200C0D0251810AF08F5185074
:1017B3000C05198008F51850020519D2AFD0D022B4
:1017C3002518F58210AF08F518400C15198008F597
:1017D3001840021519D2AF851983222518F582E422
:1017E3003519F583222518F8E43519F9222518FA55
:1017F300E43519FB222518FCE43519FD22E4732591
:1018030018C582C0E0E51934FFC583C0E0E518C3FD
:10181300958224F810AF088583198582188008857E
:101823008319858218D2AFCEF0A3E520F0A3780800
:10183300E608F0A3DEFAEFF0A3E58124FAF8E60860
:10184300F0A3E608F0A3E608F0A30808E608F0A36F
:10185300E608F0A315811581D0E0FED0E0F81581EC
:1018630015811581E8C0E0EEC0E0222518C582C0CD
:10187300E0E51934FFC583C0E0E518C3958224F978
:1018830010AF08858319858218800885831985829E
:1018930018D2AFCEF0A3E520F0A37808E608F0A3B2
:1018A300DEFAEFF0A3E58124FBF8E608F0A3E608EF
:1018B300F0A30808E608F0A3E608F0A31581158154
:1018C300D0E0FED0E0F815811581E8C0E0EEC0E07D
:1018D30022851983851882E0A3FEE0A3F52078080A
:1018E300E0A3F608DFFAE0A3FFE0A3C0E0E0A3C0B3
:1018F300E0E0A3C0E0E0A3C0E0E0A3C0E010AF08D5
:101903008582188583198008858218858319D2AF4B
:10191300D083D08202011F851983851882E0A3FE3C
:10192300E0A3F5207808E0A3F608DFFAE0A3FFE0E0
:10193300A3C0E0E0A3C0E0E0A3C0E0E0A3C0E010E8
:10194300AF088582188583198008858218858319D5
:10195300D2AFD083D08222C0D02518C582C0E0E5A3
:101963001934FFC583C0E0E518C3958224F310AF93
:10197300088583198582188008858319858218D282
:10198300AFC8F0A3E9F0A3EAF0A3EBF0A37908E76B
:1019930009F0A3D8FAECF0A3EDF0A3EEF0A3EFF077
:1019A300A3D0E0F0A3D0E0F0A3D0E0F0A3E520F0D3
:1019B300A3E5F0F0A322851983851882E0C0E0A394
:1019C300E0F9A3E0FAA3E0FBA37808E0F608A3DFBD
:1019D300FAE0FCA3E0FDA3E0FEA3E0FFA3E0C0E088
:1019E300A3E0C0E0A3E0F5D0A3E0F520A3E0A3F5D6
:1019F300F010AF08858319858218800885831985BF
:101A03008218D2AFD082D083D0E0F8D0E032740411
:101A13008006740280027401C0E0F4041217C3D07C
:101A2300E0121698227404800474028000CCC0E093
:101A3300EDC0E0E518C39CCCAD1950011D10AF06F5
:101A43008C188D1980068C188D19D2AF1216A5D05B
:101A5300E0FDD0E0FC22D083D082E9C0E0E493A390
:101A6300C386F0C5F095F0F908E493A386F0C5F0BA
:101A730095F0700BE493A3C3994005E9048002A396
:101A8300E475F002A42582F582E5F03583F583D071
:101A9300E0F9E493A3C0E0E493C0E022D083D082D2
:101AA300ECC0E0EDC0E0E493A3FCE493A3FDED4CB4
:101AB300600D121AEBEC24FFFCED34FFFD80EFE424
:101AC30093A3FCE493A3FDED4C600D121B2AEC24BD
:101AD300FFFCED34FFFD80EFD0E0FDD0E0FCE493AC
:101AE300A3C0E0E493C0E022C0E0C3E4939608748B
:101AF30001939618400FE493667008087401936687
:101B03001870007019A3A3C3E49396087401939605
:101B130018A3A3400DD0E0D0E0D0E0021ADBA3A3CA
:101B2300A3A3A3A3D0E022C0E0C0F088F0E49366AF
:101B330070080874019366187000A8F0A3A3700BD3
:101B4300D0F0D0E0D0E0D0E0021ADBA3A3D0F0D0F5
:021B5300E0228E
:101B580074F512186EEAFEEBFFEE2434F8EF340049
:101B6800F988088909EE2435121C84F8EE24371206
:101B78001C84F50AEC850AF0A4FCAAF0850AF0EDAD
:101B8800A42AFDE82CF8E43DF97A257B0012170712
:101B9800EA850882850983F074075AF87401B80049
:101BA800028004C333D8FCFBEA131313541FF8EE66
:101BB80028F8EF3400F9E8245DF582E9121C875B08
:101BC8006003EA801CEE2436121C84F5F0EA84A82F
:101BD800F0EE28F8EF3400F9E82438F582E9121C11
:101BE80087F97F0402191A74F512186EEAFEEBFFE2
:101BF800EE2434121C84C0E0EE2435F582EF340064
:101C0800F583D0E0F08E828F83A3A3A3A3A3E0FA89
:101C1800A3E0FB8E828F83A3A3A3A3A3A3A3E0FCCB
:101C2800A3E0FDECC39AF50AED9BF50BEE247FF5D6
:101C380008EF3400F509850882F583E06401702B0C
:101C4800EE2480F582EF3400F583121A2C121C8DD5
:101C580074021217A8E960137CDC7D04EEFAEFFB2E
:101C6800120B6C850882850983E4F0AC0AAD0BEE93
:101C7800FAEFFB121B581224B3021BEAF582EF3469
:101C880000F583E022C082C083851882851983E02D
:101C9800F8A3E0F9C3EA9CEB9D5010C3EC98ED99CA
:101CA800401BC3EA98EB995014800EC3EA98EB994D
:101CB8004007C3EC98ED994004790180027900D07F
:101CC80083D08222EAC39CFAEB9DFB2274ED1218A2
:101CD8006E9003A2E064086005E06407702C9061D0
:101CE800C8E060269003D0E0F874FF68601CE875CF
:101CF800F003A4C8AAF02AF974D228FE740339FFA5
:101D08008E828F83A3A3A3E070057900021E74EE70
:101D18002468F510EF3400F511906060E0851082BA
:101D2800851183F0750A45750B057508007509005E
:101D3800E5D914F50EE5D95403F50F601CEE24829D
:101D4800F50CEF3400F50D7403650F6058E50E606F
:101D580013EE2467121C84700B793DEEFAEFFB1228
:101D68000B9080A6900540E064016026850C828572
:101D78000D83E06004780480027800850E08E50889
:101D8800C398FA95E0FB120A048A088B09EA450908
:101D98007006120DE8021D12850C82850D83E07015
:101DA800048A0A8B0B78008016E5D9C0E08812E512
:101DB8000A2512F582E50B3400F583D0E0F008E837
:101DC800C3950E40E4850C82850D83E0602874FC81
:101DD800250EF50E780A121A15AC0EA90FEEFAEFB9
:101DE800FB120C3E74021217A8E9700AAA08AB0984
:101DF8001212D4021D617403650F6058850E0C75AC
:101E08000D00780C121A15AC0AAD0BAA08AB091212
:101E18000C0274021217A8851082851183E0F874E9
:101E280080687005750C7F8002880CE50CF50A78CF
:101E38000A121A19E50FF50A780A121A19A90EAC2E
:101E480008AD099003D0E0FA7B0012089C740212D6
:101E580017A880139003A2E06408600BAC0AAD0BCE
:101E6800EEFAEFFB120CD4120DF479017F0C021973
:101E78001A74F312186E74FC121792EAFEEBFF89BB
:101E880008A2AFE433F509C2AFEE2463F50AEF34D4
:101E980000F50B8010AA0AAB0B120BBA1212D490E1
:101EA80004E3E004F0850A82850B83E0F8A3E0F9F7
:101EB800E849602FE82402FAE93400FBEA2402F535
:101EC8000CEB3400F50D780C121A158A828B83E01E
:101ED800FCA3E0F9EEFAEFFB120BAE74021217A89E
:101EE800E960B29004E3E060579004E4E0F89004FD
:101EF800E3E0C398500C7402650870449004E5E070
:101F0800603E8E828F83A3A3A3A3E08518828519E0
:101F180083121F5874021217DEE8121F589004E249
:101F2800E028F074021217DEAC82AD838518828532
:101F38001983AA82AB8379011208A89004E3E4F01C
:101F4800E509A2E092AF74041217A87F0602191AD5
:101F5800F0A3E4F09004E3E0F822000085218785EF
:101F680022C622C0E074EF12195AA2AFE433FEC2AF
:101F7800AF759B00906182E0A2E05012E591A2E06B
:101F8800500C7591FE740165217003121CD4E0A2F7
:101F9800E55051E591A2E5504B7591DF9003A2E021
:101FA80064076005E0640870237401652170357961
:101FB800019003D0E0FA75F003A4CAA8F028FB74D6
:101FC800D22AFA74033BFB121E798018E0640D7064
:101FD800139003C4E004F064287002E4F07A00E08F
:101FE800F9120DFA906182E0A2E64003022092E520
:101FF80091A2E640030220927591BF9003A2E0648B
:10200800057008120D16120D228003120D1C752181
:1020180000120D88E99003A3F07900120D7C120AD2
:10202800D67A017B009003A1E0F912104C90780356
:10203800E064427055900544E014F0704DC2AF1250
:10204800204A00782AD0E0F618D0E0F6E59F540739
:1020580070057509FF800375097FC4C0E07829E61B
:10206800F50808E65509F509740B7808121770D0B9
:10207800E02508F8906270E0A2E740F8E8C33390E2
:102088006272F0906270E0D2E0F0906181E0A2E3C9
:102098005009E5E9A2E3500375E9F7A3E0A2E75088
:1020A80009E591A2E7500375917FEEA2E092AF7F18
:1020B800040219B9C0E0C0D0C082C083906183E037
:1020C800A2E05009E5BFA2E0500375BFFEE0A2E11F
:1020D8005009E5BFA2E1500375BFFDE0A2E2500937
:1020E800E5BFA2E2500375BFFBE0A2E35009E5BFDC
:1020F800A2E3500375BFF7E0A2E45009E5BFA2E4EC
:10210800500375BFEFE0A2E55009E5BFA2E5500313
:1021180075BFDFE0A2E65009E5BFA2E6500375BF30
:10212800BFD083D082D0D0D0E032C0E074F2121990
:102138005AE5A7A2E4500FE5A1A2E4500953A7EF7E
:1021480075A1EF122186E5A7A2E5500CE5A1A2E54D
:10215800500653A7DF75A1DFE5A7A2E15009E5A165
:10216800A2E1500375A1FDE5A7A2E2500CE5A1A2EA
:10217800E2500653A7FB75A1FB7F010219B974F859
:1021880012186E7521019003A2E0640670077A00A8
:102198007B00120CFEA2AFE433FED2AF9003A8E09E
:1021A800640170187A207B009003A1E0F91210E80E
:1021B8007A207B009003A1E0F9121052906182E02E
:1021C800D2E6F0900541E0602185C6228016900392
:1021D800A7E064017008E5C654F84405F5C653BE87
:1021E800FC121F647401652160E4EEA2E092AF7FE7
:1021F8000102191A8E238F24858228858327851842
:1022080082851983E0CEA3E0CF852882852783EBDA
:10221800C9EAC8EDCBECCA75F010C3E833C8E93396
:10222800C9EA33CAEB33CBC3EA9EF526EB9FF52503
:10223800B35004AB25AA26EC33CCED33CDD5F0DA78
:10224800AE23AF242274F112186E8A088B098C0A07
:102258008D0B9093587808121624740F1217DE7895
:102268000C12164A909358780C1216247808790C98
:1022780012145D90937450107808790C1215FC783C
:102288000812147D4014800E780C79081215FC7819
:102298000C12147D50047901800279007F0802191C
:1022A8001A74ED12186E8A088B098C0A8D0B90939C
:1022B80058780812162474131217DE780C12164A6E
:1022C800909358780C121624780C790812145D40F3
:1022D800117808790C1215FCAA08AB09AC0AAD0BE9
:1022E80080227510007511007512007513017810A1
:1022F800790C1215FC781079081215C3AA10AB11C5
:10230800AC12AD137F0C02191A9093587808121664
:102318004A8A828B8378081216377F0402191A7446
:10232800F512186E8C828D83780812164A8A828B71
:1023380083780812161012237BC3E098F0A3E09963
:1023480012236D401E90938C780812164A8A828B4D
:102358008378081215E98E828F83E02420F0A3E0A9
:10236800344EF080A4F08E828F83C3E09420A3E0E3
:10237800944E22EA2404F8EB3400F9E8FEE9FF8CD5
:10238800828D83A3A3A3A3E0F8A3E0F98E828F83B1
:102398002274F512186EE9FE9004F7E0FAA3E0FB48
:1023A800EEC333F8E433F9741028F582749239F5E2
:1023B80083E02AF508A3E03BF5097808121A15907E
:1023C80093401216681221FC74021217A88A088B0F
:1023D800098C0A8D0B7410780812158BAA08AB09A2
:1023E8007F0402191A74F112186E8A0C8B0D8C0E68
:1023F8008D0F740F1217DEE0FAA3E0FB74111217A9
:10240800DEE0F508A3E0F5097808121A15EA2401B8
:10241800F508EB3400F509E4F50AF50B780C7908B2
:1024280012149C9093A0780812164A780C79081216
:10243800149CAA0CAB0DAC0EAD0F1221FC74021249
:1024480017A88B09EA450960047A0180027A00EC32
:102458002AFCED3400FD74131217DEE0F8A3E0F94E
:10246800E8FEE9FFECF8EDF97A717B0212170788AC
:10247800088909E4F50AF50B8E828F83780812160D
:1024880059ECF8EDF97A717B021217078A088B0963
:102498007405780812177F8E828F83A3A3A3A3E500
:1024A80008F0A3E509F07F0802191AC082C083E981
:1024B800906000F0D083D08222C2AF02000022C018
:1024C800E074F212195AA2AFE433FED2AFC2C0E5EB
:1024D800D1A2E4500653D1EF1212B6EEA2E092AFA9
:1024E8007F010219B9C0E074F212195AA2AFE4339D
:1024F800FED2AFE589A2E15003121226758900C207
:10250800C5EEA2E092AF7F010219B9C0E074F212E1
:10251800195AA2AFE433FED2AFE58BA2E050031202
:102528001226758B00C2E880D8C0E0C0D0E8C0E0B1
:10253800E9C0E0E5A8D2AFC2C7A2E7A2E792AFD050
:10254800E0F9D0E0F8D0D0D0E032C0E0C0D0E8C0A8
:10255800E0E9C0E0C008C009C082C083A2AFE4338C
:10256800F9D2AF9009D3E0F8A3E0687008539AFB5A
:10257800A374018025C2E99009D3E0F50874012508
:1025880008F074532508F582E43409F583E0F5C1B1
:102598009009D3E0C394804002E4F0E9A2E092AF4E
:1025A800D083D082D009D008D0E0F9D0E0F8D0D0DC
:0325B800D0E0323E
:1025BC00FFFFFFFFFFFFFFFFC082C083E9900CFF0E
:1025CC00F00227EE74F7121802E99002E1F07C1980
:1025DC007D037AFF7BFF1207E89002E274FFF0A301
:1025EC00F0A3E4F0A3F079051207769002E1E0F98C
:1025FC001206987A007B081209B67F010218D4746F
:10260C00F41218028A088B09EB548060309002E1B6
:10261C00E0F91210348A0A8B0BAE0AAF0BEE4F6046
:10262C00138E828F83E064B07003120788EEFAEF8A
:10263C00FB121022AA08E5096480FB80047A007B57
:10264C00000227BD74F212180274FC121792EAFEF3
:10265C00EBFFEE4F603874021217DEEEF0A3EF12B0
:10266C002A22ECF0A3ED122A22AA82AB8312069244
:10267C00E9F508707374121217DE1235D6E50A45A7
:10268C000B60658E828F831226FEEE4F70057508E7
:10269C000280557A067B001210A08A0C8B0DA80CB8
:1026AC00A90DE8497005750813803D88828983E47B
:1026BC00122708A3A3EEF0A3EF123A6FE50AF0A3DA
:1026CC00E50BF09002E71227909002E76017E0FC10
:1026DC00A3E08003EAFCEBFD8C828D8312279070C3
:1026EC00F38C828D831234FBA90874041217A80290
:1026FC003C71A3A3A3A3E0FEA3E0FF22F0A3F08808
:10270C008289832274F2121802890AE975F017A4DF
:10271C00FEAFF09002E6E4F09002E4122790600A1B
:10272C001210A69002E4E4F0A3F0EEFAEFFB121004
:10273C00A08A088B09EA4509602FEEFCEFFD7900B1
:10274C001210109002E4E508F0A3E509F07B00807C
:10275C000812277AE4F0A3F00BEBC3950A40F2E5DC
:10276C000A9002E6F0790080027913023C71EB7555
:10277C00F017A4F8A9F09002E4E028FAA3E0398A53
:10278C0082F58322123291EA4B2274F412180279E8
:10279C0000EAA2E0501B75081A7509937808121A02
:1027AC00157C047D007A017B0D12077074021217E0
:1027BC00A87F040218D4C082C0839002E71227F5C8
:1027CC00601C88828983A3A3E06A7003A3E06B88F2
:1027DC0082898370E8A3A3A3A312328D80047A00AC
:1027EC007B00D083D08202011F123D44E849227441
:1027FC00EE12180274FC121792EAFEEBFF85188297
:10280C00851983E4F0A3F0EE24021234DFEE2405E4
:10281C00122A10EE2404F50EEF122DF5E024FE60C2
:10282C003924FC604624FE605224FE605E24FE7057
:10283C000302291524FE700302298D24FE70030265
:10284C00299C24FE70030229AB24FC70030229BAD4
:10285C0024FE70030229C9022A069003007417F0A3
:10286C00A3E4122A2A120410022A0685188285195A
:10287C0083AC82AD8312078E0229D6851882851906
:10288C0083AC82AD831207940229D6850C08850D82
:10289C000974021217DEAC82AD8385088285098328
:1028AC0012328D1206B68A0C8B0DAC0CAD0DEC4DA4
:1028BC006042E4F50CF50D780C121A15750C0075C8
:1028CC000D03780C121A15750C01750D03780C128A
:1028DC001A1574081217DE121A2C79161232871276
:1028EC0007D074081217A8E9F50C700B123283127A
:1028FC000428800F750C01850882850983122A181B
:10290C001234FB850C080229D974021217DEAC8232
:10291C00AD83850C82850D8312328D1206B68A101A
:10292C008B11AC10AD11EC4D6043850C82850D8381
:10293C00A3A3121A2C7510007511037810121A1516
:10294C007510017511037810121A1574081217DE20
:10295C00121A2C79161232871207D074081217A883
:10296C00E9F509700B12328312042E800F750901E0
:10297C00850C82850D83122A181234FB8509088078
:10298C004C851882851983AC82AD8312079A803AE4
:10299C00851882851983AC82AD831207A0802B85A4
:1029AC001882851983AC82AD831207A6801C85180A
:1029BC0082851983AC82AD831207AC800D85188299
:1029CC00851983AC82AD831207B2E9F508E508607E
:1029DC00298E828F83A3E06414601F850E82850F7D
:1029EC0083E0900300122A22123D4090030112341E
:1029FC00FBE508A3122A2A12040AEEFAEFFB1207CF
:102A0C00340233E7F50CEF3400F50D22123D44850A
:102A1C00188285198322F085188285198322F07C0F
:102A2C00007D03850A82850B831232912274EE128B
:102A3C00180274FC1217928A0A8B0B8C0E8D0FEAFB
:102A4C002405F508EB3400F5097C157D0079007A36
:102A5C00007B03121010E5082402F50CE509122A7C
:102A6C00138518828519838582108583117810123D
:102A7C001A15850882850983A3A3A3A3122F3D12DF
:102A8C001A15E5082405F510E5093400F511781040
:102A9C00121A15850C82850D831232971206B074AA
:102AAC00061217A88A108B11AE10AF11E50A24027A
:102ABC00F50AE50B1234E2EE4F7003022BFF801780
:102ACC0074021217DE12328D88828983EAF0A3EB2E
:102ADC00F0900300E004F0900300E0C39405400381
:102AEC00022BFFE4F510F5117810121A157510E988
:102AFC007511027810121A157510EA7511027810FA
:102B0C00121A1574061217DE121A2C7910EEFCEF3D
:102B1C00FD1232871207D074081217A8E9705E856F
:102B2C000882850983A3A3A3A3A3A3A3E0F890021F
:102B3C00E9E0687048122F3D121A157CEA7D02E517
:102B4C00082408FAE5093400FB12100A7402121763
:102B5C00A8E960298E828F83A3A3A3A312328D9040
:102B6C000300E0F5107402781012177F7401251021
:102B7C00F58274033511F583EAF0A3EBF0740212BD
:102B8C0017DE8582108583117810121A15740212C3
:102B9C0017DE121A2C850C82850D83123D551206F8
:102BAC00BC74041217A88A108B11AE10AF119003CD
:102BBC0000E0F5107511007402781012177F740084
:102BCC002510F874033511F988828983A312279094
:102BDC007003022AC3E82403F8E93400F9EE4F60CD
:102BEC0003022ACC8882898374FFF0A3F09003003F
:102BFC00E004F0900300E0600A12328312041C79A6
:102C0C0000800B8508828509831234F2790A02331D
:102C1C00E774EA12180274FE1217928C128D13EAE2
:102C2C002405F50CEB123D5F12270275080075099F
:102C3C0000EA2402F510EB3400F511851882851991
:102C4C008385820A85830B780A121A15850C828576
:102C5C000D83A3A3A3A3122DFF121A15E50C2405B3
:102C6C00F50AE50D1234E2780A121A15850C8285E4
:102C7C000D83123D531206B074061217A88A0A8BE4
:102C8C000BEA450B7003022DB0EA2404F50EEB128F
:102C9C002DF51227028A828B83A3A3A3E0F985105A
:102CAC008285118312328D12069EE9F509600302AA
:102CBC002DB0E4F514F5157814121A157514E97580
:102CCC0015027814121A157514EA75150278141277
:102CDC001A1574061217DE121A2C7913AC0AAD0BE6
:102CEC0085108285118312328D1207D07408121749
:102CFC00A8E9F5096003022DB09002E9E0F8E508B7
:102D0C007009E02402900301F08017900301E0FCAD
:102D1C00E82402FAE43400FBEA6C7001EB60030275
:102D2C002DB4850882AA82122F349414122F2C50A1
:102D3C0073850E82850F83E0C0E074022A122DEC9D
:102D4C00D0E0F00508850E82850F83A3E0C0E085F6
:102D5C00080A7402250A122DECD0E0F00508900246
:102D6C00E9122DFF121A157CEA7D0285080A7402FD
:102D7C00250AFA74033400FB120FF874021217A818
:102D8C009002E9E02508F50874FF6E700374FF6F7C
:102D9C006012EE24010EEF3400FFE508C3941450CA
:102DAC0003022C47E50860131231788510828511D7
:102DBC008312328D12042279008014E50970037598
:102DCC00090A851282851383EEF0A3EFF0A909742A
:102DDC00021217A87F0E0218D485080C7402250C59
:102DEC00F58274033400F583223400F50F850E82CE
:102DFC00F58322123A822274EE12180274FE121714
:102E0C00928C0E8D0FEA2405F50CEB122A13750B20
:102E1C0000900300E4F0F50AEA2402F508EB340014
:102E2C00F5098049900300E0FA9002E9E0F8122FCE
:102E3C00349417122F2C400D900300E0F87416C335
:102E4C00989002E9F0122F3D121A157CEA7D02745B
:102E5C00012AFA74033400FB120FF874021217A83B
:102E6C009002E9E0F8900300E028F0050AE50C2454
:102E7C0016F582E50D122DF0E0F8E50AC398400333
:102E8C00022F15900300E0C39416507DE50AC3335E
:102E9C00F8E433F9E50C28FEE50D39FF8518828539
:102EAC001983AC82AD838E828F8312328D1206B65B
:102EBC008A108B11AC10AD11EC4D7005750B0180A7
:102ECC0043E4F510F5117810121A157510E9751107
:102EDC00027810121A157510EA7511027810121A70
:102EEC001574061217DE121A2C79168508828509BC
:102EFC008312328D1207D074081217A8E9F50B70E3
:102F0C0003022E301234EE80107C007D0385088283
:102F1C0085098312328D120434A90B74020233E931
:102F2C00E99400C365D03322EA28F8E43400F9E8C8
:102F3C0022E0F51075110078102274EA1218027450
:102F4C00FC1217928A0C8B0D8C128D13EA2405F54A
:102F5C000AEB1234E2750800750900E50A2402F543
:102F6C0010E50B3400F51174021217DE85820E8504
:102F7C00830F780E121A15850A82850B83A3A3A3DF
:102F8C00A3123A2E121A15E50A2405F50EE50B3498
:102F9C0000F50F780E121A158510828511831234E4
:102FAC00E81232871206B074061217A88A0E8B0F1D
:102FBC00AE0EAF0FE50C2402F50EE50D3400F50F47
:102FCC0080408882898374FFF00508122DE574FF18
:102FDC00F005089002E9E0F50C750D00780C121A5A
:102FEC00157CEA7D0285080C7402250CFA740334F6
:102FFC0000FB120FF874021217A89002E9E02508E2
:10300C00F508EE4F60718E828F83A3A3A3E0F98540
:10301C000E82850F8312328D12069EE9F509EE247D
:10302C0004122A10E97044E4F514F5157814121AF8
:10303C00157514E97515027814121A157514EA75BC
:10304C0015027814121A1574081217DE121A2C793C
:10305C0011EEFCEFFD850E82850F8312328D120767
:10306C00D074081217A8E9F5096027850C82850D24
:10307C008312316E1234FBE50870030231541231A5
:10308C0078850E82850F8312328D12043A790002F4
:10309C003169850882AA82EA9002E97009E0240469
:1030AC00900301F08022E0F8900301E0F514E8248D
:1030BC0004FCE43400FDEC65147001ED70C0122FBB
:1030CC00349412122F2C50B6850C82850D83E0C0DF
:1030DC00E074022A122DECD0E0F00508850C8285F4
:1030EC000D83A3E0C0E0122DE5D0E012318A858279
:1030FC000C85830D780C121A1574041217DE121A33
:10310C002C851082851183123D551206BC74041255
:10311C0017A88A0C8B0DAE0CAF0D85080C7402250C
:10312C000CF874033400F9EE4F7003022FCE85189F
:10313C0082851983E08882898312318AA3E0C0E0FA
:10314C00122DE5D0E0022FDCE509700375090A8524
:10315C000A82850B8312316E1234FBA909740402A6
:10316C002DDD123D4485128285138322900301E0EC
:10317C00F5F0E50884900300F07C007D0322F00557
:10318C00088518828519832274EC12180274FE12B9
:10319C0017928A088B098C0E8D0FEA2405FEEB34EE
:1031AC0000FF851882851983AC82AD838E828F8354
:1031BC0012328D1206B68A0A8B0BEE2418122A10C4
:1031CC00EA450B700302325E1233D05032851882FE
:1031DC0085198312328D1207C48A108B11EA45119E
:1031EC00606B7912AC0AAD0B8508828509831232AB
:1031FC008D851082851183121800E9F50A7058E448
:10320C00F50AF50B780A121A158E828F83A3A3E0A8
:10321C00F50A780A121A15EE24031234DF780A1212
:10322C001A158E828F831232971207D674061217D4
:10323C00A8E9F50A7021850C82850D83E0701F8545
:10324C00088285098312328D1204408011750A0E92
:10325C008009750A018004E50A60031234EE850CBE
:10326C0082850D83E0600479008002A90A74021241
:10327C0017A87F0C0218D47C007D03850A82850B6D
:10328C008312329122E0FAA3E0FB22E0FCA3E0FDE2
:10329C008508828509831232912274EE1218027409
:1032AC00FE1217928A088B098C0C8D0DEA2405FEF0
:1032BC00EB3400FF750E00851882851983AC82AD46
:1032CC00838E828F8312328D1206B68A0A8B0BEA9A
:1032DC00450B70030233BC1233D0503585188285F0
:1032EC00198312328D1207C48A0E8B0FEA450F60B8
:1032FC005E7912AC0AAD0B85088285098312328D7A
:10330C00850E82850F83121800E9F50E60030233D7
:10331C00BF8508828509831235D6AA0AFB1207B825
:10332C008A108B11A810A911E849701E7AFF7BFF37
:10333C001207B88A108B11A810A911E849606C8883
:10334C00828983E50AF0A3E50BF0750A0080077506
:10335C000E0E805F050A9002E6E0FAE50AC39A5069
:10336C004AE50A75F017A4FAABF088828983A3A307
:10337C00E02AFAA3E03BFB8A828B831234E8EC4D03
:10338C0070D2750A17750B00780A121A15EEFCEF3D
:10339C00FD120FF874021217A8EEFCEFFD850882DF
:1033AC0085098312328D1204468014750E09800330
:1033BC00750E01123D3C850C82850D831234FBA9E0
:1033CC000E022F27E5082402F508E5093400F5095B
:1033DC008A828B83A3A3A3E0A2E52274041217A80C
:1033EC007F0A0218D474EC1218028C108D11EA2486
:1033FC0005F50CEB122A13750F00EA2402F50AEB03
:10340C001234E2850A82F58312328D1207B88A08CB
:10341C008B09EA450970030234D4750E008071855E
:10342C000C82850D83E06401704F8E828F83A3A381
:10343C00121A2C8E828F83A3A3A3A3E0F51275130B
:10344C00007812121A15EE2405F512EF3400F5135C
:10345C007812121A151232871207D674061217A890
:10346C00E9F50F6014850C82850D83E4F0123D3C68
:10347C008510828511831234FB7C177D007900EE58
:10348C00FAEFFB1210108E828F83E4F0A3F0050E7E
:10349C009002E6E0F8E50EC398501EE50E75F017A5
:1034AC00A4F8A9F0850882850983A3A3123D6912AB
:1034BC0034E8EC4D600302342B8508828509837453
:1034CC00FFF0A3F0E50F700612328712044CA90F1F
:1034DC0002327EF50AEF3400F50B22A3E0FCA3E0E8
:1034EC00FD228E828F83123D44850E82850F83E8E8
:1034FC00F0A3E9F022C082C0839002E2E06A70037C
:10350C00A3E06B70067AE27B0280047A007B0002F7
:10351C0027EEC082C08378008C828D83E06A7003B2
:10352C00A3E06B7010E875F003A4F8A9F0EC28FA8E
:10353C00ED39FB8015088C828D83A3A3A3E06A7000
:10354C0003A3E06B60DF7A007B000227EE74F612B7
:10355C0018021207828A828B83E582458370067A71
:10356C00007B008007A3A3A3A312328D023BED7452
:10357C00F2121802E9FE740E1217DE1235D6741010
:10358C001217DE123A4E8C828D83E064027036A3E1
:10359C00123D4AF50CA3E0F9A80C74026870037490
:1035AC0029697021750C02750D00780C121A1578AA
:1035BC0008121A15780A121A15EEF91207FA74067F
:1035CC001217A880027901023C71E0F50AA3E0F51C
:1035DC000B2274E812180274FB121792E9851882F8
:1035EC00851983F08A168B17ECFEEDFF75100074AD
:1035FC001D1217DE123D40741D1217DE1234FB8EA5
:10360C00828F83A3A3A3E0A2E4502D741D1217DEB6
:10361C0012328D1207C48A828B83E5824583700334
:10362C00023A1F790AEEFCEFFDAA16AB171218002E
:10363C00E9F5106003023A22741F1217DE123A4E9B
:10364C0074211217DE1235D674231217DEE0F50E34
:10365C00A3E0F50F8E828F83E0640260030239CD04
:10366C00A3123D40850882850983A3858212858338
:10367C0013EE2406122A1088828983E0FAA3E0F95B
:10368C00EA2400F514E439F5157814121A9F010098
:10369C0000280128C2360700022887370328F43691
:1036AC000029BE380129E93802298A380329BE3895
:1036BC0004296839CD39E50E450F60030239C885F8
:1036CC000C82850D83123A43FAE9FB8A828B83E0E4
:1036DC00850A82850B83123A79121A158A828B839A
:1036EC00A3E0FCA3E0023952E50E450F600302395A
:1036FC00C8850A82850B837401F0123A56850882BC
:10370C00850983F07C007D008E828F83A3A3A3A305
:10371C00E02401FAA3E03400FB1206B6EA4B604148
:10372C008A828B83E02402F8850A82850B83E02849
:10373C00F0EA2404F8EB3400F988828983E08512DE
:10374C0082851383123A8B123A79121A158A828B5C
:10375C00831234E7E5082403FAE5093400FB023947
:10376C0057850A82850B83E02404F07C047D007964
:10377C0000AA12AB13121010023A22E50E450F608C
:10378C00030239C8123A56FEA3E0FF850A82850B64
:10379C00837404F0EE850882850983F0EF8512822C
:1037AC00851383F074031217DEAC82AD83EEFAEF4F
:1037BC00FB1206B68A0C8B0DEA450D700302386BB2
:1037CC008A828B83A3A31226FE74011217DE8582D4
:1037DC000E85830F780E121A1574051217DE121A45
:1037EC002C7CFF7DFF1206BC74041217A88B0FEA09
:1037FC00450F7033850C82850D83123A2E121A15E3
:10380C00850C82850D83A3121A2C7C027D007AB55F
:10381C007B931204E874041217A8E9700A7401125D
:10382C0017DE74FFF0A3F08E828F83E06402703990
:10383C00750C02750D00780C121A158E828F83127E
:10384C0034E7E5082404FAE5093400FB120FF87498
:10385C00021217A8850A82850B83E0240280097462
:10386C00011217DEEEF0A3EFF074011217DE123A1C
:10387C003FF074011217DEA3123A370239C2E50E7B
:10388C00450F60030239C8850C82850D831234E81C
:10389C00AA16AB171207EE850A82850B837402F009
:1038AC00EA850882850983F0851282851383EB02F1
:1038BC0039C5E50E450F60030239C8123A56F8A314
:1038CC00E0F9850A82850B837402F0E8850882850D
:1038DC000983F0E98512828513830239C5850C8230
:1038EC00850D8312328D120FF2EAFC8C82A882C3F2
:1038FC00950EE4950F405FE8650E7002E50F7004BD
:10390C007C008022851882851983E0FAE50E2AFA5C
:10391C00E50F3400FBC3EA98EB94005003E08005FC
:10392C00E50ECCC39CFCEC850A82850B83F08C0ADB
:10393C00750B00780A121A15850C82850D83E0250B
:10394C000EFCA3E0350FFDAA08AB09120FF87402A8
:10395C001217A8023A22751007023A22E50E450FFB
:10396C00705A850C82850D83123D40850A82850B29
:10397C0083740712270A123A3712270AA3E085121A
:10398C0082851383F0E82402FAE93400FB8A828BE7
:10399C0083123A37123A66123A3FA3123A6F123A2E
:1039AC0048F0E82405F8E93400F988828983123A52
:1039BC0048A3123A8BA3A3A3A3F0805A75100B80D3
:1039CC0055741D1217DE12328D1207828A828B8378
:1039DC00E5824583603D123D40880C890DE8450D1C
:1039EC006031780E121A15780A121A157808121A04
:1039FC001574061217DEE0F9EEFCEFFDAA16AB17F4
:103A0C00850C82850D8312180074061217A8E9F52F
:103A1C0010800375100EA91074051217A87F1002E0
:103A2C0018D4E0F50E750F00780E22E0850882851B
:103A3C00098322123A9522123D44E822123A95A3A8
:103A4C00A322E0F508A3E0F50922850C82850D83FD
:103A5C00E0F8A3E0F5838882E022A3A3F08A828BAE
:103A6C0083A322F088828983A3A3A3A322F08A8252
:103A7C008B83123A8222E0F50A750B00780A22F049
:103A8C0088828983A3123A9522E08508828509836E
:103A9C00A3A32274EE12180274FE1217928A0A8BD8
:103AAC000BECFAEDFB74141217DEE0F510A3E0F545
:103ABC001174161217DEE0FE74181217DEE0F50E04
:103ACC00A3E0F50F851882851983AC82AD831206AD
:103ADC00B68A0C8B0DEA450D6049851882851983D1
:103AEC0012328D1207828A828B83E5824583602F86
:103AFC00A3A3123A4EE50845096024780E121A1554
:103B0C007810121A15EEF9AC0CAD0DAA0AAB0B8598
:103B1C00088285098312180074041217A88006798C
:103B2C000E80027901022F2774F612180274FE120D
:103B3C001792740C1217DE123A438518828519837A
:103B4C00F074011217DEE9F0E4F508F509780812B3
:103B5C001A157508027808121A1574041217DE85E6
:103B6C0082088583097808121A151207D674061272
:103B7C0017A874021217A8806874F7121802EAFECC
:103B8C00EBFF89087C197D031207EEEA5402600BE7
:103B9C00A908EEFAEFFB1206AA80027901022606AA
:103BAC0074F612180274FF6A700374FF6B70168C33
:103BBC00828D83123BF2E4F08C828D83A3A3A3123B
:103BCC003BF2A380181207BE8A088B09A808A90922
:103BDC00E849600D8882898374FF122708A3A3E447
:103BEC00F07F020218D474FFF0A3F08C828D83A3B3
:103BFC00A32274F61218021207BE8A828B83E58206
:103C0C0045836006A3A3E0FA80027A007B0080D192
:103C1C0074F21218028A088B09ECFEEDFF740E1276
:103C2C0017DEE0F50A1207BE8A0C8B0DA80CA90D45
:103C3C00E8497026EEFCEFFD7AFF7BFF1207BE8A87
:103C4C000C8B0DA80CA90DE849700479118016880D
:103C5C00828983E508F0A3E509F088828983A3A310
:103C6C00E50AF079007F060218D474EE121802EA05
:103C7C00FEEBFF8C088D09890C74141217DE123DB3
:103C8C004074161217DE12328D750D00E849600370
:103C9C00023D347402650C6003023D2F741212173E
:103CAC00DE123D4AFCA3E0F9EC2400F50EE439F5F4
:103CBC000FEAF4F8EBF4F9EC58F8E50F59F9E84988
:103CCC00705CE5082406F8ED3400F9880A890B8845
:103CDC0082F583123D551207EE8A108B11E50E65A5
:103CEC00107004E50F65116042780E121A15850AE2
:103CFC0082850B83123D551207F474021217A8E942
:103D0C00F50D7027780E121A15850882850983A384
:103D1C00A3123D5312080674021217A8800D750DDC
:103D2C00808008750D0D8003750D0BA90D0233EC09
:103D3C008E828F83123D4422E0F8A3E0F922123DDB
:103D4C004488828983E022A3A3E0FCA3E0FDEEFA81
:103D5C00EFFB223400F50D850C82F58322E028FE62
:103D6C00A3E039FF8E828F832274F2121802EAFECE
:103D7C00EBFF890B7401650B600E7402650B706AA6
:103D8C0079011209D4E97062EEFAEFFB1207B88AD6
:103D9C00088B09EA45096047750A00800B7C177D82
:103DAC00007900121010050A9002E6E0F8E50AC34B
:103DBC00985021E50A75F017A4F8A9F085088285BA
:103DCC000983A3A3E028FAA3E039FB8A828B831230
:103DDC0027F570C985088285098374FFF0A3F07CF0
:103DEC00197D03EEFAEFFB1207E8023C7174F21234
:103DFC0018028A088B09ECFEEDFF740E1217DE1206
:103E0C0035D6900CFFE0F4603D7A097B0012101C53
:103E1C00EA4B60328A828B8374B1F0A3E4123A6865
:103E2C00A3123A66A3E508F0A3E509123E55EEF09D
:103E3C00A3EF123E55A3A3E50AF0A3E50BF0900CFB
:103E4C00FFE0F9121028023C71F08A828B83A3A345
:103E5C00A3A3A32274F012180274FA121792890801
:103E6C00ECFEEDFF7509008A0A8B0B780A121A59C1
:103E7C000004108840A33EC13EDB3EF33E113F29B7
:103E8C003F4C3F643F783FA23F1F40304047406269
:103E9C004088408840B83F74016508600302408345
:103EAC008E828F83E0F8C394034003024083E89032
:103EBC000DEB02405F7402650860030240838E8242
:103ECC008F83124830900DECE8F0A3E902405F7448
:103EDC0001650860030240831240B0400302408336
:103EEC00E890076602405F74016508600302408336
:103EFC008E828F83E0F8C394054003024083E890E0
:103F0C00076702405F74016508600302408312403A
:103F1C00B04003024083E890076802405F7410656C
:103F2C00086003024083750A10750B00780A121A98
:103F3C00157A697B07120FF874021217A80240A9B0
:103F4C007401650860030240831240B040030240D4
:103F5C0083E890077902405F7401650860030240B2
:103F6C00838E828F83E0900DEF02405F74046508AE
:103F7C0060030240838E828F83780C12164A9093D2
:103F8C0040780C12147D500302408390077B780C10
:103F9C001216590240A9E96003024083120656E941
:103FAC00700512118A805690080E8063740765089C
:103FBC006003024083750A06750B00780A121A1505
:103FCC008E828F83A3AC82AD8374021217F0120F12
:103FDC00FE74021217A87C007D00AA18AB198E8201
:103FEC008F83E0F9121136E9F50AC3940A400302F3
:103FFC0040A6120656E9700CA90A121190795012BB
:10400C001352806E740F250AF582E43408F583741C
:10401C0001804074016508705E1240B05059E89000
:10402C00077A802F74016508704D8E828F83E0F8BB
:10403C00C3940A5042E8900DEE8018740165087024
:10404C00368E828F83E0F874F928C3940A5028E8DE
:10405C00900DF0F0804774016508701B90080DE01E
:10406C00F88E828F83E090080DF0E87030E06401E8
:10407C00702B12117E80267509188021C3EA9427B3
:10408C00EB9400501574026508700F8E828F8312AA
:10409C004B531204F4E9F5098003750902A909745C
:1040AC00060244908E828F83E0F8C3940222740E31
:1040BC001217A87F040218D474F012180274B112EB
:1040CC0017928C0E8D0F90930E74201217F87406A5
:1040DC001216A574201217F8121136E9F50B745F3D
:1040EC001217DEE0F50CE9C3940A40030242427554
:1040FC00F006E9A4F50974411217F87A0E7420251C
:10410C0009F912134CE97009744D1217DEE0FE80A8
:10411C00027E00900DEBE0640270057508018003CF
:10412C007508007408650C700474228002742125D3
:10413C0009FF7C1B7D00790074261217F0121010F9
:10414C00EEA2E0E433F50A74261217F87A1BEFF9A5
:10415C0012134CE9702574401217DEE024F9C39455
:10416C000A50187808121A1974271217F8A90AAAF3
:10417C000EAB0F12059674011217A87C147D0079F2
:10418C0000740C1217F0121010740C1217F87A102D
:10419C0074242509F912134CE970307C1079FF74E2
:1041AC000C1217F0121070E97021741C1217DEAC8F
:1041BC0082AD837A0474252509F912134C740C1200
:1041CC0017F8A90AAA0EAB0F12057EAC18AD197A16
:1041DC000C7470250BF912134CE97049AA18AB1921
:1041EC001211667F00EF75F003A4F8A9F085188210
:1041FC00851983E58228F8E583124958124B4D60E6
:10420C001D88828983A3A3E0F5087509007808123C
:10421C001A15AA0EAB0F1207DC74021217A80FEFB7
:10422C00C3940440C0EEA2E1500C900765E0F9AADB
:10423C000EAB0F1207E27404650C7027900DEBE0C7
:10424C006402701F7A00900779E060010A9007669B
:10425C00E06004780480027800E84AF9AA0EAB0FFB
:10426C0012063E7900744F02449074F112180274D5
:10427C00F01217928A0C8B0D8C088D097E0AE9605E
:10428C000C14600914603A14607502435C121178C6
:10429C00E9FEC3940A400302435CE5084509700338
:1042AC0002435C750A06750B00780A121A15AC0CE1
:1042BC00AD0DAA08AB09120FF874021217A802432D
:1042CC005C7F00750A06750B00780A121A15AC0C87
:1042DC00AD0DEF75F00EA4F8A9F0748728FA7407E9
:1042EC0039FB12100A74021217A8E970090FEFC3F8
:1042FC00940A505C80CDEFFEC3940A505380427FE9
:10430C0000AC18AD197A1075F006EFA42423F9123D
:10431C00134CE9701C7C1079FFAA18AB19121070A1
:10432C00E9700EAC0CAD0DAA18AB19120560E96062
:10433C00090FEFC3940A501880C7EFFEC3940A50BC
:10434C000FE50845096009AA08AB09EEF9121172CC
:10435C00EEF974101217A87F070218D474F412180F
:10436C0002E9FF7E1574FF6A700374FF6B70287589
:10437C000800EFFC7A027B00A908121154E96002D4
:10438C007E000508E508C3940A40E7EF604E7AA268
:10439C007B111209E680451209C88A088B09EA4587
:1043AC000960387C007D00EA2405FAE43509FB85B8
:1043BC000882850983A3A3A3A3E0F9121136E9C3EC
:1043CC00940A500BEFFC7A027B001211547E00EF22
:1043DC00600AAA08AB091211A280011EEEF9024074
:1043EC00BF74F21218028C088D097E15740E121708
:1043FC00DEE0F50AA3E0F50B74FF6A700374FF6B43
:10440C00701D7F00AC0AAD0BAA08AB09EFF91211B5
:10441C005AE960027E000FEFC3940A503B80E5120C
:10442C0009C88A828B83E5824583602B7C007D00E2
:10443C00E5822405FAE43583FBA3A3A3A3E0F912D8
:10444C001136E9C3940A5010AC0AAD0BAA08AB099B
:10445C0012115A7E0080011EEEF97F060218D4C09C
:10446C0082C08390077FEAF0A3EBF0900765E0FC35
:10447C007D007A267B001204F4900765E0F91207A0
:10448C005E024F531217A87F080218D474F012184A
:10449C000274EC121792EAFEEBFFEE240CF50CE41E
:1044AC003FF50DEE2405F50EE43FF50FEE2409F56E
:1044BC000AE43FF50BEE2403F508E43FF5098E8280
:1044CC008F83A3A3E024FA700302475424FD7003E6
:1044DC0002467214700302456F14601024FD7003C1
:1044EC000246491470030246A90247AB12525560AA
:1044FC004AE0F5838882E0F50EA3E0F50FE50E4562
:10450C000F6038850C82850D83E0F50C780C121A3F
:10451C0019EE240BF582E43FF583E0F9850A8285D8
:10452C000B83124B530A0A0AAB09850E82850F8343
:10453C0012180074011217A80247AB850A82850B6A
:10454C0083121A2C90077B121668120590740212B3
:10455C0017A8E970030247AB7901850A82850B83A2
:10456C0002471F8E828F83A385820A85830BE060AE
:10457C000302462C850E82850F83E0A2E0400302E5
:10458C00462C900819125258600302462C7C0E7D62
:10459C00007900AA18AB19121010850C82850D83B6
:1045AC00124F1EEA4B6010750C06750D00780C123C
:1045BC001A15EA2410801B124F181209C8EA4B7006
:1045CC00030247AB750C06750D00780C121A15EA30
:1045DC002405FCE43BFD74021217F0120FF8740270
:1045EC001217A8850E82850F83E0A2E25004D2F048
:1045FC008002C2F0A2F0E433F8740C1217DEE0482B
:10460C00F0EEFCEFFDAA18AB1912116CE970117ADF
:10461C00027B00900765E0F912104C79000247AD5F
:10462C0012525570030247AB1247B270030247ABEC
:10463C00850A82850B83E0FC7901024748125255AA
:10464C0070030247AB124EDD890BE8450B70030279
:10465C0047AB8E828F83A3E0FC7902124F188882BD
:10466C00850B8302474F7C007D00EE2404FAE43F67
:10467C00FB850882850983E0F9121136E9F8C394A9
:10468C000A40030247ABEE240AFCE43FFD7A0475B2
:10469C00F006E8A42425F91213460247AB124F1872
:1046AC0090077AE06007900DEEE0F98069900DEBD1
:1046BC00E070047905805F1209C88A0C8B0DA80C78
:1046CC00A90DE82404F50CE439F50D8E828F83A333
:1046DC00A3A3A3A3A3A3E0A2E05041E84970030263
:1046EC0047AB850C82850D83E0FE6030850A8285A0
:1046FC000B83E054107025740E1217F8E82405FA99
:10470C00E439FBEEF9121136E97011790385088250
:10471C00850983124F1E12058A0247ABAC0EAD0FF2
:10472C00850C82850D83E0F9124F181211AE1252CE
:10473C0055606C1247B260677C007900124F188E7E
:10474C00828F831218008057120656E97051900818
:10475C000EE06401701512118A90080EE4F07C0AC8
:10476C00FDF97A0F7B08121010802C750A00850A4F
:10477C0008740F2508FEE43408FF8E828F83E064F2
:10478C0001700BA90A1211908E828F83E4F0050A36
:10479C00E50AC3940A40D7795012135212117E794C
:1047AC00017414024490124EE1E8FEE9FFEE4F2230
:1047BC0074F412180274F2121792EAFE8C0975F056
:1047CC0006E9A42420F508AC18AD197A0EF91213D9
:1047DC004CE9704B7C0679FFAA18AB19121070E9E2
:1047EC00703D740C1217DE124830E8F50BE50960C9
:1047FC0005EE420B8004EEF4520B850B82AA82E884
:10480C006A7001E96015740C1217DEEAF0A3E4F08B
:10481C00AC18AD197A0EA9081213467901800279E9
:10482C00000240BAE0F8A3E0F92274F21218027404
:10483C00E612179289098A0C8B0DECFEEDFF740CB5
:10484C001217F87A0E75F006E9A42420F912134C0D
:10485C00E9600302491B7C0679FF740C1217F012F5
:10486C001070E9600302491B74702509F508AC1837
:10487C00AD197A0CF912134CE96003024917AA1806
:10488C00AB19121166E50C450D701D7C0C7900AA54
:10489C0018AB19121070E970727C0C7D007900AAAB
:1048AC0018AB191210108051AC18AD19AA0CAB0D25
:1048BC001211608A0A8B0BA80AA90BE8497022EE28
:1048CC004F604CAC18AD197A007B00121160EAF8FD
:1048DC00EBF9EA4B603988828983E50CF0A3E50D8E
:1048EC00F0124994FAEE6A7001EF601FEEF04F700F
:1048FC000888828983E4F0A3F0AA18AB1912116618
:10490C00AC18AD197A0CA9081213467901800279FA
:10491C0000741A1217A802446674F71218027F006A
:10492C00EF75F003A4F8A9F0EC28F8ED124958E063
:10493C006A7003A3E06B7006E8FAE9FB800B0FEFDB
:10494C00C3940440DB7A007B00024C9039F98882D6
:10495C0089832274F71218027E00EE75F003A4F816
:10496C00A9F0EA28F8EB124958E0F4FCA3E0F4FDB6
:10497C0088828983ECF0A3EDF0124994F4F00EEEEA
:10498C00C3940440D5024C90E82402F582E439F536
:10499C0083E02274F412180274F4121792EAFEEBFC
:1049AC00FF8C0A8D0B900819125258704FEE4F70F5
:1049BC0003024B2EEC450B7003024B2E121178E9BF
:1049CC00900DF1F0C3940A40337508007C0679FF12
:1049DC00E50875F00EA4FAABF074812AFA74073B63
:1049EC00FB121070E96003024A870508E508C394BE
:1049FC000A40D975090AE509900DF1F0900DF1E026
:104A0C00C3940A4003024B2E75F006E0A4F89008FC
:104A1C0019124F1EEA4B7069EEFCEFFD7A0E7420F2
:104A2C0028F91213467C0C7D0079FFAA18AB1912D9
:104A3C001010AC18AD197A0C900DF1E02470F9122D
:104A4C00134675080E7509007808121A15EEFCEF5E
:104A5C00FD900DF1E075F00EA4F8A9F0748128FA20
:104A6C00740739FB120FF874021217A8900819E595
:104A7C000AF0A3E50BF07900024B30850809024AD5
:104A8C0002124B352406124B4760197A1B742128ED
:104A9C00F9121346124B3E2406F582E438F583E4F2
:104AAC00F0A380D1124B35240A124B4760107A1BAD
:104ABC00742228F9121346124B3E240A80DB124B47
:104ACC0035240C124B4760107A10742328F91213FA
:104ADC0046124B3E240C80C1124B352408124B4716
:104AEC0060347A10742428F9121346124B3E2408B1
:104AFC00F582E438F583E02410FCA3E03400FD7A61
:104B0C000475F006900DF1E0A42425F91213461259
:104B1C004B3E2408808390080DE060031211B41200
:104B2C0011A87901740C0240BC900819E0F9A3E0BB
:104B3C00C922900819E0F8A3E0C822F582E439F5FF
:104B4C0083124B53EC4D22E0FCA3E0FD2274F412D3
:104B5C00180274F2121792EAFEEBFFE9C3940A50A2
:104B6C0004EE4F700479028034AC18AD197A0E75CE
:104B7C00F006E9A42420F912134CE9F508701C7511
:104B8C000A06750B00780A121A1574021217F8EE41
:104B9C00FAEFFB120FF874021217A8A9080240BA18
:104BAC0074F4121802EAFEEBFF750800750A06751C
:104BBC000B00780A121A15EEFCEFFDE50875F00EE5
:104BCC00A4F8A9F0748128FA740739FB12100A743E
:104BDC00021217A8E96004A908800B0508E508C3B0
:104BEC00940A40C8790A0240BF74F712180275087B
:104BFC0000E50875F00EA4F8A9F0748128FE74077E
:104C0C0039FFEEFCEFFD7A0E75F006E508A42420C2
:104C1C00F912134CE960297C067D0079FFEEFAEF5E
:104C2C00FB1210107C067D0079FFEE2CFAE43FFBA2
:104C3C00121010EE240CF582E43FF583E4F0A3F09F
:104C4C000508E508C3940A40A890080DE06003121B
:104C5C0011B41211A8802D74F71218027E007F0077
:104C6C007C0679FFEF75F00EA4FAABF074812AFA8A
:104C7C0074073BFB121070E970010E0FEFC3940A1E
:104C8C0040DEEEF97F010218D474F71218027E0090
:104C9C00EEF91211900EEEC3940A5003E960F18004
:104CAC00E374F312180274CB121792E9FF900DF112
:104CBC00E06F701B7A017B00900765E0F9121052CF
:104CCC007A027B00900765E0F91210521211C07540
:104CDC00F006EFA4FE74202EF50874271217F87A4C
:104CEC000EA90812134CE96003024DB37C0679FF40
:104CFC0074271217F0121070E96003024DB37C0E8A
:104D0C007D0079FF74271217F01210107C1B7D00A8
:104D1C0079FF740C1217F01210107C0C7D0079FFC7
:104D2C00AA18AB1912101074271217F87A0EA908CA
:104D3C00121346E9F508740C1217F87A1B74212E1D
:104D4C00F9121346E9F50C740C1217F87A1B74223D
:104D5C002EF9121346E9F50B740C1217F87A10742D
:104D6C00232EF9121346E9F509740C1217F87A1070
:104D7C0074242EF9121346E9F50A740C1217F87AFA
:104D8C000474252EF9121346E9FEAC18AD197A0CF1
:104D9C0074702FF9121346E9F8E50C450B450945DB
:104DAC000A4E4842088003750800A908743512178A
:104DBC00A87F050218D474F7121802E9900765F061
:104DCC0012117E024C9074F4121802EAFEEBFF549E
:104DDC00807003024E6A900765E0F91210348A085D
:104DEC008B09EA4509607078018A828B83E0245034
:104DFC00603D14600624E1604F8052A3A3A3A3E09E
:104E0C00704E8A828B83A3A3A3A3A3A3A3121A2CF1
:104E1C008A828B83A3A3A3A3A3124B538A828B8373
:104E2C00A3A3124F1E12114274021217A88021A3C1
:104E3C00A3A3A3E0641E701879008A828B83A3A3BA
:104E4C00124F1E12113C800812114EE9F8E860074F
:104E5C00AA08AB09121022EEFAEF64808065EE54BA
:104E6C000260237C007D007A007B0012116CE960EB
:104E7C00117A017B00900765E0F912104CEE640288
:104E8C00803F7A028046EEA2E0503F124EEE124F67
:104E9C001E1211BAE9602F125255601F124EDD8896
:104EAC00088909E8450960137C007901124EEE125D
:104EBC004F1E8508828509831218001211C0EE64FA
:104ECC0001FAEFFB80087A0180027A007B00024035
:104EDC00BF124EE122E0F5838882A3A3E0F8A3E0A1
:104EEC00F922900819E0F8A3E0F5838882A3A3A324
:104EFC00227F020218D4C082C083900765E0F98A31
:104F0C00828B83A3124F1E1207E2803B8508828599
:104F1C000983E0FAA3E0FB22C082C08374FF12175E
:104F2C0092121184E9C39402851882851983400476
:104F3C0074028002740AF0AC18AD197A017905126A
:104F4C00066E74011217A8D083D08202011F74F46C
:104F5C0012180274E81217928A088B09E9FE8C0A5F
:104F6C008D0B7C187D007900AA18AB1912101085D6
:104F7C001882851983E508F0A3E509F0900767E02E
:104F8C00C0E074021217DED0E0F0900768E0C0E0D9
:104F9C0074031217DED0E0F0900DF0E0C0E074174F
:104FAC001217DED0E0F074151217DEE054FEF8A3F1
:104FBC00E0F9900DEFE0A2E0E433FAE84AF874155A
:104FCC001217DE1250F5A2E15004D2F08002C2F0AA
:104FDC00E854FDFAA2F0E43325E0F8EA48F8741539
:104FEC001217DE1250F5A2E35004D2F08002C2F088
:104FFC00E854F7FAA2F0E433F50875090074037865
:10500C000812177F1250EE1217DE1250F5A2E45060
:10501C0004D2F08002C2F0E854EFFAA2F0E433F5C7
:10502C00087404780812177F1250EE1217DE125013
:10503C00F5A2E55004D2F08002C2F0E854DFFAA2E7
:10504C00F0E433F5087405780812177F1250EE124D
:10505C0017DE1250F5A2E25004D2F08002C2F0E842
:10506C0054FBFAA2F0E433F5087402780812177FA7
:10507C001250EE1217DEE8F0A3E9F0900768E0603A
:10508C001D7508107808121A157C697D07740612B4
:10509C0017DEAA82AB83120FF874021217A89007BE
:1050AC0079E06010EE600974151217DEE04402F02E
:1050BC0078018002780074141217DEE048F0900733
:1050CC0066E0600478048002780074141217DEE045
:1050DC0048F0AC0AAD0BAA18AB191205847418026F
:1050EC0040BCEA4508F8741522E8F0A3E9F0900DED
:1050FC00EFE02274F7121802120854750800E50844
:10510C0075F00EA4F8A9F0748128FE740739FF7CA1
:10511C000679FFEEFAEFFB121070E97009EEFAEF68
:10512C00FB790012085A0508E508C3940A40CF021F
:10513C004C9074F612180274FD121792EAFEEBFFF3
:10514C0090081B125258703975081D75090878089B
:10515C00121A157508027509007808121A157508C7
:10516C00AF7509937808121A157CFF7DFF7A017BC5
:10517C00001206B074061217A890081BEAF0A3EBF5
:10518C00F090081B125258700302523FE4F508F5D8
:10519C00097808121A1574041217E8880889097816
:1051AC0008121A1574041217E8880889097808126D
:1051BC001A1590081D121A2C790290081B12524DC8
:1051CC001207D074081217A8E97036851882851951
:1051DC0083E0FA74011217DEE0F8E4C8F9EA28F566
:1051EC0008E439F509EA450960177808121A159090
:1051FC00081B124EF1A312524D12114274021217D7
:10520C00A8E4F508F5097808121A1590081D121A69
:10521C002C7CFF7DFF90081B124F1E1206BC7404E1
:10522C001217A890081BEAF0A3EBF090081B12527F
:10523C0058700479018002790074031217A8024E89
:10524C00FD124B53EEFAEFFB2290077F124830E829
:10525C004922C082C08390081912525860109008DD
:10526C0019124F1E121022900819E4F0A3F0900DA1
:10527C00F1740AF0024F53C082C0839061907404A1
:10528C00F0A37448F0A3E4F09061807440F0906156
:10529C00BC7407F09061877469F09061B67416F075
:1052AC007900120ADC7902120AE29025BCE493F42C
:1052BC006006E493F9120AB87905120DDC02567EE9
:1052CC00C082C083E9540FF9906185E0696012E5F2
:1052DC00C654804449F5C6E59E547F644970F8E98C
:1052EC00F053C680E59E547F70FA02567E74F71216
:1052FC001802E5A8FE53A87E120AC4C2BA539AFE3D
:10530C00C289759B00C2C2120ACA75A91175B9056A
:10531C00120AD0D2BA439A0174805E42A8025C157C
:10532C00C082C083906181E4F0A302567B75E900D2
:10533C0075910075BF0002011FC082C0839061810E
:10534C00E4F0A374C0F0A3E402567DC082C0837461
:10535C00F81217929003A41265AE700302543690A3
:10536C0003A4E0544060237908851882851983AA28
:10537C0082AB83120BD8851882851983AA82AB83E2
:10538C001208849003A4E054BFF0E05480601079BC
:10539C000C7A657B05120BD89003A4E0547FF0E0E7
:1053AC00A2E0500F7900120ADC12088A9003A4E0E4
:1053BC0054FEF0E05402600F7901120ADC12088AE4
:1053CC009003A4E054FDF0E05404600F7900120A3D
:1053DC00E21208909003A4E054FBF0E05408600F34
:1053EC007901120AE21208909003A4E054F7F0E05D
:1053FC005410600F7902120AE21208909003A4E094
:10540C0054EFF0E05420600F7903120AE212089076
:10541C009003A4E054DFF0A3E05401600D120AEEF7
:10542C001208969003A5E054FEF074081217A80217
:10543C00567EC082C083E9600514602A804F90615B
:10544C009A7433F0A37455F09061A0743AF09005FF
:10545C003FE064017009C2919003A67467802D909F
:10546C0003A67461802690619A743FF0A3745AF07D
:10547C009061A0747FF090053FE064017009D291B7
:10548C009003A6747180059003A6746AF002567E90
:10549C00C082C083E9600B14600D14601714600C9B
:1054AC0080209025C080159025C1801090053FE08C
:1054BC00640170059025C280039025C3E49390612C
:1054CC0086F002567E74EE12180274F4121792854E
:1054DC001882851983AC82AD8375839375826C7445
:1054EC00041216A59025C093F460030255FB907826
:1054FC0008E0C3940250030255DB74041217DEACAF
:10550C0082AD837583927582E574081216A5FC7EB4
:10551C00FF7FFF8E0C7D008C8285820E800F7408BD
:10552C006D606D74096D6068740A6D60638D0875CB
:10553C0009007402780812177F12560512164AA930
:10554C0009E50AC9F888107418780812158BE5104B
:10555C004508FAE9FBE50EC333F8E433F974041299
:10556C0017DEE58228F582E58339125B05C3E89ADC
:10557C00E99B4008E8C39AF8E99B8006EAC398F8CF
:10558C00EB99F9C3E89EE99F5006E8FEE9FF8D0C04
:10559C000DEDC39413408774FF6E700374FF6F603E
:1055AC0024850C087402780812177F1256051216FF
:1055BC004A851882851983E582250EF582E58312CA
:1055CC005FA4E508F00CECC39404500302551B7562
:1055DC0008017509007808121A1574021217DEAC4E
:1055EC0082AD837A707B0912120274021217A874AE
:1055FC000C1217A87F0A0218D474482508F5827477
:10560C00783509F583780822C082C083906186E0E2
:10561C00F89025C3E4936870099025C2E4939061D7
:10562C0086F09061AE7468F0A3746AF09062457471
:10563C00FBF0A304F053F4FD43FE0290053F74010C
:10564C00F09061A0E0643A70047900800279011254
:10565C000ADC02567EC082C0839004F1E0640170C3
:10566C000A9004F6E06004790C800279008003F063
:10567C00A3F0D083D08202011FC082C08375E1F1F8
:10568C009004F4E0604D14600914605114604914E6
:10569C007050120B009004EAE0F97AEB7B04120DC7
:1056AC005E909398121668120D949093501216688F
:1056BC00120D6A9004F5E0F9120D767901120DD0F5
:1056CC001257A12416125FA17418F0A3740BF07971
:1056DC0000809F120B0680BD120B0C80B8120B12AF
:1056EC0080B3791280EB74F412180275D90D900402
:1056FC00D5E0A2E0E4331313F8125797484401F5B0
:10570C00D9780012580440FB7800880874D61265CA
:10571C0004740412580E40F275E1959004D5E0F92A
:10572C007AD67B04120D64900D21748EF0A3740A4A
:10573C0012581412585812584F12596C9004F4E025
:10574C0064019004E8700B1257AA12164A909390B9
:10575C0080091257AA12164A90938478081215D60B
:10576C0090935878081216241257A1240E125FA198
:10577C0078081216591257A12414125FA17413F051
:10578C009003A27402F07F040218D49004EAE0C4DF
:10579C00333354C0229004E8E0F8A3E0C82212642A
:1057AC003C78082274F612180212593D8AD97800F6
:1057BC0012580440FB780080061258B51259F2E8D2
:1057CC00C39940F512592F12580440FB78008008F9
:1057DC0012650074051259F2E8C39940F375E1950E
:1057EC00900D21749AF0A3740A12581412581E7456
:1057FC0012F09003A2025BD9880874EB2508F5829D
:10580C007404125B6F9406221259557494F0A374AD
:10581C000A2212585812584F1259709004E8E0F8A6
:10582C00A3E0C8240E12584774FF1262799004E862
:10583C00E0F8A3E0C8241412584722F582E834009B
:10584C00F58322F0A374ACF0A3740A2212585C22E4
:10585C0012586022F0A37444F0A3740C2274F61254
:10586C0018021258AA1257974402F5D97800125808
:10587C000440FB780080061258B51259F2E8C3991F
:10588C0040F575E195900D211258C0F0A31258C047
:10589C001258217414F09003A27404025BDB900480
:1058AC00FAE0F9740729F5D922880874FB2508F564
:1058BC008274042274A61258CD1258CDF0A3740A27
:1058CC0022F0A3740AF0A374A62274F61218021222
:1058DC00593D74064AF5D9780012580440FB7800FB
:1058EC0080061258B51259F2E8C39940F512592F97
:1058FC0012580440FB780080081265007405125998
:10590C00F2E8C39940F375E195900D2174A0F0A3D2
:10591C00740A12594B12581E7415F09003A274039A
:10592C00025BDB90051A1258AD74044AF5D9780065
:10593C00221258AA9004EAE0C4333354C0FA22125B
:10594C0059557444F0A3740C2212595922125966F9
:10595C007444F0A3740C12596622125860F0A322FE
:10596C0012597022F0900D2F7444F0A3740C12593C
:10597C00597444F0A3740C12585CF022C082C0839A
:10598C001257A12406125FA1E402567B74F7121879
:10599C00029003D0E0F875F003A4C8AAF02AF974B9
:1059AC00D228F8740339F9E82405FAE912644FA3F4
:1059BC00A3A3A3A3A3A3A3A3126550A3A3A3A3A3CD
:1059CC00A3A3E024FFF8A3E034FFF98A828B83E8D9
:1059DC00F0A3E9F0025C157F060218D48808744520
:1059EC002508F5827405125F7BF5D90822EAFEEBD7
:1059FC00FF9061D0E0F87480C398FAEE24822212F2
:105A0C005A11940422F582E93400F583E0F5D90AA1
:105A1C00EAC32274F6121802EAFEEBFF9061D0E0A2
:105A2C006003025AB375D90E75D90375D9047A007F
:105A3C008A08EE2508126509248B125AB840F17AAF
:105A4C00008A08EE25081265092483125A0B40F1CE
:105A5C0075E1957908EE248BFAEF3400FB120BCC30
:105A6C007904EE2483FAEF3400FB120BCC7C008C0F
:105A7C0082AA82C3E49AF895E0F9EE28F8EF39F996
:105A8C00E8248AF582E9125F77C0E0EE2A126509F4
:105A9C0024AAF582E9125FA4D0E0F00CECC39408C0
:105AAC0040CD125AC180027900025BDC125A11946B
:105ABC00082275E195EE246FF582EF12584A1265B3
:105ACC00CBEE2471F582EF12584AE8F0A3E9F07995
:105ADC000122C082C08375D90275D90375D90575A9
:105AEC00E195EA246FF582EB125B03EA2471F582EF
:105AFC00EB125AD302567E3400F5831265CB227416
:105B0C00F6121802EAFEEBFF9005457406125B7A5A
:105B1C00121A157C017903120C3874021217A8752D
