:020000040000FA
:06000000020107022028A6
:03002B0002249D0F
:0300330002247F25
:03003B000224BEDE
:0300430002243361
:0300530002209EEA
:03006B0002245913
:10008300021ED7E5C754F84401F5C77901220000E1
:100093000080FB120086B900030200F1E4792178A5
:1000A30008B800028004F709D8FCE479297802B87B
:1000B30000028004F709D8FCE490028178C1790A30
:1000C3008002F0A3D8FCD9FA7A417B0C90013778EF
:1000D300EE79038015E493A3AD82AE838A828B838A
:1000E300F0A3AA82AB838D828E83D8E9D9E7758288
:1000F3007C7583A174031201197582917583007451
:100103000012011975D00075813F751881751902A8
:10011300759F00020096C09FF59FE473D09F22D085
:1001230083D082C09FE493C0E0740193C0E0740263
:1001330093F59F22FF0000B4000028002800283018
:1001430075A000A000A000A00000080008E001F0D6
:10015300001000100010001000100010005000509C
:1001630000500010001000D0070000000000000F36
:100173000001000500307507001000010081FF0039
:10018300000000FF220640062806FF0202020802C2
:100193005000A0000000E803020E930100005D92EE
:1001A300020A93010000980C020493010000B302B9
:1001B300020A93010000990C022C93010000C9026A
:1001C300020A930100009A0C021493010000CB026F
:1001D300020A930100009B0C021A93080000CC0250
:1001E300020A930100009C0C023C930100009D0C49
:1001F300FF0100FF20020E93010000FB92020A930D
:10020300010000010D021E9300000000000206938E
:1002130003000019035E0C5E0C5E0C5E0C5E0C5E4C
:100223000C5E0C5E0C5E0C5E0C5E0C5E0C5E0C34A5
:100233000F4C0F2E0FFFFF02020202020202020204
:10024300010D0000001001020E93010000FE920256
:100253000A93010000440D022A930100005D070286
:100263000A93010000450D0228930100001C92022D
:100273000A93010000460D022693010000E5910256
:100283000A93010000470D022493010000F8900235
:100293000A93010000480D0222930100000A910213
:1002A3000A93010000490D022093010000409102CE
:1002B3000A930100004A0D021C93010000E690021C
:1002C3000A930100004B0D021893010000019202F2
:1002D3000A930100004C0D0216930100004D0D011D
:1002E300E803053F100AFF00013075030201060011
:1002F30000000000000000000000000000000000FB
:100303000000000000000000000000FFFF06008066
:100313000CE803140953696D706C65424C455065D4
:10032300726970686572616C051250002003020ADD
:10033300000201060302F0FF53696D706C652042F1
:100343004C45205065726970686572616CD2130008
:1003530000D8130230784646303100024368617298
:10036300616374657269737469632032000830785D
:10037300444230330010436861726163746572698B
:100383007374696320340002436861726163746546
:10039300726973746963203500020E9301000001D2
:1003A30093020A93010000600E0234930100000CD3
:1003B3000C020893010000610E020A930100006819
:1003C3000E023693010000200C020893010000691D
:1003D3000E020A930100007A0E02389302000021F4
:1003E3000C0208930100007B0E020A9301000082B5
:1003F3000E023A93000000350C0206930300003608
:100403000C020893010000830E020A93010000947A
:100413000E0230930400003C0C0208930100009587
:100423000E120122949103120122AB9103120122B5
:10043300DC9103120122179203120122419203124B
:1004430001226B92031201228292031201229992DA
:1004530003120122B09203120122D9920312012244
:10046300EC92031201220293031201221593031249
:1004730001223C93031201220198021201220599E1
:10048300021201223D9902120122609902120122F5
:100493006B99021201228E99021201229D9A021275
:1004A3000122729B02120122ED9B02120122759C12
:1004B30002120122B09C02120122E79C02120122C5
:1004C300759D021201224E9E02120122AE9E02125D
:1004D3000122B99E02120122389F021201223B9F80
:1004E300021201223E9F02120122CD9F021201221B
:1004F300D09F0212012200A0021201222AA002129E
:10050300012218A102120122CAA102120122BDE195
:1005130002120122E5E10212012213E20212012278
:100523004AE202120122A8E202120122F3E20212BB
:1005330001223EE3021201227EE302120122C4E3FE
:1005430002120122F2E302120122AFE4021201229B
:10055300B9E402120122C6E402120122F9E40212F2
:100563000122C5E502120122D1E502120122E9E5C9
:1005730002120122F3E5021201223D9D0312012220
:100583004B9D03120122639D031201227B9D0312E3
:10059300012261B3011201220DB40112012288B4B8
:1005A30001120122A9B501120122E5B501120122AE
:1005B3008EB60112012275B701120122D9B80112B8
:1005C300012230B901120122B1B901120122A1BAEB
:1005D30001120122EEBA0112012274BB011201229F
:1005E300A6BB01120122BABD01120122FCBD0112F8
:1005F30001221ABE011201229DBE0112012271BF06
:100603000112012239C001120122DA7800120122FB
:10061300AD7900120122567A00120122A97A001242
:100623000122597B00120122E57B00120122D17CB9
:1006330000120122007D00120122137E001201220A
:100643005B7E00120122307F001201226C7F0012B8
:100653000122887F0012012294A0031201228FF647
:1006630002120122A5F602120122CBF60212012286
:10067300E7F702120122F1F70212012226F9021210
:1006830001221EFA02120122FFD2021201222FD4EA
:100693000212012262D402120122ACD402120122FC
:1006A30073D60212012272A301120122DCA30112EA
:1006B30001223BA5011201224BA50112012278A5BB
:1006C30001120122CFA50112012278A601120122F3
:1006D3007FA70112012249A801120122A9A901122F
:1006E3000122ECA90112012291AA01120122DEAA20
:1006F3000112012204AB0112012212AD01120122E7
:1007030017AD011201221CAF0112012269AF0112C0
:100713000122DCAF011201220FB001120122B1B09C
:10072300011201225AB10112012292B101120122D6
:1007330095B101120122DDB1011201221DB2011294
:10074300012274B201120122568C031201226E8C13
:1007530003120122B68C03120122CC8C0312012254
:10076300138D03120122278E03120122B48E03126A
:100773000122FF8E031201223025001201223C25A3
:1007830000120122772500120122BC25001201224A
:100793007C26001201220227001201226727001281
:1007A3000122932700120122CC27001201220A2AD8
:1007B30000120122EE2B00120122D42D001201227D
:1007C300172F001201226531001201227732001225
:1007D3000122C23300120122D23400120122EF346B
:1007E300001201222A35001201224C350012012287
:1007F300AF3500120122703A00120122053B0012AC
:100803000122563B001201227D3B00120122CF3B05
:1008130000120122ED3B00120122473C001201228B
:10082300303D00120122A63E001201222A3F00128F
:10083300012226D80212012230D80212012273D8D3
:10084300021201228ED8021201221ED902120122A3
:1008530046D90212012283D902120122BAD9021205
:100863000122E3D90212012258DA021201226DDABF
:100873000212012282DA02120122B3DA02120122E7
:10088300C7DA02120122ECDA0212012226DB02127B
:10089300012252DB021201228ADB0212012209DC4D
:1008A3000212012234DC021201227DDC0212012237
:1008B300A7DC02120122D2DC021201224D9903129B
:1008C30001220080021201222E80021201227C8169
:1008D300021201225C82021201227B820212012295
:1008E300F882021201223B83021201229184021236
:1008F3000122528502120122D987021201227A882B
:10090300021201227089021201226D8A021201224F
:10091300C78B02120122528C02120122F297031298
:1009230001225B9803120122AF9803120122D69889
:10093300031201220799031201227AE6021201220D
:10094300E7E6021201222EE70212012246E8021212
:10095300012242E90212012225EA021201227EB596
:1009630002120122C0B50212012292B60212012222
:100973006BB70212012265B80212012247B90212B3
:100983000122B0B90212012266BA02120122DABAB6
:100993000212012246BB021201226FBB0212012284
:1009A300E9BB0212012282BC02120122E7BC02123D
:1009B3000122FCBC0212012242BD021201225BBDD4
:1009C30002120122C0BD02120122C3BD0212012282
:1009D3005D8903120122858903120122C38903124F
:1009E3000122818A03120122E88A03120122048B65
:1009F300031201222C8B031201225C8B03120122AE
:100A03006B8B03120122E88B031201220E8C03125B
:100A13000122409301120122DE9401120122F99670
:100A2300011201223597011201226297011201225C
:100A33004798011201228E9801120122D2980112C5
:100A43000122E498011201222499011201225199F1
:100A5300011201229C9901120122DC990112012247
:100A63000A9A011201225C9A01120122EC9A0112E4
:100A730001228A9D01120122A09F01120122DE9F01
:100A8300011201226FA101120122B4A1011201225C
:100A93002BA20112012275A201120122A0A20112AE
:100AA300012247A30112012205AC0212012284ACE8
:100AB3000212012246B20212012255B3021201228E
:100AC300BDB40212012254B502120122B453001222
:100AD3000122FD53001201222A54001201225D5407
:100AE300001201226A5400120122765400120122DC
:100AF3008854001201226F5500120122CD550012B5
:100B03000122025600120122455700120122925778
:100B130000120122B65700120122235800120122AB
:100B2300E158001201229A5900120122075A0012B9
:100B33000122B95A00120122C95A00120122505B44
:100B4300001201220F5C001201223C5C0012012200
:100B5300B55C00120122125D001201225C5D0012DD
:100B63000122F25D00120122BD5E00120122725FBA
:100B730000120122E75F00120122486000120122E5
:100B8300B26000120122EB60001201228D6100129B
:100B930001229D6200120122DD6200120122FA622B
:100BA3000012012219630012012260630012012264
:100BB300856300120122B263001201222C64001229
:100BC30001226D6400120122916500120122416627
:100BD300001201229866001201220267001201220C
:100BE3001B67001201223BA2021201228EA20212F3
:100BF30001229AA2021201226FA30212012296A3DA
:100C030002120122D1A3021201223DA402120122E7
:100C130079A402120122B2A402120122CAA402126E
:100C230001221FA50212012238A50212012281A569
:100C33000212012294A502120122AEA50212012280
:100C4300C4A502120122F7A6021201223EA8021233
:100C5300012240A9021201223AAA02120122FD7FB7
:100C630000120122D2EC0112012202ED0112012233
:100C7300CAF00112012221F201120122EAF2011249
:100C830001226AF4011201223BF50112012278F5D7
:100C9300011201229BF501120122D9F50112012251
:100CA300E2F5011201222CF60112012236F601129D
:100CB3000122E0F601120122B9F7011201220DF817
:100CC300011201226FF801120122C2F8011201225E
:100CD300F1F8011201222EF9011201224D670012CF
:100CE3000122B46A00120122BA6A001201223C7086
:100CF30000120122B574001201228B780012012226
:100D03000080031201227680031201228C800312D9
:100D13000122CD8003120122078103120122808167
:100D230003120122BB81031201222E82031201222C
:100D33006C82031201227582031201228182031243
:100D430001229D8203120122C88203120122DE8244
:100D530003120122228303120122FADC021201226E
:100D63000DDD0212012227DD0212012250DD0212E3
:100D7300012293DD02120122D2DD0212012210DED2
:100D83000212012275DE021201228ADE0212012200
:100D930095DE02120122A2DE02120122B9DE021244
:100DA3000122C7DE02120122D2DE02120122DEDE9E
:100DB30002120122F1DE02120122FCDE02120122E2
:100DC3001FDF02120122C6DF02120122D6DF021246
:100DD3000122F0DF021201220DE00212012229E0BA
:100DE300021201224EE00212012259E002120122F4
:100DF3006EE00212012282E002120122E3E00212FB
:100E03000122E9E002120122EFE002120122F5E0E1
:100E1300021201220DE10212012240E1021201221B
:100E2300C3D00112012247D101120122F6D10112CE
:100E3300012255D30112012276D50112012262D675
:100E43000112012297D601120122B9D60112012201
:100E530068D70112012260D90112012289D9011236
:100E630001221BDA011201224DDA011201225ADAA0
:100E730001120122B1DA01120122D7DA0112012291
:100E830044DD0112012247DE011201229FDE01121D
:100E9300012252C2011201225CC30112012243C486
:100EA300011201224DC4011201226FC40112012259
:100EB3007BC40112012214C60112012243C601128E
:100EC30001225FC701120122B8C7011201221EC904
:100ED30001120122FDC90112012259CA0112012284
:100EE300C6CA0112012201CB0112012240CB011219
:100EF3000122F9CD0112012213CE011201229FCE4C
:100F030001120122ADCE0112012206CF01120122EC
:100F130014CF0112012287CF01120122EBCF01125C
:100F2300012235D001120122D38C02120122F58C49
:100F3300021201221B8F021201223092021201229D
:100F4300489302120122FB9302120122DD94021242
:100F530001224E9303120122739303120122E5939C
:100F63000312012217C60212012220C60212012215
:100F730029C60212012200C702120122B1C80212BD
:100F83000122E7C80212012221C90212012257C914
:100F93000212012291C902120122C5C902120122C1
:100FA300F1C9021201223ACA0212012274CA0212C0
:100FB3000122BDCA0212012215CB021201224ACB21
:100FC30002120122A5CB02120122DFCB021201225F
:100FD30030CC0212012266CC02120122A0CC0212F2
:100FE3000122CECC02120122F1CC02120122CA9EAE
:100FF30003120122F69E03120122519F03120122C2
:101003005B9F031201226B9F0312012291CD0212F7
:1010130001229BCD02120122D9CD0212012222CE3E
:10102300021201225CCE02120122B6CE021201226A
:10103300D7CE02120122E0CE0212012231CF0212D8
:1010430001225ACF0212012264CF02120122D0CF11
:10105300021201225ED002120122ACD0021201223E
:10106300E2D00212012269D102120122A9D1021295
:101073000122E1D102120122F3D10212012212D282
:10108300021201221BD202120122D5D20212012224
:101093006A9B0312012297FD02120122CDFD021267
:1010A300012203FE021201225CFF0212012296FFBB
:1010B30002120122ACFF02120122B6FF0212012228
:1010C30018A103120122E7EA0212012200EB021225
:1010D3000122A4EB02120122E4EB02120122FDEB36
:1010E3000212012231EC021201227EEC02120122D1
:1010F300B2EC02120122F4EC02120122649C0312EC
:1011030001228D9C03120122B69C03120122F89C3A
:101113000312012252830312012277830312012255
:10112300A3830312012218A203120122913F00128A
:101133000122F54100120122A74300120122994422
:10114300001201221E45001201229C4500120122B9
:10115300C94500120122ED4800120122674900121D
:101163000122564A00120122904A00120122D04A5B
:10117300001201228A4C00120122DD4C00120122CE
:10118300264D00120122944D00120122C64D001279
:101193000122DE4D00120122F34E00120122034F01
:1011A3000012012233500012012255500012012275
:1011B3008B50001201223052001201226F52001292
:1011C30001228F5300120122149E03120122259E35
:1011D30003120122CFA1031201220EA20312012244
:1011E300EAFF01120122759F03120122859F031258
:1011F30001229D9F0312012203A003120122669A7A
:1012030003120122EB9A03120122519B03120122C2
:101213007A9603120122A396031201220E97031258
:1012230001225F9703120122B89703120122F8EEFD
:10123300021201222FEF021201229FEF021201225A
:10124300B4EF02120122FDF002120122C3F10212D5
:101253000122E2F10212012209F2021201223EF2FC
:101263000212012256F202120122A7F202120122F5
:10127300A9A20312012228FA02120122B8FA0212C9
:10128300012236FB02120122BFFB0212012254FC8F
:1012930002120122DEFC02120122E8FC02120122E8
:1012A300F7FC021201220DFD0212012220FD02129F
:1012B300012280FD0212012294FD021201220DA0DF
:1012C3000312012277A00312012289A00312012233
:1012D300F39403120122489503120122B6950312D7
:1012E3000122269603120122298F03120122538F12
:1012F300031201222890031201221C9103120122DE
:10130300E7BD02120122A4BE02120122DFBE0212B5
:10131300012207BF0212012269BF02120122B5BFD7
:10132300021201220EC0021201229FC002120122E8
:10133300A1C1021201225EC302120122E0C3021202
:10134300012245C4021201225CC4021201226CC5AF
:1013530002120122AAC502120122EDDE01120122AC
:1013630077E201120122FFE30112012256E4011286
:10137300012275E401120122F3E40112012291E634
:101383000112012275E7011201225FEB0112012212
:101393002FEC0112012263860312012292860312AB
:1013A3000122A88603120122F0860312012232874A
:1013B300031201229D87031201226C88031201226A
:1013C300D8880312012209FA0112012245FC0112F5
:1013D3000122C3FC0112012280FE01120122C7FE79
:1013E3000112012239FF0112012281FF01120122A0
:1013F300DCF20212012221F3021201223EF3021255
:101403000122FBF30212012264F40212012247F5C6
:101413000212012256F6021201225FA203120122D6
:101423008BA203E066701008A3E066700A08A3E0CD
:1014330066700408A3E06622C3E7960809E79608E6
:1014430009E7960809E79622C3E09608A3E0960801
:10145300A3E09608A3E09622C008C3E096F5080827
:10146300A3E096420808A3E096420808A3E0964545
:10147300087001D3D00822080808EAC0E0EBC0E0F6
:1014830086F0E7A4FA180986F0E7A42AFA18098671
:10149300F0E7A42AFA180986F0E7A42AFA1986F0D5
:1014A300E7A4FBE5F02AFA190886F0E7A42BFBE58D
:1014B300F03AFA190886F0E7A42BFBE5F03AFA189C
:1014C300180986F0E7A4C5F02BFBE43AFA1908E7FC
:1014D300C5F0C6A426F6E5F03BFBE43AFA1886F01D
:1014E300E7A4F6E5F00826F6E43B08F6E43A08F646
:1014F300D0E0FBD0E0FA226016080808C6C313C682
:1015030018C613C618C613C618C613C6D5E0EA22F2
:101513007009080808226016181818C6C333C608CD
:10152300C633C608C633C608C633C6D5E0EA22E6C4
:1015330027F60809E637F60809E637F60809E63715
:10154300F622E026F608A3E036F608A3E036F6080E
:10155300A3E036F622E026F008A3E036F008A3E085
:1015630036F008A3E036F022C3E697F60809E697BB
:10157300F60809E697F60809E697F622C3E096F01F
:1015830008A3E096F008A3E096F008A3E096F02203
:10159300E056F608A3E056F608A3E056F608A3E0E3
:1015A30056F622E056F008A3E056F008A3E056F002
:1015B30008A3E056F022E0F608A3E0F608A3E0F65D
:1015C30008A3E0F622E6F008A3E6F008A3E6F00895
:1015D300A3E6F022E0FAA3E0FBA3E0FCA3E0FD22F4
:1015E300EAF0A3EBF0A3ECF0A3EDF022E0F8A3E024
:1015F300F9A3E0FAA3E0FB22E8F0A3E9F0A3EAF001
:10160300A3EBF022CAC0E0E6F0A308DAFAD0E0FACE
:1016130022CAC0E0E0A3C582CCC582C583CDC58301
:10162300F0A3C582CCC582C583CDC583DAE6D0E0FD
:10163300CA22C3E498F8E499F91216768026C3E423
:101643009AFAE49BFBE920E7E9121676E498F8E4BA
:1016530099F922C3E498F8E499F9121676E498F814
:10166300E499F9C3E49AFAE49BFB22EB20E7CFE980
:1016730020E7E0B90010BB0008E88AF084F8AAF07C
:1016830022E4FBC8FA22EB70227B10C833C8C933AB
:10169300C9335007C39AC3DBF280069A50012ADB91
:1016A300EAC833F4C8C933F4C9FA2275F008E4C8A8
:1016B30033C8C933C933C99AC99B5004C92AC93B22
:1016C300D5F0ECFBC833F4C8E4C9FA22600D08C6B0
:1016D300A2E713C618C613C6D5E0F322600C08C6EA
:1016E300C313C618C613C6D5E0F422700422600DD6
:1016F30018C6C333C608C633C6D5E0F41822251866
:1017030010AF08F518400C15198008F5184002159C
:1017130019D2AF2200C0D0251810AF08F518500C0D
:1017230005198008F51850020519D2AFD0D022252B
:1017330018F58210AF08F518400C15198008F51834
:1017430040021519D2AF851983222518F582E43595
:1017530019F583222518F8E43519F9222518FAE436
:101763003519FB222518FCE43519FD22E4732518ED
:10177300C582C0E0E51934FFC583C0E0E518C39511
:101783008224F810AF088583198582188008858321
:1017930019858218D2AFCEF0A3E520F0A37808E62E
:1017A30008F0A3DEFAEFF0A3E58124FAF8E608F0E7
:1017B300A3E608F0A3E608F0A30808E608F0A3E60A
:1017C30008F0A315811581D0E0FED0E0F81581154E
:1017D300811581E8C0E0EEC0E0222518C582C0E093
:1017E300E51934FFC583C0E0E518C3958224F910D9
:1017F300AF08858319858218800885831985821827
:10180300D2AFCEF0A3E520F0A37808E608F0A3DE7C
:10181300FAEFF0A3E58124FBF8E608F0A3E608F06D
:10182300A30808E608F0A3E608F0A315811581D004
:10183300E0FED0E0F815811581E8C0E0EEC0E022BB
:10184300851983851882E0A3FEE0A3F5207808E0DC
:10185300A3F608DFFAE0A3FFE0A3C0E0E0A3C0E043
:10186300E0A3C0E0E0A3C0E0E0A3C0E010AF0885C0
:1018730082188583198008858218858319D2AFD091
:1018830083D08202011F851983851882E0A3FEE0BD
:10189300A3F5207808E0A3F608DFFAE0A3FFE0A3AE
:1018A300C0E0E0A3C0E0E0A3C0E0E0A3C0E010AF6D
:1018B300088582188583198008858218858319D243
:1018C300AFD083D08222C0D02518C582C0E0E519ED
:1018D30034FFC583C0E0E518C3958224F310AF0835
:1018E3008583198582188008858319858218D2AF6C
:1018F300C8F0A3E9F0A3EAF0A3EBF0A37908E709A2
:10190300F0A3D8FAECF0A3EDF0A3EEF0A3EFF0A36D
:10191300D0E0F0A3D0E0F0A3D0E0F0A3E520F0A363
:10192300E5F0F0A322851983851882E0C0E0A3E0E7
:10193300F9A3E0FAA3E0FBA37808E0F608A3DFFA33
:10194300E0FCA3E0FDA3E0FEA3E0FFA3E0C0E0A36F
:10195300E0C0E0A3E0F5D0A3E0F520A3E0A3F5F019
:1019630010AF0885831985821880088583198582BD
:1019730018D2AFD082D083D0E0F8D0E032740480A4
:1019830006740280027401C0E0F404121732D0E03E
:10199300121607227404800474028000CCC0E0EDA8
:1019A300C0E0E518C39CCCAD1950011D10AF068CE7
:1019B300188D1980068C188D19D2AF121614D0E029
:1019C300FDD0E0FC22D083D082E9C0E0E493A3C33E
:1019D30086F0C5F095F0F908E493A386F0C5F09579
:1019E300F0700BE493A3C3994005E9048002A3E4D8
:1019F30075F002A42582F582E5F03583F583D0E006
:101A0300F9E493A3C0E0E493C0E022D083D082EC56
:101A1300C0E0EDC0E0E493A3FCE493A3FDED4C60D0
:101A23000D121A5AEC24FFFCED34FFFD80EFE49312
:101A3300A3FCE493A3FDED4C600D121A99EC24FF73
:101A4300FCED34FFFD80EFD0E0FDD0E0FCE493A398
:101A5300C0E0E493C0E022C0E0C3E49396087401BD
:101A6300939618400FE49366700808740193661800
:101A730070007019A3A3C3E4939608740193961896
:101A8300A3A3400DD0E0D0E0D0E0021A4AA3A3A361
:101A9300A3A3A3D0E022C0E0C0F088F0E493667073
:101AA300080874019366187000A8F0A3A3700BD004
:101AB300F0D0E0D0E0D0E0021A4AA3A3D0F0D0E007
:101AC3002274F51217DDEAFEEBFFEE2434F8EF344F
:101AD30000F988088909EE2435121BF0F8EE243743
:101AE300121BF0F50AEC850AF0A4FCAAF0850AF0B3
:101AF300EDA42AFDE82CF8E43DF97A257B001216C3
:101B030076EA850882850983F074075AF87401B868
:101B130000028004C333D8FCFBEA131313541FF8E9
:101B2300EE28F8EF3400F9E8245DF582E9121BF39F
:101B33005B6003EA801CEE2436121BF0F5F0EA84A6
:101B4300A8F0EE28F8EF3400F9E82438F582E9121A
:101B53001BF3F97F0402188974F51217DDEAFEEB13
:101B6300FFEE2434121BF0C0E0EE2435F582EF348F
:101B730000F583D0E0F08E828F83A3A3A3A3A3E019
:101B8300FAA3E0FB8E828F83A3A3A3A3A3A3A3E063
:101B9300FCA3E0FDECC39AF50AED9BF50BEE247F65
:101BA300F508EF3400F509850882F583E0640170D8
:101BB3002BEE2480F582EF3400F58312199B121B60
:101BC300F97402121717E960137CDC7D04EEFAEF57
:101BD300FB120B86850882850983E4F0AC0AAD0B02
:101BE300EEFAEFFB121AC412241F021B56F582EF02
:101BF3003400F583E022C082C0838518828519836F
:101C0300E0F8A3E0F9C3EA9CEB9D5010C3EC98ED18
:101C130099401BC3EA98EB995014800EC3EA98EBE2
:101C2300994007C3EC98ED9940047901800279004B
:101C3300D083D08222EAC39CFAEB9DFB2274ED127F
:101C430017DD9003A2E064086005E06407702C9040
:101C530061C8E060269003D0E0F874FF68601CE878
:101C630075F003A4C8AAF02AF974D228FE740339C4
:101C7300FF8E828F83A3A3A3E070057900021DE08A
:101C8300EE2468F510EF3400F511906060E08510E4
:101C930082851183F0750A45750B05750800750972
:101CA30000E5D914F50EE5D95403F50F601CEE24B5
:101CB30082F50CEF3400F50D7403650F6058E50EE3
:101CC3006013EE2467121BF0700B793DEEFAEFFB05
:101CD300120BAA80A6900540E064016026850C8261
:101CE300850D83E06004780480027800850E08E5A2
:101CF30008C398FA95E0FB120A248A088B09EA457F
:101D0300097006120E02021C7E850C82850D83E08B
:101D130070048A0A8B0B78008016E5D9C0E088121C
:101D2300E50A2512F582E50B3400F583D0E0F008CF
:101D3300E8C3950E40E4850C82850D83E06028742A
:101D4300FC250EF50E780A121984AC0EA90FEEFAD3
:101D5300EFFB120C587402121717E9700AAA08ABAA
:101D6300091212D6021CCD7403650F6058850E0C40
:101D7300750D00780C121984AC0AAD0BAA08AB09D7
:101D8300120C1C7402121717851082851183E0F858
:101D93007480687005750C7F8002880CE50CF50A69
:101DA300780A121988E50FF50A780A121988A90E1C
:101DB300AC08AD099003D0E0FA7B001208BC7402B2
:101DC30012171780139003A2E06408600BAC0AADEE
:101DD3000BEEFAEFFB120CEE120E0E79017F0C02E2
:101DE300188974F31217DD74FC121701EAFEEBFF76
:101DF3008908A2AFE433F509C2AFEE2463F50AEF15
:101E03003400F50B8010AA0AAB0B120BD41212D6B6
:101E13009004E3E004F0850A82850B83E0F8A3E0F5
:101E2300F9E849602FE82402FAE93400FBEA2402C6
:101E3300F50CEB3400F50D780C1219848A828B8330
:101E4300E0FCA3E0F9EEFAEFFB120BC874021217E1
:101E530017E960B29004E3E060579004E4E0F8907F
:101E630004E3E0C398500C7402650870449004E5E1
:101E7300E0603E8E828F83A3A3A3A3E085188285AF
:101E83001983121EC4740212174DE8121EC4900463
:101E9300E2E028F0740212174DAC82AD83851882FC
:101EA300851983AA82AB8379011208C89004E3E4FD
:101EB300F0E509A2E092AF74041217177F06021827
:101EC30089F0A3E4F09004E3E0F822000085218781
:101ED3008522C622C0E074EF1218C9A2AFE433FE14
:101EE300C2AF759B00906182E0A2E05012E591A21F
:101EF300E0500C7591FE740165217003121C40E0E3
:101F0300A2E55051E591A2E5504B7591DF9003A2F4
:101F1300E064076005E0640870237401652170358F
:101F230079019003D0E0FA75F003A4CAA8F028FB66
:101F330074D22AFA74033BFB121DE58018E0640D8A
:101F430070139003C4E004F064287002E4F07A0094
:101F5300E0F9120E14906182E0A2E64003021FFE34
:101F6300E591A2E64003021FFE7591BF9003A2E034
:101F730064057008120D30120D3C8003120D367586
:101F83002100120DA2E99003A3F07900120D96121D
:101F93000AF07A017B009003A1E0F91210669078B1
:101FA30003E064427055900544E014F0704DC2AFF5
:101FB300121FB600782AD0E0F618D0E0F6E59F5459
:101FC3000770057509FF800375097FC4C0E0782990
:101FD300E6F50808E65509F509740B78081216DFCB
:101FE300D0E02508F8906270E0A2E740F8E8C33338
:101FF300906272F0906270E0D2E0F0906181E0A2B2
:10200300E35009E5E9A2E3500375E9F7A3E0A2E78A
:102013005009E591A2E7500375917FEEA2E092AFDC
:102023007F04021928C0E0C0D0C082C083906183BE
:10203300E0A2E05009E5BFA2E0500375BFFEE0A2B5
:10204300E15009E5BFA2E1500375BFFDE0A2E250F4
:1020530009E5BFA2E2500375BFFBE0A2E35009E527
:10206300BFA2E3500375BFF7E0A2E45009E5BFA2A6
:10207300E4500375BFEFE0A2E55009E5BFA2E550C8
:102083000375BFDFE0A2E65009E5BFA2E650037582
:10209300BFBFD083D082D0D0D0E032C0E074F21280
:1020A30018C9E5A7A2E4500FE5A1A2E4500953A77C
:1020B300EF75A1EF1220F2E5A7A2E5500CE5A1A26E
:1020C300E5500653A7DF75A1DFE5A7A2E15009E5B7
:1020D300A1A2E1500375A1FDE5A7A2E2500CE5A181
:1020E300A2E2500653A7FB75A1FB7F0102192874D6
:1020F300F81217DD7521019003A2E0640670077AD8
:10210300007B00120D18A2AFE433FED2AF9003A8F8
:10211300E0640170187A207B009003A1E0F91210AB
:10212300EA7A207B009003A1E0F912106C9061829F
:10213300E0D2E6F0900541E0602185C6228016904A
:1021430003A7E064017008E5C654F84405F5C653D7
:10215300BEFC121ED07401652160E4EEA2E092AFD2
:102163007F010218898E238F248582288583278502
:102173001882851983E0CEA3E0CF85288285278343
:10218300EBC9EAC8EDCBECCA75F010C3E833C8E974
:1021930033C9EA33CAEB33CBC3EA9EF526EB9FF58B
:1021A30025B35004AB25AA26EC33CCED33CDD5F0C3
:1021B300DAAE23AF242274F11217DD8A088B098C5F
:1021C3000A8D0B9092C77808121593740F12174D4E
:1021D300780C1215B99092C7780C12159378087978
:1021E3000C12143B9092C350107808790C12156BA3
:1021F300780812145B4014800E780C790812156B62
:10220300780C12145B50047901800279007F080274
:10221300188974ED1217DD8A088B098C0A8D0B90CF
:1022230092C77808121593741312174D780C121570
:10223300B99092C7780C121593780C790812143B55
:1022430040117808790C12156BAA08AB09AC0AADDA
:102253000B8022751000751100751200751301783B
:1022630010790C12156B78107908121532AA10AB7D
:1022730011AC12AD137F0C0218899092C778081223
:1022830015B98A828B8378081215A67F04021889F0
:1022930074F51217DD8C828D8378081215B98A8242
:1022A3008B83780812157F1222E7C3E098F0A3E02E
:1022B300991222D9401E9092DF78081215B98A82AA
:1022C3008B8378081215588E828F83E02420F0A325
:1022D300E0344EF080A4F08E828F83C3E09420A379
:1022E300E0944E22EA2404F8EB3400F9E8FEE9FF17
:1022F3008C828D83A3A3A3A3E0F8A3E0F98E828F3E
:10230300832274F51217DDE9FE9004F7E0FAA3E0E7
:10231300FBEEC333F8E433F9749628F582749139EC
:10232300F583E02AF508A3E03BF509780812198440
:102333009092BB1215D712216874021217178A08DC
:102343008B098C0A8D0B741078081214FAAA08AB47
:10235300097F0402188974F11217DD8A0C8B0D8C26
:102363000E8D0F740F12174DE0FAA3E0FB741112D8
:10237300174DE0F508A3E0F5097808121984EA245B
:1023830001F508EB3400F509E4F50AF50B780C794F
:102393000812147A9092EB78081215B9780C790820
:1023A30012147AAA0CAB0DAC0EAD0F122168740295
:1023B3001217178B09EA450960047A0180027A0033
:1023C300EC2AFCED3400FD741312174DE0F8A3E082
:1023D300F9E8FEE9FFECF8EDF97A717B0212167663
:1023E30088088909E4F50AF50B8E828F8378081231
:1023F30015C8ECF8EDF97A717B021216768A088B10
:1024030009740578081216EE8E828F83A3A3A3A303
:10241300E508F0A3E509F07F08021889C082C083AC
:10242300E9906000F0D083D08222C2AF0200002284
:10243300C0E074F21218C9A2AFE433FED2AFC2C037
:10244300E5D1A2E4500653D1EF1212B8EEA2E09206
:10245300AF7F01021928C0E074F21218C9A2AFE4D9
:1024630033FED2AFE589A2E1500312122875890029
:10247300C2C5EEA2E092AF7F01021928C0E074F258
:102483001218C9A2AFE433FED2AFE58BA2E050032A
:10249300121228758B00C2E880D8C0E0C0D0E8C013
:1024A300E0E9C0E0E5A8D2AFC2C7A2E7A2E792AFD6
:1024B300D0E0F9D0E0F8D0D0D0E032C0E0C0D0E82E
:1024C300C0E0E9C0E0C008C009C082C083A2AFE495
:1024D30033F9D2AF9009D3E0F8A3E0687008539AB8
:1024E300FBA374018025C2E99009D3E0F5087401C8
:1024F3002508F074532508F582E43409F583E0F5E3
:10250300C19009D3E0C394804002E4F0E9A2E092D1
:10251300AFD083D082D009D008D0E0F9D0E0F8D092
:04252300D0D0E03202
:10252800FFFFFFFFFFFFFFFFC082C083E9900D00A0
:10253800F00227BF74F7121771E99002E1F07C19D5
:102548007D037AFF7BFF1208089002E274FFF0A374
:10255800F0A3E4F0A3F079051207909002E1E0F906
:102568001206B27A267B081209D67F010218437434
:10257800F41217718A088B09EB548060309002E1DD
:10258800E0F912104E8A0A8B0BAE0AAF0BEE4F60C1
:10259800138E828F83E064B070031207A8EEFAEFFF
:1025A800FB12103CAA08E5096480FB80047A007BD2
:1025B8000002278E74F212177174FC121701EAFEDA
:1025C800EBFFEE4F6038740212174DEEF0A3EF12D6
:1025D80029F3ECF0A3ED1229F3AA82AB831206AC1F
:1025E800E9F5087073741212174D1235A7E50A45FC
:1025F8000B60658E828F8312266AEE4F7005750810
:102608000280557A067B001210A28A0C8B0DA80C4A
:10261800A90DE8497005750813803D88828983E40F
:10262800122674A3A3EEF0A3EF123A40E50AF0A332
:10263800E50BF09002E71226FC9002E76017E0FC39
:10264800A3E08003EAFCEBFD8C828D831226FC70EC
:10265800F38C828D831234CCA908740412171702E4
:102668003C42A3A3A3A3E0FEA3E0FF22F0A3F088CB
:102678008289832274F2121771890AE975F017A406
:10268800FEAFF09002E6E4F09002E41226FC600A45
:102698001210A89002E4E4F0A3F0EEFAEFFB121097
:1026A800A28A088B09EA4509602FEEFCEFFD790044
:1026B80012102A9002E4E508F0A3E509F07B0080F7
:1026C800081226E6E4F0A3F00BEBC3950A40F2E506
:1026D8000A9002E6F0790080027913023C42EB7519
:1026E800F017A4F8A9F09002E4E028FAA3E0398AE8
:1026F80082F58322123262EA4B2274F41217717542
:102708000800750900740C12174D123A14FEE9FFFF
:10271800800CE5082401F508E5093400F509C3E54E
:10272800089CE5099D503285080A85090B740378D1
:102738000A1216EEEA250AF8EB350BF98882898326
:10274800A3A3A3A3A3A31235A7EE650A7003EF659D
:102758000B70BFE8FAE9FB80047A007B00802774DD
:10276800F41217717900EAA2E0501B75087E75090A
:102778009278081219847C047D007A027B0D120776
:102788008A74021217177F04021843C082C083900C
:1027980002E71227C6601C88828983A3A3E06A70B7
:1027A80003A3E06B8882898370E8A3A3A3A31232F2
:1027B8005E80047A007B00D083D08202011F123D24
:1027C80015E8492274EE12177174FC121701EAFE1B
:1027D800EBFF851882851983E4F0A3F0EE2402123A
:1027E80034B0EE24051229E1EE2404F50EEF122D83
:1027F800C6E024FE603924FC604624FE605224FEB4
:10280800605E24FE70030228E624FE700302295E3F
:1028180024FE700302296D24FE700302297C24FC27
:10282800700302298B24FE700302299A0229D7908B
:1028380003007417F0A3E41229FB12042A0229D713
:10284800851882851983AC82AD831207AE0229A749
:10285800851882851983AC82AD831207B40229A733
:10286800850C08850D09740212174DAC82AD83855D
:10287800088285098312325E1206D08A0C8B0DAC51
:102888000CAD0DEC4D6042E4F50CF50D780C121909
:1028980084750C00750D03780C121984750C01757C
:1028A8000D03780C121984740812174D12199B79AC
:1028B800161232581207F07408121717E9F50C703F
:1028C8000B123254120442800F750C018508828560
:1028D80009831229E91234CC850C080229AA74024A
:1028E80012174DAC82AD83850C82850D8312325E42
:1028F8001206D08A108B11AC10AD11EC4D604385D7
:102908000C82850D83A3A312199B75100075110302
:102918007810121984751001751103781012198432
:10292800740812174D12199B79161232581207F0B3
:102938007408121717E9F509700B1232541204487B
:10294800800F750901850C82850D831229E91234DF
:10295800CC850908804C851882851983AC82AD83A3
:102968001207BA803A851882851983AC82AD831222
:1029780007C0802B851882851983AC82AD83120726
:10298800C6801C851882851983AC82AD831207CC5A
:10299800800D851882851983AC82AD831207D2E930
:1029A800F508E50860298E828F83A3E06414601F10
:1029B800850E82850F83E09003001229F3123D11E2
:1029C8009003011234CCE508A31229FB120424EE6B
:1029D800FAEFFB12074E0233B8F50CEF3400F50D91
:1029E80022123D1585188285198322F08518828563
:1029F800198322F07C007D03850A82850B831232BD
:102A0800622274EE12177174FC1217018A0A8B0B7A
:102A18008C0E8D0FEA2405F508EB3400F5097C15BA
:102A28007D0079007A007B0312102AE5082402F55C
:102A38000CE5091229E48518828519838582108599
:102A480083117810121984850882850983A3A3A3AA
:102A5800A3122F0E121984E5082405F510E5093490
:102A680000F5117810121984850C82850D831232B5
:102A7800681206CA74061217178A108B11AE10AFA7
:102A880011E50A2402F50AE50B1234B3EE4F700380
:102A9800022BD08017740212174D12325E88828979
:102AA80083EAF0A3EBF0900300E004F0900300E069
:102AB800C394054003022BD0E4F510F511781012E9
:102AC80019847510E975110278101219847510EAC5
:102AD8007511027810121984740612174D12199B79
:102AE8007910EEFCEFFD1232581207F07408121735
:102AF80017E9705E850882850983A3A3A3A3A3A30E
:102B0800A3E0F89002E9E0687048122F0E121984C9
:102B18007CEA7D02E5082408FAE5093400FB121076
:102B2800247402121717E960298E828F83A3A3A346
:102B3800A312325E900300E0F510740278101216AA
:102B4800EE74012510F58274033511F583EAF0A3BC
:102B5800EBF0740212174D858210858311781012DC
:102B68001984740212174D12199B850C82850D83E6
:102B7800123D261206D674041217178A108B11AE4E
:102B880010AF11900300E0F5107511007402781071
:102B98001216EE74002510F874033511F98882892D
:102BA80083A31226FC7003022A94E82403F8E9346C
:102BB80000F9EE4F6003022A9D8882898374FFF032
:102BC800A3F0900300E004F0900300E0600A1232E2
:102BD800541204367900800B8508828509831234E3
:102BE800C3790A0233B874EA12177174FE12170116
:102BF8008C128D13EA2405F50CEB123E9012266E0A
:102C0800750800750900EA2402F510EB3400F51187
:102C180085188285198385820A85830B780A12199B
:102C280084850C82850D83A3A3A3A3122DD012192A
:102C380084E50C2405F50AE50D1234B3780A121957
:102C480084850C82850D83123D241206CA740612EF
:102C580017178A0A8B0BEA450B7003022D81EA24A9
:102C680004F50EEB122DC612266E8A828B83A3A35F
:102C7800A3E0F985108285118312325E1206B8E945
:102C8800F5096003022D81E4F514F515781412197D
:102C9800847514E975150278141219847514EA7587
:102CA80015027814121984740612174D12199B799B
:102CB80013AC0AAD0B85108285118312325E1207A0
:102CC800F07408121717E9F5096003022D819002C4
:102CD800E9E0F8E5087009E02402900301F08017A4
:102CE800900301E0FCE82402FAE43400FBEA6C708B
:102CF80001EB6003022D85850882AA82122F0594B4
:102D080014122EFD5073850E82850F83E0C0E07487
:102D1800022A122DBDD0E0F00508850E82850F83AA
:102D2800A3E0C0E085080A7402250A122DBDD0E090
:102D3800F005089002E9122DD01219847CEA7D0270
:102D480085080A7402250AFA74033400FB1210126B
:102D580074021217179002E9E02508F50874FF6E4F
:102D6800700374FF6F6012EE24010EEF3400FFE56C
:102D780008C394145003022C18E508601312314953
:102D880085108285118312325E12043C790080140A
:102D9800E509700375090A851282851383EEF0A38D
:102DA800EFF0A90974021217177F0E02184385085D
:102DB8000C7402250CF58274033400F58322340068
:102DC800F50F850E82F58322123A532274EE1217FC
:102DD8007174FE1217018C0E8D0FEA2405F50CEBA9
:102DE8001229E4750B00900300E4F0F50AEA2402C6
:102DF800F508EB3400F5098049900300E0FA9002E9
:102E0800E9E0F8122F059417122EFD400D900300EB
:102E1800E0F87416C3989002E9F0122F0E12198484
:102E28007CEA7D0274012AFA74033400FB12101242
:102E380074021217179002E9E0F8900300E028F0F6
:102E4800050AE50C2416F582E50D122DC1E0F8E51A
:102E58000AC3984003022EE6900300E0C39416507C
:102E68007DE50AC333F8E433F9E50C28FEE50D39AE
:102E7800FF851882851983AC82AD838E828F831279
:102E8800325E1206D08A108B11AC10AD11EC4D7069
:102E980005750B018043E4F510F5117810121984BB
:102EA8007510E975110278101219847510EA7511F8
:102EB800027810121984740612174D12199B79168C
:102EC80085088285098312325E1207F0740812178A
:102ED80017E9F50B7003022E011234BF80107C0035
:102EE8007D0385088285098312325E12044EA90B80
:102EF80074020233BAE99400C365D03322EA28F891
:102F0800E43400F9E822E0F5107511007810227415
:102F1800EA12177174FC1217018A0C8B0D8C128D32
:102F280013EA2405F50AEB1234B375080075090095
:102F3800E50A2402F510E50B3400F51174021217A6
:102F48004D85820E85830F780E121984850A828535
:102F58000B83A3A3A3A31239FF121984E50A24053E
:102F6800F50EE50B3400F50F780E121984851082E2
:102F78008511831234B91232581206CA7406121710
:102F8800178A0E8B0FAE0EAF0FE50C2402F50EE577
:102F98000D3400F50F80408882898374FFF005089E
:102FA800122DB674FFF005089002E9E0F50C750DD6
:102FB80000780C1219847CEA7D0285080C740225BD
:102FC8000CFA74033400FB121012740212171790D3
:102FD80002E9E02508F508EE4F60718E828F83A321
:102FE800A3A3E0F9850E82850F8312325E1206B81C
:102FF800E9F509EE24041229E1E97044E4F514F531
:103008001578141219847514E975150278141219B3
:10301800847514EA75150278141219847408121745
:103028004D12199B7911EEFCEFFD850E82850F83F9
:1030380012325E1207F07408121717E9F5096027B3
:10304800850C82850D8312313F1234CCE50870035C
:10305800023125123149850E82850F8312325E12A4
:103068000454790002313A850882AA82EA9002E97A
:103078007009E02404900301F08022E0F890030135
:10308800E0F514E82404FCE43400FDEC6514700158
:10309800ED70C0122F059412122EFD50B6850C82C9
:1030A800850D83E0C0E074022A122DBDD0E0F00542
:1030B80008850C82850D83A3E0C0E0122DB6D0E010
:1030C80012315B85820C85830D780C121984740487
:1030D80012174D12199B851082851183123D2612F5
:1030E80006D674041217178A0C8B0DAE0CAF0D851B
:1030F800080C7402250CF874033400F9EE4F7003C1
:10310800022F9F851882851983E08882898312316E
:103118005BA3E0C0E0122DB6D0E0022FADE5097048
:103128000375090A850A82850B8312313F1234CC54
:10313800A9097404022DAE123D15851282851383E8
:1031480022900301E0F5F0E50884900300F07C008C
:103158007D0322F005088518828519832274EC12F4
:10316800177174FE1217018A088B098C0E8D0FEAED
:103178002405FEEB3400FF851882851983AC82ADE7
:10318800838E828F8312325E1206D08A0A8B0BEEF0
:1031980024181229E1EA450B700302322F1233A1D9
:1031A800503285188285198312325E1207E48A101C
:1031B8008B11EA4511606B7912AC0AAD0B85088258
:1031C80085098312325E85108285118312176FE993
:1031D800F50A7058E4F50AF50B780A1219848E82FC
:1031E8008F83A3A3E0F50A780A121984EE24031248
:1031F80034B0780A1219848E828F831232681207CB
:10320800F67406121717E9F50A7021850C82850DE8
:1032180083E0701F85088285098312325E12045A82
:103228008011750A0E8009750A018004E50A600399
:103238001234BF850C82850D83E06004790080021A
:10324800A90A74021217177F0C0218437C007D0329
:10325800850A82850B8312326222E0FAA3E0FB2200
:10326800E0FCA3E0FD85088285098312326222749E
:10327800EE12177174FE1217018A088B098C0C8DD7
:103288000DEA2405FEEB3400FF750E0085188285D3
:103298001983AC82AD838E828F8312325E1206D080
:1032A8008A0A8B0BEA450B700302338D1233A15047
:1032B8003585188285198312325E1207E48A0E8BCF
:1032C8000FEA450F605E7912AC0AAD0B850882855E
:1032D800098312325E850E82850F8312176FE9F516
:1032E8000E60030233908508828509831235A7AAE8
:1032F8000AFB1207D88A108B11A810A911E8497087
:103308001E7AFF7BFF1207D88A108B11A810A9110B
:10331800E849606C88828983E50AF0A3E50BF075BB
:103328000A008007750E0E805F050A9002E6E0FA33
:10333800E50AC39A504AE50A75F017A4FAABF08873
:10334800828983A3A3E02AFAA3E03BFB8A828B83CA
:103358001234B9EC4D70D2750A17750B00780A1241
:103368001984EEFCEFFD1210127402121717EEFC0E
:10337800EFFD85088285098312325E12046080148D
:10338800750E098003750E01123D0D850C82850DA1
:10339800831234CCA90E022EF8E5082402F508E5BC
:1033A800093400F5098A828B83A3A3A3E0A2E5224E
:1033B80074041217177F0A02184374EC1217718CE1
:1033C800108D11EA2405F50CEB1229E4750F00EABB
:1033D8002402F50AEB1234B3850A82F58312325EB1
:1033E8001207D88A088B09EA450970030234A575C3
:1033F8000E008071850C82850D83E06401704F8E0C
:10340800828F83A3A312199B8E828F83A3A3A3A366
:10341800E0F5127513007812121984EE2405F512DE
:10342800EF3400F51378121219841232581207F685
:103438007406121717E9F50F6014850C82850D8341
:10344800E4F0123D0D8510828511831234CC7C176F
:103458007D007900EEFAEFFB12102A8E828F83E44A
:10346800F0A3F0050E9002E6E0F8E50EC398501EB2
:10347800E50E75F017A4F8A9F0850882850983A3DD
:10348800A3123E9A1234B9EC4D60030233FC85084E
:103498008285098374FFF0A3F0E50F700612325895
:1034A800120466A90F02324FF50AEF3400F50B2219
:1034B800A3E0FCA3E0FD228E828F83123D15850ECA
:1034C80082850F83E8F0A3E9F022C082C0839002CE
:1034D800E2E06A7003A3E06B70067AE27B02800484
:1034E8007A007B000227BFC082C08378008C828D5F
:1034F80083E06A7003A3E06B7010E875F003A4F82A
:10350800A9F0EC28FAED39FB8015088C828D83A38D
:10351800A3A3E06A7003A3E06B60DF7A007B00027C
:1035280027BF74F61217711207A28A828B83E5826D
:10353800458370067A007B008007A3A3A3A31232F9
:103548005E023BBE74F2121771E9FE740E12174D3B
:103558001235A7741012174D123A1F8C828D83E012
:1035680064027036A3123D1BF50CA3E0F9A80C7495
:10357800026870037429697021750C02750D007852
:103588000C1219847808121984780A121984EEF931
:1035980012081A740612171780027901023C42E0D9
:1035A800F50AA3E0F50B2274E812177174FB1217E1
:1035B80001E9851882851983F08A168B17ECFEEDD0
:1035C800FF751000741D12174D123D11741D12174E
:1035D8004D1234CC8E828F83A3A3A3E0A2E4502D96
:1035E800741D12174D12325E1207E48A828B83E52E
:1035F80082458370030239F0790AEEFCEFFDAA16C2
:10360800AB1712176FE9F51060030239F3741F1234
:10361800174D123A1F742112174D1235A774231231
:10362800174DE0F50EA3E0F50F8E828F83E064025C
:10363800600302399EA3123D11850882850983A380
:10364800858212858313EE24061229E188828983F4
:10365800E0FAA3E0F9EA2400F514E439F515781442
:10366800121A0E0100002801289336070002285874
:10367800370328C53600298F380129BA3802295B53
:103688003803298F38042939399E39E50E450F60EA
:1036980003023999850C82850D83123A14FAE9FBE5
:1036A8008A828B83E0850A82850B83123A4A121933
:1036B800848A828B83A3E0FCA3E0023923E50E45CC
:1036C8000F6003023999850A82850B837401F01211
:1036D8003A27850882850983F07C007D008E828FD9
:1036E80083A3A3A3A3E02401FAA3E03400FB1206FA
:1036F800D0EA4B60418A828B83E02402F8850A82F3
:10370800850B83E028F0EA2404F8EB3400F988827A
:103718008983E0851282851383123A5C123A4A1231
:1037280019848A828B831234B8E5082403FAE509E0
:103738003400FB023928850A82850B83E02404F0D3
:103748007C047D007900AA12AB1312102A0239F307
:10375800E50E450F6003023999123A27FEA3E0FFF0
:10376800850A82850B837404F0EE850882850983B7
:10377800F0EF851282851383F0740312174DAC8223
:10378800AD83EEFAEFFB1206D08A0C8B0DEA450DDD
:10379800700302383C8A828B83A3A312266A7401C1
:1037A80012174D85820E85830F780E1219847405C1
:1037B80012174D12199B7CFF7DFF1206D674041256
:1037C80017178B0FEA450F7033850C82850D83120E
:1037D80039FF121984850C82850D83A312199B7CED
:1037E800027D007A0C7B931205027404121717E904
:1037F800700A740112174D74FFF0A3F08E828F8344
:10380800E064027039750C02750D00780C12198489
:103818008E828F831234B8E5082404FAE50934004F
:10382800FB1210127402121717850A82850B83E0A7
:1038380024028009740112174DEEF0A3EFF0740111
:1038480012174D123A10F0740112174DA3123A08CC
:10385800023993E50E450F6003023999850C82857C
:103868000D831234B9AA16AB1712080E850A828581
:103878000B837402F0EA850882850983F085128239
:10388800851383EB023996E50E450F6003023999DB
:10389800123A27F8A3E0F9850A82850B837402F0AF
:1038A800E8850882850983F0E985128285138302F9
:1038B8003996850C82850D8312325E12100CEAFC53
:1038C8008C82A882C3950EE4950F405FE8650E7060
:1038D80002E50F70047C008022851882851983E038
:1038E800FAE50E2AFAE50F3400FBC3EA98EB9400D8
:1038F8005003E08005E50ECCC39CFCEC850A82856C
:103908000B83F08C0A750B00780A121984850C82D7
:10391800850D83E0250EFCA3E0350FFDAA08AB0951
:1039280012101274021217170239F37510070239B0
:10393800F3E50E450F705A850C82850D83123D11F3
:10394800850A82850B837407122676123A08122696
:1039580076A3E0851282851383F0E82402FAE9341D
:1039680000FB8A828B83123A08123A37123A10A364
:10397800123A40123A19F0E82405F8E93400F988B7
:10398800828983123A19A3123A5CA3A3A3A3F080F5
:103998005A75100B8055741D12174D12325E12079E
:1039A800A28A828B83E5824583603D123D11880C93
:1039B800890DE8450D6031780E121984780A1219BC
:1039C800847808121984740612174DE0F9EEFCEF9A
:1039D800FDAA16AB17850C82850D8312176F740626
:1039E800121717E9F510800375100EA91074051247
:1039F80017177F10021843E0F50E750F00780E2296
:103A0800E085088285098322123A6622123D15E86C
:103A180022123A66A3A322E0F508A3E0F50922855D
:103A28000C82850D83E0F8A3E0F5838882E022A369
:103A3800A3F08A828B83A322F088828983A3A3A31D
:103A4800A322F08A828B83123A5322E0F50A750B7F
:103A580000780A22F088828983A3123A6622E085D8
:103A68000882850983A3A32274EE12177174FE12CB
:103A780017018A0A8B0BECFAEDFB741412174DE050
:103A8800F510A3E0F511741612174DE0FE74181224
:103A9800174DE0F50EA3E0F50F851882851983AC64
:103AA80082AD831206D08A0C8B0DEA450D604985DC
:103AB800188285198312325E1207A28A828B83E5E7
:103AC800824583602FA3A3123A1FE50845096024A5
:103AD800780E1219847810121984EEF9AC0CAD0D19
:103AE800AA0AAB0B85088285098312176F74041222
:103AF80017178006790E80027901022EF874F612E3
:103B0800177174FE121701740C12174D123A1485AE
:103B18001882851983F0740112174DE9F0E4F5084D
:103B2800F50978081219847508027808121984743E
:103B38000412174D858208858309780812198412A2
:103B480007F674061217177402121717806874F7AD
:103B5800121771EAFEEBFF89087C197D0312080E23
:103B6800EA5402600BA908EEFAEFFB1206C48002C1
:103B7800790102257274F612177174FF6A70037462
:103B8800FF6B70168C828D83123BC3E4F08C828DA0
:103B980083A3A3A3123BC3A380181207DE8A088B52
:103BA80009A808A909E849600D8882898374FF1269
:103BB8002674A3A3E4F07F0202184374FFF0A3F075
:103BC8008C828D83A3A32274F61217711207DE8AE2
:103BD800828B83E58245836006A3A3E0FA80027A9C
:103BE800007B0080D174F21217718A088B09ECFEF1
:103BF800EDFF740E12174DE0F50A1207DE8A0C8BE2
:103C08000DA80CA90DE8497026EEFCEFFD7AFF7BA4
:103C1800FF1207DE8A0C8B0DA80CA90DE849700469
:103C28007911801688828983E508F0A3E509F08870
:103C3800828983A3A3E50AF079007F0602184374FA
:103C4800EE121771EAFEEBFF8C088D09890C7414CB
:103C580012174D123D11741612174D12325E750D62
:103C680000E8496003023D057402650C6003023DEB
:103C780000741212174D123D1BFCA3E0F9EC24004E
:103C8800F50EE439F50FEAF4F8EBF4F9EC58F8E539
:103C98000F59F9E849705CE5082406F8ED3400F995
:103CA800880A890B8882F583123D2612080E8A102D
:103CB8008B11E50E65107004E50F65116042780EF2
:103CC800121984850A82850B83123D261208147402
:103CD80002121717E9F50D7027780E121984850856
:103CE80082850983A3A3123D2412082C740212179B
:103CF80017800D750D808008750D0D8003750D0BEF
:103D0800A90D0233BD8E828F83123D1522E0F8A3E0
:103D1800E0F922123D1588828983E022A3A3E0FC02
:103D2800A3E0FDEEFAEFFB2274E812177174E712B4
:103D38001701851882851983EAF0A3EBF08C168D9C
:103D480017890E750800750900743112174DE0F5D2
:103D580012A3E0F513743312174DE0F514A3E0F540
:103D680015743512174DE0F50FE50975F003A4F841
:103D7800A9F0851882851983123E9AE0F47003A38E
:103D8800E0F47003023E7DEE2402F50CEF123E9043
:103D9800E07003023E7D85160A85170B780A121912
:103DA80084AC14AD15AA12AB13120796740212173D
:103DB800178A0A8B0BEA450B7003023E7DE4F51067
:103DC800F5117810121984740612174D8582108522
:103DD80083117810121984740912174D8582108581
:103DE80083117810121984851282851383A3A3A3E3
:103DF800A312199B7914AC0AAD0B8E828F831232F1
:103E08005E1207F07408121717E97069850A82852F
:103E18000B83A3A3A3A3123D11740212174D1234EE
:103E2800CC850C82850D83E0A2E05018A90E74029F
:103E380012174DAC82AD838E828F8312325E1206CA
:103E4800E8E94208850C82850D83E0A2E15026E569
:103E58000FF50A780A121988A90E740312174DACC7
:103E680082AD838E828F8312325E1206E274011253
:103E78001717E942080509E509C394025003023DF2
:103E880071A90874190239F73400F50D850C82F50B
:103E98008322E028FEA3E039FF8E828F832274F20A
:103EA800121771EAFEEBFF890B7401650B600E7443
:103EB80002650B706A79011209F4E97062EEFAEF93
:103EC800FB1207D88A088B09EA45096047750A007A
:103ED800800B7C177D00790012102A050A9002E6F3
:103EE800E0F8E50AC3985021E50A75F017A4F8A987
:103EF800F0850882850983A3A3E028FAA3E039FBAB
:103F08008A828B831227C670C985088285098374C3
:103F1800FFF0A3F07C197D03EEFAEFFB120808020C
:103F28003C4274F21217718A088B09ECFEEDFF749B
:103F38000E12174D1235A7900D00E0F4603D7A0976
:103F48007B00121036EA4B60328A828B8374B1F0A0
:103F5800A3E4123A39A3123A37A3E508F0A3E50916
:103F6800123F86EEF0A3EF123F86A3A3E50AF0A363
:103F7800E50BF0900D00E0F9121042023C42F08A85
:103F8800828B83A3A3A3A3A32274F012177174FADC
:103F98001217018908ECFEEDFF7509008A0A8B0BE0
:103FA800780A1219C8000410B941D43FF23F0C40F6
:103FB800244042405A407D409540A940D34050415A
:103FC800614178419341B941B941E94074016508BB
:103FD80060030241B48E828F83E0F8C394034003E8
:103FE8000241B4E8900DEC02419074026508600348
:103FF8000241B48E828F83124961900DEDE8F0A3DF
:10400800E90241907401650860030241B41241E17C
:1040180040030241B4E890076602419074016508C4
:1040280060030241B48E828F83E0F8C39405400395
:104038000241B4E890076702419074016508600383
:104048000241B41241E140030241B4E8900768021A
:1040580041907410650860030241B4750A10750B2D
:1040680000780A1219847A697B07121012740212F6
:1040780017170241DA7401650860030241B412415E
:10408800E140030241B4E890077902419074016568
:104098000860030241B48E828F83E0900DF00241E4
:1040A800907404650860030241B48E828F83780C93
:1040B8001215B99092BB780C12145B50030241B4EC
:1040C80090077B780C1215C80241DAE960030241B7
:1040D800B4120670E9700512118C805690080E8093
:1040E800637407650860030241B4750A06750B001E
:1040F800780A1219848E828F83A3AC82AD837402EE
:1041080012175F12101874021217177C007D00AA8C
:1041180018AB198E828F83E0F9121138E9F50AC3BA
:10412800940A40030241D7120670E9700CA90A12DA
:1041380011927950121354806E740F250AF582E497
:104148003408F5837401804074016508705E12417B
:10415800E15059E890077A802F74016508704D8EF8
:10416800828F83E0F8C3940A5042E8900DEF8018DC
:104178007401650870368E828F83E0F874F928C35D
:10418800940A5028E8900DF1F08047740165087092
:104198001B90080DE0F88E828F83E090080DF0E800
:1041A8007030E06401702B12118080267509188028
:1041B80021C3EA9427EB9400501574026508700F28
:1041C8008E828F83124C8412050EE9F509800375DF
:1041D8000902A90974060245C18E828F83E0F8C3DB
:1041E800940222740E1217177F0402184374F012F7
:1041F800177174B11217018C0E8D0F90926C742088
:1042080012176774061216147420121767121138E1
:10421800E9F50B745F12174DE0F50CE9C3940A40F9
:104228000302437375F006E9A4F509744112176790
:104238007A0E74202509F912134EE97009744D128B
:10424800174DE0FE80027E00900DECE064027005E0
:1042580075080180037508007408650C70047422E1
:10426800800274212509FF7C1B7D007900742612C9
:10427800175F12102AEEA2E0E433F50A742612172B
:10428800677A1BEFF912134EE97025744012174D27
:10429800E024F9C3940A5018780812198874271270
:1042A8001767A90AAA0EAB0F1205B07401121717E7
:1042B8007C147D007900740C12175F12102A740C9C
:1042C8001217677A1074242509F912134EE9703011
:1042D8007C1079FF740C12175F12108AE970217430
:1042E8001C12174DAC82AD837A0474252509F91286
:1042F800134E740C121767A90AAA0EAB0F12059871
:10430800AC18AD197A0C7470250BF912134EE970BC
:1043180049AA18AB191211687F00EF75F003A4F8C9
:10432800A9F0851882851983E58228F8E583124A61
:1043380089124C7E601D88828983A3A3E0F50875E5
:1043480009007808121984AA0EAB0F1207FC740230
:104358001217170FEFC3940440C0EEA2E1500C905F
:104368000765E0F9AA0EAB0F1208027404650C7019
:1043780027900DECE06402701F7A00900779E060E6
:10438800010A900766E06004780480027800E84A31
:10439800F9AA0EAB0F1206587900744F0245C17482
:1043A800F112177174F01217018A0C8B0D8C088D9D
:1043B800097E0AE9600C14600914603A14607502F9
:1043C800448D12117AE9FEC3940A400302448DE534
:1043D800084509700302448D750A06750B00780AB2
:1043E800121984AC0CAD0DAA08AB09121012740294
:1043F80012171702448D7F00750A06750B00780A9C
:10440800121984AC0CAD0DEF75F00EA4F8A9F07478
:104418008728FA740739FB1210247402121717E957
:1044280070090FEFC3940A505C80CDEFFEC3940A65
:10443800505380427F00AC18AD197A1075F006EF22
:10444800A42423F912134EE9701C7C1079FFAA18D2
:10445800AB1912108AE9700EAC0CAD0DAA18AB1985
:1044680012057AE960090FEFC3940A501880C7EF64
:10447800FEC3940A500FE50845096009AA08AB096C
:10448800EEF9121174EEF974101217177F0702185B
:104498004374F4121771E9FF7E1574FF6A70037490
:1044A800FF6B7028750800EFFC7A027B00A90812E0
:1044B8001156E960027E000508E508C3940A40E742
:1044C800EF604E7AA47B11120A0680451209E88A29
:1044D800088B09EA450960387C007D00EA2405FA62
:1044E800E43509FB850882850983A3A3A3A3E0F922
:1044F800121138E9C3940A500BEFFC7A027B0012C0
:1045080011567E00EF600AAA08AB091211A48001B7
:104518001EEEF90241F074F21217718C088D097EB3
:1045280015740E12174DE0F50AA3E0F50B74FF6A37
:10453800700374FF6B701D7F00AC0AAD0BAA08AB4B
:1045480009EFF912115CE960027E000FEFC3940ACB
:10455800503B80E51209E88A828B83E582458360B7
:104568002B7C007D00E5822405FAE43583FBA3A3B8
:10457800A3A3E0F9121138E9C3940A5010AC0AADAC
:104588000BAA08AB0912115C7E0080011EEEF97FB0
:1045980006021843C082C08390077FEAF0A3EBF0BD
:1045A800900765E0FC7D007A267B0012050E9007D7
:1045B80065E0F91207780250841217177F0802186D
:1045C8004374F012177174EC121701EAFEEBFFEE58
:1045D800240CF50CE43FF50DEE2405F50EE43FF54B
:1045E8000FEE2409F50AE43FF50BEE2403F508E481
:1045F8003FF5098E828F83A3A3E024FA7003024853
:104608008524FD70030247A31470030246A01460BA
:104618001024FD700302477A1470030247DA024837
:10462800DC125386604AE0F5838882E0F50EA3E049
:10463800F50FE50E450F6038850C82850D83E0F592
:104648000C780C121988EE240BF582E43FF583E010
:10465800F9850A82850B83124C840A0A0AAB0985FC
:104668000E82850F8312176F74011217170248DC28
:10467800850A82850B8312199B90077B1215D71226
:1046880005AA7402121717E970030248DC7901853C
:104698000A82850B830248508E828F83A385820A03
:1046A80085830BE0600302475D850E82850F83E0FA
:1046B800A2E0400302475D90081912538960030283
:1046C800475D7C0E7D007900AA18AB1912102A8567
:1046D8000C82850D8312504FEA4B6010750C0675DD
:1046E8000D00780C121984EA2410801B125049120C
:1046F80009E8EA4B70030248DC750C06750D007872
:104708000C121984EA2405FCE43BFD740212175FBD
:104718001210127402121717850E82850F83E0A2F9
:10472800E25004D2F08002C2F0A2F0E433F8740C34
:1047380012174DE048F0EEFCEFFDAA18AB19121164
:104748006EE970117A027B00900765E0F912106635
:1047580079000248DE12538670030248DC1248E3EF
:1047680070030248DC850A82850B83E0FC7901022C
:10477800487912538670030248DC12500E890BE800
:10478800450B70030248DC8E828F83A3E0FC79021C
:104798001250498882850B830248807C007D00EE98
:1047A8002404FAE43FFB850882850983E0F91211A5
:1047B80038E9F8C3940A40030248DCEE240AFCE412
:1047C8003FFD7A0475F006E8A42425F9121348027F
:1047D80048DC12504990077AE06007900DEFE0F945
:1047E8008069900DECE070047905805F1209E88A11
:1047F8000C8B0DA80CA90DE82404F50CE439F50D73
:104808008E828F83A3A3A3A3A3A3A3E0A2E0504116
:10481800E84970030248DC850C82850D83E0FE6060
:1048280030850A82850B83E054107025740E1217A8
:1048380067E82405FAE439FBEEF9121138E970113A
:10484800790385088285098312504F1205A402480E
:10485800DCAC0EAD0F850C82850D83E0F912504952
:104868001211B0125386606C1248E360677C0079BD
:10487800001250498E828F8312176F80571206706C
:10488800E9705190080EE06401701512118C9008BF
:104898000EE4F07C0AFDF97A0F7B0812102A802CAE
:1048A800750A00850A08740F2508FEE43408FF8E8F
:1048B800828F83E06401700BA90A1211928E828F95
:1048C80083E4F0050AE50AC3940A40D77950121325
:1048D80054121180790174140245C1125012E8FE75
:1048E800E9FFEE4F2274F412177174F2121701EAFD
:1048F800FE8C0975F006E9A42420F508AC18AD195A
:104908007A0EF912134EE9704B7C0679FFAA18ABA0
:104918001912108AE9703D740C12174D124961E89A
:10492800F50BE5096005EE420B8004EEF4520B85A9
:104938000B82AA82E86A7001E96015740C12174D9F
:10494800EAF0A3E4F0AC18AD197A0EA908121348DE
:104958007901800279000241EBE0F8A3E0F92274C2
:10496800F212177174E612170189098A0C8B0DEC83
:10497800FEEDFF740C1217677A0E75F006E9A42491
:1049880020F912134EE96003024A4C7C0679FF7441
:104998000C12175F12108AE96003024A4C747025E2
:1049A80009F508AC18AD197A0CF912134EE9600331
:1049B800024A48AA18AB19121168E50C450D701D7A
:1049C8007C0C7900AA18AB1912108AE970727C0C59
:1049D8007D007900AA18AB1912102A8051AC18ADC5
:1049E80019AA0CAB0D1211628A0A8B0BA80AA90B23
:1049F800E8497022EE4F604CAC18AD197A007B0084
:104A0800121162EAF8EBF9EA4B603988828983E58A
:104A18000CF0A3E50DF0124AC5FAEE6A7001EF60DA
:104A28001FEEF04F700888828983E4F0A3F0AA187B
:104A3800AB19121168AC18AD197A0CA908121348F1
:104A4800790180027900741A12171702459774F7D2
:104A58001217717F00EF75F003A4F8A9F0EC28F89D
:104A6800ED124A89E06A7003A3E06B7006E8FAE980
:104A7800FB800B0FEFC3940440DB7A007B00024DF0
:104A8800C139F9888289832274F71217717E00EE82
:104A980075F003A4F8A9F0EA28F8EB124A89E0F4C3
:104AA800FCA3E0F4FD88828983ECF0A3EDF0124AC0
:104AB800C5F4F00EEEC3940440D5024DC1E82402BB
:104AC800F582E439F583E02274F412177174F41254
:104AD8001701EAFEEBFF8C0A8D0B90081912538917
:104AE800704FEE4F7003024C5FEC450B7003024CA5
:104AF8005F12117AE9900DF2F0C3940A40337508F9
:104B0800007C0679FFE50875F00EA4FAABF0748115
:104B18002AFA74073BFB12108AE96003024BB805B6
:104B280008E508C3940A40D975090AE509900DF209
:104B3800F0900DF2E0C3940A4003024C5F75F00652
:104B4800E0A4F890081912504FEA4B7069EEFCEF98
:104B5800FD7A0E742028F91213487C0C7D0079FF29
:104B6800AA18AB1912102AAC18AD197A0C900DF2CC
:104B7800E02470F912134875080E750900780812B8
:104B88001984EEFCEFFD900DF2E075F00EA4F8A983
:104B9800F0748128FA740739FB1210127402121784
:104BA80017900819E50AF0A3E50BF07900024C61AB
:104BB800850809024B33124C662406124C7860199A
:104BC8007A1B742128F9121348124C6F2406F582B7
:104BD800E438F583E4F0A380D1124C66240A124C21
:104BE8007860107A1B742228F9121348124C6F242B
:104BF8000A80DB124C66240C124C7860107A107410
:104C08002328F9121348124C6F240C80C1124C66E9
:104C18002408124C7860347A10742428F912134846
:104C2800124C6F2408F582E438F583E02410FCA3C5
:104C3800E03400FD7A0475F006900DF2E0A4242516
:104C4800F9121348124C6F2408808390080DE06015
:104C5800031211B61211AA7901740C0241ED9008E1
:104C680019E0F9A3E0C922900819E0F8A3E0C822E6
:104C7800F582E439F583124C84EC4D22E0FCA3E084
:104C8800FD2274F412177174F2121701EAFEEBFF99
:104C9800E9C3940A5004EE4F700479028034AC18CA
:104CA800AD197A0E75F006E9A42420F912134EE91D
:104CB800F508701C750A06750B00780A12198474B9
:104CC80002121767EEFAEFFB12101274021217178E
:104CD800A9080241EB74F4121771EAFEEBFF75089C
:104CE80000750A06750B00780A121984EEFCEFFDB0
:104CF800E50875F00EA4F8A9F0748128FA7407394C
:104D0800FB1210247402121717E96004A908800B1B
:104D18000508E508C3940A40C8790A0241F074F707
:104D2800121771750800E50875F00EA4F8A9F0745B
:104D38008128FE740739FFEEFCEFFD7A0E75F00648
:104D4800E508A42420F912134EE960297C067D00A9
:104D580079FFEEFAEFFB12102A7C067D0079FFEE50
:104D68002CFAE43FFB12102AEE240CF582E43FF5FE
:104D780083E4F0A3F00508E508C3940A40A8900866
:104D88000DE060031211B61211AA802D74F71217E4
:104D9800717E007F007C0679FFEF75F00EA4FAABF8
:104DA800F074812AFA74073BFB12108AE970010E2D
:104DB8000FEFC3940A40DEEEF97F0102184374F73F
:104DC8001217717E00EEF91211920EEEC3940A507A
:104DD80003E960F180E374F312177174CB121701C1
:104DE800E9FF900DF2E06F701B7A017B0090076578
:104DF800E0F912106C7A027B00900765E0F9121056
:104E08006C1211C275F006EFA4FE74202EF508741A
:104E1800271217677A0EA90812134EE96003024E8B
:104E2800E47C0679FF742712175F12108AE9600381
:104E3800024EE47C0E7D0079FF742712175F121072
:104E48002A7C1B7D0079FF740C12175F12102A7CD4
:104E58000C7D0079FFAA18AB1912102A74271217B3
:104E6800677A0EA908121348E9F508740C12176737
:104E78007A1B74212EF9121348E9F50C740C1217D9
:104E8800677A1B74222EF9121348E9F50B740C1279
:104E980017677A1074232EF9121348E9F509740C70
:104EA8001217677A1074242EF9121348E9F50A7458
:104EB8000C1217677A0474252EF9121348E9FEAC10
:104EC80018AD197A0C74702FF9121348E9F8E50C2B
:104ED800450B4509450A4E4842088003750800A954
:104EE8000874351217177F0502184374F7121771E3
:104EF800E9900765F0121180024DC174F412177120
:104F0800EAFEEBFF54807003024F9B900765E0F9BF
:104F180012104E8A088B09EA4509607078018A8266
:104F28008B83E02450603D14600624E1604F80527A
:104F3800A3A3A3A3E0704E8A828B83A3A3A3A3A3F6
:104F4800A3A312199B8A828B83A3A3A3A3A3124CA6
:104F5800848A828B83A3A312504F121144740212C5
:104F680017178021A3A3A3A3E0641E701879008AF1
:104F7800828B83A3A312504F12113E800812115046
:104F8800E9F8E86007AA08AB0912103CEEFAEF64EA
:104F9800808065EE540260237C007D007A007B00EF
:104FA80012116EE960117A017B00900765E0F91231
:104FB8001066EE6402803F7A028046EEA2E0503F1F
:104FC80012501F12504F1211BCE9602F1253866005
:104FD8001F12500E88088909E8450960137C00797A
:104FE8000112501F12504F85088285098312176FCE
:104FF8001211C2EE6401FAEFFB80087A0180027A8E
:10500800007B000241F012501222E0F5838882A34F
:10501800A3E0F8A3E0F922900819E0F8A3E0F583EB
:105028008882A3A3A3227F02021843C082C0839070
:105038000765E0F98A828B83A312504F1208028019
:105048003B850882850983E0FAA3E0FB22C082C081
:105058008374FF121701121186E9C394028518821E
:10506800851983400474028002740AF0AC18AD19E3
:105078007A0179051206887401121717D083D08235
:1050880002011F74F412177174E81217018A088B51
:1050980009E9FE8C0A8D0B7C187D007900AA18ABF3
:1050A8001912102A851882851983E508F0A3E509E5
:1050B800F0900767E0C0E0740212174DD0E0F0905E
:1050C8000768E0C0E0740312174DD0E0F0900DF1CE
:1050D800E0C0E0741712174DD0E0F0741512174DA8
:1050E800E054FEF8A3E0F9900DF0E0A2E0E433FA12
:1050F800E84AF8741512174D125226A2E15004D24C
:10510800F08002C2F0E854FDFAA2F0E43325E0F89A
:10511800EA48F8741512174D125226A2E35004D229
:10512800F08002C2F0E854F7FAA2F0E433F508750B
:105138000900740378081216EE12521F12174D1246
:105148005226A2E45004D2F08002C2F0E854EFFAEA
:10515800A2F0E433F508740478081216EE12521F10
:1051680012174D125226A2E55004D2F08002C2F066
:10517800E854DFFAA2F0E433F5087405780812164B
:10518800EE12521F12174D125226A2E25004D2F00C
:105198008002C2F0E854FBFAA2F0E433F508740286
:1051A80078081216EE12521F12174DE8F0A3E9F014
:1051B800900768E0601D75081078081219847C69EA
:1051C8007D07740612174DAA82AB8312101274025F
:1051D800121717900779E06010EE6009741512171E
:1051E8004DE04402F0780180027800741412174DE3
:1051F800E048F0900766E060047804800278007464
:105208001412174DE048F0AC0AAD0BAA18AB1912EE
:10521800059E74180241EDEA4508F8741522E8F075
:10522800A3E9F0900DF0E02274F712177112087AD2
:10523800750800E50875F00EA4F8A9F0748128FE39
:10524800740739FF7C0679FFEEFAEFFB12108AE942
:105258007009EEFAEFFB79001208800508E508C32B
:10526800940A40CF024DC174F612177174FD1217DB
:1052780001EAFEEBFF90081B125389703975081D6F
:1052880075090878081219847508027509007808E4
:1052980012198475080675099378081219847CFF19
:1052A8007DFF7A017B001206CA7406121717900850
:1052B8001BEAF0A3EBF090081B125389700302530A
:1052C80070E4F508F5097808121984740412175760
:1052D80088088909780812198474041217578808ED
:1052E8008909780812198490081D12199B7902906F
:1052F800081B12537E1207F07408121717E970364C
:10530800851882851983E0FA740112174DE0F8E4D4
:10531800C8F9EA28F508E439F509EA450960177873
:105328000812198490081B125022A312537E1211DE
:10533800447402121717E4F508F50978081219845D
:1053480090081D12199B7CFF7DFF90081B12504F7F
:105358001206D6740412171790081BEAF0A3EBF094
:1053680090081B1253897004790180027900740334
:1053780012171702502E124C84EEFAEFFB229007F8
:105388007F124961E84922C082C0839008191253EC
:1053980089601090081912504F12103C900819E4B7
:1053A800F0A3F0900DF2740AF0025084C082C0831A
:1053B8009061907404F0A37448F0A3E4F0906180C5
:1053C8007440F09061BC7407F09061877469F09044
:1053D80061B67416F07900120AF67902120AFC9086
:1053E8002528E493F46006E493F9120AD2790512A9
:1053F8000DF60257AFC082C083E9540FF99061855A
:10540800E0696012E5C654804449F5C6E59E547FBC
:10541800644970F8E9F053C680E59E547F70FA023B
:1054280057AF74F7121771E5A8FE53A87E120ADE6B
:10543800C2BA539AFEC289759B00C2C2120AE475A9
:10544800A91175B905120AEAD2BA439A0174805EA5
:1054580042A8025D46C082C083906181E4F0A30245
:1054680057AC75E90075910075BF0002011FC08235
:10547800C083906181E4F0A374C0F0A3E40257AE46
:10548800C082C08374F81217019003A41266DF70FB
:10549800030255679003A4E05440602379088518F7
:1054A80082851983AA82AB83120BF285188285192B
:1054B80083AA82AB831208A49003A4E054BFF0E04F
:1054C80054806010790C7A657B05120BF29003A466
:1054D800E0547FF0E0A2E0500F7900120AF61208BB
:1054E800AA9003A4E054FEF0E05402600F79011280
:1054F8000AF61208AA9003A4E054FDF0E0540460F0
:105508000F7900120AFC1208B09003A4E054FBF0D3
:10551800E05408600F7901120AFC1208B09003A445
:10552800E054F7F0E05410600F7902120AFC1208F8
:10553800B09003A4E054EFF0E05420600F79031218
:105548000AFC1208B09003A4E054DFF0A3E0540171
:10555800600D120B081208B69003A5E054FEF07413
:10556800081217170257AFC082C083E9600514609C
:105578002A804F90619A7433F0A37455F09061A01B
:10558800743AF090053FE064017009C2919003A657
:105598007467802D9003A67461802690619A743F89
:1055A800F0A3745AF09061A0747FF090053FE06416
:1055B800017009D2919003A6747180059003A674B6
:1055C8006AF00257AFC082C083E9600B14600D1403
:1055D800601714600C802090252C801590252D8054
:1055E8001090053FE06401700590252E80039025FA
:1055F8002FE493906186F00257AF74EE121771741E
:10560800F4121701851882851983AC82AD837583DE
:10561800927582D3740412161490252C93F46003A7
:1056280002572C907808E0C39402500302570C7478
:105638000412174DAC82AD83758392758255740838
:10564800121614FC7EFF7FFF8E0C7D008C828582F3
:105658000E800F74086D606D74096D6068740A6D52
:1056680060638D08750900740278081216EE1257E7
:10567800361215B9A909E50AC9F888107418780806
:105688001214FAE5104508FAE9FBE50EC333F8E40D
:1056980033F9740412174DE58228F582E58339122F
:1056A8005C36C3E89AE99B4008E8C39AF8E99B800E
:1056B80006EAC398F8EB99F9C3E89EE99F5006E813
:1056C800FEE9FF8D0C0DEDC39413408774FF6E70D7
:1056D8000374FF6F6024850C08740278081216EEB4
:1056E8001257361215B9851882851983E582250E59
:1056F800F582E5831260D5E508F00CECC3940450FC
:105708000302564C7508017509007808121984744B
:105718000212174DAC82AD837A4B7B0912120474C6
:1057280002121717740C1217177F0A0218437448CD
:105738002508F58274783509F583780822C082C077
:1057480083906186E0F890252FE49368700990258E
:105758002EE493906186F09061AE7468F0A3746A49
:10576800F090624574FBF0A304F053F4FD43FE028D
:1057780090053F7401F09061A0E0643A70047900EC
:1057880080027901120AF60257AFC082C0839004E2
:10579800F1E06401700A9004F6E06004790C80027C
:1057A80079008003F0A3F0D083D08202011FC08269
:1057B800C08375E1F19004F4E0604D146009146051
:1057C80051146049147050120B1A9004EAE0F97AE7
:1057D800EB7B04120D789092DB1215D7120DAE9068
:1057E80092BF1215D7120D849004F5E0F9120D90AE
:1057F8007901120DEA1258D224161260D27432F0CE
:10580800A3740BF07900809F120B2080BD120B2629
:1058180080B8120B2C80B3791280EB74F4121771D4
:1058280075D90D9004D5E0A2E0E4331313F81258AB
:10583800C8484401F5D9780012593540FB780088EA
:105848000874D6126635740412593F40F275E19512
:105858009004D5E0F97AD67B04120D7E900D22745F
:10586800A8F0A3740A125945125989125980125A7C
:105878009D9004F4E064019004E8700B1258DB1268
:1058880015B99092E780091258DB1215B99092EF7A
:1058980078081215459092C778081215931258D2B5
:1058A800240E1260D278081215C81258D224141285
:1058B80060D27413F09003A27402F07F04021843BC
:1058C8009004EAE0C4333354C0229004E8E0F8A31B
:1058D800E0C82212656D78082274F6121771125A00
:1058E8006E8AD9780012593540FB78008006125923
:1058F800E6125B23E8C39940F5125A601259354005
:10590800FB780080081266317405125B23E8C3999E
:1059180040F375E195900D2274B4F0A3740A1259FE
:105928004512594F7412F09003A2025D0A88087458
:10593800EB2508F5827404125CA0940622125A869C
:1059480074AEF0A3740A22125989125980125AA10E
:105958009004E8E0F8A3E0C8240E12597874FF1206
:1059680063AA9004E8E0F8A3E0C824141259782246
:10597800F582E83400F58322F0A374C6F0A3740A14
:105988002212598D2212599122F0A3745EF0A37449
:105998000C2274F61217711259DB1258C84402F51A
:1059A800D9780012593540FB780080061259E61262
:1059B8005B23E8C39940F575E195900D221259F1E2
:1059C800F0A31259F11259527414F09003A27404FE
:1059D800025D0C9004FAE0F9740729F5D9228808C9
:1059E80074FB2508F58274042274C01259FE1259FA
:1059F800FEF0A3740A22F0A3740AF0A374C0227400
:105A0800F6121771125A6E74064AF5D978001259AF
:105A18003540FB780080061259E6125B23E8C399EB
:105A280040F5125A6012593540FB7800800812661A
:105A3800317405125B23E8C39940F375E195900D25
:105A48002274BAF0A3740A125A7C12594F7415F0D2
:105A58009003A27403025D0C90051A1259DE7404B7
:105A68004AF5D97800221259DB9004EAE0C43333AE
:105A780054C0FA22125A86745EF0A3740C22125A89
:105A88008A22125A97745EF0A3740C125A97221243
:105A98005991F0A322125AA122F0900D30745EF0B1
:105AA800A3740C125A8A745EF0A3740C12598DF008
:105AB80022C082C0831258D224061260D2E4025750
:105AC800AC74F71217719003D0E0F875F003A4C80E
:105AD800AAF02AF974D228F8740339F9E82405FAE7
:105AE800E9126580A3A3A3A3A3A3A3A3A31266811A
:105AF800A3A3A3A3A3A3A3E024FFF8A3E034FFF97F
:105B08008A828B83E8F0A3E9F0025D467F060218DB
:105B180043880874452508F58274051260ACF5D9E8
